:10000000F03F00001500001000000000000000009C
:10001000002070477CB51B48292149060862012051
:1000200008600020486138200863092088600F209C
:100030000861002008613F20C861FE20C8600420DC
:10004000486000BF00BF00BF00BFFFF7E1FF0646EA
:100050000D4840680090002001900B4D002405E001
:10006000A0002858A100019A5050641C282CF7D3F6
:100070000021009848600098804700BF00BF00BF83
:1000800000BF7CBDA07F0000000400100000000045
:100090000000000000000000000000000000000060
:1000A0000000000000000000000000000000000050
:1000B0000000000000000000000000000000000040
:1000C0000000000000000000000000000000000030
:1002C000000300000000000000000000000000002B
:1002D0000003000000B900000003000000B90000A6
:1002E00000C0000000040000010001000701070138
:1002F0000601424C41444533610000000100070003
:1003000000000000000000000000000000000000ED
:1003100000000000000000000000000000000000DD
:1003200000000000000000000000000000000000CD
:1003300000000000000000000000000000000000BD
:1003400000000000000000000000000000000000AD
:10035000000000000000000000000000000000009D
:10036000000000000000000000000000000000008D
:10037000000000000000000000000000000000007D
:10038000000000000000000000000000000000006D
:10039000000000000000000000000000000000005D
:1003A000000000000000000000000000000000004D
:1003B000000000000000000000000000000000003D
:1003C000000000000000000000000000000000002D
:1003D000000000000000000000000000000000001D
:1003E000000000000000000000000000000000000D
:1003F00000000000000000000000000000000000FD
:10040000F03F00003B27001000000000000000004B
:1004100000000000000000000000000000000000DC
:1004200000000000000000000000000000000000CC
:100430000000000000000000F1050010A37D001086
:100440005D240010392700103927001039270010CB
:1004500039270010F3630010F1630010FD1600103F
:1004600039270010392700103927001039270010CC
:10047000392700107B0A00101F17001041170010C9
:100480006317001039270010392700103927001092
:10049000392700103927001039270010392700109C
:1004A000392700103927001039270010392700108C
:1004B000392700103927001039270010392700107C
:1004C00003B40148019001BDC100000003B401481C
:1004D000019001BD013D000000F002F800F040F87D
:1004E0000CA030C8083824182D18A246671EAB4649
:1004F00054465D46AC4201D100F032F87E460F3ED4
:100500000FCCB6460126334200D0FB1AA246AB46BA
:1005100033431847C4A5000024A60000103A02D3B4
:1005200078C878C1FAD8520701D330C830C101D594
:1005300004680C607047000000230024002500269A
:10054000103A01D378C1FBD8520700D330C100D58F
:100550000B6070471FB5C046C0461FBD10B510BD2B
:1005600009F0F3F81146FFF7F5FF02F009F909F079
:100570000BF903B4FFF7F2FF03BC02F026F9000009
:10058000FCB40022002300240025002600270629B1
:1005900002D4FCC00639FAE7002902D004C00139B0
:1005A000FAE7FCBC7047000002B472B60178013172
:1005B000017062B60139080002BC704702B472B61D
:1005C00001780139017062B6080002BC7047000072
:1005D00062B6704772B670471C3880F3098870475E
:1005E000014802490160704704ED00E0000000107E
:1005F000114B1968114A1268914216D0EFF3098025
:1006000020380860F0C044464D4656465F46F0C06C
:100610001A6010681030F0C8A046A946B246BB4622
:100620002038F0C8103080F30988054B002018707E
:1006300004204042004700000403000000030000C3
:10064000F302000070B505460C46164602E00FCCDA
:100650000FC5103E102EFAD2082E02D303CC03C5CC
:10066000083E042E07D301CC01C5361F03E02178D4
:100670002970641C6D1C761EF9D270BD02460020E4
:100680000121890700E089089142FCD808E043185D
:10069000934203D8121A521A4B00181840088908BE
:1006A0000029F4D170477FB5002502265C00009533
:1006B000802809D08B280CD0A02821D0A2281ED1B8
:1006C00006291CD16F481EE0002918D1012080079F
:1006D00019E0042913D1D807C00FC0186A49400097
:1006E00041180091890704D00099C91C8908890024
:1006F00000916946001D08810098002806D17FBD41
:100700000529FCD161480090684604816048242195
:100710004180472145600170082141705C480021FB
:10072000083001906846867344814373027301F078
:100730003BFF0021022001F065FE0121022001F0B3
:1007400061FE7FBDFFB588B01498159F1399129D67
:1007500084460591119CF9077807AE46002948D0D8
:10076000800F2BD0002021E041000391089D6E5A9C
:10077000099D6D5E515EED10751B2DB200918D428D
:1007800018DDBE0717E0039955520099691A0AE06F
:1007900076467143059E7543491965462941039D77
:1007A0005153009D491B039D401C5953A042DBDB64
:1007B0000CB0F0BD7E07002EEADAE4E7002115E078
:1007C00008984D00465B09987746405FC010301A84
:1007D00006B2505F00907843059F7E4386196046BD
:1007E000064156530098301A5853491CA142E7DB82
:1007F000DEE7800F2AD0002021E04100099D03910F
:100800006D5EEE10089D6D5A515E751B2DB2009104
:100810008D4217DDBE0716E0039955520099691AFB
:100820000AE076467143059E75434919654629419C
:10083000039D5153009D491B039D401C5953A042E9
:10084000DBDBB5E77E07002EEBDAE5E7002515E0F8
:1008500009986900405E7746C6100898405A301AD9
:1008600006B2505E00907843059F7E43861960462D
:10087000064156520098301A58526D1CA542E7DBCB
:1008800096E70000D05A0040963B00409059004047
:10089000605C0040012110B549034804FFF770FE79
:1008A00000201249124B08704870887001221A709B
:1008B000104A1080104A1080104A1070C87010BD85
:1008C00010B5FFF7E7FF0E4800218175018303F0A3
:1008D0002EFF03F093F800F012FE0A490A4804F0D4
:1008E00004FC02F0A4F803F03BFE10BD010200007E
:1008F0002F020000A003000050020000610200006F
:10090000600B0000483A0000843A000010B504462D
:100910000020606422466032A0649070D070012292
:100920009207E2615B4A62635B4AA2635A4A3423DC
:100930000832E26322464032137020235370E06491
:10094000108201226265102395221355206100292F
:1009500001D000F0D8FD51484078208310BD10B57B
:100960004F4C0021207806F0A9FD002802D000207D
:1009700002F0B5FF207806F053FE012010BD10B53F
:10098000112806D0122803D14649082001F03AFD6B
:1009900010BD44490420F9E7C00601D50120704785
:1009A00000207047404800F060FE00F097FF3F488D
:1009B000007807F035FA07F049FB0021084606F0F9
:1009C00097FC374C012120703648FFF79FFF00212C
:1009D000084606F08DFC60700121084606F088FC90
:1009E00033492E4D087069780C2001F037FB2D4CEF
:1009F000304E60342B4800F0F1F80020305E0028C3
:100A000002DB00F035FDF5E7A078002801D007F003
:100A1000F2FD2878FFF7C0FF00280ED16878002883
:100A20000BD020488030407D0009000110280CD0F8
:100A3000802810D0002002F052FF2878FFF79FFF97
:100A4000FFF78DFF0028FBD0D4E780221021154846
:100A500000F022F9F1E76078002804D0114800F096
:100A6000B5FB002060700F4800F042F912490420E5
:100A70000856124907F064FADFE710B506F0BCFB30
:100A80000748007806F0FAFD0D490F20C86206F00D
:100A9000B8FB10BDE0230040605C0040103A00004D
:100AA00062020000E00A000090370040699E0010DA
:100AB000000200006602000060080000B43A000076
:100AC00080000052F8B5484E074601254749357069
:100AD000782048704648474CC57005702168FF2053
:100AE000887220684021C06808F093F800204249CD
:100AF00064223B0008F07DFE08050B151814141441
:100B00001F140861486188610862486211E0086149
:100B1000486188610862486288622168FA204880DA
:100B2000F8BD20684280F8BD0861086248614862EB
:100B300088618862F5E708614861886108624862F7
:100B4000886275703070F8BDF8B504468034618BEA
:100B50002A4B264DCA1A04270026994215D005DCD7
:100B6000274A89181AD0012935D109E0012A22D053
:100B70000B2A30D10021C943012001F045FD2AE0B4
:100B80007D20000101F03EFF25E0A08B062822D841
:100B9000082028701449A08B48801CE000F038F928
:100BA0002873FF215320000641600762416286627C
:100BB000C66201630FE00121297360304170114862
:100BC000017011481E2101804180FA218180C1807D
:100BD000077547752E7066830120F8BD10B5FFF7C5
:100BE000B3FF012010BD000064020000103A0000B5
:100BF000C83A0000602000004000005204080000D5
:100C0000FFF7FFFF61020000843A00005320000656
:100C1000816AFC221143816203F089FD02F0EEFE3D
:100C200000F06DFC1549164804F05FFA01F0FFFE74
:100C300003F096FC06F0B4F907F076FC114C124D67
:100C4000124E1349207806F039FC002802D000200B
:100C500002F045FE207806F0E3FC0E4800F082F832
:100C60000746287806F0E4FC30780028E9D1002F08
:100C7000E7D00849012001F0C5FBE2E7483A00004F
:100C8000843A00006302000000020000103A0000F5
:100C900080969800E00A000010B5034680331C4699
:100CA0005A7509022B4B1143CA1A99421AD00ADC11
:100CB000294A891A11D001225203891A0DD02748D6
:100CC000C14205D107E0FF2A05D0FF3AFD2A04D032
:100CD000002002F004FE012010BD00F0BCF88120CD
:100CE0006075F8E71E4841780B2001F0B7F9F2E78C
:100CF00010B504468030407D81280AD083280ED06C
:100D000084281BD0852807D0002002F0E8FD0120B0
:100D100010BD8322812119E08022852116E0204622
:100D200000F00EF9E06C012802D9842283210DE045
:100D30000B490B20497801F091F9E8E7204600F0D3
:100D4000FFF8E06C0028E2D1832284212046FFF7DF
:100D5000A3FFDCE78483000080100000FDAEFFFFEE
:100D6000103A0000F1B502F004FE02F067FE224DD9
:100D70003423287820220421FFF795FC1F4803F034
:100D800019F81F4C014620701E4A1C4803F090FAC7
:100D900020701A482C21415E406805F04FF805F09C
:100DA00073FA02F0B3FA18490A68521C0A6017492C
:100DB0000A78002A1ED000240C7000F09DFB811CD4
:100DC00000221023047012260DE00C804C808C80D1
:100DD0008C714A720B72CF793743CF7107780A3121
:100DE0007F1C0770521CAF789742EED84470009970
:100DF00000788C64F8BD0000103A0000B4030000D5
:100E00003C020000400200000C3A000060020000BA
:100E100010B50120FF23532109064B6004220A620A
:100E20004B6200228A62CA620B630A62FD244C6034
:100E30004C620224CC608C618A62CA620B638C684B
:100E4000CB620A63896810BD10B50321052001F04B
:100E500005F9012010BD10B504460321052001F05D
:100E6000FDF8204600F0B2F90020603460700120E7
:100E700010BD0120704710B50321052001F0EEF8E8
:100E8000012010BD10B5084606F0D2FB10BD70471A
:100E9000F8B5FE4DFE4C002630464100401C6A5A13
:100EA000C0B262523428F8D300204100615E401C79
:100EB0008E19C0B23428F8D33421304607F0B5FE7D
:100EC000014600204200A35A401C5B1AC0B2A35244
:100ED0003428F7D300211DE000291BD0332910D07E
:100EE0004A0017199446A05E3B46403B3E229A5E5C
:100EF0003B460227DF5F3B46984214DD904217DCF9
:100F000013E066236427E25E385F824200DD10460C
:100F1000E8520FE000200222205EA25E904200DC38
:100F20001046288006E09A4201DD104600E038466F
:100F30006246A852491CC9B23429CDD33046F8BD07
:100F4000F0B505469DB00321052001F087F8D14C8E
:100F5000207806F065FB07F0B2F96421207806F0EE
:100F6000ADFA002802D0002002F0B9FC207806F08B
:100F700057FB06F064FF002840D007F051F9022229
:100F80003421C54805F060FFC44F04203856C449D9
:100F900006F0BCFF6421207806F090FA002802D009
:100FA000002002F09CFC207806F03AFB07F0C5F91F
:100FB0006421207806F082FA002802D0002002F096
:100FC0008EFC0321062001F049F82E46B54C403630
:100FD0003378207828220021FFF765FB33782078CA
:100FE00001220521FFF75FFB06F029FF002808D04A
:100FF00000F006FD2078862806D00FE007F0CFF835
:10100000BDE700F0EAFCF5E700F01AFD0021022040
:1010100001F0F8F90121022001F0F4F9A24864215D
:10102000007806F04BFA002802D0002002F057FCAE
:101030009F499E480E78022183191A795956805784
:1010400000F0F1FC20788A2809D100F004FD00218D
:10105000022001F0D7F90121022001F0D3F903F0B9
:10106000EBFC9449944A954B097812781B780193CC
:1010700003910320854B8549342602920490009603
:10108000A033824AA0398248FFF75CFBFFF700FFDC
:101090008B4908608B4803F070FB387900280AD12F
:1010A000012001908848009603787848874A77495C
:1010B000A03803F0CEFF2078342301220621FFF769
:1010C000F2FA03F0AFFB8248817D00291BD0C07D7E
:1010D000002818D000210C9120207E4A7C490B92D8
:1010E0000D900E962C2214396846FFF7ABFA78481B
:1010F00020380EC80FA803F088FE754838220FA9C3
:101100002038FFF79FFA00F0B0FC734801782846BA
:10111000FFF7B8FE00212846FFF7B9FE686C401CB7
:10112000686401201DB0F0BDFFB581B000242146E8
:101130000A9800F0BBFAC107C90F0818049EC0B294
:1011400046432046019900F0B7FB009020460299E3
:1011500000F0B2FB0746002509E00098A9004058BE
:101160000399C00007F061FD690078526D1CB5421B
:10117000F3DB641CE4B2042CD9D305B0F0BDFFB599
:1011800081B000242146049800F090FAC107C90FED
:101190000818C6B2039802994643204600F08CFB1B
:1011A00005462046019900F087FB0146002006E035
:1011B00082004700AB58CF5FDB19AB50401CB042F8
:1011C000F6D3641CE4B2042CDCD3D6E7FEB50321CD
:1011D000052000F043FF05F02DFE00242D4E27468C
:1011E000307806F01DFA06F02AFE00282FD007F00E
:1011F00017F86421307806F061F9002802D0002049
:1012000002F06DFB307806F00BFA07F096F86421D7
:10121000307806F053F9002802D0002002F05FFB7E
:1012200006F00DFE002815D000F0EAFB022C14D3C6
:1012300073218901342320224810FFF7A0FF3423B3
:10124000012212491248009703F0CFFE1AE006F07F
:10125000A6FFCEE700F0C1FBE8E7002C12D1002585
:10126000E9B2342000F022FA42017321E8B2890188
:1012700000F019FB6D1C042DF2DBFF214131034806
:1012800007F0C7FC641CE4B2122C27E0D05A0040DF
:1012900090590040E9020000E0230040600800008F
:1012A000B43A0000103A0000000200002C3A00009E
:1012B000020200006C9E00106B9E00106A9E0010DF
:1012C0000C020000781900006D9E0010105C0040B8
:1012D000B80A0000D00A00006302000080D3342462
:1012E000732020231022124980010094FFF71CFF75
:1012F0000094104C0123A03410220E49019720467F
:1013000003F089FEA021204607F083FC0024FF257E
:10131000094E4135E0B22A46314600F0C4FA641C59
:10132000042CF7DB0321062000F098FE0120FEBD0F
:1013300090150000305A0040F023000030B5634A99
:10134000002011020D24E4014300D55A801CCD5227
:10135000A042F9DB30BDF3B581B0012703210520A0
:1013600000F07CFE02981025594E0024002833D04E
:10137000012831D002282FD0032830D000270021A7
:101380000198FFF7C3FA534D287806F049F906F0A3
:1013900060FF6421287806F091F8002802D0002030
:1013A00002F09DFA4C48C460287806F039F906F03E
:1013B00050FF6421287806F081F8002802D0002030
:1013C00002F08DFA454847490470454804700020F2
:1013D000C04308803846FEBDFFF774FB03E0FFF70B
:1013E00071FB3D48C4603570C9E700213E48B2E753
:1013F00001213D48AFE770B53C4D374C00262068D1
:1014000028612862606868616862A068A861A86253
:1014100002213548FFF79FFF012E12D00D22120244
:1014200091052A48FFF70EF92068761CC04320601A
:101430006068C0436060A068C043A060022EDEDB2D
:1014400070BDFFF77BFFEFE710B5FF2029214906AC
:10145000C8602748102181630163032000F05FFE0C
:1014600003212148FFF777FF002000F058FE10BD50
:1014700010B51C480024045F002C06D0012C07D0B6
:10148000022C08D0032C0BD108E0FFF7AEFF07E0D9
:10149000FFF7AEFF04E0FFF7AEFF01E0FFF7D4FF78
:1014A0000720FFF70FFB01210F48FFF72FFA042C4D
:1014B00007D00D4820224030037800218020FFF71C
:1014C000F2F803490120087310BD00000000405EDF
:1014D000103A0000E90200006C0200006402000003
:1014E0006802000066020000E00A000040000052AE
:1014F000C0030055214870472048801E704720498E
:1015000000200860704730B51C48202172300170FF
:10151000342141701B4900220B8D83824B8DC38285
:101520008B8D0383CB8D43830C4620340346257C6F
:1015300020339D70647CDC700B8F83848B18203388
:1015400084189B7C521C2377062AF7D300210A4675
:1015500004E04B001B181A715A71491C83788B42A6
:10156000F7D830BD002006490246091D0B18401C63
:10157000C0B21A730C28F9D3704700001A3B000060
:101580000C3A0000C00200100A04120E334B120481
:10159000090618401043090D08437047F0B59C46F2
:1015A00093046446DB0CA4052343059C8500E405F5
:1015B000A40A23432A4C88006659FF3081303350F7
:1015C000082901D2002000E004200126130CB603F4
:1015D000B34201D1002300E002235204D60F42009F
:1015E000891A1E4389000F228A40074663595837DB
:1015F000BE46DF598E40974337431E467346F75029
:10160000675903466033FE58BE46059F9643FF0464
:101610003F0F8F403E437746FE5064596830235851
:10162000934362469204120F8A4013432350F0BD45
:101630000D239B06C91801604260704710B59204E3
:10164000D20C9B05029C1A43E3059B0A1A430D2307
:101650009B06C9180160426010BD00000FF000FF3A
:10166000309A001008B50090FEE738B503218907CD
:1016700001224118D203914202D300200090FEE7DC
:10168000904C002121706170A160606008468E4915
:1016900001228300CB581A61401CC0B20428F8D341
:1016A0000021012005F024FEA07038BDC208D20040
:1016B000821A1206854B920DD218C008515C400068
:1016C0000818C0B2704710B57E49002014317D4C17
:1016D0000860E078182148437D4940188268002A54
:1016E00004D02169E0689047002806D005F084FD09
:1016F000A07805F0C3FF05F084FD10BD72490868AD
:101700004069C0070AD00968012088616D49143119
:10171000087008686F49884200D1D4E770476A4969
:1017200048684069C0070AD0496801208861654956
:101730001431487008686749884200D1C3E7704790
:10174000614988684069C0070AD0896801208861BA
:101750005C491431887008685E49884200D1B2E75C
:1017600070475949C8684069C0070AD0C968012054
:10177000886154491431C87008685649884200D1BC
:10178000A1E77047F8B54F4C054620780A2802D3E8
:1017900001200090FEE76969CA0702D0022000908C
:1017A000FEE7A268891801229202914202D9032021
:1017B0000090FEE718214843454E0A468019294605
:1017C000FEF740FFA1686068182240182178514355
:1017D000891908616A69296907F0B3F92078401C02
:1017E000C0B220706969A2688918401EA160F8BD66
:1017F00018B40C4633490978814202DC0420009079
:10180000FEE71821484332490B58002B04D02046EC
:1018100001B010BC1146184718BC01207047F8B53C
:10182000284C0546207816460F46A84202DC0420C4
:101830000090FEE76078002802D005200090FEE7C7
:10184000E570E7602661A07805F0EAFE18204543C0
:101850001F4831462D186A68384690476421A078A1
:1018600005F02CFE002802D006200090FEE7154966
:10187000002014310860EA68002A02D03146384658
:1018800090470020F8BD0F481821C0784843104900
:101890004018006970470B481821C07848430C492C
:1018A00040184069704710B50B4B8000185840181D
:1018B0001146FEF765FE10BD074A8000105840181B
:1018C000704700007C020000309A0010509A00100F
:1018D000C40B000001010101409A0010F8B5F94F56
:1018E000F7483426F86020257E823D750024214685
:1018F0003420FFF7DBFE39190872C107C90F401801
:101900006100641CE4B27852042CF0D373204001CF
:10191000388201207875EB4CEB481834801CE0606D
:10192000362060822575002739463420FFF7BEFE39
:10193000E1190872C107C90F401879007F1CFFB276
:101940006052042FF0D3BB208001208200276775EE
:10195000DE48FFF717FFDE4C0121A060D948890758
:101960002C38016086800121C180732149014181A9
:101970000781072101738173D44918310161343122
:1019800041614573C673077608467C38FFF7FAFE57
:10199000CC4A2060103A11461C39FFF729FFC9488C
:1019A0007321490130300180CA494180CA49818090
:1019B00073218901C180078189104181BB2189017F
:1019C0008181032181730821C173C5740675BF48E5
:1019D0001838FFF7D7FE6060F8BDBA4810B5072188
:1019E0002C3801738173B9490246183101613431D1
:1019F00041610146B6481C320068FFF710FF10BD78
:101A0000B04810B507212C3801738173AF490246E5
:101A100018310161343141610146AD481C32006822
:101A2000FFF7FDFE10BDA74B10B530331874597485
:101A30009A74A748002219464068FFF7F0FE10BDCF
:101A400010B573209F4940010882A1480022806898
:101A5000FFF7E5FE10BD10B59A499F4808829C48E3
:101A600000228068FFF7DBFE10BD10B5954998484D
:101A7000002218318068FFF7D2FE10BDF0B585B0A6
:101A80000446FFF700FF05460120A9B20027C00762
:101A9000081803910290207D3946FFF707FEC10721
:101AA000C90F0818C0B20190E07CBE004006410C8E
:101AB00001980143894880590164FFF7ECFE0399BE
:101AC0004118864880594160844902988959886044
:101AD00082490020895948640126009601462288DF
:101AE0003846019BFFF75AFD00966288012138466F
:101AF000019BFFF753FD0096A28802213846019B07
:101B0000FFF74CFD0096E28803213846019BFFF762
:101B100045FD0096228904213846019BFFF73EFDD2
:101B20000096628905213846019BFFF737FD009634
:101B3000A28906213846019BFFF730FD7F1CFFB2CA
:101B4000042FA8D30F2161566868FFF71DFD686058
:101B50000E2020564142E868FFF716FDE86011218B
:101B600061562869FFF710FD286110216156A869A8
:101B7000FFF70AFDA861122020564142286AFFF7AC
:101B800003FD28625549002082008A581660401CD7
:101B9000C0B20428F8D3012005B0F0BDF0B504466A
:101BA00087B000200290FFF76EFE0190607D00215B
:101BB000002808D0E0682422428047224160027059
:101BC0000822427002920198002581B2081D0590FA
:101BD0000120C00708182F460490217D6019007A63
:101BE0004906490C08433D49AE00895908643B4900
:101BF0000020895948640120009068000390235A0E
:101C0000228A00212846FFF7C9FC01200090029893
:101C1000E16838180A18638A01212846FFF7BEFCDC
:101C200003982E49205A89594000C01987B2059857
:101C300048602A490498895988606D1CEDB2042DCA
:101C4000CBD301982649016000202449012283005A
:101C5000CB581A60401CC0B20428F8D3012007B04A
:101C6000F0BDF0B50024817BA44627468E463EE0B9
:101C700000231A461946067B15E005692D5D95403F
:101C800008322943D2B2202A0AD365464269AD0000
:101C900052598A4211D16146491C8C460022114694
:101CA0005B1CDBB2641C9E42E7D8002A1DD0624652
:101CB000436992009A588A4214D00020F0BD000077
:101CC000605C0040E00C0000FE3B0040089B001000
:101CD0009402000090150000F0230000309A0010DC
:101CE0000010C0236146491C8C467F1CFFB2BE45D4
:101CF000BED80120E2E700B5FFF7B3FF002800D00F
:101D0000012000BDF0B585B00C460546FFF7BBFDD0
:101D100002900120607200272773287BC01C800876
:101D2000E072A97B687B06F076FFA072A97B48432E
:101D3000697B884205D0081A2072A07A401CA072E4
:101D400000E027720298002681B2081D049001204D
:101D5000C007081801960390E87B3146FFF7A6FC00
:101D6000A1190871C107C90F4018A0550020AC493E
:101D7000B700C9594864E888009029680198AB8881
:101D80000A1800213046FFF709FC287B01282FD0D4
:101D9000A17A2A8941434806A15D400C0843A04925
:101DA000C9590864012000900146A35D3046FFF741
:101DB000F5FB9B490498CA595060CA590398906032
:101DC000A05D761C42000198F6B2101880B2019016
:101DD000042EC1D30298934A02600020012283009E
:101DE000CB581A60401CC0B20428F8D30120D3E6B7
:101DF000697B6A894906A05D490CCFE7F8B51746AB
:101E00000C460646002501200090607BA17B7B5D8F
:101E1000401A80195843618940004218E8B20121F4
:101E2000FFF7BCFB6D1C042DEDD3FA7A7C4D1046F8
:101E3000724380188646002310E091008C460020F3
:101E40009900803166696746F6598700EF597E50E0
:101E5000401C0428F6D35B1CDBB2521C7245ECD349
:101E6000F8BDF8B517460C4606460025012000903F
:101E70007B5DA17B18464B436189704340000A1883
:101E8000E8B20121FFF78AFB6D1C042DEED3FA7A2C
:101E9000634D1046724380188646002110E093007F
:101EA0009C4600208B00803366696746F6598700A0
:101EB000EF59FE50401C0428F6D3491CC9B2521CED
:101EC0007245ECD3F8BDFEB50C460546FFF7DBFCCA
:101ED0000746287B032101287ED0607A0128207BD9
:101EE0001BD0401CC0B22073AA7B904274D2224601
:101EF0002946FFF783FF002001224949BDB2D307DD
:101F0000C4002C19E61884000F59BE600C592260D9
:101F1000401CC0B20428F3D37DE0401CC0B2207343
:101F2000AA7B90423DD8012833D1207A0028A07A9C
:101F300001D0401EC0B200264006400C0290B8B24C
:101F4000019001200090A35D287B2A894343002152
:101F50003046FFF723FBA15D0298314A0143B000F0
:101F6000125811642E4918220958AA564A64297B2E
:101F70002D4BA25D090419430A43F1007A50019ADE
:101F80005118274A091D10584160761CF6B2042EDC
:101F9000D7D3207B2246401EC0B22946FFF761FFFF
:101FA00028E0207A002838D0101A207302206072AE
:101FB0000026A05D1A49B2008958FF30013008643C
:101FC000207B22462946FFF719FF01200090A35DE0
:101FD000287BA17A584300E01FE0491E4843298925
:101FE0004000421800213046FFF7D8FA761CF6B2BE
:101FF000042EDED3002001220949BDB2D307C4005C
:102000002C19E61884000F59BE600C592260401C40
:10201000C0B20428F3D30020FEBD61720120FEBDD2
:10202000309A00100010C0230010402F10B5014658
:102030002C4806F0F0FD420A2B49012048602A484E
:102040000023403003620F23C3620261FF2242611A
:10205000826103224A600421016210BD70B5401FF5
:102060000C46224D030007F0C4FB0817191D1D1D67
:102070000D05081D2868844217D00846FFF7D6FFD3
:102080002C6012E029225206506BC9B2FF231B02BA
:1020900018400843506308E0012000E0002000F0F1
:1020A00012F802E0002001F01AFC012070BD10B50A
:1020B00000F08BF800F0BBF800F01CF80A490F2084
:1020C0004031C86210BD10B5002803D0084600F0AA
:1020D0004EF810BD0648C0780028FAD1084600F036
:1020E00027F810BD40D2DF0340000052A0020000DC
:1020F000C83A00003D200249000408637047000010
:102100004002005510B54B4C0320216806F064F9DD
:1021100020684949401C20601020886310BD0021C0
:10212000022801D0032800D144490020816570476E
:1021300010B529225206D1680C239943D16002219F
:102140003F4B012807D0022805D0032807D00020E4
:1021500001F0C5FB10BD59603A48106210BD5960CE
:1021600039481062D0688006800ED06010BD70B50E
:1021700029225206D1680C231943D1600325304926
:102180000123002808D0032803D0002001F0A7FB7A
:1021900070BD4D60136270BDF720C0011062284C05
:1021A0000020403420601F266660A6604D60F52444
:1021B000E4011462F124E4011462136208614861CD
:1021C000886108624862886270BD70B51F4CA06B60
:1021D00000218A0012191268491C801A0E29F8D3AE
:1021E00021681B4A29256D06914217D1E16B194AD6
:1021F000914213D1002810D1A0680104E0680002C8
:102200000143206901436068C0B204F000F96069CD
:10221000A169286308020830686370BD4020286304
:102220000D4868630D49072004F0F1F870BD0020E7
:102230009DE7000078020000C00300550521001052
:1022400040000052A57F00000578000080070120B3
:1022500010041020130674190840000020202000EC
:10226000F0B526492448086225480168090A090290
:1022700001600368FF21090203228B4392039B182C
:10228000036004680B029C4315026419046004682F
:102290002602360A8C05361906604668360A36026A
:1022A000C036466046688E43B618466046680127C9
:1022B0009E43BF05F619466046683602360A36194F
:1022C0004660C6688E43B118C160C1689943491918
:1022D000C160C1680902090A0919C1600169090AD6
:1022E0000902C031016107494017086005490648E5
:1022F00080390860F0BD00000000C08000ED00E003
:1023000000E400E080E100E0E1F00100012281054D
:10231000D203801A8003000E82009948890D8058EC
:10232000002800D04018704710B5C2B2944B000A84
:102330004400203B1B5B934202D80020088010BD64
:102340008F4C8000603C205880189A1A0A8010BD7B
:10235000F8B58C4C60782178000208438A49496AB4
:10236000FF228900890C0132551A022D1AD047DD4F
:10237000D600811B20292ED2FFF7F4F8607822784E
:102380000102824811434068A3780246803251839B
:1023900093838A1B0121002A08D0152A09D0162A06
:1023A00016D109E0294600F089F829E06030417033
:1023B0000EE0603081700BE063221154002162183E
:1023C000937842186032491CC9B213712E29F6D392
:1023D000FEF753FB14E001210903884210D269463D
:1023E000FFF7A2FF00280BD069460988AD1EA9425D
:1023F00001DD69460D8069460A88A11C06F0A1FB33
:102400000120F8BDF0B50522012404278425604B86
:102410001207012807D00026022810D0042810D067
:10242000082810D109E0594841601760002000BF1A
:10243000401CC0B2C828FAD303E017600CE00029A2
:1024400003D015601C700120F0BD1760002000BF94
:10245000401CC0B2C828FAD31E70F4E770B54A48D1
:102460004030456A0021C943C16268001CD5464C12
:102470006068C007FCD047480078122803D10021CB
:102480000220FFF7BFFF414E28463178FFF760FF7B
:1024900002202060012020600C2020623948A062C8
:1024A0003D4820620020307070BD70B5374C00256B
:1024B0006C20656000F043F8257070BDF8B5092602
:1024C0000446B6010025801B662804D2FFF714F8E5
:1024D0000019801B1EE0012109038C4204D2A0B226
:1024E0006946FFF721FF15E02C48621A824209D2A3
:1024F00026488C424368986B01D015460AE0002BB1
:1025000008D1F8BD0120C003201A8842F9D2A0B238
:10251000FFF7FCFE0028F4D043191B48042140308B
:102520000160194902220A6101220A610521090795
:102530008A6083601A490160491E0160F8BD30B5A8
:102540008421052212071160012313610024146203
:102550000D4902250D600B600D610B617F231B028D
:102560001843D0610C200862064888620A48086255
:102570000548611E4030C162C462C105016230BDC0
:10258000EC9B0010260D000080000050A40200000B
:1025900004020000103A000009000001C81C0000FD
:1025A0000900FFFF0120704710B5827B042A01D08B
:1025B000022A21D0002315229206046894614468FF
:1025C000D4619360037B447B5B1E1B04641E234326
:1025D000D3600389847B1B04234313614389807B7D
:1025E0001B0403435361012090621060002902D054
:1025F00050680028FCDB10BD0123DCE70121152019
:102600008006816201627047F3B583B00E46FEF723
:1026100073FF292403980025640601280BD00228A3
:1026200009D0032807D0042869D0002001F057F909
:10263000012005B0F0BD374F31467869009036482B
:1026400006F0E9FAE96B0291296C0191216A4908C7
:1026500049002162216A314A1143216230490D62E9
:10266000FF22CA623D612F49E9632F492964A168AD
:10267000FE221140A160216A022211432162002141
:1026800000BF00BF00BF491C3229F9D3216A0122D3
:10269000920211432162012767621E4948618861E5
:1026A00007220A610398032816D030460099FDF7E7
:1026B00007FF206A000C00042062206A3843206271
:1026C00065620298E8630198286419481749016017
:1026D000134804210162ABE70098761C0BD0154B20
:1026E000236230BF256251231B061D60486188614B
:1026F0000A61A760DDE70F4B09332362F2E70C495B
:102700007D2000010D60A0610320606101206061F7
:102710008EE7000000E000E050C30000A4FB0000D2
:10272000800000520301000007010000E1200000CA
:1027300000E100E0A67F0000FEE710B5FDF7CCFE4B
:1027400010BD10B504F08DFD184B194A0021194831
:1027500005F093F8184B194A0021194805F08DF837
:1027600004F0A2FD10BDF9215320000641600421B0
:102770000162FF21416200228262C26201637047EE
:1027800010B5FFF7F0FF03F025FEFFF790FCFDF713
:102790009DFEFFF733FFFFF788FEFFF761FDFEF7B1
:1027A00079F8FFF7CEFF012010BD0000641400008F
:1027B00009900100A5090010141900000A2C01005D
:1027C0000D0C001003460A467047FEE730B502467E
:1027D0000020884C014653569B001B195B684D0036
:1027E000AB40491C1843C9B21029F4D330BDFFB522
:1027F00081B00D4606461C4610210A9F039806F03C
:1028000006FAB878B04254D8F978B14251D3301AA8
:10281000C3B20020E278A17803E09B1A0818DBB26B
:10282000C0B29A42F9D9421E8A18267AD2B296428A
:1028300004D8701AC0B2421E8918CAB2002D0AD03C
:10284000012D0FD0202A34D320281FD22021081A8E
:10285000C1B200201DE010282BD2102A00D30F2275
:10286000002124E0202824D2102A22D3102804D2C8
:102870001021081AC1B2002002E01038C0B20021B5
:10288000202A01D30F2212E0103A03E00021203861
:10289000C0B2203AD2B20AE0E57866684D437519B5
:1028A0005E5D039D2E54401C491CC0B2C9B29042CB
:1028B000F2D905B0F0BD30B50446002085B02E2C0D
:1028C00004D2102C15D26100012011E01378A3422C
:1028D00011D85578A5420ED30022497A03E0521C44
:1028E0008000D2B2401C9142F9D8E21A4A4351000A
:1028F000884005B030BD0B46009201AA0021204659
:10290000FFF775FF01A8FFF761FFF2E730B5044656
:10291000002085B02E2C05D2103C102CE9D261008D
:10292000012012E01378A34211D85578A5420ED3A6
:102930000022497A03E0521C8000D2B2401C91422E
:10294000F9D8E21A4A43510020398840D1E70B46B2
:10295000009201AA01212046FFF749FF01A8FFF7D5
:1029600035FFC6E730B50446002085B02E2C05D2D1
:10297000203C0E2CBDD26100012012E01378A3424E
:1029800011D85578A5420ED30022497A03E0521C93
:102990008000D2B2401C9142F9D8E21A4A43510059
:1029A00040398840A5E70B46009201AA0221204643
:1029B000FFF71DFF01A8FFF709FF9AE770B505466D
:1029C0000C46007AA9784018401E06F02EF9697A64
:1029D000064608462D3006F01EF92E30A070E97824
:1029E00071434118491EE1702E212170401E607014
:1029F00070BD0000FC9B001010B501460120FFF7E0
:102A0000D1FD10BD10B501460420FFF7FDFD10BD3E
:102A100010B501460120FFF7F7FD002010BD10B5ED
:102A200001460320FFF7F0FD002010BD7047F84974
:102A300022200870F749362008707047F3B58700E8
:102A4000F548F64C81B0C059A16806F0DFFE054696
:102A5000E16806F0DBFE0146284606F0CDFC06469E
:102A6000029806F0C3FD6168009106F079FF3146D7
:102A700006F012FF009906F0C9FE6060284606F0D5
:102A800091FC04460D46304606F08CFC0022E44BD7
:102A900006F03EFB22462B4606F050FB06F068F996
:102AA000DD49C851FEBDF3B58700DB48DB4C283853
:102AB00081B0C059A16806F0A9FE0546E16806F09C
:102AC000A5FE0146284606F097FC0646029806F049
:102AD0008DFD2168009106F043FF314606F0DCFED3
:102AE000009906F093FE2060284606F05BFC044641
:102AF0000D46304606F056FC0022C94B06F008FB96
:102B000022462B4606F01AFB06F032F9C249283954
:102B1000C851FEBDFFB581B0054603980A99076804
:102B2000049806680020085E06F060FDBB4C20603B
:102B30000B990020085E06F059FD6060B9480078E6
:102B40000028029804D0C2050120B749800702E09E
:102B5000C205B649B648A160E060AF482830415D83
:102B6000002915D028B239B20546FFF79CFF31B2D3
:102B70002846FFF763FF206806F0EEFC0399086023
:102B8000606806F0E9FC04990860002005B0F0BD1B
:102B900001214155A04A7F20C005A900283A505084
:102BA00028325050384606F021FD2060304606F0AD
:102BB0001DFD6060DFE7FFB58DB001200B900A902E
:102BC0009C48078D7900791889090291408D0590FC
:102BD00041004018682106F01EF8039096480078DE
:102BE00041009648445A08188088049007900F982E
:102BF000029906682546B81B88420BDAB74201D114
:102C00000B9D06E0691E68434843029906F00DF8E3
:102C1000451C04951099059809680291401A03997A
:102C200088420DDA029A0599914201D10A9C06E088
:102C3000611E60434843039905F0F7FF441C079465
:102C40000D98242148437E4947181820385E821B7E
:102C500000D5321A1A23FB5E0299591A01D502993E
:102C6000C91A51180E9A08910291D20727D04E43E3
:102C700068438019691805F0D8FF0F99086010990A
:102C80001A20385E0968029A604351434018A1181F
:102C900005F0CBFF10990622086016980023BA5E53
:102CA000C35ED01A01D4014600E0991A64310028AD
:102CB00000D5981A584364235A43801829E0049A8F
:102CC0004E4350438019511805F0AFFF0F9908602B
:102CD0001A20385E0799089A4843109909685143A9
:102CE00040180799891805F0A0FF1099062308607D
:102CF00016980022FB5E825E981A01D4014600E01D
:102D0000D11A6431002800D5D01A504364225343AD
:102D1000C01805F08AFF16990880002011B0F0BD98
:102D2000F3B5484885B00078002802D0002007B0ED
:102D3000F0BD4548C27D0392007E02903D48018D62
:102D400000914A008918408D8F0941000190401878
:102D5000682105F060FF064605983B490088039A04
:102D600005B20698008804B219200856009949084F
:102D7000002A28DDBD4204DAE81B50438011C01947
:102D800010E0009A521BBA4207DAD11B039A00984E
:102D900051438911C919401A04E04A1B504305F0F8
:102DA00044FF401905B228491A2008562149029AC1
:102DB000498D4908002A24DDB4420BDAA01B504398
:102DC0008011801917E0BD42EDDB009AD21BAA42A8
:102DD000E3DAE8E7019A121BB24207DA911B029A82
:102DE0000198514389118919401A04E00A1B504384
:102DF00005F01BFF001904B20598056006980460F1
:102E000094E7B442F8DB019A921BA242EEDAF3E7B0
:102E10004D0200004E02000040190000AC0200000C
:102E20000000F03F2E0200006666863F3333733F9A
:102E30000000C040B4030000020200000C3B000090
:102E40007C08000061020000D43A0000FFB589B0A0
:102E50001D4614460E46139F099806F0C7FB0290C4
:102E6000304606F0C3FB0690204606F0BFFB0190FB
:102E7000284606F0BBFB0590129806F0B7FB0490BD
:102E8000384606F0B3FB0390BE4210DD1298001BDB
:102E900006F0ACFB0646781B06F0A8FB314606F0B0
:102EA000ABFA0546029906F0F7FC06990FE009987F
:102EB000201A06F09BFB0746A81B06F097FB394635
:102EC00006F09AFA0546049906F0E6FC039906F026
:102ED0009DFC07462846019906F0DEFC059906F0A0
:102EE00033FD06466800000E0FD00121284606F08B
:102EF00089FB04463146384606F032FD214606F08D
:102F00007BFA06F029FB0DB0F0BD2046FBE7F0B5DB
:102F10000E46054685B01446981B06F067FB0490E4
:102F200001900A992846684349430746C81B06F0A2
:102F30005DFB00900B98801B06F058FB0390204629
:102F40006043381A06F052FB0146039806F0A4FCD1
:102F500007460099019806F09FFC394606F056FC9A
:102F600002900B98301A06F041FB0190601B06F0AE
:102F70003DFB06460A98049F401B06F037FB0146BE
:102F8000384606F089FC05463146019806F084FC77
:102F9000294606F03BFC012106F034FB01464000C7
:102FA000000E05D0029806F027FA06F0D5FAEDE5F6
:102FB0002046EBE570B50022049E059D069C002886
:102FC00002D01F2807D00CE00020305E002800DA75
:102FD00032801A8005E00020185E002800DA1A808E
:102FE0003280002908D0332905D10020285E00282E
:102FF00000DA2A80228070BD0020205E002800DADE
:1030000022802A8070BDF0B59446FF4A0026FF4C0E
:1030100055693346E756CA5C3F187F00EF5F5B1C7B
:103020005743BE195BB2042BF4DB4200AA5E0B7956
:103030005A4396190523E718203F1F22BA5617183E
:103040007F00CA5CEF5F5B1C5743BE195BB2092B64
:10305000F1DB6046064130B2F0BDFFB5064689B0EF
:1030600000200890EA481F46017830460D4605F0DA
:10307000D2FD04466843301A85B2701E01900A9949
:10308000701C0090002921D0E04903228A56DE48B6
:10309000921997B204228A56406991190B0401993A
:1030A00076000A04865FD20B07960099865A6A4614
:1030B0009681DA0B835A6A4613827A00835A09048E
:1030C0006A469382C90B405A108338E07A7A3946AF
:1030D0003046FFF798FF079001987A7A80B2394618
:1030E000FFF791FF01466846818100987A7A80B2A5
:1030F0003946FFF788FF014668460183C4487A7A5B
:1031000000783946301A80B2FFF77DFF01466846E5
:103110008182BF487A7A00783946301880B2FFF74A
:1031200072FF01466846018206AA03A904A86E46FA
:1031300007C605AB69B260B2079AFFF73BFF0B9871
:10314000C00740D06A461421515E1020079B105ED4
:10315000994203DD0B46814200DA0346AD4E9942A7
:103160000FD183420DD1A000801941681298002C24
:10317000016004D0A8480078C01E844246D10120D6
:10318000C1E6A64A927A002A09D0A400A21997683B
:103190000097019052683059FFF7B9FE08E0A4008B
:1031A000A21997680097019052683059FFF74EFEB8
:1031B00019218902002801DA002002E0884200DBA0
:1031C0009748129908600B9880074BD568460C21E8
:1031D000415E1822079B825E994203DD0B469142B5
:1031E00000DA13468B48C030994211D193420FD177
:1031F000A900081841681398002D016004D0844884
:103200000078C01E854201D102207CE600207AE6CB
:10321000824CA47A002C09D0AC002618B76800971D
:10322000019200597268FFF772FE08E0AC002618A0
:10323000B7680097019200597268FFF707FE794955
:10324000002801DA002002E0884200DB08461399DA
:10325000002D086004D06E480078C01E854201D160
:103260000220089008984EE67CB50E4624211546AB
:1032700048436D496C4A095A82181D201056302265
:1032800050436A4AC9058418E088002900960195D0
:1032900024DA674B01220021FFF7DFFE002801DB63
:1032A000012807D1009601950122E088604B114664
:1032B000FFF7D3FE5E4B00960195E0880A330222A9
:1032C0000021FFF7CAFE002801DB02281DD1584B60
:1032D000009601950A33E088022213E0544B032242
:1032E0000A3B0021FFF7B9FE002805DB012803D0C7
:1032F000022801D0032808D14D4B00960195E088A3
:103300000A3B03220121FFF7A8FE7CBDF0B5ADB05A
:103310000020299001202690FEF7EEF80021017090
:103320000746851C41706846017241724148007829
:10333000002867D040482890404800262790242045
:103340007043394923900C5AFF2002300442009404
:1033500011D0600602D54820A0430CD16846007AFF
:103360002E492B908978884206D32146402211436A
:103370002D48239A815209E23148044209D02A4952
:1033800023984018C07F4007800F02D02D490020AD
:1033900088552D4804420ED02348239920AA0818A6
:1033A0001821415E21911A21415E2291C1889182AA
:1033B000807F269033E160056ED51B492398441821
:1033C0001D20205630214843184940188179104863
:1033D0000191017824912A91019805F01CFC24990F
:1033E00002464A430199891AC9B200282FD00A4AD5
:1033F0001278D21E90422AD0002928D02A98C01EC6
:10340000814223E069E200006008000045020000FC
:103410004E0200000C9C00104D020000103A00000B
:1034200076620000FF9F00007C0800006804000036
:103430001E9E001004020000683A0000D403000041
:1034400048080000681900000C0A00000ED16169EC
:10345000F648002908D00121009C89028C432021D4
:103460000C432399445215E0012009E0F149F04A48
:10347000097860695118097DEC4B884202D2401CE2
:10348000606183E10121009C89028C4320210C436F
:1034900023995C5201202690E448239909181D20A5
:1034A0000091085630214843E34940180A21019011
:1034B000415EC8B22990E0050BD40198007B40071B
:1034C00007D4DC48DD4A007810182030807A814229
:1034D00042DC22AA21A93046FFF7C6FE2C900199B2
:1034E0000620085ED6492A900978249105F09DFBB4
:1034F0002499C0B22A9A4143511ACAB22C99002980
:1035000021DA0199097B490711D5CE49800040187D
:1035100041682798407D01412191CA499000C031FE
:10352000401827994068897D0841229006E001985B
:103530002821415E21912A21415E2291E00512D588
:10354000022026900FE02798417D21980841219084
:103550002798817D2298E7E701982821415E2191F3
:103560002A21415E229122A921A8FFF7D9FB2198A7
:10357000002801DA00202190B349219A088D904259
:1035800001DC401E21902298002801DA00202290C0
:10359000488D2299884201DC401E229001984169A1
:1035A000A44800784200A248805E091A0911400030
:1035B000081800B220A98882FF2800DDFF20888239
:1035C00000994969012917D000998A890A820099CE
:1035D0000A898A810099CA894A8200994A89CA81DE
:1035E0000099219A4988511A009A11810099229ACA
:1035F0008988511A009A518121990BB200994B8008
:1036000022990AB200998A80A10608D500990B83F5
:1036100000994A830099C880009926988877834842
:103620002399182208182390825E1A23C35E2199D9
:103630002298511A181A4943404308182A9026988C
:10364000012816D17B497A480978401820308079C2
:103650002A99404388420CDB2398C07F022801D07E
:10366000062806D1239821921A21415E002022913A
:103670002A9000202490200701D510202490A00635
:1036800002D50421249842E0239808210A22415EB1
:10369000825E881800D54042962809DB23980C21C9
:1036A0000E22415E825E881800D5404296281BDAC1
:1036B00025A8009022AB21AA21463046FFF77BFACD
:1036C000239922AB084618301A310191009021AAA3
:1036D00021463046FFF71EFA554803210176289A05
:1036E00011764176517606E0514914200876289AE1
:1036F0001076487650764F4854490078400040187C
:1037000001892A984943814203DC2498082108430F
:1037100024904F488178002958D145E0002200E0EC
:10372000299A6B46197A0C23594309180A8124995E
:10373000022211436B461A7A0C235A4312189172D3
:10374000E10501D5022200E001226946097A0C2335
:1037500059430918CA726946097A59430818067309
:103760006946087A401C0872239921980883239996
:103770002298488320A8818A2398C180239926987B
:1037800088772498022108432399C877761CF6B2DB
:103790000F2E00D2D3E52F49087900283DD02A4AC0
:1037A0000020138D02AA34E02499490702D5C1797B
:1037B00000290BD02499C90602D5417A002905D0E9
:1037C00024990907D0D5007A0028CDD12B990C2057
:1037D000414302A80918219A4A806A46127A0C23AA
:1037E0005A4312182299918020AA1421515E6A46E8
:1037F000127A5A431218D180002991D18EE70C26F3
:1038000004467443A41866889E1B761E401C66807E
:10381000C0B26C46247A8442F1D84879002828D076
:10382000094A0020538D02AA1FE000007C08000016
:10383000843A00000202000068040000483A0000D8
:103840004E0200000C9C0010B40300000C3B000072
:10385000C83A0000103A00000C244443A418A6887B
:103860009E1B761E401CA680C0B26C46247A844201
:10387000F2D8C87800280FD0002002AA08E00C2156
:10388000414389184B888C884C80401C8B80C0B287
:103890006946097A8142F2D8694600200A7A18E01E
:1038A00003460C214B4302A959184B882B808B8867
:1038B0006B80CB88AB800B7AAB718B7AEB71CB7A58
:1038C0002B72097B69723978401C491C3970C0B26F
:1038D0000A358242E4D80020385E2DB0F0BD0028C1
:1038E00000D1FEE770470000FCB53420019041484C
:1038F000362500783E4F41003F480818408A6C0149
:10390000009000203B4E41003678CA190023B6468D
:1039100076001946B44605E04E00965F002E00DDA5
:10392000F3184919A142F7DB00998B421ADB32499F
:1039300066467618F6887144897B5E430E41B6462A
:1039400000210DE04B009C46D35E002B07DD764640
:10395000734501DB9B1B00E0002366469353491926
:10396000A142EFDB401C0199C0B28842CAD3FCBD22
:103970007047B9E7F8B51E480090202086463620EB
:1039800084461C483424007841001B480818C78A24
:103990000020614641434A000099531800210A461D
:1039A00055005D5F002D00DD6918521CD2B2A242A5
:1039B000F6D3B94216DB0F4A0F4D16787200521932
:1039C00052894A43A919097C0A4100214E009D5F92
:1039D000002D03DD954201DBAD1A9D53491CC9B290
:1039E000A142F3D3401CC0B27045D2D3F8BD000051
:1039F000003C0040020200002C3A0000FE48FD4955
:103A00000160FE49C160FE490161FE494161FE4914
:103A1000C161FE498161FE49CA88028509894185E3
:103A20002021203041743421817404214175817535
:103A3000F84836218180F84901607047F54AEE4820
:103A400006CA82604160F549F54B09784A00D218F0
:103A500092888285F34A1288C285F3484118E64865
:103A60008A792030C27409790175F049097D0174A1
:103A70007047F0B51446E9B08E46844600223020E7
:103A80001546454360462B18187BC00720D05E8939
:103A9000570056A8C65397003AA85E69C651D6008B
:103AA0000AAF9869BF19D96903C722A9186A8E1984
:103AB0005F6A81C699785CA88154D97862A88154DC
:103AC0006046415D5FA88154597865A8815403E040
:103AD0000020530056A9C852521CD2B20C2ACED391
:103AE000714600208A780CE08300714659184B79A2
:103AF00046AD5B1E2B5409794EAB491E1954401C30
:103B0000C0B28242F0D800216EE04EAB46AD5E5CA2
:103B1000685CB446B04265D0654656AB6D00460061
:103B2000AE469F5B5D5B7F199F53002675465E53D3
:103B30003AAB66468700B600DD599E59AD19DD5196
:103B4000C3009E460AAD7544664628CDF6000AAF0E
:103B5000BF190496C0CF9E197D410AAF77443E60DD
:103B60007D60734622ADEB181F685D68049E22AB32
:103B70009B191E685B68BE195D41734622AFFB1836
:103B80001E605D605CAD63462E5CEB5C9E4200D2C5
:103B90002B5462AB65461E5C5D5DAE4200D21D5487
:103BA0005FAB66461D5C9E5DB54200D91E5465AB99
:103BB00066461D5C9E5DB54200D91E54481CC0B2CD
:103BC00046AB4EAF0CE01E5C7D5CAE4201D15E5C4C
:103BD0001E543E5CAE4201D15D5C3D54401CC0B2FF
:103BE0008242F0D8491CC9B28A428ED8002525806D
:103BF0008F4860802846632656AB3AAA4100595A3E
:103C000000290BD02788B94201D921800646678850
:103C1000B94203D2618081005158A160401CC0B2FA
:103C20000C28EBD3632E51D0B000175862A8676000
:103C3000805DA0735CA8805D207365A8805DE073E3
:103C40005FA8805D60736C48FB1720300990407C52
:103C50003A462946089304F024FF0290F0000391AD
:103C60000AA906900918644E03C9328D2B4604F048
:103C700018FF039B029A04F02CFF00B220820290EE
:103C8000009009983A46807C2946089B04F009FF79
:103C900007460791069822A9091803C9728D2B4679
:103CA00004F0FFFE3A46079B04F013FF01B2618265
:103CB0000098002801DA258205E0308D029A8242C0
:103CC00001DB401E2082002902DA658269B0F0BD66
:103CD000708D8142FADB401E6082F7E7F0B5554BEC
:103CE00000241D785E7827E02F19BF00FF187F7928
:103CF0008F421FD12C1964B2A500ED180626AE5FC5
:103D0000964200DAEA80002C13DA9C781E2C10D23E
:103D1000A400E418E2809A789200D2181071987882
:103D20008000C01841715878401C58709878401C29
:103D30009870F0BD641CE4B2A642D5D8E5E770B532
:103D400030256943C4683039611804890825544313
:103D5000E418CC800024E4430C8101248C818A7017
:103D60000A700A71CB704B704B71455F5E00554312
:103D70006D004068AD19405F2F4D920052194861A7
:103D8000526805465543EA178D61CA619A002B4B6C
:103D9000D21852685043C2174A6208624C8170BD03
:103DA00000222449012803D0887808704A7070479F
:103DB0000A70FBE7F0B50446A9B000200C90207A09
:103DC000214620311D90887C0025821CD6B22268B5
:103DD0001018C01C26906069219020691190154828
:103DE0008570487C2590887C24900F21890120686B
:103DF00026E0000090280040B403000068040000A2
:103E0000A8060000FC06000050070000D8070000CC
:103E1000103A000034020000003C004002020000A2
:103E2000843A00000A020000AC3A0000D43A0000D4
:103E30002F750000EC0300000C9C0010CC9C0010BF
:103E4000FCF79EFB002081002269401C55506269EE
:103E5000C0B255501528F6D300203021414300222E
:103E60000C31E368401CC0B25A520C28F5D3002034
:103E700097E11D99626848434000101828901199F5
:103E8000219811902191002001468300119A401C35
:103E9000C0B2D1501528F8D3019926987143401E1D
:103EA00008182090002074E120982E22401C2090B9
:103EB0000298A25E4100289809180020085E8242FC
:103EC0007EDC029B219AD3185A78002A78D11D9A59
:103ED0003E2752000E928A1A1546403DEF5F8742F8
:103EE000EEDC0025555F8542EADC0225555F854200
:103EF000E6DC0A46403A3E25555F8542E0DC022278
:103F00008A5E8242DCDC01229A700E9B3E275B189F
:103F10001D46403DEF5F8742D2DC029F119DEA556E
:103F20000E9D495F8142CBDC029D119949194A706F
:103F300002255D5F8542C3DC8A700C980C287CD218
:103F4000401C2790C0B200900C98E168302250438A
:103F500008180C9001200F90A16901980870E16980
:103F60000298087020990098087000250098FFF7C3
:103F700017FF6F460ECF2046FFF7E1FE03E08028D3
:103F800001DB0546F6E0A069415D1C91E069269BD6
:103F9000415D1F911C991D9848431F99420048009C
:103FA0006168101840181C9932464A431F995918E5
:103FB00051180022825E6D1C0D922DB20E9A00E007
:103FC000E4E0821A944613920E9A8B1B1718821EF5
:103FD000801C1690481E1497059015926046039316
:103FE0008A19801E1790B81E049218906046801C93
:103FF0001990581E491C0790BF1C501E5B1C521C78
:104000000890069100201A9709930A920746229079
:10401000B90003A840588C460178002910D00098B8
:1040200081420DD0624613A880580022825E0D980E
:10403000824200DD0246009800E0A3E0FFF74EFE5A
:10404000614613A840580021415E0D98814208DD69
:10405000614603A8405801780098814201D00120B0
:1040600022907F1C7FB2082FD2DB229800287DD1BE
:10407000810003AA52581378002B74D113AB5B58FC
:1040800000219C46595E2E23E35E99426BDB0D9B1B
:10409000994268DC00991170FE490A5C1C9951181C
:1040A00049B21B91A3690F9A9954FB490A5C1F9965
:1040B00051184BB2E2690F999E4653540F996346CB
:1040C000491C09B20F910C99002249699A5E8A181D
:1040D0000C994A611B99F14A8900891800229A5E5D
:1040E00049680C9F5143BB69CA17FF69C9180C9BEB
:1040F0007A41DA61996173469900E94A0023891887
:1041000062464968D35E0C9F59433B6ACA177F6A6F
:10411000C9180C9B7A415A6219620C990C9A498908
:10412000491C51810C9902228A561B998A4201DA54
:104130000C9A91700C9900228A561B998A4201DDD3
:104140000C9A11700C9903228A567146724502DA54
:104150000A460C99CA700C9901228A56714672451A
:1041600001DD0C9A5170401C40B200E002E00828CA
:1041700000DA7DE70F98854200D000E72798C0B2AB
:104180000C9003E025980190249802900298401C1E
:10419000C0B224990290884200D285E60198401C62
:1041A000C0B225990190884200D262E6BD4ABE495C
:1041B000E068FFF75EFC0C9829B0F0BD30B5302404
:1041C000D3686043C0180624045F52686300D55E5C
:1041D0004B00D35EAB4202DB0481C18030BD0824BA
:1041E000045F002C03DB6400125F9342F6DD018163
:1041F00030BDF7B584460C4602983025C368614649
:1042000030206C434143A646CA18E41850696569DA
:10421000401950619069A669D569E76986197D41A1
:104220009661D561106A266A556A676A86197D416A
:1042300016625562D089E5894019D081108A258A95
:104240004019108250896589401950819089A5894B
:10425000284390810020A081022002251056655736
:10426000A84200DA95700325032055572056854251
:1042700000DAD07070465D561856854200DD5854FD
:104280000121012051562056814200DD5070062147
:104290006046615EC0B2029AFFF790FF0821615E3E
:1042A000002904DB6046C0B2029AFFF787FFFEBD1B
:1042B000F7B586B006980C46069A0021C5682032EC
:1042C0007948059209E08A00121813795B1E137170
:1042D00053795B1E491C5371C9B282788A42F2D865
:1042E000B8E00020844610793021484340194389C2
:1042F0005079484340194089181881B2042010565B
:104300008646052010560090012031E0664A830061
:104310009A1813793026029373435B195E89537997
:10432000302701937B435B195B89F3189BB28B4267
:1043300008D219460423D35684469E460523D356F5
:10434000009313E08B4211D1029E574B76450DD15D
:10435000019F009EB74209D10626965F62469200F1
:10436000D2180623D35E9E4200DAD680401CC0B22B
:104370004D4A93788342C9D86046810010460F1891
:1043800004260520BE5738560090864257D006981E
:1043900006214268302070434019415E844648003F
:1043A00000993023594349190623CB5E105E5B0008
:1043B000D25E904200DD1046059AD27C42430598B9
:1043C000007D02410620385E824212DD604642696D
:1043D0000698808D82420CDD4A69824209DD0A22FC
:1043E0008A5E60460A21415E05985118007C814230
:1043F00025DB3146069A0098FFF7FBFE2A49641E2A
:104400008878E4B2800040180288BA804088F8803A
:104410008878401E8870009A0020D3B20BE082009A
:1044200052181779B74200D113715779B74200D1AA
:104430005371401CC0B28A7882420BD9EFE71A4808
:104440008178890009180A88BA804988F9808178BA
:10445000491E8170144A9078002800D041E7274611
:10446000002613E03020784340190090007BC007FD
:1044700008D109E0302070434019007BC00719D0F3
:10448000761C76B20C2EF5DB7F1CFFB20C2FE9D325
:1044900000200BE0160200001E0200000C9C001021
:1044A000CC9C0010A0030000EC0300000899074614
:1044B000086050E030207043401930220099FCF72A
:1044C000C1F800200099761C888176B2DCE73020A4
:1044D00078434619307BC0073BD07069009002904A
:1044E000C0170190F169B069019B009A04F0F1FADC
:1044F000059A527D04F0C2FA00B230850490039010
:10450000716A306A019B009A04F0E3FA059A927D81
:1045100004F0B4FA01B271850398002801DA002092
:1045200005E00698049A008D824201DB401E30852A
:10453000002901DA002004E00698408D814201DB69
:10454000401E7085089801680298814201DA089936
:1045500008607F1CFFB2A742B9D3204609B0F0BD66
:104560005B4800218170491EC170017141718171E8
:104570000A21584A06230161D380917356498A89DA
:1045800002810A8942810988818154490988C1814F
:104590007047F0B501460020012925D000224C4D7E
:1045A0004F4B2A70504C1E8824884E4B1146A4460F
:1045B00024270C467C431F5BFF050FD5E4181D27FD
:1045C000E75730246743494C3C190A27E75FB74255
:1045D00004DC6469644501DC01200246491CC9B25F
:1045E0000F29E5D32A70F0BDFFF7BAFF0020F0BD18
:1045F000F0B5012817D036493D4E0B4605251C69FC
:104600008F785D5733480A2236780023641C002FC8
:104610000AD0012F2CD0022F05D10C61002D2FDBE9
:10462000012088700B61F0BD0C61002D05DB0124B9
:104630008C700624C4808273F4E72E4B1B78002B09
:10464000F1D00223002E8B7004D01821C180827318
:10465000428205E00621C180FF21827391314182AF
:104660007D211D48C9000161018823484181F0BDB9
:104670000B61002DFBDA8B700621C1808273F0BDC7
:104680001D4C2579002DFAD1002E8B7003D01825F2
:10469000C580827304E00625C5808273FF229132B3
:1046A00042820D480A8982814A8902818A89028070
:1046B0000A4DCA892A80114A0261114A127880186B
:1046C0002030007A60810F4A052010724B70F0BDD7
:1046D000BC0200002C3A0000483A0000843A000076
:1046E000140200007C0800001202000068040000B0
:1046F000030200002E02000060080000B80B00005A
:1047000002020000003A0000F8B50024FE4F1D260A
:1047100025467601E0B23946FDF7CEF800228554F1
:10472000521CB242FBDB641C042CF3DBF8BD10B559
:10473000FFF7EAFF3821F54804F06BFAF34801214E
:10474000203081740022C27442758175C175F048B1
:1047500068238381EF4BF04C1B780375342343743B
:1047600001740460EC4CA0344460C381EB4B1B78B3
:1047700043828260EA48017010BDF0B5438A8168C7
:104780005B4300292AD0002224E081890468514338
:1047900061188C46C189446851436518846866185D
:1047A000002112E0745C002C0DD14C0067463C5F88
:1047B00064439C4201D9002404E06C5C077DA7425D
:1047C00001D9641C6C54491CC9B2447C8C42E9D8A0
:1047D000521CD2B2017C9142D7D8F0BD00221DE01C
:1047E0008189046851436618C1894468514365183A
:1047F00000210EE04C00345F64439C4201D9002448
:1048000004E06C5C077DA74201D9641C6C54491C10
:10481000C9B2447C8C42EDD8521CD2B2017C914288
:10482000DED8F0BDF0B5BF4887B0027A69460A7598
:1048300020220A7400240088732748822646BF017C
:1048400021463420FCF732FFC107C90F0918CDB249
:104850006946487439462046FDF72EF800906800F6
:1048600069468881A8492046FDF726F801906946E7
:10487000CD8168460296FFF780FF641CE4B2042CE9
:10488000DED307B0F0BDA14800212030C1757047CC
:10489000F7B5A54D83B0690C8E4600218C460C46B9
:1048A00001910B4600913EE08188026859435118FE
:1048B0000022029132E002995700C95FA94201DD4E
:1048C0000D4602E0714500DA8E46C7888F420CDC47
:1048D00066467618B446049F9600BF59641C791842
:1048E000049F24B2B951049911E00827C75F8F4291
:1048F00012DB019F96007F180197009F7F1C3FB23B
:104900000097059FBF597F1805998F510599FF3171
:1049100001310F6C7F1C0F64521CD2B2C17A9142DC
:10492000C9D85B1CDBB2817A9942BDD8C1684D8180
:10493000C26871461181C26861461160C2680199FE
:104940005160C1688C81C0680099C18106B0F0BD1A
:10495000F0B589B01F46144620236A46937204AA14
:1049600003926A461181D0800020E081A0816E49C7
:104970006181490C21816060014620608A00B85045
:104980000E9B491CC9B298505029F7D900252E46D4
:1049900003990020C88103998881039A6249518153
:1049A000039A490C118103994860039908602946CC
:1049B0003420FCF77BFE01466846C1725B492846FD
:1049C000FCF77AFF00906846C07AC107C90F40180B
:1049D0004100684681800E99B0004218C1196846AE
:1049E000FFF756FF6846C07A0A228019C6B26846A9
:1049F0001A21A25E415E8A4200DA618102460821E4
:104A00001820615E105E814200DD2081E189D08B3B
:104A10006D1C0818E081A189908BEDB20818A08167
:104A2000206804994018206060680599401860600B
:104A3000042DADD309B0F0BD10B5354886B018309F
:104A4000384A009002210420515E105E384B01AAC2
:104A5000FFF77EFF01A91EC936481EC006B010BD73
:104A6000F8B58E4600234AE00421415E02685943AE
:104A700056181421415E0269594354180C21415EB5
:104A8000826859435518002234E0AF5C017E8F42A2
:104A90000CD35700BC46F75F002F07DD0021A95457
:104AA0006746E15BF75BCF1B6146675271460F2992
:104AB00011DA5700F15FBC46009100290BDAA95CBE
:104AC000077EB94207D36746E75B0099791A6746C4
:104AD000E1530027AF5418490979002908D157003C
:104AE000BC46E15BF75BC91B6746E1530027AF5447
:104AF000521CD2B2C17D9142C7D85B1CDBB2817D12
:104B00009942B1D8F8BD0000202B0000980A00009F
:104B1000781900006D9E0010705B00406E9E0010C2
:104B200060020000003A00000180FFFFF023000057
:104B3000D41A0000D00A000060080000F0B58E46CC
:104B4000002427E00C21415E826861435118059ED4
:104B500000225D1E8C46761C17E0877D7F1CA742D5
:104B600011D3AA420FDBB2420DDC714600290ADBE9
:104B7000079FBE4507DC002B05DB069FBB4202DC1E
:104B8000002761468F54521CD2B2C77D9742E4D8A9
:104B9000641CE4B2817DA142D4D8F0BDF7B58AB0DF
:104BA0000D46044600210C98FCF780FDF84908707A
:104BB00001210C98FCF77AFDF649087002210C9847
:104BC000FCF774FDF449087003210C98FCF76EFDA6
:104BD000F2490027087068B208900C9840B207901C
:104BE000384624214843EE490246885A830705D1B6
:104BF000830603D4030601D4C0057DD551181D20BA
:104C000008563021E74B4843C11803251B560222A2
:104C100001204D5708568A5603A90DC12E460B2870
:104C200002DC002006901FE001460C390B2906D853
:104C30000120069048B2039028460C3813E0014644
:104C400018390D2906D80220069048B2039028464C
:104C5000183808E026380E2806D840B20321039001
:104C600028460691263846B206990C98FCF71EFD98
:104C7000C107E075C90F4018C0B20090CA49069834
:104C8000FCF71AFE2060C9490698FCF715FE206162
:104C9000C7490698FCF710FEA06000984000A0806D
:104CA000A0820098A081079808990096029101902F
:104CB0002046039B049A0599FFF740FF06980028B9
:104CC00008D10B2D06DD0120069000200390284618
:104CD0000C3846B206990C98FCF7E8FCC107E07561
:104CE000C90F4018C0B20090AF490698FCF7E4FD28
:104CF0002060AE49069800E080E0FCF7DDFD206111
:104D0000AB490698FCF7D8FDA06000984000A08051
:104D1000A0820098A08107980899009602910190BE
:104D20002046039B049A0599FFF708FF069801287F
:104D300008D1172D06DD022006900020039028469A
:104D4000183846B206990C98FCF7B0FCC107E0751C
:104D5000C90F4018C0B2009093490698FCF7ACFD0B
:104D6000206092490698FCF7A7FD206190490698BB
:104D7000FCF7A2FDA06000984000A080A0820098EF
:104D8000A081079808990096029101902046039B04
:104D9000049A0599FFF7D2FE0698022807D1252D1F
:104DA00005DD032006900020263D6EB20390069993
:104DB0000C98FCF77BFCC107E075C90F4018C5B221
:104DC00079490698FCF778FD206078490698FCF749
:104DD00073FD206176490698FCF76EFDA0606800BF
:104DE000A080A082A5810798089900960291019061
:104DF0002046039B049A0599FFF7A0FE7F1CFFB293
:104E00000F2F00D2ECE60DB0F0BD0FB4F0B587B0B7
:104E10001B9D1D9F06CD1C9B8C1818A909790DAAF6
:104E20008900545018A9002005240979083D0E1B5B
:104E300076B2002E01DA0C3676B2B60096593618E4
:104E4000601C081840B20C2801DB0C3840B280000E
:104E50001058301A641E2406240EE8D1491CC9B229
:104E600018AA11710C2901D300211171002B36D120
:104E70007D21C900C84201DA01209071684687751A
:104E80004C483422017A684601762021FFF786FEDD
:104E9000454E21461E98FCF709FC6946C875C107B6
:104EA000C90F4018C7B231462046FCF705FD0090F7
:104EB0003E492046FCF700FD04903D492046FCF7A2
:104EC000FBFC029078006946888088828F81684662
:104ED0002968FFF7C5FD641CE4B2042CD9D338223D
:104EE0000DA90C98FBF7AEFB07B0F0BC08BC04B0F2
:104EF0001847F0B5304C31482568314B01228542C6
:104F000006DDA0897D21C900884201D95A70F0BD13
:104F10002C480021C17401750A276668E75F2A4C96
:104F2000BC462778294CAD19E468002F08D0002D25
:104F300003DAA64201DA012400E00024C47410E080
:104F4000002D03DAA64201DA012400E00024C47433
:104F50001F4C24882D2C04D964463C2C01DAC274E1
:104F600002E0C47C002C37D08175447D032C02D82C
:104F7000641C447532E0C47C002C04D05A70417526
:104F8000144802702AE0134B1970417526E00000A6
:104F900005020000060200000702000008020000EF
:104FA0007C08000068040000F02300009015000059
:104FB000202B0000003A0000D00A0000A08601006B
:104FC000400B0000B80A000002020000D43A0000C2
:104FD000A00300002F02000041758275304800795F
:104FE000002894D12F480270F0BD70B5049CDD07F5
:104FF00003D0002C01D05B1CDBB25A43002307E036
:105000009C005E000D59865FAD195B1C0D519BB273
:105010009342F5D370BDFFB581B006460A9A0D469E
:105020000B98D10703D0002801D0521CD2B25343B1
:105030001FB2002409E0A00030580399C00003F01B
:10504000F4FD6100641C685224B2BC42F3DB05B07D
:10505000F0BDF0B5069C059D8C46002C1CD00024AC
:105060000BE0115D994207D366006146875B895B5F
:105070007918815300211155641CAC42F1DBF0BD5D
:10508000115D994207D366006146875B895B791A97
:10509000815300211155641CAC42F1DBF0BD0000CE
:1050A000600800002F020000FE48FF4902888A8045
:1050B0004288CA8082880A81C2884A8102898A819C
:1050C0004089C88170473922F848514201708911DE
:1050D000417037218170C943C17038230371491C65
:1050E000417101218171C271704730B50546F14AA5
:1050F000EF48002310601371581E5071D3600120D7
:105100001361107205209071EB48D3710C46007842
:10511000EA4920182030007A508193762888088048
:10512000E749002024224243401C8B520F28F9DB20
:10513000FFF7C9FFE3480560E3480460FFF7B4FFE9
:1051400030BDF0B50446E14887B00778E048DA4959
:105150000678D848774345696000285E059009784D
:105160004A00D9490968511804228A5E90427DDAC2
:105170003146204603F04FFD701CC9B284420BD06B
:105180007000821EA24207D03A1A531CA34203D0D9
:10519000BB1B9B1EA34201D103230BE0A04206D8F8
:1051A000A24204DD012902D9B61EB14201DB05236A
:1051B00000E00823002007466946BC4A125612192F
:1051C0005200AE5E42008E52002E00DA8F52401C1A
:1051D000C0B20828F1D3059808820020024601E0F9
:1051E00010460AE045006E1802274C5FF75FBC428C
:1051F00001DD4F537480401CC0B20828F2D3521C0A
:10520000D2B2082AECD3082B1ED0AB48AE490078A6
:10521000096880004418052B68463BD00C210A22FF
:10522000415E825E102389180E22825EC35E491C95
:10523000D0187D22D200504303F0EDFC216A814258
:1052400026D8012007B0F0BD084600210222415EA9
:10525000825E06238A180421415EC35EC8181118B5
:105260000A2268460C23825EC35E00E010E0D2187A
:105270000E231024C35E045F491C181910187D22E8
:10528000D200504303F0C7FC924909688842D8D243
:105290000020D7E706210822415E825E0E2389188E
:1052A0000A22825EC35E89180C22825E491CD218D3
:1052B0001023C35ED0187D22D200504303F0ABFC14
:1052C000A169BCE770B5302148438349441883493C
:1052D00060690979002921D1764D0A21695E8142F0
:1052E0001CD87F4A0421515E814217D310460A21FF
:1052F0002030615E807A814210DCE088FFF721FF78
:1053000000280BD00621615E68694900405E0A21D1
:10531000695E884202DB73480021C17570BDFFB52C
:105320000022134669468B54521CD2B20F2AFAD37C
:10533000FF2600228436624C012724235343E55A7A
:10534000354203D01B1920331B78CF54521CD2B2E4
:105350000F2AF2D300280BD009200A5C002A04D0BF
:10536000401E40B20028F8DA09E0C0B204B0F0BD37
:105370000A5C002AFAD0401CC0B20A28F8D30020E8
:10538000F4E7F1B54B49042008568AB008900F287D
:105390007EDA002424204A496043085A002803D0BA
:1053A000641C64B20F2CF5DB0A98302148434A494B
:1053B000062745184648EF5F01783846009103F00C
:1053C00034FC46B200983C497043381A40B2019010
:1053D0003C48097800684A001318002E0CDD3B4851
:1053E0000078C01E864207DA0198002804DD0746CF
:1053F0000098C01E874202DB0898002809D00420CC
:10540000185E6F69874232D32A4E3069002804D073
:1054100006E00420185E4010F3E73348006830616E
:105420000520305600280CDA204624214843244920
:1054300074712E4A0A52F079002807D10120F071C8
:1054400004E0022224201E4960430A520020FFF794
:1054500066FF24211A4A61438918203108704B20C5
:10546000C000874202D3B07E401CB07682E01B4869
:105470000079002870D10F480A23C35EBB426BD865
:105480001148042300681218D35EBB4264D300E0C5
:105490008CE040180A222030AA5E807A82425BDCCF
:1054A000E88825E0843A0000D002000045020000B0
:1054B000CDAB341260080000020200000A020000B6
:1054C0007C080000580200005C0200004D02000051
:1054D0004E0200002802000068040000C83A0000E4
:1054E000483A0000B80A00000C3A0000010400002D
:1054F000FFF727FE002856D0F94F0622AA5E7969E9
:105500005200895E0A22BA5E91424CDB2046242179
:105510004843F449802206900A52F348F44B01783C
:10552000F2488A000068121812691A600122F14BD1
:10553000002E1A700CDDF04A1278D21E964207DA5D
:10554000019A002A04DDED4B1B78DB1E9A4204DB36
:1055500049000818818902E025E04900415A798113
:10556000FFF791F90120FFF7DAFEDE4A0699891864
:105570002031087024204443DA480A9920184177E2
:10558000012141610021018141818181C18101822B
:105590004182298D4180698D8180A98AC180D0484E
:1055A0000179491C01710A98FFF78CFE0BB0F0BD20
:1055B000F0B52421CB4A4843841861693023491C43
:1055C00061610021C9436177115A99430123DB02CC
:1055D000194382230E461E40C14B11521D796D1E88
:1055E0006DB2002E03D0002111521D71F0BD812635
:1055F000B600314220D0217FBB4F491CC9B2217770
:10560000BF4C3F782468E419247EA142EEDB115A96
:10561000B14311524C0609D5002111521D711A20B7
:1056200018560028E2DD401E9876F0BD082421437C
:1056300011520220D871F0BDCD070123002D01D0F9
:10564000042503E0CD05F6D501256D02294311524D
:105650002377F0BDF1B594B0149C2420A1494443B4
:10566000085B832212019043085382079C4B0890E9
:105670000520185610901846C0790E900420185630
:105680001190401E40B20F901A2018561390401EE1
:1056900040B2129008462518002A33DA1D202856F9
:1056A00030225043974A8018426918461823C35E37
:1056B0009A4221DB6A69521C6A61109B002B12DB43
:1056C00083799A420DD30A5B02239A4321231A431A
:1056D0000A538D4A642111700E99002901D10121CC
:1056E000C17115B0F0BD0A5B02239A43874B1A4380
:1056F0000A5314994171EFE700220A53E9E0129925
:105700008176EEE708980106774803787748059395
:1057100000685A0017180D90C01820300B90784878
:1057200000680990161874480078C01E04907348E9
:1057300000780090C01E079000297DDA1D2169566F
:10574000302041436F48091806200991085E0290F5
:10575000009903F06AFA41B2009A02984A43801A0B
:1057600042B25F4B0A20185E002907DD049B994274
:1057700004DA002A02DD07998A4204DB1199012923
:1057800001D10C20385E099A04215269715E82426F
:105790003BDB0423FB5E53489A4236DC099B0A2616
:1057A0009E5F0B9B9B7A9E422FDC6A690646521CC9
:1057B0006A6105994A488D000D99C3686918C96ADC
:1057C0008B4207D252490978002906D0514989896C
:1057D000322902D20B998B7D01E00B990B7D31466A
:1057E00093428ED80A5B80239A43FF2321331A43C6
:1057F00032530E99002901D10121C171119801285C
:1058000000D06EE7002040490BE136488A421BDB9E
:105810000899802291430153109B314A002B10DAE2
:10582000149B5371394B194301530120364B6421AA
:10583000686119700E9900E009E00029E1D1D0718A
:105840004FE70222114301530120686149E708999B
:10585000490769D568691D21401C68616956302077
:1058600041432848062708180390C75F0099384627
:1058700003F0DBF941B200984843381A40B20029DE
:1058800007DD049A914204DA002802DD0799884274
:1058900002DB0C21715E01E00821715E039A114860
:1058A00052698A4202DB015B04226CE0297F491CB9
:1058B000C9B22977059B099AD218127E9142A0DBC2
:1058C000015B0422914301534A0626D5002101536E
:1058D00003480F990171139900291DDD0FE723E09B
:1058E000600800007C080000020200005C0200006A
:1058F000280200002D0200004D0200004E020000B0
:1059000058020000680400002C020000010400009E
:1059100044020000D00A0000E3E6082211430153CC
:10592000FE490220C871DCE60899890543D56869FB
:105930001D21401C6861695630204143F848091810
:1059400006200591085E0099064603F06EF9009A5C
:1059500041B24A43B01A40B2002907DD049A91428D
:1059600004DA002802DD0799884202DB0C21795E07
:1059700001E00821795E059AEA4852698A4205DB0E
:10598000015B0122520291430153AAE6297F491C7F
:10599000C9B229770B9A127E9142BDD3015B0122D5
:1059A0005202914301534A06B7D500210153DB4807
:1059B0000F99017195E60899C90734D068691D21CE
:1059C000401C6861695630204143D54806270818B5
:1059D0000390C75F0099384603F027F941B2009859
:1059E0004843381A40B2002907DD049A914204DA8C
:1059F000002802DD0799884202DB0C21715E01E07C
:105A00000821715E039AC74852698A4202DA015B33
:105A1000042271E00420305E40008242B5DCC249BD
:105A2000012008705DE60899C905AED568691D2199
:105A3000401C6861695630204143B9480918062066
:105A40000591085E0290009903F0EFF842B20099C8
:105A500002985143401A40B2002A0ADD04998A4252
:105A600007DA002805DD0799884202DA1199012931
:105A700002DD0C21795E01E00821795E059B0A2791
:105A8000DF5F0B9B9B7A5B1C9F4228DD002A07DDB2
:105A900004998A4204DA002802DD0799884202DB71
:105AA0000C21715E01E00821715E059A9D485269E2
:105AB0008A4214DB035BFF22013293430353109E9F
:105AC000964A012E08DC149B5371012303530E9850
:105AD000002804D1D37102E00222134303531D2294
:105AE000AA5630235A438E4B8E48D21852698A42A6
:105AF00098DA015B012252021143015301202877F9
:105B0000EFE5F0B500208749ADB0044624224243BA
:105B10008B5A1D073DD55D061AD50825AB438B5220
:105B20007E4F0522BA56824233D10022D2437A7187
:105B30000022482624235343CB5ADD0703D03342A7
:105B400001D17A7125E0521C52B20F2AF2DB20E01B
:105B5000724E8C523279521E32711A22B256002A7B
:105B600001DD521EB2760522B256824211D10022C8
:105B7000D24372710022242513466B43CB5ADD07B2
:105B800003D01B0701D4727103E0521C52B20F2ADA
:105B9000F1DB401C40B20F28B8DB6448037864484E
:105BA0005D000268A818408BD41840432246099033
:105BB0002032937800205B439E4613795B00069366
:105BC0001378A27F002119AC21542421554C414364
:105BD000091908254D5F4E88AC4655431D41AE1945
:105BE00045001DAF7E530A268E5F8988374656438F
:105BF0001E41711825AE715365466D437F43E91907
:105C000075466943069D29418600401C0AAD40B295
:105C1000A9510F28D6DB4148042141564548007858
:105C200081425DDD00253020294641433C480A1869
:105C300090898446C0073CD00020C04300210390D7
:105C400019AB5B5C002B21D124234B43E35A002B7F
:105C50001CD04B001DAE178DF65ABE1B36B2B64691
:105C600025AF568DFB5AF31A1BB2764676435B433B
:105C7000F718039BBB4209D9099B9F4204D98E00A8
:105C80000AAB9B59BB4201D308460397491C49B252
:105C90000F29D5DB00280CDB2421414309194D775E
:105CA000012119AB19546146022319439181FFF771
:105CB000D1FC6D1C6DB20C2DB5DB002519AE705DED
:105CC000002807D124206843205A002802D0284603
