:10000000F01F0000150000100000000000000000BC
:10001000002070477CB51B48292149060862012051
:1000200008600020486138200863092088600F209C
:100030000861002008613F20C861FE20C8600420DC
:10004000486000BF00BF00BF00BFFFF7E1FF0646EA
:100050000D4840680090002001900B4D002405E001
:10006000A0002858A100019A5050641C282CF7D3F6
:100070000021009848600098804700BF00BF00BF83
:1000800000BF7CBDA07F0000000400100000000045
:100090000000000000000000000000000000000060
:1000A0000000000000000000000000000000000050
:1000B0000000000000000000000000000000000040
:1000C0000000000000000000000000000000000030
:1002C000000300000000000000000000000000002B
:1002D0000003000000B900000003000000B90000A6
:1002E00000C0000000040000010001000301030140
:1002F0000101424C4144453361000000010003000C
:1003000000000000000000000000000000000000ED
:1003100000000000000000000000000000000000DD
:1003200000000000000000000000000000000000CD
:1003300000000000000000000000000000000000BD
:1003400000000000000000000000000000000000AD
:10035000000000000000000000000000000000009D
:10036000000000000000000000000000000000008D
:10037000000000000000000000000000000000007D
:10038000000000000000000000000000000000006D
:10039000000000000000000000000000000000005D
:1003A000000000000000000000000000000000004D
:1003B000000000000000000000000000000000003D
:1003C000000000000000000000000000000000002D
:1003D000000000000000000000000000000000001D
:1003E000000000000000000000000000000000000D
:1003F00000000000000000000000000000000000FD
:10040000F01F00003F350010000000000000000059
:1004100000000000000000000000000000000000DC
:1004200000000000000000000000000000000000CC
:100430000000000000000000F10500106F7F0010B8
:10044000FD2F00103D3500103D3500103D350010EA
:100450003D350010E9270010B52B00106D1E00106F
:100460003D3500103D3500103D3500103D35001084
:100470003D350010692700108F1E0010B11E0010BE
:10048000D31E00103D3500103D3500103D350010E5
:100490003D3500103D3500103D3500103D35001054
:1004A0003D3500103D3500103D3500103D35001044
:1004B0003D3500103D3500103D3500103D35001034
:1004C00003B40148019001BDC100000003B401481C
:1004D000019001BD011F000000F002F800F040F89B
:1004E0000CA030C8083824182D18A246671EAB4649
:1004F00054465D46AC4201D100F032F87E460F3ED4
:100500000FCCB6460126334200D0FB1AA246AB46BA
:1005100033431847D0B8000030B90000103A02D376
:1005200078C878C1FAD8520701D330C830C101D594
:1005300004680C607047000000230024002500269A
:10054000103A01D378C1FBD8520700D330C100D58F
:100550000B6070471FB5C046C0461FBD10B510BD2B
:1005600008F052FF1146FFF7F5FF02F0FEFF08F01A
:100570006AFF03B4FFF7F2FF03BC03F016F80000B4
:10058000FCB40022002300240025002600270629B1
:1005900002D4FCC00639FAE7002902D004C00139B0
:1005A000FAE7FCBC7047000002B472B60178013172
:1005B000017062B60139080002BC704702B472B61D
:1005C00001780139017062B6080002BC7047000072
:1005D00062B6704772B670471C3880F3098870475E
:1005E000014802490160704704ED00E0000000107E
:1005F000114B1968114A1268914216D0EFF3098025
:1006000020380860F0C044464D4656465F46F0C06C
:100610001A6010681030F0C8A046A946B246BB4622
:100620002038F0C8103080F30988054B002018707E
:10063000042040420047000048020000440200003D
:100640003502000070B505460C46164602E00FCC98
:100650000FC5103E102EFAD2082E02D303CC03C5CC
:10066000083E042E07D301CC01C5361F03E02178D4
:100670002970641C6D1C761EF9D270BD7FB50026F2
:100680005C0002250096802833D08B2830D10429C5
:100690002ED1D807C00FC0181A4940004118009148
:1006A000890704D00099C91C89088900009169460E
:1006B000001D0881009800281AD013482421418089
:1006C000472146600170082141700F480021083021
:1006D00001906846857344814373027302F060FEA3
:1006E0000021022002F066FC0121022002F062FCDF
:1006F0007FBD0029FCD1012080070090684604815D
:10070000DBE70000963D0040905B0040012110B502
:1007100049034804FFF734FF00201449144B0870C4
:100720004870887001221A70124A1080124A108094
:10073000124A1070C87010BD10B5FFF7E7FF1049DE
:100740000020C8716031088205F09FF804F016F8A7
:1007500001F0EEF90B490C4805F04BFB03F06FF884
:1007600004F0B6FF07F0D0FC10BD0000210100002E
:100770003F0100006C0200006001000078010000F1
:1007800000090000481C0000841C000010B504464D
:100790000020012260649207E261A064504A626313
:1007A000504AA2634F4A34230832E2632246403261
:1007B000137020235370E0641082012262651023BD
:1007C000662213552061002901D001F0B5F9464891
:1007D0004078208301F0A6F9007F606001F0A2F963
:1007E000407FA06001F09EF9018A204604F01AFEC5
:1007F00001F098F95521417010BD10B53B4C002116
:10080000207806F03BFF002802D0002003F027FFED
:10081000207806F0E5FF012010BD10B5112806D0A4
:10082000122803D13249082002F0C4FB10BD304920
:100830000420F9E7C00601D5012070470020704769
:100840002C4801F0CAFA01F001FC01212848FFF709
:100850009DFF0021084606F02BFE27490870012164
:10086000084606F025FE2549214C254E1E4D0870F0
:1008700060341F4800F07EF90020305E002802DB63
:1008800001F0F1F8F5E72878FFF7D4FF00280CD144
:100890006878002809D0A0790009000110280CD040
:1008A000802810D0002003F0DAFE2878FFF7B5FF8B
:1008B000FFF7A3FF0028FBD0DBE7802210210C48C4
:1008C00000F0D8F9F1E76078002804D0084800F07B
:1008D0004AFC00206070064800F0F8F9E5E70000E7
:1008E000E0230040905B0040101C0000C5010000A8
:1008F000A0080000903800407901000020010000AD
:1009000080010000F1B501F00DF90446A64F012663
:10091000A6493E7080206034087001F003F900257C
:1009200020300571A1487821417001F0FBF820309A
:10093000857101F0F7F82030C57101F0F3F8867782
:1009400001F0F0F8C57601F0EDF82221417001F0D8
:10095000E9F8067601F0E6F82021418201F0E2F89C
:100960000521017501F0DEF82030C57101F0DAF8DB
:10097000467601F0D7F805212030417101F0D2F818
:10098000032101708A4820606060A060E0602061FF
:100990006061A061E0612062A562E5622563656334
:1009A000A563E56325646564A564E56460621D2054
:1009B000800220657F4860657F48A06500997F4878
:1009C0000B0008F0A0FD08050C171C1B28474C1B4A
:1009D0000561456185610562456285620AE00561E0
:1009E0004561856105624562856201F09BF8FF21E2
:1009F000913102E001F096F864210182F8BD0561B1
:100A00000562456145628561856201F08BF80321CD
:100A100020308171EEE7FF2029214906C86068492E
:100A20007E70102088630863032002F004F901F04F
:100A300079F89A21018201F075F88021418201F054
:100A400071F8072101755F48A06101F06BF806217C
:100A50000170F8BD0720FFF755FFBE7006E0056185
:100A600045618561056245628562FE703D70F8BD35
:100A7000F8B50446C034618A534B4C4DCA1A4A4FEC
:100A8000002699423AD007DC504A89183ED0012905
:100A90002FD002296CD166E0012A45D00B2A67D1FC
:100AA00005464035288A002804D101F03BF8203063
:100AB000C079387101F036F801212030C171288ADF
:100AC000401C80B228820A2801D20120F8BD01F022
:100AD00029F839792030C1712E820C2007F0A7F84F
:100AE0000020C04302F09CFE01F01CF8162141706A
:100AF0003EE07D20000102F08DFE39E0A08A06284C
:100B000036D808202870A08AF88031E000F088F9F3
:100B10002873FF21532000064160042202624162D3
:100B20008662C662016323E001212973603041704F
:100B30002748017000F0F6FF2221417000F0F2FF1B
:100B4000FF210F31018223481E2101804180FA21BB
:100B50008180C18004210175417500F0E3FF782197
:100B600041822E7004E01021297000F02BFFE86014
:100B70006682AAE710B50446FFF77AFF00F0D2FFBD
:100B80004078552809D000F0CDFF0748C1780129E9
:100B900005D000212046FFF7F9FD012010BD0021FE
:100BA000C1700121F6E700007A010000101C00006E
:100BB000CCCCCCCCF0201000CDCDCDCD400000521F
:100BC000C00300553074000004080000FFF7FFFF69
:100BD00078010000841C000053200006816AFC227A
:100BE000114381621C49012002F0E4F904F04DFE3A
:100BF00003F0C4FD00F09CFF1849194805F0F9F80E
:100C000002F01DFE04F064FD07F07EFA154C164D4F
:100C1000164E1749207806F031FD002802D000203A
:100C200003F01DFD207806F0DBFD0B4800F09CF87A
:100C30000746287806F0DCFD00F074FF007B0028F2
:100C4000E7D130780028E4D1002FE2D0024901201A
:100C500002F0B0F9DDE70000A0080000481C000029
:100C6000841C00007901000020010000101C00001D
:100C70008096980010B5034660331C469A710902AD
:100C8000354B1143CA1A99421AD00ADC334A891AE1
:100C900011D001225203891A0DD03148C14205D129
:100CA00007E0FF2A05D0FF3AFD2A04D0002003F018
:100CB000D6FC012010BD00F0E6F88120A071F8E715
:100CC000284841780B2001F08BFEF2E770B505460D
:100CD00004466035A87981280AD083280ED084285C
:100CE0002ED0852807D0002003F0B9FC012070BD6C
:100CF000832281212CE08022852129E0204600F0FA
:100D000058F900F00FFFFF3001300178E06C8142AC
:100D100002D2842283211BE0124900280ED0E879F8
:100D20004C78002805D100F0FDFEFF211831415616
:100D30000C1921460B2001F053FED7E74978F9E75B
:100D4000204600F036F9E06C0028CFD183228421C0
:100D50002046FFF78FFFC9E7848300008010000062
:100D6000FDAEFFFF101C0000F1B507F0B8F903F06D
:100D7000C0FC254D3423287820220421FFF77EFC77
:100D800003F01DFD214803F0D6FE214C01462070E2
:100D9000204A1E4804F04AF920701C482C21415E6C
:100DA000406805F0E9FE06F0A5F903F078F91A4964
:100DB0000A68521C0A6019490A78002A22D00024C5
:100DC0000C7000F0B3FE0146FF313331FF302130AB
:100DD00000221023047412260DE00C804C808C80BD
:100DE0008C714A720B72CF793743CF71077C0A310D
:100DF0007F1C0774521CAF789742EED84474009958
:100E0000007C8C64F8BD0000101C00008002000013
:100E10004C010000500100000C1C0000700100009B
:100E200010B50120FF23532109064B6004220A62FA
:100E30004B6200228A62CA620B630A62FD244C6024
:100E40004C620224CC608C618A62CA620B638C683B
:100E5000CB620A63896810BD10B5002100F0E7F984
:100E60000021072001F0BCFD012010BD10B5044693
:100E700000F0D6F90321052001F0B2FD2046FFF76E
:100E8000EBFF012010BD10B5044600F0C9F90321A5
:100E9000052001F0A5FD2046FFF7DEFF204600F00B
:100EA00062F9002060346070012010BD012070479D
:100EB00010B50321052001F093FD012010BD10B5F0
:100EC000084606F095FC10BD704770B504462948E9
:100ED000007801283DD006260321052001F080FD81
:100EE0005220005D244D002811D0287806F078FCAF
:100EF000032309220221204600F0B5F93146287863
:100F000006F0BCFB002802D0002003F0A8FB2878E4
:100F100006F066FC032309220221204600F089F92D
:100F200001232A780021204600F0D9F9314628789B
:100F300006F0A4FB002802D0002003F090FB032160
:100F4000062001F04DFD00F0EDFD606C002806D19B
:100F500001E06426C0E709480078082804D1084861
:100F600001782046FFF7ABFF606C401C60640120F5
:100F700070BD00007A010000C4010000101C0000D8
:100F80007901000010B50146012001F029FD10BDD6
:100F900010B50A46FF2100233D310B540446602161
:100FA000DC340A5408F0BCFA2146022001F018FD96
:100FB00010BD30B504469DB00321052001F010FDA1
:100FC00000212046FFF7E4FF8C4D287806F008FC4E
:100FD0002046FFF7D7FF6421287806F04FFB002852
:100FE00002D0002003F03BFB0321062001F0F8FCB7
:100FF0004020834D035D287828220021FFF73EFB27
:1010000001F0A3F82878862809D101F0B5F800216D
:10101000022001F0CFFF0121022001F0CBFF79482F
:101020006421007806F02AFB002802D0002003F09B
:1010300016FB754802798178007801F090F82878DD
:101040008A2809D101F0A3F80021022001F0B2FFA3
:101050000121022001F0AEFF04F051FC04F0D4FDA8
:101060006A48817D00291BD0C07D002818D06849BE
:1010700068483423202209790BAD0FC563492C221F
:1010800014396846FFF7DEFA604820380EC80FA80A
:1010900004F017FE5D4838220FA92038FFF7D2FA76
:1010A00001F07FF85C4801782046FFF708FF002137
:1010B0002046FFF709FF606C401C606401201DB0F2
:1010C00030BDFFB581B0002421460A9800F0A6FE8D
:1010D000C107C90F0818049EC0B2464320460199B3
:1010E00000F0A2FF00902046029900F09DFF074605
:1010F000002509E00098A90040580399C00007F0B6
:10110000C8FA690078526D1CB542F3DB641CE4B286
:10111000042CD9D305B0F0BDFFB581B00024214621
:10112000049800F07BFEC107C90F0818C5B20398E8
:1011300002994543204600F077FF06462046019974
:1011400000F072FF0146002006E082004700B3581D
:10115000CF5FDB19B350401CA842F6D3641CE4B245
:10116000042CDCD3D6E7F1B582B00321052001F0D1
:1011700037FC224E307806F033FB00247327BF0182
:1011800000210298FFF704FF0298FFF7FBFE64219D
:10119000307806F073FA002802D0002003F05FFADE
:1011A00000F0D3FF022C07D37320342320223946CA
:1011B0004001FFF7B1FF0EE0002C0CD100252946BD
:1011C000342000F02BFE42013946284600F023FF70
:1011D0006D1C042DF3DB641CE4B2122CD0D334203C
:1011E0000090202310220D493846FFF76AFF0321A3
:1011F000062001F0F5FB0120FEBD0000C401000047
:10120000101C0000200100002C1C000078080000C9
:1012100020060000900800007901000090150000F1
:1012200010B56821683007F028FA012010BD0120B0
:10123000704770B5054604466030C1700271FF21E9
:10124000437101223D310A5502210170DC352046EF
:1012500008F066F92946022001F0C2FB2146012070
:1012600001F0BEFB70BD70B5054604466030C1702C
:101270000271FF21437101223D310A5505210170A0
:10128000DC35204608F04CF92946022001F0A8FB85
:101290002146012001F0A4FB70BD70B5044606464E
:1012A0000A46FF3000212130017760200255606C32
:1012B000DC361D46002806D1204608F031F93146BB
:1012C000022001F08DFB2146012001F089FB04463C
:1012D000002D02D0002003F0C2F9204670BDF8B501
:1012E0000546DC3517460E460446002B0BD006217A
:1012F000104606F0C3F9002802D0002003F0AFF931
:10130000384606F06DFAFF2000213D30015560207F
:101310000655204608F004F92946022001F060FB3A
:101320002146012001F05CFBF8BD00002F20FF49A1
:1013300040060860002181800181C180FC4A418112
:101340001178817352780B46C27353438381D3075C
:10135000DB0FD2184A4352000261F649520801627B
:10136000103289188908890081615C31C161A0311E
:101370004161704730B5F04A002011020D24E401AC
:101380004300D55A801CCD52A042F9DB30BDF3B5E5
:10139000012081B01025E94E00240F46009000295D
:1013A00019D0012F17D0022F15D0032F17D00020EE
:1013B000009000210198FFF7E9F90198FFF74CFD33
:1013C00000210198FFF7E4FDDD4D287806F008FACA
:1013D000032F0BD01EE00846FFF794FA04E00846FE
:1013E000FFF790FAD74804603570E2E7D648816984
:1013F000D6494C60D54940314C60D44980314C606D
:10140000D249C0314C60D2494C60D14940314C6026
:10141000D04981610198FFF7B5FD6421287806F075
:101420002DF9002802D0002003F019F9CA48CC4950
:101430000470CA4804700020C04308800098FEBDB4
:101440000021C848A3E70121C648A0E770B5C64DF2
:10145000B64C0026606828612862A06868616862EE
:10146000E068A861A8620221BE48FFF790FF012E44
:1014700012D00D2212029105AF48FFF7E3F8606821
:10148000761CC0436060A068C043A060E068C043B1
:10149000E060022EDEDB70BDFFF76CFFEFE710B5FA
:1014A000032001F0C8FB0321AE48FFF770FF0020C6
:1014B00001F0C1FB10BD9D4800688188828991427E
:1014C0000ED1C27B01895200914209D1827BC18831
:1014D0005200914204D14089002801D00120704778
:1014E00000207047FFB5914883B00668F07BC107C4
:1014F000C90F4018C0B2002400901CE00098049965
:101500006043400041180291039900254018019062
:101510000CE001986F00C05F02996422C95F5043DC
:1015200007F0B7F801996D1CC853EDB2F07BA842E3
:10153000EFD8641CE4B2B07BA042DFD87B49002026
:101540000A681FE00D9B002119540699095C0029C7
:1015500016D10124450010E0009B4B435E00049B24
:10156000F31856895B5FF700BE1B0A277B439E4238
:1015700001DD0D9B1C54491CC9B2937B8B42EBD8F7
:10158000401CC0B2D17B8142DCD8684900200A6887
:1015900025E00C9B002119540599095C00291CD1F8
:1015A000009B012543435C00039BE61812E0176A89
:1015B00044433C194B00F35E0C5D0A27E4007B4377
:1015C0009C4205DD0D9B5B5C002B01D10C9B1D54E7
:1015D000491CC9B2D47B8C42E9D8401CC0B2917B73
:1015E0008142D6D807B0F0BDF3B550488E460368A7
:1015F000D87BC107C90F4018C4B200201FE00021EA
:10160000724611544200009994465518002211E088
:10161000D96966468E5B0C277E43274657437F0079
:10162000EF5F0A214F43BE4202DA012671460E5493
:10163000521CD2B2997B9142EAD8401CC0B2D97BED
:101640008142DCD8FCBDF3B538488E460368D87BB0
:10165000C107C90F4018C0B2844600201EE0002117
:1016600072461154614641434A00009955180022C0
:1016700044000EE099690D270E5B0A217E43570056
:10168000EF5F4F43BE4202DA012671460E54521CF0
:10169000D2B2D97B9142EDD8401CC0B2997B814235
:1016A000DDD8FCBDFEB5214C244D2068C07BC107B0
:1016B000C90F4018C7B200202873FFF7F0FE20685A
:1016C0000126807BB6077843420031461A48FEF770
:1016D000B9FF2068C27B4169807B891809181648C8
:1016E000FFF7B1FFFFF7B2FE20683146807B7843F9
:1016F00042001148FEF7A6FF2068C27B4169807B4B
:101700008918400009180C48FFF76EFFFFF798FE94
:101710002068314602690848FEF794FFFFF793FE00
:101720002168887B4A69131801931FE08401000037
:10173000D01E00002400005E0000405E101C00006F
:10174000C4010000CC0100004001005500004053DE
:1017500000014053FF0F00007A0100007B010000F0
:1017600080010000A0080000400000520092C97BE8
:10177000511842008B180A18DD493046FFF7B2FEB7
:10178000102028702068C17B827B89184A0041693B
:10179000D84806F00AFF012028730020FEBDF0B5EE
:1017A000D54C054620680E46002801D1FFF7BEFD46
:1017B0002068C188827B49195200914202D90020D9
:1017C000C043F0BD002217E0C1888769891889B23B
:1017D000CB07BC4605D0490849007B5CB75C3F029B
:1017E00005E0490849007B5AB75C1B0A1B023B43D2
:1017F0006746521C7B5292B2AA42E5D32068C18848
:101800004919C1800020F0BDF0B5BB4C05462068E9
:101810000E46002801D1FFF789FD20680189C27BAF
:1018200049195200914202D90020C043F0BD002264
:1018300017E00189C769891889B2CB07BC4605D072
:10184000490849007B5CB75C3F0205E04908490054
:101850007B5AB75C1B0A1B023B436746521C7B52F8
:1018600092B2AA42E5D3206801894919018100207A
:10187000F0BD08784978090240189F4909684881F5
:101880000020704770B59C4C054620680E46002825
:1018900001D1FFF74BFD2068818883894A199A425C
:1018A00002D90020C04370BD006A2A464018314664
:1018B00006F07BFE2068818849198180002070BD78
:1018C00010B5FFF733FD8D498D48FFF7DBFF8B49DE
:1018D00002206239FFF7CDFF884922202239FFF725
:1018E00093FF86493E206039FFF759FF8248006820
:1018F000FFF7D8FE10BDF8B50520FFF703F8002567
:10190000804E7D4C012720693061306260697061D2
:101910007062A069B061B06202217B48FFF737FDB9
:10192000012D17D00D22120291057148FEF78AFE93
:1019300020696D1CC04320616069C0436061A0697B
:10194000C043A0617148022D0770DCDB002001F06C
:1019500072F9F8BDFFF70EFDEAE730B5012300216B
:101960009B07FF300A46213024245443E5182224E3
:101970002C5F521C6118D2B2212AF5D3CA17D20E9D
:101980005218634B5211994200DB19469A4200DB10
:101990001A460183428330BD10B506215A48FFF72D
:1019A000F6FC5948FFF7D9FF5A485249408F103981
:1019B00008830021022001F0FDFA0121022001F03C
:1019C000F9FA10BDF1B5012082B04A4D87070090A9
:1019D0000024474E08350321052001F001F80D21B0
:1019E0000902284606F047FE0D210902304606F09E
:1019F00042FE4948007805F0F3FE0298FFF7C2FA6C
:101A000045486421007805F039FE002802D0002006
:101A100002F025FE092C1DD900225100705A7B5A74
:101A20008C46C01A6B5A01D4014600E041428B42F9
:101A300006DA0A2C04D0002800DA404261466852D7
:101A40000D20C001521C8242E7D342003946304685
:101A500006F0ABFD641C6E2CCBD30021022001F0FC
:101A6000A9FA0098FEBD10B52C480024045F23009D
:101A700007F049FD0705080B0E1114171900FFF7B1
:101A8000DFFC10E0FFF7DFFC0DE0FFF7DFFC0AE012
:101A9000FFF705FD07E0FFF713FF04E0FFF72BFF5B
:101AA00001E0FFF779FF0720FEF72CFF0121164820
:101AB000FEF76CFE042C08D0134800214030037858
:101AC000A030427D8020FEF7D9FD15490120087322
:101AD00010BD10B512480921074A01701268012192
:101AE0001160002101730320FEF70CFF10BD000000
:101AF0000000405E905B0040840100000A9A0010E4
:101B00000F02000040000052A00800007B0100000E
:101B1000FF7F0000A0090000C40100008001000058
:101B2000101C00006B4870476B487047694870474D
:101B30006A49002008607047F8B56648654960301A
:101B40000746002249780646203F403E1546552963
:101B50007ED062495523091D0D705E4960244B708B
:101B600003230B700D73ED230B8240234B8206235E
:101B70000B754D7504238B75CD7501230B764B7654
:101B80008B76CD7632230B774B774C840446A0348A
:101B9000E3750123337103237371F5718D77B5718B
:101BA000BD54521C202AFBD34D4901604160816025
:101BB000C160016141618161C16101624162494964
:101BC0008162C162016341638163C16301644164F5
:101BD0008164C16444490165444941654449816562
:101BE0003D48102392384377642181771421C177CF
:101BF0003C27203007700721017401460222203162
:101C0000D2430A7035494570091D4878608002202A
:101C1000207620703222627020716371A0710320DF
:101C2000E0718C20208227750520A074C01FA0754C
:101C3000401060750889342106F021FDE074677654
:101C40001420A076E076277765770120A07700E062
:101C500003E0E0772048123807701E48807F042890
:101C600000D1B5711C4820217E30017034214170B3
:101C700020490A8D82824A8DC2828A8D0283CA8D52
:101C800042830B46203302461C7C203294705B7CDE
:101C9000D3700A8F828400228B18203384189B7C97
:101CA000521C2377062AF7D3002104E04A001218B9
:101CB00015715571491C82788A42F7D8F8BD002009
:101CC00006490246091D0B18401CC0B21A730C28A5
:101CD000F9D37047201D0000521E00000C1C0000AC
:101CE0006666666611111111207400007201100001
:101CF000CDCDCDCDC00200100A04120E334B12041C
:101D0000090618401043090D08437047F0B59C467A
:101D100093046446DB0CA4052343059C8500E4057D
:101D2000A40A23432A4C88006659FF30813033507F
:101D3000082901D2002000E004200126130CB6037C
:101D4000B34201D1002300E002235204D60F420027
:101D5000891A1E4389000F228A4007466359583763
:101D6000BE46DF598E40974337431E467346F750B1
:101D7000675903466033FE58BE46059F9643FF04ED
:101D80003F0F8F403E437746FE50645968302358DA
:101D9000934362469204120F8A4013432350F0BDCE
:101DA0000D239B06C91801604260704710B592046C
:101DB000D20C9B05029C1A43E3059B0A1A430D2390
:101DC0009B06C9180160426010BD00000FF000FFC3
:101DD0001C9C001008B50090FEE738B50321890768
:101DE00001224118D203914202D300200090FEE765
:101DF000904C002121706170A160606008468E499E
:101E000001228300CB581A61401CC0B20428F8D3C9
:101E10000021012005F04CFBA07038BDC208D200A3
:101E2000821A1206854B920DD218C008515C4000F0
:101E30000818C0B2704710B57E49002014317D4C9F
:101E40000860E078182148437D4940188268002ADC
:101E500004D02169E0689047002806D005F0ACFA6C
:101E6000A07805F0EBFC05F0ACFA10BD72490868EB
:101E70004069C0070AD00968012088616D491431A2
:101E8000087008686F49884200D1D4E770476A49F2
:101E900048684069C0070AD04968012088616549DF
:101EA0001431487008686749884200D1C3E7704719
:101EB000614988684069C0070AD089680120886143
:101EC0005C491431887008685E49884200D1B2E7E5
:101ED00070475949C8684069C0070AD0C9680120DD
:101EE000886154491431C87008685649884200D145
:101EF000A1E77047F8B54F4C054620780A2802D371
:101F000001200090FEE76969CA0702D00220009014
:101F1000FEE7A268891801229202914202D90320A9
:101F20000090FEE718214843454E0A46801929468D
:101F3000FEF788FBA1686068182240182178514399
:101F4000891908616A69296906F02FFB2078401C0D
:101F5000C0B220706969A2688918401EA160F8BDEE
:101F600018B40C4633490978814202DC0420009001
:101F7000FEE71821484332490B58002B04D0204675
:101F800001B010BC1146184718BC01207047F8B5C5
:101F9000284C0546207816460F46A84202DC04204D
:101FA0000090FEE76078002802D005200090FEE750
:101FB000E570E7602661A07805F012FC1820454323
:101FC0001F4831462D186A68384690476421A0782A
:101FD00005F054FB002802D006200090FEE71549CA
:101FE000002014310860EA68002A02D031463846E1
:101FF00090470020F8BD0F481821C0784843104989
:102000004018006970470B481821C07848430C49B4
:1020100040184069704710B50B4B800018584018A5
:102020001146FEF7ADFA10BD074A8000105840185F
:1020300070470000A00100001C9C00103C9C001098
:10204000E0090000010101012C9C0010F8B5FF4FD0
:10205000FD483426F86020257E823D750024214607
:102060003420FFF7DBFE39190872C107C90F401889
:102070006100641CE4B27852042CF0D37320400158
:10208000388201207875F14CF1481834801CE060EA
:10209000362060822575002739463420FFF7BEFEC2
:1020A000E1190872C107C90F401879007F1CFFB2FF
:1020B0006052042FF0D3BB20800120820027677577
:1020C000E448FFF717FFE44C0121A060DF488907CF
:1020D0002C38016086800121C18073214901418132
:1020E00007810721017345738173DA49C673077647
:1020F000183101613431416108467C38FFF7FAFE3E
:10210000D24A2060103A11461C39FFF729FFCF4808
:102110007321490130300180D0494180D04981800C
:1021200073218901C180078189104181BB21890107
:102130008181032181730821C173C5740675C54867
:102140001838FFF7D7FE6060F8BDC04A10B5103AE6
:10215000C14811461C390068FFF719FF10BDBB4B81
:1021600010B53033187459749A74BB48002219465C
:102170004068FFF70CFF10BD10B57320B349400154
:102180000882B54800228068FFF701FF10BD10B536
:10219000AE49B3480882B04800228068FFF7F7FED6
:1021A00010BD10B5A949AC48002218318068FFF76E
:1021B000EEFE10BDF0B585B00446FFF71CFF0546E6
:1021C0000120A9B20027C007081803910290207DC2
:1021D0003946FFF723FEC107C90F0818C0B20190A6
:1021E000E07CBE004006410C019801439D488059A7
:1021F0000164FFF708FF039941189A48805941602C
:1022000098490298895988609649002089594864FC
:1022100001260096014622883846019BFFF776FD8D
:102220000096628801213846019BFFF76FFD0096FA
:10223000A28802213846019BFFF768FD0096E288DC
:1022400003213846019BFFF761FD00962289042196
:102250003846019BFFF75AFD0096628905213846F2
:10226000019BFFF753FD0096A28906213846019B8A
:10227000FFF74CFD7F1CFFB2042FA8D30F2161563E
:102280006868FFF739FD68600E2020564142E86813
:10229000FFF732FDE860112161562869FFF72CFD38
:1022A000286110216156A869FFF726FDA861122058
:1022B00020564142286AFFF71FFD28626949002025
:1022C00082008A581660401CC0B20428F8D301204E
:1022D00005B0F0BDF0B5044687B000200290FFF7CE
:1022E0008AFE0190607D0021002808D0E068242249
:1022F0004280472241600270082242700292019897
:10230000002581B2081D05900120C00708182F463E
:102310000490217D6019007A4906490C084351490F
:10232000AE00895908644F4900208959486401204A
:10233000009068000390235A228A00212846FFF764
:10234000E5FC012000900298E16838180A18638AB9
:1023500001212846FFF7DAFC03984249205A89599F
:102360004000C01987B2059848603E4904988959D1
:1023700088606D1CEDB2042DCBD301983A49016001
:102380000020384901228300CB581A60401CC0B29B
:102390000428F8D3012007B0F0BDF0B50024817BFC
:1023A000A44627468E462BE0002319461A46067B94
:1023B00015E005692D578D4008312A43C9B22029FF
:1023C0000AD365464169AD004959914211D1614630
:1023D000491C8C4600210A465B1CDBB2641C9E42F1
:1023E000E7D800290AD061464369890059589142CB
:1023F00001D00020F0BD6146491C8C467F1CFFB215
:10240000BE45D1D80120F0BD00B5FFF7C6FF0028BA
:1024100000D0012000BDF0B585B00C460546FFF7A1
:10242000EAFD02900120607200272773287BC01C00
:102430008008E072A97B687B06F021F9A072A97B75
:102440004843697B884211E0905B0040FC0A000031
:10245000FE3D0040F49C0010B80100009015000003
:10246000F02300001C9C00100010C02305D0081AA7
:102470002072A07A401CA07200E027720298002609
:1024800081B2081D04900120C0070818019603902E
:10249000E87B3146FFF7C2FCA1190871C107C90FDB
:1024A0004018A0550020AD49B700C9594864E888D4
:1024B000009029680198AB880A1800213046FFF780
:1024C00025FC287B01282FD0A17A2A894143480680
:1024D000A15D400C0843A149C9590864012000903E
:1024E0000146A35D3046FFF711FC9C490498CA5988
:1024F0005060CA5903989060A05D761C4200019814
:10250000F6B2101880B20190042EC1D30298944AFA
:102510000260002001228300CB581A60401CC0B228
:102520000428F8D30120D3E6697B6A894906A05DB7
:10253000490CCFE7F8B517460C46064600250120A2
:102540000090607BA17B7B5D401A801958436189B4
:1025500040004218E8B20121FFF7D8FB6D1C042DA2
:10256000EDD3FA7A7D4D10467243801886460023DB
:1025700010E091008C460020990080316669674622
:10258000F6598700EF597E50401C0428F6D35B1C97
:10259000DBB2521C7245ECD3F8BDF8B517460C46B9
:1025A00006460025012000907B5DA17B18464B4329
:1025B0006189704340000A18E8B20121FFF7A6FBC9
:1025C0006D1C042DEED3FA7A644D104672438018C8
:1025D0008646002110E093009C4600208B0080334B
:1025E00066696746F6598700EF59FE50401C04287B
:1025F000F6D3491CC9B2521C7245ECD3F8BDFEB5E6
:102600000C460546FFF7F7FC0746287B0321012807
:102610007ED0607A0128207B1BD0401CC0B2207382
:10262000AA7B904274D222462946FFF783FF0020FE
:1026300001224A49BDB2D307C4002C19E618840010
:102640000F59BE600C592260401CC0B20428F3D35D
:102650007EE0401CC0B22073AA7B90423DD8012886
:1026600033D1207A0028A07A01D0401EC0B20026C3
:102670004006400C0290B8B2019001200090A35D8A
:10268000287B2A89434300213046FFF73FFBA15DA9
:102690000298324A0143B000125811642F4918229F
:1026A0000958AA564A64297B2E4BA25D0904194396
:1026B0000A43F1007A50019A5118284A091D10580E
:1026C0004160761CF6B2042ED7D3207B2246401EF2
:1026D000C0B22946FFF761FF29E0207A002839D0EF
:1026E00000202073022060720026A05D1B49B2000A
:1026F0008958FF3001300864224629460020FFF740
:1027000019FF01200090A05D297B0346484300E0AB
:1027100020E0A17A491E484329894000421800213F
:102720003046FFF7F3FA761CF6B2042EDDD3002014
:1027300001220A49BDB2D307C4002C19E61884004F
:102740000F59BE600C592260401CC0B20428F3D35C
:102750000020FEBD61720120FEBD00001C9C001027
:102760000010C0230010402F10B504F025FEFA48D9
:10277000407805F063F8F9490F20C86204F021FEA3
:1027800010BDF0B50446A034A57D60266A00765CD5
:10279000F34BAD001746002E07D0022E03D0042EB7
:1027A00003D0052E0DD14B6B0BE0E47A022C08D13F
:1027B000CB699021415E481C03D02A46002900D1F4
:1027C0003A46E8498020C8622804E74C801C6061D2
:1027D000552011040006891C4161190419438161C7
:1027E000A16101210160F0BD70B5E04D2C4680343F
:1027F000A66C04F0E1FD0120552109068862208CB9
:1028000002280BD0032809D0062807D0072805D0B6
:10281000002001F024FF04F0D4FD70BD1020205EE4
:10282000002810DD401E2082208C062803D10021C4
:10283000022005F0D8FD284604F094FC31462846D5
:10284000FFF79FFFE7E70320A035E872C248007852
:1028500004F0F4FFDFE770B505460446203504F0C8
:1028600028FDC0346079A881012070BDF3B581B026
:102870000E4601980124002521467F222E27A030F4
:10288000330006F040FE0604080A0D081012C57455
:10289000027581740CE0C774FAE7C274857407E0AE
:1028A0007B23C374F4E70224F1E7002001F0D7FE94
:1028B0002146019800F04BFFFEBDF8B5054600200B
:1028C000085E0C46C00F01F0CAFE20882F46404229
:1028D000E080A07A8037388460883882E088686435
:1028E0002089F8832E46E07AA0363072207BB072C1
:1028F0002020005D3073207D7073607D3077A17D76
:10290000C52041552079B874E07EF073207EB883ED
:10291000FFF708F9407E7072FFF704F9C07D387642
:10292000012140204153A07EFE21401C0840B0758B
:10293000607E70752069B86300207077388C02283B
:1029400029D0032808D0062806D007281ED000204A
:1029500001F085FE0120F8BDFFF7E4F82030007992
:10296000002808D07F8B607E3946C019401E05F0D4
:1029700090FE78437075E17D7C48FFF777FF7B48D8
:1029800000F06AFC284604F094FCE3E70021774855
:10299000FFF76CFF08E002217448FFF767FFE0884B
:1029A00080087077002038762846FFF754FFD1E77B
:1029B00010B501466E4805F062FE420A67490120E3
:1029C000403948606548002303620F23C3620261F7
:1029D000FF224261826103224A600421016210BD2C
:1029E00070B5624C0300A03406F08DFD0C6E5A4A9F
:1029F0006E6E686A076E6E40376E5C4DFFF792F838
:102A0000807F00F07DF9FFF78DF82030407929466E
:102A100000F0D6F9574E7078FFF7CAFF284605F048
:102A2000A9FC0025FFF77EF820308079002806D029
:102A30001025FFF777F82030807900F0FCF849483E
:102A40001021816305634C4A1278002A01D001638A
:102A500000E005637078A07739E0A07F0D46A842BA
:102A600035D02846FFF7A4FFA57730E0CAB2292168
:102A70004906486BFF231B0218401043486326E0B9
:102A80003A48FFF71AFFFFF74DF8374A0021403A5E
:102A900040308B00C3581360491C0C29F9D316E051
:102AA000324DC82041510220E0720E46284604F003
:102AB00059FB31462846FFF764FE08E0012000E09C
:102AC000002000F05DF802E0002001F0C8FD0120C8
:102AD00070BDF8B50021084604F0EAFC1E4C002148
:102AE0002070084604F0E4FC6070204C012522466A
:102AF00040322046158004238030838302234384A0
:102B00008384158605800F26968786812746204672
:102B100000F075F9204605F02DFC00F0AAF900F050
:102B200041F80121204600F012FECC222146384611
:102B3000FDF788FDA91E5520000681620749CE6277
:102B4000084A0E49403A116206498022CA620022B0
:102B50000A630562F8BD0000C40100008000005255
:102B6000CDCDCDCDC003005500010055440B000074
:102B700040D2DF03101C00007B0100003343000043
:102B800010B50C46002803D0084600F08BF810BDA5
:102B9000FEF7C8FF2030C0790028F8D0204600F0AA
:102BA00067F810BD0249014808637047E00F3D0017
:102BB0004002005570B5FEF7B5FF55221206516868
:102BC000AD4BC902C90EAD4C4030002901D11D6B7F
:102BD0002570405C24780019186306204143A848FA
:102BE0008B00C3581363491C8B00C3585363491CA3
:102BF0008B00C3589363491C8A00A24B82581A6009
:102C0000491C8A0083589F4A403A5361491C8900F5
:102C1000405890619C491020886370BD10B5974C56
:102C20000320616805F0DFFB60689749401C606025
:102C30001020886310BD022805D0032803D09348D4
:102C40000021886570479248FAE78E4B10B5002244
:102C5000403394000C591C61521C142AF9D3894A40
:102C600000218B00C3581363491C0C29F9D310BDF4
:102C700010B529214906CA680C239A43CA6002226A
:102C8000844B012807D0022805D0032806D0002055
:102C900001F0E5FC10BD5A607F4801E05A607F48B2
:102CA000086210BD70B529225206D1680C23194361
:102CB000D160032577490123002808D0032803D0D9
:102CC000002001F0CCFC70BD4D60136270BDF72098
:102CD000C00110626F4C0020403420601F266660E7
:102CE000A6604D60F524E4011462F124E40114624D
:102CF000136208614861886108624862886270BD39
:102D0000F1B5002082B0019005460746441E0090B0
:102D1000FEF708FF06460298603600280DD001280D
:102D20000ED002280FD004280AD0002001F097FC12
:102D30005B480078012809D00DE025460194F7E7AB
:102D400025460094F4E701940094F1E75548007893
:102D5000012833D000254C48C038B9000918019A21
:102D60000A64009A0A657F1C032FF6D3454A0021A6
:102D70008B009B181D60491C0A29F9D3002155239B
:102D80001B068A00B458D2181463491C0A29F8D3C8
:102D90000A218A00B35812189363491C1429F8D3E6
:102DA00088003258384840380261491C8A00B258BD
:102DB0000262491C890071584162FEBD3A4DCAE762
:102DC00070B50C460546062801D2012000E000201F
:102DD00001F045FCC02335481B59E90042581B024D
:102DE0001B0A1A4329235B069A630818A034E17F63
:102DF00040684907490F08432649086070BDF0B58F
:102E00002B498D6B002293005B181B68521CED1A36
:102E10000E2AF8D30E68274F044629220346803431
:102E20005206A033BE421BD1CE6B234FBE4217D1F8
:102E3000002D14D14D68DD778D68CE682D043602E3
:102E400035430E69354325644C69C030E4B20471E2
:102E50008869D8731463D87B000208305063F0BDD2
:102E60004020106315485063154820640720D87728
:102E7000F0BD002016E70000C0010055C8010000A9
:102E8000A4BA001080000055C0030055B52B0010F7
:102E90001D2C001040000052A57F000005780000A6
:102EA0007A0100007B010000EEEEEEEE789D00104E
:102EB0008007012010041020130674190840000038
:102EC00020202000F0B526492448086225480168E2
:102ED000090A090201600368FF21090203228B43EA
:102EE00092039B18036004680B029C43150264194B
:102EF000046004682602360A8C05361906604668A6
:102F0000360A3602C036466046688E43B6184660BA
:102F1000466801279E43BF05F6194660466836029B
:102F2000360A36194660C6688E43B118C160C1685A
:102F300099434919C160C1680902090A0919C160A8
:102F40000169090A0902C031016107494017086097
:102F50000549064880390860F0BD00000000C080C7
:102F600000ED00E000E400E080E100E0E1F00100BD
:102F700001228105D203801A8003000E8200AD4831
:102F8000890D8058002800D04018704710B5C2B293
:102F9000A84B000A4400203B1B5B934202D8002050
:102FA000088010BDA34C8000603C205880189A1AFD
:102FB0000A8010BDF0B505220124042684259E4B0D
:102FC0001207012807D0002702280ED004280ED0AF
:102FD00008280ED10FE0994841601660002000BF1C
:102FE000401CC0B23228FAD301E0002903D015609A
:102FF0001C700120F0BD16601F70FAE770B5904894
:10300000466A0021C943C1628D4C403C6068C007DC
:10301000FCD08C480078122815D001210220FFF73F
:10302000C9FF864D3046297800F018F8022020604C
:10303000012020600C2020628348A0628348206227
:103040000020287070BD0021E8E770B57B4C00259A
:103050006C20656000F03AF8257070BD38B57A4D87
:10306000687829780002084375494039496AFF2287
:103070008900890C0132541A022C0CD024DDD100B5
:10308000411A11290BD2FEF71AFE284600F03FF82C
:10309000FFF76AFB18E0214600F08AF814E00121EE
:1030A0000903884210D26946FFF770FF00280BD051
:1030B00069460988A41EA14201DD69460C80694663
:1030C0000A88A91C05F071FA012038BD30B58421A9
:1030D000052212071160012313610024146258496C
:1030E000022540390D600B600D610B617F231B02CF
:1030F0001843D0610C200862534888625348086224
:103100004F48611EC162C462C105016230BD70B525
:10311000417802780B0249491343496882780C468A
:10312000C0346382A2820124E4021B1B0124002B11
:1031300002D0102B3AD103E060314C708C7035E036
:103140001021404D042A297006D0032A0ED0022AED
:1031500016D0012A1ED029E00279C17812028918FE
:103160008AB2411D1046FEF78DFB1CE00279C17842
:10317000120289188AB2411D1046FEF77AFB12E04E
:103180000279C178120289188AB2411D1046FEF7F1
:103190003BFB08E00279C178120289188AB2411D0E
:1031A0001046FEF7FCFA002800DB2C73012070BDEE
:1031B00038B50446092080010025201A662805D26A
:1031C000FEF7B4FC0019FF3811381EE00121090395
:1031D0008C4204D2A0B26946FFF7D8FE15E01C4825
:1031E000621A824209D215488C424368986B01D01A
:1031F00015460AE0002B08D138BD0120C003201A73
:103200008842F9D2A0B2FFF7B3FE0028F4D04319E8
:103210000B48042101600A49022240390A61012257
:103220000A61052109078A6083600A490160491E15
:10323000016038BD089E001024010000D00100008C
:10324000C0000050101C0000100C0000090000011C
:10325000C81C00000900FFFF014610B5A0310A4656
:10326000497B102911D006DC002903D0012901D0A7
:10327000032906D110BD112907D0122905D0132921
:1032800003D0002001F0EBF910BD49003F4B20397D
:103290005B5C13773D4A083A515A8030C18310BDB8
:1032A000F8B50F46014604468031A034CA8BA37A94
:1032B0008E6B5A43550000F00BF835480661207FAD
:1032C0006D1E290408433902084332494863F8BD9A
:1032D00070B50446A0340025617B2E4610291DD010
:1032E00006DC00290DD001290BD0032906D108E006
:1032F000112913D0122911D013290FD0002001F069
:10330000AEF9627B0120811E224C002A10D0012AD6
:1033100014D0032A19D0002D20D020E01B4A4800E9
:10332000083A2038165E88001B4940380D58E8E7F7
:10333000A063A163921CFF2AFAD970BD0021A0638B
:10334000A063891CFF29FAD970BD0022A063A06385
:10335000A163A163121DFF2AF8D970BD002001F0FE
:103360007EF90020720007E0410849006B5EA3630C
:10337000695E4942A163801C8242F5D80021FF2882
:10338000EBD8A163A163801CF9E7000028A000101E
:103390000002005540000055D80100000120704790
:1033A00010B5827B042A01D0022A21D000231522E5
:1033B0009206046894614468D4619360037B447B03
:1033C0005B1E1B04641E2343D3600389847B1B04A0
:1033D000234313614389807B1B0403435361012012
:1033E00090621060002902D050680028FCDB10BDFC
:1033F0000123DCE70121152080068162016270470C
:10340000F3B583B0FEF792FB0746FF370546333727
:103410003E4603986436002401280BD0022809D0C8
:10342000032807D004286AD0002001F018F90120F1
:1034300005B0F0BD3848049940690190374805F05F
:103440001EF90090E06BFF35029021356C742C74EE
:10345000FF226421384605F0E9F8FF220C213046AE
:1034600005F0E4F829252E486D06286228622D48CB
:1034700004620F21C1622C4E3460AC602B48E063C3
:103480002748801C2862002000BF00BF00BF401CEE
:103490003228F9D3264A2A6201276F621E48009912
:1034A000416100998161072101610399032912D0CB
:1034B00001990498FDF704F82F626C620298E063AA
:1034C0001C483060174804210162FDF735F91A489D
:1034D00047708770ABE70499019B491C0BD02A62A7
:1034E00030BF2C62512109060C60436183610721C2
:1034F0000161AF60E0E70E4909312962F1E70A484E
:103500007D21090104602920400681610321416178
:10351000012141618BE7000000E000E050C30000A2
:10352000A47B00008000005200E100E0F3000000F6
:10353000A67F0000E120000000090000FEE710B5B2
:10354000FCF7CAFF10BD10B503F06BFF0F4B104A1C
:103550000021104804F077FA0F4B104A0021104860
:1035600004F071FA03F080FF10BD10B5FFF7B1FA57
:10357000FCF7ACFFFFF73EFFFFF767FDFFF7A2FC8C
:10358000FDF7C4F8FFF7DFFF012010BD9C0E00001F
:1035900009640000410800104C1300000A2C0100CF
:1035A000D90B001003460A467047FEE730B50246C5
:1035B0000020924C014653569B001B195B684D003E
:1035C000AB40491C1843C9B21029F4D330BDFFB534
:1035D00081B00D4606461C4610210A9F039805F04F
:1035E0004AF83878B04254D87978B14251D3301A79
:1035F000C3B200202279E17803E09B1A0818DBB2FD
:10360000C0B29A42F9D9421E8A186679D2B296425D
:1036100004D8701AC0B2421E8918CAB2002D0AD04E
:10362000012D0FD0202A34D320281FD22021081AA0
:10363000C1B200201DE010282BD2102A00D30F2287
:10364000002124E0202824D2102A22D3102804D2DA
:103650001021081AC1B2002002E01038C0B20021C7
:10366000202A01D30F2212E0103A03E00021203873
:10367000C0B2203AD2B20AE02579A6684D43751946
:103680005E5D039D2E54401C491CC0B2C9B29042DD
:10369000F2D905B0F0BD10B504460B78002086B015
:1036A000A34207D9203C0E2C02D2610001208840A1
:1036B00006B010BD0B46009201AA02212046FFF77A
:1036C00086FF01A8FFF772FFF2E710B504460B78FA
:1036D000002086B0A34206D9103C102CE8D261002D
:1036E00001208840E4E70B46009201AA0121204610
:1036F000FFF76DFF01A8FFF759FFD9E710B50446A2
:103700000B78002086B0A34205D9102CD0D26100DE
:1037100001208840CCE70B46009201AA00212046F8
:10372000FFF755FF01A8FFF741FFC1E770B5044659
:103730000D464079E1784018401E04F0AAFF217838
:103740002970227942438818401E687070BD3EB5CA
:103750000122044601290AD0022911D0002000F0DC
:103760007EFF6946204600F00FF800203EBD684607
:103770000272002A02D007200190F2E70192F0E7DE
:10378000022069460872F9E7F3B583B003980F4643
:10379000A0300190407C097A88422DD017486946B4
:1037A0000C38FFF7C3FF0024154D164E02E02E2CF7
:1037B00000D100BFE0B211496A460C39FFF79EFF05
:1037C000286030600D49E0B26A460C39FFF77DFF92
:1037D000686070600949E0B26A460C39FFF75BFF28
:1037E000A860B060641C802CE1D30398B988803055
:1037F00041830198397A41744BE7000070A00010B2
:10380000E80100000002005510B501460120FFF755
:10381000C5FD10BD10B501460420FFF7F1FD10BD38
:1038200010B501460120FFF7EBFD002010BD10B5DB
:1038300001460320FFF7E4FD002010BD7047FF495B
:1038400022200870FE49362008707047F3B5FD4C01
:103850008700FD4881B0C0596568A16805F012FF76
:103860000090E16805F00EFF0146009805F024FB8A
:103870000646029805F032FC294606F02DF831463E
:1038800005F09AFF294605F0FDFE6060009805F0FE
:10389000E9FA04460D46304605F0E4FA0022EB4B07
:1038A00005F06AF922462B4605F0A8F904F094FFCA
:1038B000E549C851FEBDF3B58700E24CE24881B04E
:1038C0002838C0592568A16805F0DCFE0090E16841
:1038D00005F0D8FE0146009805F0EEFA064602987B
:1038E00005F0FCFB294605F0F7FF314605F064FFC3
:1038F000294605F0C7FE2060009805F0B3FA04469B
:103900000D46304605F0AEFA0022D04B05F034F9F2
:1039100022462B4605F072F904F05EFFCA492839A9
:10392000C851FEBDFFB581B0054603980A990768E6
:10393000049806680020085E05F0D0FBC14C2060AA
:103940000B990020085E05F0C9FB6060C048007854
:103950000028029804D0C2058120BE49C00502E0BB
:10396000C205BD49BD48A160E060B7482830415D4F
:10397000002915D028B239B20546FFF79CFF31B2B5
:103980002846FFF763FF206805F046FB03990860AF
:10399000606805F041FB04990860002005B0F0BDA7
:1039A00001214155A84A7F20C005A900283A50505E
:1039B00028325050384605F091FB2060304605F023
:1039C0008DFB6060DFE7FFB5A5491E460978A54A73
:1039D0004B00D15A8BB08C46089199188B882421C2
:1039E0004843A149069345180D981821695E00685F
:1039F000149F0A1A00D5421A00921A22AA5E34684D
:103A00009646121B01D57246A21A009CA4180C9A65
:103A1000D20720D062465143604308186146091915
:103A200004F037FE0D9908601A20285E0899484373
:103A300031686143401808991DE06431002800D5C1
:103A4000981A584364235A43801804F022FE3880A1
:103A500000200FB0F0BD594360430818191904F055
:103A600018FE0D9908601A20285E069948433168AF
:103A7000614340180699091904F00BFE30600622D4
:103A80000023AA5EFB5ED01A01D40146D5E7991A3D
:103A9000D3E7F3B5754885B00078002802D0002040
:103AA00007B0F0BD7248C27D0392007E029071485B
:103AB000018D01914F09408D3421009004F0DFFD0C
:103AC000064605986A490088039A05B20698008858
:103AD00004B21920085601994908002A2ADDBD427E
:103AE00004DAE81B50438011C0190AE0019A521B06
:103AF000BA4208DAD11B039A019851438911C919B6
:103B0000401A0F3004E04A1B504304F0C2FD401934
:103B100005B257491A2008565649029A498D490854
:103B2000002A27DDB4420CDAA01B50438011801913
:103B30000A3019E0BD42ECDB019AD21BAA42E2DA5C
:103B4000E7E7009A121BB24208DA911B029A00982A
:103B5000514389118919401A0F3005E00A1B50435F
:103B600004F097FD0019401D04B205980560069801
:103B7000046094E7B442F8DB009A921BA242EDDAAB
:103B8000F3E7FFB589B01D4614460E46139F09980A
:103B900005F0A4FA0290304605F0A0FA06902046FF
:103BA00005F09CFA0190284605F098FA05901298C5
:103BB00005F094FA0490384605F090FA0390BE425E
:103BC00010DD1298001B05F089FA0646781B05F0F7
:103BD00085FA314605F070F90546029905F0ECFDCD
:103BE00006990FE00998201A05F078FA0746A81BF5
:103BF00005F074FA394605F05FF90546049905F0B9
:103C0000DBFD039905F03EFD07462846019905F0C6
:103C1000D3FD059905F054FE06466800000E2FD02E
:103C20000121284605F066FA04463146384605F07B
:103C300053FE214605F040F91EE000005D01000042
:103C40005E010000F4010000781300000000F03F66
:103C50003E0100006666863F3333733F0000C0407C
:103C6000220100000C1D00003C060000780100004D
:103C7000D41C00008002000005F0CEF90DB0F0BDAC
:103C80002046FBE7F0B50E46054685B01446981B66
:103C900005F024FA049001900A99284668434943A4
:103CA0000746C81B05F01AFA00900B98801B05F018
:103CB00015FA039020466043381A05F00FFA0146C2
:103CC000039805F079FD07460099019805F074FD09
:103CD000394605F0D7FC02900B98301A05F0FEF932
:103CE0000190601B05F0FAF906460A98049F401BF4
:103CF00005F0F4F90146384605F05EFD054631460B
:103D0000019805F059FD294605F0BCFC012105F09C
:103D1000F1F901464000000E05D0029805F0CCF8FC
:103D200005F07AF93AE6204638E670B50022049E9E
:103D3000059D069C002802D01F2807D00CE000201B
:103D4000305E002800DA32801A8005E00020185E1C
:103D5000002800DA1A803280002908D0332905D1E2
:103D60000020285E002800DA2A80228070BD002012
:103D7000205E002800DA22802A8070BDF0B59446CB
:103D8000FE4A0026FE4C55693346E756CA5C3F188A
:103D90007F00EF5F5B1C5743BE195BB2042BF4DB63
:103DA0004200AA5E0B795A4396190523E718203F73
:103DB0001F22BA5617187F00CA5CEF5F5B1C57437F
:103DC000BE195BB2092BF1DB6046064130B2F0BD93
:103DD000FFB5064689B000200890EA481F460178E2
:103DE00030460D4604F04BFC04466843301A85B259
:103DF000701E01900A99701C0090002921D0E049A2
:103E000003228A56DD48921997B204228A564069E5
:103E100091190B04019976000A04865FD20B07966C
:103E20000099865A6A469681DA0B835A6A4613824B
:103E30007A00835A09046A469382C90B405A108358
:103E400038E07A7A39463046FFF798FF07900198B4
:103E50007A7A80B23946FFF791FF01466846818140
:103E600000987A7A80B23946FFF788FF01466846A3
:103E70000183C4487A7A00783946301A80B2FFF755
:103E80007DFF014668468182BE487A7A00783946CD
:103E9000301880B2FFF772FF01466846018206AA19
:103EA00003A904A86E4607C605AB69B260B2079ABB
:103EB000FFF73BFF0B98C0074CD06A461421515EB8
:103EC0001020079B105E994203DD0B46814200DA09
:103ED0000346AD4F99420FD183420DD1A000C019C6
:103EE00041681298002C016004D0A8480078401F57
:103EF000844252D10120C1E6A54A927A002A0BD011
:103F0000A14AA600B2189768019000979E4852688F
:103F10008059FFF7B7FE0AE09B4AA600B2189768DF
:103F200001900097984852688059FFF72AFE9949F6
:103F3000002801DA002002E0884200DB08461299DE
:103F4000002C086004D091480078401F844201D1C1
:103F5000012008900B9880074DD568460C21415EE2
:103F60001822079B825E994203DD0B46914200DADC
:103F700013468548C030994211D193420FD1A90010
:103F8000081841681398002D016004D07D4800781E
:103F9000801F854201D1022070E600206EE67C4C35
:103FA000A47A002C09D0AC002618B76800970192BB
:103FB00000597268FFF766FE09E01746AC00221848
:103FC00096680197009652680059FFF7DAFD72492A
:103FD000002801DA002002E0884200DB084613993D
:103FE000002D086004D067480078801F854202D108
:103FF0000898801C0890089840E67CB50E4624215D
:10400000154648436549654A095A82181D201056CD
:1040100030225043624AC9058418E088002900967E
:10402000019524DA5F4B01220021FFF7D1FE002821
:1040300001DB012807D1009601950122E088594B48
:104040001146FFF7C5FE574B00960195E0880A33ED
:1040500002220021FFF7BCFE002801DB02281DD14F
:10406000504B009601950A33E088022213E04D4B35
:1040700003220A3B0021FFF7ABFE002805DB0128E5
:1040800003D0022801D0032808D1464B00960195A1
:10409000E0880A3B03220121FFF79AFE7CBDF0B5C0
:1040A000ADB00020289001202690FDF73FFD074687
:1040B0003946FF310546213100202B9108744874A0
:1040C0006946087248723848FF3500783335002851
:1040D00074D03648002627903046242148432F4983
:1040E00023900C5AFF2002300442009411D0600645
:1040F00002D54820A0430CD16846017A24482A9171
:104100008078814206D3204640210843234A2399E0
:104110005052F3E12648044209D020492398401820
:10412000C07F4007800F02D02249002088552248D6
:1041300004420ED01949239820AA40181821415E44
:1041400021911A21415E2291C1889182807F26901F
:1041500030E160056BD51149239844181D20205685
:10416000302148430E49401882790648019201786F
:1041700029911046249104F082FA20E020060000E4
:10418000550100005E01000080A000105D010000EC
:10419000101C0000809D0000096300003C06000028
:1041A0003803000092A2001024010000A0020000C9
:1041B00048080000A01300000C0A00004DE2249AF9
:1041C00001465143019A511AC9B200280AD0FC4A4B
:1041D0001278D21E904205D0002903D02998C01E23
:1041E00081420ED16169F748002908D00121009C65
:1041F00089028C4320210C432399445215E001206D
:1042000009E0F24AF049127860698918097DED4B9E
:10421000884202D2401C606170E10121009C890249
:104220008C4320210C4323995C5201202690E549C0
:10423000239841181D200091085630214843E44935
:1042400041180A200191085EC1B22891E1050BD402
:104250000199097B490707D4DC49DE4A09785118DE
:104260002031897A884243DC22AA21A93046FFF70F
:10427000C4FE2C9001990620085ED7492990097840
:10428000249104F006FAC1B2249A0B4629985343AC
:10429000C01AC2B22C98002821DA0198007B40078E
:1042A00011D58800CD49401827994068497D0841BB
:1042B000CA4921909000C031401827994068897DF3
:1042C0000841229006E001982821415E21912A218F
:1042D000415E2291E00512D5022026900FE027983A
:1042E000417D2198084121902798817D2298E7E718
:1042F00001982821415E21912A21415E229122A923
:1043000021A8FFF7C6FB2198002801DA00202190A0
:10431000B348219A018D914201DC491E21912299D5
:10432000002901DA00212291408D884201DC401EE3
:10433000229001984169A54800784200A248805E19
:10434000091A09114000081800B220A98882FF2824
:1043500000DDFF20888200994969012917D0009962
:104360008A890A8200990A898A810099CA894A82BF
:1043700000994A89CA810099219A4988511A009A5C
:1043800011810099229A8988511A009A51812199A4
:104390000AB200994A802299009B09B29980A3062B
:1043A00008D5009B1A83009A51830099C880009910
:1043B0002698887783492398182240182490825E93
:1043C0002199531A1A21415E22985B43081A4043EF
:1043D000181829902698012813D17C4B7A481B780D
:1043E000C01820308079299B4043984209DB2498EB
:1043F000C07F022801D0062803D1002021922291FB
:10440000299000202390200701D510202390A0069A
:1044100002D50421239832E072480078002803D0A6
:1044200069490220087602E067480321017625A841
:10443000009022AB21AA21463046FFF7C4FA694812
:104440000078002803D06848007800280BD0249812
:1044500022AB014618311A300091019021AA214661
:104460003046FFF75FFA594860490078400040182D
:10447000008929994043884203DC23980821084396
:1044800023905B488178002958D145E0002200E064
:10449000289A6B46197A0C23594309180A812399E3
:1044A000022211436B461A7A0C235A431218917256
:1044B000E10501D5022200E001226946097A0C23B8
:1044C00059430918CA726946097A5943081806738C
:1044D0006946087A401C0872249921980883249917
:1044E0002298488320A82499808AC88024982699F5
:1044F00081772398022108432499C877761CF6B265
:104500000F2E00D2E8E53B49087900283CD0344A18
:104510000020138D02AA33E02399490702D5C179FF
:1045200000290BD02399C90602D5417A002905D06C
:1045300023990907D0D5007A0028CDD12A990C20DB
:10454000414302A80918219A4A806A46127A0C232C
:104550005A4312182299918020AA1421515E6A466A
:10456000127A5A431218D180002991D18EE70C2477
:104570004443A41866889E1B761E401C6680C0B209
:104580006C46247A8442F2D84879002811D0144A23
:104590000020538D02AA08E00C244443A418A688E6
:1045A0009E1B761E401CA680C0B26C46247A8442B4
:1045B000F2D8C87800282CD0002002AB25E00000FB
:1045C0005D0100003C060000841C00002201000088
:1045D00038030000481C00005E01000080A00010AD
:1045E0008002000054010000410100000C1D000089
:1045F000C81C0000101C00000C214143C9184A8847
:104600008C884C80401C8A80C0B26946097A8142FD
:10461000F2D8694600200A7A1AE003460C214B437F
:1046200002A959184B882B808B886B80CB88AB8074
:104630000B7AAB718B7AEB71CB7A2B72097B697237
:104640002B992B9B097C401C491C1974C0B20A355C
:104650008242E2D8FF203130385E2DB0F0BD002814
:1046600000D1FEE770470000FCB5342001904148BE
:10467000362500783E4F41003F480818408A6C01BB
:10468000009000203B4E41003678CA190023B64600
:1046900076001946B44605E04E00965F002E00DD18
:1046A000F3184919A142F7DB00998B421ADB324912
:1046B00066467618F6887144897B5E430E41B6469D
:1046C00000210DE04B009C46D35E002B07DD7646B3
:1046D000734501DB9B1B00E0002366469353491999
:1046E000A142EFDB401C0199C0B28842CAD3FCBD95
:1046F0007047B9E7F8B51E48342470380090202080
:104700008646382084461B48007841001A4808181D
:10471000C78A0020614641434A000099531800218E
:104720000A4655005D5F002D00DD6918521CD2B2AB
:10473000A242F6D3B94216DB0E4A0F4D167872002C
:10474000521952894A43A919097C0A4100214E0095
:104750009D5F002D03DD954201DBAD1A9D53491C81
:10476000C9B2A142F3D3401CC0B27045D2D3F8BD48
:10477000003E0040220100002C1C0000FE48FD49C4
:104780000160FE49C160FE490161FE494161FE4987
:10479000C161FD4980318161FC49CA88028509896E
:1047A00041852021203041743421817404214175D8
:1047B0008175F74836218180F64901607047F44AD7
:1047C000ED4806CA82604160F349F44B09784A001B
:1047D000D21892888285F24A1288C285F14841181F
:1047E000E5488A792030C27409790175EE49097D5E
:1047F00001747047F0B51446E9B08E468446002235
:1048000030201546454360462B18187BC00720D042
:104810005E89570056A8C65397003AA85E69C651EC
:10482000D6000AAF9869BF19D96903C722A9186AC7
:104830008E195F6A81C699785CA88154D97862A87C
:1048400081546046415D5FA88154597865A88154C0
:1048500003E00020530056A9C852521CD2B20C2AC1
:10486000CED3714600208A780CE083007146591837
:104870004B7946AD5B1E2B5409794EAB491E19543A
:10488000401CC0B28242F0D800216EE04EAB46AD73
:104890005E5C685CB446B04265D0654656AB6D0060
:1048A0004600AE469F5B5D5B7F199F5300267546B1
:1048B0005E533AAB66468700B600DD599E59AD1986
:1048C000DD51C3009E460AAD7544664628CDF6000C
:1048D0000AAFBF190496C0CF9E197D410AAF774435
:1048E0003E607D60734622ADEB181F685D68049ED4
:1048F00022AB9B191E685B68BE195D41734622AFEF
:10490000FB181E605D605CAD63462E5CEB5C9E42F6
:1049100000D22B5462AB65461E5C5D5DAE4200D298
:104920001D545FAB66461D5C9E5DB54200D91E54AA
:1049300065AB66461D5C9E5DB54200D91E54481CA1
:10494000C0B246AB4EAF0CE01E5C7D5CAE4201D106
:104950005E5C1E543E5CAE4201D15D5C3D54401C29
:10496000C0B28242F0D8491CC9B28A428ED8002512
:1049700025808E4860802846632656AB3AAA4100BF
:10498000595A00290BD02788B94201D921800646FF
:104990006788B94203D2618081005158A160401CF0
:1049A000C0B20C28EBD3632E51D0B000175862A8C8
:1049B0006760805DA0735CA8805D207365A8805DE2
:1049C000E0735FA8805D60736B48FB17203009902F
:1049D000407C3A462946089303F097FD0290F00088
:1049E00003910AA906900918634E03C9328D2B461C
:1049F00003F08BFD039B029A03F09FFD00B220821F
:104A00000290009009983A46807C2946089B03F062
:104A10007CFD07460791069822A9091803C9728DE3
:104A20002B4603F072FD3A46079B03F086FD01B268
:104A300061820098002801DA258205E0308D029A13
:104A4000824201DB401E2082002902DA658269B0C1
:104A5000F0BD708D8142FADB401E6082F7E7F0B551
:104A6000534B00241D785E7827E02F19BF00FF18F4
:104A70007F798F421FD12C1964B2A500ED1806264C
:104A8000AE5F964200DAEA80002C13DA9C781E2C86
:104A900010D2A400E418E2809A789200D218107123
:104AA00098788000C01841715878401C58709878E8
:104AB000401C9870F0BD641CE4B2A642D5D8E5E76E
:104AC00070B530256943C4683039611804890825F8
:104AD0005443E418CC800024E4430C8101248C81ED
:104AE0008A700A700A71CB704B704B71455F5E0023
:104AF00055436D004068AD19405F2E4D920052192C
:104B00004861526805465543EA178D61CA619A00AB
:104B1000294BD21852685043C2174A6208624C812E
:104B200070BD00222249012803D0887808704A709D
:104B300070470A70FBE7F0B50446A9B000200C905E
:104B4000207A214620311D90887C0025821CD6B217
:104B500022681018C01C269060692190206911906D
:104B600013488570487C2590887C24900F2189010A
:104B7000206823E0902800408002000038030000F5
:104B800078050000CC05000090370040101C0000A4
:104B900044010000003E004022010000841C00008F
:104BA00026010000AC1C0000D41C00002F75000082
:104BB000B802000080A0001040A10010FBF7E0FC4C
:104BC000002081002269401C55506269C0B25550D6
:104BD0001528F6D300203021414300220C31E36830
:104BE000401CC0B25A520C28F5D3002097E11D9901
:104BF000626848434000101828901199219811903C
:104C00002191002001468300119A401CC0B2D1506E
:104C10001528F8D3019926987143401E0818209052
:104C2000002074E120982E22401C20900298A25E61
:104C30004100289809180020085E82427EDC029B11
:104C4000219AD3185A78002A78D11D9A3E2752000B
:104C50000E928A1A1546403DEF5F8742EEDC002532
:104C6000555F8542EADC0225555F8542E6DC0A464F
:104C7000403A3E25555F8542E0DC02228A5E824250
:104C8000DCDC01229A700E9B3E275B181D46403DDE
:104C9000EF5F8742D2DC029F119DEA550E9D495F6E
:104CA0008142CBDC029D119949194A7002255D5F52
:104CB0008542C3DC8A700C980C287CD2401C27905B
:104CC000C0B200900C98E1683022504308180C9054
:104CD00001200F90A16901980870E169029808709D
:104CE00020990098087000250098FFF71AFF6F467A
:104CF0000ECF2046FFF7E4FE03E0802801DB0546E7
:104D0000F6E0A069415D1C91E069269B415D1F9121
:104D10001C991D9848431F9942004800616810186B
:104D200040181C9932464A431F99591851180022BD
:104D3000825E6D1C0D922DB20E9A00E0E4E0821AA4
:104D4000944613920E9A8B1B1718821E801C169085
:104D5000481E149705901592604603938A19801E89
:104D60001790B81E049218906046801C1990581E27
:104D7000491C0790BF1C501E5B1C521C08900691DA
:104D800000201A9709930A9207462290B90003A8B7
:104D900040588C460178002910D0009881420DD0EF
:104DA000624613A880580022825E0D98824200DD80
:104DB0000246009800E0A3E0FFF751FE614613A809
:104DC00040580021415E0D98814208DD614603A8EC
:104DD000405801780098814201D0012022907F1C28
:104DE0007FB2082FD2DB229800287DD1810003AA50
:104DF00052581378002B74D113AB5B5800219C469A
:104E0000595E2E23E35E99426BDB0D9B994268DC71
:104E100000991170FE490A5C1C99511849B21B9106
:104E2000A3690F9A9954FB490A5C1F9951184BB218
:104E3000E2690F999E4653540F996346491C09B283
:104E40000F910C99002249699A5E8A180C994A615F
:104E50001B99F14A8900891800229A5E49680C9FC3
:104E60005143BB69CA17FF69C9180C9B7A41DA61C3
:104E7000996173469900E94A002389186246496896
:104E8000D35E0C9F59433B6ACA177F6AC9180C9BB3
:104E90007A415A6219620C990C9A4989491C5181CC
:104EA0000C9902228A561B998A4201DA0C9A917057
:104EB0000C9900228A561B998A4201DD0C9A1170C6
:104EC0000C9903228A567146724502DA0A460C99F9
:104ED000CA700C9901228A567146724501DD0C9AFE
:104EE0005170401C40B200E002E0082800DA7DE783
:104EF0000F98854200D000E72798C0B20C9003E0DD
:104F000025980190249802900298401CC0B22499E0
:104F10000290884200D285E60198401CC0B22599D3
:104F20000190884200D262E6BD4ABE49E068FFF7C0
:104F300061FC0C9829B0F0BD30B53024D3686043D3
:104F4000C0180624045F52686300D55E4B00D35E30
:104F5000AB4202DB0481C18030BD0824045F002C19
:104F600003DB6400125F9342F6DD018130BDF7B5CB
:104F700084460C4602983025C368614630206C4355
:104F80004143A646CA18E418506965694019506142
:104F90009069A669D569E76986197D419661D561F1
:104FA000106A266A556A676A86197D4116625562DB
:104FB000D089E5894019D081108A258A401910824C
:104FC00050896589401950819089A589284390812D
:104FD0000020A0810220022510566557A84200DA61
:104FE00095700325032055572056854200DAD0706E
:104FF00070465D561856854200DD58540121012047
:1050000051562056814200DD507006216046615E97
:10501000C0B2029AFFF790FF0821615E002904DB0D
:105020006046C0B2029AFFF787FFFEBDF7B586B0B3
:1050300006980C46069A0021C568203279480592E8
:1050400009E08A00121813795B1E137153795B1EF5
:10505000491C5371C9B282788A42F2D8B8E0002064
:105060008446107930214843401943895079484398
:1050700040194089181881B2042010568646052030
:1050800010560090012031E0664A83009A18137987
:105090003026029373435B195E895379302701935D
:1050A0007B435B195B89F3189BB28B4208D219468C
:1050B0000423D35684469E460523D356009313E01B
:1050C0008B4211D1029E574B76450DD1019F009E18
:1050D000B74209D10626965F62469200D21806238F
:1050E000D35E9E4200DAD680401CC0B24D4A93780F
:1050F0008342C9D86046810010460F180426052057
:10510000BE5738560090864257D00698062142680E
:10511000302070434019415E844648000099302396
:10512000594349190623CB5E105E5B00D25E904264
:1051300000DD1046059AD27C42430598007D02416D
:105140000620385E824212DD604642690698808DF4
:1051500082420CDD4A69824209DD0A228A5E60468B
:105160000A21415E05985118007C814225DB3146B9
:10517000069A0098FFF7FBFE2A49641E8878E4B27D
:10518000800040180288BA804088F8808878401EE5
:105190008870009A0020D3B20BE082005218177971
:1051A000B74200D113715779B74200D15371401CF7
:1051B000C0B28A7882420BD9EFE71A488178890019
:1051C00009180A88BA804988F9808178491E817057
:1051D000144A9078002800D041E72746002613E0C3
:1051E0003020784340190090007BC00708D109E0C7
:1051F000302070434019007BC00719D0761C76B26E
:105200000C2EF5DB7F1CFFB20C2FE9D300200BE046
:10521000280100003001000080A0001040A1001013
:105220006C020000B802000008990746086050E0D0
:1052300030207043401930220099FBF703FA002018
:105240000099761C888176B2DCE7302078434619D5
:10525000307BC0073BD0706900900290C01701906E
:10526000F169B069019B009A03F067F9059A527DD4
:1052700003F038F900B2308504900390716A306A07
:10528000019B009A03F059F9059A927D03F02AF9DF
:1052900001B271850398002801DA002005E0069824
:1052A000049A008D824201DB401E3085002901DA1C
:1052B000002004E00698408D814201DB401E70858D
:1052C000089801680298814201DA089908607F1CF9
:1052D000FFB2A742B9D3204609B0F0BDFFB5002701
:1052E00083B006463C463D461AE0680004990290A9
:1052F000085A03F080FC04F0A1F9009001913846AF
:1053000003F0B0FD019B009A03F020FC03F064FA67
:10531000074604990298085AA04200DD04466D1C15
:1053200005988542E1D3204603F0D8FE03F09AFDAC
:1053300004F084F903F050FA04466821049803F05D
:105340009AF93846069904F037FA306020460699F3
:1053500004F032FAB060059803F0C8FE0146384602
:1053600003F0AAFD069904F027FA706007B0F0BDBB
:10537000FFB585B000200390C9480090164601276C
:1053800048000D46B04201DA012000E00020FFF79E
:1053900066F96C1C701BC01B04903EE000200746A1
:1053A0006E4201901BE0A8198100089840580290B5
:1053B000A0191821484305990858029904F0FCF9EE
:1053C0000146019804F05EF90190384603F086FE2C
:1053D000029904F057F903F01FFE0746761CAE420F
:1053E000E1DD384603F07AFE0146019803F064FDE2
:1053F0001821059A61438E180146F060009804F068
:10540000B1F901D2009800E0F0680090F16804F072
:105410007FF900D103940498641CA042BED803987D
:1054200009B0F0BDF3B507467D2089B0C0000090FB
:105430000020069008249B480A9903F020F94608AA
:105440007D2076006542C000704307909648974AD9
:1054500068438018079903F01CF90A9A0146501A0C
:1054600000D54042009A904203DA2C460834069157
:1054700000906D1C082DE9DB7042BC653860069811
:10548000F86030022043F86521460A20FDF7A8FAAB
:1054900001200BB0F0BDF0B50446C068616885B06E
:1054A000451AA16847187D20C000039080480090ED
:1054B00003200190642D00D26425FF2091308742A3
:1054C00000D90746002639E03046182148430099A4
:1054D000401802907F20C005049029462046FFF71F
:1054E000A1FFE1680398814227D07248007802F05A
:1054F00077F90323092260212046FBF79AFE6D48C5
:105500006421007802F0BAF8002802D00020FFF7EA
:10551000A6F86848007802F063F921463422683121
:10552000049B0298FFF7DAFE0298E16D4161029850
:10553000E1680161E068761C03906D1CBD42C3D335
:105540005D4B324601990098FFF712FF182148433E
:105550000099401801692046FFF764FFFCF7E2FA62
:10556000A1894184206805B0F0BDF0B504468DB036
:1055700000200A9051484568284603F0B7FD019085
:105580006800400803F0B2FD0090FCF7CBFAFCF78E
:10559000C9FAFCF7C7FAFCF7C5FAFCF7C3FA7F2390
:1055A0002146DB053422683103A8FFF797FE444DFE
:1055B0006069294604F000F9039904F063F80226B3
:1055C000F643314603F096FD60612946206904F0F8
:1055D000F3F8059904F056F8314603F08BFD20618D
:1055E00003F040FD0546FCF79DFA27460584603729
:1055F000F8790026002807D0012802D0022800D020
:10560000FE710A980DB0F0BD2E49042008562546BB
:10561000C03500282CDD2069019904F025F910D24D
:105620002069009904F09EF80BD8288A2349401C71
:1056300080B22882C9788842E3D3234901200870C8
:1056400014E02069009904F00FF90DD2288A1B4953
:10565000401C80B22882C9788842D2D30120F871D8
:105660001A492E820870CCE7174806702E82C8E7C8
:105670001248008A03F03AFD616904F073F8C0D261
:10568000288A0E49401C80B2288289898842B8D372
:105690000120F8710D492E8208700A90B1E70000D0
:1056A00000401C46409C0000400D0300005A62026E
:1056B000E0230040C4010000A8A20010B41C0000B8
:1056C0000000E0402006000023010000220100004D
:1056D000584800218170491EC1700171417181716A
:1056E0000A21554A0E230161D380917353498A8957
:1056F00002810A8942810988818151490988C181D1
:105700007047F0B50146002001291FD00022494D05
:105710004C4B4D4F2A70114624244C431E5BF6051A
:105720000ED5E6181D24345730267443E4190A2692
:10573000A65F042E04DC6469642C01DC01200246AF
:10574000491CC9B20F29E7D32A70F0BDFFF7C0FF8B
:105750000020F0BDF0B5012817D036493B4E0B466E
:1057600005251C698F785D5733480A223678002357
:10577000641C002F0AD0012F2BD0022F05D10C6101
:10578000002D2EDB012088700B61F0BD0C6106241A
:10579000002D04DB01258D70C4808273F4E72C4B4F
:1057A0001B78002BF1D00223002E8B7004D018211F
:1057B000C1808273428204E0C480FF2182739131F0
:1057C00041827D211D48C900016101882148418134
:1057D000F0BD0B61002DFBDA8B700E21C18082734E
:1057E000F0BD1C4C2579002DFAD1002E8B7003D012
:1057F0001825C580827304E00E25C5808273FF22C0
:10580000913242820D480A8982814A8902818A89BD
:1058100002800B4DCA892A800F4A02610F4A127812
:1058200080182030007A60810D4A052010724B707C
:10583000F0BD0000040200002C1C0000481C000009
:10584000841C00003C060000380300002301000017
:105850003E01000020060000B80B000022010000FD
:10586000001C0000F8B50024FA4F1D2625467601DD
:10587000E0B23946FCF7D8FB00228554521CB242F4
:10588000FBDB641C042CF3DBF8BD10B5FFF7EAFF6B
:105890003821F14802F0F1FEEF48012120308174F7
:1058A0000022C27442758175C175EC48017010BD4B
:1058B000F0B5C5896D4300221DE00189036851439D
:1058C0005E184189436851435C1800210EE04B008B
:1058D000F35E5B43AB4201D9002304E0635C077CC9
:1058E0009F4201D95B1C6354491CC9B2437B8B4264
:1058F000EDD8521CD2B2017B9142DED8F0BDF0B59A
:10590000D74885B0027A69460A7420220A73008853
:1059100000247326CF4FC881B60121463420FCF7FE
:105920007DFAC107C90F0918CDB2694648733146DF
:105930002046FCF779FB00906800694608813946EB
:105940002046FCF771FB019069464D816846FFF7E0
:10595000AFFF641CE4B2042CDFD305B0F0BDBE4839
:1059600000212030C1757047F0B5BE4BBE4CBF481A
:105970001A68012186B08446A24208DD98897D24F8
:10598000E400A04203D96046417006B0F0BDB248C1
:1059900000242030B34DC4746C6808231219964655
:1059A0000A22AA5EEB5EB24DB24F2E78FD680595D5
:1059B00010257D5F049512257D5F0395BD7DAE4F5B
:1059C0006D430195D5186D430095154655430295D5
:1059D00000255B437D5FA94F002E764619D0002E2F
:1059E00004DA059EB44201DA012600E00026C674FE
:1059F000049EB44206DA039EB44203DD019E009C7D
:105A0000A64204DC029C9C4231DAAA422FDDC1741A
:105A100030E0002E04DA059EB44201DA012600E0EF
:105A20000026C674049EB44206DA039EB44203DD27
:105A3000019E009CA64204DC029C9C4202DAAA421F
:105A400000DDC1748E4B1B882D2B02D93C2A00DA55
:105A5000C1748C4A927E012A09D1824AD289142AC1
:105A600005D901750022884BC2741A8016E0C27CE9
:105A7000002A13D000228275437D032B02D85B1CC1
:105A800043750EE0C37C002B05D063465970427508
:105A90000275397005E03A70427502E000224275E5
:105AA0008175784A1279002A00D06EE7397000219A
:105AB00001756AE7FFB5754E710C8E4600218C4664
:105AC0000C4601910B460091817A03912AE081886E
:105AD00002685943511802910022C77A1DE00299C9
:105AE0005500495FB14201DD0E4602E0714500DA22
:105AF0008E46C5888D4203DC641C8C4424B20AE0C7
:105B00000825455F8D4206DB019D691801910099CA
:105B1000491C09B20091521CD2B29742DFD85B1CDB
:105B20000399DBB29942D2D8C1684E81C2687146EE
:105B30001181C26861461160C26801995160C168F3
:105B40008C81C0680099C181FFBDF0B589B0144651
:105B500020236A46937204AA03926A4611810025A3
:105B6000D080E581494FA5816781780C20816560EF
:105B70002E4625600398C581039885810398478147
:105B80004248039940420881039831464560039892
:105B900005603420FCF742F901466846C1723C4971
:105BA0003046FCF741FA00906846C07AC107C90F39
:105BB0004018410068468180FFF77CFF0A22684652
:105BC0001A21A25E415E8A4200DA61810246082102
:105BD0001820615E105E814200DD2081E189D08B5A
:105BE000761C0818E081A189908BF6B20818A08174
:105BF000206804994018206060680599401860602A
:105C0000042EB7D309B0F0BD1FB5154A02210420F8
:105C1000515E105E6A46FFF798FF69461EC911483B
:105C20001EC0FFF7A1FE1FBDF0B5002245E0042114
:105C3000415E0368514359188C461421415E036943
:105C400051435C180C21415E836851435B1800216D
:105C50002EE00000202B000058080000700100001A
:105C6000001C000090080000A08601000009000050
:105C700022010000D41C0000841C00003F01000031
:105C80006C02000020060000600100000180FFFFA0
:105C9000F02300005D5C067EB54207D300255D540D
:105CA0004D006646675B765BBE1B6653491CC9B2F6
:105CB000C57D8D42EED8521CD2B2817D9142B6D8BC
:105CC000F0BD0FB4F0B587B01B991C9D06C91D9B94
