:10000000F03F00001500001000000000000000009C
:1000100000207047F8B519482921490608620120D7
:1000200008600020486138200863092088600F209C
:100030000861002008613F20C861FE20C8600420DC
:10004000486000BF00BF00BF00BFFFF7E1FF0090A6
:100050000B48456800260746002404E0A0003858F5
:10006000A1007050641C282CF8D300204560A847DC
:1000700000BF00BF00BF00BFF8BD0000A07F0000B0
:10008000000400100000000000000000000000005C
:100090000000000000000000000000000000000060
:1000A0000000000000000000000000000000000050
:1000B0000000000000000000000000000000000040
:1000C0000000000000000000000000000000000030
:1002C000000300000000000000000000000000002B
:1002D0000003000000B900000003000000B90000A6
:1002E00000C0000000040000010001000801080136
:1002F0000601424C41444533610000000100080002
:1003000000000000000000000000000000000000ED
:1003100000000000000000000000000000000000DD
:1003200000000000000000000000000000000000CD
:1003300000000000000000000000000000000000BD
:1003400000000000000000000000000000000000AD
:10035000000000000000000000000000000000009D
:10036000000000000000000000000000000000008D
:10037000000000000000000000000000000000007D
:10038000000000000000000000000000000000006D
:10039000000000000000000000000000000000005D
:1003A000000000000000000000000000000000004D
:1003B000000000000000000000000000000000003D
:1003C000000000000000000000000000000000002D
:1003D000000000000000000000000000000000001D
:1003E000000000000000000000000000000000000D
:1003F00000000000000000000000000000000000FD
:10040000F03F00001B27001000000000000000006B
:1004100000000000000000000000000000000000DC
:1004200000000000000000000000000000000000CC
:100430000000000000000000F1050010757D0010B4
:100440002B2400101927001019270010192700105D
:10045000192700109763001095630010E51600102F
:10046000192700101927001019270010192700104C
:10047000192700106B0A0010071700102917001029
:100480004B1700101927001019270010192700100A
:10049000192700101927001019270010192700101C
:1004A000192700101927001019270010192700100C
:1004B00019270010192700101927001019270010FC
:1004C00003B40148019001BDC100000003B401481C
:1004D000019001BD013D000000F002F800F040F87D
:1004E0000CA030C8083824182D18A246671EAB4649
:1004F00054465D46AC4201D100F032F87E460F3ED4
:100500000FCCB6460126334200D0FB1AA246AB46BA
:100510003343184774A60000D4A60000103A02D353
:1005200078C878C1FAD8520701D330C830C101D594
:1005300004680C607047000000230024002500269A
:10054000103A01D378C1FBD8520700D330C100D58F
:100550000B6070471FB5C046C0461FBD10B510BD2B
:1005600009F022F91146FFF7F5FF02F0F9F809F05A
:100570003AF903B4FFF7F2FF03BC02F016F90000EA
:10058000FCB40022002300240025002600270629B1
:1005900002D4FCC00639FAE7002902D004C00139B0
:1005A000FAE7FCBC7047000002B472B60178013172
:1005B000017062B60139080002BC704702B472B61D
:1005C00001780139017062B6080002BC7047000072
:1005D00062B6704772B670471C3880F3098870475E
:1005E000014802490160704704ED00E0000000107E
:1005F000114B1968114A1268914216D0EFF3098025
:1006000020380860F0C044464D4656465F46F0C06C
:100610001A6010681030F0C8A046A946B246BB4622
:100620002038F0C8103080F30988054B002018707E
:1006300004204042004700000403000000030000C3
:10064000F302000070B505460C46164602E00FCCDA
:100650000FC5103E102EFAD2082E02D303CC03C5CC
:10066000083E042E07D301CC01C5361F03E02178D4
:100670002970641C6D1C761EF9D270BD02460020E4
:100680000121890700E089089142FCD808E043185D
:10069000934203D8121A521A4B00181840088908BE
:1006A0000029F4D170477FB5002502265C00009533
:1006B000802809D08B280CD0A02821D0A2281ED1B8
:1006C00006291CD16B481EE0002918D101208007A3
:1006D00019E0042913D1D807C00FC018664940009B
:1006E00041180091890704D00099C91C8908890024
:1006F0000091001D694608810098002806D17FBD41
:100700000529FCD15D480090684604815C4824219D
:1007100041804721456001700821417058480021FF
:10072000083001906846867344814373027301F078
:100730002BFF0021022001F04CFE0121022001F0DC
:1007400048FE7FBDFFB588B01498129C844615986A
:10075000A646C4074007119E1399002C45D0800F70
:1007600026D0002420E065000295099F08987F5F4D
:10077000405BFF10C01B555F00B2159F0095A8425B
:1007800008DDBF0707E077467D43484328186546E4
:10079000284102E07F07002FF5DA029D5053009DAB
:1007A000401B029D641C5853B442DCDB0CB0F0BD0E
:1007B000002417E0099F650008987F5F405BFF10E9
:1007C000C01B00B20190575F7046009747430198E5
:1007D00048433F186046074157533846009FC01BA7
:1007E0005853641CB442E5DBE0E7800F25D00024B9
:1007F00020E0650002950998089F405F7F5BC0106C
:10080000C01B555F00B2159F0095A84208DDBF07C9
:1008100007E077467D43484328186546284102E0B3
:100820007F07002FF5DA029D5053009D401B029D6B
:10083000641C5853B442DCDBB8E7002417E0099885
:100840006500089F405F7F5BC010C01B00B2019035
:10085000575F704600974743019848433F186046EA
:10086000074157533846009FC01B5853641CB4427D
:10087000E5DB9BE7D05A0040963B00409059004092
:10088000605C0040012110B549034804FFF778FE81
:1008900000201249124B08704870887001221A70AB
:1008A000104A1080104A1080104A1070C87010BD95
:1008B00010B5FFF7E7FF0E4800218175018303F0B3
:1008C0000AFF03F073F800F010FE0A490A4804F02A
:1008D000E0FB02F09CF803F019FE10BD01020000DD
:1008E0002F020000A003000050020000610200007F
:1008F000600B0000483A0000843A000010B504463E
:100900000020606422466032A0649070D0700122A2
:100910009207E2615B4A62635B4AA2635A4A3423EC
:100920000832E26322464032137020235370E064A1
:10093000108201226265102395221355206100293F
:1009400001D000F0D6FD51484078208310BD10B58D
:100950004F4C0021207806F08FFD002802D00020A7
:1009600002F095FF207806F044FE012010BD10B57E
:10097000112806D0122803D14649082001F029FD8C
:1009800010BD44490420F9E7C00601D50120704795
:1009900000207047404800F05EFE00F083FF3F48B3
:1009A000007807F025FA07F039FB0021084606F029
:1009B0007BFC374C012120703648FFF79FFF002158
:1009C000084606F071FC60700121084606F06CFCD8
:1009D00033492E4D087069780C2001F025FB2D4C11
:1009E000304E60342B4800F0F0F80020305E0028D4
:1009F00002DB00F033FDF5E7A078002801D007F016
:100A0000E4FD2878FFF7C0FF00280ED168780028A1
:100A10000BD020488030407D0009000110280CD008
:100A2000802810D0002002F032FF2878FFF79FFFC7
:100A3000FFF78DFF0028FBD0D4E780221021154856
:100A400000F020F9F1E76078002804D0114800F0A8
:100A5000B3FB002060700F4800F040F912490420F9
:100A60000856124907F054FADFE710B506F0A0FB6C
:100A70000748007806F0ECFD0D490F20C86206F02B
:100A80009CFB10BDE0230040605C0040103A000079
:100A900062020000E00A000090370040C99E00108A
:100AA000000200006602000060080000B43A000086
:100AB00080000052F8B5474E07460125464935707B
:100AC000782048704548464CC57005702068FF2165
:100AD0008172C068402108F0BFF8002041496422BB
:100AE0003B0008F0B6FE08050B15181414141F146B
:100AF0000861486188610862486211E008614861E4
:100B000088610862486288622168FA204880F8BDDE
:100B100020684280F8BD08610862486148628861C7
:100B20008862F5E708614861886108624862886206
:100B300075703070F8BDF8B504468034618B2A4B6F
:100B4000254DCA1A04270026994215D005DC274AEC
:100B500089181AD0012935D109E0012A22D00B2A9F
:100B600030D10021C943012001F03EFD2AE07D2063
:100B7000000101F037FF25E0A08B062822D80820CD
:100B800028701449A08B48801CE000F037F92873C6
:100B9000FF21532000064160076241628662C662FF
:100BA00001630FE00121297360304170104801702A
:100BB00010481E2101804180FA218180C180077583
:100BC00047752E7066830120F8BD10B5FFF7B3FF9F
:100BD000012010BD64020000103A0000C83A000075
:100BE000602000004000005204080000FFF7FFFFF3
:100BF00061020000843A000053200006816AFC2252
:100C00001143816203F067FD02F0D0FE00F06DFC3D
:100C10001549164804F03DFA01F0F9FE03F076FCA0
:100C200006F09AF907F06AFC114C124D124E134966
:100C3000207806F021FC002802D0002002F027FED8
:100C4000207806F0D6FC0E4800F082F80746287897
:100C500006F0D7FC30780028E9D1002FE7D008490A
:100C6000012001F0B6FBE2E7483A0000843A0000B8
:100C70006302000000020000103A00008096980015
:100C8000E00A000010B5034680331C465A7509027D
:100C90002B4B1143CA1A99421AD00ADC294A891AE5
:100CA00011D001225203891A0DD02748081805D106
:100CB00007E0FF2A05D0FF3AFD3A04D0002002F0F9
:100CC000E6FD012010BD00F0BCF881206075F8E75A
:100CD0001E4841780B2001F0A7F9F2E710B5044651
:100CE0008030407D81280AD083280ED084281BD0F4
:100CF000852807D0002002F0CAFD012010BD832204
:100D0000812119E08022852116E0204600F00EF9AD
:100D1000E06C012802D9842283210DE00B490B20CD
:100D2000497801F081F9E8E7204600F0FFF8E06C2F
:100D30000028E2D1832284212046FFF7A3FFDCE7CD
:100D40008483000080100000FDAEFFFF103A000019
:100D5000F1B502F0E6FD02F049FE224D3423287879
:100D600020220421FFF79FFC1F4802F0F9FF1F4CCF
:100D7000014620701E4A1C4803F06BFA20701A4886
:100D80002C21415E406805F030F805F052FA02F07F
:100D90009AFA18490A68521C0A6017490A78002A08
:100DA0001ED000240C7000F09DFB811C002210233B
:100DB000047012260DE00C804C808C808C714A727D
:100DC0000B72CF793743CF7107780A317F1C0770D8
:100DD000521CAF789742EED84470009900788C642A
:100DE000F8BD0000103A0000B40300003C0200000F
:100DF000400200000C3A00006002000010B5012023
:100E0000FF23532109064B6004220A624B62002231
:100E10008A62CA620B630A62FD244C604C6202243F
:100E2000CC608C618A62CA620B638C68CB620A6395
:100E3000896810BD10B50321052001F0F5F80120E7
:100E400010BD10B504460321052001F0EDF8204641
:100E500000F0B2F9002060346070012010BD012064
:100E6000704710B50321052001F0DEF8012010BD08
:100E700010B5084606F0C5FB10BD7047F8B5FE4D2D
:100E8000FE4C002630464100401C6A5AC0B26252F5
:100E90003428F8D300204100615E401C8E19C0B296
:100EA0003428F8D33421304607F0E2FE0246002011
:100EB0004100635A401C9B1AC0B263523428F7D3D6
:100EC00000211DE000291BD0332910D04A0017193A
:100ED0009446A05E3B46203B1E229A5E3B4602277C
:100EE000DF5F3B46984214DD904217DC13E0662337
:100EF0006427E05E3A5F904200DC1046E8520FE063
:100F000000220220A25E205E824200DD1046288080
:100F100006E09A4201DD104600E038466246A852DB
:100F2000491CC9B23429CDD33046F8BDF0B50546C9
:100F30009DB00321052001F077F8D14C207806F010
:100F400058FB07F0A5F96421207806F095FA0028EF
:100F500002D0002002F09BFC207806F04AFB06F04D
:100F600056FF002840D007F044F902223421C5483A
:100F700005F03EFFC44F04203856C44906F0AEFFCA
:100F80006421207806F078FA002802D0002002F0D0
:100F90007EFC207806F02DFB07F0B8F9642120785C
:100FA00006F06AFA002802D0002002F070FC03214B
:100FB000062001F039F82E46B54C403633782078BB
:100FC00028220021FFF76FFB3378207801220521CA
:100FD000FFF769FB06F01BFF002808D000F0F4FCC7
:100FE0002078862806D00FE007F0C2F8BDE700F0B1
:100FF000D8FCF5E700F008FD0021022001F0E9F936
:101000000121022001F0E5F9A2486421007806F0F0
:1010100033FA002802D0002002F039FC9F499E4894
:101020000E78022183191A795956805700F0DFFC97
:1010300020788A2809D100F0F2FC0021022001F07A
:10104000C8F90121022001F0C4F903F0C9FC944958
:10105000944A954B097812781B78019303910320E9
:10106000854B85493426029204900096A033824A2B
:10107000A0398248FFF766FBFFF700FF8B49086045
:101080008B4803F04EFB387900280AD101200190EB
:101090008848009603787848874A7749A03803F053
:1010A000ACFF2078342301220621FFF7FCFA03F07D
:1010B0008DFB8248817D00291BD0C07D002818D07F
:1010C00000210C9120207E4A7C490B920D900E96B7
:1010D0002C2214396846FFF7B5FA784820380EC834
:1010E0000FA803F066FE754838220FA92038FFF7D5
:1010F000A9FA00F09EFC734801782846FFF7B8FE75
:1011000000212846FFF7B9FE686C401C6864012086
:101110001DB0F0BDFFB581B0002421460A9800F053
:10112000B9FAC107C90F0818049EC0B24643204649
:10113000019900F0A6FB00902046029900F0A1FB67
:101140000746002509E00098A90040580399C0000F
:1011500007F08EFD690078526D1CB542F3DB641C0C
:10116000E4B2042CD9D305B0F0BDFFB581B00024A2
:101170002146049800F08EFAC107C90F0818C6B2BC
:10118000039802994643204600F07BFB0546204623
:10119000019900F076FB0146002006E0820047003E
:1011A000AB58CF5FDB19AB50401CB042F6D3641C88
:1011B000E4B2042CDCD3D6E7FEB50321052000F011
:1011C00033FF05F00BFE00242D4E2746307806F045
:1011D00010FA06F01CFE00282FD007F00AF8642150
:1011E000307806F049F9002802D0002002F04FFBC9
:1011F000307806F0FEF907F089F86421307806F0BF
:101200003BF9002802D0002002F041FB06F0FFFD70
:10121000002815D000F0D8FB022C14D373218901CB
:10122000342320224810FFF7A0FF34230122124963
:101230001248009703F0ADFE1AE006F099FFCEE7E2
:1012400000F0AFFBE8E7002C12D10025E9B2342012
:1012500000F020FA42017321E8B2890100F008FB96
:101260006D1C042DF2DBFF214131034807F0F4FC33
:10127000641CE4B2122C27E0D05A00409059004080
:10128000E9020000E023004060080000B43A0000DA
:10129000103A0000000200002C3A00000202000098
:1012A000CC9E0010CB9E0010CA9E00100C020000C5
:1012B00078190000CD9E0010105C0040B80A0000B4
:1012C000D00A00006302000080D33424732020235E
:1012D0001022124980010094FFF71CFF0094104C6B
:1012E0000123A03410220E490197204603F067FE27
:1012F000A021204607F0B0FC0024FF25094E41350F
:10130000E0B22A46314600F0B3FA641C042CF7DB45
:101310000321062000F088FE0120FEBD901500008C
:10132000305A0040F023000030B5634900200A0223
:101330000D24E4014300CD5A801CD552A042F9DBB4
:1013400030BDF3B581B001270321052000F06CFE0C
:1013500002981025594E0024002833D0012831D09E
:1013600002282FD0032830D0002700210198FFF752
:10137000C5FA534D287806F03CF906F053FF642176
:10138000287806F079F8002802D0002002F07FFAD1
:101390004C48C460287806F02CF906F043FF64211D
:1013A000287806F069F8002802D0002002F06FFAD1
:1013B000454847490470454804700020C0430880F0
:1013C0003846FEBDFFF776FB03E0FFF773FB3D48B1
:1013D000C4603570C9E700213E48B2E701213D48AD
:1013E000AFE770B53C4D374C002620682861286275
:1013F000606868616862A068A861A86202213548D7
:10140000FFF79FFF012E12D00D22120291052A48EC
:10141000FFF718F92068761CC04320606068C0435D
:101420006060A068C043A060022EDEDB70BDFFF7E5
:101430007BFFEFE710B5FF2029214906C860274848
:10144000102181630163032000F04FFE0321214836
:10145000FFF777FF002000F048FE10BD10B51C48D4
:101460000024045F002C06D0012C07D0022C08D0E9
:10147000032C0BD108E0FFF7AEFF07E0FFF7AEFF4C
:1014800004E0FFF7AEFF01E0FFF7D4FF0720FFF70E
:1014900011FB01210F48FFF731FA042C07D00D484A
:1014A00020224030037800218020FFF7FCF8034918
:1014B0000120087310BD00000000405E103A0000DB
:1014C000E90200006C0200006402000068020000F3
:1014D00066020000E00A000040000052C003005510
:1014E000214870472048801E70472049002008602E
:1014F000704730B51C482021723001703421417092
:101500001B4900220B8D83824B8DC3828B8D0383FD
:10151000CB8D43830C4620340346257C20339D70BD
:10152000647CDC700B8F83848B18203384189B7C45
:10153000521C2377062AF7D300210A4604E04B0009
:101540001B181A715A71491C83788B42F7D830BD29
:10155000002006490246091D0B18401CC0B21A7330
:101560000C28F9D3704700001A3B00000C3A000029
:10157000C00200100A04120E344B1204090618406F
:101580001043090D08437047F0B59C469304644628
:10159000DB0CA4052343059C8500E405A40A234332
:1015A0002B4C88006659FF3081303350082901D216
:1015B000002000E004200126130CB603B34201D141
:1015C000002300E002235204D70F4200891A1F4370
:1015D00089000F228A40064663595836B6469E59FE
:1015E0008F4096433E431F467346FE50064663595E
:1015F0006036B6469E591F46059B9643DB041B0F7B
:101600008B401E433B467746DE5164596830235871
:10161000934362469204120F8A4013432350F0BD55
:101620000D239B06C91801604260704710B59204F3
:10163000D20C9B05029C1A43E3059B0A1A430D2317
:101640009B06C9180160426010BD00000FF000FF4A
:10165000909A0010FEE703218907012210B5411876
:10166000D203914200D3FEE7884C002121706170C3
:10167000A16060600846864901228300CB581A6148
:10168000401CC0B20428F8D30021012005F00CFE54
:10169000A07010BDC208D200821A12067D4B920DB6
:1016A000D218C008515C40000818C0B2704710B58D
:1016B000764900201431754C0860E07818214843C1
:1016C000754940188268002A04D02169E068904773
:1016D000002806D005F06CFDA07805F0B9FF05F0F4
:1016E0006CFD10BD6A4908684069C0070AD00968E6
:1016F000012088616549143108700868674988428B
:1017000000D1D4E77047624948684069C0070AD0F1
:101710004968012088615D491431487008685F4953
:10172000884200D1C3E77047594988684069C007BB
:101730000AD089680120886154491431887008688A
:101740005649884200D1B2E770475149C86840699C
:10175000C0070AD0C968012088614C491431C8709B
:1017600008684E49884200D1A1E7704770B5474CE0
:10177000054620780A2800D3FEE76969CA0700D029
:10178000FEE7A268891801229202914200D9FEE781
:1017900018214843404E0A4680192946FEF752FF59
:1017A000A16860681822401821785143891908619E
:1017B0006A69296907F0E8F92078401CC0B22070F6
:1017C0006969A2688918401EA16070BD30B40C46DA
:1017D00011462E4A1278824200DCFEE7182250435E
:1017E0002D4A1358002B02D0204630BC184730BC7D
:1017F00001207047F8B5254C054620780E4617465F
:10180000A84200DCFEE76078002800D0FEE7E57023
:101810002761E660A07805F0ECFE182045431E48DD
:1018200039462D186A68304690476421A07805F043
:1018300023FE002800D0FEE7144900201431086080
:10184000EA68002A02D03946304690470020F8BDA9
:101850000E481821C07848430F4940180069704766
:101860000A481821C07848430B494018406970471E
:1018700010B50B4B8000185840181146FEF780FE3B
:1018800010BD074A80001058401870477C020000C5
:10189000909A0010B09A0010C40B000001010101E1
:1018A000A09A0010F8B5F94FF7483426F8602025C3
:1018B0007E823D75002421463420FFF7EBFE391966
:1018C0000872C107C90F40186100641CE4B2785265
:1018D000042CF0D373204001388201207875EB4C42
:1018E000EB481834801CE0603620608225750027A4
:1018F00039463420FFF7CEFEE1190872C107C90F3F
:10190000401879007F1CFFB26052042FF0D3BB2037
:101910008001208200276775DE48FFF727FFDE4C35
:101920000121A060D94889072C38016086800121F7
:10193000C1807321490141810781072101738173AE
:10194000D44918310161343141614573C67307765A
:1019500008467C38FFF70AFFCC4A2060103A11464F
:101960001C39FFF733FFC94873214901303001802A
:10197000CA494180CA49818073218901C180078198
:1019800089104181BB218901818103218173082153
:10199000C173C5740675BF481838FFF7E7FE60606D
:1019A000F8BDBA4810B507212C3801738173B949C5
:1019B000024618310161343141610146B6481C329A
:1019C0000068FFF717FF10BDB04810B507212C388D
:1019D00001738173AF4902461831016134314161AD
:1019E0000146AD481C320068FFF704FF10BDA74B4D
:1019F00010B53033187459749A74A74800221946E8
:101A00004068FFF7F7FE10BD10B573209F494001F5
:101A10000882A14800228068FFF7ECFE10BD10B5D7
:101A20009A499F4808829C4800228068FFF7E2FE9E
:101A300010BD10B595499848002218318068FFF70D
:101A4000D9FE10BDF0B585B00446FFF701FF05468D
:101A5000012180B20027C907039040180290207D21
:101A60003946FFF717FEC107C90F0818C0B2019029
:101A7000E07CBE004006410C019801438948805932
:101A80000164FFF7EDFE03994118864880594160D3
:101A9000844902988959886082490020895948649C
:101AA00001260096014622883846019BFFF76CFD0F
:101AB0000096628801213846019BFFF765FD00967C
:101AC000A28802213846019BFFF75EFD0096E2885E
:101AD00003213846019BFFF757FD00962289042118
:101AE0003846019BFFF750FD009662890521384674
:101AF000019BFFF749FD0096A28906213846019B0C
:101B0000FFF742FD7F1CFFB2042FA8D30F216156BF
:101B10006868FFF72FFD68600E2020564142E86894
:101B2000FFF728FDE860112161562869FFF722FDC3
:101B3000286110216156A869FFF71CFDA8611220D9
:101B400020564142286AFFF715FD286255490020BA
:101B500082008A581660401CC0B20428F8D30120C5
:101B600005B0F0BDF0B5044687B000200290FFF745
:101B70006FFE0190607D0021002808D0E0682422DB
:101B8000428047224160027008224270029201980E
:101B9000002581B2081D03900120C00708182E46B9
:101BA0000490217D6019007A4906490C08433D499B
:101BB000AF00C95908643B490020C9594864012055
:101BC000009068000590235A228A00212846FFF7DA
:101BD000DBFC012000900298E16830180A18638A43
:101BE00001212846FFF7D0FC05982E49205AC959F3
:101BF0004000801986B2039848602A490498C95960
:101C000088606D1CEDB2042DCBD30198264901608C
:101C10000020244901228300CB581A60401CC0B226
:101C20000428F8D3012007B0F0BDF0B50024817B73
:101C3000A44627468E463EE000231A461946067BF8
:101C400015E005692D5D954008322943D2B2202A5E
:101C50000AD365464269AD0052598A4211D16146A4
:101C6000491C8C4600221146641C5B1CDBB29E4260
:101C7000E7D8002A1DD06246436992009A588A42EA
:101C800014D00020F0BD0000605C0040E00C0000BB
:101C9000FE3B0040689B001094020000901500007D
:101CA000F0230000909A00100010C0236146491CE8
:101CB0008C467F1CFFB2BE45BED80120E2E700B5CE
:101CC000FFF7B3FF002800D0012000BDF0B585B0BC
:101CD00005460C46FFF7BCFD02900120607200270C
:101CE0002773287BC01C8008E072A97B687B06F004
:101CF000B5FFA072A97B4843697B88420FD0081AC0
:101D00002072A07A401CA0720298002681B2081DA1
:101D100003900120C00708180196049001E0277283
:101D2000F2E7E87B3146FFF7B5FCA1190871C1075E
:101D3000C90F4018A0550020AC49B700C9594864E4
:101D4000E888009029680198AB880A18002130467D
:101D5000FFF71AFC287B01282FD0A17A2A8941435A
:101D60004806A15D400C0843A049C95908640120F8
:101D700000900146A35D3046FFF706FC9B4903989F
:101D8000CA595060CA5904989060A05D761C420000
:101D90000198F6B2101880B20190042EC1D30298B7
:101DA000934A0260002001228300CB581A60401C35
:101DB000C0B20428F8D30120D2E6697B6A894906BB
:101DC000A05D490CCFE7F8B506460C46174600253E
:101DD00001200090607BA17B7B5D401A80195843F5
:101DE000618940004218E8B20121FFF7CDFB6D1C6C
:101DF000042DEDD3FA7A7D4D104672438018864645
:101E0000002110E093009C4600208B00803366691F
:101E10006746F6598700EF59FE50401C0428F6D358
:101E2000521C491CC9B27245ECD3F8BDF8B5064640
:101E30000C4617460025012000907B5DA17B1846CB
:101E40004B436189704340000A18E8B20121FFF753
:101E50009BFB6D1C042DEED3FA7A644D1046724341
:101E600080188646002310E091008C4600209900DF
:101E7000803166696746F6598700EF597E50401CED
:101E80000428F6D3521C5B1CDBB27245ECD3F8BDC0
:101E9000FEB505460C46FFF7DBFC0746287B032111
:101EA00001287DD0607A0128207B1BD0401CC0B265
:101EB0002073AA7B904273D222462946FFF783FF04
:101EC000002001224949BDB2D307C4002C19E618ED
:101ED00084000F59BE600C592260401CC0B2042817
:101EE000F3D37EE0401CC0B22073AA7B90423DD861
:101EF000012833D1207A0028A07A01D0401EC0B238
:101F000000264006400C0190B8B2029001200090DB
:101F1000A35D287B2A89434300213046FFF734FB29
:101F2000A05D0199314A0843B100525810642F480E
:101F300018224058AA564264287B2E4BA25D00040A
:101F400018430243F0003A50029A1018274A001D25
:101F500051584860761CF6B2042ED7D3207B224617
:101F6000401EC0B22946FFF761FF29E0207A002811
:101F700039D0101A2073022060720026A05D1B4920
:101F8000FF300130B20089580864207B2246294680
:101F9000FFF719FF01200090A05D297B034600E0B8
:101FA00021E04843A17A491E48432989400042184C
:101FB00000213046FFF7E8FA761CF6B2042EDDD396
:101FC000002001220949BDB2D307C4002C19E6182C
:101FD00084000F59BE600C592260401CC0B2042816
:101FE000F3D30020FEBD61720120FEBD909A001067
:101FF0000010C0230010402F10B501462C4806F0F9
:102000002DFE420A2B49012048602A480023403017
:1020100003620F23C3620261FF22426182610322D5
:102020004A600421016210BD70B5401F0C46224D6C
:10203000030007F00EFC0817191D1D1D0D05081DD6
:102040002868844217D00846FFF7D6FF2C6012E0BC
:102050002922C8B25206516BFF231B0219400143CB
:10206000516308E0012000E0002000F012F802E0D7
:10207000002001F00CFC012070BD10B500F08BF8C1
:1020800000F0BBF800F01CF80A490F204031C8628C
:1020900010BD10B50200084602D000F04EF810BD89
:1020A0000649C9780029FAD100F028F810BD0000CF
:1020B00040D2DF0340000052A0020000C83A0000F6
:1020C0003D200249000408637047000040020055AB
:1020D00010B54B4C0320216806F068F92068494987
:1020E000401C20601020886310BD0021022801D010
:1020F000032800D1444900208165704710B529228A
:102100005206D1680C239943D16002213F4B01282C
:1021100007D0022805D0032807D0002001F0B7FB24
:1021200010BD59603A48106210BD596039481062BC
:10213000D0688006800ED06010BD70B5292252068E
:10214000D1680C231943D1600325304901230028AD
:1021500008D0032803D0002001F099FB70BD4D602A
:10216000136270BDF720C0011062284C002040347B
:1021700020601F266660A6604D60F524E4011462AD
:10218000F124E40114621362086148618861086205
:102190004862886270BD70B51F4CA16B0020820040
:1021A00012191268401C891A0E28F8D320681B4A9D
:1021B00029256D06904217D1E06B194A904213D140
:1021C000002910D1A0680104E068000201432069E1
:1021D00001436068C0B204F0ECF86069A16928634B
:1021E00008020830686370BD402028630D486863AA
:1021F0000D49072004F0DDF870BD00209DE70000C8
:1022000078020000C0030055D120001040000052A9
:10221000A57F000005780000800701201004102031
:10222000130674190840000020202000F0B526494C
:102230002448086225480168090A09020160036808
:10224000FF21090203228B4392039B180360046859
:102250000B029C4315026419046004682602360AC6
:102260008C05361906604668360A3602C036466066
:1022700046688E43B6184660466801279E43BF05F0
:10228000F619466046683602360A36194660C66850
:102290008E43B118C160C16899434919C160C168D2
:1022A0000902090A0919C1600169090A0902C03154
:1022B00001610749401708600549064880390860F0
:1022C000F0BD00000000C08000ED00E000E400E090
:1022D00080E100E0E1F0010001228105D203801AD3
:1022E0008003000E82009E48890D8058002800D08F
:1022F0004018704710B5C2B2994B000A4400203B09
:102300001B5B934202D80020088010BD944C8000D3
:10231000603C205880189A1A0A8010BDF8B5914C7C
:1023200060782178000208438F49496AFF228900BA
:10233000890C0132551A022D1AD048DDD600811BB6
:1023400020292ED2FFF704F960782278010287480D
:1023500011434068A2780346803359839A838A1BCD
:102360000121002A08D0152A09D0162A16D109E021
:10237000294600F092F82AE0603041700EE06030AB
:1023800081700BE063221154002162189378421887
:102390006032491CC9B213712E29F6D3FEF765FBD2
:1023A00015E001210903884211D280B26946FFF786
:1023B000A1FF00280BD069460988AD1EA94201DDA6
:1023C00069460D8069460A88A11C06F0DDFB0120E4
:1023D000F8BDF0B50522012404278425644B1207BB
:1023E000012807D00026022810D0042810D0082881
:1023F00010D109E05D4841601760002000BF401C1B
:10240000C0B2C828FAD303E017600CE0002903D05B
:1024100015601C700120F0BD1760002000BF401C3B
:10242000C0B2C828FAD31E70F4E7F8B54E4E403655
:10243000756A0020C043F062E80501D5302021E034
:10244000A806800F1FD0484C6068C007FCD04948E0
:102450000078122803D100210220FFF7BAFF434F72
:1024600028463978FFF75AFF0220206001202060BB
:102470000C2020623B48A0623F4820620020387058
:10248000FF2001303062F8BD70B5384C00256C205B
:10249000656000F043F8257070BDF8B50926044664
:1024A000B6010025801B662804D2FFF71BF800192F
:1024B000801B1EE0012109038C4204D2A0B26946B0
:1024C000FFF718FF15E02D48621A824209D227480B
:1024D0008C424368986B01D015460AE0002B08D166
:1024E000F8BD0120C003201A8842F9D2A0B2FFF73C
:1024F000F3FE0028F4D043191B480421403001604A
:10250000194902220A6101220A61052109078A602C
:1025100083601B490160491E0160F8BD30B584210C
:1025200005221207116001231361002414620E4971
:1025300002250D600B600D610B617F231B021843A8
:10254000D0610C200862074888620B480862064880
:10255000611E4030C162C462E021016230BD0000F2
:102560004C9C0010260D000080000050A4020000CA
:1025700004020000103A000009000001C81C00001D
:102580000900FFFF0120704710B5827B042A01D0AB
:10259000022A21D00023152292060468946144681F
:1025A000D4619360037B447B5B1E1B04641E234346
:1025B000D3600389847B1B04234313614389807B9D
:1025C0001B0403435361012090621060002902D074
:1025D00050680028FCDB10BD0123DCE70121152039
:1025E0008006816201627047F3B583B00E46FEF744
:1025F00079FF292403980025640601280BD00228BE
:1026000009D0032807D0042869D0002001F03FF941
:10261000012005B0F0BD374F31467869009036484B
:1026200006F01CFBE96B0191296C0291216A4908B3
:1026300049002162216A314A1143216230490D6209
:10264000FF22CA623D612F49E9632F492964A168CD
:10265000FE221140A160216A022211432162002161
:1026600000BF00BF00BF491C3229F9D3216A0122F3
:10267000920211432162012767621E494861886105
:1026800007220A610398032816D030460099FDF707
:1026900017FF206A000C00042062206A3843206281
:1026A00065620198E8630298286419481749016037
:1026B000134804210162ABE70098761C0BD0154B40
:1026C000236230BF256251231B061D60486188616B
:1026D0000A61A760DDE70F4B09332362F2E70C497B
:1026E0007D2000010D60A061032060610120606118
:1026F0008EE7000000E000E050C30000A4FB0000F3
:10270000800000520301000007010000E1200000EA
:1027100000E100E0A67F0000FEE710B5FDF7DCFE5B
:1027200010BD10B504F079FD184B194A0021194865
:1027300005F08DF8184B194A0021194805F087F863
:1027400004F08EFD10BDF9215320000641600421E4
:102750000162FF21416200228262C262016370470E
:1027600010B5FFF7F0FF03F007FEFFF786FCFDF75B
:10277000ADFEFFF733FFFFF787FEFFF757FDFEF7CC
:1027800081F8FFF7CEFF012010BD000064140000A7
:102790000990010095090010141900000A2C01008D
:1027A000F90B00100A4603467047FEE730B50246B3
:1027B0000020884C014653569B001B195B684D0056
:1027C000AB40491C1843C9B21029F4D330BDFFB542
:1027D00081B006460D461C4610210A9F039806F05C
:1027E00039FAB878B04254D8F978B14251D3301A96
:1027F000C3B20020E278A17803E09B1A0818DBB28C
:10280000C0B29A42F9D9421E8A18267AD2B29642AA
:1028100004D8701AC0B2421E8918CAB2002D0AD05C
:10282000012D0FD0202A34D320281FD22021081AAE
:10283000C1B200201DE010282BD2102A00D30F2295
:10284000002124E0202824D2102A22D3102804D2E8
:102850001021081AC1B2002002E01038C0B20021D5
:10286000202A01D30F2212E0103A03E00021203881
:10287000C0B2203AD2B20AE0E57866684D437519D5
:102880005E5D039D2E54401C491CC0B2C9B29042EB
:10289000F2D905B0F0BD30B50446002085B02E2C2D
:1028A00004D2102C15D26100012011E01378A3424C
:1028B00011D85578A5420ED30022497A03E0800052
:1028C000401C521CD2B29142F9D8E21A4A4351003C
:1028D000884005B030BD0B46009201AA0021204679
:1028E000FFF775FF01A8FFF761FFF2E730B5044677
:1028F000002085B02E2C05D2103C102CE9D26100AE
:10290000012012E01378A34211D85578A5420ED3C6
:102910000022497A03E08000401C521CD2B291424E
:10292000F9D8E21A4A43510020398840D1E70B46D2
:10293000009201AA01212046FFF749FF01A8FFF7F5
:1029400035FFC6E730B50446002085B02E2C05D2F1
:10295000203C0E2CBDD26100012012E01378A3426E
:1029600011D85578A5420ED30022497A03E08000A1
:10297000401C521CD2B29142F9D8E21A4A4351008B
:1029800040398840A5E70B46009201AA0221204663
:10299000FFF71DFF01A8FFF709FF9AE770B504468E
:1029A0000D46007AA1784018401E06F061F9617A60
:1029B000064608462D3006F051F92E30A870E17811
:1029C00071434118491EE9702E212970401E68701C
:1029D00070BD00005C9C001010B501460120FFF79F
:1029E000D1FD10BD10B501460420FFF7FDFD10BD5F
:1029F00010B501460120FFF7F7FD002010BD10B50E
:102A000001460320FFF7F0FD002010BD7047FF498D
:102A100022200870FE49362008707047F8B58700FC
:102A2000FC48FD4C0D46C059A16806F01FFF009000
:102A3000E16806F01BFF0146009806F00DFD064612
:102A4000284606F003FE61680D4606F0B9FF3146E0
:102A500006F052FF294606F009FF6060009806F074
:102A6000D3FC04460D46304606F0CEFC0022EB4B6C
:102A700006F06CFB22462B4606F07EFB06F09CF926
:102A8000E449C851F8BDF8B58700E248E24C0D466C
:102A90002838C059A16806F0E9FE0090E16806F008
:102AA000E5FE0146009806F0D7FC0646284606F0EB
:102AB000CDFD21680D4606F083FF314606F01CFF70
:102AC000294606F0D3FE2060009806F09DFC0446DF
:102AD0000D46304606F098FC0022D04B06F036FB3F
:102AE00022462B4606F048FB06F066F9C94928390C
:102AF000C851F8BDFFB5054683B010680090069830
:102B00000E4600680C99019000201746085E06F0FA
:102B10009DFDC14C20600D990020085E06F096FDD9
:102B20006060BF480078002804D0F2050120BD494C
:102B3000800702E0BC49BD48F205A160E060B548ED
:102B40002830415D002916D0009801B228B2054610
:102B5000FFF799FF019801B22846FFF75FFF206851
:102B600006F02AFD3860606806F026FD06990860C8
:102B7000002007B0F0BD01214155A64A7F20C005C5
:102B8000A900283A505028325050009806F05EFDB7
:102B90002060019806F05AFD6060E0E7FFB58DB057
:102BA00001200B900A90A248078D790079188909B5
:102BB0000991408D089041004018682106F04EF8B8
:102BC00005909C489C49007840000C5A4018808829
:102BD000049007900F98099906682546B81B88420B
:102BE0000BDAB74201D10B9C06E0611E60434843FB
:102BF000099906F03DF8441C049410990898096856
:102C00000291421A059882420CDA0898884201D152
:102C10000A9D06E0681E6A435043059906F028F8AD
:102C2000451C07950D9824214843844947181820CE
:102C3000385E821B00D5321A1A23FB5E0299591A9C
:102C400001D50299C91A51180E9A08910291D2071A
:102C500020D04E4360438019611806F009F80F999F
:102C6000086010991A20385E0968029A6843514337
:102C70004018A91822E06431002800DA981A584355
:102C800064235A43801805F0F3FF1699088000204A
:102C900011B0F0BD049A4E4350438019511805F00D
:102CA000E7FF0F9908601A20385E0799089A484391
:102CB00010990968514340180799891805F0D8FF01
:102CC00010990622086016980023BA5EC35ED01AD7
:102CD00001D40146CFE7991ACDE7F3B5584885B03E
:102CE0000078002801D0002043E75648C27D0192B9
:102CF000007E02904E48018D00914A008918408D57
:102D00008F09410003904018682105F0A7FF06468F
:102D100005984C490068019A04B20698006805B20B
:102D20001920085600994908002A28DDBC4204DA17
:102D3000E01B50438011C01910E0009A121BBA42E8
:102D400007DAD11B019A009851438911C919401A19
:102D500004E00A1B504305F08BFF001904B2394907
:102D60001A2008563249029A498D4908002A24DD62
:102D7000B5420BDAA81B50438011801917E0BC4202
:102D8000EDDB009AD21BA242E3DAE8E7039A521B7A
:102D9000B24207DA911B029A0398514389118919AB
:102DA000401A04E04A1B504305F062FF401905B287
:102DB000059804600698056095E7B542F8DB039A2C
:102DC000921BAA42EEDAF3E7FFB587B00D46144630
:102DD0001E46119F079806F039FC0090284606F021
:102DE00035FC0190204606F031FC0290304606F09A
:102DF0002DFC0390109806F029FC0490384606F04C
:102E000025FC0590BD422FDD10981DE04D0200000D
:102E10004E02000040190000AC0200000000F03F2C
:102E20002E0200006666863F3333733F0000C040C9
:102E3000B4030000020200000C3B00007C0800000C
:102E400061020000D43A0000001B06F0FFFB0546BB
:102E5000B81B06F0FBFB294606F0FEFA0546009972
:102E600006F04AFD01990FE00798201A06F0EEFBE4
:102E70000746701B06F0EAFB394606F0EDFA0546F8
:102E8000049906F039FD059906F0F0FC074628463E
:102E9000029906F031FD039906F086FD06466800AA
:102EA000000E0FD00121284606F0DCFB0446314617
:102EB000384606F085FD214606F0CEFA06F07CFB8A
:102EC0000BB0F0BD2046FBE7F0B505460E4685B0D9
:102ED0001446981B06F0BAFB009004900A99284605
:102EE000684349430746C81B06F0B0FB01900B98A6
:102EF000801B06F0ABFB029020466043381A06F0B8
:102F0000A5FB0146029806F0F7FC074601990098D8
:102F100006F0F2FC394606F0A9FC00900B98301A36
:102F200006F094FB0190601B06F090FB06460A98A1
:102F3000049F401B06F08AFB0146384606F0DCFC85
:102F400005463146019806F0D7FC294606F08EFC6E
:102F5000012106F087FB01464000000E06D00098D4
:102F600006F07AFA06F028FB05B0F0BD2046FBE734
:102F700070B50022069E049D059C002802D01F28E3
:102F800007D00CE00020285E002800DA2A801A8092
:102F900005E00020185E002800DA1A802A80002947
:102FA00008D0332905D10020205E002800DA2280D5
:102FB000328070BD0020305E002800DA328022802E
:102FC00070BDF0B59446FF4A0026FF4C5569334664
:102FD000E756CA5C3F187F00EF5F5B1C5743BE1982
:102FE0005BB2042BF4DB4200AA5E0B795A439619BC
:102FF0000523E718203F1F22BA5617187F00CA5C26
:10300000EF5F5B1C5743BE195BB2092BF1DB6046D7
:10301000064130B2F0BDFFB5064689B000200890E9
:10302000EA481F46017830460D4605F017FE044673
:103030006843301A85B2701E0A990090701C019086
:1030400000291FD0E04A0321515604238919D35681
:10305000DC489A194069009B76001B04865FDB0BF5
:103060000796019FC65A12046B469E81D20B89B205
:10307000825A1A824900415A3F049982F90B405AF8
:10308000188338E07A7A39463046FFF79AFF07907E
:1030900000987A7A80B23946FFF793FF0146684676
:1030A000818101987A7A80B23946FFF78AFF01461A
:1030B00068460183C5487A7A00783946301A80B26A
:1030C000FFF77FFF014668468182C0487A7A007820
:1030D0003946301880B2FFF774FF01466846018216
:1030E00006AA03A904A86E4607C605AB69B260B27A
:1030F000079AFFF73DFF0B98C00741D06A4614219D
:10310000515E1020079B105E994203DD0B46814201
:1031100000DA0346AE4E994210D183420ED1A00090
:10312000801941681298002C016004D0A9480078E9
:10313000C01E844247D101200DB0F0BDA64A927A4C
:10314000002A09D0A400A21997680097019052683C
:103150003059FFF7B9FE08E0A400A219976800975C
:10316000019052683059FFF72FFE1921890200287B
:1031700001DA002002E0884200DB984812990860DA
:103180000B9880074BD568460C21415E1822079B9F
:10319000825E994203DD0B46914200DA13468C4869
:1031A000C030994211D193420FD1A900081841684B
:1031B0001398002D016004D084480078C01E854219
:1031C00001D10220B8E70020B6E7834CA47A002C96
:1031D00009D0AC002618B7680097019200597268B0
:1031E000FFF772FE08E0AC002618B768009701925E
:1031F00000597268FFF7E8FD7949002801DA0020DC
:1032000002E0884200DB08461399002D086004D0D4
:103210006E480078C01E854201D1022008900898AF
:103220008AE77CB50D462421164648436D496D4A10
:10323000095A82181D201056302250436A4AC90587
:103240008418E08800290196009524DA674B012252
:103250000021FFF7E0FE002801DB012807D10196DD
:1032600000950122E088614B1146FFF7D4FE5F4BC9
:1032700001960095E0880A3302220021FFF7CBFE79
:10328000002801DB02281DD1584B019600950A3316
:10329000E088022213E0554B03220A3B0021FFF78E
:1032A000BAFE002805DB012803D0022801D003283C
:1032B00008D14E4B01960095E0880A3B032201217C
:1032C000FFF7A9FE7CBDF0B5ADB00020299001202C
:1032D0002690FEF707F9002101700746851C417012
:1032E00068460172417242480078002868D041481F
:1032F00027904148002628902420314641433948F0
:103300000191445AFF2002300094044211D060061B
:1033100002D54820A0430CD16846017A2E482B9153
:103320008078814206D32146402001432D4A0198EE
:10333000115205E23148044209D02A48019908187F
:10334000C07F4007800F02D02D49002088552D48AE
:1033500004420ED02348019920AA08181821415E82
:1033600021911A21415E2291C1889182807F26900D
:1033700034E160056FD51B49019844181D20205683
:103380003021484318494018C088C1B20F482391E2
:10339000017824912A91239805F060FC2A9902462D
:1033A0004A432399891AC9B200282FD0094A1278B2
:1033B000D21E90422AD0002928D02498C01E23E093
:1033C00063E2000060080000450200004E020000B9
:1033D0006C9C00104D020000103A00007662000064
:1033E000FF9F00007C080000680400007E9E001023
:1033F00004020000683A0000D403000048080000FE
:10340000681900000C0A000081420ED16169FD4874
:10341000002908D00121009C89028C4320210C4303
:103420000199445215E0012009E0F849F64A09786B
:1034300060695118097DF34B884202D2401C6061DB
:103440007EE10120009C80028443202004430198F7
:103450001C5201202690EB48019909181D2000916B
:10346000085630214843EA4941180A202391085E52
:10347000C1B22991E1050BD423998989490707D461
:10348000E249E44A097851182031897A884243DCBC
:1034900022AA21A93046FFF7C4FE2C9023980621CA
:1034A000415EDD48249101782A91249805F0E0FBE3
:1034B0002A9AC0B224994243891A2C9AC9B2002A86
:1034C00021DA239A9289520711D5D44A80008018B4
:1034D00042682898407D02418800D0492192C0313D
:1034E000401828994068897D0841229006E0239879
:1034F0002821415E21912A21415E2291E00512D5C9
:10350000022026900FE02898417D219808412190C3
:103510002898817D2298E7E723982821415E219110
:103520002A21415E229122A921A8FFF7D6FB2198EA
:10353000002801DA00202190B948219A018D91429A
:1035400001DC491E21912299002901DA00212291F2
:10355000408D884201DC401E229023984169AB488F
:1035600000784200A848805E091A09114000081836
:1035700000B220A98882FF2800DDFF208882009900
:103580004969012917D000998A890A8200990A8914
:103590008A810099CA894A8200994A89CA81009918
:1035A000219A4988511A009A11810099229A898892
:1035B000511A009A51812199009A09B25180229A98
:1035C000009B12B29A80A30608D5009B198300992C
:1035D0004A830099C880009926988877894801997C
:1035E0001A23081823901821415EC35E219A22985D
:1035F0008A1A181A5243404310182A902698012814
:1036000016D18248804A00781018203080792A9A92
:10361000404390420CDB2398C07F022801D006284B
:1036200006D1219123981A21415E002022912A90EF
:1036300000202490200701D510202490A00602D558
:10364000042124983DE0239808210A22415E825EED
:10365000881800D54042962809DB23980C210E22B9
:10366000415E825E881800D54042962815DA25A86A
:10367000009022AB21AA21463046FFF78FFA23990A
:1036800023981A3118300191009022AB21AA2146CB
:103690003046FFF72FFA032000E014205A4908763D
:1036A000279A107648762799487658485D490078D9
:1036B0004000401801892A984943814203DC24983C
:1036C00008210843249058488178002958D145E0C2
:1036D000002200E0299A6B46197A0C2359430918F5
:1036E0000A812499022211436B461A7A0C235A4309
:1036F00012189172E10501D5022200E0012269460B
:10370000097A0C2359430918CA726946097A594340
:10371000081806736946087A401C08722399219894
:10372000088323992298488320A8818A2398C180FE
:103730002398269981772498022108432399C877F2
:10374000761CF6B20F2E00D2D6E53849087900284B
:103750003CD0334A0020168D02AA33E02499490751
:1037600002D5C17900290BD02499C90602D5417A26
:10377000002905D024990907D0D5007A0028CDD199
:103780002B990C20414302A80918219A4A806A46C5
:10379000127A0C235A4312182299918020AA1421DC
:1037A000515E6A46127A5A431218D180002991D18B
:1037B0008EE70C2343439C186388F31A5B1E401C5E
:1037C0006380C0B26B461B7A8342F2D848790028E6
:1037D00012D0134A0020538D02AA09E00C26044699
:1037E0007443A418A6889E1B761E401CA680C0B2F7
:1037F0006C46247A8442F1D8C878002825D000206D
:1038000002AA1EE07C080000843A000002020000C8
:1038100068040000483A00004E0200006C9C001052
:10382000B40300000C3B0000C83A0000103A00004E
:103830000C21414389184B888C884C80401C8B801C
:10384000C0B26946097A8142F2D8694600200A7AF4
:1038500017E00C21414302ABC9184B882B808B88A1
:103860006B80CB88AB800B89AB718B7AEB71CB7A99
:103870002B72097B697239780A35491C401C3970F2
:10388000C0B28242E5D80020385E2DB0F0BD0028DD
:1038900000D1FEE770470000FCB53420009041489D
:1038A000362500783E4F41003F480818408A6C0199
:1038B000019000203B4E41003678CA190023B646DD
:1038C00076001946B44605E04E00965F002E00DDF6
:1038D000F3184919A142F7DB01998B421ADB3249EF
:1038E00066467618F6887144897B5E430E41B6467B
:1038F00000210DE04B009C46D35E002B07DD764691
:10390000734501DB9B1B00E0002366469353491976
:10391000A142EFDB401C0099C0B28842CAD3FCBD73
:103920007047B9E7F8B51E483424864620208446FF
:103930001C483627007841001B480818C08A0090B0
:103940000020014679434A007146531800210A4677
:1039500055005D5F002D00DD6918521CD2B2A242F5
:10396000F6D3009A914216DB0E4A0F4D167872007C
:10397000521952894A43A919097C0A4100214E0073
:103980009D5F002D03DD954201DBAD1A9D53491C5F
:10399000C9B2A142F3D3401CC0B26045D1D3F8BD37
:1039A000003C0040020200002C3A0000FE48FD49A5
:1039B0000160FE49C160FE490161FE494161FE4965
:1039C000C161FE498161FE49CA8802850989418534
:1039D0002021203041743421817404214175817586
:1039E000F84836218180F84901607047F54AEE4871
:1039F00006CA82604160F549F54B09784A00D21841
:103A000092888285F34A1288C285F3484118E648B5
:103A10008A792030C27409790175F049898A017464
:103A20007047F0B58446E3B08E461446002030213E
:103A300003464B4361465A189189C90720D05689DD
:103A4000470040ADEE53870034AD5669EE51C500D6
:103A500004AE91697619D76982C61CA94D19166AF8
:103A6000576AC0C5957856A90D54D5785CA90D54F0
:103A70006146CB5C59A90B5452785FA90A5403E004
:103A80000021430040AAD152401CC0B20C28CED322
:103A9000714600208A780BE083007344597946AD63
:103AA000491E295419794EAB491E1954401CC0B205
:103AB0008242F1D800216EE04EAB46AD5E5C685CA0
:103AC000B446B04265D0654640AB6D004700AE4697
:103AD000DE5B5D5B7519DD53002675465E5334ABC6
:103AE00066468700B600DD599E59AD19DD51C30009
:103AF0009E4604AD7544664628CDF60004AFBF1956
:103B00000096C0CF9E197D4104AF77443E607D6032
:103B100073461CADEB181F685D68009E1CAB9B19BB
:103B20001E685B68BE195D4173461CAFFB181E60C2
:103B30005D6056AD63462E5CEB5C9E4200D22B541A
:103B40005CAB65461E5C5D5DAE4200D21D5459AB58
:103B500065461E5C5D5DAE4200D91D545FAD634697
:103B60002E5CEB5C9E4200D92B54481CC0B246AB85
:103B70004EAF0CE01E5C7D5CAE4201D15E5C1E541B
:103B80003E5CAE4201D15D5C3D54401CC0B28242FD
:103B9000F0D8491CC9B28A428ED8002727809048A5
:103BA00060803846632640AB34AA4100595A002948
:103BB0000BD02588A94201D9218006466588A942F3
:103BC00003D2618081005158A160401CC0B20C2812
:103BD000EBD3632E50D0B00015585CA86560805DB3
:103BE000A07356A8805D20735FA8805DE07359A81C
:103BF000805D60736C48002120300290407C2A4632
:103C0000EB1704F036FF0090F000019104A9039037
:103C10000918654E03C9328D002304F02AFF019B69
:103C2000009A04F079FF00B220820090019002987F
:103C30000021807C2A46EB1704F01BFF0546029109
:103C400003981CA9091803C9728D002304F011FF01
:103C50002A46029B04F060FF01B2618201980028AD
:103C600001DA278205E0328D0098904201DB521E76
:103C70002282002902DA678263B0F0BD708D814232
:103C8000FADB401E6082F7E7F0B5564B00241D7842
:103C90005E7827E02F19BF00FF187F798F421FD170
:103CA0002C1964B2A500ED180626AE5F964200DA24
:103CB000EA80002C13DA9C781E2C10D2A400E418A1
:103CC000E2809A789200D218107198788000C0181B
:103CD00041715878401C58709878401C9870F0BD1D
:103CE000641CE4B2A642D5D8E5E770B53025694337
:103CF000C46830396118048908255443E418CC801D
:103D00000024E4430C8101248C818A700A700A71BA
:103D1000CB704B704B71455F5E0055436D00406842
:103D2000AD19405F304D9200521948615268054606
:103D30005543EA178D61CA619A002C4BD21852681C
:103D40005043C2174A6208624C8170BD0022254967
:103D5000012803D0887808704A7070470A70FBE722
:103D6000F0B50446A9B000200B9020892146C0B2CE
:103D700020311C90887C0025821CD6B22268101845
:103D8000C01C2690606920902069119015488570AC
:103D9000487C2590887C24900F2189012068FCF7BD
:103DA000EFFB25E090280040B40300006804000009
:103DB000A8060000FC06000050070000D80700001D
:103DC000103A000034020000003C004002020000F3
:103DD000843A00000A020000AC3A0000D43A000025
:103DE0002F750000EC0300006C9C00102C9D00104F
:103DF000002081002269401C55506269C0B25550B4
:103E00001528F6D300203022424300230C32E1680B
:103E1000401CC0B28B520C28F5D3002092E11C99B3
:103E2000626848434000101828901199209820910A
:103E30001190002001468300119A401CC0B2D1505D
:103E40001528F8D3099926987143401E08181F9029
:103E500000206FE11F982E22401C1F900A98A25E3E
:103E60004100289809180020085E82427EDC209BD1
:103E70000A9A9A185378002B78D11C9B1E275B0056
:103E8000CD1A0E932B46203BDF5F8742EEDC0023EA
:103E9000EB5E8342EADC0223EB5E8342E6DC0B4608
:103EA000203B1E255D5F8542E0DC0223CB5E834222
:103EB000DCDC012393700E9A1E2752181546203D14
:103EC000EF5F8742D2DC0A9F119DEB550E9D495F43
:103ED0008142CBDC0A9D119949194B700225555F2F
:103EE0008542C3DC8B700B980C287DD2401C279038
:103EF000C0B208900B98E1683022504308180B902C
:103F000001200F90A16909980870E1690A9808706A
:103F10001F990898087000250898FFF717FF08A94F
:103F20000EC92046FFF7E1FE03E0802801DB0546CD
:103F3000F1E0A069425D1D92E069425D21921D9A07
:103F40001C98269B5043219A4000510040186168FC
:103F50001D9A401831465143219A9A188918002217
:103F6000825E6D1C0D922DB20E9A00E0DFE0821A87
:103F700013920E9B8F191B189C461493831E801C52
:103F800016901593481E8B1B0290491C901E03919E
:103F900017906046801E189060460197801C1A900A
:103FA000581E0093921C0490781E5B1C19927F1C73
:103FB00005A989C1002007462290B80084466946B9
:103FC0000858017800290ED0089881420BD062462B
:103FD00013A880580022825E0D98824200DD0246BE
:103FE0000898FFF751FE00E09DE0604613A90858CD
:103FF0000021415E0D98814208DD604669460858FF
:1040000001780898814201D0012022907F1C7FB264
:10401000082FD2DB229800287DD181006A465258B1
:104020001378002B73D113AB5B5800219C46595E6B
:104030002E23E35E99426ADB0D9B994267DC089967
:104040001170F8490A5C1D9951184BB2A2690F9979
:104050009E465354F4490A5C2199511849B21B9168
:10406000E3690F9A99540F996346491C09B20F915D
:104070000B99002249699A5E73468A180B994A6126
:104080009900EA4A6346891800229A5E49680B9FA4
:104090005143BB69CA17FF69C9180B9B7A41DA61A2
:1040A00099611B99E24A8900891862460023496890
:1040B000D35E0B9F59433B6ACA177F6AC9180B9B93
:1040C0007A415A6219620B990B9A4989491C5181AC
:1040D0000B9902228A567346724500DA8B700B994F
:1040E00000228A567146724501DD0B9A11700B99B8
:1040F00003228A561B998A4201DA0B9AD1700B99D6
:1041000001228A561B998A4201DD0B9A5170401C8C
:1041100040B2082881DB0F98854200D005E7279838
:10412000C0B20B9003E02598099024980A900A9851
:10413000401CC0B224990A90884200D28AE60998AD
:10414000401CC0B225990990884200D267E6B94A5E
:10415000B949E068FFF765FC0B9829B0F0BD30B5B0
:104160003024D3686043C0180624045F526863009B
:10417000D55E4B00D35EAB4202DB0481C18030BD13
:104180000824045F002C03DB6400125F9342F6DD19
:10419000018130BDF7B584460C4602983025C368CE
:1041A000614630206C434143A646CA18E418506962
:1041B0006569401950619069A669D569E7698619F2
:1041C0007D419661D561106A266A556A676A8619CB
:1041D0007D4116625562D089E5894019D081108AE7
:1041E000258A40191082508965894019508190892B
:1041F000A589284390810020A08102200225105625
:104200006557A84200DA95700325032055572056BC
:10421000854200DAD07070465D561856854200DD42
:1042200058540121012051562056814200DD507022
:1042300006216046615EC0B2029AFFF790FF082136
:10424000615E002904DB6046C0B2029AFFF787FF77
:10425000FEBDF7B58CB00C980C460C9A0021C568D1
:10426000203275480A9209E08A00121813795B1E01
:10427000137153795B1E491C5371C9B282788A420B
:10428000F2D8BDE00020844610793021484340191F
:10429000418950793023584340194089081881B228
:1042A000042010560490052010560590012032E09D
:1042B000614A83009A1813793026069373435B1979
:1042C0005E895379302707937B435B195B89F31829
:1042D0009BB28B4208D219460423D356049305237C
:1042E000D3568446059314E08B4212D1049E069B5C
:1042F000514FB3420DD1059E079BB34209D106230E
:10430000D35E62469200D2190626965FB34200DA67
:10431000D380401CC0B2484A93788342C8D86046D4
:10432000810010460F1804260520BE57385601900C
:1043300086425AD00C9806224168302070434019BA
:104340000490825E30235000019A085E5A4352194D
:104350000623D35E94465A00895E884200DD0846F3
:104360000A99C97C41430A98007D01410620385EC4
:10437000814214DD049841690C98808D81420EDDE4
:104380006146496981420ADD60460A21415E04981E
:104390000A22825E0A988918007C814225DB314618
:1043A0000C9A0198FFF7F6FE2349641E8878E4B260
:1043B000800040180288BA804088F8808878401EC3
:1043C0008870019A0020D3B20BE08200521817794E
:1043D000B74200D113715779B74200D15371401CD5
:1043E000C0B28A7882420BD9EFE7134881788900FE
:1043F00009180A88BA804988F9808178491E817035
:104400000D4A9078002800D03CE72746002622E09D
:10441000384630214843401901908089C00716D1A1
:1044200017E00000160200001E0200006C9C001045
:104430002C9D0010A0030000EC030000304630214A
:10444000484340198089C0070CD0761C76B20C2EE8
:10445000F4DB7F1CFFB20C2FDAD300200E99074645
:1044600008604DE030207043401930220199FCF77C
:10447000E9F800200199761C888176B2E9E73020BE
:1044800078434619B089C00738D072690492029205
:10449000D317F169B06904F03FFB0A9A527D04F02A
:1044A000D5FA00B2308503900190029A716AD31751
:1044B000306A04F031FB0A9A927D04F0C7FA01B227
:1044C00071850198002801DA002005E00C98039A14
:1044D000008D824201DB401E3085002901DA002078
:1044E00004E00C98408D814201DB401E70850E98DF
:1044F00001680498814201DA0E9908607F1CFFB2BE
:10450000A742BCD320460FB0F0BD00005A4800219E
:104510008170491EC1700171417181710A21574A30
:1045200006230161D380917355498A8902810A89E2
:1045300042810988818153490988C1817047F0B55A
:1045400001460020012922D04B4B002119704E4A10
:10455000504D14884D4A4E4F2D8824234B43D65A34
:10456000F6050FD59E181D23F35630267343DB192D
:104570000A269E5FA64205DC5B69AB4202DC3E4E2A
:1045800001203070491CC9B20F29E6D3F0BDFFF7F6
:10459000BDFF0020F0BDF0B5012817D036493E4ED2
:1045A0000B461C6905258F785D5734480A22641C28
:1045B00036780023002F0AD0012F2CD0022F05D1EE
:1045C0000C61002D2FDB012088700B61F0BD0C61A8
:1045D000002D05DB01248C700624C4808273F4E76F
:1045E0002E4B1B78002BF1D00223002E8B7004D0B1
:1045F0001821C1808273428205E00621C180FF211B
:104600008273913141827D211D48C9000161018879
:1046100023484181F0BD0B61002DFBDA8B70062130
:10462000C1808273F0BD1E4C2579002DFAD1002E79
:104630008B7003D01825C580827304E00625C580E1
:104640008273FF22913242820D480A8982814A890F
:1046500002818A8902800B4DCA892A80114A02612F
:10466000114A127880182030007A60810F4A0520A4
:1046700010724B70F0BD0000BC0200002C3A00002C
:10468000483A0000843A0000140200007C08000050
:104690006804000012020000030200002E02000065
:1046A00060080000B80B000002020000003A0000A1
:1046B000F8B50024FE4F1D2625467601E0B23946A6
:1046C000FDF7DFF800228554521CB242FBDB641C6C
:1046D000042CF3DBF8BD10B5FFF7EAFF3821F548ED
:1046E00004F0BAFAF3480121203081740022C27428
:1046F00042758175C175F04868238381EF4BF04C9A
:104700001B7803753423437401740460EC4CA034AB
:104710004460C381EB4B1B7843828260EA4801709E
:1047200010BDF0B5438A81685B4300292AD000227E
:1047300024E081890468514361188C46C18944682A
:104740005143651884686618002112E0745C002CDF
:104750000DD14C0067463C5F64439C4201D9002464
:1047600004E06C5C077DA74201D9641C6C54491CB1
:10477000C9B2447C8C42E9D8521CD2B2017C91422D
:10478000D7D8F0BD00221DE0818904685143661826
:10479000C18944685143651800210EE04C00345F24
:1047A00064439C4201D9002404E06C5C077DA7426D
:1047B00001D9641C6C54491CC9B2447C8C42EDD8AC
:1047C000521CD2B2017C9142DED8F0BDF0B5BF4898
:1047D00087B0027A69460A7520220A74002400888C
:1047E000732748822646BF0121463420FCF752FF3A
:1047F000C107C90F0918CDB2694648743946204629
:10480000FDF73FF80090680069468881A849204676
:10481000FDF737F801906946CD8168460296FFF7AB
:1048200080FF641CE4B2042CDED307B0F0BDA148C5
:1048300000212030C1757047F7B5A54D83B0690CD4
:104840008E4600218C460C4600910B4601913EE0BD
:1048500081880268594351180022029132E002997E
:104860005700C95FA94201DD0D4602E0714500DA3B
:104870008E46C7888F420CDC66467618B446049F85
:104880009600BF59641C7918049F24B2B951049949
:1048900011E00827C75F8F4212DB009F96007F1848
:1048A0000097019F7F1C3FB20197059FBF597F185A
:1048B00005998F510599FF3141310F687F1C0F60B9
:1048C000521CD2B2C17A9142C9D85B1CDBB2817A48
:1048D0009942BDD8C1684D81C26871461181C268D4
:1048E00061461160C26800995160C1688C81C068DE
:1048F0000199C18106B0F0BDF0B589B014461F46DC
:1049000020236A46937204AA03926A461181D080DA
:104910000020E081A0816E496181490C21816060A5
:10492000014620608A00B8500E9B491CC9B29850BD
:104930005029F7D900252E4603990020C8810399F4
:104940008881039A62495181039A490C1181039924
:1049500048600399086029463420FCF79BFE014615
:104960006846C1725B492846FCF78BFF0090684699
:10497000C07AC107C90F40184100684681800E996E
:10498000B0004218C1196846FFF756FF6846C07A62
:104990000A228019C6B268461A21A25E415E8A4286
:1049A00000DA6181024608211820615E105E8142B2
:1049B00000DD2081E189D08B6D1C0818E081A18980
:1049C000908BEDB20818A0812068049940182060EF
:1049D0006068059940186060042DADD309B0F0BD42
:1049E00010B5354886B01830384A009002210420AE
:1049F000515E105E384B01AAFFF77EFF01A91EC968
:104A000036481EC006B010BDF8B58E4600234AE0F9
:104A10000421415E0268594356181421415E02691F
:104A2000594354180C21415E82685943551800229D
:104A300034E0AF5C017E8F420CD35700BC46F75F79
:104A4000002F07DD0021A9546746E15BF75BCF1B10
:104A50006146675271460F2911DA5700F15FBC4673
:104A6000009100290BDAA95C077EB94207D367469B
:104A7000E75B0099791A6746E1530027AF5418495C
:104A80000979002908D15700BC46E15BF75BC91BD7
:104A90006746E1530027AF54521CD2B2C17D914208
:104AA000C7D85B1CDBB2817D9942B1D8F8BD00004C
:104AB000202B0000980A000078190000CD9E0010FD
:104AC000705B0040CE9E001060020000003A0000C3
:104AD0000180FFFFF0230000D41A0000D00A00007C
:104AE00060080000F0B58E46002427E00C21415EEE
:104AF000826861435118059E00225D1E8C46761C1B
:104B000017E0877D7F1CA74211D3AA420FDBB24278
:104B10000DDC714600290ADB079FBE4507DC002B30
:104B200005DB069FBB4202DC002761468F54521C06
:104B3000D2B2C77D9742E4D8641CE4B2817DA14221
:104B4000D4D8F0BDF7B58AB004460D4600210C98C4
:104B5000FCF7A0FDF749087001210C98FCF79AFDBD
:104B6000F549087002210C98FCF794FDF349087090
:104B700003210C98FCF78EFDF1490027087068B2FC
:104B800007900C9840B20890384624214843ED49DC
:104B90000246885A830705D1830603D4030601D44D
:104BA000C0057DD551181D2008563021E64B4843DD
:104BB000C11803251B56022201204D5708568A565C
:104BC00003A90DC12E460B2802DC002006901FE031
:104BD00001460C390B2906D80120069048B20390F3
:104BE00028460C3813E0014618390D2906D8022052
:104BF000069048B203902846183808E026380E2858
:104C000006D840B20321039028460691263846B2C2
:104C100006990C98FCF73EFDC107E075C90F4018D6
:104C2000C0B20090C9490698FCF72BFE2060C84925
:104C30000698FCF726FE2061C6490698FCF721FE7F
:104C4000A06000984000A080A0820098A0810899F0
:104C500007980096019102902046039B049A0599BB
:104C6000FFF740FF0698002808D10B2D06DD012034
:104C700006900020039028460C3846B206990C98FE
:104C8000FCF708FDC107E075C90F4018C0B20090DD
:104C9000AE490698FCF7F5FD2060AD49069800E0A6
:104CA00080E0FCF7EEFD2061AA490698FCF7E9FDDB
:104CB000A06000984000A080A0820098A081089980
:104CC00007980096019102902046039B049A05994B
:104CD000FFF708FF0698012808D1172D06DD0220EE
:104CE0000690002003902846183846B206990C9882
:104CF000FCF7D0FCC107E075C90F4018C0B20090A6
:104D000092490698FCF7BDFD206091490698FCF792
:104D1000B8FD20618F490698FCF7B3FDA0600098AC
:104D20004000A080A0820098A08108990798009672
:104D3000019102902046039B049A0599FFF7D2FE49
:104D40000698022807D1252D05DD032006900020B6
:104D5000263D6EB2039006990C98FCF79BFCC107A8
:104D6000E075C90F4018C5B278490698FCF789FD6F
:104D7000206077490698FCF784FD20617549069804
:104D8000FCF77FFDA0606800A080A082A581089943
:104D900007980096019102902046039B049A05997A
:104DA000FFF7A0FE7F1CFFB20F2F00D2ECE60DB084
:104DB000F0BD0FB4F0B587B01B9D1D9F6A682968D0
:104DC0001C9B891818AA1279002094000DAA115171
:104DD00018A9097905240E1B76B2002E01DA0C36CB
:104DE00076B2B60096593618601C081840B20C28E6
:104DF00001DB0C3840B280001058301A641E2406C3
:104E0000240EE8D1491CC9B218AA11710C2901D38A
:104E100000211171002B35D14F49884201DA012060
:104E20009071684687754D483422017A684601764C
:104E30002021FFF787FE454E21461E98FCF72AFCED
:104E40006946C875C107C90F4018C7B23146204628
:104E5000FCF717FD00903E492046FCF712FD049038
:104E60003C492046FCF70DFD029078006946888099
:104E700088828F8168462968FFF7C6FD641CE4B20A
:104E8000042CD9D338220DA90C98FBF7DBFB07B013
:104E9000F0BC08BC04B01847F0B5314E3148346856
:104EA000314B0122844206DDB0897D21C900884250
:104EB00001D95A70F0BD2D480021C17401750A272F
:104EC0007568F75F2A4EBC4637782A4E6419F66833
:104ED000002F08D0002C03DAB54201DA012400E0EB
:104EE0000024C47410E0002C03DAB54201DA012476
:104EF00000E00024C474204C24882D2C04D964467E
:104F00003C2C01DAC27402E0C47C002C38D08175DC
:104F1000447D032C02D8641C447533E0C47C002C0F
:104F200004D05A704175154802702BE0134B19706C
:104F3000417527E00502000006020000070200009C
:104F4000080200007C08000068040000F023000054
:104F500090150000202B000018FCFFFF003A000015
:104F6000D00A0000A0860100400B0000B80A000033
:104F700002020000D43A0000A00300002F0200004B
:104F80004175827530480079002893D12F4802700E
:104F9000F0BD70B5049CDD0703D0002C01D05B1C74
:104FA000DBB25A43002307E09C005E000D59865F88
:104FB000AD195B1C0D519BB29342F5D370BDFFB58B
:104FC00081B005460A9A0E460B98D10703D00028F7
:104FD00001D0521CD2B253431FB2002409E0A000FA
:104FE00028580399C00003F043FE6100641C70520E
:104FF00024B2BC42F3DB05B0F0BDF0B5069C059DC4
:105000008C46002C1CD000240BE0115D994207D384
:1050100066006146875B895B7918815300211155D1
:10502000641CAC42F1DBF0BD115D994207D3660010
:105030006146875B895B791A815300211155641C95
:10504000AC42F1DBF0BD0000600800002F02000060
:10505000FE48FF4902888A804288CA8082880A8185
:10506000C2884A8102898A814089C8817047392271
:10507000F848514201708911417037218170C9434C
:10508000C17038230371491C417101218171C271C2
:10509000704730B50446F14AEF48002310601371A1
:1050A000581E5071D3600120136110720520907159
:1050B000EB48D3710D460078EA4928182030007A71
:1050C0005081937620880880E749002024224243BB
:1050D000401C8B520F28F9DBFFF7C9FFE34804603F
:1050E000E3480560FFF7B4FF30BDF0B50446E14882
:1050F00087B00778E048DA490678D84877434569A9
:105100006000285E059009784A00D949096851185D
:1051100004228A5E90427DDA3146204603F09EFDED
:10512000701CC9B284420BD07000821EA24207D00C
:105130003A1A531CA34203D0BB1B9B1EA34201D1AE
:1051400003230BE0A04206D8A24204DD012902D9C4
:10515000B61EB14201DB052300E00823002007460C
:105160006946BC4A125612195200AE5E42008E5277
:10517000002E00DA8F52401CC0B20828F1D30598E7
:1051800008820020024601E002460AE05400661848
:1051900002270D5FF75FBD4201DD0F537580521C82
:1051A000D2B2082AF2D3401CC0B20828ECD3082B94
:1051B0001ED0AB48AE490078096880004418052B22
:1051C00068463BD00C210A22415E825E102389187A
:1051D0000E22825EC35E491CD0187D22D20050434D
:1051E00003F03CFD216A814226D8012007B0F0BDC2
:1051F000084600210222415E825E06238A180421AD
:10520000415EC35EC81811180A2268460C23825EEC
:10521000C35E00E010E0D2180E231024C35E045FCA
:10522000491C181910187D22D200504303F016FDB6
:10523000924909688842D8D20020D7E7062108227F
:10524000415E825E0E2389180A22825EC35E89183F
:105250000C22825E491CD2181023C35ED0187D2216
:10526000D200504303F0FAFCA169BCE770B53021CD
:10527000484383494418834960690979002921D149
:10528000764D0A21695E81421CD87F4A0421515E15
:10529000814217D310460A212030615E807A814214
:1052A00010DCE088FFF721FF00280BD00621615EAB
:1052B00068694900405E0A21695E884202DB7348E2
:1052C0000021C17570BDFFB50022134669468B549D
:1052D000521CD2B20F2AFAD3FF2600228436624C27
:1052E000012724235343E55A354203D01B192033A9
:1052F0001B78CF54521CD2B20F2AF2D300280BD005
:1053000009200A5C002A04D0401E40B20028F8DAC6
:1053100009E0C0B204B0F0BD0A5C002AFAD0401C1B
:10532000C0B20A28F8D30020F4E7F1B54B490420B5
:1053300008568AB008900F287EDA002424204A49B3
:105340006043085A002803D0641C64B20F2CF5DBBC
:105350000A98302148434A49062745184648EF5FD6
:1053600001783846009103F083FC46B20098704300
:10537000381A40B202903D4801683948007842002E
:105380005318002E0CDD3B490978C91E8E4207DAFE
:105390000299002904DD0F460099C91E8F4202DBE5
:1053A0000899002909D00421595E6F698F4232D3D0
:1053B0002A4E3069002804D006E00421595E4910C5
:1053C000F3E73348006830610520305600280CDAD6
:1053D000204624214843244974712E4A0A52F07908
:1053E000002807D10120F07104E0022224201E4988
:1053F00060430A520020FFF766FF24211A4A6143E6
:105400008918203108704B20C000874202D3B07E3B
:10541000401CB07682E01B490979002970D10F4900
:105420000A23CB5EBB426BD811490423096852188A
:10543000D35EBB4264D300E08CE008180A2220301F
:10544000AA5E807A82425BDCE88825E0843A00002C
:10545000D002000045020000CDAB3412600800000D
:10546000020200000A0200007C080000580200004E
:105470005C0200004D0200004E0200002802000005
:1054800068040000C83A0000483A0000B80A00006A
:105490000C3A000001040000FFF727FE002856D058
:1054A000FA4F0622AA5E79695200895E0A22BA5E24
:1054B00091424CDB204624214843F5498022069046
:1054C0000A52F448F54B0178F3488A000068121834
:1054D00012691A600122F24B002E1A700CDDF14A9B
:1054E0001278D21E964207DA029A002A04DDEE4BA9
:1054F0001B78DB1E9A4204DB49000818818902E010
:1055000025E04900415A7981FFF791F90120FFF721
:10551000DAFEDF4A069989182031087024204443B6
:10552000DB480A992018417701214161002101815E
:1055300041818181C18101824182298D4180698DB2
:1055400081806969C180D1480179491C01710A983B
:10555000FFF78CFE0BB0F0BDF0B52421CC4A4843D8
:10556000841861693023491C61610021C943617756
:10557000115A99430123DB02194382230E461E4030
:10558000C24B11521D796D1E6DB2002E03D0002149
:1055900011521D71F0BD8126B6000F46374220D052
:1055A000217FBC4F491CC9B22177C04C3F78246889
:1055B000E419247EA142EDDB115AB14311524C068D
:1055C00009D5002111521D711A2018560028E1DD5D
:1055D000401E9876F0BD0824214311520220D87154
:1055E000F0BDCD070123002D01D0042503E0CD053A
:1055F000F6D501256D02294311522377F0BDF1B58F
:1056000094B0149C2420A2494443085B83221201D5
:105610009043085382070D909C480523C3560F936F
:10562000C0799A4B0E90042018561290401E40B23A
:1056300010901A2018561390401E40B21190084640
:105640002518002A33DA1D20285630225043984A64
:105650008018426918461823C35E9A4221DB6A69A2
:10566000521C6A610F9B002B12DB83799A420DD387
:105670000A5B02239A4321231A430A538D4A642169
:1056800011700E99002901D10121C17115B0F0BD31
:105690000A5B02239A43884B1A430A5314994171B7
:1056A000EFE700220A53EAE011998176EEE70D98C0
:1056B0000106784800780A904300774802680A9803
:1056C0000C9210182030069078489E1800680990B7
:1056D0001F1874480078C01E059073480078009029
:1056E000C01E089000297DDA1D21695630204143F3
:1056F0006F48062208180990825E029210460099AF
:1057000003F0B6FA009940B2029A4143511A5F4B36
:105710000A229A5E49B21346002807DD059A904294
:1057200004DA002902DD0898814204DB129801287E
:1057300001D10C23F35E09980422BA5E4069544FEC
:105740008021984238DB0423F35E984234DC099BC5
:105750000A269E5F069B9B7A9E422DDC6B6938462B
:105760005B1C6B610A9D494AAF000C9DD6687D1990
:10577000ED6AAE4207D2514D2D78002D06D0504D26
:10578000AD89322D02D2069DAD7D01E0069D2D7DB5
:105790009D428BD8035B8B43FF2121310B43035385
:1057A0000E98002801D10120D0711298012800D054
:1057B0006CE700203F4909E13B4690421ADB0D9817
:1057C000884318530F9A3149002A10DA149A4A7103
:1057D000394A384B104338530120642268611A70EB
:1057E0000E9A00E009E0002AE2D1C8714EE70221DA
:1057F000084338530120686148E70D99490762D58D
:1058000068691D21401C6861695630204143284861
:10581000062608180390865F0099304603F028FAA0
:10582000009940B24143711A49B2002807DD059A38
:10583000904204DA002902DD0898814202DB0C2143
:10584000795E01E00821795E039A114852698A4223
:1058500002DB015B042265E0297F491CC9B229777C
:105860000A9B099AD218127E9142A1DB015B0422A5
:10587000914301534A066DD5002101530348109905
:105880000171139900291DDD0EE71CE0600800007E
:105890007C080000020200005C02000028020000F8
:1058A0002D0200004D0200004E02000058020000D0
:1058B000680400002C020000010400004402000003
:1058C000D00A0000E2E60D99890549D568691D21D5
:1058D000401C6861695630204143FE48062708187D
:1058E0000990C75F0099384603F0C2F9009940B2A9
:1058F0004143791A49B2002807DD059A904204DA3B
:10590000002902DD0898814202DB0C21715E01E072
:105910000821715E099AF04852698A4205DB015BF1
:105920000122520291430153B0E6297F491CC9B2BA
:105930002977069A127E9142C4D3015B012252025A
:10594000914301534A0605D500210153E3481099BC
:1059500001719BE60822114301530220DF4944E70D
:105960000D99C90734D068691D21401C68616956CA
:1059700030204143D748062608180390865F0099D7
:10598000304603F075F9009940B24143711A49B2AB
:10599000002807DD059A904204DA002902DD089804
:1059A000814202DB0C21795E01E00821795E039AD5
:1059B000C94852698A4202DA015B042272E004207B
:1059C000385E40008242AFDCC549012008705DE6C8
:1059D0000D99C905A8D568691D21401C68616956E3
:1059E00030204143BB48062208180990825E02928B
:1059F0001046009903F03CF9009940B2029A4143E5
:105A0000511A4AB200280ADD0599884207DA002AAD
:105A100005DD08998A4202DA1299012902DD0C217A
:105A2000715E01E00821715E099B0A269E5F069B5C
:105A30009B7A5B1C9E4228DD002807DD0599884281
:105A400004DA002A02DD0898824202DB0C21795E2A
:105A500001E00821795E099A9F4852698A4214DB65
:105A6000035BFF220132934303530F9E9B4A012E97
:105A700008DC149B5371012303530E98002804D1B2
:105A8000D37102E00222134303531D22AA5630238E
:105A90005A43904B9048D21852698A4297DA015B78
:105AA000012252021143015301202877EEE5F0B59F
:105AB00000208949ADB00446242242438B5A1D0779
:105AC0003CD55D061AD50825AB438B52834F052282
:105AD000BA56824232D10022D2437A71002248263D
:105AE00024235343CB5ADD0701D0334204D0521C48
:105AF00052B20F2AF4DB21E07A711FE0774D8C520D
:105B00002A79521E2A711A22AA56002A01DD521E33
:105B1000AA760522AA56824210D10022D2436A7187
:105B2000002224235343CB5ADE0703D01B0701D4A2
:105B30006A7103E0521C52B20F2AF2DB401C40B2E1
:105B40000F28B9DB67480278674855000368E818F2
:105B5000408B9C1840432346099020339A780020BC
:105B6000524396461A79520005921A78A37F002470
:105B700019A90C54242401466143574C08250919DE
:105B80004D5F4E88AC465D431541AE1945001DAFD3
:105B90007E530A268E5F898837465E431641711808
:105BA00025AE715365466D437F43E91975466943D8
:105BB000059D0AAE29418500401C40B271510F2855
:105BC000D5DB4648042141564848007881425EDDD5
:105BD00000253020294641433E480A1890898446D2
:105BE000C0073DD00020C0430021049019AB5B5C8E
:105BF000002B22D124260B467343E35A002B1CD0E2
:105C00004B001DAE178DF65ABE1B36B2B64625AFF9
:105C1000568DFB5AF31A1BB2764676435B43F71850
:105C2000049BBB4209D9099B9F4204D98E000AAB51
:105C30009B59BB4201D308460497491C49B20F291E
:105C4000D4DB00280CDB2421414309194D770121C5
:105C500019AB19546146022319439181FFF7CFFC18
:105C60006D1C6DB20C2DB4DB002519AE705D0028E3
:105C700007D124206843205A002802D02846FFF785
:105C80006BFC6D1C6DB20F2DF0DB2DB0F0BD00254F
:105C90002846242148438446205A002859D0002110
:105CA000C9438E46002019AA125C002A36D130233F
:105CB00002465A43074BD21893899B079B0F012B2F
:105CC0002CD1178D6B001DAE0693F65ABE1B33B256
