:10000000F03F00001500001000000000000000009C
:10001000002070477CB51B48292149060862012051
:1000200008600020486138200863092088600F209C
:100030000861002008613F20C861FE20C8600420DC
:10004000486000BF00BF00BF00BFFFF7E1FF0646EA
:100050000D4840680090002001900B4D002405E001
:10006000A0002858A100019A5050641C282CF7D3F6
:100070000021009848600098804700BF00BF00BF83
:1000800000BF7CBDA07F0000000400100000000045
:100090000000000000000000000000000000000060
:1000A0000000000000000000000000000000000050
:1000B0000000000000000000000000000000000040
:1000C0000000000000000000000000000000000030
:1002C000000300000000000000000000000000002B
:1002D0000003000000B900000003000000B90000A6
:1002E00000C0000000040000010001001201120122
:1002F0000101424C414445336100000001001200FD
:1003000000000000000000000000000000000000ED
:1003100000000000000000000000000000000000DD
:1003200000000000000000000000000000000000CD
:1003300000000000000000000000000000000000BD
:1003400000000000000000000000000000000000AD
:10035000000000000000000000000000000000009D
:10036000000000000000000000000000000000008D
:10037000000000000000000000000000000000007D
:10038000000000000000000000000000000000006D
:10039000000000000000000000000000000000005D
:1003A000000000000000000000000000000000004D
:1003B000000000000000000000000000000000003D
:1003C000000000000000000000000000000000002D
:1003D000000000000000000000000000000000001D
:1003E000000000000000000000000000000000000D
:1003F00000000000000000000000000000000000FD
:10040000F03F00008B3000100000000000000000F2
:1004100000000000000000000000000000000000DC
:1004200000000000000000000000000000000000CC
:100430000000000000000000F10500100FA30010F4
:10044000672D0010893000108930001089300010AD
:1004500089300010F7880010F5880010E51A0010A8
:100460008930001089300010893000108930001068
:10047000893000101D0E0010071B0010291B0010F2
:100480004B1B00108930001089300010893000109B
:100490008930001089300010893000108930001038
:1004A0008930001089300010893000108930001028
:1004B0008930001089300010893000108930001018
:1004C00003B40148019001BDC100000003B401481C
:1004D000019001BD013D000000F002F800F040F87D
:1004E0000CA030C8083824182D18A246671EAB4649
:1004F00054465D46AC4201D100F032F87E460F3ED4
:100500000FCCB6460126334200D0FB1AA246AB46BA
:1005100033431847C4D0000024D10000103A02D35E
:1005200078C878C1FAD8520701D330C830C101D594
:1005300004680C607047000000230024002500269A
:10054000103A01D378C1FBD8520700D330C100D58F
:100550000B6070471FB5C046C0461FBD10B510BD2B
:100560000BF030FD1146FFF7F5FF02F0B1FD0BF087
:1005700048FD03B4FFF7F2FF03BC02F0CEFD00001C
:10058000FCB40022002300240025002600270629B1
:1005900002D4FCC00639FAE7002902D004C00139B0
:1005A000FAE7FCBC7047000002B472B60178013172
:1005B000017062B60139080002BC704702B472B61D
:1005C00001780139017062B6080002BC7047000072
:1005D00062B6704772B670471C3880F3098870475E
:1005E000014802490160704704ED00E0000000107E
:1005F000114B1968114A1268914216D0EFF3098025
:1006000020380860F0C044464D4656465F46F0C06C
:100610001A6010681030F0C8A046A946B246BB4622
:100620002038F0C8103080F30988054B002018707E
:10063000042040420047000028030000240300007B
:100640001703000070B505460C46164602E00FCCB5
:100650000FC5103E102EFAD2082E02D303CC03C5CC
:10066000083E042E07D301CC01C5361F03E02178D4
:100670002970641C6D1C761EF9D270BD10B503463E
:1006800000201A460121890700E089089142FCD820
:1006900008E04418944203D8141A621A4C00201837
:1006A000400889080029F4D110BDFFB585B0074680
:1006B0000D461C4600200190802F06D08B2F0DD0B8
:1006C000A02F27D0A22F35D12CE0002D05D101205D
:1006D000800701906000694688812CE0042D18D1C4
:1006E000E007C00F0019C01C4000FB4940180190F2
:1006F00001988007800F002804D00198C01C800852
:1007000080000190E007C00F0019801C400069467E
:10071000888110E0052D04D1F04801906000694601
:10072000888108E0062D04D1ED48019060006946FB
:10073000888100E000BF00BF019800281CD0E94E6E
:100740002420708000207060472030700820707076
:10075000E448083002900221684681746100C1813A
:100760004474694607980874002101A802F0C4FB8C
:100770000021012002F06AFA09B0F0BDFFB583B094
:100780001C460E9D02950D9D01950F9D0095109D97
:10079000ED07ED0F002D7AD00626109D3540002D77
:1007A00050D000204AE04600039DAE5B4700049D08
:1007B000ED5FED10751B29B24500535F99421EDDB8
:1007C0000226109D3540002D06D045005153CD1A0C
:1007D0002DB24600A55330E04500555F019E75439C
:1007E000029E4E43AE19009D2E4135B246009553F0
:1007F0004500555BED1A2DB24600A5531DE00426B9
:10080000109D3540002D06D045005153CD1A2DB214
:100810004600A55311E04500555F019E7543029EB9
:100820004E43AE19009D2E4135B24600955345000A
:10083000555BED1A2DB24600A553401C0C9DA842F5
:10084000B1DB9DE000201DE04600039DAE5B47004C
:10085000049DED5FED10751B29B24500535F450007
:10086000555F019E7543029E4E43AE19009D2E4179
:1008700035B2460095534500555BED1A2DB2460042
:10088000A553401C0C9DA842DEDB79E0FFE706265D
:10089000109D3540002D50D000204AE04600049DB8
:1008A000AD5FEE104700039DED5B751B29B245005F
:1008B000535F99421EDD0226109D3540002D06D063
:1008C00045005153CD1A2DB24600A55330E04500E6
:1008D000555F019E7543029E4E43AE19009D2E4109
:1008E00035B2460095534500555BED1A2DB24600D2
:1008F000A5531DE00426109D3540002D06D045006F
:100900005153CD1A2DB24600A55311E04500555F55
:10091000019E7543029E4E43AE19009D2E4135B295
:10092000460095534500555BED1A2DB24600A55380
:10093000401C0C9DA842B1DB22E000201DE04600D7
:10094000049DAD5FEE104700039DED5B751B29B262
:100950004500535F4500555F019E7543029E4E431F
:10096000AE19009D2E4135B2460095534500555BAA
:10097000ED1A2DB24600A553401C0C9DA842DEDBAB
:1009800007B0F0BDFFB583B01C460E9D02950D9DCE
:1009900001950F9D0095109DED07ED0F002D7AD06C
:1009A0000626109D3540002D50D000204AE046001C
:1009B000039DAE5B8700049DED59ED10751B29B2B8
:1009C0004500535F99421EDD0226109D3540002DE3
:1009D00006D045005153CD1A2DB24600A55330E044
:1009E0004500555F019E7543029E4E43AE19009D22
:1009F0002E4135B2460095534500555BED1A2DB298
:100A00004600A5531DE00426109D3540002D06D05C
:100A100045005153CD1A2DB24600A55311E04500B3
:100A2000555F019E7543029E4E43AE19009D2E41B7
:100A300035B2460095534500555BED1A2DB2460080
:100A4000A553401C0C9DA842B1DBA6E000201DE090
:100A50004600039DAE5B8700049DED59ED10751BAC
:100A600029B24500535F4500555F019E7543029EC4
:100A70004E43AE19009D2E4135B2460095534500B8
:100A8000555BED1A2DB24600A553401C0C9DA842A3
:100A9000DEDB82E0FFE70626109D3540002D59D0B1
:100AA000002053E08600049DAD59EE104700039DE1
:100AB000ED5B751B29B24500535F994227DD022685
:100AC000109D3540002D0FD045005153CD1A2DB249
:100AD0004600A55339E00000903B0040905900408B
:100AE000705B0040005D00404500555F019E75430E
:100AF000029E4E43AE19009D2E4135B246009553DD
:100B00004500555BED1A2DB24600A5531DE00426A5
:100B1000109D3540002D06D045005153CD1A2DB201
:100B20004600A55311E04500555F019E7543029EA6
:100B30004E43AE19009D2E4135B2460095534500F7
:100B4000555BED1A2DB24600A553401C0C9DA842E2
:100B5000A8DB22E000201DE08600049DAD59EE10C8
:100B60004700039DED5B751B29B24500535F4500AF
:100B7000555F019E7543029E4E43AE19009D2E4166
:100B800035B2460095534500555BED1A2DB246002F
:100B9000A553401C0C9DA842DEDB07B0F0BD30B56C
:100BA000002A07D0CC07E40F64185D0064191A4DC1
:100BB0002C7003E05C006418174D2C704C1E174D10
:100BC0002C70441E164D2C70134C24786442641E05
:100BD00064B2144D2C700024E4436C700E4C2478E5
:100BE000641E64B2AC700C4C2478644264B2EC7045
:100BF000094C247864B22C71074C247801252C1BF5
:100C000064B2084D6C710124AC71034C2478641CEF
:100C100064B2EC7130BD000000020000010200006F
:100C20000202000003020000012110B5490348043C
:100C3000FFF7A6FC12490020087048708870114A1E
:100C4000012111701049088010490880104908706E
:100C500010BD10B5FFF7E8FF0E48002181748182B6
:100C600005F0B1F804F00AFA00F037FE0A490B4823
:100C700005F0A5FD02F08BFB04F0C2FF10BD0000E3
:100C80000C02000033020000D00300004E020000FE
:100C900061020000080C0000483A0000843A00009D
:100CA00010B50446002020642246403260649077EC
:100CB0000123D0779B07E3615F4B63635F4BA363C3
:100CC0005E4B0833E363A064908101222265102308
:100CD000912213552061002901D000F002FE5848EE
:100CE0004078208310BD10B5564C0021207808F0C4
:100CF0009BFE002802D0002004F08EF8207808F037
:100D000045FF012010BD10B5112806D0122803D1CF
:100D10004D49082001F09AFF10BD4B490420F9E726
:100D2000C00601D50120704700207047474800F0F9
:100D300090FE00F0C7FF4648007809F027FB09F055
:100D400055FC0021084608F089FD3E4C0121207029
:100D50003D48FFF7A5FF0021084608F07FFD6070C1
:100D60000121084608F07AFD3A49354C087061784F
:100D70000C2001F005FE344D374E4035324800F06E
:100D800001F90020305E002802DB00F05BFDF5E792
:100D9000A87F002809D03149002000BF401C8842AC
:100DA000FBDB0220A87709F09BFF20788A2801D17D
:100DB00009F096FF2078FFF7B3FF00280ED1607886
:100DC00000280BD020488030407C0009000110280A
:100DD0000CD0802810D0002004F01EF82078FFF7F7
:100DE00092FFFFF780FF0028FBD0C7E78022102189
:100DF000154800F025F9F1E7687F002804D0124873
:100E000000F064FB002068770F4800F045F91449B2
:100E100004200856134909F05DFBDFE710B508F020
:100E2000A1FC0848007808F0DFFE0F490F20C862D7
:100E300008F09DFC10BD0000E0230040005D004074
:100E4000103A000062020000880B0000903700405A
:100E500069C800100B0200006602000000093D0096
:100E600090080000B43A000080000052F8B5484EE7
:100E70000746012547493570782048704648474C59
:100E8000C57005702168FF20887220684021C06805
:100E90000AF0B5FA0020424964223B000BF01FF92A
:100EA00008050B15181414141F1408614861886193
:100EB0000862486211E0086148618861086248621E
:100EC00088622168FA204880F8BD20684280F8BD19
:100ED000086108624861486288618862F5E70861D4
:100EE0004861886108624862886275703070F8BD38
:100EF000F8B504468034E18A2A4B264DCA1A0427E5
:100F00000026994215D005DC274A89181AD00129F4
:100F100035D109E0012A22D00B2A30D10021C94362
:100F2000012002F019F82AE07D20000102F01AFAEF
:100F300025E0208B062822D8082028701449208B11
:100F400048801CE000F03EF92873FF215320000682
:100F50004160076241628662C66201630FE001215F
:100F60002973403041771148017011481E210180DA
:100F70004180FA218180C180077547752E70E68215
:100F80000120F8BD10B5FFF7B3FF012010BD000030
:100F900064020000103A0000C83A0000A8220000D5
:100FA0004000005204080000FFF7FFFF610200004C
:100FB000843A000053200006816AFC2211438162BA
:100FC00004F001FF04F05AF800F087FC15491648B8
:100FD00005F0F5FB02F0DBF904F012FE08F076FAFA
:100FE00009F0CCFD114C124D124E1349207808F037
:100FF0001BFD002802D0002003F00EFF207808F02F
:10100000C5FD0E4800F082F80746287808F0C6FDB6
:1010100030780028E9D1002FE7D00021022001F02C
:1010200015FEE2E7483A0000843A0000630200003F
:101030000B020000103A000080969800880B000018
:1010400010B5034680331C465A7409022B4B1143DA
:10105000CA1A99421AD00ADC294A891A11D00122E7
:101060005203891A0DD02748C14205D107E0FF2A53
:1010700005D0FF3AFD2A04D0002003F0CDFE012068
:1010800010BD00F0C2F881206074F8E71E48417876
:101090000B2001F075FCF2E710B504468030407C6F
:1010A00081280AD083280ED084281BD0852807D019
:1010B000002003F0B1FE012010BD8322812119E040
:1010C0008022852116E0204600F0BCF8A06C0128A3
:1010D00002D9842283210DE00B490B20497801F0CD
:1010E0004FFCE8E7204600F0ADF8A06C0028E2D104
:1010F000832284212046FFF7A3FFDCE784830000DE
:1011000080100000FDAEFFFF103A0000F1B503F0C3
:1011100053FF03F0DEFF2449224D0B782349287842
:101120000A780421FFF7C1FA214804F08EF9214C16
:1011300001462070204A1E4804F015FC20701C480F
:101140002C21415E406806F030FF07F0B4FA03F04E
:1011500016F91A490A68521C0A6019490A78002AC5
:101160001ED000240C7000F0B5FB811C002210235F
:10117000047012260DE00C804C808C808C714A72B9
:101180000B72CF793743CF7107780A317F1C077014
:10119000521CAF789742EED84470009900784C64A6
:1011A000F8BD0000103A00004103000040030000B9
:1011B000E403000040020000440200000C3A00007A
:1011C0006002000010B50120FF23532109064B6087
:1011D00004220A624B6200228A62CA620B630A62BC
:1011E000FD244C604C620224CC608C618A62CA622D
:1011F0000B638C68CB620A63896810BD10B503214C
:10120000052001F0BDFB012010BD10B504460321EF
:10121000052001F0B5FB204600F058F900204034CD
:101220006077012010BD0120704710B50321052013
:1012300001F0A6FB012010BD10B5084608F0AEFC79
:1012400010BD7047F0B506469DB00321052001F0A2
:1012500097FBF84C207808F099FC09F048FB6421D2
:10126000207808F0E1FB002802D0002003F0D4FD34
:10127000207808F08BFC09F098F8002834D009F0A9
:10128000EDFA6421207808F0CFFB002802D000207E
:1012900003F0C2FD207808F079FC09F06FFB6421AF
:1012A000207808F0C1FB002802D0002003F0B4FD34
:1012B0000321062001F064FBDF4DE04C2878237801
:1012C00028220021FFF7F1F928782378012205214F
:1012D000FFF7EBF909F069F8002808D000F0EAFD03
:1012E0002878862806D00BE009F04CFAC9E700F010
:1012F000C4FDF5E700F0FEFD0021012001F0A6FC91
:10130000CF486421007808F08FFB002802D000202D
:1013100003F082FDCC49CB480F780221C3191A791A
:101320005956C05700F0D9FD28788A2805D100F019
:10133000ECFD0021012001F089FC04F0F3FEC3481C
:10134000C349C44A007809781278032701920497A8
:101350000291039020780090BF4AC048BE4BA03A4B
:10136000BE49A038FFF70EFBBD4804F053FDBD4851
:10137000007900280FD122780120042100920191E8
:101380000390B9480297B44AB3490378A032A03910
:10139000B24805F065F9B548007800283DD008F05E
:1013A0008CF82878237801220621FFF77EF904F0D3
:1013B00086FDAF48817D00291ED0C07D00281BD04E
:1013C000AC48A84B027821781B790E91AA48A8490D
:1013D0000D920B900C932C2214396846FFF732F9CA
:1013E000A34820380EC80FA804F0FDFEA0483822FC
:1013F0000FA92038FFF726F900F091FD9F480178EA
:101400003046FFF719FF00213046FFF71AFF306C16
:10141000401C306401201DB0F0BD994808F0E2F88E
:10142000974808F03AF9BCE7FFB581B0002421469F
:101430000A9800F02FFBC107C90F0818049EC0B21C
:1014400046432046019900F02BFC0090204602996B
:1014500000F026FC0746002509E00098A900405846
:101460000399C00009F0D7FF690078526D1CB5429E
:10147000F3DB641CE4B2042CD9D305B0F0BDFFB596
:1014800081B000242146049800F004FBC107C90F75
:101490000818C6B2039802994643204600F000FCA3
:1014A00005462046019900F0FBFB0146002006E0BE
:1014B00082004700AB58CF5FDB19AB50401CB042F5
:1014C000F6D3641CE4B2042CDCD3D6E7F0B585B0C7
:1014D0000321052001F054FA07F02EFF574E654F07
:1014E0000024544D287808F051FB08F05EFF0028D6
:1014F00032D009F0B3F96421287808F095FA002871
:1015000002D0002003F088FC287808F03FFB09F0A7
:1015100035FA6421287808F087FA002802D00020E4
:1015200003F07AFC08F041FF002818D000F0C2FC5C
:10153000022C17D37321890133783A784810FFF7CA
:101540009EFF002000904449444833780122A0398E
:10155000A03805F028F81DE009F014F9CBE700F0F9
:101560008CFCE5E7002C15D10025E9B2307800F0BD
:1015700091FA397802464A437321E8B2890100F0B2
:1015800086FB6D1C042DF0DB3348FF214131A03870
:1015900009F035FF641CE4B2122CA2D3307800901D
:1015A00073203B78102237498001FFF73DFF00236D
:1015B0000322317801206C460FC4274C0423A03C41
:1015C00010222649204605F004F8A021204609F003
:1015D00016FF2D4D00243878142148434208E0B20C
:1015E000294600F054FB641C042CF4DB0321062084
:1015F00001F0C6F9012040E7F8B5174D174CA03DA2
:10160000A03C0026304637460C4905E04200AB5A64
:10161000A352401CAF52C0B20A789042F6D30020C9
:1016200004E04300E35E9E19401CC0B29042F8D330
:10163000002759E00D030000103A000041030000AC
:101640000B0200002C3A00000D0200006CC80010D4
:101650006BC800106AC80010105C0040305A00408F
:10166000C01B0000900800006DC80010320200008E
:10167000600B000040030000780B000063020000D4
:10168000781F000090150000F0230000002F12D0FA
:10169000401E874219D178000090001940383C2242
:1016A0003E21825E415E0098205E0AF00EFD0146FA
:1016B0000098295216E0042202210020A25E615EF9
:1016C000205E0AF002FD28800CE07B00181902223F
:1016D0000093825E40383E21415EE05E0AF0F5FCF8
:1016E000009BE8527F1CFFB2024800788742CDD3AE
:1016F0003046F8BD4103000070B5694A694C1102DB
:101700000020694D03E04300D65ACE52801C237856
:101710002E7873438342F6DC70BDF3B581B00127A8
:101720000321052001F02CF9029810255F4E0024BA
:10173000002833D0012831D002282FD0032830D000
:10174000002700210198FFF7ABFA594D287808F0DF
:101750001DFA09F0A8F86421287808F065F9002836
:1017600002D0002003F058FB5248C460287808F0EB
:101770000DFA09F098F86421287808F055F9002846
:1017800002D0002003F048FB4B484D4904704B4801
:1017900004700020C04308803846FEBDFFF766FB9A
:1017A00003E0FFF763FB4348C4603570C9E70021DD
:1017B0004448B2E701214348AFE770B5424D3D4C84
:1017C0000026206828612862606868616862A068F5
:1017D000A861A86202213B48FFF79FFF012E1AD0A3
:1017E00031480078C107C90F08182E4909784843C5
:1017F0004200012189072A48FEF724FF2068761C51
:10180000C04320606068C0436060A068C043A060BF
:10181000022ED6DB70BDFFF76FFFEFE710B5FF209C
:1018200029214906C86029481021816301630320EA
:1018300001F007F903212348FFF76FFF002001F0B3
:1018400000F910BD10B51E480024045F002C06D01E
:10185000012C07D0022C08D0032C0BD108E0FFF795
:10186000A6FF07E0FFF7A6FF04E0FFF7A6FF01E0F1
:10187000FFF7D4FF0720FFF7F9FA01211148FFF71E
:101880000FFA042C07D00848002103780548027895
:101890008020FEF70AFF05490120087310BD0000F3
:1018A0000000405E4003000041030000103A0000C9
:1018B0000D0300006C0200006402000068020000DA
:1018C00066020000880B000040000052C003005573
:1018D000224870472148801E704721490020086037
:1018E000704730B51F48002201781C4872300170E3
:1018F0001D49097841701D490B8D83824B8DC38230
:101900008B8D0383CB8D43830C4620340346257C8B
:1019100020339D70647CDC700B8F83848B182033A4
:1019200084189B7C521C2377062AF7D300210A4691
:1019300004E04B001B181A715A71491C83788B42C2
:10194000F7D830BD002006490246091D0B18401C7F
:10195000C0B21A730C28F9D3704700001A3B00007C
:101960000C3A00004003000041030000C0020010D8
:101970000A04120E334B1204090618401043090DD5
:1019800008437047F0B59C4693046446DB0CA405FD
:101990002343059C8500E405A40A23432A4C8800C0
:1019A0006659FF3081303350082901D2002000E011
:1019B00004200126130CB603B34201D1002300E03A
:1019C00002235204D60F4200891A1E4389000F22B7
:1019D0008A40074663595837BE46DF598E409743C1
:1019E00037431E467346F750675903466033FE5827
:1019F000BE46059F9643FF043F0F8F403E43774608
:101A0000FE50645968302358934362469204120F83
:101A10008A4013432350F0BD0D239B06C918016073
:101A20004260704710B59204D20C9B05029C1A4389
:101A3000E3059B0A1A430D239B06C9180160426007
:101A400010BD00000FF000FF80C3001008B500902B
:101A5000FEE738B50321890701224118D2039142DC
:101A600002D300200090FEE7904C002121706170AD
:101A7000A160606008468E4901228300CB581A613C
:101A8000401CC0B20428F8D30021012007F0E6FE74
:101A9000A07038BDC208D200821A1206854B920D82
:101AA000D218C008515C40000818C0B2704710B589
:101AB0007E49002014317D4C0860E07818214843AD
:101AC0007D4940188268002A04D02169E068904767
:101AD000002806D007F046FEA07808F085F807F049
:101AE00046FE10BD724908684069C0070AD00968FF
:101AF000012088616D491431087008686F49884277
:101B000000D1D4E770476A4948684069C0070AD0E5
:101B1000496801208861654914314870086867493F
:101B2000884200D1C3E77047614988684069C007AF
:101B30000AD08968012088615C491431887008687E
:101B40005E49884200D1B2E770475949C868406988
:101B5000C0070AD0C9680120886154491431C8708F
:101B600008685649884200D1A1E77047F8B54F4C44
:101B7000054620780A2802D301200090FEE7696913
:101B8000CA0702D002200090FEE7A268891801224D
:101B90009202914202D903200090FEE718214843A7
:101BA000454E0A4680192946FEF74CFDA16860683B
:101BB0001822401821785143891908616A692969F6
:101BC00009F0B5FB2078401CC0B220706969A2689A
:101BD0008918401EA160F8BD18B40C463349097835
:101BE000814202DC04200090FEE71821484332497C
:101BF0000B58002B04D0204601B010BC11461847EA
:101C000018BC01207047F8B5284C054620781646C8
:101C10000F46A84202DC04200090FEE7607800280E
:101C200002D005200090FEE7E570E7602661A0780D
:101C300007F0ACFF182045431F4831462D186A684D
:101C4000384690476421A07807F0EEFE002802D0C5
:101C500006200090FEE71549002014310860EA686C
:101C6000002A02D03146384690470020F8BD0F4880
:101C70001821C078484310494018006970470B4844
:101C80001821C07848430C4940184069704710B586
:101C90000B4B8000185840181146FEF771FC10BD20
:101CA000074A800010584018704700007C0200006E
:101CB00080C30010A0C30010680C000001010101E6
:101CC00090C30010F8B5FE4FFC48FE4CF860207839
:101CD000FD4EC107C90F0818788230783875002585
:101CE00029462078FFF7D6FE79190872C107C90F77
:101CF000401869006D1CEDB27852042DF0D37320AA
:101D000040013882012078752078F04AC107C90F58
:101D100009184800EA4D80181835E860820703D09A
:101D2000C01C80088000E860891C698230782875B2
:101D3000002739462078FFF7ADFEE9190872C10780
:101D4000C90F401879007F1CFFB26852042FF0D3EE
:101D5000BB208001288200276F75DD48FFF706FF52
:101D6000DC4D0121A860D64889072C380160217814
:101D7000CA07D20F521882800122C28073225201F8
:101D800042810781072202738273D14A3032026195
:101D90003432426132784273C1730776CC48483896
:101DA000FFF7E4FEC64A2860103A11461C39FFF7D7
:101DB00013FFC3487321490130300180C649418077
:101DC000C649818073218901C180078189104181C1
:101DD000BB2189018181032181730821C17331787D
:101DE000C17421780175BA483038FFF7BFFE6860CA
:101DF000B348BA4948300180317881712178C17186
:101E000073214780090181800772B1481830FFF7BC
:101E1000ADFEE860AA48B14968300180317881712F
:101E20002178C171AE490161AE49C160732147801B
:101E300009018180A6481838FFF798FE2861F8BD8F
:101E400010B5A9489E49428868314A818088088136
:101E5000A04800220069FFF7D6FE10BD984810B5D3
:101E60004830A2490161891EC16002460146994875
:101E70001432C068FFF7C7FE10BD914810B50721A6
:101E80002C3801738173924902463031016134313B
:101E9000416101468F481C320068FFF7B4FE10BD57
:101EA000874A10B5103A8B4811461C390068FFF775
:101EB000AAFE10BD824810B507212C38017381732A
:101EC0008349024630310161343141610146814824
:101ED0001C320068FFF797FE10BD794B10B5303308
:101EE000187459749A747B48002219464068FFF7A9
:101EF0008AFE10BD10B573207149400108827548F3
:101F000000228068FFF77FFE10BD10B56C49734852
:101F10000882704800228068FFF775FE10BD10B57A
:101F200067496C48002218318068FFF76CFE10BDCD
:101F3000F0B585B00446FFF79AFE05460120A9B228
:101F40000027C007081803910290207D3946FFF74B
:101F5000A1FDC107C90F0818C0B20190E07CBE0006
:101F60004006410C01980143614880590164FFF724
:101F700086FE039941185E48805941605C49029889
:101F8000895988605A490020895948640126009679
:101F9000014622883846019BFFF7F4FC00966288D0
:101FA00001213846019BFFF7EDFC0096A288022133
:101FB0003846019BFFF7E6FC0096E288032138468D
:101FC000019BFFF7DFFC0096228904213846019B24
:101FD000FFF7D8FC0096628905213846019BFFF780
:101FE000D1FC0096A28906213846019BFFF7CAFC66
:101FF0007F1CFFB2042FA8D30F2161566868FFF73A
:10200000B7FC68600E2020564142E868FFF7B0FC3C
:10201000E860112161562869FFF7AAFC28611021A8
:102020006156A869FFF7A4FCA8611220205641421E
:10203000286AFFF79DFC28622D49002082008A58FB
:102040001660401CC0B20428F8D3012005B0F0BDD2
:10205000F0B585B00446FFF70AFE0190012180B279
:102060000026C907039040180290E0793146FFF737
:1020700011FDC107C90F0818C7B2A0791C49400655
:10208000B500400C495938430864FFF7F8FD03993F
:1020900041181748405941601549029849598860CC
:1020A00013490020495948640125009501462288BA
:1020B0003B463046FFF766FC00951BE0005D0040A4
:1020C000840D00004103000040030000963B0040E7
:1020D000B0C400109402000090150000F02300002E
:1020E000D81B00001C1D0000003A0000820B0000FD
:1020F00080C3001062883B4601213046FFF742FC56
:102100000095A288002302213046FFF73BFC009592
:10211000A08879004218002303213046FFF732FCE3
:102120000095A088B9004218002304213046FFF72B
:1021300029FC0095A188062078430A180023052170
:102140003046FFF71FFC0095A2883B46062130462B
:10215000FFF718FC761CF6B2042E86D32089401EA9
:1021600001B201984068FFF703FC019948600A201A
:10217000205EC1430198406AFFF7FAFB019948626B
:10218000FE49002082008A581560401CC0B2042815
:10219000F8D301205AE7FEB500218183C183816114
:1021A00004460D464161002001900090E0790099BD
:1021B000FFF770FC0646C007C00F8019C7B2732135
:1021C00009010098FFF76CFD6F4379004118002D5D
:1021D0000CD0022D05D0012D2BD020461E30002220
:1021E00031E0019A0020920094461FE0019A0020FD
:1021F000920094460AE042008700E3688A5E6744E2
:10220000DA5163699A18401CC0B26261B042F2D3DD
:102210001BE042008A5A87005242236912B2674487
:10222000DA51A3699A18401CC0B2A261B042F0D33F
:102230000BE020461C30D2E757000388CF5BDB1948
:10224000521C0380D2B2B242F6D30198801900B278
:1022500001900098401CC0B200900428A6D36D1CC9
:10226000EDB2042D9FD30120FEBDF0B5044687B02A
:1022700000200290FFF7FBFC0190607D0021002808
:1022800008D0E06824224280472241600270082280
:10229000427002920198002581B2081D059001202C
:1022A000C00708182F460490217D6019007A49065E
:1022B000490C0843B149AE0089590864AF49002070
:1022C000895948640120009068000390235A228AAB
:1022D00000212846FFF756FB012000900298E16894
:1022E00038180A18638A01212846FFF74BFB039828
:1022F000A249205A89594000C01987B20598486000
:102300009E490498895988606D1CEDB2042DCBD389
:1023100001989B4901600020984901228300CB5815
:102320001A60401CC0B20428F8D3012007B0F0BDE9
:10233000FEB504460191FFF79AFC06460199206913
:1023400088600199E06848608E4931608E4971600B
:10235000207A08278D4A8E49022804D0B260207A5C
:102360000C27012801D0F1513F1D01210025B0B2F9
:10237000C90740180290E0792946FFF78BFB0199C5
:102380007E4A4855C107C90F0818C3B2A079400654
:10239000410C1943A80012581164784A00211258C0
:1023A0005164764A029912589160744AF119105892
:1023B00089B2416001200090228800212846FFF761
:1023C000E1FA012000900146628800232846FFF7C9
:1023D000D9FA01200090A288002302212846FFF7A5
:1023E000D1FA6D1CEDB2042DC5D30020634A012142
:1023F0008300D3581960401CC0B20428F8D30120D0
:10240000FEBDF8B50546007A0C4602281BD0614F88
:10241000002669883046FFF743FC02460020A35D92
:1024200006E04100515EB94200DA0F46401CC0B2DE
:102430008342F6D8761CF6B2042EEAD36068078091
:10244000287A012819D0534F7F420026A9883046A8
:10245000FFF726FC02460020A35D06E04100515E26
:10246000B94200DD0F46401CC0B28342F6D8761C4C
:10247000F6B2042EEAD3A06807800120F8BDF0B5BB
:102480000024817BA44627468E462BE000231A4673
:102490001946067B15E005692D5D954008322943F4
:1024A000D2B2202A0AD365464269AD0052598A4207
:1024B00011D16146491C8C46002211465B1CDBB2DF
:1024C000641C9E42E7D8002A0AD062464369920003
:1024D0009A588A4201D00020F0BD6146491C8C46C2
:1024E0007F1CFFB2BE45D1D80120F0BD00B5FFF77B
:1024F000C6FF002800D0012000BDF0B585B00C4615
:102500000546FFF7B4FB0290012060720027277395
:10251000287BC01C8008E072A97B687B08F071FFF3
:10252000A072A97B4843697B884205D0081A2072B3
:10253000A07A401CA07200E027720298002681B2A7
:10254000081D04900120C007081801960390E87B3D
:102550003146FFF79FFAA1190871C107C90F40184A
:10256000A05500200549B700C9594864E888009083
:1025700029680198AB880A1800210DE080C300107B
:102580000010C0230010000C0020000C10100021CF
:1025900020204021FF7F00003046FFF7F3F9287B21
:1025A00001282FD0A17A2A8941434806A15D400C19
:1025B0000843DA49C9590864012000900146A35D27
:1025C0003046FFF7DFF9D5490498CA595060CA5917
:1025D00003989060A05D761C42000198F6B2101836
:1025E00080B20190042EB2D30298CD4A026000203E
:1025F00001228300CB581A60401CC0B20428F8D3D3
:10260000012023E5697B6A894906A05D490CCFE773
:10261000F8B517460C460646002501200090607B61
:10262000A17B7B5D401A80195843618940004218A4
:10263000E8B20121FFF7A6F96D1C042DEDD3FA7A5B
:10264000B64D1046724380188646002310E0910074
:102650008C4600209900803166696746F6598700EC
:10266000EF597E50401C0428F6D35B1CDBB2521C91
:102670007245ECD3F8BDF8B517460C460646002562
:10268000012000907B5DA17B18464B43618970431C
:1026900040000A18E8B20121FFF774F96D1C042DFF
:1026A000EED3FA7A9D4D104672438018864600217B
:1026B00010E093009C4600208B00803366696746DB
:1026C000F6598700EF59FE50401C0428F6D3491CE8
:1026D000C9B2521C7245ECD3F8BDFEB50C46054696
:1026E000FFF7C5FA0746287B032101287ED0607AD0
:1026F0000128207B1BD0401CC0B22073AA7B9042D3
:1027000074D222462946FFF783FF00200122834925
:10271000BDB2D307C4002C19E61884000F59BE605F
:102720000C592260401CC0B20428F3D37DE0401C49
:10273000C0B22073AA7B90423DD8012833D1207AC1
:102740000028A07A01D0401EC0B200264006400CEE
:102750000290B8B2019001200090A35D287B2A89E5
:10276000434300213046FFF70DF9A15D02986B4A03
:102770000143B00012581164684918220958AA563A
:102780004A64297B674BA25D090419430A43F1009F
:102790007A50019A5118614A091D10584160761CFF
:1027A000F6B2042ED7D3207B2246401EC0B2294663
:1027B000FFF761FF28E0207A002838D0101A207334
:1027C000022060720026A05D5449B2008958FF3093
:1027D00001300864207B22462946FFF719FF0120BB
:1027E0000090A35D287BA17A584300E01FE0491EBA
:1027F000484329894000421800213046FFF7C2F8BB
:10280000761CF6B2042EDED3002001224349BDB26D
:10281000D307C4002C19E61884000F59BE600C5968
:102820002260401CC0B20428F3D30020FEBD6172B8
:102830000120FEBDF8B501203B4B800718603B48E6
:10284000FE2200787324411C114099800121D98017
:1028500064015C8100221A8107211973344907251C
:10286000097859739D73D8731A76324D1D616C3592
:102870005D615C331C802C4C2F4B5C3463802A4B95
:102880002E4C5C339C80284D73239B015C35EB8080
:102890002B4673251A812D01BB265D81B601224F7F
:1028A0009E8103235C37BB730823FB733B46D974BB
:1028B000187518331C809971D8715A809D801A72CE
:1028C00020331C8099711E4FD8711F611D4FDF602E
:1028D0005A809D801C4B1D4DD87199711D80083305
:1028E000D8719971104B7325B433D8719971AD01BA
:1028F0009D800A33197258720F4D9D805C800C3395
:102900001E80D87299729A80DA800F481A4614385D
:10291000AE3A05490068FFF75FF9F8BD80C30010C3
:102920000010C0230010402F580D0000410300008C
:1029300040030000E0C4001090150000F0230000E8
:10294000D81B00001C1D0000A8020000202B000066
:1029500010B501462C4808F054FD420A2B490120CD
:1029600048602A480023403003620F23C36202619B
:10297000FF224261826103224A600421016210BD8C
:1029800070B5401F0C46224D030009F0A8FB081744
:10299000191D1D1D0D05081D2868844217D0084605
:1029A000FFF7D6FF2C6012E029225206506BC9B205
:1029B000FF231B0218400843506308E0012000E099
:1029C000002000F012F802E0002002F025FA0120B9
:1029D00070BD10B500F08BF800F0BBF800F01CF8EB
:1029E0000A490F204031C86210BD10B5002803D03D
:1029F000084600F04EF810BD0648C0780028FAD10D
:102A0000084600F027F810BD40D2DF034000005216
:102A1000B8020000C83A00003D20024900040863E3
:102A2000704700004002005510B54B4C0320216850
:102A300007F0FCFF20684949401C20601020886393
:102A400010BD0021022801D0032800D144490020F4
:102A50008165704710B529225206D1680C2399432D
:102A6000D16002213F4B012807D0022805D003285E
:102A700007D0002002F0D0F910BD59603A4810622A
:102A800010BD596039481062D0688006800ED06051
:102A900010BD70B529225206D1680C231943D160AC
:102AA000032530490123002808D0032803D0002043
:102AB00002F0B2F970BD4D60136270BDF720C00125
:102AC0001062284C0020403420601F266660A660FB
:102AD0004D60F524E4011462F124E40114621362F0
:102AE00008614861886108624862886270BD70B59B
:102AF0001F4CA06B00218A0012191268491C801A11
:102B00000E29F8D321681B4A29256D06914217D159
:102B1000E16B194A914213D1002810D1A068010439
:102B2000E06800020143206901436068C0B205F01B
:102B3000F0FE6069A169286308020830686370BD0F
:102B4000402028630D4868630D49072005F0E1FE29
:102B500070BD00209DE7000078020000C003005512
:102B6000292A001040000052A57F000005780000CF
:102B7000800701201004102013067419084000007B
:102B800020202000F0B52649244808622548016825
:102B9000090A090201600368FF21090203228B432D
:102BA00092039B18036004680B029C43150264198E
:102BB000046004682602360A8C05361906604668E9
:102BC000360A3602C036466046688E43B6184660FE
:102BD000466801279E43BF05F619466046683602DF
:102BE000360A36194660C6688E43B118C160C1689E
:102BF00099434919C160C1680902090A0919C160EC
:102C00000169090A0902C0310161074940170860DA
:102C10000549064880390860F0BD00000000C0800A
:102C200000ED00E000E400E080E100E0E1F0010000
:102C300001228105D203801A8003000E8200A14880
:102C4000890D8058002800D04018704705210422C3
:102C500084230907012807D0022803D004280AD0BA
:102C6000082809D10A6007E00A60002000BF401C64
:102C7000C0B2C828FAD30B600120704710B5C2B2A9
:102C8000904B000A4400203B1B5B934202D800207B
:102C9000088010BD8B4C8000603C205880189A1A28
:102CA0000A8010BDF8B58948874C406AFF21800032
:102CB000800C01310D1A60782178000208438449A4
:102CC000022D48601CD04CDD0126F602811B202914
:102CD00032D2FEF737FE60782178000208437D4942
:102CE000A278C8820A83821B7A4801214038002AD0
:102CF0000AD0102A1AD0152A08D0162A19D107E0AE
:102D0000294600F07BF82CE0417712E0817710E053
:102D1000C177704900208039221893780A186032F0
:102D2000401CC0B213702E28F6D302E06A4910206E
:102D30000870FEF773F814E001210903884210D2ED
:102D40006946FFF79BFF00280BD069460988AD1E36
:102D5000A94201DD69460D8069460A88A11C08F078
:102D6000E6FA0120F8BDF8B5584E4036776A0020E3
:102D7000C043F062F80501D5584821E0B806544D2B
:102D8000800F1FD0514C6068C007FCD052480078BB
:102D9000122803D100210820FFF758FF6978384630
:102DA000FFF780FF02202060012020600C202062BD
:102DB0004548A0624A48206200206870FF20013028
:102DC0003062F8BD7800FCD5464968688842F8D181
:102DD00006F0C8FC287806F007FF06F0C8FCF8BD2E
:102DE00010B56C2000F04CF80020394C01466070A2
:102DF00006F034FD207006F0C9FE10BDF8B50926B6
:102E00000446B6010025801B762808D20021042044
:102E1000FFF71CFFFEF75EFD0019801B1BE0012081
:102E20000003844204D2A0B26946FFF727FF12E0F4
:102E30002D49261A8E4206D200210420FFF706FFF4
:102E40002A48354609E00121C903611A814216D298
:102E5000A0B2FFF7EDFE002811D043191B48042152
:102E600040300160194902220A6101220A610521EC
:102E700009078A6083601E490160491E0160F8BD30
:102E800030B584210522120711600123136100244B
:102E900014620E4902250D600B600D610B617F23EA
:102EA0001B021843D0610C200862074888620C4856
:102EB00008620648611E4030C162C462E9010162D5
:102EC00030BD0000E4C500102E0E00008000005050
:102ED000BC020000080C0000103A00003000004066
:102EE0000900000142020000C81C0000005D004013
:102EF0000900FFFF0120704710B5827B042A01D032
:102F0000022A21D0002315229206046894614468A5
:102F1000D4619360037B447B5B1E1B04641E2343CC
:102F2000D3600389847B1B04234313614389807B23
:102F30001B0403435361012090621060002902D0FA
:102F400050680028FCDB10BD0123DCE701211520BF
:102F50008006816201627047F3B583B00E46FEF7CA
:102F6000B9FC292403980025640601280BD0022807
:102F700009D0032807D0042869D0002001F04CFFB5
:102F8000012005B0F0BD374F3146786900903648D2
:102F900008F037FAE96B0291296C0191216A49081E
:102FA00049002162216A314A1143216230490D6290
:102FB000FF22CA623D612F49E9632F492964A16854
:102FC000FE221140A160216A0222114321620021E8
:102FD00000BF00BF00BF491C3229F9D3216A01227A
:102FE000920211432162012767621E49486188618C
:102FF00007220A610398032816D030460099FDF78E
:103000005FFA206A000C00042062206A38432062C4
:1030100065620298E86301982864194817490160BD
:10302000134804210162ABE70098761C0BD0154BC6
:10303000236230BF256251231B061D6048618861F1
:103040000A61A760DDE70F4B09332362F2E70C4901
:103050007D2000010D60A06103206061012060619E
:103060008EE7000000E000E050C3000084FB000099
:10307000800000520301000007010000E120000071
:1030800000E100E0A67F0000FEE710B5FDF724FA9E
:1030900010BD10B506F09BFB184B194A00211948CA
:1030A00006F0A1FE184B194A0021194806F09BFEB4
:1030B00006F0B0FB10BDF921532000064160042149
:1030C0000162FF21416200228262C2620163704795
:1030D00010B5FFF7F0FF05F0FFFBFFF77AFCFDF7F7
:1030E000F5F9FFF733FFFFF77BFEFFF74BFDFDF729
:1030F0009BFDFFF7CEFF012010BD00006C15000006
:10310000099001002D0D00101C1A00000A2C01006E
:10311000B50F001003460A467047FEE730B5024679
:1031200000208C4C014653569B001B195B684D00D8
:10313000AB40491C1843C9B21029F4D330BDFFB5C8
:1031400081B00D4606461C4610210A9F039808F0E0
:1031500054F9B878B04254D8F978B14251D3301A02
:10316000C3B20020E278A17803E09B1A0818DBB212
:10317000C0B29A42F9D9421E8A18267AD2B2964231
:1031800004D8701AC0B2421E8918CAB2002D0AD0E3
:10319000012D0FD0202A34D320281FD22021081A35
:1031A000C1B200201DE010282BD2102A00D30F221C
:1031B000002124E0202824D2102A22D3102804D26F
:1031C0001021081AC1B2002002E01038C0B200215C
:1031D000202A01D30F2212E0103A03E00021203808
:1031E000C0B2203AD2B20AE0E57866684D4375195C
:1031F0005E5D039D2E54401C491CC0B2C9B2904272
:10320000F2D905B0F0BD30B50446002085B02E2CB3
:1032100004D2102C16D26100012012E01378A342D0
:1032200012D85578A5420FD30022497A03E0521CE8
:103230008000D2B2401C9142F9D8E21A4A435100B0
:10324000091D884005B030BD0B46009201AA00213F
:103250002046FFF774FF01A8FFF760FFF2E730B5E3
:103260000446002085B02E2C05D2103C102CE9D24B
:103270006100012013E01378A34215D85578A542C8
:1032800012D30022497A03E0521C8000D2B2401CC3
:103290009142F9D8E21A4A4351001C3901D48840BE
:1032A000D0E74942C840CDE70B46009201AA012170
:1032B0002046FFF744FF01A8FFF730FFC2E730B513
:1032C0000446002085B02E2C05D2203C0E2CB9D20D
:1032D0006100012013E01378A34215D85578A54268
:1032E00012D30022497A03E0521C8000D2B2401C63
:1032F0009142F9D8E21A4A4351003C3901D488403E
:10330000A0E74942C8409DE70B46009201AA02216E
:103310002046FFF714FF01A8FFF700FF92E770B502
:1033200005460C46007AA9784018401E08F073F84C
:10333000697A064608462D3008F063F82E30A070F2
:10334000E97871434118491EE1702E212170401E19
:10335000607070BDF4C5001010B501460120FFF784
:10336000C9FD10BD10B501460420FFF7F5FD10BDE5
:1033700010B501460120FFF7EFFD002010BD10B58C
:1033800001460320FFF7E8FD002010BD704700B59F
:10339000FE480078801CFE490870FE480078C0078F
:1033A000C00FFC4909784018801CFB490870FFF7E2
:1033B000EDFF00BDFFB50A9CFF25013500982840B0
:1033C00000283FD003980268099803680F2A0BDB96
:1033D000F248C0880A38904206DB0A2B04DBEF482B
:1033E00000891438984226DA2C206043EC4D4019AD
:1033F00020304078401CC5B22C206043E84E801934
:10340000203045702C256543AD190826AE5F2C256C
:103410006543E34FED190A27EF5FF019002801DB40
:10342000054600E045421E2D0CDA0298002809D11D
:103430001020014306E000252C206043D84E80195F
:1034400020304570C8B204B0F0BDF0B589B0044674
:103450000D467F26F605A100D24A5058D249096888
:1034600008F07CFEA100CF4A5050A1005058CF492F
:10347000096808F073FE0746A100CA4A5058394649
:1034800008F0B0FB0646284608F0A6FC0690C8489F
:103490000168069808F00CFF3146079008F0A4FE7A
:1034A0000746C3480168384608F058FEC04908601E
:1034B000A100BC4A505808F06BFB059104903046BF
:1034C00008F066FB0022BB4B0191009008F016FA51
:1034D00003910290059B049A08F026FA0791069042
:1034E00008F03CF8A100AF4A505009B0F0BDF0B56B
:1034F00089B004460D467F26F605A100AE4A505815
:10350000A949096808F02AFEA100AB4A5050A10061
:103510005058A649096808F021FE0746A100A64AAE
:103520005058394608F05EFB0646284608F054FC21
:103530000690A2480168069808F0BAFE3146079046
:1035400008F052FE07469D480168384608F006FE1E
:103550009A490860A100984A505808F019FB059153
:103560000490304608F014FB0022924B0191009029
:1035700008F0C4F903910290059B049A08F0D4F96D
:103580000791069007F0EAFFA1008B4A505009B05E
:10359000F0BDFEB504460D4616461F463068019044
:1035A0003868009000200899085E08F015FC8349EF
:1035B000086000200999085E08F00EFC7C4908604C
:1035C0007F480078002814D0FF20013028400028D0
:1035D00007D07C487449086001208007734908605F
:1035E00019E0784870490860012080076F49086039
:1035F00011E0FF2001302840002806D072486A49B7
:10360000086072486949086005E06F4866490860CB
:103610006E48664908606E48005D002815D101209B
:103620006B4908557F20C005A100634A5050A10096
:103630005C4A5050019808F0CFFB60490860009840
:1036400008F0CAFB5A49086009E0019801B220B2AB
:10365000FFF74DFF009801B220B2FFF7F6FE574882
:10366000006808F06FFB30605148006808F06AFBA2
:1036700038600020FEBDFFB595B0044616461F46D3
:103680001E9D0A2012901190404A12785100514A12
:10369000128D5300D01807F0BEFE07903D4A1278F5
:1036A00051004C4A528D5300D01807F0B4FE0690DA
:1036B0004948007840004949085A14904648007823
:1036C0004000085A13904448007841004348001DC8
:1036D000405A0E904048007841004048001D405A32
:1036E0000D903C48008D3168411A079881421CDAE0
:1036F0003848008D3168401A02D11298149012E0B7
:1037000012991498421A10923249098D3268891A16
:10371000149A5143109A51430846079907F07BFECB
:1037200012994018149014980E902A48408D3968C8
:10373000411A069881421CDA2648408D3968401AA1
:1037400002D11198139012E011991398421A0F9216
:103750002049498D3A68891A139A51430F9A514367
:103760000846069907F057FE1199401813901398D0
:103770000D902C2060430A4941181820085E3168DA
:10378000401A33D42C206043054929E0400300004F
:103790004B020000410300004C020000103A000000
:1037A000AC080000481A0000CC020000D002000063
:1037B000C80200000000F03F201A0000C402000010
:1037C000320200003333733F9A99593F0000C040E2
:1037D000701A0000E40300000D0200000C3B000022
:1037E00041181820085E3168401A07E02C20604319
:1037F000FE4A80181822825E3168881A0B902C20AD
:103800006043FA4941181A20085E3968401A08D402
:103810002C206043F54941181A20085E3968401A87
:1038200007E02C206043F14A80181A22825E396832
:10383000881A0A900B990A98081809900B990A9807
:10384000081808900B990A9808180C901698C00749
:10385000C00F00287ED00C9A1499881808F0BCFA82
:1038600005900C9808F0B8FA0190306808F0B4FAA6
:103870000090019908F0B8FC0390149808F0ACFA95
:1038800001902C206043D94A8018416A019808F0C1
:10389000ABFC0290039908F061FC0490059908F0D4
:1038A000A1F92C216143D14A891848620C9A1399D5
:1038B000881808F091FA05900C9808F08DFA01909C
:1038C000386808F089FA0090019908F08DFC03909F
:1038D000139808F081FA01902C206043C34A8018A5
:1038E000816A019808F080FC0290039908F036FC88
:1038F0000490059908F076F92C216143BB4A891898
:1039000088622C20604382180620105E0022AA5E86
:10391000801A09D42C206043B44A82180620105E15
:103920000022AA5E801A08E00022AA5E2C206043D2
:10393000AE4BC0180623C35ED01A014664312C205A
:103940006043AA4A82180620105E0022AA5E801AEE
:103950000BD400E024E02C206043A44A8218062007
:10396000105E0022AA5E801A08E00022AA5E2C20C7
:1039700060439E4BC0180623C35ED01A0022AA5E85
:1039800050432C226243994BD31806229A5E64233B
:103990005A438018059007F03EFD00B22880A1E050
:1039A000099A0E99881808F017FA0590099808F0F6
:1039B00013FA0190306808F00FFA0090019908F0AE
:1039C00013FC03900E9808F007FA01902C20604336
:1039D000864A8018416A019808F006FC0290039913
:1039E00008F0BCFB0490059908F0FCF82C21614319
:1039F0007E4A89184862089A0D99881808F0ECF9EF
:103A00000590089808F0E8F90190386808F0E4F9A2
:103A10000090019908F0E8FB03900D9808F0DCF99C
:103A200001902C206043714A8018816A019808F047
:103A3000DBFB0290039908F091FB0490059908F0D4
:103A4000D1F82C216143694A891888622C2060438F
:103A500082180620105E0022AA5E801A09D42C204B
:103A60006043624A82180620105E0022AA5E801A15
:103A700008E00022AA5E2C2060435C4BC01806239D
:103A8000C35ED01A014664312C206043574A821825
:103A90000620105E0022AA5E801A09D42C20604302
:103AA000524A82180620105E0022AA5E801A08E0A0
:103AB0000022AA5E2C2060434C4BC0180623C35E34
:103AC000D01A0022AA5E50432C226243474BD318DF
:103AD00006229A5E64235A438018059007F09BFCE7
:103AE00000B228802C216143404A8918486A08F0B6
:103AF00029F930602C2161433C4A8918886A08F012
:103B000021F93860002019B0F0BDF3B583B0384812
:103B10000078002802D0002005B0F0BD3548C07DF7
:103B200002903448007E0190334A12785100334AA3
:103B3000128D5300D01807F06EFC0746304A1278F9
:103B400051002E4A528D5300D01807F064FC0646EF
:103B50000398008804B20498008805B202980028EF
:103B60002ADDBC4206DAE01B029948438011C019E5
:103B700004B238E02148008D001BB8420BDA1F4820
:103B8000028D008D001BC01B029948438011C01993
:103B9000101A04B227E0174B19229A56174B1B8DA7
:103BA0005B101B1B5A431046144A128D511007F02C
:103BB00032FC001904B216E0BC4214DB0F48008D41
:103BC000C01BA0420FDB0B4B19229A560B4B1B8DCF
:103BD0005B101B1B5A431046084A128D511007F008
:103BE0001AFC001904B2019800280BE0AC08000090
:103BF00061020000D43A000040030000E40300002A
:103C0000410300002ADDB54206DAA81B01994843AA
:103C10008011801905B238E0FE48408D401BB0424B
:103C20000BDAFC48428D408D401B811B01984143BB
:103C300088118019101A05B227E0F74B1A229A56FC
:103C4000F44B5B8D5B105B1B5A431046F14A528D5F
:103C5000511007F0E0FB401905B216E0B54214DB45
:103C6000EC48408D801BA8420FDBEB4B1A229A5682
:103C7000E84B5B8D5B105B1B5A431046E54A528D47
:103C8000511007F0C8FB401905B20398046004986E
:103C90000560002040E7FFB58FB00D4614461E4674
:103CA000199F0F9808F098F80E90284608F094F89D
:103CB0000D90204608F090F80C90304608F08CF8F3
:103CC0000B90189808F088F80A90384608F084F8A5
:103CD0000990BD4217DD1899081B08F07DF8059082
:103CE000B81B08F079F804900599049807F07AFF5A
:103CF00008900E99089808F077FA02900D9908F04C
:103D00002DFA069016E00F99601A08F065F80590F4
:103D1000701B08F061F804900599049807F062FFA1
:103D200008900A99089808F05FFA0290099908F03B
:103D300015FA06900C99089808F056FA02900B991B
:103D400008F0AAFA0790089807F022FF002213460D
:103D50000191009008F0D0F901D1039411E0012005
:103D60008007089908F040FA01900799069808F032
:103D70009FFA0090019907F035FF029007F0E2FFEB
:103D80000390039813B0F0BDF0B593B004460D4610
:103D900016461F46781B08F01FF8129018994943E1
:103DA00022466243881A08F017F811901999481BA7
:103DB00008F012F810902146614332467243881A87
:103DC00008F00AF80F900F99109808F00DFA079074
:103DD0001199129808F008FA0690079908F0BEF9B0
:103DE0000E901999681A07F0F7FF0D90301B07F035
:103DF000F3FF0C90781B07F0EFFF0B901899081B4E
:103E000007F0EAFF0A900A990B9808F0EDF9029082
:103E10000C990D9808F0E8F90190029908F09EF9C4
:103E2000039007F0B5FE002201239B070591049043
:103E300007F07AFD0791069007F090FB099009982A
:103E400007F0A6FE002213460791069008F054F9E9
:103E500008D009990E9807F0C5FE079007F072FF89
:103E6000089000E00896089813B0F0BDF0B505ACD6
:103E700070CC002806D1275E002F01DA00272780AA
:103E800000271F80654F3F787F1E874207D100279C
:103E9000DF5F002F01DA00271F800027278000291D
:103EA00006D1775E002F01DA0027378000272F80A8
:103EB0005B4F3F787F1C8F4207D10027EF5F002FB9
:103EC00001DA00272F8000273780F0BDF0B50346C8
:103ED0000C461546002200210BE052484069524E24
:103EE0007656F6187600805F665C70438218481C30
:103EF00041B20429F1DB4B4840695E00805F2679BE
:103F00007043821805210CE046484669481E464F1A
:103F10003856C0184000305E665C70438218481CFA
:103F200041B20929F0DB10462841024610B2F0BD2B
:103F3000FFB593B0064600200690059004903B48DC
:103F40000178304607F067FA84B238480078604359
:103F5000301A85B2149800282CD032484069079056
:103F6000314903200856801980B212900420085667
:103F7000801980B21190701E80B21090701C80B2B7
:103F80000F9071000798405E0E90109841000798BE
:103F9000415A0D91119841000798415A0C9112987D
:103FA00041000798415A0B910F9841000798415AD8
:103FB0000A9145E01698427A01463046FFF786FF9F
:103FC0000E9016994A7A711E88B21699FFF77EFFF5
:103FD0000D9016994A7A711C88B21699FFF776FFF0
:103FE0000A9016994A7A11490978711A88B2169975
:103FF000FFF76CFF0B9016994A7A0C4909787118F3
:1040000088B21699FFF762FF0C900AA80DA90CAAB6
:104010000BAB0DE0E4030000D43A000040030000C5
:104020004103000090080000030200004C02000061
:1040300000920191029069B260B20E9AFFF716FFEA
:104040001598C007C00F00287ED068462C21415E1D
:1040500009910E98089068463027C75F099908981B
:10406000814205DD099808900898B84200DA08975F
:1040700008990998884214D10898B84211D1601C57
:104080008000FE4909581C980160002C04D0FC48AF
:104090000078C01EA04202D1012017B0F0BD002060
:1040A000FBE7F848807A002811D0A01C8000F34973
:1040B000085801970090601C80000A58A00008581A
:1040C0000390089B0999FFF75FFE069010E0A01C83
:1040D0008000EA49085801970090601C80000A5847
:1040E000A00008580390089B0999FFF7D4FD06909B
:1040F0000698002801DA00200690E3480078800046
:10410000DE490958E0480078401C8000DB4A10581E
:1041100008184110069881420DDCDB4800788000C9
:10412000DA490958D8480078401C8000D74A10580E
:104130000818401006901C9906980860002C06D0BC
:10414000CF480078C01E00E005E0A04203D10498EB
:10415000401C00B2049002211598084002287DD12D
:1041600068463421415E09910E98089068462827D8
:10417000C75F09990898814205DD09980890089859
:10418000B84200DA089708990998884218D1089827
:10419000B84215D1681C8000BC4909581D980160BF
:1041A000002D09D0BA480078C01EBA490978C9075D
:1041B000C90F401AA84201D102206EE700206CE727
:1041C000B048807A002811D0A81C8000AF49085858
:1041D00001970090681C80000A58A80008580390B6
:1041E000089B0999FFF7D0FD059010E0A81C8000FE
:1041F000A649085801970090681C80000A58A8003A
:1042000008580390089B0999FFF745FD059005980C
:10421000002801DA002005909E48007880009B4924
:1042200009589C480078401C8000984A105808188B
:104230004110059881420CDC9648007880001146B8
:10424000095894480078401C800010580818401005
:1042500005901D9905980860002D00E00EE009D03A
:104260008B480078C01E8B490978C907C90F401ACE
:10427000A84203D10498801C00B2049004980CE773
:10428000F7B584B00D46164600BF2C21049848436C
:10429000814940181D27C7572C21049848437E495F
:1042A000085A0390FF2101310398084000283FD0AD
:1042B00030217943794A891801960095C98888B2D6
:1042C000774B01220021FFF733FE0446002C01DB6F
:1042D000012C0CD130217943704A89180196009540
:1042E000C98888B26E4B01221146FFF721FE3021AA
:1042F00079436A4A891801960095C98888B2694B42
:1043000002220021FFF714FE0446002C01DB022CE0
:1043100032D130217943614A891801960095C988C4
:1043200088B2604B02220121FFF702FE044623E01F
:1043300030217943594A891801960095C98888B275
:10434000594B03220021FFF7F3FD0446002C05DB47
:10435000012C03D0022C01D0032C0DD13021794344
:104360004E4A891801960095C98888B24E4B03229F
:104370000121FFF7DDFD0446204607B0F0BDF0B592
:10438000AFB000202A9001202590FDF7A3FA0590F8
:104390000598801C049005986630039000210598CC
:1043A0000170059841706846017641760024FDE36E
:1043B0002C20604338490D5AFF2002302840002845
:1043C0007AD040202840002803D0482028404828A0
:1043D00072D16846007E2B49897888420ADB2C20FE
:1043E00060432D49085A402108432C2161432A4A41
:1043F0005052F9E32D48284000280BD02C20604370
:1044000025494018C07F06210840002802D000201E
:104410002749085527482840002819D02C206043F8
:104420001D4940181821415E28912C2060431A49EB
:1044300040181A21415E27912C20604316494018EC
:10444000C08826902C2060434018807F259005E28C
:1044500001208002284000287DD02C2060430E4996
:1044600041181D200856302148430C4941180620A8
:10447000085E29900648017829981EE004C60010BD
:104480004B020000103A000040030000C4C60010B8
:104490004C02000041030000AC080000980400003A
:1044A00020C800102AC800100CC8001048080000DE
:1044B000701A00000C0A000095E306F0ACFFC0B2D1
:1044C0002C90FE4909782C9841432998401AC0B293
:1044D0002B902C98002813D0F9480078C01E2C99F6
:1044E00088420DD02B9800280AD0F4480078C01ECE
:1044F000F4490978C907C90F411A2B9881422BD179
:104500002C206043F0494018406900280AD12C2033
:10451000604340184069401C2C216143EA4A8918D5
:10452000486161E32C206043E749085A0121890270
:1045300088432C216143E44A50522C2060431146A9
:10454000085A202108432C21614350522C206043FB
:1045500011460D5A2FE030E02C206043DA49401814
:104560004169DA48DA4A1278805C81420BD22C2009
:104570006043D54940184069401C2C216143D24A10
:104580008918486130E32C206043CF49085A012143
:10459000890288432C216143CB4A50522C2060432E
:1045A0001146085A202108432C21614350522C20E7
:1045B000604311460D5A012025902C206043C249CA
:1045C00040181D26865730207043C2494018807A13
:1045D0002A90FF2001302840002813D1302070435A
:1045E000401880890421084000280BD130207043F6
:1045F000B84940180A21415EB748B54A1278805C34
:1046000081425DDC27AA28A92046FFF739FE2D90BC
:1046100030217143AF4A89180620085EA7490978FE
:1046200006F0F9FEC0B22C9030207043A949401822
:104630008179A24A12782C985043081AC0B22B9064
:104640002D9800282ADA30207043A249401880892A
:1046500004210840002812D02C98401C80009F495B
:1046600008589F49497D084128902B98401C80009C
:104670009C4908589A49897D0841279018E03020C4
:104680007043944940182821415E2891302070439E
:10469000904940182A21415E279109E09048417DC8
:1046A0002898084128908E48817D279808412790B6
:1046B000FF2001302840002810D0022025900DE076
:1046C00030207043834940182821415E28913020D2
:1046D0007043804940182A21415E279127A928A8C4
:1046E000FFF713FA2898002801DA002028907C4868
:1046F0002038008D2899884204DC79482038008DC4
:10470000401E28902798002801DA0020279074483E
:104710002038408D2799884204DC71482038408D2C
:10472000401E2790302070436A494018406968490C
:1047300009784900654A143A515E401A00116449EB
:1047400009784900515A4900401801B2269120A821
:104750001821415EFF2901DDFF2002E020A9182079
:10476000085E26902C206043574940184069012874
:104770003BD02C206043401881892C206043524A52
:10478000801801822C2060431146401801892C209A
:104790006043801881812C20604311464018C189F4
:1047A0002C206043801841822C2060431146401821
:1047B00041892C2060438018C1812C206043114620
:1047C000401840882899081A01B22C2060438018AC
:1047D00001812C2060431146401880882799081ACF
:1047E00001B22C20604380184181289801B22C200E
:1047F0006043354A80184180279801B22C206043DD
:104800008018818020202840002827D0289807F091
:10481000E3FA2C2161432C4A89184862279807F053
:10482000DBFA2C216143284A89188862289801B252
:104830002C20604380180183279801B22C2060430C
:104840008018418320A81821415E2C2060438018E5
:10485000C1802C2161438918259888772C206043DA
:10486000194941181820085E2899401A40432C2104
:104870006143154A8A181A21515E279A891A4943B9
:1048800040182E90259801283CD11048123010492C
:104890000978405C40432E99884233DB2C206043EA
:1048A00009494018C07F022805D02C2060434018D9
:1048B000C07F062826D12C20604315E04C02000062
:1048C0004B02000041030000AC080000983A0000D1
:1048D0000D02000098040000723A000004C60010A7
:1048E00004040000C4C60010FE4940181821415EAF
:1048F00028912C206043FB4940181A21415E2791E2
:1049000000202E90002708202840002808D01020E2
:10491000074300212C206043F24A80182030417068
:1049200020202840002802D00420074365E02C21E5
:104930006143EC4A891808228A5E2C216143E94BC5
:10494000C9180A23CB5ED1180291002901DB029914
:1049500001E002994942962913DB2C216143E14A87
:1049600089180C228A5E2C216143DE4BC9180E2364
:10497000CB5ED018002801DB014600E041429629B9
:1049800025DA26A827AB28AA294600902046FEF75C
:1049900072FE2C206043D34940181A302C21614309
:1049A000D04A8918183127AB28AA009101902946CE
:1049B0002046FEF7EEFD0320CB4908760321CB48C5
:1049C0000176C9484176C948183041700AE0142080
:1049D000C54908761421C5480176C3484176C348C5
:1049E00018304170C24800784100C248405A4043E4
:1049F0002E99884201DC0820074327A828AB0194A0
:104A00000090BD48027839462846FEF7D3FC074699
:104A1000BA488078002856D0289882B26846007E2E
:104A20000C21484306A902310A52279882B26846EF
:104A3000007E0C21484306A902314018428020A87C
:104A4000008B82B26846007E0C21484306A90231E1
:104A50004018828020A8008B002801D1002200E0AD
:104A60002A9A6846017E0C20414306A802300818A5
:104A7000C28002203843C2B26846017E0C20414306
:104A800006A8023008180272FF20013028400028D2
:104A900001D0022200E001226846017E0C20414341
:104AA00006A80230081842726846007E0C2148436E
:104AB00006A90231401884726846007E401CC1B2CB
:104AC000684601766DE004203840002803D08B480A
:104AD000C07900280FD010203840002803D0874824
:104AE000407A002807D008203840002859D0834851
:104AF000007A002855D1289882B26846017E0C20A1
:104B0000414306A802304252279882B26846007E8E
:104B10000C21484306A902314018428020A8008B8E
:104B200082B26846007E0C21484306A90231401833
:104B3000828020A8008B002801D1002200E02A9A60
:104B40006846007E0C21484306A902314018C28005
:104B500002203843C2B26846007E0C21484306A9B1
:104B6000023140180272FF2001302840002801D095
:104B7000022200E001226846017E0C20414306A883
:104B80000230081842726846007E0C21484306A98C
:104B90000231401884726846007E401CC1B26846EB
:104BA0000176289801B22C20604300E01EE04D4AB7
:104BB00080180183279801B22C206043801841831C
:104BC00020A81821415E2C2060438018C1802C2130
:104BD000614389182598887702203843C1B22C2078
:104BE00060438018C17700BF601CC4B20F2C01DA8B
:104BF000FFF7DEFB42480079002816D0002410E0C1
:104C00004048008D401E0C21614306AA0232515AD1
:104C1000401A82B20C20604306A902310A52601C7D
:104C2000C4B26846007EA042EADC354840790028DC
:104C300018D0002412E03348418D491E0C206043F7
:104C400006AA023280184088081A82B20C206043FB
:104C500006A9023140184280601CC4B26846007E3A
:104C6000A042E8DC2648C07800281BD0002415E0CC
:104C70000C20604306A90231085A2E900C20604394
:104C8000401842880C2060430A520C21614306AA56
:104C9000023289182E984880601CC4B26846007E93
:104CA000A042E5DC002456E00C20604306A9023156
:104CB000085A01B2049801800C20604306A9023111
:104CC0004018408801B2049841800C20604306A936
:104CD000023140188188049881800C20604306A925
:104CE000023111E0AC080000843A0000683A00008C
:104CF0000D020000143B000054020000C83A0000FE
:104D0000103A0000E4030000401881790498817192
:104D10000C20604306A902314018017A0498C17141
:104D20000C20604306A902314018417A04980172B0
:104D30000C20604306A902314018817A0498417220
:104D400005980078401CC1B20598017004980A309B
:104D50000490601CC4B26846007EA042A4DC00211E
:104D60000598415E08462FB0F0BDFFB509AC70CC88
:104D700000280ED1215E002901DA00212180510096
:104D80002788C91B09B219800021595E914200DDB4
:104D90001A801F490978491E81420FD10021595EAE
:104DA000002901DA0021198051001F88C91B09B2AE
:104DB00021800021615E914200DD2280019900295D
:104DC0000ED1715E002901DA00213180510037884F
:104DD000C91B09B229800021695E914200DD2A8049
:104DE0000C490978491E019FB9420FD10021695E23
:104DF000002901DA0021298051002F88C91B09B23E
:104E000031800021715E914200DD3280FFBD0000E3
:104E10004003000041030000002800D1FEE7704776
:104E2000F0B5002315E0828804685A43A6180022D2
:104E30000AE054009500345F4F59002C00DA6442B8
:104E40003C19521C4C51D2B2C4799442F1D85B1C2B
:104E5000DBB282799A42E6D8F0BDFEB506468148BB
:104E60006946007800258872284629468200401C41
:104E7000C0B2B1505028F9D300247B4821460078B5
:104E8000FCF708FE0746C007C00FC019C0B200906B
:104E90006846C772732189012046FCF701FF019023
:104EA0000098410068460181A800811901A8FFF718
:104EB000B7FFE819641CE4B2C5B2042CDDD3FEBD13
:104EC000FEB569480078C107C90F0818C0B2674924
:104ED00042005418A41DA10702D0E41CA408A40099
:104EE00060490D780290801CC6B261486149007823
:104EF000754342005118498A0191002802D15E4849
:104F0000FFF7ABFF002053E0594F41000A193F78EB
:104F10000021BC467F000B46BE4605E05F00D75F20
:104F2000002F00DD79189B19AB42F7DB6346002B9D
:104F300010D0019B994239DB4E4F7346DB19DB8859
:104F40004B4339466144897B67460B419E46390095
:104F50000CD019E0484F8300FB580093019B994205
:104F6000EADA019F009BBB4220DBE5E74149009F55
:104F7000CB88897B7B430B4159000091009B714694
:104F80009E4500DA19468E4600210DE04B009C46F6
:104F9000D35E002B07DD7746734501DBDB1B00E0AA
:104FA00000236746D3538919A942EFDB401CC0B2E6
:104FB00002998842A8D3FEBD82E77047FCB52A4813
:104FC0000278D007C00F8018C1B228484B001818CB
:104FD000801D830702D0C01C80088000891CC9B2D4
:104FE0008C4623491F4B09781D784B0021495918DD
:104FF000C98A0191002132E063464B435B001C18D3
:1050000000231E4606E07700E75F002F00DDFB1857
:10501000761CF6B29642F6D3019EB3421DDB144EC7
:105020003678B6467700134EBF197F895F437346C3
:10503000F3181B7C1F41002300970CE05F00E65F24
:10504000BE46002E05DD009FBE4202DBF61B774602
:10505000E6535B1CDBB29342F0D3491CC9B2A942B0
:10506000CAD3FCBD4003000041030000903B004058
:105070000D0200002C3A0000801A0000FE48FD4995
:105080000160FE49C160FE490161FE494161FE497E
:10509000C161FE498161FE49CA880285098941854D
:1050A000FC48F549007820314874FB480422007818
:1050B00088744A758A75FA49F84A0A60C30701D0AC
:1050C000C01C00E0801C88804000001D1018086093
:1050D0007047F34AE84806CA82604160F149F24BE2
:1050E00009784A00D21892888285F04A1288C285CF
:1050F000EF484118E0488A792030C2740979017577
:10510000EC49097D01747047F0B51446E9B08E464C
:105110008446002230201546454360462B18187BF4
:10512000C00720D05E89570056A8C65397003AA8FA
:105130005E69C651D6000AAF9869BF19D96903C71D
:1051400022A9186A8E195F6A81C699785CA8815471
:10515000D97862A881546046415D5FA8815459782E
:1051600065A8815403E00020530056A9C852521C80
:10517000D2B20C2ACED3714600208A780CE083008C
:10518000714659184B7946AD5B1E2B5409794EABCD
:10519000491E1954401CC0B28242F0D800216EE072
:1051A0004EAB46AD5E5C685CB446B04265D06546C9
:1051B00056AB6D004600AE469F5B5D5B7F199F530B
:1051C000002675465E533AAB66468700B600DD5949
:1051D0009E59AD19DD51C3009E460AAD7544664621
:1051E00028CDF6000AAFBF190496C0CF9E197D41A5
:1051F0000AAF77443E607D60734622ADEB181F68AE
:105200005D68049E22AB9B191E685B68BE195D41F8
:10521000734622AFFB181E605D605CAD63462E5C7A
:10522000EB5C9E4200D22B5462AB65461E5C5D5D1A
:10523000AE4200D21D545FAB66461D5C9E5DB5421A
:1052400000D91E5465AB66461D5C9E5DB54200D913
:105250001E54481CC0B246AB4EAF0CE01E5C7D5CD9
:10526000AE4201D15E5C1E543E5CAE4201D15D5C3B
:105270003D54401CC0B28242F0D8491CC9B28A4297
:105280008ED8002525808C4860802846632656AB42
:105290003AAA4100595A00290BD02788B94201D9AE
:1052A000218006466788B94203D261808100515847
:1052B000A160401CC0B20C28EBD3632E51D0B000CB
:1052C000175862A86760805DA0735CA8805D20733A
:1052D00065A8805DE0735FA8805D60736648FB171A
:1052E00020300990407C3A462946089305F0CFFFCC
:1052F0000290F00003910AA9069009185E4E03C9B6
:10530000328D2B4605F0C3FF039B029A05F0D7FFB1
:1053100000B220820290009009983A46807C29468B
:10532000089B05F0B4FF07460791069822A90918C3
:1053300003C9728D2B4605F0AAFF3A46079B05F07C
:10534000BEFF01B261820098002801DA258205E0E3
:10535000308D029A824201DB401E2082002902DA4F
:10536000658269B0F0BD708D8142FADB401E6082BB
:10537000F7E7F0B5514B00241D785E7827E02F1930
:10538000BF00FF187F798F421FD12C1964B2A5008E
:10539000ED180626AE5F964200DAEA80002C13DA9A
:1053A0009C781E2C10D2A400E418E2809A78920017
:1053B000D218107198788000C01841715878401C3C
:1053C00058709878401C9870F0BD641CE4B2A642F6
:1053D000D5D8E5E770B530256943C4683039611820
:1053E000048908255443E418CC800024E4430C814C
:1053F00001248C818A700A700A71CB704B704B71DA
:10540000455F5E0055436D004068AD19405F2C4D0F
:10541000920052194861526805465543EA178D615A
:10542000CA619A00274BD21852685043C2174A6289
:1054300008624C8170BD00222049012803D0887881
:1054400008704A7070470A70FBE7F0B50446A9B0CF
:1054500000200C90207A214620311D90887C821CEF
:10546000D6B222681018C01C26906069219020696D
:10547000002529E090280040E40300009804000083
:10548000D80600002C070000800700000808000074
:10549000103A00004003000041030000903B004030
:1054A000380200000D020000843A000014020000DF
:1054B000AC3A0000D43A00002F7500001C04000034
:1054C00004C60010C4C600101190FE488570487CC8
:1054D0002590887C24900F2189012068FBF750F8E3
:1054E000002081002269401C55506269C0B25550AD
:1054F0001528F6D300203021414300220C31E36807
:10550000401CC0B25A520C28F5D3002097E11D99D7
:105510006268484340001018289011992198119012
:105520002191002001468300119A401CC0B2D15045
:105530001528F8D3019926987143401E0818209029
:10554000002074E120982E22401C20900298A25E38
:105550004100289809180020085E82427EDC029BE8
:10556000219AD3185A78002A78D11D9A3E275200E2
:105570000E928A1A1546403DEF5F8742EEDC002509
:10558000555F8542EADC0225555F8542E6DC0A4626
:10559000403A3E25555F8542E0DC02228A5E824227
:1055A000DCDC01229A700E9B3E275B181D46403DB5
:1055B000EF5F8742D2DC029F119DEA550E9D495F45
:1055C0008142CBDC029D119949194A7002255D5F29
:1055D0008542C3DC8A700C980C287CD2401C279032
:1055E000C0B200900C98E1683022504308180C902B
:1055F00001200F90A16901980870E1690298087074
:1056000020990098087000250098FFF714FF6F4656
:105610000ECF2046FFF7DEFE03E0802801DB0546C3
:10562000F6E0A069415D1C91E069269B415D1F91F8
:105630001C991D9848431F99420048006168101842
:1056400040181C9932464A431F9959185118002294
:10565000825E6D1C0D922DB20E9A00E0E4E0821A7B
:10566000944613920E9A8B1B1718821E801C16905C
:10567000481E149705901592604603938A19801E60
:105680001790B81E049218906046801C1990581EFE
:10569000491C0790BF1C501E5B1C521C08900691B1
:1056A00000201A9709930A9207462290B90003A88E
:1056B00040588C460178002910D0009881420DD0C6
:1056C000624613A880580022825E0D98824200DD57
:1056D0000246009800E0A3E0FFF74BFE614613A8E6
:1056E00040580021415E0D98814208DD614603A8C3
:1056F000405801780098814201D0012022907F1CFF
:105700007FB2082FD2DB229800287DD1810003AA26
:1057100052581378002B74D113AB5B5800219C4670
:10572000595E2E23E35E99426BDB0D9B994268DC48
:105730000099117064490A5C1C99511849B21B9177
:10574000A3690F9A995461490A5C1F9951184BB289
:10575000E2690F999E4653540F996346491C09B25A
:105760000F910C99002249699A5E8A180C994A6136
:105770001B99574A8900891800229A5E49680C9F34
:105780005143BB69CA17FF69C9180C9B7A41DA619A
:105790009961734699004F4A002389186246496807
:1057A000D35E0C9F59433B6ACA177F6AC9180C9B8A
:1057B0007A415A6219620C990C9A4989491C5181A3
:1057C0000C9902228A561B998A4201DA0C9A91702E
:1057D0000C9900228A561B998A4201DD0C9A11709D
:1057E0000C9903228A567146724502DA0A460C99D0
:1057F000CA700C9901228A567146724501DD0C9AD5
:105800005170401C40B200E002E0082800DA7DE759
:105810000F98854200D000E72798C0B20C9003E0B3
:1058200025980190249802900298401CC0B22499B7
:105830000290884200D285E60198401CC0B22599AA
:105840000190884200D262E6234A1E49E068FFF7D1
:105850005BFC0C9829B0F0BD30B53024D3686043B0
:10586000C0180624045F52686300D55E4B00D35E07
:10587000AB4202DB0481C18030BD0824045F002CF0
:1058800003DB6400125F9342F6DD018130BDF7B5A2
:1058900084460C4602983025C368614630206C432C
:1058A0004143A646CA18E418506965694019506119
:1058B0009069A669D569E76986197D419661D561C8
:1058C000556A0BE01C0400001C02000024020000CA
:1058D00004C60010C4C60010D0030000106A266A77
:1058E000676A86197D4116625562D089E58940193B
:1058F000D081108A258A4019108250896589401903
:1059000050819089A589284390810020A0810220A0
:10591000022510566557A84200DA9570032503202A
:1059200055572056854200DAD07070465D5618569D
:10593000854200DD585401210120515620568142F4
:1059400000DD507006216046615EC0B2029AFFF72A
:1059500083FF0821615E002904DB6046C0B2029A21
:10596000FFF77AFFFEBDF7B586B006980C46069A9B
:105970000021C5682032A148059209E08A0012186A
:1059800013795B1E137153795B1E491C5371C9B2A5
:1059900082788A42F2D8B8E000208446107930211B
:1059A00048434019438950794843401940891818A1
:1059B00081B2042010568646052010560090012022
:1059C00031E08E4A83009A1813793026029373438C
:1059D0005B195E895379302701937B435B195B899F
:1059E000F3189BB28B4208D219460423D35684463F
:1059F0009E460523D356009313E08B4211D1029E9D
:105A00007E4B76450DD1019F009EB74209D10626F7
:105A1000965F62469200D2180623D35E9E4200DA59
:105A2000D680401CC0B2754A93788342C9D860467C
:105A3000810010460F1804260520BE5738560090E6
:105A4000864257D00698062142683020704340199C
:105A5000415E844648000099302359434919062382
:105A6000CB5E105E5B00D25E904200DD1046059A70
:105A7000D27C42430598007D02410620385E824276
:105A800012DD604642690698808D82420CDD4A69CB
:105A9000824209DD0A228A5E60460A21415E05983B
:105AA0005118007C814225DB3146069A0098FFF7A9
:105AB000EEFE5249641E8878E4B2800040180288E5
:105AC000BA804088F8808878401E8870009A00204C
:105AD000D3B20BE0820052181779B74200D113718C
:105AE0005779B74200D15371401CC0B28A788242C4
:105AF0000BD9EFE741488178890009180A88BA80F4
:105B00004988F9808178491E81703C4A9078002844
:105B100000D041E72746002613E0302078434019A3
:105B20000090007BC00708D109E030207043401985
:105B3000007BC0070CD0761C76B20C2EF5DB7F1CE8
:105B4000FFB20C2FE9D3002008990746086050E007
:105B500030207043401930220099FAF773FD00207D
:105B60000099761C888176B2E9E73020784346199F
:105B7000307BC0073BD0706900900290C017019045
:105B8000F169B069019B009A05F099FB059A527D75
:105B900005F06AFB00B2308504900390716A306AA8
:105BA000019B009A05F08BFB059A927D05F05CFB4A
:105BB00001B271850398002801DA002005E00698FB
:105BC000049A008D824201DB401E3085002901DAF3
:105BD000002004E00698408D814201DB401E708564
:105BE000089801680298814201DA089908607F1CD0
:105BF000FFB2A742B9D3204609B0F0BD1C04000093
:105C0000594800218170491EC17001714171817133
:105C10000A21016155498A8902810A8942810988DC
:105C2000818153490988C1817047F0B50146002040
:105C3000012925D000224C4D4E4B2A704F4C1E8816
:105C400024884D4B1146A4462C270C467C431F5BF1
:105C5000FF050FD5E4181D27E75730246743484C4C
:105C60003C190A27E75FB74204DC6469644501DC3C
:105C700001200246491CC9B20F29E5D32A70F0BDA4
:105C8000FFF7BEFF0020F0BDF0B5012817D0364960
:105C90003D4E0B4605251C698F785D5739480A2211
:105CA00036780023641C002F0AD0012F2CD0022F3D
:105CB00005D10C61002D2FDB012088700B61F0BD38
:105CC0000C61002D05DB01248C700624C4808273D6
