:10000000F03F00001500001000000000000000009C
:10001000002070477CB51B48292149060862012051
:1000200008600020486138200863092088600F209C
:100030000861002008613F20C861FE20C8600420DC
:10004000486000BF00BF00BF00BFFFF7E1FF0646EA
:100050000D4840680090002001900B4D002405E001
:10006000A0002858A100019A5050641C282CF7D3F6
:100070000021009848600098804700BF00BF00BF83
:1000800000BF7CBDA07F0000000400100000000045
:100090000000000000000000000000000000000060
:1000A0000000000000000000000000000000000050
:1000B0000000000000000000000000000000000040
:1000C0000000000000000000000000000000000030
:1002C000000300000000000000000000000000002B
:1002D0000003000000B900000003000000B90000A6
:1002E00000C0000000040000010001000901090134
:1002F0000101424C41444533610000000100090006
:1003000000000000000000000000000000000000ED
:1003100000000000000000000000000000000000DD
:1003200000000000000000000000000000000000CD
:1003300000000000000000000000000000000000BD
:1003400000000000000000000000000000000000AD
:10035000000000000000000000000000000000009D
:10036000000000000000000000000000000000008D
:10037000000000000000000000000000000000007D
:10038000000000000000000000000000000000006D
:10039000000000000000000000000000000000005D
:1003A000000000000000000000000000000000004D
:1003B000000000000000000000000000000000003D
:1003C000000000000000000000000000000000002D
:1003D000000000000000000000000000000000001D
:1003E000000000000000000000000000000000000D
:1003F00000000000000000000000000000000000FD
:10040000F03F0000332E001000000000000000004C
:1004100000000000000000000000000000000000DC
:1004200000000000000000000000000000000000CC
:100430000000000000000000F1050010779300109C
:10044000452B0010312E0010312E0010312E0010DF
:10045000312E00109379001091790010091A0010C4
:10046000312E0010312E0010312E0010312E0010D0
:10047000312E00108F0D00102B1A00104D1A001095
:100480006F1A0010312E0010312E0010312E001086
:10049000312E0010312E0010312E0010312E0010A0
:1004A000312E0010312E0010312E0010312E001090
:1004B000312E0010312E0010312E0010312E001080
:1004C00003B40148019001BDC100000003B401481C
:1004D000019001BD013D000000F002F800F040F87D
:1004E0000CA030C8083824182D18A246671EAB4649
:1004F00054465D46AC4201D100F032F87E460F3ED4
:100500000FCCB6460126334200D0FB1AA246AB46BA
:100510003343184788BC0000E8BC0000103A02D3FF
:1005200078C878C1FAD8520701D330C830C101D594
:1005300004680C607047000000230024002500269A
:10054000103A01D378C1FBD8520700D330C100D58F
:100550000B6070471FB5C046C0461FBD10B510BD2B
:100560000AF0F1FB1146FFF7F5FF02F085FC0AF0F7
:1005700009FC03B4FFF7F2FF03BC02F0A2FC000089
:10058000FCB40022002300240025002600270629B1
:1005900002D4FCC00639FAE7002902D004C00139B0
:1005A000FAE7FCBC7047000002B472B60178013172
:1005B000017062B60139080002BC704702B472B61D
:1005C00001780139017062B6080002BC7047000072
:1005D00062B6704772B670471C3880F3098870475E
:1005E000014802490160704704ED00E0000000107E
:1005F000114B1968114A1268914216D0EFF3098025
:1006000020380860F0C044464D4656465F46F0C06C
:100610001A6010681030F0C8A046A946B246BB4622
:100620002038F0C8103080F30988054B002018707E
:10063000042040420047000018030000140300009B
:100640000703000070B505460C46164602E00FCCC5
:100650000FC5103E102EFAD2082E02D303CC03C5CC
:10066000083E042E07D301CC01C5361F03E02178D4
:100670002970641C6D1C761EF9D270BD10B503463E
:1006800000201A460121890700E089089142FCD820
:1006900008E04418944203D8141A621A4C00201837
:1006A000400889080029F4D110BDFFB585B0074680
:1006B0000D461C4600200190802F06D08B2F0DD0B8
:1006C000A02F2FD0A22F35D124E0002D05D101205D
:1006D000800701906000694688812CE0042D18D1C4
:1006E000E007C00F0019C01C4000FD4940180190F0
:1006F00001988007800F002804D00198C01C800852
:1007000080000190E007C00F0019801C400069467E
:10071000888110E0052D04D1F248019060006946FF
:10072000888108E0062D04D1EF48019060006946F9
:10073000888100E000BF00BF0198002820D0EB4E68
:100740002420708000207060472030700820707076
:10075000E648083002900221684681746100C18138
:100760004474694607980874002101A802F098FAB9
:100770000021022002F0BAF90121022002F0B6F9AC
:1007800009B0F0BDFFB583B01C460E9D02950D9DCE
:1007900001950F9D0095109DED07ED0F002D7AD06E
:1007A0000626109D3540002D50D000204AE046001E
:1007B000039DAE5B4700049DED5FED10751B29B2F4
:1007C0004500535F99421EDD0226109D3540002DE5
:1007D00006D045005153CD1A2DB24600A55330E046
:1007E0004500555F019E7543029E4E43AE19009D24
:1007F0002E4135B2460095534500555BED1A2DB29A
:100800004600A5531DE00426109D3540002D06D05E
:1008100045005153CD1A2DB24600A55311E04500B5
:10082000555F019E7543029E4E43AE19009D2E41B9
:1008300035B2460095534500555BED1A2DB2460082
:10084000A553401C0C9DA842B1DB9DE000201DE09B
:100850004600039DAE5B4700049DED5FED10751BE8
:1008600029B24500535F4500555F019E7543029EC6
:100870004E43AE19009D2E4135B2460095534500BA
:10088000555BED1A2DB24600A553401C0C9DA842A5
:10089000DEDB79E0FFE70626109D3540002D50D0C5
:1008A00000204AE04600049DAD5FEE104700039D26
:1008B000ED5B751B29B24500535F99421EDD022690
:1008C000109D3540002D06D045005153CD1A2DB254
:1008D0004600A55330E04500555F019E7543029EDA
:1008E0004E43AE19009D2E4135B24600955345004A
:1008F000555BED1A2DB24600A5531DE00426109D50
:100900003540002D06D045005153CD1A2DB246007A
:10091000A55311E04500555F019E7543029E4E436D
:10092000AE19009D2E4135B2460095534500555BEA
:10093000ED1A2DB24600A553401C0C9DA842B1DB18
:1009400022E000201DE04600049DAD5FEE10470050
:10095000039DED5B751B29B24500535F4500555F54
:10096000019E7543029E4E43AE19009D2E4135B245
:10097000460095534500555BED1A2DB24600A55330
:10098000401C0C9DA842DEDB07B0F0BDFFB583B074
:100990001C460E9D02950D9D01950F9D0095109D85
:1009A000ED07ED0F002D7AD00626109D3540002D65
:1009B00050D000204AE04600039DAE5B8700049DB6
:1009C000ED59ED10751B29B24500535F99421EDDAC
:1009D0000226109D3540002D06D045005153CD1AFA
:1009E0002DB24600A55330E04500555F019E75438A
:1009F000029E4E43AE19009D2E4135B246009553DE
:100A00004500555BED1A2DB24600A5531DE00426A6
:100A1000109D3540002D06D045005153CD1A2DB202
:100A20004600A55311E04500555F019E7543029EA7
:100A30004E43AE19009D2E4135B2460095534500F8
:100A4000555BED1A2DB24600A553401C0C9DA842E3
:100A5000B1DBA6E000201DE04600039DAE5B8700F1
:100A6000049DED59ED10751B29B24500535F4500FB
:100A7000555F019E7543029E4E43AE19009D2E4167
:100A800035B2460095534500555BED1A2DB2460030
:100A9000A553401C0C9DA842DEDB82E0FFE7062642
:100AA000109D3540002D59D0002053E08600049D54
:100AB000AD59EE104700039DED5B751B29B2450053
:100AC000535F994227DD0226109D3540002D0FD03F
:100AD00045005153CD1A2DB24600A55339E0000010
:100AE000903B004090590040705B0040005D00402A
:100AF0004500555F019E7543029E4E43AE19009D11
:100B00002E4135B2460095534500555BED1A2DB286
:100B10004600A5531DE00426109D3540002D06D04B
:100B200045005153CD1A2DB24600A55311E04500A2
:100B3000555F019E7543029E4E43AE19009D2E41A6
:100B400035B2460095534500555BED1A2DB246006F
:100B5000A553401C0C9DA842A8DB22E000201DE00C
:100B60008600049DAD59EE104700039DED5B751B9B
:100B700029B24500535F4500555F019E7543029EB3
:100B80004E43AE19009D2E4135B2460095534500A7
:100B9000555BED1A2DB24600A553401C0C9DA84292
:100BA000DEDB07B0F0BD0000012110B549034804A9
:100BB000FFF7E6FC00201249124B0870487088705D
:100BC00001221A70104A1080104A1080104A1070CA
:100BD000C87010BD10B5FFF7E7FF0E480021817502
:100BE000018304F058F903F0BDFA00F00EFE0A4943
:100BF0000A4804F05EFE02F096FA04F065F810BDB3
:100C0000010200002F020000B003000052020000A9
:100C100061020000700B0000483A0000843A0000B6
:100C200010B504460020606422466032A0649070D3
:100C3000D07001229207E2615B4A62635B4AA26361
:100C40005A4A34230832E26322464032137020238A
:100C50005370E064108201226265102395221355BF
:100C60002061002901D000F0D4FD51484078208354
:100C700010BD10B54F4C0021207807F009FF002867
:100C800002D0002003F0E0F9207807F0B3FF012044
:100C900010BD10B5112806D0122803D146490820EE
:100CA00001F024FF10BD44490420F9E7C00601D536
:100CB0000120704700207047404800F05CFE00F0C3
:100CC00093FF3F48007808F095FB08F0BFFC002137
:100CD000084607F0F7FD374C012120703648FFF732
:100CE0009FFF0021084607F0EDFD607001210846D6
:100CF00007F0E8FD33492E4D087069780C2001F0AB
:100D000021FD2D4C304E60342B4800F0F1F80020CE
:100D1000305E002802DB00F031FDF5E7A078002806
:100D200001D008F068FF2878FFF7C0FF00280ED137
:100D3000687800280BD020488030407D00090001F1
:100D400010280CD0802810D0002003F07DF92878DE
:100D5000FFF79FFFFFF78DFF0028FBD0D4E780222D
:100D60001021154800F022F9F1E76078002804D03E
:100D7000114800F0ACFB002060700F4800F042F911
:100D8000124904200856124908F0D8FBDFE710B5D5
:100D900007F01CFD0748007807F05AFF0D490F20A7
:100DA000C86207F018FD10BDE0230040005D004060
:100DB000103A000062020000F00A00009037004084
:100DC000DDB40010000200006602000070080000A0
:100DD000B43A000080000052F8B5484E074601259D
:100DE00047493570782048704648474CC5700570B3
:100DF0002168FF20887220684021C06809F007FA46
:100E00000020424964223B0009F0F1FF08050B1560
:100E1000181414141F14086148618861086248623C
:100E200011E008614861886108624862886221684F
:100E3000FA204880F8BD20684280F8BD0861086249
:100E40004861486288618862F5E7086148618861A5
:100E500008624862886275703070F8BDF8B5044663
:100E60008034618B2A4B264DCA1A042700269942EA
:100E700015D005DC274A89181AD0012935D109E097
:100E8000012A22D00B2A30D10021C943012001F0D0
:100E900037FF2AE07D20000102F030F925E0A08B29
:100EA000062822D8082028701449A08B48801CE00E
:100EB00000F038F92873FF215320000641600762D3
:100EC00041628662C66201630FE0012129736030CE
:100ED00041701148017011481E2101804180FA21A2
:100EE0008180C180077547752E7066830120F8BD2B
:100EF00010B5FFF7B3FF012010BD00006402000031
:100F0000103A0000C83A0000B02000004000005233
:100F100004080000FFF7FFFF61020000843A0000B0
:100F200053200006816AFC221143816203F0B3FF63
:100F300003F018F900F069FC1549164804F0B9FCF3
:100F400002F0F1F803F0C0FE07F00EFB08F0ECFD34
:100F5000114C124D124E1349207807F099FD0028CC
:100F600002D0002003F070F8207807F043FE0E480E
:100F700000F082F80746287807F044FE3078002811
:100F8000E9D1002FE7D00849012001F0AFFDE2E7E9
:100F9000483A0000843A00006302000000020000AA
:100FA000103A000080969800F00A000010B5034641
:100FB00080331C465A7509022B4B1143CA1A9942B9
:100FC0001AD00ADC294A891A11D001225203891A3F
:100FD0000DD02748C14205D107E0FF2A05D0FF3ACE
:100FE000FD2A04D0002003F02FF8012010BD00F0EE
:100FF000BCF881206075F8E71E4841780B2001F0AD
:10100000A1FBF2E710B504468030407D81280AD06C
:1010100083280ED084281BD0852807D0002003F019
:1010200013F8012010BD8322812119E0802285213F
:1010300016E0204600F0FDF8E06C012802D9842279
:1010400083210DE00B490B20497801F07BFBE8E799
:10105000204600F0EEF8E06C0028E2D183228421E3
:101060002046FFF7A3FFDCE7848300008010000028
:10107000FDAEFFFF103A0000F1B503F02EF803F0CB
:1010800091F8224D3423287820220421FFF70DFB0C
:101090001F4803F043FA1F4C014620701E4A1C48AB
:1010A00003F0BAFC20701A482C21415E406805F01C
:1010B000B0FF06F005FB02F0DAFC18490A68521C82
:1010C0000A6017490A78002A1ED000240C7000F02C
:1010D00099FB811C00221023047012260DE00C8065
:1010E0004C808C808C714A720B72CF793743CF71F0
:1010F00007780A317F1C0770521CAF789742EED8F0
:101100004470009900788C64F8BD0000103A00002B
:10111000C40300003C020000400200000C3A000042
:101120006002000010B50120FF23532109064B6027
:1011300004220A624B6200228A62CA620B630A625C
:10114000FD244C604C620224CC608C618A62CA62CD
:101150000B638C68CB620A63896810BD10B50321EC
:10116000052001F0EFFA012010BD10B5044603215F
:10117000052001F0E7FA204600F0A9F900206034CC
:101180006070012010BD0120704710B503210520BB
:1011900001F0D8FA012010BD10B5084607F032FD65
:1011A00010BD7047F0B5FE4EFE49002002465300C8
:1011B000521CF45AD2B2CC52342AF8D30022530033
:1011C000CB5E521C1818D2B2342AF8D300221EE08B
:1011D000002A1CD0332A11D053009C46CC5E5F18E5
:1011E0003B46403B3E255D5F3B460227DF5F3B467B
:1011F0009C4219DDAC4219DD234618E066246425C3
:101200000F5F6B5E9F4200DD3B46335307E00023D8
:101210000224CB5E0C5FA34200DC23463380521CC9
:10122000D2B2342AD4D3F0BD9D4200DD2B466446B1
:10123000EBE7F0B505469DB00321052001F082FAE9
:10124000D94C207807F0D6FC08F039FB64212078CF
:1012500007F01EFC002802D0002002F0F5FE2078E6
:1012600007F0C8FC08F0D5F8002835D008F0D8FA07
:101270006421207807F00CFC002802D0002002F046
:10128000E3FE207807F0B6FC08F057FB64212078D5
:1012900007F0FEFB002802D0002002F0D5FE03215B
:1012A000062001F04FFA2C46C04E403423783078A7
:1012B00028220021FFF7F9F923783078012205214F
:1012C000FFF7F3F908F0A5F8002808D000F05FFD5B
:1012D0003078862806D00FE008F061FAC8E700F001
:1012E00043FDF5E700F073FD0021022001F0FEFB55
:1012F0000121022001F0FAFBAD486421007807F0DB
:10130000C7FB002802D0002002F09EFEAA49A9488F
:101310000B780221C41822796156C05600F04AFDAC
:1013200030788A2809D100F05DFD0021022001F00B
:10133000DDFB0121022001F0D9FB03F056FF9F489D
:101340009F49A04A0078097812780291944B9549F8
:101350000327342401920390A03304970094904A09
:10136000A0319048FFF712FBFFF71CFF9649086079
:10137000964803F0B6FD9648007900280DD101206B
:1013800003900421934802970094019103788548C3
:10139000914A8349A03004F0F0F98B487D21006820
:1013A0000901884206DA8D4807F067F98B4807F093
:1013B000BFF901E007F0CFF830783423012206218D
:1013C000FFF773F903F0E2FD8548817D00291BD00A
:1013D000C07D002818D07E48824A00790B922021D7
:1013E0000CAB13C37E492C2214396846FFF72AF947
:1013F0007B4820380EC80FA803F080FF78483822B9
:101400000FA92038FFF71EF900F0F6FC76480178A6
:101410002846FFF7C1FE00212846FFF7C2FE686C90
:10142000401C686401201DB0F0BDFFB581B00024F0
:1014300021460A9800F0C0FAC107C90F0818049E97
:10144000C0B246432046019900F0BCFB0090204604
:10145000029900F0B7FB0746002509E00098A900B3
:1014600040580399C00008F0DEFE690078526D1CF8
:10147000B542F3DB641CE4B2042CD9D305B0F0BD53
:10148000FFB581B000242146049800F095FAC10709
:10149000C90F0818C6B2039802994643204600F0C7
:1014A00091FB05462046019900F08CFB0146002087
:1014B00006E082004700AB58CF5FDB19AB50401C01
:1014C000B042F6D3641CE4B2042CDCD3D6E7F0B50A
:1014D00085B00321052001F035F906F07BFF0024DB
:1014E000314E2746307807F085FB07F092FF002841
:1014F0002FD008F095F96421307807F0C9FA002858
:1015000002D0002002F0A0FD307807F073FB08F055
:1015100014FA6421307807F0BBFA002802D00020CA
:1015200002F092FD07F075FF002815D000F02FFCA7
:10153000022C14D373218901342320224810FFF791
:101540009FFF3423012216491648009704F0CCF877
:101550001AE008F024F9CEE700F006FCE8E7002CDA
:1015600012D10025E9B2342000F026FA420173219D
:10157000E8B2890100F01DFB6D1C042DF2DBFF2198
:101580004131074808F043FE641CE4B2122CA9D391
:10159000342420231022732014498001009427E072
:1015A000705B004090590040FD020000103A0000BE
:1015B000000200002C3A000002020000E0B400101B
:1015C000DFB40010DEB400100C020000C8190000E7
:1015D00070080000E1B40010B05C0040801D000005
:1015E000C80A0000E00A0000630200009015000035
:1015F000FFF71BFF019403200121114C0091029081
:101600000423102203970D49204604F083F8A021FB
:10161000204608F0FCFD0024FF250A4E4135E0B2CB
:101620002A46314600F0C5FA641C042CF7DB03217E
:10163000062001F087F8012020E70000305A004022
:10164000705B0040F023000030B5634A00201102B7
:101650000D24E4014300D55A801CCD52A042F9DB91
:1016600030BDF3B581B001270321052001F06AF8F0
:1016700002981025594E0024002833D0012831D07B
:1016800002282FD0032830D0002700210198FFF72F
:10169000C7FA534D287807F0ADFA08F0DAF864215C
:1016A000287807F0F5F9002802D0002002F0CCFCE1
:1016B0004C48C460287807F09DFA08F0CAF8642105
:1016C000287807F0E5F9002802D0002002F0BCFCE1
:1016D000454847490470454804700020C0430880CD
:1016E0003846FEBDFFF778FB03E0FFF775FB3D488A
:1016F000C4603570C9E700213E48B2E701213D488A
:10170000AFE770B53C4D374C002620682861286251
:10171000606868616862A068A861A86202213548B3
:10172000FFF79FFF012E12D00D22120291052A48C9
:10173000FEF788FF2068761CC04320606068C043C5
:101740006060A068C043A060022EDEDB70BDFFF7C2
:101750007BFFEFE710B5FF2029214906C860274825
:10176000102181630163032001F04DF8032121481A
:10177000FFF777FF002001F046F810BD10B51C48B8
:101780000024045F002C06D0012C07D0022C08D0C6
:10179000032C0BD108E0FFF7AEFF07E0FFF7AEFF29
:1017A00004E0FFF7AEFF01E0FFF7D4FF0720FFF7EB
:1017B00013FB01210F48FFF733FA042C07D00D4823
:1017C00020224030037800218020FEF76EFF03497D
:1017D0000120087310BD00000000405E103A0000B8
:1017E000FD0200006C0200006402000068020000BC
:1017F00066020000F00A000040000052C0030055DD
:10180000214870472048801E70472049002008600A
:10181000704730B51C48202172300170342141706E
:101820001B4900220B8D83824B8DC3828B8D0383DA
:10183000CB8D43830C4620340346257C20339D709A
:10184000647CDC700B8F83848B18203384189B7C22
:10185000521C2377062AF7D300210A4604E04B00E6
:101860001B181A715A71491C83788B42F7D830BD06
:10187000002006490246091D0B18401CC0B21A730D
:101880000C28F9D3704700001A3B00000C3A000006
:10189000C00200100A04120E334B1204090618404D
:1018A0001043090D08437047F0B59C469304644605
:1018B000DB0CA4052343059C8500E405A40A23430F
:1018C0002A4C88006659FF3081303350082901D2F4
:1018D000002000E004200126130CB603B34201D11E
:1018E000002300E002235204D60F4200891A1E434F
:1018F00089000F228A40074663595837BE46DF5990
:101900008E40974337431E467346F7506759034648
:101910006033FE58BE46059F9643FF043F0F8F403D
:101920003E437746FE5064596830235893436246DD
:101930009204120F8A4013432350F0BD0D239B06DF
:10194000C91801604260704710B59204D20C9B0523
:10195000029C1A43E3059B0A1A430D239B06C918F0
:101960000160426010BD00000FF000FF2CB00010BD
:1019700008B50090FEE738B5032189070122411818
:10198000D203914202D300200090FEE7904C002148
:1019900021706170A160606008468E490122830059
:1019A000CB581A61401CC0B20428F8D30021012092
:1019B00006F088FFA07038BDC208D200821A120655
:1019C000854B920DD218C008515C40000818C0B277
:1019D000704710B57E49002014317D4C0860E078D6
:1019E000182148437D4940188268002A04D02169A3
:1019F000E0689047002806D006F0E8FEA07807F0DF
:101A000027F906F0E8FE10BD724908684069C00772
:101A10000AD00968012088616D491431087008688E
:101A20006F49884200D1D4E770476A4948684069E5
:101A3000C0070AD04968012088616549143148709F
:101A400008686749884200D1C3E7704761498868E0
:101A50004069C0070AD08968012088615C49143157
:101A6000887008685E49884200D1B2E770475949DA
:101A7000C8684069C0070AD0C96801208861544914
:101A80001431C87008685649884200D1A1E77047F0
:101A9000F8B54F4C054620780A2802D30120009063
:101AA000FEE76969CA0702D002200090FEE7A2683B
:101AB000891801229202914202D903200090FEE788
:101AC00018214843454E0A4680192946FEF7BAFDBB
:101AD000A16860681822401821785143891908616B
:101AE0006A69296908F02BFB2078401CC0B220707D
:101AF0006969A2688918401EA160F8BD18B40C4637
:101B000033490978814202DC04200090FEE7182165
:101B1000484332490B58002B04D0204601B010BC7A
:101B20001146184718BC01207047F8B5284C0546E7
:101B3000207816460F46A84202DC04200090FEE7FB
:101B40006078002802D005200090FEE7E570E7608D
:101B50002661A07807F04EF8182045431F4831460B
:101B60002D186A68384690476421A07806F090FFE7
:101B7000002802D006200090FEE71549002014310D
:101B80000860EA68002A02D03146384690470020B3
:101B9000F8BD0F481821C078484310494018006923
:101BA00070470B481821C07848430C4940184069D9
:101BB000704710B50B4B8000185840181146FEF7BF
:101BC000DFFC10BD074A8000105840187047000025
:101BD0007C0200002CB000104CB00010D40B0000B0
:101BE000010101013CB00010F8B5FF4FFD4834265B
:101BF000F86020257E823D75002421463420FFF7C1
:101C0000DBFE39190872C107C90F40186100641C56
:101C1000E4B27852042CF0D37320400138820120C2
:101C20007875F14CF1481834801CE06036206082F1
:101C30002575002739463420FFF7BEFEE1190872EA
:101C4000C107C90F401879007F1CFFB26052042FF2
:101C5000F0D3BB208001208200276775E448FFF79E
:101C600017FFE44C0121A060DF4889072C38016090
:101C700086800121C18073214901418107810721AB
:101C800001738173DA493031016134314161457347
:101C9000C67303210176D6484838FFF7F9FED24AC9
:101CA0002060103A11461C39FFF728FFCE487321F7
:101CB000490130300180D0494180D0498180732171
:101CC0008901C180078189104181BB2189018181FE
:101CD000032181730821C173C5740675C448303867
:101CE000FFF7D6FE6060C048C44948300180857166
:101CF000C67173214780090181800772BC48183082
:101D0000FFF7C6FEE060B848BC49683001808571C5
:101D1000C671BB490161BB49C1607321478009019C
:101D20008180B3481838FFF7B3FE2061F8BD10B5C5
:101D3000B548AD49428868314A8180880881AD48FC
:101D400000220069FFF7F1FE10BDA74810B548302A
:101D5000AE490161891EC16002460146A5481432A0
:101D6000C068FFF7E2FE10BD9F4810B507212C3870
:101D7000017381739E490246303101613431416102
:101D800001469C481C320068FFF7CFFE10BD964804
:101D900010B507212C380173817395490246303103
:101DA000016134314161014692481C320068FFF7FD
:101DB000BCFE10BD8C4B10B53033187459749A7436
:101DC0008C48002219464068FFF7AFFE10BD10B5E1
:101DD0007320854940010882864800228068FFF709
:101DE000A4FE10BD10B580498448088281480022B5
:101DF0008068FFF79AFE10BD10B57B497D48002230
:101E000018318068FFF791FE10BDF0B585B004462B
:101E1000FFF7BFFE05460120A9B20027C00708183A
:101E200003910290207D3946FFF7C6FDC107C90F17
:101E30000818C0B20190E07CBE004006410C019839
:101E40000143734880590164FFF7ABFE03994118C1
:101E50006F48805941606E490298895988606C4981
:101E60000020895948640126009601462288384698
:101E7000019BFFF719FD0096628801213846019BFE
:101E8000FFF712FD0096A28802213846019BFFF75A
:101E90000BFD0096E28803213846019BFFF704FD05
:101EA0000096228904213846019BFFF7FDFC00962D
:101EB000628905213846019BFFF7F6FC0096A2894E
:101EC00006213846019BFFF7EFFC7F1CFFB2042F71
:101ED000A8D30F2161566868FFF7DCFC68600E200C
:101EE00020564142E868FFF7D5FCE86011216156B1
:101EF0002869FFF7CFFC286110216156A869FFF718
:101F0000C9FCA861122020564142286AFFF7C2FC92
:101F100028623F49002082008A581660401CC0B2E7
:101F20000428F8D3012005B0F0BDF0B585B0044613
:101F3000FFF72FFE0190012180B20026C907039010
:101F400040180290E0793146FFF736FDC107C90F0E
:101F50000818C7B2A0792E494006B500400C49596F
:101F600038430864FFF71DFE03994118284840597B
:101F700041602749029849598860254900204959FC
:101F8000486401250095014622883B463046FFF70C
:101F90008BFC009562883B4601213046FFF784FCAC
:101FA0000095A288002302213046FFF77DFC0095B2
:101FB000A08879004218002303213046FFF774FC03
:101FC0000095A088B9004218002304213046FFF78D
:101FD0006BFC0095A188062078430A180023052190
:101FE000304617E0005D0040F00C0000FE3B004072
:101FF0005CB100109402000090150000F023000076
:10200000E0190000241B0000003A0000EA0A00006A
:102010002CB00010FFF748FC0095A2883B46062133
:102020003046FFF741FC761CF6B2042E8AD3208995
:10203000401E01B201984068FFF72CFC01994860EE
:102040000A20205EC1430198406AFFF723FC0199F2
:102050004862FF49002082008A581560401CC0B2C7
:102060000428F8D301205EE7FEB500218183C183F7
:10207000816104460D464161002001900090E079A5
:102080000099FFF799FC0646C007C00F8019C7B238
:10209000732109010098FFF795FD6F4379004118FE
:1020A000002D0CD0022D05D0012D2BD020461E3046
:1020B000002231E0019A0020920094461FE0019A2C
:1020C0000020920094460AE042008700E3688A5E9E
:1020D0006744DA5163699A18401CC0B26261B04229
:1020E000F2D31BE042008A5A87005242236912B29F
:1020F0006744DA51A3699A18401CC0B2A261B04289
:10210000F0D30BE020461C30D2E757000388CF5BAA
:10211000DB19521C0380D2B2B242F6D30198801967
:1021200000B201900098401CC0B200900428A6D3D1
:102130006D1CEDB2042D9FD30120FEBDF0B5044609
:1021400087B000200290FFF724FD0190607D002100
:10215000002808D0E06824224280472241600270B3
:102160000822427002920198002581B2081D059054
:102170000120C00708182F460490217D6019007ABD
:102180004906490C0843B249AE0089590864B04970
:102190000020895948640120009068000390235A68
:1021A000228A00212846FFF77FFB01200090029839
:1021B000E16838180A18638A01212846FFF774FB82
:1021C0000398A349205A89594000C01987B205983D
:1021D00048609F490498895988606D1CEDB2042DB0
:1021E000CBD301989B4901600020994901228300CB
:1021F000CB581A60401CC0B20428F8D3012007B0A5
:10220000F0BDFEB504460191FFF7C3FC06460199F7
:10221000206988600199E06848608F4931608F4982
:102220007160207A08278E4A8E49022804D0B26055
:10223000207A0C27012801D0F1513F1D01210025F2
:10224000B0B2C90740180290E0792946FFF7B4FB05
:1022500001997F4A4855C107C90F0818C3B2A07930
:102260004006410C1943A80012581164784A002115
:1022700012585164764A029912589160744AF119C1
:10228000105889B241600120009022880021284620
:10229000FFF70AFB012000900146628800232846D0
:1022A000FFF702FB01200090A288002302212846AC
:1022B000FFF7FAFA6D1CEDB2042DC5D30020644A75
:1022C00001218300D3581960401CC0B20428F8D300
:1022D0000120FEBDF8B50546007A0C4602281BD049
:1022E000614F002669883046FFF76CFC02460020EB
:1022F000A35D06E04100515EB94200DA0F46401C82
:10230000C0B28342F6D8761CF6B2042EEAD36068D7
:102310000780287A012819D0534F7F420026A988C8
:102320003046FFF74FFC02460020A35D06E0410067
:10233000515EB94200DD0F46401CC0B28342F6D860
:10234000761CF6B2042EEAD3A06807800120F8BDFF
:10235000F0B50024817BA44627468E462BE000235F
:102360001A461946067B15E005692D5D9540083231
:102370002943D2B2202A0AD365464269AD00525998
:102380008A4211D16146491C8C46002211465B1CD1
:10239000DBB2641C9E42E7D8002A0AD06246436939
:1023A00092009A588A4201D00020F0BD6146491C33
:1023B0008C467F1CFFB2BE45D1D80120F0BD00B5D0
:1023C000FFF7C6FF002800D0012000BDF0B585B0A2
:1023D0000C460546FFF7DDFB0290012060720027E6
:1023E0002773287BC01C8008E072A97B687B07F0FC
:1023F00010FFA072A97B4843697B884205D0081A68
:102400002072A07A401CA07200E027720298002679
:1024100081B2081D04900120C0070818019603909E
:10242000E87B3146FFF7C8FAA1190871C107C90F47
:102430004018A05500200649B700C9594864E888EB
:10244000009029680198AB880A18002130460DE0F9
:102450002CB000100010C0230010000C0020000C55
:102460001010002120204021FF7F0000FFF71CFA00
:10247000287B01282FD0A17A2A8941434806A15DF3
:10248000400C0843A049C959086401200090014646
:10249000A35D3046FFF708FA9B490498CA5950607B
:1024A000CA5903989060A05D761C42000198F6B26C
:1024B000101880B20190042EB2D30298934A0260A1
:1024C000002001228300CB581A60401CC0B20428AF
:1024D000F8D3012027E5697B6A894906A05D490C8C
:1024E000CFE7F8B517460C460646002501200090B8
:1024F000607BA17B7B5D401A801958436189400055
:102500004218E8B20121FFF7CFF96D1C042DEDD37D
:10251000FA7A7D4D1046724380188646002310E0FB
:1025200091008C4600209900803166696746F65913
:102530008700EF597E50401C0428F6D35B1CDBB2A9
:10254000521C7245ECD3F8BDF8B517460C4606464A
:102550000025012000907B5DA17B18464B436189DB
:10256000704340000A18E8B20121FFF79DF96D1C85
:10257000042DEED3FA7A644D1046724380188646D5
:10258000002110E093009C4600208B008033666998
:102590006746F6598700EF59FE50401C0428F6D3D1
:1025A000491CC9B2521C7245ECD3F8BDFEB50C46AD
:1025B0000546FFF7EEFA0746287B032101287DD068
:1025C000607A0128207B1BD0401CC0B22073AA7BFC
:1025D000904273D222462946FFF783FF0020012252
:1025E0004949BDB2D307C4002C19E61884000F591D
:1025F000BE600C592260401CC0B20428F3D37DE0B9
:10260000401CC0B22073AA7B90423DD8012833D130
:10261000207A0028A07A01D0401EC0B200264006D1
:10262000400C0290B8B2019001200090A35D287B7D
:102630002A89434300213046FFF736F9A15D02980D
:10264000314A0143B000125811642F491822095829
:10265000AA564A64297B2E4BA25D090419430A43FA
:10266000F1007A50019A5118274A091D105841600B
:10267000761CF6B2042ED7D3207B2246401EC0B271
:102680002946FFF761FF28E0207A002838D0101A89
:102690002073022060720026A05D1B49B200895899
:1026A000FF3001300864207B22462946FFF719FFDE
:1026B00001200090A35D287B584300E020E0A17A30
:1026C000491E484329894000421800213046FFF73F
:1026D000EBF8761CF6B2042EDED3002001220A4964
:1026E000BDB2D307C4002C19E61884000F59BE6090
:1026F0000C592260401CC0B20428F3D30020FEBD58
:1027000061720120FEBD00002CB000100010C0233B
:102710000010402F10B501462C4807F07AFD420A00
:102720002B49012048602A480023403003620F23D0
:10273000C3620261FF224261826103224A60042176
:10274000016210BD70B5401F0C46224D030008F019
:102750004EFB0817191D1D1D0D05081D2868844214
:1027600017D00846FFF7D6FF2C6012E02922520648
:10277000506BC9B2FF231B0218400843506308E0A6
:10278000012000E0002000F012F802E0002001F03B
:102790005BFC012070BD10B500F08BF800F0BBF8B9
:1027A00000F01CF80A490F204031C86210BD10B576
:1027B000002803D0084600F04EF810BD0648C07847
:1027C0000028FAD1084600F027F810BD40D2DF03F8
:1027D00040000052A8020000C83A00003D20024913
:1027E00000040863704700004002005510B54B4CD0
:1027F0000320216807F0F0F820684949401C206058
:102800001020886310BD0021022801D0032800D1C8
:10281000444900208165704710B529225206D168CD
:102820000C239943D16002213F4B012807D0022895
:1028300005D0032807D0002001F006FC10BD596028
:102840003A48106210BD596039481062D06880065D
:10285000800ED06010BD70B529225206D1680C23BD
:102860001943D160032530490123002808D00328EB
:1028700003D0002001F0E8FB70BD4D60136270BD15
:10288000F720C0011062284C0020403420601F2631
:102890006660A6604D60F524E4011462F124E40151
:1028A0001462136208614861886108624862886244
:1028B00070BD70B51F4CA06B00218A001219126800
:1028C000491C801A0E29F8D321681B4A29256D0658
:1028D000914217D1E16B194A914213D1002810D1CE
:1028E000A0680104E06800020143206901436068B8
:1028F000C0B205F05CF86069A1692863080208307D
:10290000686370BD402028630D4868630D49072047
:1029100005F04DF870BD00209DE700007802000032
:10292000C0030055ED27001040000052A57F0000B5
:102930000578000080070120100410201306741988
:102940000840000020202000F0B5264924480862F5
:1029500025480168090A090201600368FF2109028C
:1029600003228B4392039B18036004680B029C4371
:1029700015026419046004682602360A8C053619AB
:1029800006604668360A3602C036466046688E43A0
:10299000B6184660466801279E43BF05F619466093
:1029A00046683602360A36194660C6688E43B11844
:1029B000C160C16899434919C160C1680902090A27
:1029C0000919C1600169090A0902C0310161074999
:1029D000401708600549064880390860F0BD0000CE
:1029E0000000C08000ED00E000E400E080E100E0D5
:1029F000E1F0010001228105D203801A8003000E5C
:102A000082009D48890D8058002800D040187047EA
:102A100010B5C2B2984B000A4400203B1B5B9342A6
:102A200002D80020088010BD934C8000603C2058E4
:102A300080189A1A0A8010BDF8B5904C60782178F9
:102A4000000208438E49496AFF228900890C01323D
:102A5000551A022D1AD047DDD600811B20292ED20F
:102A6000FEF706FF6078227801028648114340682D
:102A7000A37802468032518393838A1B0121002A66
:102A800008D0152A09D0162A16D109E0294600F0E7
:102A900091F829E0603041700EE0603081700BE009
:102AA0006322115400216218937842186032491C45
:102AB000C9B213712E29F6D3FEF769F914E001218A
:102AC0000903884210D26946FFF7A2FF00280BD005
:102AD00069460988AD1EA94201DD69460D80694637
:102AE0000A88A11C07F02BFB0120F8BDF0B50522D8
:102AF000012404278425644B1207012807D00026EF
:102B0000022810D0042810D0082810D109E05D4810
:102B100041601760002000BF401CC0B2C828FAD333
:102B200003E017600CE0002903D015601C70012041
:102B3000F0BD1760002000BF401CC0B2C828FAD307
:102B40001E70F4E7F8B54E4E4036756A0020C0435B
:102B5000F062E80501D5302021E0A806800F1FD0E3
:102B6000474C6068C007FCD048480078122803D161
:102B700000210220FFF7BAFF424F28463978FFF7BD
:102B80005BFF02202060012020600C2020623B4877
:102B9000A0623F48206200203870FF200130306280
:102BA000F8BD70B5374C00256C20656000F043F827
:102BB000257070BDF8B509260446B6010025801BB6
:102BC000662804D2FEF71EFE0019801B1EE00121BC
:102BD00009038C4204D2A0B26946FFF719FF15E041
:102BE0002C48621A824209D226488C424368986B6C
:102BF00001D015460AE0002B08D1F8BD0120C00322
:102C0000201A8842F9D2A0B2FFF7F4FE0028F4D0CF
:102C100043191B48042140300160194902220A610E
:102C200001220A61052109078A6083601A4901604F
:102C3000491E0160F8BD30B58421052212071160DC
:102C400001231361002414620D4902250D600B60FD
:102C50000D610B617F231B021843D0610C200862B9
:102C6000064888620A4808620548611E4030C16211
:102C7000C462E021016230BD58B20010780D00003E
:102C800080000050AC02000004020000103A000076
:102C900009000001C81C00000900FFFF0120704767
:102CA00010B5827B042A01D0022A21D000231522EC
:102CB0009206046894614468D4619360037B447B0A
:102CC0005B1E1B04641E2343D3600389847B1B04A7
:102CD000234313614389807B1B0403435361012019
:102CE00090621060002902D050680028FCDB10BD03
:102CF0000123DCE701211520800681620162704713
:102D0000F3B583B00E46FEF77DFD29240398002518
:102D1000640601280BD0022809D0032807D0042814
:102D200069D0002001F090F9012005B0F0BD374FC7
:102D3000314678690090364807F06BFAE96B0291EA
:102D4000296C0191216A490849002162216A314AAE
:102D50001143216230490D62FF22CA623D612F4951
:102D6000E9632F492964A168FE221140A160216A0C
:102D7000022211432162002100BF00BF00BF491C95
:102D80003229F9D3216A01229202114321620127DB
:102D900067621E494861886107220A610398032817
:102DA00016D030460099FDF78BFB206A000C00041A
:102DB0002062206A3843206265620298E8630198C5
:102DC0002864194817490160134804210162ABE7E0
:102DD0000098761C0BD0154B236230BF256251231F
:102DE0001B061D60486188610A61A760DDE70F4B23
:102DF00009332362F2E70C497D2000010D60A061D8
:102E000003206061012060618EE7000000E000E0C7
:102E100050C30000A4FB000080000052030100002A
:102E200007010000E120000000E100E0A67F0000B3
:102E3000FEE710B5FDF750FB10BD10B505F0FBFC2B
:102E4000184B194A0021194806F001F8184B194A85
:102E50000021194805F0FBFF05F010FD10BDF92118
:102E600053200006416004210162FF2141620022DB
:102E70008262C2620163704710B5FFF7F0FF04F091
:102E800079FDFFF788FCFDF721FBFFF733FFFFF724
:102E900088FEFFF759FDFDF787FEFFF7CEFF012003
:102EA00010BD0000B414000009900100B90C00101E
:102EB000641900000A2C0100210F001003460A4685
:102EC0007047FEE730B502460020884C0146535655
:102ED0009B001B195B684D00AB40491C1843C9B2ED
:102EE0001029F4D330BDFFB581B00D4606461C460F
:102EF00010210A9F039807F088F9B878B04254D897
:102F0000F978B14251D3301AC3B20020E278A178E7
:102F100003E09B1A0818DBB2C0B29A42F9D9421EEC
:102F20008A18267AD2B2964204D8701AC0B2421ECB
:102F30008918CAB2002D0AD0012D0FD0202A34D30F
:102F400020281FD22021081AC1B200201DE010281D
:102F50002BD2102A00D30F22002124E0202824D2D3
:102F6000102A22D3102804D21021081AC1B200203E
:102F700002E01038C0B20021202A01D30F2212E053
:102F8000103A03E000212038C0B2203AD2B20AE061
:102F9000E57866684D4375195E5D039D2E54401CAF
:102FA000491CC0B2C9B29042F2D905B0F0BD30B5EB
:102FB0000446002085B02E2C04D2102C15D26100BE
:102FC000012011E01378A34211D85578A5420ED301
:102FD0000022497A03E0521C8000D2B2401C914288
:102FE000F9D8E21A4A435100884005B030BD0B467B
:102FF000009201AA00212046FFF775FF01A8FFF704
:1030000061FFF2E730B50446002085B02E2C05D2D2
:10301000103C102CE9D26100012012E01378A34289
:1030200011D85578A5420ED30022497A03E0521CEC
:103030008000D2B2401C9142F9D8E21A4A435100B2
:1030400020398840D1E70B46009201AA0121204691
:10305000FFF749FF01A8FFF735FFC6E730B5044683
:10306000002085B02E2C05D2203C0E2CBDD2610054
:10307000012012E01378A34211D85578A5420ED34F
:103080000022497A03E0521C8000D2B2401C9142D7
:10309000F9D8E21A4A43510040398840A5E70B4667
:1030A000009201AA02212046FFF71DFF01A8FFF7A9
:1030B00009FF9AE770B505460C46007AA9784018D2
:1030C000401E07F0B0F8697A064608462D3007F032
:1030D000A0F82E30A070E97871434118491EE170C4
:1030E0002E212170401E607070BD000068B200107B
:1030F00010B501460120FFF7D1FD10BD10B5014606
:103100000420FFF7FDFD10BD10B501460120FFF7BB
:10311000F7FD002010BD10B501460320FFF7F0FDBC
:10312000002010BD7047FF4922200870FE4936205C
:1031300008707047F3B58700FC48FD4C81B0C0595A
:10314000A16807F061FE0546E16807F05DFE0146F3
:10315000284607F04FFC0646029807F045FD6168D7
:10316000009107F0FBFE314607F094FE009907F04E
:103170004BFE6060284607F013FC04460D463046BF
:1031800007F00EFC0022EB4B07F0C0FA22462B465C
:1031900007F0D2FA07F0EAF8E449C851FEBDF3B5EA
:1031A0008700E248E24C283881B0C059A16807F096
:1031B0002BFE0546E16807F027FE0146284607F08A
:1031C00019FC0646029807F00FFD2168009107F0F0
:1031D000C5FE314607F05EFE009907F015FE20603F
:1031E000284607F0DDFB04460D46304607F0D8FBC5
:1031F0000022D04B07F08AFA22462B4607F09CFAB1
:1032000007F0B4F8C9492839C851FEBDFFB581B0EF
:10321000054603980A990768049806680020085E26
:1032200007F0E2FCC24C20600B990020085E07F01A
:10323000DBFC6060C04800780028029804D0C2051A
:103240000120BE49800702E0C205BD49BD48A1601A
:10325000E060B6482830415D002915D028B239B267
:103260000546FFF79CFF31B22846FFF763FF206851
:1032700007F070FC03990860606807F06BFC049924
:103280000860002005B0F0BD01214155A74A7F200C
:10329000C005A900283A505028325050384607F04F
:1032A000A3FC2060304607F09FFC6060DFE7FFB5BD
:1032B0008DB00A200B900A90A348078D79090291DE
:1032C000408D3421039006F0A4FF05909F48A0494B
:1032D000007840000D5A40188088049007900F989D
:1032E000029906682C46B81B88420DDAB74201D114
:1032F0000B9D08E029460A3968434843029906F0C5
:1033000092FF05460A3504951099039809680291C1
:10331000401A059988420FDA039A02998A4201D12C
:103320000A9C08E021460A3960434843059906F0A3
:103330007AFF04460A3407940D98242148438549AE
:1033400047181820385E821B00D5321A1A23FB5EFC
:103350000299591A01D50299C91A51180E9A089161
:103360000291D20720D04E4368438019691806F0B5
:103370005AFF0F99086010991A20385E0968029A5E
:10338000604351434018A11823E06431002800D560
:10339000981A584364235A43801806F044FF16993C
:1033A0000880002011B0F0BD049A4E4350438019AC
:1033B000511806F038FF0F991A220860BA5E079874
:1033C000089942431098006848431018089A0799D2
:1033D000891806F028FF1099062208601698002325
:1033E000BA5EC35ED01A01D40146CEE7991ACCE783
:1033F000F3B5594885B00078002802D0002007B006
:10340000F0BD5648C27D0392007E02904E48018D69
:1034100001914F09408D3421009006F0FAFE0646D6
:1034200005984E490088039A05B20698008804B2B0
:103430001920085601994908002A28DDBD4204DAFE
:10344000E81B50438011C01910E0019A521BBA4288
:1034500007DAD11B039A019851438911C919401AFF
:1034600004E04A1B504306F0DEFE401905B23B491A
:103470001A2008563449029A498D4908002A24DD49
:10348000B4420BDAA01B50438011801917E0BD42F3
:10349000EDDB019AD21BAA42E3DAE8E7009A121B9D
:1034A000B24207DA911B029A009851438911891997
:1034B000401A04E00A1B504306F0B5FE001904B29E
:1034C000059805600698046098E7B442F8DB009A16
:1034D000921BA242EEDAF3E7FFB589B01D4614460F
:1034E0000E46139F099807F07FFB0290304607F0C5
:1034F0007BFB0690204607F077FB0190284607F0FB
:1035000073FB0590129807F06FFB0490384607F0A4
:103510006BFB0390BE422FDD1298001B07F064FB8B
:1035200006461DE04F020000500200009019000006
:10353000B40200000000F03F2E0200006666863FE5
:103540003333733F0000C040C40300000202000098
:103550000C3B00008C08000061020000D43A00001F
:10356000781B07F041FB314607F044FA0546029903
:1035700007F090FC06990FE00998201A07F034FB39
:103580000746A81B07F030FB394607F033FA05461B
:10359000049907F07FFC039907F036FC074628469C
:1035A000019907F077FC059907F0CCFC0646680006
:1035B000000E0FD00121284607F022FB04463146B9
:1035C000384607F0CBFC214607F014FA07F0C2FAA0
:1035D0000DB0F0BD2046FBE7F0B50E46054685B0C0
:1035E0001446981B07F000FB049001900A992846A6
:1035F000684349430746C81B07F0F6FA00900B984A
:10360000801B07F0F1FA039020466043381A07F058
:10361000EBFA0146039807F03DFC07460099019834
:1036200007F038FC394607F0EFFB02900B98301A90
:1036300007F0DAFA0190601B07F0D6FA06460A98FE
:10364000049F401B07F0D0FA0146384607F022FCE1
:1036500005463146019807F01DFC294607F0D4FBCA
:10366000012107F0CDFA01464000000E05D0029876
:1036700007F0C0F907F06EFA04E6204602E6F0B55E
:103680008C460146C8240020A41A059F069E079D6B
:10369000002902D01F2911D020E00021795E0029E5
:1036A00000DA38803988611A09B21980914203DA48
:1036B0003F88E11B198011E01A800FE00021595E5C
:1036C000002900DA18801988611A09B239809142FC
:1036D00003DA1B88E11A398000E03A80614600294C
:1036E00010D033290DD10021715E002900DA30801D
:1036F0003088201A00B22880904214DA3088201ACC
:103700002880F0BD0021695E002900DA2880288821
:10371000201A00B23080904203DA2888201A3080C4
:10372000F0BD3280F0BD2A80F0BDF0B59446FA4A73
:103730000026FA4C55693346E756CA5C3F187F00AD
:10374000EF5F5B1C5743BE195BB2042BF4DB4200F6
:10375000AA5E0B795A4396190523E718203F1F22CA
:10376000BA5617187F00CA5CEF5F5B1C5743BE193F
:103770005BB2092BF1DB6046064130B2F0BDFFB50C
:10378000064689B000200890E5481F46017830467B
:10379000009106F03EFD009904464843301A85B278
:1037A000002C09D0DF480078C01E844204D0002DD0
:1037B00002D0C81E854200D1DB4F701E01900A99CD
:1037C000701C0090002921D0D44903228A56D24887
:1037D000921997B204228A56406991190B040199F3
:1037E00076000A04865FD20B07960099865A6A46CD
:1037F0009681DA0B835A6A4613827A00835A090447
:103800006A469382C90B405A108338E07A7A394667
:103810003046FFF78AFF079001987A7A80B23946DE
:10382000FFF783FF01466846818100987A7A80B26B
:103830003946FFF77AFF014668460183B8487A7A2D
:1038400000783946301A80B2FFF76FFF01466846AC
:103850008182B3487A7A00783946301880B2FFF70F
:1038600064FF01466846018206AA03A904A86E46C1
:1038700007C605AB69B260B2079AFFF700FF0B9865
:10388000C0074DD06A461421515E1020079B105E80
:10389000994203DD0B46814200DA0346A34F994269
:1038A0000FD183420DD1A000C01941681298002C9D
:1038B000016004D09B480078C01E844253D101208F
:1038C00086E69B4A927A002A0BD0984AA600B21844
:1038D000976801900097954852688059FFF77CFEE1
:1038E0000AE0924AA600B2189768019000978F48A4
:1038F00052688059FFF7F0FD19218902002801DA8A
:10390000002002E0884200DB8A481299002C0860FF
:1039100004D084480078C01E844201D10120089060
:103920000B9880074DD568460C21415E1822079BF5
:10393000825E994203DD0B46914200DA13467B48D2
:10394000C030994211D193420FD1A90008184168A3
:103950001398002D016004D071480078C01E854284
:1039600001D1022034E6002032E6714CA47A002C0A
:103970000AD01746AC002218966801970096526844
:103980000059FFF729FE08E0AC002618B768009739
:10399000019200597268FFF79FFD6749002801DA1C
:1039A000002002E0884200DB08461399002D0860E1
:1039B00004D05B480078C01E854202D10898801C64
:1039C0000890089804E67CB50E4624211546484325
:1039D0005A495A4A095A82181D201056302250431B
:1039E000574AC9058418E08800290096019526DA0F
:1039F0004D4B01220A330021FFF7C1FE002801DBF5
:103A0000012808D1484B009601950122E0880A332D
:103A10001146FFF7B4FE444B00960195E08814333D
:103A200002220021FFF7ABFE002801DB02281DD196
:103A30003D4B009601951433E088022213E03A4B87
:103A400003220A3B0021FFF79AFE002805DB01282C
:103A500003D0022801D0032808D1334B00960195EA
:103A6000E0880A3B03220121FFF789FE7CBDF0B507
:103A7000ADB00020299001202690FDF7C3FE002163
:103A800001700746851C41706846017241722D48DD
:103A9000007800287ED02C4828902C4800262790BB
:103AA00024207043254923900C5AFF200230044201
:103AB000009411D0600602D54820A0430CD168467E
:103AC000007A1B492B908978884206D321464022F0
:103AD00011431A48239A815208E21D48044209D032
:103AE000164923984018C07F4007800F02D019491B
:103AF000002088551848044230D01048239920AA45
:103B000008181821415E21911A21415E2291C18835
:103B10009182807F269032E1700800004702000009
:103B2000500200004F0200008AB4001078B200106A
:103B3000103A000076620000FF9F00008C08000031
:103B40007804000004020000683A0000E40300006A
:103B500048080000B81900000C0A000060054BD5A9
:103B6000FE49239844181D20205630214843FC4923
:103B700040188179FB480191017824912A9101989C
:103B800006F047FB249902464A430199891AC9B2B3
:103B9000002800E054E20AD0F34A1278D21E904284
:103BA00005D0002903D02A98C01E81420ED1616938
:103BB000EA48002908D00121009C89028C43202179
:103BC0000C432399445215E0012009E0E849E74AF3
:103BD000097860695118097DE04B884202D2401C87
:103BE000606183E10121009C89028C4320210C4308
:103BF00023995C5201202690D848239909181D204A
:103C00000091085630214843D54940180A210190B7
:103C1000415EC8B22990E0050BD40198007B4007B3
:103C200007D4D348D34A007810182030807A8142D4
:103C300042DC22AA21A93046FFF7C5FE2C9001994B
:103C40000620085EC7492A900978249106F0EBFA0D
:103C50002499C0B22A9A4143511ACAB22C99002918
:103C600021DA0199097B490711D5C3498000401821
:103C700041682798407D01412191BF499000C031A2
:103C8000401827994068897D0841229006E00198F4
:103C90002821415E21912A21415E2291E00512D521
:103CA000022026900FE02798417D2198084121901D
:103CB0002798817D2298E7E701982821415E21918C
:103CC0002A21415E229122A921A8FFF791FB219888
:103CD000002801DA00202190A849219A088D9042FD
:103CE00001DC401E21902298002801DA0020229059
:103CF000488D2299884201DC401E2290019841693A
:103D00009B48007842009948805E091A09114000DA
:103D1000081800B220A98882FF2800DDFF208882D1
:103D200000994969012917D000998A890A82009966
:103D30000A898A810099CA894A8200994A89CA8176
:103D40000099219A4988511A009A11810099229A62
:103D50008988511A009A518121990BB200994B80A0
:103D600022990AB200998A80A10608D500990B838E
:103D700000994A830099C8800099269888777748E7
:103D80002399182208182390825E1A23C35E219972
:103D90002298511A181A4943404308182A90269825
:103DA000012816D17249714809784018203080796D
:103DB0002A99404388420CDB2398C07F022801D017
:103DC000062806D1239821921A21415E00202291D3
:103DD0002A9000202490200701D510202490A006CE
:103DE00002D50421249842E0239808210A22415E4A
:103DF000825E881800D54042962809DB23980C2162
:103E00000E22415E825E881800D5404296281BDA59
:103E100025A8009022AB21AA21463046FFF747FA99
:103E2000239922AB084618301A310191009021AA3B
:103E300021463046FFF7EAF94C4803210176289ADB
:103E400011764176517606E0484914200876289A82
:103E50001076487650764648494900784000401828
:103E600001892A984943814203DC249808210843A8
:103E7000249044488178002958D145E0002200E090
:103E8000299A6B46197A0C23594309180A812499F7
:103E9000022211436B461A7A0C235A43121891726C
:103EA000E10501D5022200E001226946097A0C23CE
:103EB00059430918CA726946097A594308180673A2
:103EC0006946087A401C087223992198088323992F
:103ED0002298488320A8818A2398C1802399269814
:103EE00088772498022108432399C877761CF6B274
:103EF0000F2E00D2D4E524490879002857D01F4A54
:103F00000020138D02AA4EE02499490702D5C179F9
:103F100000290BD02499C90602D5417A002905D081
:103F200024990907D0D5007A0028CDD12B990C20EF
:103F3000414302A80918219A4A806A46127A0C2342
:103F40005A4312182299918020AA1421515E6A4680
:103F5000127A5A431218D180002917E08C08000009
:103F600078040000500200004F020000843A000074
:103F700002020000483A000078B20010C4030000BA
:103F80000C3B0000C83A0000103A000000D077E770
:103F900074E70C2604467443A41866889E1B761E9C
:103FA000401C6680C0B26C46247A8442F1D84879BD
:103FB000002811D0234A0020538D02AA08E00C24C7
:103FC0004443A418A6889E1B761E401CA680C0B23F
:103FD0006C46247A8442F2D8C87800280FD000209A
:103FE00002AA08E00C21414389184B888C884C8038
:103FF000401C8B80C0B26946097A8142F2D869467A
:1040000000200A7A18E003460C214B4302A95918F4
:104010004B882B808B886B80CB88AB800B7AAB7105
:104020008B7AEB71CB7A2B72097B69723978401CE1
:10403000491C3970C0B20A358242E4D80020385E8B
:104040002DB0F0BDC4030000002800D1FEE770478A
:10405000FCB5342001904148362500783E4F4100A0
:104060003F480818408A6C01009000203B4E4100F8
:104070003678CA190023B64676001946B44605E0DC
:104080004E00965F002E00DDF3184919A142F7DBC0
:1040900000998B421ADB324966467618F6887144DD
:1040A000897B5E430E41B64600210DE04B009C46E5
:1040B000D35E002B07DD7646734501DB9B1B00E0DA
:1040C0000023664693534919A142EFDB401C019936
:1040D000C0B28842CAD3FCBD7047B9E7F8B51E48E4
:1040E000009020208646362084461C4834240078E0
:1040F00041001B480818C78A0020614641434A0016
:104100000099531800210A4655005D5F002D00DD1F
:104110006918521CD2B2A242F6D3B94216DB0F4A3A
:104120000F4D16787200521952894A43A919097C19
:104130000A4100214E009D5F002D03DD954201DB09
:10414000AD1A9D53491CC9B2A142F3D3401CC0B261
:104150007045D2D3F8BD0000003C004002020000D0
:104160002C3A0000FE48FD490160FE49C160FE494D
:104170000161FE494161FE49C161FE498161FE491B
:10418000CA88028509894185202120304174342163
:104190008174042141758175F84836218180F84980
:1041A00001607047F54AEE4806CA82604160F549F1
:1041B000F54B09784A00D21892888285F34A128812
:1041C000C285F3484118E6488A792030C2740979DB
:1041D0000175F049097D01747047F0B51446E9B0E6
:1041E0008E468446002230201546454360462B18F3
:1041F000187BC00720D05E89570056A8C653970089
:104200003AA85E69C651D6000AAF9869BF19D96944
:1042100003C722A9186A8E195F6A81C699785CA8BB
:104220008154D97862A881546046415D5FA8815469
:10423000597865A8815403E00020530056A9C8525C
:10424000521CD2B20C2ACED3714600208A780CE0E0
:104250008300714659184B7946AD5B1E2B54097982
:104260004EAB491E1954401CC0B28242F0D8002106
:104270006EE04EAB46AD5E5C685CB446B04265D065
:10428000654656AB6D004600AE469F5B5D5B7F1991
:104290009F53002675465E533AAB66468700B600CC
:1042A000DD599E59AD19DD51C3009E460AAD7544D6
:1042B000664628CDF6000AAFBF190496C0CF9E19F6
:1042C0007D410AAF77443E607D60734622ADEB18B6
:1042D0001F685D68049E22AB9B191E685B68BE194F
:1042E0005D41734622AFFB181E605D605CAD6346A6
:1042F0002E5CEB5C9E4200D22B5462AB65461E5C8A
:104300005D5DAE4200D21D545FAB66461D5C9E5D96
:10431000B54200D91E5465AB66461D5C9E5DB54234
:1043200000D91E54481CC0B246AB4EAF0CE01E5C18
:104330007D5CAE4201D15E5C1E543E5CAE4201D15A
:104340005D5C3D54401CC0B28242F0D8491CC9B2E9
:104350008A428ED8002525808F48608028466326B3
:1043600056AB3AAA4100595A00290BD02788B942C6
:1043700001D9218006466788B94203D26180810055
:104380005158A160401CC0B20C28EBD3632E51D011
:10439000B000175862A86760805DA0735CA8805D5C
:1043A000207365A8805DE0735FA8805D60736C48D2
:1043B000FB1720300990407C3A462946089305F0C7
:1043C0006EFE0290F00003910AA906900918644E4F
:1043D00003C9328D2B4605F062FE039B029A05F05D
:1043E00076FE00B220820290009009983A46807CC6
:1043F0002946089B05F053FE07460791069822A917
:10440000091803C9728D2B4605F049FE3A46079BF1
:1044100005F05DFE01B261820098002801DA258274
:1044200005E0308D029A824201DB401E2082002985
:1044300002DA658269B0F0BD708D8142FADB401E00
:104440006082F7E7F0B5554B00241D785E7827E0D1
:104450002F19BF00FF187F798F421FD12C1964B22A
:10446000A500ED180626AE5F964200DAEA80002C21
:1044700013DA9C781E2C10D2A400E418E2809A78FB
:104480009200D218107198788000C0184171587845
:10449000401C58709878401C9870F0BD641CE4B2C1
:1044A000A642D5D8E5E770B530256943C4683039F0
:1044B0006118048908255443E418CC800024E4439F
:1044C0000C8101248C818A700A700A71CB704B7048
:1044D0004B71455F5E0055436D004068AD19405F0C
:1044E0002F4D920052194861526805465543EA170C
:1044F0008D61CA619A002B4BD21852685043C21783
:104500004A6208624C8170BD00222449012803D010
:10451000887808704A7070470A70FBE7F0B5044667
:10452000A9B000200C90207A214620311D90887C73
:104530000025821CD6B222681018C01C2690606923
:1045400021902069119015488570487C2590887CC1
:1045500024900F218901206826E000009028004067
:10456000C403000078040000B80600000C07000037
:1045700060070000E8070000103A00003402000065
:10458000003C004002020000843A00000A020000E1
:10459000AC3A0000D43A00002F750000FC03000084
:1045A00078B2001038B30010FBF7EAFF002081005A
:1045B0002269401C55506269C0B255501528F6D387
:1045C00000203021414300220C31E368401CC0B27E
:1045D0005A520C28F5D3002097E11D996268484390
:1045E00040001018289011992198119021910020D5
:1045F00001468300119A401CC0B2D1501528F8D34F
:10460000019926987143401E08182090002074E1FB
:1046100020982E22401C20900298A25E41002898EB
:1046200009180020085E82427EDC029B219AD31882
:104630005A78002A78D11D9A3E2752000E928A1A83
:104640001546403DEF5F8742EEDC0025555F854211
:10465000EADC0225555F8542E6DC0A46403A3E2503
:10466000555F8542E0DC02228A5E8242DCDC012268
:104670009A700E9B3E275B181D46403DEF5F8742B8
:10468000D2DC029F119DEA550E9D495F8142CBDC31
:10469000029D119949194A7002255D5F8542C3DC6C
:1046A0008A700C980C287CD2401C2790C0B20090D5
:1046B0000C98E1683022504308180C9001200F90AC
:1046C000A16901980870E169029808702099009822
:1046D000087000250098FFF717FF6F460ECF2046A1
:1046E000FFF7E1FE03E0802801DB0546F6E0A06964
:1046F000415D1C91E069269B415D1F911C991D98AD
:1047000048431F99420048006168101840181C99DE
:1047100032464A431F99591851180022825E6D1C77
:104720000D922DB20E9A00E0E4E0821A94461392A4
:104730000E9A8B1B1718821E801C1690481E149709
:1047400005901592604603938A19801E1790B81E33
:10475000049218906046801C1990581E491C0790BE
:10476000BF1C501E5B1C521C0890069100201A971B
:1047700009930A9207462290B90003A840588C4634
:104780000178002910D0009881420DD0624613A80C
:1047900080580022825E0D98824200DD0246009819
:1047A00000E0A3E0FFF74EFE614613A84058002149
:1047B000415E0D98814208DD614603A840580178AA
:1047C0000098814201D0012022907F1C7FB2082FE7
:1047D000D2DB229800287DD1810003AA5258137899
:1047E000002B74D113AB5B5800219C46595E2E23DD
:1047F000E35E99426BDB0D9B994268DC0099117076
:10480000FE490A5C1C99511849B21B91A3690F9A81
:104810009954FB490A5C1F9951184BB2E2690F99F0
:104820009E4653540F996346491C09B20F910C9947
:10483000002249699A5E8A180C994A611B99F14ACB
:104840008900891800229A5E49680C9F5143BB6910
:10485000CA17FF69C9180C9B7A41DA6199617346DE
:104860009900E94A0023891862464968D35E0C9F83
:1048700059433B6ACA177F6AC9180C9B7A415A622E
:1048800019620C990C9A4989491C51810C99022290
:104890008A561B998A4201DA0C9A91700C9900226F
:1048A0008A561B998A4201DD0C9A11700C990322D9
:1048B0008A567146724502DA0A460C99CA700C99FA
:1048C00001228A567146724501DD0C9A5170401CD6
:1048D00040B200E002E0082800DA7DE70F98854248
:1048E00000D000E72798C0B20C9003E02598019013
:1048F000249802900298401CC0B2249902908842E9
:1049000000D285E60198401CC0B2259901908842EA
:1049100000D262E6BD4ABE49E068FFF75EFC0C9833
:1049200029B0F0BD30B53024D3686043C0180624E8
:10493000045F52686300D55E4B00D35EAB4202DB7E
:104940000481C18030BD0824045F002C03DB6400B7
:10495000125F9342F6DD018130BDF7B584460C4607
:1049600002983025C368614630206C434143A64617
:10497000CA18E41850696569401950619069A669C0
:10498000D569E76986197D419661D561106A266A05
:10499000556A676A86197D4116625562D089E58934
:1049A0004019D081108A258A401910825089658962
:1049B000401950819089A589284390810020A081C9
:1049C0000220022510566557A84200DA957003258B
:1049D000032055572056854200DAD07070465D5648
:1049E0001856854200DD58540121012051562056A9
:1049F000814200DD507006216046615EC0B2029ABD
:104A0000FFF790FF0821615E002904DB6046C0B219
:104A1000029AFFF787FFFEBDF7B586B006980C46F1
:104A2000069A0021C56820327948059209E08A007B
:104A3000121813795B1E137153795B1E491C537155
:104A4000C9B282788A42F2D8B8E000208446107950
:104A500030214843401943895079484340194089DF
:104A6000181881B204201056864605201056009072
:104A7000012031E0664A83009A18137930260293A8
:104A800073435B195E895379302701937B435B192C
:104A90005B89F3189BB28B4208D219460423D35684
:104AA00084469E460523D356009313E08B4211D1D2
:104AB000029E574B76450DD1019F009EB74209D10A
:104AC0000626965F62469200D2180623D35E9E4267
:104AD00000DAD680401CC0B24D4A93788342C9D8D0
:104AE0006046810010460F1804260520BE57385630
:104AF0000090864257D006980621426830207043C5
:104B00004019415E844648000099302359434919B1
:104B10000623CB5E105E5B00D25E904200DD104645
:104B2000059AD27C42430598007D02410620385EFA
:104B3000824212DD604642690698808D82420CDD19
:104B40004A69824209DD0A228A5E60460A21415E84
:104B500005985118007C814225DB3146069A009861
:104B6000FFF7FBFE2A49641E8878E4B280004018F3
:104B70000288BA804088F8808878401E8870009A41
:104B80000020D3B20BE0820052181779B74200D14F
:104B900013715779B74200D15371401CC0B28A7863
:104BA00082420BD9EFE71A488178890009180A88F0
:104BB000BA804988F9808178491E8170144A9078BA
:104BC000002800D041E72746002613E03020784334
:104BD00040190090007BC00708D109E030207043E5
:104BE0004019007BC00719D0761C76B20C2EF5DB7D
:104BF0007F1CFFB20C2FE9D300200BE0160200004F
:104C00001E02000078B2001038B30010B00300009C
:104C1000FC03000008990746086050E0302070430C
:104C2000401930220099FBF70DFD00200099761CF9
:104C3000888176B2DCE7302078434619307BC007A4
:104C40003BD0706900900290C0170190F169B06983
:104C5000019B009A05F03BFA059A527D05F00CFA8B
:104C600000B2308504900390716A306A019B009A0B
:104C700005F02DFA059A927D05F0FEF901B27185D5
:104C80000398002801DA002005E00698049A008DB8
:104C9000824201DB401E3085002901DA002004E059
:104CA0000698408D814201DB401E7085089801689E
:104CB0000298814201DA089908607F1CFFB2A7427E
:104CC000B9D3204609B0F0BD5B4800218170491E70
:104CD000C1700171417181710A21584A0623016135
:104CE000D380917356498A8902810A894281098851
:104CF000818154490988C1817047F0B5014600207F
:104D0000012925D000224C4D4F4B2A70504C1E8853
:104D100024884E4B1146A44624270C467C431F5B37
:104D2000FF050FD5E4181D27E75730246743494C8A
:104D30003C190A27E75FB74204DC6469644501DC7B
:104D400001200246491CC9B20F29E5D32A70F0BDE3
:104D5000FFF7BAFF0020F0BDF0B5012817D03649A3
:104D60003D4E0B4605251C698F785D5733480A2256
:104D700036780023641C002F0AD0012F2CD0022F7C
:104D800005D10C61002D2FDB012088700B61F0BD77
:104D90000C61002D05DB01248C700624C480827315
:104DA000F4E72E4B1B78002BF1D00223002E8B70E2
:104DB00004D01821C1808273428205E00621C1809F
:104DC000FF218273913141827D211D48C90001611B
:104DD000018823484181F0BD0B61002DFBDA8B7007
:104DE0000621C1808273F0BD1D4C2579002DFAD1BA
:104DF000002E8B7003D01825C580827304E0062531
:104E0000C5808273FF22913242820D480A898281D5
:104E10004A8902818A8902800A4DCA892A80114AF8
:104E20000261114A127880182030007A60810F4A9E
:104E3000052010724B70F0BDC40200002C3A000037
:104E4000483A0000843A0000140200008C08000078
:104E50001202000078040000030200002E0200008D
:104E600070080000B80B000002020000003A0000C9
:104E7000F8B50024FE4F1D2625467601E0B23946DE
:104E8000FCF7A0FE00228554521CB242FBDB641CDE
:104E9000042CF3DBF8BD10B5FFF7EAFF3821F54825
:104EA00005F0B5F9F3480121203081740022C27465
:104EB00042758175C175F04868238381EF4BF04CD2
:104EC0001B7803753423437401740460EC4CA034E4
:104ED0004460C381EB4B1B7843828260EA480170D7
:104EE00010BDF0B5438A81685B4300292AD00022B7
:104EF00024E081890468514361188C46C189446863
:104F00005143651884686618002112E0745C002C17
:104F10000DD14C0067463C5F64439C4201D900249C
:104F200004E06C5C077DA74201D9641C6C54491CE9
:104F3000C9B2447C8C42E9D8521CD2B2017C914265
:104F4000D7D8F0BD00221DE081890468514366185E
:104F5000C18944685143651800210EE04C00345F5C
:104F600064439C4201D9002404E06C5C077DA742A5
:104F700001D9641C6C54491CC9B2447C8C42EDD8E4
:104F8000521CD2B2017C9142DED8F0BDF0B5BF48D0
:104F900087B0027A69460A7520220A7400240088C4
:104FA000732748822646BF0121463420FCF704FDC2
:104FB000C107C90F0918CDB2694648743946204661
:104FC000FCF700FE0090680069468881A8492046E9
:104FD000FCF7F8FD01906946CD8168460296FFF71F
:104FE00080FF641CE4B2042CDED307B0F0BDA148FE
:104FF00000212030C175704730B59E480022203016
:10500000A349C2740B684968CB42A24BDB680ED43B
:1050100001E0012100E00021C174C9B2012300298F
:105020000CD0417D032905D8491C417530BD9942FA
:10503000F1DAEEE798494B70427530BD42758375E1
:1050400030BDF7B5954D83B0690C8E4600218C4676
:105050000C4601910B4600913EE08188026859435D
:1050600051180022029132E002995700C95FA9420B
:1050700001DD0D4602E0714500DA8E46C7888F4299
:105080000CDC66467618B446049F9600BF59641C33
:105090007918049F24B2B951049911E00827C75F19
:1050A0008F4212DB019F96007F180197009F7F1CA3
:1050B0003FB20097059FBF597F1805998F510599F9
:1050C000FF3101310F6C7F1C0F64521CD2B2C17AC8
:1050D0009142C9D85B1CDBB2817A9942BDD8C168C4
:1050E0004D81C26871461181C26861461160C26813
:1050F00001995160C1688C81C0680099C18106B076
:10510000F0BDF0B589B01F46144620236A4693725D
:1051100004AA03926A461181D0800020E081A08118
:105120005E496181490C21816060014620608A00EE
:10513000B8500E9B491CC9B298505029F7D9002588
:105140002E4603990020C88103998881039A534908
:105150005181039A490C11810399486003990860B1
:1051600029463420FCF728FC01466846C1724C49A8
:105170002846FCF727FD00906846C07AC107C90F92
:1051800040184100684681800E99B0004218C1194C
:105190006846FFF756FF6846C07A0A228019C6B2F1
:1051A00068461A21A25E415E8A4200DA61810246A7
:1051B00008211820615E105E814200DD2081E189B6
:1051C000D08B6D1C0818E081A189908BEDB2081876
:1051D000A0812068049940182060606805994018F3
:1051E0006060042DADD309B0F0BD10B5224886B083
:1051F0001830264A009002210420515E105E294B8F
:1052000001AAFFF77EFF01A91EC921481EC0FFF7B2
:10521000F3FE06B010BDF0B58E4600236AE004210F
:10522000415E0268594356181421415E0269594390
:1052300054180C21415E826859435518002254E0ED
:10524000AF5C017E8F420CD35700BC46F75F002F46
:1052500007DD0021A9546746E15BF75BCF1B614680
:105260006752AF5C017E8F4230D35700BC461BE0D3
:10527000202B0000A80A0000C8190000E1B40010AB
:10528000105C0040E2B4001060020000003A000030
:10529000E00A0000D43A0000500B00000180FFFF3C
:1052A000F0230000241B0000F75F002F0EDA0A2114
:1052B000CF420BDA71460F2908DA0027AF54674650
:1052C0006146E75B715A7F1A61466752FA4909796C
:1052D000002908D15700BC46E15BF75BC91B674654
:1052E000E1530027AF54521CD2B2C17D9142A7D8DE
:1052F0005B1CDBB2817D994291D8F0BD0FB4F0B553
:1053000087B01B9D1D9F06CD1C9B8C1818A9097981
:105310000DAA8900545018A9002005240979083DD8
:105320000E1B76B2002E01DA0C3676B2B600965914
:105330003618601C081840B20C2801DB0C3840B24B
:1053400080001058301A641E2406240EE8D1491C2F
:10535000C9B218AA11710C2901D300211171002BB7
:1053600032D17D21C900C84201DA0120907168461E
:105370008775D248D24E017A6846017621461E983A
:10538000FCF71AFB6946C875C107C90F4018C7B2B8
:1053900031462046FCF716FC0090CA492046FCF72F
:1053A00011FC0490C8492046FCF70CFC02907800E0
:1053B0006946888088828F8168462968FFF72BFFBD
:1053C000641CE4B2042CD9D338220DA90C98FBF745
:1053D00039F907B0F0BC08BC04B01847FFB581B07C
:1053E0008C4600232EE00C21415E826859435118FF
:1053F00000910A99039D6446491C049E0022641E84
:105400006D1C8E46761E18E0A34214DBAB4212DC04
:10541000B24210DB72450EDC614600290BDB0C9FAB
:10542000BC4508DC049F002F05DB0B998F4202DC92
:10543000009900278F54521CD2B2C17D9142E3D80B
:105440005B1CDBB2817D9942CDD805B0F0BDF7B5CC
:105450008AB00D46044600210C98FCF7ADFA9B4932
:10546000087001210C98FCF7A7FA994908700221ED
:105470000C98FCF7A1FA9749087003210C98FCF7E7
:105480009BFA95490027087068B208900C9840B2C2
:10549000079038462421484390490246885A83079A
:1054A00005D1830603D4030601D4C0057DD5511868
:1054B0001D20085630218A4B4843C11803251B562E
:1054C000022201204D5708568A5603A90DC12E46C7
:1054D0000B2802DC002006901FE001460C390B2946
:1054E00006D80120069048B2039028460C3813E0F5
:1054F000014618390D2906D80220069048B20390BB
:105500002846183808E026380E2806D840B203216D
:10551000039028460691263846B206990C98FCF767
:105520004BFAC107E075C90F4018C0B2009064493A
:105530000698FCF747FB206062490698FCF742FB9F
:10554000206161490698FCF73DFBA060009840008F
:10555000A080A0820098A0810798089900960291E7
:1055600001902046039B049A0599FFF737FF0698A0
:10557000002808D10B2D06DD0120069000200390A5
:1055800028460C3846B206990C98FCF715FAC10764
:10559000E075C90F4018C0B2009049490698FCF761
:1055A00011FB20604749069800E080E0FCF70AFB09
:1055B000206145490698FCF705FBA0600098400073
:1055C000A080A0820098A081079808990096029177
:1055D00001902046039B049A0599FFF7FFFE069869
:1055E000012808D1172D06DD022006900020039027
:1055F0002846183846B206990C98FCF7DDF9C10721
:10560000E075C90F4018C0B200902D490698FCF70C
:10561000D9FA20602B490698FCF7D4FA20612A4970
:105620000698FCF7CFFAA06000984000A080A08206
:105630000098A08107980899009602910190204651
:10564000039B049A0599FFF7C9FE0698022807D123
:10565000252D05DD032006900020263D6EB2039027
:1056600006990C98FCF7A8F9C107E075C90F401816
:10567000C5B213490698FCF7A5FA206011490698AF
:10568000FCF7A0FA206110490698FCF79BFAA0608D
:105690006800A080A082A5810798089900960291D1
:1056A00001902046039B049A0599FFF797FE7F1C03
:1056B000FFB20F2F16D2ECE670080000003A00008F
:1056C000F023000090150000202B000005020000D0
:1056D0000602000007020000080200008C0800001B
:1056E000780400000DB0F0BD70B5049CDD0703D058
:1056F000002C01D05B1CDBB25A43002307E09C0066
:105700005E000D59865FAD195B1C0D519BB2934233
:10571000F5D370BDFFB581B005460B9A0D9C0A9874
:10572000D60703D0002C01D0521CD2B2504306B28F
:10573000022B0F4601D000241CE000240AE0A00048
:1057400028580C998840039904F06DFD6100641C91
:10575000785224B2B442F2DB77E6A00000902858D9
:105760000C998840039904F05EFD01460098641C82
:10577000395024B2B442F0DB67E6F8B58E46079E96
:10578000099F069D0899042E00D00446C91E49B2FF
:105790008C46002F2CD0042E01D0002025E00024C0
:1057A00010E0115D99420CD3A6000096875966005F
:1057B0007146895F6646B140009E7F18875100267A
:1057C0001655641CAC42ECDBF8BD115C99420BD35E
:1057D000460000967146A75B895B6646B140009E15
:1057E0007F18A75300261654401CA842EDDBF8BDD5
:1057F000042E01D0002025E0002410E0115D994224
:105800000CD3A6000096875966007146895F6646EC
:10581000B140009E7F1A875100261655641CAC4289
:10582000ECDBF8BD115C99420BD346000096714643
:10583000A75B895B6646B140009E7F1AA75300268E
:105840001654401CA842EDDBF8BD0000FE4800885D
:10585000FE490880FC484088FD490880FA48808855
:10586000FC490880F848C088FB490880F648008950
:10587000FA490880F4484089F94908807047342083
:105880000421C943091AF74A11700021C943517014
:10589000C11C91700321C943091AD170011D1171F6
:1058A0000221C943091A517101219171411DD17120
:1058B000704730B503460D46EB48EC4908600020C0
:1058C0000871401E48710020C860086101200872FC
:1058D000052088710020C87128462830E4490978DD
:1058E000405CE2494881002088761888E1490880B8
:1058F000002405E0002124206043DF4A1152641C8B
:105900000F2CF7DBFFF7BBFFDC480360DC480560CA
:10591000FFF79CFF30BD3FB50346002104E00020A7
:105920006C466054481CC1B20F29F8DB002113E01B
:1059300024204843D04C205AFF248434204000289F
:1059400008D0012424204843CB4D40192030007852
:105950006D462C54481CC1B20F29E9DB002B0DD039
:10596000092208E06846805C002802D1D0B204B069
:1059700030BD501E42B2002AF4DA0BE0002107E0ED
:105980006846405C002801D10846F0E7481CC1B2D7
:105990000A29F5DB0020EAE7F0B58BB00446B948E8
:1059A0000078B949097848430090B04840696100DF
:1059B000415EAF4800784200B1480068001D805E3B
:1059C000814202DB00200BB0F0BDAF4801782046D9
:1059D00004F029FCC8B20390AB480078401C844214
:1059E00014D0A94800784000801EA0420ED0A648DE
:1059F000007841000098401A401CA04206D0A249FD
:105A000009780098401A801EA04202D10320049019
:105A100019E09D4800784000A0420FDC9A480078C9
:105A200041000098401AA04208DD0398012805DDD6
:105A300095480078801E0399884202DC0520049076
:105A400001E008200490002513E08848406985495A
:105A5000495709194900405A690006AA505268007E
:105A600006A9085E002802DA002069005052681C6E
:105A7000C5B2082DE9DB7D4840696100405A69469E
:105A8000088500251DE02E4617E0700006A9095E76
:105A9000701C400006AA105E81420CDD700006A951
:105AA000085E0590701C4000085A71005052711C2D
:105AB000490005985052701CC6B2082EE5DB681CE0
:105AC000C5B2082DDFDB0498082828D168461821C4
:105AD000415E1A22825E89181C22825E89181E226B
:105AE000825E891802912221415E2422825E8918F9
:105AF0002622825E89182822825E891801917D22E1
:105B0000D2000199514308460299491C04F081FBD7
:105B100007465E4909688F424ED3012053E7049837
:105B2000052827D168461E21415E2022825E891801
:105B30002222825E891802912421415E2622825E01
:105B400089182822825E891801917D22D20001994C
:105B5000514308460299491C04F05BFB0746444840
:105B6000007881004648006818304158B94223D86F
:105B7000012028E768462421415E2222825E89189E
:105B800002912621415E2822825E891801917D22A0
:105B9000D2000199514308460299491C04F039FB8F
:105BA0000746334800788100354800682030415866
:105BB000B94201D8012006E7002004E7FEB50546FA
:105BC000002002902948042141560F2900DBFEBD28
:105BD000002408E0242060432749085A002800D107
:105BE00003E0601C44B20F2CF4DB00BF302169439A
:105BF000274A89180620085E2349097804F013FB18
:105C000046B2302068432249401881791E48007806
:105C10007043081A40B20090002E0EDD194800783B
:105C2000C01EB04209DD0098002806DD1648007845
:105C3000C01E0146009881423DDC0C4800790028D6
:105C400030D10B48007825E0843A0000D8020000EB
:105C5000DA020000DC020000DE020000E0020000C8
:105C6000E202000047020000CDAB341270080000D1
:105C7000020200000A0200008C0800005802000026
:105C80005C0200004F0200005002000028020000E9
:105C9000780400004100FA480068001D405E401092
:105CA000019010E0F74800784100F5480068001DB9
:105CB000405E019007E0F34800784100F04800683A
:105CC000001D405E019030206843EF49401847694D
