:10000000F03F00001500001000000000000000009C
:10001000002070477CB51B48292149060862012051
:1000200008600020486138200863092088600F209C
:100030000861002008613F20C861FE20C8600420DC
:10004000486000BF00BF00BF00BFFFF7E1FF0646EA
:100050000D4840680090002001900B4D002405E001
:10006000A0002858A100019A5050641C282CF7D3F6
:100070000021009848600098804700BF00BF00BF83
:1000800000BF7CBDA0FF00000004001000000000C5
:100090000000000000000000000000000000000060
:1000A0000000000000000000000000000000000050
:1000B0000000000000000000000000000000000040
:1000C0000000000000000000000000000000000030
:1002C000000300000000000000000000000000002B
:1002D0000003000000B900000003000000B90000A6
:1002E00000C000000004000001000100140114011E
:1002F000010159455449000061000000010014004B
:1003000000000000000000000000000000000000ED
:1003100000000000000000000000000000000000DD
:1003200000000000000000000000000000000000CD
:1003300000000000000000000000000000000000BD
:1003400000000000000000000000000000000000AD
:10035000000000000000000000000000000000009D
:10036000000000000000000000000000000000008D
:10037000000000000000000000000000000000007D
:10038000000000000000000000000000000000006D
:10039000000000000000000000000000000000005D
:1003A000000000000000000000000000000000004D
:1003B000000000000000000000000000000000003D
:1003C000000000000000000000000000000000002D
:1003D000000000000000000000000000000000001D
:1003E000000000000000000000000000000000000D
:1003F00000000000000000000000000000000000FD
:10040000F03F0000CB3900100000000000000000A9
:1004100000000000000000000000000000000000DC
:1004200000000000000000000000000000000000CC
:100430000000000000000000F105001043890010DA
:10044000D3360010C9390010C9390010C93900105D
:10045000C9390010BB700010B9700010DB1D00100E
:10046000C9390010C9390010C9390010C939001044
:10047000C9390010BF0A0010FD1D00101F1E00101A
:10048000411E0010C9390010C9390010C9390010C7
:10049000C9390010C9390010C9390010C939001014
:1004A000C9390010C9390010C9390010C939001004
:1004B000C9390010C9390010C9390010C9390010F4
:1004C00003B40148019001BDC100000003B401481C
:1004D000019001BD013D000000F002F800F040F87D
:1004E0000CA030C8083824182D18A246671EAB4649
:1004F00054465D46AC4201D100F032F87E460F3ED4
:100500000FCCB6460126334200D0FB1AA246AB46BA
:100510003343184704B4000064B40000103A02D317
:1005200078C878C1FAD8520701D330C830C101D594
:1005300004680C607047000000230024002500269A
:10054000103A01D378C1FBD8520700D330C100D58F
:100550000B6070471FB5C046C0461FBD10B510BD2B
:1005600009F01BFF1146FFF7F5FF03F053FA09F0FE
:1005700033FF03B4FFF7F2FF03BC03F07AFA000085
:10058000FCB40022002300240025002600270629B1
:1005900002D4FCC00639FAE7002902D004C00139B0
:1005A000FAE7FCBC7047000002B472B60178013172
:1005B000017062B60139080002BC704702B472B61D
:1005C00001780139017062B6080002BC7047000072
:1005D00062B6704772B670471C3880F3098870475E
:1005E000014802490160704704ED00E0000000107E
:1005F000114B1968114A1268914216D0EFF3098025
:1006000020380860F0C044464D4656465F46F0C06C
:100610001A6010681030F0C8A046A946B246BB4622
:100620002038F0C8103080F30988054B002018707E
:100630000420404200470000800E00007C0E0000B5
:100640006E0E000070B505460C46164602E00FCC53
:100650000FC5103E102EFAD2082E02D303CC03C5CC
:10066000083E042E07D301CC01C5361F03E02178D4
:100670002970641C6D1C761EF9D270BD02460020E4
:100680000121890700E089089142FCD808E043185D
:10069000934203D8121A521A4B00181840088908BE
:1006A0000029F4D17047FFB50A46002185B0854E78
:1006B0005C001D46009180280AD083498B280CD00D
:1006C000A02838D0A22834D1062A32D1009136E0B1
:1006D000002A2ED10120800730E0042A29D17B484E
:1006E0007B4A807F1268104314D17A4F7A4B387856
:1006F0001B78420058434000801909F04AF87649B7
:10070000387809784200414308184000801973493D
:1007100009F03FF8E807C00F40197149400041183F
:100720008908890000916946001D08810098002809
:1007300007D109B0F0BD052AFBD168480090684692
:10074000048160482421083841800021416047210C
:1007500001700821417002206946019688734C811E
:100760004D73079808730021684603F063F8002171
:10077000012002F0F1FEDCE7FFB581B00C980B9D83
:1007800084460E980D9CC1074007002949D0800F70
:1007900029D000201DE0019940000E5A00998F00D9
:1007A0000299C9590E9FC910711A165E09B2B64650
:1007B000B14214DDBF0713E0115206E067466E43F5
:1007C00079437118214111527646891B19520098BC
:1007D000401C00900A998842DDDB05B0F0BD7F0720
:1007E000002FEBDAE8E7002717E07800019986464A
:1007F000095A0298BE008659F610881B06B2704648
:10080000115E60460091464369438E192641704649
:1008100016520099711A19527F1C0A988742E4DB1C
:10082000DBE7800F28D000201DE0810002980E9F9A
:1008300040580199C61000984000095A711A165E76
:1008400009B2B646B14213DDBF0712E0115206E00D
:1008500067466E4379437118214111527646891BD0
:1008600019520098401C00900A998842DDDBB4E7D9
:100870007F07002FECDAE9E7002717E00298B900BC
:1008800040580199C6107800095A8646701A01B27C
:100890007046165E6046009641436E4371182141D2
:1008A00070461152009E891B19527F1C0A9887427C
:1008B000E4DB92E7824202DB8A4201DD08467047B0
:1008C00010467047085D0040705B004080190000D2
:1008D00060020000990E0000980E00009059004040
:1008E000993B0040012110B549034804FFF748FE39
:1008F0000749002008704870C8708870054A0121B7
:10090000117005494880054908800549087010BDE7
:100910000D0200002E0200000C0F00004602000035
:100920005502000010B504460020206422464032E3
:100930006064D0776023185501239B07E361664B01
:100940006363664BA363654B0833E363A0649081E4
:10095000012222651023922213552061002901D023
:1009600001F0B8F85E484078208310BD10B55D4CAA
:100970000021207807F0E8FC002802D0002004F0D5
:1009800083F9207807F02CFD012010BD10B5112847
:1009900006D0122803D15449082002F0DDFD10BD15
:1009A00051490420F9E7C00601D501207047002015
:1009B00070474E4802784E4801784E4801F087F95A
:1009C00001F056FB08F0D2FB4B48007807F0F6FF29
:1009D00008F076F90021084607F044FC414C01215B
:1009E00020704148FFF79EFF0021012007F03AFCEC
:1009F00060700121084607F035FCA070012108460F
:100A000007F030FC3D4908700121084607F02AFC38
:100A10003B49334E087071780C2002F089FB324C50
:100A2000384F00254034304800F011F90020385E7E
:100A3000002802DB00F028FDF5E73078FFF7B3FF70
:100A400000280ED1707800280BD027488030807C99
:100A50000009000110280CD0802810D0002004F0DC
:100A600013F93078FFF792FFFFF780FF0028FBD0E3
:100A7000D9E7802210211C4800F054F9F1E7607F8B
:100A8000002807D00021042002F066FD164800F07F
:100A900067FB6577A07F002807D00021042002F0C3
:100AA0005BFD114800F0CFFBA5770F4800F066F919
:100AB000154904200856154908F05CF8D1E710B52F
:100AC00007F05CFB0748007807F0B8FC10490F20DE
:100AD000C86207F058FB10BDE0230040005D0040F5
:100AE000103A00005602000040190000980E000065
:100AF000990E00009037004035AB00100B0200004B
:100B00000C0200005C02000040160000B43A000035
:100B100080000052F8B505464F49012008704F4A41
:100B2000782151704E494F4CC87008702168FF20E1
:100B3000887220684021C06808F093FE0F220020D0
:100B4000494E4A49D24364272B0009F07AFC080534
:100B50000B15181414141F140E6148618A610E627B
:100B6000486211E00E6148618A610E6248628A62E1
:100B70002168FA204880F8BD20684780F8BD0E61E2
:100B80000E62486148628A618A62F5E70E614861D7
:100B90008A610E6248628A622F4901224A70087097
:100BA000F8BDF8B504468034E18A314B0427CA1AEF
:100BB0002A4D002699421BD007DC2E4A891820D0E6
:100BC000012910D002293FD139E0012A26D00B2A71
:100BD0003AD10021042002F0BFFC0021C9430120CA
:100BE00002F05AFE30E07D20000103F063F82BE0B4
:100BF000208B062828D8082028701749208B488089
:100C000022E000F045F92873FF21532000064160DF
:100C1000076241628662C662016315E001212973A1
:100C2000403041771448017014481E2101804180F2
:100C3000FA218180C180077447742E7004E010216E
:100C4000297000F0BCFDE860E6820120F8BD10B517
:100C5000FFF7A7FF012010BD5A020000103A000064
:100C6000C83A00004C330000FF030000400000526F
:100C700004080000FFF7FFFF55020000843A00005F
:100C800053210906886AFC221043886204F077FF2A
:100C900004F03EF900F01AFF19491A4805F003F96B
:100CA00003F00EF806F0D4FF174D184E184F194CEC
:100CB0001949287807F048FB002802D0002003F0EB
:100CC000E3FF164800F094F831780029F0D10028AD
:100CD000EED02078002805D03878052805D00220ED
:100CE00002F03AFC01202070E2E70D49062008706E
:100CF0000021082002F030FC07F0C1F8F2E7000004
:100D0000483A0000843A000057020000103A000000
:100D1000C80200005F0200008096980040190000A1
:100D2000660E000010B5034680331C469A74090213
:100D30002B4B1143CA1A99421AD00ADC294A891A44
:100D400011D001225203891A0DD02748C14205D182
:100D500007E0FF2A05D0FF3AFD2A04D0002003F067
:100D600093FF012010BD00F0AFF88120A074F8E7D8
:100D70001E4841780B2002F0DBF9F2E710B504467B
:100D80008030807C81280AD083280ED084281BD014
:100D9000852807D0002003F077FF012010BD8322B3
:100DA000812119E08022852116E0204600F016F905
:100DB000A06C012802D9842283210DE00B490B206D
:100DC000497802F0B5F9E8E7204600F007F9A06C91
:100DD0000028E2D1832284212046FFF7A3FFDCE72D
:100DE0008483000080100000FDAEFFFF103A000079
:100DF00070B5064604F077F808F040FC1A49194827
:100E00000B781A4900780A780421FFF74CFC18483F
:100E100004F01BF9174C242320701748144DC35EAF
:100E2000164A1749A86804F033FD164A2178284667
:100E300004F077FB20702C21695E286805F005FF1F
:100E400006F003F903F0DFFB0F490A68521C0A6041
:100E50000E490A78002A03D000220A7010467264F4
:100E600070BD0000103A0000990E0000980E0000BE
:100E7000240F000038020000843A00000C0F00002C
:100E8000041000003C0200000C3A00005402000074
:100E900010B50120FF23532109064B6004220A628A
:100EA0004B6200228A62CA620B630A62FD244C60B4
:100EB0004C620224CC608C618A62CA620B638C68CB
:100EC000CB620A63896810BD10B504460321052072
:100ED00002F02EF909481422018A302041437A2079
:100EE00007F08AFE054807F078FE204600F038F942
:100EF000002040346077012010BD0000B43A0000AB
:100F0000904203DD884200DC084670479142FBDCDA
:100F100010467047F8B50026F04C3146A646F04D15
:100F20003346304605E047007246D25B401CE25330
:100F3000C0B2EC4F3A7894469042F4D300220AE0D3
:100F40005000205E074686190E372C2F01D2C31899
:100F5000491C521CD2B2E34F6245F1D3002907D09D
:100F6000184608F08AFCAF2189004843821200E04D
:100F70000022002005E04100635A9B1A401C635286
:100F8000C0B239788842F6D3002321E0002B08D084
:100F9000401E83420FD15F00381940383C22825EE8
:100FA0000EE0042202210020A25E615E205EFFF7B7
:100FB000A7FF28800AE05F0038190222825E4038CD
:100FC0003E21415EE05FFFF79BFFE8535B1CDBB215
:100FD000C44800788342D9D33046F8BDF1B586B015
:100FE0000321052002F0A4F8E120800002F02BFD8F
:100FF000BD4FBE4DB87900280DD1287807F0F0F923
:1010000007F094FF6421287807F09EF9002802D0A9
:10101000002003F039FEB34E0024287807F0E0F9F1
:1010200007F0FCFE002C0DD1B87900280AD102226D
:101030003178AF4806F066FDAE4904200856AE4947
:1010400007F027FD6421287807F07EF9002802D0F8
:10105000002003F019FE002C4DD0002008F085F987
:10106000641C2406240ED8D00521084602F060F83E
:10107000287807F0B5F907F0A0FF6421287807F079
:1010800063F9002802D0002003F0FEFD03210620B2
:1010900002F04EF8994C3378207828220021FFF78F
:1010A00002FB2078337801220521FFF7FCFA9448EF
:1010B0009449954A0078097812780325049501929D
:1010C0000291039030780090844B844F8F48A03376
:1010D0003A468E49A038FFF74FFB2078337801223B
:1010E0000621FFF7E0FA8A4804F070FD8148007994
:1010F00000280DD01AE087486421007807F024F911
:10110000002802D0042003F0BFFD08F025F9A7E76E
:101110003278012004210390009201917E480295CB
:1011200003787E4A3946794804F01CFEFFF7F2FE48
:101130007B4908607B486421007807F005F90028A6
:1011400002D0002003F0A0FD0121774800F049FF04
:1011500006980699006C401C0864012007B0F0BD99
:10116000F0B585B00321052001F0E2FF06F0C0FCD8
:1011700000245E4D5B4E2746287807F031F907F0D2
:101180004DFE6421287807F0DFF8002802D0002007
:1011900003F07AFD287807F023F907F00EFF6421A9
:1011A000287807F0D1F8002802D0002003F06CFD69
:1011B00008F0D2F8022C10D35C4873210278890120
:1011C0003378481000F02BFD504800973378012207
:1011D0004249A03804F07DFD0AE0002C08D15021DE
:1011E0003E48FFF7CDF973200221800100F0EFFEA9
:1011F000641CE4B20A2CBFD3307800904B4808221C
:10120000037873204A49800100F02DFD31780320D6
:101210000122324C0092019102900423039708228C
:101220003A49204604F06BFD50212046FFF7A8F90B
:101230000121404800F0CBFE0321062001F078FF99
:10124000012005B0F0BDF0B53B4985B00120086034
:101250000321052001F06CFF0024244F214E254678
:10126000387807F0BDF807F0A8FE6421387807F059
:101270006BF8002802D0002003F006FD022C08D3F2
:1012800022480095337801221449A03804F021FD4A
:1012900005E0002C03D150211048FFF771F9641CC0
:1012A000E4B2022CDCD33278032101200B4C0192F2
:1012B000029100900423039508221449204604F06B
:1012C0001EFD50212046FFF75BF90321062001F0A7
:1012D0002FFF194805600120B3E70000705B004054
:1012E000041A0000990E0000C83A0000FD02000038
:1012F000E023004040160000B43A0000103A00001D
:101300003EAB00103DAB00103CAB0010305A00402B
:10131000A42B00000C0200003FAB0010B05C0040AA
:10132000140200000B02000099940010980E0000B7
:1013300090150000F02300006002000070B5F74B2C
:10134000F74C1A020020F74D03E041005E5A565256
:10135000801C21782E7871438142F6DC70BDF3B594
:1013600081B001260321052001F0E2FE029810243D
:10137000ED4D0027002833D0012831D002282FD08E
:10138000032830D0002600210198FFF7CBFAE74C64
:10139000207807F025F807F0A7FD6421207806F0F3
:1013A000D3FF002802D0002003F06EFCE048C760A5
:1013B000207807F015F807F097FD6421207806F0F3
:1013C000C3FF002802D0002003F05EFCD948DB49AF
:1013D0000770D94807700020C04308803046FEBD22
:1013E000FFF798FB03E0FFF795FBD148C7602C702F
:1013F000C9E70021D248B2E70121D148AFE770B573
:10140000D04DCB4E00243068286128627068686136
:101410006862B068A861A8620221C948FFF79FFF0F
:10142000012C1AD0BF480078C107C90F0818BC4961
:1014300009784843420001218907B848FFF702F9BB
:101440003068641CC04330607068C0437060B0682E
:10145000C043B060022CD6DB70BDFFF76FFFEFE733
:1014600010B5FF2029214906C860B74810218163C3
:101470000163032001F0BBFE0321B148FFF76FFFBA
:10148000002001F0B4FE10BD10B5AC480024045F8C
:10149000002C06D0012C07D0022C08D0032C0BD135
:1014A00008E0FFF7A6FF07E0FFF7A6FF04E0FFF75D
:1014B000A6FF01E0FFF7D4FF0720FFF72BFB012178
:1014C0009F48FFF72FFA042C07D096480021037895
:1014D000934802788020FFF7E6F8934901200873CB
:1014E00010BDF3B5002083B006460090304600F0F2
:1014F00037FC054600980024400001901DE030466E
:10150000049900F069FD074600F027FC60434000A5
:101510003F188448007860434100039809180198F7
:101520000B180021083304E048003A5A491C1A52AB
:10153000C9B2A942F8D3641CE4B279480078844265
:10154000DDD30098761C4019C0B2F6B20090042E8C
:10155000CCD30398242141800021416047210170B0
:101560000821417005B0F0BD70B5049C5A43002CB1
:101570000BD0002306E05C00065F0D5FAE4200DD8D
:1015800005535B1C9342F6DB70BD002306E05C0054
:10159000065F0D5FAE4200DA05535B1C9342F6DB3B
:1015A00070BDFFB584460A988E46002819D00024E5
:1015B00013E009992046484340006146461800223E
:1015C0007146411806E05700F05FCD5FA84200DD8C
:1015D000F553521C9A42F6DB641C02988442E8DB05
:1015E000FFBD002413E009992046484340006146AE
:1015F000461800227146411806E05700F05FCD5FA3
:10160000A84200DAF553521C9A42F6DB641C029899
:101610008442E8DBFFBDF0B58E468446002411E02D
:1016200020465043410060460D180023A70006E005
:1016300006985E00A95BC05B081AA8535B1C934226
:10164000F6DB641C7445EBDBF0BDFFB59E46002065
:101650000A9E0B9D1DE000218700F151295401468F
:1016600051434B00009959188C4600210EE04C0064
:1016700063461C5F744508DC099B9C4205DBF359FB
:101680001C19F4512C5C641C2C54491C9142EEDB57
:10169000401C01998842DEDBFFBDFFB58E468446C3
:1016A000002411E0039800236043410060460D18B8
:1016B000A70006E00B985E00A95BC05B081AA85360
:1016C0005B1C9342F6DB641C7445EBDBFFBDFFB58E
:1016D0009446864600210B9E0C9D1BE000228F0045
:1016E000F2516A54039848434200724400230EE0CA
:1016F0005C00145F0998844208DC0A98844205DB88
:10170000F0590419F4516C5C641C6C545B1C634507
:10171000EEDB491C01988142E0DBFFBD0000405E2A
:10172000980E0000990E0000103A0000FD02000023
:10173000640200005A0200005E0200005C02000029
:101740004019000040000052C0030055F0B50546A6
:1017500000205A4303460BE05E00AC5F8F5FE41B42
:1017600000D5644224B2844200DD2046AC535B1CA9
:101770009342F1DBF0BDFFB5864600209C46024651
:1017800018E0099913464B43019C5B001E19002188
:1017900074461C190BE04D00675F735FFB1A00D5A0
:1017A0005B421FB2874200DD38466753491C6145E2
:1017B000F1DB521C02998A42E3DB04B0F0BDF0B5C4
:1017C000C7B0B9483F90B9484190B9483E90B94830
:1017D000409000F031FC002400F0BFFA0146B6480A
:1017E000007841434D002046419900F0F5FB294621
:1017F00008F035F8641CE4B2042CEDD3AF4800784F
:101800004100409808F02BF800260321052001F044
:101810008FFCE120800002F016F9A94C207806F038
:10182000DFFD07F083FB6421207806F08DFD0028A2
:1018300015D1207806F0D4FD07F0F0FA6421207865
:1018400006F082FD00280AD1207806F0C9FD07F0D5
:10185000B4FB6421207806F077FD002802D0002038
:1018600047B0F0BD0321062001F062FC07F074FDD3
:101870000A2E7DD30024904D00F06FFA07462046D3
:1018800000F06EFA732102904901204600F0A4FB9B
:10189000019020463F9900F09FFB00972A78029B19
:1018A0000199FFF768FF641CE4B2042CE4D3834879
:1018B0007F4903780122A0393E98FFF747FF0024B3
:1018C0000021204600F088FB732143900901204647
:1018D00000F082FB429000F040FA4490204600F075
:1018E0003FFA054620463F9900F076FB1E210E2266
:1018F0000091D243429F439B01A98CC12A466E4D61
:10190000449B2978FFF7E3FE294600200D7804AFB9
:1019100013E0002C04D100218200B95032AA1154E6
:101920008100439A7B5852589A187A50429932ABA8
:101930001A5C095C51181954401CA842E9DB641C6C
:10194000E4B2042CBCD300240CE032A8015DA70053
:1019500004A8C059CA22504307F08FFF011204A8FF
:10196000C151641C544FAC42EFDB00240E2500E053
:101970005BE0ED4300F0F1F94290204600F0F0F911
:10198000039020463F9900F027FB1E2204A90195F1
:10199000009202913978429B039AFFF77EFE641C05
:1019A000E4B2042CE6D332A904A80291434C01907E
:1019B00000951E23227801213E98FFF746FE30A8AD
:1019C000017A0498CA22504307F057FF001245904D
:1019D00045A8019000951E23227801213E98FFF72B
:1019E0001AFE0024254600F0B8F90090204600F0C9
:1019F000B7F9039020463F9900F0EEFA0290204696
:101A0000419900F0E9FA01953A78039B0299FFF7B2
:101A1000C8FD641CE4B2042CE5D328480095037883
:101A200001223E994098FFF79FFD0024224F00F0CD
:101A300094F939784843450073214901204600F064
:101A4000CBFA009020463F9900F0C6FA2A4600994A
:101A500007F09FFE641CE4B2042CE8D31748144935
:101A60000078A03942003E9807F093FEFEF77EFF13
:101A7000761CFA2E00D2C8E612484199FFF731FDD4
:101A80000E480D49007809784200414348000D494D
:101A900008314018409907F07CFE0021012001F038
:101AA0005BFD0120DCE6000090150000F023000043
:101AB000305A0040705B0040980E0000990E000004
:101AC000FD020000005D00402048704720490020D2
:101AD0000860704730B51F491C4A0978743211708C
:101AE0001D490020097851701C490B8D93824B8D44
:101AF000D3828B8D1383CB8D53830C4620341346B6
:101B0000257C20339D70647CDC700B8F93840B18D4
:101B1000203314189B7C401C23770628F7D3002021
:101B2000034604E0410089180B714B71401C917809
:101B30008142F7D830BD0020054A0146121D131816
:101B4000401CC0B219730C28F9D37047183B000031
:101B50000C3A0000980E0000990E0000C002001020
:101B60000A04120E534B1204090618401043090DC3
:101B700008437047F0B59C4693046446DB0CA4050B
:101B80002343059C4C4DE405A40A234384008800AC
:101B90002E59FF3081303350082901D2002000E057
:101BA00004200126130CB603B34201D1002300E048
:101BB00002235204D60F4200891A1E4389000F22C5
:101BC0008A4007462B595837BE46DF598E40974307
:101BD0003E437746DE512E590346B6466033F658EB
:101BE000059F9643FF043F0F8F4037437646F750DB
:101BF0002B5968301C58944362469204120F8A4055
:101C000014431C50F0BD002100022B4A401C8B00E5
:101C1000D3581860491CC9B20429F8D37047FFB5DE
:101C200081B00024049800F049F8C6B203980299E4
:101C30004643204600F0D0F905462046019900F0C1
:101C4000CBF90246002106E088004F002B58D75FF1
:101C5000DB192B50491CB142F6D3641CE4B2042CAE
:101C6000E0D305B0F0BDFFB581B000250A9800F0C3
:101C700025F8049EC0B246432846019900F0ACF90D
:101C800000902846029900F0A7F90746002409E0D1
:101C90000098A10040580399C00007F0EEFD6100D4
:101CA0007852641CB442F3DB6D1CEDB2042DDDD31D
:101CB000D7E700000FF000FF80A60010401EC117FC
:101CC000090F081800118000001DC0B27047F7B559
:101CD0000C460321890701224118D20382B09142A8
:101CE00002D300200090FEE70025DC4EDC4B35706F
:101CF0007570B570F560B0602846012182009A5871
:101D00001161401CC0B20428F8D30021012006F064
:101D1000A9FAF0700121084606F0A4FA30712046B5
:101D2000FFF7CCFFB07107460498F071CB4E00204E
:101D300020363554401CC0B20428FAD3002508E0F0
:101D40003946284607F08FFD315C491C6D1C315423
:101D5000EDB2A542F4D305B0F0BDC048807970471C
:101D6000BE492031085C704770B5BC4800211C306A
:101D7000BA4C016060791821BA4D48434019826815
:101D8000002A03D0A1696069904700E00120A17892
:101D9000002918D000281FD0607918214843401925
:101DA000C268002A02D0A16960699047A078012822
:101DB00012D1216900208847A07000280CD106F0BC
:101DC000DDF9207904E0002806D006F0D7F9E078A4
:101DD00006F034FB06F0D7F970BDA14801684969E7
:101DE000C9070AD00068012181619C481C3001703C
:101DF00000689D49884200D1B6E77047984841681D
:101E00004969C9070AD040680121816193481C30A3
:101E1000417000689449884200D1A5E77047904816
:101E200081684969C9070AD08068012181618B48AE
:101E30001C30817000688C49884200D194E770475B
:101E40008748C1684969C9070AD0C0680121816112
:101E500082481C30C17000688349884200D183E702
:101E60007047F8B57D4C05462178142902D301202E
:101E70000090FEE76869C20702D002200090FEE7EA
:101E8000E268801801229202904202D90320009059
:101E9000FEE71820734E4143881918222946FEF7A1
:101EA000D1FBE168A06818224018217851438919B4
:101EB00008616A69296907F06CFC2078401CC0B28F
:101EC00020706969E2688918401EE160F8BD18B4A5
:101ED0000C4662490978814202DC04200090FEE74A
:101EE000182148435F490B58002B04D0204601B00D
:101EF00010BC1146184718BC01207047F8B5574C64
:101F00000546207816460F46A84202DC04200090C1
:101F1000FEE76078002802D005200090FEE765719A
:101F20006761A661E07806F05BFA182045434D48EA
:101F300031462D186A6838469047A078012812D09B
:101F40006421E07806F000FA002802D00620009014
:101F5000FEE7424900201C310860EA68002A02D0EE
:101F60003146384690470020F8BD3C48182140795A
:101F700048433C4940180069704738481821407967
:101F800048433849401840697047F8B5374E1746FE
:101F9000054600290DD001290BD00024A00030589F
:101FA00039464019FEF7ECFA641CE4B2042CF5D370
:101FB000F8BD0024491C4F43A00030583946401951
:101FC00007F04DFC641CE4B2042CF5D3F8BD234BA0
:101FD0009A79DB795A43D8E7244A80001058401890
:101FE000704770B51D4C0125A2780646012904D022
:101FF00002290ED0032919D01CE0002A01D0022AA0
:1020000018D1207906F0ECF92661A5700120B047BF
:1020100005E0022A0ED1A570216902208847A07030
:10202000002807D1207906F0E3F903E0012A01D165
:102030000220A070A07870BD08B5084881780029FA
:1020400009D07D21C900007906F07EF9002802D070
:1020500007200090FEE7012008BD00007402000088
:1020600080A60010A41A00000101010190A6001032
:1020700010B5FE48FFF7F5FEFD4CE060FB48603808
:10208000FFF7EFFE2060F9484838FFF7EAFE60608E
:10209000F6483038FFF7E5FEA060F4481830FFF747
:1020A000E0FE2061F1481838FFF7DBFE6061EF4881
:1020B0003030FFF7D6FEA061EC484830FFF7D1FE84
:1020C000E061EA486030FFF7CCFE2062E7487830F4
:1020D000FFF7C7FE6062E5489030FFF7C2FEA062DE
:1020E00010BDF0B585B00546FFF73FFF012180B276
:1020F0000026C9070390DF4F40180290E87AFFF7E7
:10210000DDFD0190A87AB4004006410C019801431E
:1021100038590164FFF731FF039940183959486075
:1021200039590298886039590020486439590F207C
:102130004865012000902A8800213046019BFFF766
:1021400019FD0120009001466A883046019BFFF787
:1021500011FD08203959285680310860697A01201C
:102160008004081839598864761CF6B2042EC5D349
:102170000120FFF748FD012005B0F0BDF0B585B0A6
:102180000446FFF7F2FE0290012180B20025C90744
:102190000490B84F40180390607AFFF78FFD0190CC
:1021A000207AAE004006410C01980143B859016401
:1021B000FFF7E3FE04994018B9594860B9590398EC
:1021C0008860B9590020486401260096014622889B
:1021D0002846019BFFF7CEFC0096E28801212846A5
:1021E000019BFFF7C7FC0096628802212846019BED
:1021F000FFF7C0FC0096A28803212846019BFFF749
:10220000B9FC6D1CEDB2042DC6D3A17A0298491E0B
:102210004068FFF7A5FC029948600120FFF7F3FC36
:102220000120A9E7F0B585B00446FFF79EFE0290B5
:10223000012180B20025C90704908E4F40180390F9
:10224000E079FFF73BFD0190A079AE004006410C1C
:1022500001980143B8590164FFF78FFE04994018B3
:10226000B9594860B95903988860B9590020486441
:10227000012600960146A2882846019BFFF77AFCBA
:102280000096628801212846019BFFF773FC0096A7
:10229000228802212846019BFFF76CFC6D1CEDB2E1
:1022A000042DCDD3207A010400010143724801437B
:1022B000029841600298617A4069FFF751FC0299E7
:1022C00048610120FFF79FFC012055E7FEB5044659
:1022D000FFF74BFE012180B20025C907029040188C
:1022E0000190E079FFF7EAFC4708A07961494006D0
:1022F000AE00400C895938430864FFF73EFE02994E
:1023000041185C48805941605A4901988959886050
:102310005849002089594864012600960146A28840
:102320003B462846FFF726FC009662883B46012183
:102330002846FFF71FFC02267F00009622883B46B6
:1023400031462846FFF716FC009622883B460321BB
:102350002846921CFFF70EFC6D1CEDB2042DC0D375
:102360000120FFF750FC0120FEBDFEB50446FFF73B
:10237000FCFD012180B20025C907029040180190A0
:10238000E079FFF79BFC4708A0793A494006AE0088
:10239000400C895938430864FFF7EFFD0299411852
:1023A00034488059416033490198895988603149DE
:1023B00000208959486401260096014622883B4640
:1023C0002846FFF7D7FB009662883B460121284646
:1023D000FFF7D0FB02267F000096A2883B463146DD
:1023E0002846FFF7C7FB0096A2883B4603212846F4
:1023F000921CFFF7BFFB6D1CEDB2042DC0D3012072
:10240000FFF701FC0120FEBDF0B587B00446FFF7E1
:10241000ACFD0190E079FFF751FC074601980121DE
:1024200080B2C90706904018059078000490B80063
:1024300003900025062078430290A0790D494006BC
:10244000AE00400C895938430864FFF796FD0699A1
:1024500041180848805941600649059889598860A3
:102460000449002089594864012607E0B0A70010FC
:102470009802000080A600100010000E0096014691
:1024800022883B462846FFF775FB009662883B464C
:1024900001212846FFF76EFB0096A2880023022147
:1024A0002846FFF767FB0096A188049800230A18C6
:1024B00003212846FFF75EFB0096A18803980023BE
:1024C0000A1804212846FFF755FB0096A1880298B8
:1024D00000230A1805212846FFF74CFB0096A28826
:1024E0003B4606212846FFF745FB6D1CEDB2042D47
:1024F000A3D32089401E01B201984068FFF730FB4A
:10250000019948600A20205EC1430198C069FFF725
:1025100027FB0199C8610120FFF775FB012007B077
:10252000F0BDFEB500218183C183816104460D4663
:102530004161002001900090FFF712FC0646FFF772
:102540000CFC0746732109010098FFF745FD6F4316
:1025500079004118002D07D0022D18D0012D29D067
:1025600022461E3200202FE0019A0020920094465D
:102570000AE042008700E3688A5E6744DA516369D3
:102580009A18401CC0B26261B042F2D31EE0019AB8
:102590000020920094460AE04200870023698A5E88
:1025A0006744DA51A3699A18401CC0B2A261B042D4
:1025B000F2D30BE022461C32D4E747001388CF5BEE
:1025C000DB19401C1380C0B2B042F6D301988019C9
:1025D00000B201900098401CC0B200900428ABD318
:1025E0006D1CEDB2042DA4D30120FEBDF0B585B065
:1025F0000446FFF7BAFC0546012180B20026C90750
:10260000039040180290207DFFF758FB0190E07C7A
:10261000B7004006410C01980143FE48C0590164CF
:10262000FFF7ABFC03994118FA48C0594160F949DA
:102630000298C9598860F7490020C95948640127A0
:102640000097014622883046019BFFF793FA0097D6
:10265000628801213046019BFFF78CFA0097A2881F
:1026600002213046019BFFF785FA0097E28803219B
:102670003046019BFFF77EFA0097228904213046FD
:10268000019BFFF777FA0097628905213046019B8D
:10269000FFF770FA0097A28906213046019BFFF7E9
:1026A00069FA761CF6B2042EADD30F216156686824
:1026B000FFF756FA68600E2020564142E868FFF79F
:1026C0004FFAE860112161562869FFF749FA28613D
:1026D00010216156A869FFF743FAA861122020561D
:1026E0004142286AFFF73CFA28620120FFF78BFA83
:1026F000012041E5F0B5054685B000200190FFF7C7
:1027000034FC0146687D0022002808D0E8682423B4
:102710004380472342600370082343700193BE48FF
:1027200008608F208005002427468EB20861281992
:102730000390017A002939D0287DB64A4006400C22
:102740000143A000135819641358311D5960012129
:10275000C9071058711881600021A000AD4A02908D
:10276000105841640120009060002B5A2A8A2046AC
:10277000FFF700FA012000900198E96838180A185C
:102780006B8A01212046FFF7F5F90398A14A007AE8
:10279000FF214000C01987B2029802311058016031
:1027A000641CE4B2042CC2D30120E5E4FF2202320F
:1027B0009849A0000B581A6432460B5808325A60E8
:1027C000964A0858B2188260C6E7FEB504460191E1
:1027D000FFF7CBFB06460199206988600199E06804
:1027E00048608F4931608F497160227A08278E498D
:1027F0008E48022A04D0B160217A0C27012901D029
:10280000F0513F1D01210025B0B2C90740180290C8
:10281000E079FFF753FA019903464855A0797D4ABC
:102820004006410C1943A80012581164794A00214E
:1028300012585164774A029912589160754AF119F9
:10284000105889B24160012000902288002128465A
:10285000FFF790F901200090014662880023284686
:10286000FFF788F901200090A28800230221284662
:10287000FFF780F96D1CEDB2042DC9D30120FFF7DD
:10288000C2F90120FEBDF8B50746007A0E460228BF
:102890001BD0674D002479882046FFF79DFB024638
:1028A0000020335D06E04100515EA94200DA0D468A
:1028B000401CC0B28342F6D8641CE4B2042CEAD3B4
:1028C00070680580387A012819D0594D6D4200246E
:1028D000B9882046FFF780FB02460020335D06E002
:1028E0004100515EA94200DD0D46401CC0B283424A
:1028F000F6D8641CE4B2042CEAD3B0680580012049
:10290000F8BDF0B50025817B2B462F468E4626E08C
:102910000024067B21462246B44612E0066976571B
:102920008E4008313243C9B2202907D341699E0045
:10293000895991420ED100210A465B1C641CE4B205
:102940006D1CA445EAD8002907D041699C000959AB
:10295000914201D00020F0BD5B1C7F1CFFB2BE4540
:10296000D6D80120F0BD00B5FFF7CBFF002800D07E
:10297000012000BDF0B587B00D460446FFF7F5FA1B
:1029800002900120687200272F73207BC01C8008F2
:10299000E872A17B607B06F066FFA872A17B4843CA
:1029A000617B884205D0081A2872A87A401CA87258
:1029B00000E02F720298002680B2011D05910121CE
:1029C000C907401801960490E07BFFF777F9A91931
:1029D00003910871A85500200E49B700C9594864F1
:1029E000E088009021680198A3880A1800213046E9
:1029F000FFF7C0F8207B01283BD0A97A2289414308
:102A00004806410CA85D01430248C05901640120F9
:102A100000900FE080A600100010C023040000808A
:102A20000010000C0020000C10100021202040217C
:102A3000FF7F00000146AB5D3046FFF79BF8FA4888
:102A40000599C2595160C059049981600398761C58
:102A50000079F6B241000198081880B20190042E66
:102A6000B2D30298F14901600120FFF7CCF80120B0
:102A700055E5607B62894006A95D400CC3E7F8B567
:102A800017460C460646002501200090607BA17B7E
:102A90007B5D401A80195843618940004218E8B2B2
:102AA0000121FFF767F86D1C042DEDD3FA7ADE4B98
:102AB0001046724380188646002110E095000020E1
:102AC0008F00AC46803765696646AD5986009E59D1
:102AD000F551401C0428F6D3491CC9B2521C72455A
:102AE000ECD3F8BDF8B517460C4606460025012084
:102AF00000907B5DA17B18464B4361897043400089
:102B00000A18E8B20121FFF735F86D1C042DEED349
:102B1000FA7AC5491046724380188646002310E0B1
:102B2000950000209F00AC46803765696646AD5928
:102B300086008E59F551401C0428F6D35B1CDBB28D
:102B4000521C7245ECD3F8BDFEB50C460646FFF7A5
:102B50000CFA0746307B032201287DD0607A0128D9
:102B6000207B1DD0401CC0B22073B17B884273D241
:102B700022463146FFF783FFBCB201260020AA4D52
:102B8000F607FF270237C10061188A1981006B58C8
:102B90009A6069580F60401CC0B20428F3D37FE0EC
:102BA000401CC0B22073B37B98423DD8012833D17A
:102BB000207A0028A07A01D0401EC0B2002540062D
:102BC000400C0290B8B2019001200090635D307B10
:102BD0003289434300212846FEF7CCFF615D02980D
:102BE000914A0143A800125811648F4918220958CC
:102BF000B2564A64317B8E4B625D090419430A4325
:102C0000E9007A50019A5118874A091D105841600D
:102C10006D1CEDB2042DD7D3207B2246401EC0B2DE
:102C20003146FFF75FFF28E0207A00283AD0181AD3
:102C30002073022060720025605D7B49AA008958DC
:102C4000FF3001300864207B22463146FFF717FF32
:102C500001200090635D00E024E0307BA17A5843BE
:102C6000491E484331894000421800212846FEF79A
:102C700081FF6D1CEDB2042DDED3BCB20126002015
:102C8000694DF607FF270237C10061188A198100D4
:102C90006B589A6069580F60401CC0B20428F3D387
:102CA0000020FEBD62720120FEBDF0B587B00C466B
:102CB0000546FFF75AF9029001206072002727733A
:102CC000A87BC01C8008E072297CE87B06F0CBFD65
:102CD000A072297C4843E97B884205D0081A2072FB
:102CE000A07A401CA07200E027720298002680B2F1
:102CF000011D05910121C907401801960490687CC7
:102D0000FEF7DCFFA11903910871A0550020464988
:102D1000B700C9594864E888009029680198AB88D1
:102D20000A1800213046FEF725FFA87B2A890128D2
:102D300029D0A17A41434806A15D400C08433A4995
:102D4000C9590864012000900146A35D3046FEF792
:102D500011FF35480599C2595160C05904998160E5
:102D60000398761C0079F6B241000198081880B2E9
:102D70000190042EC3D302982C4901600120FEF774
:102D800042FF012074E6E97BA05D4906490CD5E7C6
:102D9000F7B5002582B016460C4601270097735DF3
:102DA000A289E8B20121FEF7E5FE6D1C042DF5D3E2
:102DB000F27A029910464A438018864600231A493F
:102DC00010E0950000209F00AC468037A56966465C
:102DD000AD5986008E59F551401C0428F6D35B1C72
:102DE000DBB2521C7245ECD383E4F8B50C460546C1
:102DF0000988FFF7F1F8009061882846FFF7ECF8A2
:102E00008646002331E0A0885843410000980E1800
:102E1000E0885843410070460A180A2020560028CE
:102E200008D0844600211BE080A600100010C023BB
:102E30000010402F002106E04D00575B705B3818F2
:102E4000491C5053C9B2607A8842F5D80BE04D0056
:102E5000505F775FC01967463841491C5053C9B26B
:102E6000607A8842F3D85B1CDBB2207A9842CAD8D9
:102E7000F8BDF7B5002582B016460C46012700972D
:102E8000735DA289E8B20121FEF774FE6D1C042D6A
:102E9000F5D3F27A029910464A43801886460023F9
:102EA000954910E0950000209F00AC468037A56949
:102EB0006646AD5986008E59F551401C0428F6D35C
:102EC0005B1CDBB2521C7245ECD312E4FEB50C461F
:102ED0000546FFF74AF80746A87B012843D0607AE9
:102EE00001285AD0012069460872687F887200263E
:102EF000A88969460880E87B297C401A217B401814
:102F0000A15D484369894000401869464880002017
:102F10008880C880A019007948723046FFF765FFA5
:102F2000761CF6B2042EE3D3207B401CC0B2207383
:102F3000297C884230D222462946FFF729FFBCB2BD
:102F4000012600206C4DF607FF270237C1006118EB
:102F50008A1981006B589A6069580F60401CC0B292
:102F60000428F3D3C2E0288969460880688948802C
:102F7000E87B0872687F88720025605D69468880FA
:102F8000605DC8806019007948722846FFF72DFF00
:102F90006D1CEDB2042DF0D3AAE0207A0028A07AAF
:102FA00001D0401EC0B2217B491CC9B22173022945
:102FB00020D3A9896A4611801072687F907200261A
:102FC000217BA05D891E48436989400040186946FD
:102FD0004880A05D8880A05D297C48436946C88000
:102FE000A019007948723046FFF7FFFE761CF6B252
:102FF000042EE5D3217B287C81423DD8012933D1A1
:10300000207A0028A07A01D0401EC0B200264006D7
:10301000400C0290B8B2019001200090A35DA87B03
:103020002A89434300213046FEF7A4FDA15D0298A2
:10303000314A0143B000125811642F491C2209582B
:10304000AA564A64A97B2D4BA25D090419430A4381
:10305000F1007A50019A5118274A091D1058416011
:10306000761CF6B2042ED7D3207B2246401EC0B277
:103070002946FFF7FEFE26E0217A002938D0401AC3
:103080002073022060720026A05D1B49B20089589F
:10309000FF3001300864207B22462946FFF778FE86
:1030A00001200090A35DA87BA17A5843491E4843A4
:1030B00029894000421800213046FEF75BFD761C4E
:1030C000F6B2042EE0D3BCB2012600200A4DF6076A
:1030D000FF270237C10061188A1981006B589A6076
:1030E00069580F60401CC0B20428F3D30020FEBD15
:1030F000032060720120FEBD80A600100010402F4A
:1031000010B501462B4806F0AEFB410A2A4A0120C1
:10311000506029480023403003620F23C3620161DD
:10312000FF2141618161032151600421016210BDD1
:1031300070B5401F0C46214D030007F082F90817B7
:10314000191D1D1D0D05081D2868844217D008464D
:10315000FFF7D6FF2C6012E029225206506BC9B24D
:10316000FF231B0218400843506308E0012000E0E1
:10317000002000F010F802E0002001F085FD0120A1
:1031800070BD10B500F0A9F800F01CF80A490F2036
:103190004031C86210BD10B5002803D0084600F0C9
:1031A0004EF810BD0648C0780028FAD1084600F055
:1031B00027F810BD40D2DF0340000052C4020000D7
:1031C000C83A00003D20024900040863704700002F
:1031D0004002005510B55B4C0320216805F01EFF2E
:1031E00020685949401C20601020886310BD0021D0
:1031F000022801D0032800D154490020816570477E
:1032000010B529214906CA680C239A43CA600223D3
:103210004F4A012807D0022805D0032807D00020F4
:1032200001F032FD10BD53604A48086210BD536082
:1032300049480862C8688006800EC86010BDF8B5AD
:1032400029256D06E9680C221143E960404C0126EE
:1032500000280BD0032806D0052803D0002001F059
:1032600013FDF8BD022060602E62F8BD3B4FA96BD4
:10327000B8690902090A0843A863786820603848D9
:10328000286238482862F720C00128623648286240
:10329000364800F0D8FB2E490020403108601C223F
:1032A0004A608A60032161602E62314A2261606156
:1032B0000F21C943A16122626062A1622D4800F022
:1032C000C2FB7868172108432060284800F0BBFB48
:1032D0007868372108432060F8BD70B5264CA16B93
:1032E0000020820012191268401C891A0E28F8D397
:1032F0002068224A29256D06904217D1E06B204AAA
:10330000904213D1002910D1A0680104E0680002A6
:103310000143206901436068C0B203F0DCFE6069CC
:10332000A169286308020830686370BD40202863E3
:10333000144868631449072003F0CDFE70BD0020D7
:103340007DE7000070020000C0030055D531001079
:1033500040000052A57F00000578000000AB00107F
:10336000A0FF000080FB0000817A000088130000AD
:10337000FF030000307500008007012010041020BA
:10338000130674190840000020202000F0B52649DB
:103390002448086225480168090A09020160026898
:1033A000FF21090203238A439B03D21802600268AB
:1033B0000C02A2431E0292190260026815022D0A35
:1033C0008A05AD18056045682D0A2D02C035456097
:1033D00045688D43ED18456045680127A543BF0545
:1033E000ED19456045682D022D0AAD184560C56888
:1033F0008D43E918C160C168A1438919C160C168E2
:103400000902090A8918C1600169090A0902C03163
:10341000016107494017086005490648803908607E
:10342000F0BD00000000C08000ED00E000E400E01E
:1034300080E100E0E1F001000918E948042202609F
:10344000E74B0222403B1A6101221A6105231B0748
:103450009A608160E3490160491E01607047EBE7B3
:1034600070B50A464178037809021943DE4C837827
:10347000E182812523832D014C1B0126A9424DD0D9
:1034800007DCDA4BC91A2AD00C2908D00D2950D1F3
:1034900012E00025012C46D0062C4AD123E0C27848
:1034A00081781202891802794079120400061018F6
:1034B00009180C22CE480FE0C37881781B02C91886
:1034C000037944791B0424061B19CB18911F00298A
:1034D0002FDD811D1846921F06F05BF929E0C248D6
:1034E0004038467725E0C049BF4A20390E70002198
:1034F000803A43189C7853186033491CC9B25C70F9
:103500002E29F6D340188178BA4880224170817AFA
:1035100011438172C068203005770AE0B449102059
:103520000C39087005E0B449B448012B03D00D7084
:103530000570012070BD0E700670FAE7012281054A
:10354000D203801A8003000E8200AD48890D805896
:10355000002800D040187047052104238422090761
:10356000012807D0022803D004280AD0082809D14E
:103570000B6007E00B60002000BF401CC0B2C828F1
:10358000FAD30A600120704710B5C2B29C4B000A02
:103590004400203B1B5B934202D80020088010BDF2
:1035A000974C8000603C205880189A1A0A8010BD01
:1035B000FEB58B48934E4038406AFF218000800C56
:1035C00001310D1A7078317804028F480C43446041
:1035D00001200003022D0DD051DD4110611A202978
:1035E00039D2FEF7A8FAE9B23046FFF739FFFDF706
:1035F00066FA44E00927BF010026E11B762908D2BC
:1036000000210420FFF7A8FFFEF75EFA0019C11B96
:103610001AE0844204D2204601A9FFF7B5FF12E068
:103620007A49271A8F4206D200210420FFF794FF1F
:1036300077493E460AE00121C903611A81421ED240
:103640002046FFF77BFF0146002918D02A46304666
:10365000FFF7F2FE13E0844211D220466946FFF7DD
:1036600093FF00280BD069460988AD1EA94201DDF1
:1036700069460D8069460A88B11C06F08AF8012067
:10368000FEBD30B5842105221207116001231361AC
:10369000002414625249022540390D600B600D610F
:1036A0000B617F231B021843D0610C200862554830
:1036B0008862584808624A48611EC162C462524921
:1036C0000978012902D05449016230BDFF2101313E
:1036D000FAE7F8B5424F7C6A0020C043F8624A4ED0
:1036E0003078012803D1E00501D54C483862A006A6
:1036F000800F23D03A4D403D6868C007FCD03C485D
:103700000C380078122803D100210820FFF724FF8D
:103710003078052824D0B1782046FFF749FF0220F1
:103720002860012028600C2028623648A8623948A9
:1037300028620020B070307801281BD0307805282E
:103740000DD1A0000BD5364C2078C00716D0002133
:103750000420FFF701FF2078400840002070F8BDEA
:10376000686AFF218000800C0131081A254904F0A5
:10377000FEFBD4E7FF2001303862F8BD2A48294A11
:1037800000781178431F994204DA002802D0491DBD
:103790001170F8BD00210420FFF7DEFEF8BDF8B57A
:1037A000194D01242878214E002705280FD06C20C0
:1037B000FFF767FF1E49B470142048600021AF7006
:1037C000084604F04FFD687004F00AFEF8BD6C2056
:1037D000FFF757FF0648B4700C3847710471EDE7E6
:1037E000C00000500900FFFFC019000000080000E1
:1037F0001C3A0000AC0E00000E0200001002000097
:10380000B8A80010841C0000C8020000C81C0000FA
:10381000005D004009000001F00100603000002060
:10382000660E0000680E0000670E0000C83A000037
:10383000B43A000010B5827B042A23D0022A23D098
:10384000002315229206046894614468D461936051
:10385000037B447B5B1E1B04641E2343D3600389EC
:10386000847B1B04234313614389807B1B04034334
:103870005361012090621060002902D05068002836
:10388000FCDB10BD0223DCE70123DAE70121152070
:103890008006816201627047F3B583B00E46FEF781
:1038A00013F9292403980025640601280BD0022867
:1038B00009D0032807D0042869D0002001F0E4F9DA
:1038C000012005B0F0BD374F314678690090364889
:1038D00005F0C9FFE96B0291296C0191216A490841
:1038E00049002162216A314A1143216230490D6247
:1038F000FF22CA623D612F49E9632F492964A1680B
:10390000FE221140A160216A02221143216200219E
:1039100000BF00BF00BF491C3229F9D3216A012230
:10392000920211432162012767621E494861886142
:1039300007220A610398032816D030460099FCF745
:10394000BFFD206A000C00042062206A3843206218
:1039500065620298E8630198286419481749016074
:10396000134804210162ABE70098761C0BD0154B7D
:10397000236230BF256251231B061D6048618861A8
:103980000A61A760DDE70F4B09332362F2E70C49B8
:103990007D2000010D60A061032060610120606155
:1039A0008EE7000000E000E050C30000A4FB000030
:1039B000800000520301000007010000E120000028
:1039C00000E100E0A67F0000FEE710B5FCF784FDF3
:1039D00010BD10B504F001FC1E4B1F4A00211F480A
:1039E00004F029FE1C4A1E4B521C00211D4804F005
:1039F00022FE04F015FC10BDF92153200006816061
:103A0000416004210162FC2181620021C162FF2129
:103A10000163704710B5FFF7EFFF03F03FFBFFF7BF
:103A2000B0FBFCF753FDFFF731FFFFF7B8FEFFF7E0
:103A3000ADFCFCF757FFFFF7CCFF04F09FFE0A4AEE
:103A400003C2012010BD002101E000BF491C8142DA
:103A5000FBD37047C023000009900100B309001098
:103A6000002A0000810C0010080300000A460346EB
:103A70007047FEE730B5034600208D4C01465A568C
:103A80009200121952684D00AA40491C1043C9B255
:103A90001029F4D330BDF8B50F4604461D4616462E
:103AA0001021104605F0DBFE06988078A04254D81D
:103AB0000699C978A14250D3201AC1B20024E878EF
:103AC000AA7803E0091A1319C9B2DCB28842F9D9FD
:103AD000601E10182B7AC0B2834204D8981AC4B260
:103AE000601E1018C0B2002F0AD0012F0FD020285E
:103AF00033D3202C1FD22022121BD2B200241DE06F
:103B0000102C2AD2102800D30F20002223E0202CD2
:103B100023D2102821D3102C04D21022121BD2B28F
:103B2000002402E0103CE4B20022202801D30F2040
:103B300011E0103803E00022203CE4B22038C0B28B
:103B400009E0EB786F685343FB18CB5C3355641C7A
:103B5000521CE4B2D2B28442F3D9F8BD30B5044667
:103B6000002085B02E2C06D2102C02D2620001203B
:103B7000904005B030BD1578A54211D85378A342C6
:103B80000ED30022497A03E0521C8000D2B2401CBE
:103B90009142F9D8621B4A435100091D8840E8E769
:103BA0000B46009201AA00212046FFF774FF01A8EE
:103BB000FFF760FFDDE730B50446002085B02E2C0E
:103BC00006D2103C102CD4D2620001209040D0E7E5
:103BD0001578A54215D85378A34212D30022497A0A
:103BE00003E0521C8000D2B2401C9142F9D8621B03
:103BF0004A4351001C3901D48840BAE74942C840C1
:103C0000B7E70B46009201AA01212046FFF743FFC8
:103C100001A8FFF72FFFACE730B50446002085B0C0
:103C20002E2C06D2203C0E2CA3D262000120904004
:103C30009FE71578A54215D85378A34212D30022E6
:103C4000497A03E0521C8000D2B2401C9142F9D85C
:103C5000621B4A4351003C3901D4884089E74942FC
:103C6000C84086E70B46009201AA02212046FFF7D2
:103C700012FF01A8FFF7FEFE7BE770B505460C4674
:103C8000007AA9784018401E05F0F7FD697A0646CB
:103C900008462D3005F0E7FD2E30A070E97871431D
:103CA0004118491EE1702E212170401E607070BDC8
:103CB000C8A8001010B501460420FFF7EDFD10BDA7
:103CC000F748F8490078801C0870F7480078C10769
:103CD000C90F0818F549801C08707047F3B58600B5
:103CE000F348F44C81B08059A16806F0B7FB054653
:103CF000E16806F0B3FB0146284606F0A5F9074641
:103D0000029806F09BFA6168009106F051FC394672
:103D100006F0EAFB009906F0A1FB6060284606F079
:103D200069F904460D46384606F064F90022E24B74
:103D300006F016F822462B4606F028F805F040FE5D
:103D4000DB498851FEBDF3B58600D948D94C2838E7
:103D500081B08059A16806F081FB0546E16806F054
:103D60007DFB0146284606F06FF90746029806F0EB
:103D700065FA2168009106F01BFC394606F0B4FB99
:103D8000009906F06BFB2060284606F033F90446E4
:103D90000D46384606F02EF90022C74B05F0E0FF2D
:103DA00022462B4605F0F2FF05F00AFEC0492839ED
:103DB0008851FEBDFFB581B0054603980F460A99AC
:103DC00000680090049806680020085E06F036FA45
:103DD000B84C20600B990020085E06F02FFA606056
:103DE000B648B8490278B648002A0C9A08D0002A8A
:103DF00008DCFA0511D4B448A060012080070AE06D
:103E0000002A02DD002005B0F0BDFA0505D5FD2031
:103E10008005A060AD48E06001E0E160A060A448DA
:103E20002830415D002914D0009801B228B205461F
:103E3000FFF789FF31B22846FFF750FF206806F0F0
:103E4000B3F903990860606806F0AEF90499086058
:103E5000D8E701214155964A7F21C905A800283A93
:103E6000115028321150009806F0E8F920603046D1
:103E700006F0E4F96060E1E7FFB505469448954A2D
:103E800000781E464000135A8BB080180493808837
:103E900002902C20904A684384180D9A1820205EC6
:103EA0001368C21A00D51A1A1A27E75F3368F81A7E
:103EB00000D5D81B1018009001900D98CF0700680E
:103EC00006F0BCF909902C2045438348642128184A
:103ED0000625455F69430891816A0791406A06900B
:103EE000002F35D001990498401806F0A7F90290E8
:103EF0000390019806F0A2F901460090099806F097
:103F0000F3FA0746049806F099F90190069906F02D
:103F1000EBFA394606F0A2FA039906F095F86062CA
:103F200036E06431002800D5501B5043089A8018B1
:103F300005F0A3FC14990880606A06F035F90D9924
:103F40000860A06A06F030F9306000200FB0F0BDC4
:103F500000990298401806F071F9049005900098B5
:103F600006F06CF901460090099806F0BDFA074684
:103F7000029806F063F90190069906F0B5FA394601
:103F800006F06CFA059906F05FF8606204980290FA
:103F9000009F306806F052F9394606F0A5FA074648
:103FA0000799019806F0A0FA394606F057FA0299E7
:103FB00006F04AF8A06214980022825EA81A01D482
:103FC0000146AEE7511BACE7F3B5444885B0007835
:103FD000002802D0002007B0F0BD4148414CC37D0D
:103FE0000393007E02902E48228D0078009281007B
:103FF00041180620504305F036FC07462A480622A1
:10400000007881004118608D0190504305F02BFC31
:104010000646059832490088009A05B20698039B27
:10402000008804B2192008565108002B26DDBD4235
:1040300004DAE81B58438011C0190EE0521BBA4243
:1040400006DAD11B594389110098C919401A04E0B6
:104050004A1B504305F011FC401905B220491A20B3
:1040600008562049029A498D4908002A47DDB44282
:104070000ADAA11B5143881180193AE0BD42EDDBF9
:10408000D21BAA42E4DAE9E7019A121BB2422BDA08
:10409000911B029A0198514389118919401A28E00D
:1040A000980E000043020000990E00004402000038
:1040B0002C2A0000D00200000000F03F2D0200007A
:1040C0009A99593F0000C0403333733F00002041AC
:1040D0000E0200000C3B00006416000055020000B8
:1040E000D43A0000240F00000A1B504305F0C5FB22
:1040F000001904B205980560069804606AE7B442A6
:10410000F8DB019A921BA242EEDAF3E7FFB587B023
:104110001D4614460E46119F079806F08FF805902D
:10412000304606F08BF80490204606F087F803909E
:10413000284606F083F80290109806F07FF8019068
:10414000384606F07BF80090BE4210DD1098001B48
:1041500006F074F80646781B06F070F8314605F054
:1041600073FF0746059906F0BFF904990FE0079819
:10417000201A06F063F80746A81B06F05FF83946D8
:1041800005F062FF0746019906F0AEF9009906F0C6
:1041900065F905463846039906F0A6F9029906F036
:1041A000FBF906467800000E0FD00121384606F0D4
:1041B00051F804463146284606F0FAF9214605F042
:1041C00043FF05F0F1FF0BB0F0BD2046FBE7F0B573
:1041D0000E46054685B01446981B06F02FF802904F
:1041E00001900A992846684349430746C81B06F0D0
:1041F00025F800900B98801B06F020F803902046CD
:104200006043381A06F01AF80146039806F06CF974
:1042100007460099019806F067F9394606F01EF93D
:1042200001900B98301A06F009F80090601B06F018
:1042300005F806460A98029F401B05F0FFFF01465D
:10424000384606F051F905463146009806F04CF91B
:10425000294606F003F9012105F0FCFF0146400064
:10426000000E05D0019805F0EFFE05F09DFFCAE5B0
:104270002046C8E5F0B50022059E069D079C002853
:1042800004D1375E002F00DA32801A80F84F3F7871
:104290007F1EB84205D10020185E002800DA1A807F
:1042A0003280002904D1605E002800DA22802A8052
:1042B000F0480078401C814205D10020285E00288B
:1042C00000DA2A802280F0BDF0B59446EA4A002543
:1042D000EA4F14692B46FE56CA5C36187600A65F74
:1042E0005B1C564375195BB2042BF4DB4200A25EE3
:1042F0000B795A4355190523FE18203E1F22B2564A
:1043000016187600CA5CA65F5B1C564375195BB233
:10431000092BF1DB6046054128B2F0BDFFB506462A
:1043200089B000200790D6481F46017830460D46D8
:1043300005F099FA04466843301A85B2701E019060
:104340000A99701C009000291FD0CC4903228A567C
:10435000C948921997B204228A56006991190B0430
:10436000019976000A04865F04960099D20B825A5E
:104370006E463283DA0B825AB2827A000904825A7C
:10438000B281C90B405A308434E07A7A39463046DB
:10439000FFF79AFF049001987A7A80B23946FFF7C6
:1043A00093FF6946088300987A7A80B23946FFF70E
:1043B0008BFF69460884B2487A7A00783946301A09
:1043C00080B2FFF781FF69468881AD487A7A00782C
:1043D0003946301880B2FFF777FF6946888208AA0D
:1043E00006A905A86E4607C603AB69B260B2049A77
:1043F000FFF740FF0B98C00753D068460C21415E81
:104400001422049B825E994203DD0B46914200DA3E
:1044100013469C4E994210D193420ED1A0008019B0
:1044200041681298002C016004D097480078C01EA3
:1044300084425ED101200DB0F0BD9448807A0028FE
:104440000BD0A000844680198768009701924268CB
:1044500060463058FFF7BBFE0AE0A0008446801992
:10446000876800970192426860463058FFF74EFE19
:10447000002800DA00207E490978890072588919DD
:10448000496851184A10824200DC48101299002CE9
:10449000086004D07C480078C01E844201D101200D
:1044A00007900B9880075AD568461821415E202650
:1044B000049B865F994203DD0B46B14200DA334626
:1044C000704CC034994216D1B34214D1A8000019DF
:1044D00041681398002D016009D066480078C10733
:1044E0006748C90F0078401AC01EA84201D10220B7
:1044F000A1E700209FE76548807A002809D0A8003E
:10450000021997680097019652682058FFF75FFEDE
:1045100008E0A80002199768009701965268205891
:10452000FFF7F4FD002800DA0020524909788A00DC
:10453000A358121952689A185310834200DC501085
:10454000139A002D106007D04D48C9070078C90F95
:10455000401AC01EA84202D10798801C07900798F5
:1045600069E77CB50D462C21144648434849484A22
:10457000095A82181D20105630225043454AC90559
:104580008618F08800290095019424DA424B012214
:104590000021FFF7C3FE002801DB012807D10095A9
:1045A00001940122F0883C4B1146FFF7B7FE3A4BCD
:1045B00000950194F0880A3302220021FFF7AEFE35
:1045C000002801DB02281DD1334B009501940A33EA
:1045D000F088022213E0304B03220A3B0021FFF750
:1045E0009DFE002805DB012803D0022801D0032806
:1045F00008D1294B00950194F0880A3B0322012140
:10460000FFF78CFE7CBDF0B5AFB000202C900120F0
:104610002890FDF759FA00212790871C01702798F0
:10462000417068460173417304F0A8F81B4A03C245
:1046300000202B902690249019482E9019482A90FB
:10464000249D2C2045431248445BFF200230044245
:1046500037D0600602D54820A04332D16846007B9F
:104660000A492990897888421ED3094826E000002B
:10467000980E0000990E0000401600000302000092
:1046800044020000D8A8001043020000103A0000C5
:104690006416000080100000EAAA00100803000061
:1046A000683A0000440F00004820A0430AD1FE48A9
:1046B00029184A692E99097D8A4203D840210C4362
:1046C00044534AE2600706D5F74829184A692E99EB
:1046D000097D8A4208D9200709D5F34829184A6973
:1046E0002E99097D8A4202D80921415335E2EF49CA
:1046F0000C4209D0EC482818C07F4007800F03D037
:10470000EB4A249900205054EA490C420DD0E64867
:1047100018212818415E22911A21415E2391C188F7
:1047200020AA9182807F2890C1E0600514D5E34BD8
:10473000DD4EE14A1B78A919D218127C48699042D3
:1047400002D2401C486108E20120800284432020FC
:104750000443745301202890D34830212E181D2083
:1047600030564843D64941180A200091085EC1B22C
:104770002C91E1050BD40099897B490707D4CF49D7
:10478000D04A097851182031897A884243DC23AA1B
:1047900022A92498FFF7E5FE2D9000980622825E5C
:1047A000C949029209781046019105F066F801990D
:1047B000C0B2029A4143511A2D9AC9B2002A21DA95
:1047C000009A927B520711D5C04A800080182A9A1D
:1047D0004068527D104122908800BC49C031401889
:1047E0002A994068897D0841239006E00098282195
:1047F000415E22912A21415E2391E00512D50220DB
:1048000028900FE02A98417D2298084122902A980A
:10481000817D2398E7E700982821415E22912A2193
:10482000415E239123A922A8FFF7CEFB009841699E
:10483000A24800784200A048805E091A0911400091
:10484000081800B220A98882FF2800DDFF20888296
:104850000090706901280FD0B08930823089B08112
:10486000F08970827089F08170882299081A3081ED
:10487000B0882399081A7081229908B22D9070800F
:104880002398029000B20190B080A0060FD5084690
:1048900005F0D4FC7062029805F0D0FCB0622D984F
:1048A0003083019870830098F0802898B0777E4814
:1048B0001A222E181820305E2299B25E239B411ACC
:1048C000D21A4943524389182D912899012914D1AC
:1048D0007A49794A09785118203189782D9A4943C3
:1048E00091420ADBF17F022901D0062905D12290ED
:1048F0001A20305E239000202D900025200703D53C
:104900001025002121208155A00601D5042021E099
:1049100025A8009023AB22AA21462498FFF7ACFAE1
:1049200020460821084031461A318A1E0191009222
:10493000029023AB22AA21462498FFF73BFA5F4856
:10494000634900784000401800892D99404388420F
:1049500001DC082005432298002801DA002022907B
:104960005C49229A088D904201DC401E22902398D7
:10497000002801DA0020239056482399408D884270
:1049800001DC401E23905448817800297ED0E8063F
:1049900002D5002020A9888250480078052865D1DA
:1049A000299800280CD0401C052801D9012000E0DE
:1049B00000202B90820029998018081AC0B22690F6
:1049C0002B9A4C2146484A43101800900170002150
:1049D0004170012181704348007900280AD03D4888
:1049E0002299008D0E23401A2699009A5943511896
:1049F000401E05E026990E23009A5943229851182B
:104A00004871000A88713748407900280DD0314834
:104A10002399408D0E23401A2699009A5943511824
:104A2000401E4872000A887208E026980E23009AF9
:104A30005843101823994172090A817226980E234F
:104A40005843009A24991018019001712649642254
:104A500003C9002304F04DFE009941310872000A99
:104A60004872E806C1170198491CC17029990C20A9
:104A7000414303A80918229A4A806A46127B0C23F4
:104A80005A4312182399918020AA00E079E014215A
:104A9000515E6A46127B8C465A43C9011218D18076
:104AA0006146002923D021E0641600004808000078
:104AB000542A00000C0A0000843A00000E02000094
:104AC00080100000483A000044020000D8A80010FE
:104AD0000C3B0000240F0000C83A0000C802000090
:104AE0006C2F0000103A0000080300002C996A4661
:104AF000127B0C235A4312181181294602221143BA
:104B00006A46127B5A4312189172E10501D50221BF
:104B100000E001216A46127B0C235A431218D1721D
:104B20006A46127B24995A43101801736A46107B17
:104B3000401C10732298EA0600B23083239909B210
:104B4000718302D5494A1083518320A8808AF0805E
:104B50002898B07702200543F5772498401CC0B20E
:104B600024900F2800D26BE5414D287805284ED0BF
:104B7000404C2079002822D03F4900200A8D03AE06
:104B800019E0690703D5C179002900D16EE7E9066C
:104B900002D5417A0029F9D02907CBD5007A00281F
:104BA000F4D0C7E70C21414389194B88D31A5B1E07
:104BB000401C4B80C0B26946097B8142F2D86079C3
:104BC000002811D02C4900204A8D03AE08E00C21AA
:104BD000414389198B88D31A5B1E401C8B80C0B25D
:104BE0006946097B8142F2D8E07800280FD0002086
:104BF00003AB08E00C214143C9184A888C884C80DB
:104C0000401C8A80C0B26946097B8142F2D868465E
:104C10000021027B19E00C20484303ABC0184388F5
:104C20003B8083887B80C388BB80037ABB71837A97
:104C3000FB71C37A3B72007B78722798279B0078C0
:104C4000491C401C1870C9B20A378A42E3D8287838
:104C5000052806D109480B4902700948C272002094
:104C6000087027990020085E2FB0F0BD40160000A4
:104C7000C8020000103A0000240F0000670E000078
:104C8000AC2F0000680E0000002812D12920400639
:104C900041690222114341618169FF22114381610F
:104CA0004169FD2211404161416901221143416185
:104CB000FEE77047FEB58F488F490678F007C00FB2
:104CC0008019C0B242005118891D0091890704D093
:104CD0000099C91C8908890000918849801C0978BD
:104CE000C0B200250291019030E001986843410074
:104CF00000980C180022104611460AE05300E35EAB
:104D00001F460E372C2F02D2C018491C09B2521C64
:104D100012B2B242F2DB002902D004F0AEFD00E094
:104D2000002019214901484383120020074609E069
:104D30004200A15AC91A09B2A152002900DAA752A9
:104D4000401C00B2B042F3DB6D1C2DB202988542CC
:104D5000CBDBFEBDF0B5002315E0828804685A4322
:104D6000A71800220AE0540095003C5F4E59002C21
:104D700000DA64423419521C4C51D2B2C4799442C4
:104D8000F1D85B1CDBB282799A42E6D8F0BDFEB561
:104D900007465A48694600780026887230463146F0
:104DA0008200401CC0B2B9505028F9D300255448A5
:104DB0006946445DE007C00F0019C0B20090CC7294
:104DC000732189012846FDF707F90190009869468B
:104DD00040000881B000C11901A8FFF7BBFF3019DE
:104DE0006D1CEDB2C6B2042DE1D3FEBDF0B5414855
:104DF00085B00078C107C90F0818C0B23E4942000B
:104E00005118891D0091890704D00099C91C89088F
:104E100089000091394909780490801CC2B2394850
:104E200002920078384A43009A18528A0192029AF4
:104E300051430391002802D13448FFF7A8FF002313
:104E40004CE000982F4D590009182D780020AC46F1
:104E50006D000246AE4606E055004D5F002D00DDB8
:104E60002818029D5219039DAA42F5DB6246002ACA
:104E70000FD0019A90422FDB234D72465219D288EF
:104E8000424360462818807B02416046002809D0D2
:104E900010E01E4C9A00A458019A9042ECDA944219
:104EA0001ADBE9E7E8886043AC7B20414400A2427A
:104EB00000DA2246002007460BE045004E5F002E38
:104EC00005DD964202DBB61A4E5300E04F53029DB9
:104ED0004019039DA842F0DB5B1CDBB204988342BF
:104EE000AFD305B0F0BD10B5FFF780FFFFF7E2FECE
:104EF00010BD0000990E0000903B0040980E00008D
:104F0000940200000E0200002C3A0000642A000007
:104F100010B5FF48FD49C160FE498160FE4901614D
:104F2000FE494161FE49C161FE498161FE49CA886D
:104F3000028509894185FD480178F5482030417492
:104F4000FB4C2178817404214175817503F046F88A
:104F50002078F94AC307DB0F1818801C9080F549A8
:104F60004000001D0818106010BDF0B5F34F00237D
:104F700084465C1E3D787E7811E0E8188000C019F8
:104F80004079884209D1E81844B2A000C01906232C
:104F9000C35E934205DAC28003E05B1CDBB29E4233
:104FA000EBD8002C14DAB8781E2811D28000C01972
:104FB000C280BA7860469200D2191071B878800029
:104FC000C01941717878401C7870B878401CB8706E
:104FD000F0BD70B530256943846830396118848824
:104FE00004255443E418CC800024E4430C810124BC
:104FF000CC818A700A700A71CB704B704B71455F1F
:105000005E0055436D000068AD19405FCC4D9200C5
:1050100052194861526805465543EA178D61CA61C5
:105020009A00C84BD21852685043C2174A620862AD
:105030004C818C8170BD0022C049012803D0887842
:1050400008704A7070470A70FBE7F0B50546A5B0D6
:105050000079129028462030817C00248A1CD2B22C
:105060000D92EA6826465118C91C1D916969119173
:1050700029690C91B1498C70417C2191807C2090F0
:105080000F218901E868FBF77BFA002081002A697B
:10509000401C56506A69C0B256501528F6D30020FD
:1050A0003021414300220E31AB68401CC0B25A523D
:1050B0001928F5D30020AEE112992A684843400030
:1050C000101823900C99119811910C900020014612
:1050D00083000C9A401CC0B2D1501528F8D30D990A
:1050E0000A9848431D99491E40181C9000208AE1E7
:1050F0001C982E22401C1C900898AA5E4100239800
:1051000009180020085E82427EDC089B119AD318A1
:105110005A78002A78D1129A3E2752000F928A1AA2
:105120001646403EF75F8742EEDC0026965F8642D9
:10513000EADC0226965F8642E6DC0A46403A3E26D4
:10514000965F8642E0DC02228A5E8242DCDC012637
:105150009E700F9A3E2752181346403BDF5F8742EE
:10516000D2DC089F0C9BDE550F9BC95E8142CBDCD5
:10517000089B0C99C9184E700223D35E8342C3DC8E
:105180008E70192C7ED2601C2290C0B20990302102
:10519000A8684C43041900200B90A9690A9808706C
:1051A000E969089808701C99099808700998FFF730
:1051B00042FF2846089B0A9A0999FFF70AFF802EAA
:1051C00001DB0B9611E1A9690B980D9A095C10910E
:1051D000E9691D9B095C1B911099129848431B9922
:1051E0004000490040182968401810994A431B990B
:1051F000591851180022825E0E920B9A521C12B25C
:105200000B920F9A831A00E0FAE01718821E801C96
:10521000039000930D989C4602920A1A4B1E0818A0
:1052200001971593139263469B1E0493491C169194
:105230001490BB1E0593511E63469B1C0693179149
:10524000BB1C411E521C401C1A900020079319924F
:10525000189107461F90B80013A91E9008580178AE
:1052600000290ED0099881420BD01E9A68468058BA
:105270000022825E0E98824200DD02460998FFF706
:1052800074FE00E0B8E01E98694608580021415EAF
:105290000E98814208DD1E9813A9085801780998D4
:1052A000814201D001201F907F1C7FB2082FD2DBEA
:1052B0001F9800287ED1820013A989580B78002BF3
:1052C00079D16B469B5800221E939A5E2E23EB5E8B
:1052D0009A4270DB0E9B9A426DDC099A0A701A4959
:1052E0000A5C1099511849B2AA698E46915517491E
:1052F0000A5C1B99511849B2EA698C469155761C93
:105300001E99002336B26269CB5E21E090280040EE
:10531000240F0000801000005C0F0000B00F0000A0
:1053200030150000B8150000103A0000980E00007B
:10533000990E0000903B0040300200000410000075
:10534000D8A8001098A90010180200002002000040
:10535000D11861617146FC4A890089181E9A0023A0
:105360004968D35EE7695943A369CA17C9187A41E6
:10537000E261A1616146F54A890089181E9A0023FD
:105380004968D35E676A5943236ACA17C9187A41C4
:105390006262216261890022491C61811E998A5ED4
:1053A000322A02DDA189491CA1810221615672467F
:1053B000714501E019E013E000DAA27000216156A6
:1053C0007246714500DD22700322A2566146624595
:1053D00000DAE1700122A2566146624500DD61708B
:1053E000401C40B2082800DA65E70B98B04200D0B4
:1053F000E5E62298C4B203E021980A90209808902C
:105400000898401CC0B220990890884200D26FE6EC
:105410000A98401CC0B221990A90884200D24BE6FB
:10542000204625B0F0BD30B5302493686043C018E5
:105430000624045F12686300D55E4B00D35EAB4266
:1054400002DB0481C18030BD0824045F002C03DB33
:105450006400125F9342F6DD018130BDF7B58446EA
:105460000C46029830258368614630206C434143E6
:10547000A646CA18E41850696569401950619069D8
:10548000A669D569E76986197D419661D561106A7B
:10549000266A556A676A86197D4116625562108AC6
:1054A000258A40191082508A658A40195082508995
:1054B0006589401950819089A58940199081D089CA
:1054C000E5892843D0810020E08102200225105682
:1054D0006557A84200DA95700325032055572056DA
:1054E000854200DAD07070465D561856854200DD60
:1054F00058540121012051562056814200DD507040
:1055000006216046615EC0B2029AFFF78CFF082157
:10551000615E002904DB6046C0B2029AFFF783FF98
:10552000FEBDF7B584B002F067FD0498049D846861
:105530000020874A203509E0810089180B795B1E1D
:105540000B714B795B1E401C4B71C0B2917881424C
:10555000F2D82BE10020844608793022504300190C
:10556000428948793023584300194089101882B283
:10557000042008560390052008560190012032E0CF
:105580007349830059180B793026029373431B1912
:105590005E894B79302700937B431B195B89F31895
:1055A0009BB2934208D21A460423CB560393052399
:1055B000CB568446019314E0934212D1039F029B81
:1055C000634EBB420DD1019F009BBB4209D1062314
:1055D000CB5E61468900891906268E5FB34200DAE8
:1055E000CB80401CC0B25A498B788342C8D86046F1
:1055F0008100574805220818042103904156019163
:105600008256029291420BD1514A917889008918B1
:105610000B8883804988C1809078401E9070C5E0D7
:10562000029830214843011901983026704300192F
:10563000AB7D6A7D0F46064602F0EEFC00286CDA70
:105640000498062201680620305EBA5E4000085EBB
:105650005200895E884200DD0846E97C062241430B
:10566000287D01410398825E914207DD04987169AB
:10567000808D814202DD7969814232DCA87D009013
:105680006B7D39463046012202F01AFD049A0199D9
:105690000298FFF7E3FE05982D4B401EC0B205901F
:1056A000997803988900C9180A8882804988C1803E
:1056B0009878401E987002990020CAB20DE08100CF
:1056C000C9180F79019EB74200D10A714F79019E26
:1056D000B74200D14A71401CC0B29978814265D965
:1056E000EDE7A87D00906B7D39463046042202F03C
:1056F000E7FC174B039899788A00D1180A888280B2
:105700004988C18098780421401E9870F889084320
:10571000F881F0890843F08148E041071AD50C4B25
:10572000039899788A00D1180A8882804988C180B4
:1057300099780420491E9970F9890143F981F1890A
:105740000143F18132E00000D8A8001098A90010B0
:1057500004100000C00729D0049A01990298FFF7AD
:105760007DFE0598F94B401EC0B2059099780398CC
:105770008900C9180A8882804988C1809878401EAB
:10578000987002990020CAB20DE08100C9180F7903
:10579000019EB74200D10A714F79019EB74200D1F4
:1057A0004A71401CC0B299788142EED8E7498878A6
:1057B000002800D0CEE602F0C4FC0026059F13E0CE
:1057C0003020784300190090807BC00708D109E0A1
:1057D000302070430019807BC0070BD0761C76B256
:1057E000192EF5DB7F1CFFB2192FE9D30699002093
:1057F000086046E030207043001930220099FAF723
:1058000021FF00200099761CC88176B2EAE730219A
:1058100048430619B07BC00731D070690090C017AB
:105820000190F169B069019B009A03F07AFF6A7DEB
:1058300003F04CFF02B232850292716A306A019B1A
:10584000009A03F06EFFAA7D03F040FF7085049874
:10585000029A018D0020491EFBF72CF83085049830
:105860002A22418DB25E0020491EFBF723F8708585
:10587000069801687069814201DA06990860781C0F
:10588000C0B2059907468842C1D3084607B0F0BDAB
:10589000FFB5FFB08446BEB014460020302141431E
:1058A0000F4661448A7BD20720D08B89450083AAAA
:1058B000535385006AAA4B695351C20006AB8D69E8
:1058C0009B18CE6960C338AE0B6AB2184D6A28C205
:1058D0008B78A0AA1354CB78AEAA13546346DB5D31
:1058E000A7AA13544A78B5A90A5403E0002143003B
:1058F00083AAD152401CC0B21928CFD3BE99002030
:10590000897800910DE0BE99820051184A7990ABD8
:10591000521E1A54097998AA491E1154401C009924
:10592000C0B28142EFD88A48002203902038006834
:10593000019088E090A8805C30230746584360447B
:105940000623C35E01995800095E98A8805C302543
:105950000646684360440625455F019B6800185E63
:10596000814200DC08460399C97C091F4143039822
:10597000007D0141BE98930018180623C35E99422A
:105980005FDA3846B7425CD001463346470083A809
:10599000C65B5D00405B361883A8C653002646539D
:1059A0008F006AA8C5599E008059CE002D186AA89C
:1059B000C55106A8851981CDB646DD0006AE029513
:1059C000751960CD4019774106AD754481C576469D
:1059D00038A8851981CD029D38AE751960CD401962
:1059E00038AD7741754481C5A0AF785CFE5CB042AC
:1059F00000D27E54AEAF7D5CF85C854200D2785414
:105A0000A7AF7D5CF85C854200D97854B5AD685C81
:105A1000EB5C984200D96B54501CC0B290A998AE70
:105A20000CE00D5CB35C9D4201D18D5C0D54355C86
:105A30009D4201D18B5C3354401CC0B2009B834219
:105A4000EFD8521CD2B20098904200D972E70020E1
:105A500060804048A0800020632583AA6AAB410093
:105A6000515A00290BD06688B14201D961800546A0
:105A7000A688B14203D2A18081005958E160401C40
:105A8000C0B21928EBD3632D5DD0A8001A58AEA878
:105A9000A260405DA074A0A8405D2074B5A8405DE0
:105AA000E074A7A8405D607416460398F317407C25
:105AB00000213246049303F01CFE00900191E8009F
:105AC00006A90290224A091803C9203A128D002320
:105AD00003F00FFE019B009A03F023FE00B2A082A8
:105AE0000190009003980021807C3246049B03F0D3
:105AF00000FE06460F46029838A9154A091803C940
:105B0000203A528D002303F0F4FD32463B4603F069
:105B100008FE01B2E1820098002801DA002006E0C8
:105B20000B48019A2038008D824201DB401EA08282
:105B3000002901DA002005E005482038408D814227
:105B400001DB401EE0827FB042B0F0BD04100000D7
:105B5000440F00002F750000F8B50024B14F1D263A
:105B600025467601E0B23946FCF736FA0022855424
:105B7000521CB242FBDB641C042CF3DBF8BD10B5F5
:105B8000FFF7EAFF3821A84803F06BFEA648012181
:105B9000203081740023C37443758175C175A34897
:105BA0000278A34854008481A24C2478047542747E
:105BB0000174A14C0460A04CA0344460C2819F4A8F
:105BC0001278428283609E48017010BDF0B5458A0C
:105BD00081686D4300292AD0002224E0818903686E
:105BE000514359188C46C1894368514384685B18F6
:105BF0006618002112E0745C002C0DD14C00674641
:105C00003C5F6443AC4201D9002404E05C5C077D46
:105C1000A74201D9641C5C54491CC9B2447C8C4223
:105C2000E9D8521CD2B2017C9142D7D8F0BD0022F3
:105C30001DE08189036851435E18C189436851435F
:105C40005B1800210EE04C00345F6443AC4201D984
:105C5000002404E05C5C077DA74201D9641C5C540D
:105C6000491CC9B2447C8C42EDD8521CD2B2017C92
:105C70009142DED8F0BD6C4810B500222030714949
:105C8000C2744B698969CB4205D56F4BDB68994279
:105C900001DA012100E000210123C17400290BD1A8
:105CA0006A49192409686401E14201DA012100E02E
:105CB0000021C174002909D0417D032902D8491C63
:105CC000417510BD62494B77427510BD42758375B1
