:10000000F01F0000150000100000000000000000BC
:10001000002070477CB51B48292149060862012051
:1000200008600020486138200863092088600F209C
:100030000861002008613F20C861FE20C8600420DC
:10004000486000BF00BF00BF00BFFFF7E1FF0646EA
:100050000D4840680090002001900B4D002405E001
:10006000A0002858A100019A5050641C282CF7D3F6
:100070000021009848600098804700BF00BF00BF83
:1000800000BF7CBDA07F0000000400100000000045
:100090000000000000000000000000000000000060
:1000A0000000000000000000000000000000000050
:1000B0000000000000000000000000000000000040
:1000C0000000000000000000000000000000000030
:1002C000000300000000000000000000000000002B
:1002D0000003000000B900000003000000B90000A6
:1002E00000C0000000040000010001000801080136
:1002F0000101424C41444533610000000100080007
:1003000000000000000000000000000000000000ED
:1003100000000000000000000000000000000000DD
:1003200000000000000000000000000000000000CD
:1003300000000000000000000000000000000000BD
:1003400000000000000000000000000000000000AD
:10035000000000000000000000000000000000009D
:10036000000000000000000000000000000000008D
:10037000000000000000000000000000000000007D
:10038000000000000000000000000000000000006D
:10039000000000000000000000000000000000005D
:1003A000000000000000000000000000000000004D
:1003B000000000000000000000000000000000003D
:1003C000000000000000000000000000000000002D
:1003D000000000000000000000000000000000001D
:1003E000000000000000000000000000000000000D
:1003F00000000000000000000000000000000000FD
:10040000F01F0000FB2400100000000000000000AE
:1004100000000000000000000000000000000000DC
:1004200000000000000000000000000000000000CC
:100430000000000000000000F1050010A37500108E
:100440008D210010F9240010F9240010F924001067
:10045000F92400106F5E00106D5E0010151500107D
:10046000F9240010F9240010F9240010F9240010D8
:10047000F9240010B30900103715001059150010A9
:100480007B150010F9240010F9240010F924001045
:10049000F9240010F9240010F9240010F9240010A8
:1004A000F9240010F9240010F9240010F924001098
:1004B000F9240010F9240010F9240010F924001088
:1004C00003B40148019001BDC100000003B401481C
:1004D000019001BD012F000000F002F800F040F88B
:1004E0000CA030C8083824182D18A246671EAB4649
:1004F00054465D46AC4201D100F032F87E460F3ED4
:100500000FCCB6460126334200D0FB1AA246AB46BA
:1005100033431847309D0000909D0000103A02D3ED
:1005200078C878C1FAD8520701D330C830C101D594
:1005300004680C607047000000230024002500269A
:10054000103A01D378C1FBD8520700D330C100D58F
:100550000B6070471FB5C046C0461FBD10B510BD2B
:1005600008F0D1FC1146FFF7F5FF01F0E9FF08F0B4
:10057000E9FC03B4FFF7F2FF03BC02F006F8000049
:10058000FCB40022002300240025002600270629B1
:1005900002D4FCC00639FAE7002902D004C00139B0
:1005A000FAE7FCBC7047000002B472B60178013172
:1005B000017062B60139080002BC704702B472B61D
:1005C00001780139017062B6080002BC7047000072
:1005D00062B6704772B670471C3880F3098870475E
:1005E000014802490160704704ED00E0000000107E
:1005F000114B1968114A1268914216D0EFF3098025
:1006000020380860F0C044464D4656465F46F0C06C
:100610001A6010681030F0C8A046A946B246BB4622
:100620002038F0C8103080F30988054B002018707E
:10063000042040420047000018020000140200009D
:100640000602000070B505460C46164602E00FCCC7
:100650000FC5103E102EFAD2082E02D303CC03C5CC
:10066000083E042E07D301CC01C5361F03E02178D4
:100670002970641C6D1C761EF9D270BD02460020E4
:100680000121890700E089089142FCD808E043185D
:10069000934203D8121A521A4B00181840088908BE
:1006A0000029F4D170477FB5002502265C00009533
:1006B000802809D08B280CD0A02821D0A2281ED1B8
:1006C00006291CD13E481EE0002918D101208007D0
:1006D00019E0042913D1D807C00FC01839494000C8
:1006E00041180091890704D00099C91C8908890024
:1006F00000916946001D08810098002806D17FBD41
:100700000529FCD130480090684604812F482421F7
:100710004180472145600170082141702B4800212C
:10072000083001906846867344814373027301F078
:100730001FFE0021022001F0FDFC0121022001F03A
:10074000F9FC7FBDFFB50A980D99099D0B9C0C9B88
:100750008446002930D0002115E0009E4800375A19
:10076000019E365EF610BE1B36B2175AB646F61B11
:10077000039F3E52175E6646774376466643BE1930
:100780001E411652491CA942E7DBFFBD019E4800ED
:10079000365EF710009E365ABE1B36B2175AB64662
:1007A000F61B039F3E52175E6646774376466643C6
:1007B000BE191E411652491CA942E7DBFFBD0000CD
:1007C000D05A0040963B004090590040605C004089
:1007D000012110B549034804FFF7D2FE0020134958
:1007E000134B08704870887001221A70114A1080EB
:1007F000114A1080114A1070C87010BD10B5FFF773
:10080000E7FF0F490020C8716031088203F021FE24
:1008100002F092FF00F07FFD0A490B4804F00FF947
:1008200001F0E5FF03F038FD10BD000021010000DC
:100830003F010000A80200006001000071010000FB
:1008400038090000482C0000842C000070B50446D4
:100850000020606423466033A064012298709207F0
:10086000E2615A4A62635A4AA263594A34250832FD
:10087000E26322464032157020255570E0641082F4
:100880000122626510229A712061002901D000F0D6
:1008900046FD50484078208370BD10B54E4C002175
:1008A000207806F00BFA002802D0002002F0B5FEF6
:1008B000207806F0B5FA012010BD10B5112806D039
:1008C000122803D14549082001F034FC10BD4349EA
:1008D0000420F9E7C00601D50120704700207047C9
:1008E0003F4800F0CEFD00F005FF3E48007806F0DE
:1008F00097FE06F0A9FF0021084606F0F9F8364CED
:10090000012120703548FFF7A1FF0021084606F0BD
:10091000EFF860700121084606F0EAF832492D4DE3
:10092000087069780C2001F08BFA2C4C2F4E603443
:100930002A4800F0EAF80020305E002802DB00F0D0
:10094000A3FCF5E7A078002801D007F032FA287858
:10095000FFF7C0FF00280CD16878002809D0A079E3
:100960000009000110280CD0802810D0002002F0CF
:1009700054FE2878FFF7A1FFFFF78FFF0028FBD078
:10098000D6E780221021154800F01AF9F1E76078C7
:10099000002804D0114800F05DFB002060700F4873
:1009A00000F03AF9124904200856124906F017FFE0
:1009B000DFE710B506F020F80748007806F05EFA89
:1009C0000D490F20C86206F01CF810BDE02300405E
:1009D000605C0040102C000072010000D80800008C
:1009E000903700402596001020010000760100009D
:1009F00058060000B42C000080000052F8B5454EA7
:100A00000746012544493570782048704348444CD6
:100A1000C57005702168FF20887220684021C06879
:100A200007F0D5FC00203F4964223B0008F0BFFAE4
:100A300008050B15181414141F1408614861886107
:100A40000862486211E00861486188610862486292
:100A500088622168FA204880F8BD20684280F8BD8D
:100A6000086108624861486288618862F5E7086148
:100A70004861886108624862886275703070F8BDAC
:100A8000F8B50446C034618A274B234DCA1A04279F
:100A90000026994211D005DC244A891816D0012974
:100AA00031D105E0012A1ED00B2A2CD10120F8BD3E
:100AB0007D20000101F086FE25E0A08A062822D8CC
:100AC000082028701349A08A48801CE000F080F9B3
:100AD0002873FF215320000641600762416286624D
:100AE000C66201630FE00121297360304170104834
:100AF000017010481E2101804180FA218180C1804F
:100B0000077547752E706682D0E710B5FFF7B8FFFE
:100B1000012010BD74010000102C0000C82C000042
:100B2000341E00004000005204080000FFF7FFFFE1
:100B300071010000842C000053200006816AFC2211
:100B40001143816203F085FC02F0F6FD00F0E3FB47
:100B50001449154803F073FF01F049FE03F09CFBB4
:100B600007F0A6F8114C124D124E1349207806F0EA
:100B7000A5F8002802D0002002F04FFD207806F0F2
:100B80004FF90E4800F082F80746287806F050F931
:100B900030780028E9D1002FE7D00849012001F082
:100BA000C9FAE2E7482C0000842C00007301000021
:100BB00020010000102C000080969800D80800004A
:100BC00010B5034660331C469A7109022B4B114342
:100BD000CA1A99421AD00ADC294A891A11D001226C
:100BE0005203891A0DD02748C14205D107E0FF2AD8
:100BF00005D0FF3AFD2A04D0002002F00EFD0120AE
:100C000010BD00F008F98120A071F8E71E48417876
:100C10000B2001F015F9F2E710B504466030807939
:100C200081280AD083280ED084281BD0852807D09D
:100C3000002002F0F2FC012010BD8322812119E086
:100C40008022852116E0204600F002F9E06C0128A0
:100C500002D9842283210DE00B490B20497801F051
:100C6000EFF8E8E7204600F0F3F8E06C0028E2D166
:100C7000832284212046FFF7A3FFDCE78483000062
:100C800080100000FDAEFFFF102C0000F1B53F48C2
:100C90003F49404A86B00078097812783E4E03906A
:100CA0003E4F3E4801243425A03E019202913A4B2A
:100CB0000095049432463946A038FFF743FD384882
:100CC00003F0ECFB37480079002809D1364800953D
:100CD0000194314A0378A0323146384603F060FE71
:100CE000324D3423287801220621FFF7DCFC02F084
:100CF000DEFC2F492F4806F0FEFF2F4934230875EC
:100D0000287820220421FFF7CEFC02F035FD2B4885
:100D100002F0EEFE2A4C014620702A4A274803F0D2
:100D200063F9207025482C21415E406804F04AFD9B
:100D300005F03DF802F08CF923490A68521C0A605C
:100D400022490A78002A1ED000240C7000F0E0FA34
:100D5000811C00221023047012260DE00C804C80B0
:100D60008C808C714A720B72CF793743CF710778C0
:100D70000A317F1C0770521CAF789742EED844703E
:100D8000069900788C6407B0F0BD0000289600102A
:100D90002796001026960010705B0040305A0040E5
:100DA000A81800005806000029960010102C00001A
:100DB000C808000074020000B0080000BC02000077
:100DC0004C010000500100000C2C000070010000DC
:100DD00010B50120FF23532109064B6004220A624B
:100DE0004B6200228A62CA620B630A62FD244C6075
:100DF0004C620224CC608C618A62CA620B638C688C
:100E0000CB620A63896810BD10B50321052001F08B
:100E100017F8012010BD10B504460321052001F08C
:100E20000FF8204600F016F90020603460700120B1
:100E300010BD0120704710B50321052001F000F816
:100E4000012010BD10B5084605F0F2FF10BD704737
:100E5000F0B504469DB00321052000F0F1FFB04D30
:100E6000287805F0DDFF06F0F0FD6421287805F014
:100E700025FF002802D0002002F0CFFB287805F0E3
:100E8000CFFF06F08AFD02223421A64805F01AFDA4
:100E9000A54F04203856A54906F036FC6421287871
:100EA00005F00CFF002802D0002002F0B6FB2878E5
:100EB00005F0B6FF06F008FE6421287805F0FEFE76
:100EC000002802D0002002F0A8FB0321062000F039
:100ED000B7FF2546964E40352B78307828220021E2
:100EE000FFF7E1FB2B78307801220521FFF7DBFBD0
:100EF00000F07FFC3078862809D100F091FC0021B9
:100F0000022001F017F90121022001F013F98948AC
:100F10006421007805F0D2FE002802D0002002F003
:100F20007CFB854802798178007800F06CFC307891
:100F30008A2809D100F07FFC0021022001F0FAF894
:100F40000121022001F0F6F803F0CFFA03F024FCAF
:100F50007A48817D00291AD0C07D002817D07848B2
:100F60003423202239790BAD0FC574492C22143952
:100F70006846FFF767FB714820380EC80FA803F0DA
:100F80006DFC6E4838220FA92038FFF75BFB00F09C
:100F90005CFC6C4801782046FFF754FF0021204696
:100FA000FFF755FF606C401C606401201DB0F0BD70
:100FB000FFB581B0002421460A9800F083FAC107EA
:100FC000C90F0818049EC0B246432046019900F09C
:100FD0007FFB00902046029900F07AFB074600252F
:100FE00009E00098A90040580399C00007F0FBF9F8
:100FF000690078526D1CB542F3DB641CE4B2042C2A
:10100000D9D305B0F0BDFFB581B0002421460498C6
:1010100000F058FAC107C90F0818C5B20398029921
:101020004543204600F054FB06462046019900F057
:101030004FFB0146002006E082004700B358CF5F17
:10104000DB19B350401CA842F6D3641CE4B2042C54
:10105000DCD3D6E7FEB50321052000F0F1FE05F054
:1010600027FC00242E4D2746287805F0D9FE06F0EF
:1010700094FC6421287805F021FE002802D000208D
:1010800002F0CBFA287805F0CBFE06F01DFD6421B6
:10109000287805F013FE002802D0002002F0BDFAE7
:1010A00000F0A7FB022C0ED37321890134232022E8
:1010B0004810FFF7A8FF3423012223492348009753
:1010C00003F03BFC0FE0002C0DD10026314634200C
:1010D00000F0F8F9420173218901304600F0EFFA7F
:1010E000761C042EF2DB641CE4B2122CBCD3342434
:1010F000732020231022164980010094FFF758FF27
:10110000114901231022A0390F480197009403F0E0
:101110002AFC0321062000F093FE0120FEBD000002
:10112000FD010000E023004058060000B42C000040
:10113000102C0000200100002C2C0000B008000042
:10114000C808000073010000D05A004090590040C8
:101150009015000030B5634A002011020D24E4010F
:101160004300D55A801CCD52A042F9DB30BDF3B507
:1011700081B001270321052000F062FE02981025AE
:10118000594E0024002833D0012831D002282FD016
:10119000032830D0002700210198FFF757FB534D5B
:1011A000287805F03DFE06F018FC6421287805F04B
:1011B00085FD002802D0002002F02FFA4C48C460C0
:1011C000287805F02DFE06F008FC6421287805F04B
:1011D00075FD002802D0002002F01FFA454847495B
:1011E0000470454804700020C04308803846FEBDA6
:1011F000FFF704FC03E0FFF701FC3D48C4603570D5
:10120000C9E700213E48B2E701213D48AFE770B58C
:101210003C4D374C00262068286128626068686170
:101220006862A068A861A86202213548FFF79FFFA5
:10123000012E12D00D22120291052A48FFF702FA60
:101240002068761CC04320606068C0436060A0686E
:10125000C043A060022EDEDB70BDFFF77BFFEFE72F
:1012600010B5FF2029214906C86027481021816355
:101270000163032000F045FE03212148FFF777FFBB
:10128000002000F03EFE10BD10B51C480024045F95
:10129000002C06D0012C07D0022C08D0032C0BD137
:1012A00008E0FFF7AEFF07E0FFF7AEFF04E0FFF74F
:1012B000AEFF01E0FFF7D4FF0720FFF79FFB0121FE
:1012C0000F48FFF7C3FA042C07D00D482022403006
:1012D000037800218020FFF7E6F903490120087315
:1012E00010BD00000000405E102C0000FD01000059
:1012F0007C0100007401000078010000760100000C
:10130000D808000040000052C00300552148704733
:101310002048801E7047204900200860704730B583
:101320001C48202172300170342141701B49002279
:101330000B8D83824B8DC3828B8D0383CB8D438337
:101340000C4620340346257C20339D70647CDC7081
:101350000B8F83848B18203384189B7C521C23773B
:10136000062AF7D300210A4604E04B001B181A7125
:101370005A71491C83788B42F7D830BD002006494A
:101380000246091D0B18401CC0B21A730C28F9D371
:10139000704700001A2D00000C2C0000C002001045
:1013A0000A04120E334B1204090618401043090DAB
:1013B00008437047F0B59C4693046446DB0CA405D3
:1013C0002343059C8500E405A40A23432A4C880096
:1013D0006659FF3081303350082901D2002000E0E7
:1013E00004200126130CB603B34201D1002300E010
:1013F00002235204D60F4200891A1E4389000F228D
:101400008A40074663595837BE46DF598E40974396
:1014100037431E467346F750675903466033FE58FC
:10142000BE46059F9643FF043F0F8F403E437746DD
:10143000FE50645968302358934362469204120F59
:101440008A4013432350F0BD0D239B06C918016049
:101450004260704710B59204D20C9B05029C1A435F
:10146000E3059B0A1A430D239B06C91801604260DD
:1014700010BD00000FF000FFEC91001008B50090C7
:10148000FEE738B50321890701224118D2039142B2
:1014900002D300200090FEE7904C00212170617083
:1014A000A160606008468E4901228300CB581A6112
:1014B000401CC0B20428F8D30021012005F018FB1D
:1014C000A07038BDC208D200821A1206854B920D58
:1014D000D218C008515C40000818C0B2704710B55F
:1014E0007E49002014317D4C0860E0781821484383
:1014F0007D4940188268002A04D02169E06890473D
:10150000002806D005F078FAA07805F0B7FC05F0C1
:1015100078FA10BD724908684069C0070AD00968A6
:10152000012088616D491431087008686F4988424C
:1015300000D1D4E770476A4948684069C0070AD0BB
:101540004968012088616549143148700868674915
:10155000884200D1C3E77047614988684069C00785
:101560000AD08968012088615C4914318870086854
:101570005E49884200D1B2E770475949C86840695E
:10158000C0070AD0C9680120886154491431C87065
:1015900008685649884200D1A1E77047F8B54F4C1A
:1015A000054620780A2802D301200090FEE76969E9
:1015B000CA0702D002200090FEE7A2688918012223
:1015C0009202914202D903200090FEE7182148437D
:1015D000454E0A4680192946FFF734F8A16860682D
:1015E0001822401821785143891908616A692969CC
:1015F00006F085FE2078401CC0B220706969A268A0
:101600008918401EA160F8BD18B40C46334909780A
:10161000814202DC04200090FEE718214843324951
:101620000B58002B04D0204601B010BC11461847BF
:1016300018BC01207047F8B5284C0546207816469E
:101640000F46A84202DC04200090FEE760780028E4
:1016500002D005200090FEE7E570E7602661A078E3
:1016600005F0DEFB182045431F4831462D186A68F7
:10167000384690476421A07805F020FB002802D06E
:1016800006200090FEE71549002014310860EA6842
:10169000002A02D03146384690470020F8BD0F4856
:1016A0001821C078484310494018006970470B481A
:1016B0001821C07848430C4940184069704710B55C
:1016C0000B4B8000185840181146FEF759FF10BD0B
:1016D000074A800010584018704700008C01000035
:1016E000EC9100100C920010F409000001010101BE
:1016F000FC910010F8B5FF4FFD483426F860202516
:101700007E823D75002421463420FFF7DBFE391927
:101710000872C107C90F40186100641CE4B2785216
:10172000042CF0D373204001388201207875F14CED
:10173000F1481834801CE06036206082257500274F
:1017400039463420FFF7BEFEE1190872C107C90F00
:10175000401879007F1CFFB26052042FF0D3BB20E9
:101760008001208200276775E448FFF717FFE44CEB
:101770000121A060DF4889072C38016086800121A3
:10178000C180732149014181078107210173817360
:10179000DA4918310161343141614573C673077606
:1017A00008467C38FFF7FAFED24A2060103A11460C
:1017B0001C39FFF729FFCF487321490130300180E0
:1017C000D0494180D049818073218901C18007813E
:1017D00089104181BB218901818103218173082105
:1017E000C173C5740675C5481838FFF7D7FE606029
:1017F000F8BDC04A10B5103AC14811461C390068FE
:10180000FFF719FF10BDBB4B10B530331874597476
:101810009A74BB48002219464068FFF70CFF10BDC0
:1018200010B57320B34940010882B5480022806892
:10183000FFF701FF10BD10B5AE49B3480882B048AC
:1018400000228068FFF7F7FE10BD10B5A949AC482B
:10185000002218318068FFF7EEFE10BDF0B585B0AC
:101860000446FFF71CFF05460120A9B20027C00768
:10187000081803910290207D3946FFF723FEC10727
:10188000C90F0818C0B20190E07CBE004006410CB0
:10189000019801439D4880590164FFF708FF0399AF
:1018A00041189A488059416098490298895988603E
:1018B00096490020895948640126009601462288ED
:1018C0003846019BFFF776FD009662880121384675
:1018D000019BFFF76FFD0096A28802213846019B0D
:1018E000FFF768FD0096E28803213846019BFFF769
:1018F00061FD0096228904213846019BFFF75AFDBD
:101900000096628905213846019BFFF753FD00963A
:10191000A28906213846019BFFF74CFD7F1CFFB2D0
:10192000042FA8D30F2161566868FFF739FD68605E
:101930000E2020564142E868FFF732FDE860112191
:1019400061562869FFF72CFD286110216156A869AE
:10195000FFF726FDA861122020564142286AFFF7B2
:101960001FFD28626949002082008A581660401CC9
:10197000C0B20428F8D3012005B0F0BDF0B504468C
:1019800087B000200290FFF78AFE0190607D002161
:10199000002808D0E068242242804722416002707B
:1019A0000822427002920198002581B2081D05901C
:1019B0000120C00708182F460490217D6019007A85
:1019C0004906490C08435149AE00895908644F49FA
:1019D0000020895948640120009068000390235A30
:1019E000228A00212846FFF7E5FC0120009002989A
:1019F000E16838180A18638A01212846FFF7DAFCE3
:101A000003984249205A89594000C01987B2059865
:101A100048603E490498895988606D1CEDB2042DD8
:101A2000CBD301983A490160002038490122830054
:101A3000CB581A60401CC0B20428F8D3012007B06C
:101A4000F0BDF0B50024817BA44627468E462BE0EE
:101A500000231A461946067B15E005692D5D954061
:101A600008322943D2B2202A0AD365464269AD0022
:101A700052598A4211D16146491C8C4600221146B6
:101A80005B1CDBB2641C9E42E7D8002A0AD0624687
:101A9000436992009A588A4201D00020F0BD614605
:101AA000491C8C467F1CFFB2BE45D1D80120F0BD39
:101AB00000B5FFF7C6FF002800D0012000BDF0B53B
:101AC00085B00C460546FFF7EAFD029001206072E2
:101AD00000272773287BC01C8008E072A97B687BE5
:101AE00006F077FCA072A97B4843697B884211E02D
:101AF000605C0040100B0000FE3B0040C4920010F0
:101B0000A401000090150000F0230000EC910010EB
:101B10000010C02305D0081A2072A07A401CA072C1
:101B200000E027720298002681B2081D049001206F
:101B3000C007081801960390E87B3146FFF7C2FC06
:101B4000A1190871C107C90F4018A0550020AD495F
:101B5000B700C9594864E888009029680198AB88A3
:101B60000A1800213046FFF725FC287B01282FD0DA
:101B7000A17A2A8941434806A15D400C0843A14946
:101B8000C9590864012000900146A35D3046FFF763
:101B900011FC9C490498CA595060CA590398906036
:101BA000A05D761C42000198F6B2101880B2019038
:101BB000042EC1D30298944A0260002001228300BF
:101BC000CB581A60401CC0B20428F8D30120D3E6D9
:101BD000697B6A894906A05D490CCFE7F8B51746CD
:101BE0000C460646002501200090607BA17B7B5DB2
:101BF000401A80195843618940004218E8B2012117
:101C0000FFF7D8FB6D1C042DEDD3FA7A7D4D1046FD
:101C1000724380188646002310E091008C46002015
:101C20009900803166696746F6598700EF597E5002
:101C3000401C0428F6D35B1CDBB2521C7245ECD36B
:101C4000F8BDF8B517460C46064600250120009061
:101C50007B5DA17B18464B436189704340000A18A5
:101C6000E8B20121FFF7A6FB6D1C042DEED3FA7A32
:101C7000644D1046724380188646002110E09300A0
:101C80009C4600208B00803366696746F6598700C2
:101C9000EF59FE50401C0428F6D3491CC9B2521C0F
:101CA0007245ECD3F8BDFEB50C460546FFF7F7FCD0
:101CB0000746287B032101287ED0607A0128207BFB
:101CC0001BD0401CC0B22073AA7B904274D2224623
:101CD0002946FFF783FF002001224A49BDB2D307FE
:101CE000C4002C19E61884000F59BE600C592260FC
:101CF000401CC0B20428F3D37EE0401CC0B2207365
:101D0000AA7B90423DD8012833D1207A0028A07ABE
:101D100001D0401EC0B200264006400C0290B8B26E
:101D2000019001200090A35D287B2A894343002174
:101D30003046FFF73FFBA15D0298324A0143B000F5
:101D4000125811642F4918220958AA564A64297B4F
:101D50002E4BA25D090419430A43F1007A50019AFF
:101D60005118284A091D10584160761CF6B2042EFD
:101D7000D7D3207B2246401EC0B22946FFF761FF21
:101D800029E0207A002839D00020207302206072D8
:101D90000026A05D1B49B2008958FF30013008645D
:101DA000224629460020FFF719FF01200090A05D80
:101DB000297B0346484300E020E0A17A491E4843BE
:101DC00029894000421800213046FFF7F3FA761CBB
:101DD000F6B2042EDDD3002001220A49BDB2D3079A
:101DE000C4002C19E61884000F59BE600C592260FB
:101DF000401CC0B20428F3D30020FEBD6172012054
:101E0000FEBD0000EC9100100010C0230010402F18
:101E100010B501462C4806F0DCFA420A2B49012095
:101E200048602A480023403003620F23C3620261E6
:101E3000FF224261826103224A600421016210BDD7
:101E400070B5401F0C46224D030007F0B0F808178C
:101E5000191D1D1D0D05081D2868844217D0084650
:101E6000FFF7D6FF2C6012E029225206506BC9B250
:101E7000FF231B0218400843506308E0012000E0E4
:101E8000002000F012F802E0002001F0C6FB012063
:101E900070BD10B500F08BF800F0BBF800F01CF836
:101EA0000A490F204031C86210BD10B5002803D088
:101EB000084600F04EF810BD0648C0780028FAD158
:101EC000084600F027F810BD40D2DF034000005262
:101ED000B0010000C82C00003D2002490004086346
:101EE000704700004002005510B54B4C032021689C
:101EF00005F036FE20684949401C206010208863A8
:101F000010BD0021022801D0032800D1444900203F
:101F10008165704710B529225206D1680C23994378
:101F2000D16002213F4B012807D0022805D00328A9
:101F300007D0002001F071FB10BD59603A481062D3
:101F400010BD596039481062D0688006800ED0609C
:101F500010BD70B529225206D1680C231943D160F7
:101F6000032530490123002808D0032803D000208E
:101F700001F053FB70BD4D60136270BDF720C001CE
:101F80001062284C0020403420601F266660A66046
:101F90004D60F524E4011462F124E401146213623B
:101FA00008614861886108624862886270BD70B5E6
:101FB0001F4CA06B00218A0012191268491C801A5C
:101FC0000E29F8D321681B4A29256D06914217D1A5
:101FD000E16B194A914213D1002810D1A068010485
:101FE000E06800020143206901436068C0B203F069
:101FF0004CFF6069A169286308020830686370BDFE
:10200000402028630D4868630D49072003F03DFF19
:1020100070BD00209DE7000088010000C00300554E
:10202000E91E001040000052A57F00000578000066
:1020300080070120100410201306741908400000C6
:1020400020202000F0B52649244808622548016870
:10205000090A090201600368FF21090203228B4378
:1020600092039B18036004680B029C4315026419D9
:10207000046004682602360A8C0536190660466834
:10208000360A3602C036466046688E43B618466049
:10209000466801279E43BF05F6194660466836022A
:1020A000360A36194660C6688E43B118C160C168E9
:1020B00099434919C160C1680902090A0919C16037
:1020C0000169090A0902C031016107494017086026
:1020D0000549064880390860F0BD00000000C08056
:1020E00000ED00E000E400E080E100E0E1F001004C
:1020F00001228105D203801A8003000E82009248DB
:10210000890D8058002800D04018704710B5C2B221
:102110008D4B000A4400203B1B5B934202D80020F9
:10212000088010BD884C8000603C205880189A1AA6
:102130000A8010BDF0B50522012404278425834BB5
:102140001207012807D00026022810D0042810D03A
:10215000082810D109E07E4841601760002000BFC8
:10216000401CC0B2C828FAD303E017600CE0002975
:1021700003D015601C700120F0BD1760002000BF67
:10218000401CC0B2C828FAD31E70F4E770B571487D
:10219000466A0021C943C1626E4C403C6068C0077A
:1021A000FCD06D480078122815D001210220FFF7DD
:1021B000C1FF674D3046297800F018F802202060F2
:1021C000012020600C2020626448A06264482062E4
:1021D0000020287070BD0021E8E770B55C4C002538
:1021E0006C20656000F04EF8257070BDF8B55B4E50
:1021F000707831780002084356494039496AFF2215
:102200008900890C0132541A022C18D038DDD5000F
:10221000411B20291FD2FFF7B1F8707832780102F4
:102220004B4811434068B3780246C03251829382D2
:102230004A1B0121002A06D0152A09D106E02146B1
:1022400000F041F81CE06030417001E060308170C6
:10225000FEF7AFFB14E001210903884210D2694662
:10226000FFF754FF00280BD069460988A41EA1423D
:1022700001DD69460C8069460A88B11C06F03FF80A
:102280000120F8BD30B58421052212071160012319
:102290001361002414622F49022540390D600B6040
:1022A0000D610B617F231B021843D0610C20086273
:1022B0002A4888622A4808622648611EC162C462B0
:1022C000C105016230BDF8B509260446B6010025F6
:1022D000801B662804D2FFF71BF80019801B1EE044
:1022E000012109038C4204D2A0B26946FFF70EFF18
:1022F00015E01C48621A824209D215488C42436894
:10230000986B01D015460AE0002B08D1F8BD0120DA
:10231000C003201A8842F9D2A0B2FFF7E9FE0028D4
:10232000F4D043190B48042101600A4902224039C4
:102330000A6101220A61052109078A6083600A494E
:102340000160491E0160F8BDA8930010240100003F
:10235000B4010000C0000050102C0000560B00001B
:1023600009000001C81C00000900FFFF01207047A0
:1023700010B5827B042A01D0022A21D00023152225
:102380009206046894614468D4619360037B447B43
:102390005B1E1B04641E2343D3600389847B1B04E0
:1023A000234313614389807B1B0403435361012052
:1023B00090621060002902D050680028FCDB10BD3C
:1023C0000123DCE70121152080068162016270474C
:1023D000F3B583B00E46FEF79BFF29240398002532
:1023E000640601280BD0022809D0032807D004284E
:1023F00066D0002001F011F9012005B0F0BD354F85
:10240000314678690090344805F0E3FFE96B0191AB
:10241000296C216A490849002162216A2F4A114327
:1024200021622F490D62FF22CA623D612D49E96395
:102430002D492964A168FE221140A160216A02226F
:1024400011432162002100BF00BF00BF491C322997
:10245000F9D3216A012292021143216201276762A6
:102460001C494861886107220A610398032814D037
:1024700030460099FEF724F8206A000C0004206220
:10248000206A3843206265620198E863184817495A
:102490000160134804210162AEE70098761C0BD05E
:1024A000144B236230BF256251231B061D60486117
:1024B00088610A61A760DFE70E4B09332362F2E708
:1024C0000B497D2000010D60A061032060610120A7
:1024D000606191E700E000E050C30000A4FB000051
:1024E000800000520301000007010000E12000000D
:1024F00000E100E0A67F0000FEE710B5FDF7ECFF6D
:1025000010BD10B504F0ADFA184B194A0021194856
:1025100004F0B3FD184B194A0021194804F0ADFD31
:1025200004F0C2FA10BDF9215320000641600421D5
:102530000162FF21416200228262C2620163704730
:1025400010B5FFF7F0FF03F083FCFFF7A2FCFDF7E7
:10255000BDFFFFF737FFFFF740FEFFF773FDFEF704
:1025600037F9FFF7CEFF012010BD000094120000E4
:1025700009900100E1080010441700000A2C010036
:10258000390B001003460A467047FEE730B5024695
:102590000020884C014653569B001B195B684D0078
:1025A000AB40491C1843C9B21029F4D330BDFFB564
:1025B00081B00D4606461C4610210A9F039805F07F
:1025C00004FFB878B04254D8F978B14251D3301AE8
:1025D000C3B20020E278A17803E09B1A0818DBB2AE
:1025E000C0B29A42F9D9421E8A18267AD2B29642CD
:1025F00004D8701AC0B2421E8918CAB2002D0AD07F
:10260000012D0FD0202A34D320281FD22021081AD0
:10261000C1B200201DE010282BD2102A00D30F22B7
:10262000002124E0202824D2102A22D3102804D20A
:102630001021081AC1B2002002E01038C0B20021F7
:10264000202A01D30F2212E0103A03E000212038A3
:10265000C0B2203AD2B20AE0E57866684D437519F7
:102660005E5D039D2E54401C491CC0B2C9B290420D
:10267000F2D905B0F0BD30B50446002085B02E2C4F
:1026800004D2102C15D26100012011E01378A3426E
:1026900011D85578A5420ED30022497A03E0521C86
:1026A0008000D2B2401C9142F9D8E21A4A4351004C
:1026B000884005B030BD0B46009201AA002120469B
:1026C000FFF775FF01A8FFF761FFF2E730B5044699
:1026D000002085B02E2C05D2103C102CE9D26100D0
:1026E000012012E01378A34211D85578A5420ED3E9
:1026F0000022497A03E0521C8000D2B2401C914271
:10270000F9D8E21A4A43510020398840D1E70B46F4
:10271000009201AA01212046FFF749FF01A8FFF717
:1027200035FFC6E730B50446002085B02E2C05D213
:10273000203C0E2CBDD26100012012E01378A34290
:1027400011D85578A5420ED30022497A03E0521CD5
:102750008000D2B2401C9142F9D8E21A4A4351009B
:1027600040398840A5E70B46009201AA0221204685
:10277000FFF71DFF01A8FFF709FF9AE770B50546AF
:102780000C46007AA9784018401E05F02CFE697AA4
:10279000064608462D3005F01CFE2E30A070E97864
:1027A00071434118491EE1702E212170401E607056
:1027B00070BD0000B893001010B501460120FFF76E
:1027C000D5FD10BD10B501460420FFF701FE10BD78
:1027D00010B501460120FFF7FBFD002010BD10B52C
:1027E00001460320FFF7F4FD002010BD7047FF49AC
:1027F00022200870FE49362008707047F3B5FD4C62
:102800008700FD4881B0C0596568A16806F0DCFB0F
:102810000090E16806F0D8FB0146009806F0CAF97E
:102820000646029806F0C0FA294606F077FC3146C3
:1028300006F010FC294606F0C7FB6060009806F021
:102840008FF904460D46304606F08AF90022EB4B1C
:1028500006F03CF822462B4606F04EF805F066FEE0
:10286000E549C851FEBDF3B58700E24CE24881B0AE
:102870002838C0592568A16806F0A6FB0090E168D9
:1028800006F0A2FB0146009806F094F9064602986D
:1028900006F08AFA294606F041FC314606F0DAFBDA
:1028A000294606F091FB2060009806F059F904468D
:1028B0000D46304606F054F90022D04B06F006F8DB
:1028C00022462B4606F018F805F030FECA49283992
:1028D000C851FEBDFFB581B0054603980A99076847
:1028E000049806680020085E06F05EFAC14C20607D
:1028F0000B990020085E06F057FA6060C048017826
:102900007F20C0050029029904D0CA05BD49A160F5
:10291000E06005E0CB05BC4A01218907A260E160C7
:10292000B54928314A5D002A15D028B239B205468A
:10293000FFF799FF31B22846FFF760FF206806F0E5
:10294000E9F903990860606806F0E4F90499086001
:10295000002005B0F0BD01224A55A74AA900283A37
:10296000505028325050384606F01EFA206030464B
:1029700006F01AFA6060E1E7FFB5A4491E4609783F
:10298000A34A4B00D15A8BB08C46089199188B887A
:10299000242148439F49069345180D981821695EE4
:1029A0000068149F0A1A00D5421A00921A22AA5EE1
:1029B00034689646121B01D57246A21A009CA418D0
:1029C0000C9AD20720D062465143604308186146F2
:1029D000091905F008FD0D9908601A20285E08996C
:1029E000484331686143401808991DE0643100286C
:1029F00000D5981A584364235A43801805F0F3FC15
:102A0000388000200FB0F0BD5943604308181919F1
:102A100005F0E9FC0D9908601A20285E06994843E4
:102A20003168614340180699091905F0DCFC3060F3
:102A300006220023AA5EFB5ED01A01D40146D5E728
:102A4000991AD3E7F3B5744885B00078002802D00E
:102A5000002007B0F0BD7148714CC27D0392007E2A
:102A60000290218D00911F21009805F0B2FC0746CD
:102A7000608D3321019005F0ACFC0646059867494E
:102A80000088039A05B20698008804B219200856F7
:102A900000994908002A29DDBD4204DAE81B5043A9
:102AA0008011C01911E0009A521BBA4208DAD11BFA
:102AB000039A009851438911C919401A143004E04F
:102AC0004A1B504305F08FFC401905B253491A20A8
:102AD00008565349029A498D4908002A26DDB44216
:102AE0000BDAA01B50438011801919E0BD42EDDBC9
:102AF000009AD21BAA42E3DAE8E7019A121BB2421B
:102B000008DA911B029A0198514389118919401AD8
:102B10000F3005E00A1B504305F065FC0019401D0D
:102B200004B2059805600698046091E7B442F8DBAA
:102B3000019A921BA242EDDAF3E7FFB589B01D4678
:102B400014460E46139F099806F02EF9029030465F
:102B500006F02AF90690204606F026F9019028464C
:102B600006F022F90590129806F01EF904903846F6
:102B700006F01AF90390BE4210DD1298001B06F011
:102B800013F90646781B06F00FF9314606F012F8E5
:102B90000546029906F05EFA06990FE00998201A98
:102BA00006F002F90746A81B06F0FEF8394606F0C3
:102BB00001F80546049906F04DFA039906F004FA67
:102BC00007462846019906F045FA059906F09AFA53
:102BD00006466800000E2CD00121284606F0F0F8C9
:102BE00004463146384606F099FA1BE05D010000C4
:102BF0005E010000BC010000701700000000F03F03
:102C00003E0100006666863F3333733F22010000B9
:102C10000C2D00007406000071010000D42C00008F
:102C2000BC020000214605F0C5FF06F073F80DB0A8
:102C3000F0BD2046FBE7F0B50E46054685B01446CC
:102C4000981B06F0B1F8049001900A992846684351
:102C500049430746C81B06F0A7F800900B98801B55
:102C600006F0A2F8039020466043381A06F09CF85C
:102C70000146039806F0EEF907460099019806F020
:102C8000E9F9394606F0A0F902900B98301A06F0DF
:102C90008BF80190601B06F087F806460A98049F9F
:102CA000401B06F081F80146384606F0D3F9054688
:102CB0003146019806F0CEF9294606F085F9012142
:102CC00006F07EF801464000000E05D0029805F09F
:102CD00071FF06F01FF83CE620463AE670B5002288
:102CE000049E059D069C002802D01F2807D00CE0FA
:102CF0000020305E002800DA32801A8005E00020D3
:102D0000185E002800DA1A803280002908D03329A2
:102D100005D10020285E002800DA2A80228070BDBC
:102D20000020205E002800DA22802A8070BDF0B5E5
:102D30009446FF4A0026FF4C55693346E756CA5C65
:102D40003F187F00EF5F5B1C5743BE195BB2042B3B
:102D5000F4DB4200AA5E0B795A4396190523E71863
:102D6000203F1F22BA5617187F00CA5CEF5F5B1C1A
:102D70005743BE195BB2092BF1DB6046064130B206
:102D8000F0BDFFB5064689B000200890EA481F460E
:102D9000017830460D4605F01CFB04466843301AA6
:102DA00085B2701E01900A99701C0090002921D0F4
:102DB000E04903228A56DE48921997B204228A56C5
:102DC000406991190B04019976000A04865FD20BC1
:102DD00007960099865A6A469681DA0B835A6A46A4
:102DE00013827A00835A09046A469382C90B405AB7
:102DF000108338E07A7A39463046FFF798FF07901B
:102E000001987A7A80B23946FFF791FF0146684609
:102E1000818100987A7A80B23946FFF788FF0146AF
:102E200068460183C4487A7A00783946301A80B2FD
:102E3000FFF77DFF014668468182BF487A7A0078B5
:102E40003946301880B2FFF772FF014668460182AA
:102E500006AA03A904A86E4607C605AB69B260B20C
:102E6000079AFFF73BFF0B98C0074CD06A46142126
:102E7000515E1020079B105E994203DD0B46814294
:102E800000DA0346AD4F99420FD183420DD1A00025
:102E9000C01941681298002C016004D0A84800783D
:102EA000401F844252D10120C1E6A64A927A002AEC
:102EB0000BD0A24AA600B2189768019000979F48CD
:102EC00052688059FFF7B7FE0AE09C4AA600B21884
:102ED000976801900097994852688059FFF72DFE36
:102EE0009949002801DA002002E0884200DB084608
:102EF0001299002C086004D091480078401F844249
:102F000001D1012008900B9880074DD568460C210F
:102F1000415E1822079B825E994203DD0B46914277
:102F200000DA13468548C030994211D193420FD13F
:102F3000A900081841681398002D016004D07E484C
:102F40000078801F854201D1022070E600206EE6E5
:102F50007C4CA47A002C09D0AC002618B7680097E6
:102F6000019200597268FFF766FE09E01746AC004F
:102F7000221896680197009652680059FFF7DDFD08
:102F80007249002801DA002002E0884200DB08468E
:102F90001399002D086004D067480078801F85428F
:102FA00002D10898801C0890089840E67CB50E462F
:102FB0002421154648436649654A095A82181D204E
:102FC000105630225043634AC9058418E08800290E
:102FD0000096019524DA604B01220021FFF7D1FE13
:102FE000002801DB012807D1009601950122E08825
:102FF000594B1146FFF7C5FE574B00960195E088E7
:103000000A3302220021FFF7BCFE002801DB022860
:103010001DD1514B009601950A33E088022213E03E
:103020004D4B03220A3B0021FFF7ABFE002805DBD6
:10303000012803D0022801D0032808D1464B00966E
:103040000195E0880A3B03220121FFF79AFE7CBD2F
:10305000F0B5ADB00020299001202690FEF758F978
:10306000002101700746851C41706846017241725B
:103070003A48007800287DD0394828903948002601
:103080002790304624214843314923900C5AFF2091
:1030900002300442009411D0600602D54820A043BB
:1030A0000CD16846017A27482B918078814206D35B
:1030B000224640200243264923980A5203E22A4826
:1030C000044209D0224923984018C07F4007800F4E
:1030D00002D026490020885525490C420ED01C48B4
:1030E000239920AA08181821415E21911A21415ED6
:1030F0002291C1889182807F269031E160056CD554
:10310000134823990C181D2020563021484311499B
:10311000401882790848019201782A91104624913A
:1031200005F057F92499019A4143511AC9B222E096
:1031300058060000550100005E010000C893001011
:103140005D010000102C000070620000769E0000FF
:103150007406000070030000DA95001024010000DE
:10316000682C0000DC0200004808000098170000EE
:103170000C0A00004FE200280AD0FA4A1278D21E48
:10318000904205D0002903D02A98C01E81420ED15A
:103190006169F548002908D00121009C89028C430F
:1031A00020210C432399445215E0012009E0F04A04
:1031B000EE49127860698918097DEB4B884202D28A
:1031C000401C60617FE10121009C89028C43202129
:1031D0000C4323995C5201202690E3482399081858
:1031E0001D210090415630204143E24808180A2131
:1031F0000190415EC8B22990E0050BD40198007B94
:10320000400707D4DA48DC4A007810182030807A6A
:10321000814242DC22AA21A93046FFF7C7FE2C904A
:1032200001990620085ED5492A900978249105F075
:10323000DAF8C2B224992A985143401AC1B22C98A4
:10324000002821DA0198007B400711D59000CC4A74
:103250008018279A4068527D104121908800C84903
:10326000C031401827994068897D0841229006E0C6
:1032700001982821415E21912A21415E2291E00599
:1032800012D5022026900FE02798417D2198084111
:1032900021902798817D2298E7E701982821415EB7
:1032A00021912A21415E229122A921A8FFF7CAFB80
:1032B0002198002801DA00202190B249219A088D36
:1032C000904201DC401E21902298002801DA002063
:1032D0002290488D2299884201DC401E229001985C
:1032E0004169A34800784200A048805E091A09118C
:1032F0004000081800B220A98882FF2800DDFF20C6
:10330000888200994969012917D000998A890A821F
:1033100000990A898A810099CA894A8200994A8952
:10332000CA810099219A4988511A009A11810099FD
:10333000229A8988511A009A51812199009A09B2DA
:103340005180229A009B12B29A80A30608D5009B56
:10335000198300994A830099C88000992698887734
:1033600081482399182208182390825E1A23C35E8D
:1033700021992298511A181A4943404308182A9053
:103380002698012816D17A497848097840182030C3
:1033900080792A99404388420CDB2398C07F022819
:1033A00001D0062806D1239821921A21415E0020DF
:1033B00022912A9000202490200701D510202490EB
:1033C000A00602D5042124983EE0239808210A2271
:1033D000415E825E881800D54042FF215F318842FD
:1033E00009DB23980C220E23825EC35ED01800D521
:1033F0004042884215DA25A8009022AB21AA214636
:103400003046FFF7B9FA239822AB014618311A303B
:103410000091019021AA21463046FFF75BFA032074
:1034200000E0142051490876289A107648765076A4
:103430004F48554900784000401800892A99404378
:10344000884203DC24980821084324904F4881785F
:10345000002958D145E0002200E0299A6B46197AEC
:103460000C23594309180A812499022211436B46FF
:103470001A7A0C235A4312189172E10501D50222DF
:1034800000E001226946097A0C2359430918CA72DF
:103490006946097A5943081806736946087A401C38
:1034A000087223992198088323992298488320A899
:1034B000818A2398C18023992698887724980221AD
:1034C00008432399C877761CF6B20F2E00D2D8E5B0
:1034D0002F49087900283CD02A4A0020138D02AADF
:1034E00033E02499490702D5C17900290BD02499EA
:1034F000C90602D5417A002905D024990907D0D5FB
:10350000007A0028CDD12B990C20414302A809183C
:10351000219A4A806A46127A0C235A431218229939
:10352000918020AA1421515E6A46127A5A431218D9
:10353000D180002991D18EE70C244443A4186688D9
:103540009E1B761E401C6680C0B26C46247A844264
:10355000F2D8487900282AD00A4A0020538D02AABE
:1035600021E000005D01000074060000842C0000D2
:103570002201000070030000482C00005E010000E2
:10358000C8930010BC0200000C2D0000C82C0000E5
:10359000102C00000C244443A418A6889E1B761E01
:1035A000401CA680C0B26C46247A8442F2D8C87807
:1035B00000280FD0002002AB08E00C214143C918BD
:1035C0004A888C884C80401C8A80C0B26946097A3F
:1035D0008142F2D8694600200A7A18E003460C219D
:1035E0004B4302A959184B882B808B886B80CB8862
:1035F000AB800B7AAB718B7AEB71CB7A2B72097B38
:1036000069723978401C491C3970C0B20A3582424F
:10361000E4D80020385E2DB0F0BD002800D1FEE7D0
:1036200070470000FCB534200190414836250078F1
:103630003E4F41003F480818408A6C01009000202E
:103640003B4E41003678CA190023B646760019462B
:10365000B44605E04E00965F002E00DDF3184919D0
:10366000A142F7DB00998B421ADB32496646761895
:10367000F6887144897B5E430E41B64600210DE019
:103680004B009C46D35E002B07DD7646734501DB7D
:103690009B1B00E00023664693534919A142EFDBD0
:1036A000401C0199C0B28842CAD3FCBD7047B9E73B
:1036B000F8B51E48009020208646362084461C48D7
:1036C0003424007841001B480818C78A002061464E
:1036D00041434A000099531800210A4655005D5F96
:1036E000002D00DD6918521CD2B2A242F6D3B942B5
:1036F00016DB0F4A0F4D16787200521952894A4351
:10370000A919097C0A4100214E009D5F002D03DDAF
:10371000954201DBAD1A9D53491CC9B2A142F3D3B6
:10372000401CC0B27045D2D3F8BD0000003C004040
:10373000220100002C2C0000FE48FD490160FE49DA
:10374000C160FE490161FE494161FE49C1618031AC
:103750008161FD49CA88028509894185202120307F
:10376000417434218174042141758175F7483621F3
:103770008180F74901607047F44AEE4806CA8260CA
:103780004160F449F44B09784A00D2189288828546
:10379000F24A1288C285F2484118E6488A792030F8
:1037A000C27409790175EF49097D01747047F0B55C
:1037B0001446E9B08E468446002230201546454323
:1037C00060462B18187BC00720D05E89570056A88A
:1037D000C65397003AA85E69C651D6000AAF9869E9
:1037E000BF19D96903C722A9186A8E195F6A81C6F1
:1037F00099785CA88154D97862A881546046415D6B
:103800005FA88154597865A8815403E000205300D3
:1038100056A9C852521CD2B20C2ACED371460020EF
:103820008A780CE08300714659184B7946AD5B1ECF
:103830002B5409794EAB491E1954401CC0B2824228
:10384000F0D800216EE04EAB46AD5E5C685CB446DD
:10385000B04265D0654656AB6D004600AE469F5BF4
:103860005D5B7F199F53002675465E533AAB6646F3
:103870008700B600DD599E59AD19DD51C3009E4643
:103880000AAD7544664628CDF6000AAFBF19049606
:10389000C0CF9E197D410AAF77443E607D6073467C
:1038A00022ADEB181F685D68049E22AB9B191E6851
:1038B0005B68BE195D41734622AFFB181E605D60F8
:1038C0005CAD63462E5CEB5C9E4200D22B5462AB37
:1038D00065461E5C5D5DAE4200D21D545FAB664620
:1038E0001D5C9E5DB54200D91E5465AB66461D5CED
:1038F0009E5DB54200D91E54481CC0B246AB4EAFC7
:103900000CE01E5C7D5CAE4201D15E5C1E543E5CF0
:10391000AE4201D15D5C3D54401CC0B28242F0D841
:10392000491CC9B28A428ED8002525808E48608005
:103930002846632656AB3AAA4100595A00290BD0B3
:103940002788B94201D9218006466788B94203D247
:10395000618081005158A160401CC0B20C28EBD39B
:10396000632E51D0B000175862A86760805DA073C5
:103970005CA8805D207365A8805DE0735FA8805DB2
:1039800060736C48FB1720300990407C3A4629460A
:10399000089304F064FC0290F00003910AA90690D9
:1039A0000918644E03C9328D2B4604F058FC039B62
:1039B000029A04F06CFC00B22082029000900998F8
:1039C0003A46807C2946089B04F049FC074607914B
:1039D000069822A9091803C9728D2B4604F03FFCF2
:1039E0003A46079B04F053FC01B26182009800281C
:1039F00001DA258205E0308D029A824201DB401E09
:103A00002082002902DA658269B0F0BD708D8142A2
:103A1000FADB401E6082F7E7F0B5544B00241D78B6
:103A20005E7827E02F19BF00FF187F798F421FD1E2
:103A30002C1964B2A500ED180626AE5F964200DA96
:103A4000EA80002C13DA9C781E2C10D2A400E41813
:103A5000E2809A789200D218107198788000C0188D
:103A600041715878401C58709878401C9870F0BD8F
:103A7000641CE4B2A642D5D8E5E770B530256943A9
:103A8000C46830396118048908255443E418CC808F
:103A90000024E4430C8101248C818A700A700A712D
:103AA000CB704B704B71455F5E0055436D004068B5
:103AB000AD19405F2E4D920052194861526805467B
:103AC0005543EA178D61CA619A002A4BD218526891
:103AD0005043C2174A6208624C8170BD00222349DC
:103AE000012803D0887808704A7070470A70FBE795
:103AF000F0B50446A9B000200C90207A2146203170
:103B00001D90887C0025821CD6B222681018C01C2B
:103B10002690606921902069119014488570487C36
:103B20002590887C24900F218901206824E00000E2
:103B300090280040BC02000070030000B0050000A7
:103B400004060000A7170000102C0000440100002C
:103B5000003C004022010000842C000026010000EF
:103B6000AC2C0000D42C00002F750000F4020000E3
:103B7000C893001088940010FCF702FD002081001B
:103B80002269401C55506269C0B255501528F6D3C1
:103B900000203021414300220C31E368401CC0B2B8
:103BA0005A520C28F5D3002097E11D9962684843CA
:103BB000400010182890119921981190219100200F
:103BC00001468300119A401CC0B2D1501528F8D389
:103BD000019926987143401E08182090002074E136
:103BE00020982E22401C20900298A25E4100289826
:103BF00009180020085E82427EDC029B219AD318BD
:103C00005A78002A78D11D9A3E2752000E928A1ABD
:103C10001546403DEF5F8742EEDC0025555F85424B
:103C2000EADC0225555F8542E6DC0A46403A3E253D
:103C3000555F8542E0DC02228A5E8242DCDC0122A2
:103C40009A700E9B3E275B181D46403DEF5F8742F2
:103C5000D2DC029F119DEA550E9D495F8142CBDC6B
:103C6000029D119949194A7002255D5F8542C3DCA6
:103C70008A700C980C287CD2401C2790C0B200900F
:103C80000C98E1683022504308180C9001200F90E6
:103C9000A16901980870E16902980870209900985C
:103CA000087000250098FFF719FF6F460ECF2046D9
:103CB000FFF7E3FE03E0802801DB0546F6E0A0699C
:103CC000415D1C91E069269B415D1F911C991D98E7
:103CD00048431F99420048006168101840181C9919
:103CE00032464A431F99591851180022825E6D1CB2
:103CF0000D922DB20E9A00E0E4E0821A94461392DF
:103D00000E9A8B1B1718821E801C1690481E149743
:103D100005901592604603938A19801E1790B81E6D
:103D2000049218906046801C1990581E491C0790F8
:103D3000BF1C501E5B1C521C0890069100201A9755
:103D400009930A9207462290B90003A840588C466E
:103D50000178002910D0009881420DD0624613A846
:103D600080580022825E0D98824200DD0246009853
:103D700000E0A3E0FFF750FE614613A84058002181
:103D8000415E0D98814208DD614603A840580178E4
:103D90000098814201D0012022907F1C7FB2082F21
:103DA000D2DB229800287DD1810003AA52581378D3
:103DB000002B74D113AB5B5800219C46595E2E2317
:103DC000E35E99426BDB0D9B994268DC00991170B0
:103DD000FE490A5C1C99511849B21B91A3690F9ABC
:103DE0009954FB490A5C1F9951184BB2E2690F992B
:103DF0009E4653540F996346491C09B20F910C9982
:103E0000002249699A5E8A180C994A611B99F14A05
:103E10008900891800229A5E49680C9F5143BB694A
:103E2000CA17FF69C9180C9B7A41DA619961734618
:103E30009900E94A0023891862464968D35E0C9FBD
:103E400059433B6ACA177F6AC9180C9B7A415A6268
:103E500019620C990C9A4989491C51810C990222CA
:103E60008A561B998A4201DA0C9A91700C990022A9
:103E70008A561B998A4201DD0C9A11700C99032213
:103E80008A567146724502DA0A460C99CA700C9934
:103E900001228A567146724501DD0C9A5170401C10
:103EA00040B200E002E0082800DA7DE70F98854282
:103EB00000D000E72798C0B20C9003E0259801904D
:103EC000249802900298401CC0B224990290884223
:103ED00000D285E60198401CC0B225990190884225
:103EE00000D262E6BD4ABE49E068FFF760FC0C986C
:103EF00029B0F0BD30B53024D3686043C018062423
:103F0000045F52686300D55E4B00D35EAB4202DBB8
:103F10000481C18030BD0824045F002C03DB6400F1
:103F2000125F9342F6DD018130BDF7B584460C4641
:103F300002983025C368614630206C434143A64651
:103F4000CA18E41850696569401950619069A669FA
:103F5000D569E76986197D419661D561106A266A3F
:103F6000556A676A86197D4116625562D089E5896E
:103F70004019D081108A258A40191082508965899C
:103F8000401950819089A589284390810020A08103
:103F90000220022510566557A84200DA95700325C5
:103FA000032055572056854200DAD07070465D5682
:103FB0001856854200DD58540121012051562056E3
:103FC000814200DD507006216046615EC0B2029AF7
:103FD000FFF790FF0821615E002904DB6046C0B254
:103FE000029AFFF787FFFEBDF7B586B006980C462C
:103FF000069A0021C56820327948059209E08A00B6
:10400000121813795B1E137153795B1E491C53718F
:10401000C9B282788A42F2D8B8E00020844610798A
:104020003021484340194389507948434019408919
:10403000181881B2042010568646052010560090AC
:10404000012031E0664A83009A18137930260293E2
:1040500073435B195E895379302701937B435B1966
:104060005B89F3189BB28B4208D219460423D356BE
:1040700084469E460523D356009313E08B4211D10C
:10408000029E574B76450DD1019F009EB74209D144
:104090000626965F62469200D2180623D35E9E42A1
:1040A00000DAD680401CC0B24D4A93788342C9D80A
:1040B0006046810010460F1804260520BE5738566A
:1040C0000090864257D006980621426830207043FF
:1040D0004019415E844648000099302359434919EC
:1040E0000623CB5E105E5B00D25E904200DD104680
:1040F000059AD27C42430598007D02410620385E35
:10410000824212DD604642690698808D82420CDD53
:104110004A69824209DD0A228A5E60460A21415EBE
:1041200005985118007C814225DB3146069A00989B
:10413000FFF7FBFE2A49641E8878E4B2800040182D
:104140000288BA804088F8808878401E8870009A7B
:104150000020D3B20BE0820052181779B74200D189
:1041600013715779B74200D15371401CC0B28A789D
:1041700082420BD9EFE71A488178890009180A882A
:10418000BA804988F9808178491E8170144A9078F4
:10419000002800D041E72746002613E0302078436E
:1041A00040190090007BC00708D109E0302070431F
:1041B0004019007BC00719D0761C76B20C2EF5DBB7
:1041C0007F1CFFB20C2FE9D300200BE02801000078
:1041D00030010000C893001088940010A80200006D
:1041E000F402000008990746086050E03020704350
:1041F000401930220099FCF725FA00200099761C1E
:10420000888176B2DCE7302078434619307BC007DE
:104210003BD0706900900290C0170190F169B069BD
:10422000019B009A04F033F8059A527D04F004F8DB
:1042300000B2308504900390716A306A019B009A45
:1042400004F025F8059A927D03F0F6FF01B271851E
:104250000398002801DA002005E00698049A008DF2
:10426000824201DB401E3085002901DA002004E093
:104270000698408D814201DB401E708508980168D8
:104280000298814201DA089908607F1CFFB2A742B8
:10429000B9D3204609B0F0BD584800218170491EAD
:1042A000C1700171417181710A21554A0E2301616A
:1042B000D380917353498A8902810A89428109888E
:1042C000818151490988C1817047F0B501460020BC
:1042D00001291FD00022494D4C4B4D4F2A701146E9
:1042E00024244C431E5BF6050ED5E6181D243457D6
:1042F00030267443E4190A26A65F042E04DC6469A0
:10430000642C01DC01200246491CC9B20F29E7D305
:104310002A70F0BDFFF7C0FF0020F0BDF0B5012806
:1043200017D036493B4E0B4605251C698F785D57E3
:1043300033480A2236780023641C002F0AD0012F4C
:104340002BD0022F05D10C61002D2EDB01208870AF
:104350000B61F0BD0C610624002D04DB01258D707E
:10436000C4808273F4E72C4B1B78002BF1D002231E
:10437000002E8B7004D01821C1808273428204E029
:10438000C480FF218273913141827D211D48C90083
:104390000161018821484181F0BD0B61002DFBDAEC
:1043A0008B700E21C1808273F0BD1C4C2579002DCD
:1043B000FAD1002E8B7003D01825C580827304E0DB
:1043C0000E25C5808273FF22913242820D480A89F0
:1043D00082814A8902818A8902800B4DCA892A809A
:1043E0000F4A02610F4A127880182030007A6081EB
:1043F0000D4A052010724B70F0BD0000CC0100008A
:104400002C2C0000482C0000842C000074060000B6
:1044100070030000230100003E0100005806000068
:10442000B80B000022010000002C0000F8B50024A9
:10443000F84F1D2625467601E0B23946FDF748F9CA
:1044400000228554521CB242FBDB641C042CF3DBBB
:10445000F8BD10B5FFF7EAFF3821EF4803F0B7FFCA
:10446000ED480121203081740022C27442758175AB
:10447000C175EA4868220281E94AEA4B127802745F
:104480003422427301730360E64BA03343604281E0
:10449000E54A1278C281E548017010BDF0B5C589C2
:1044A0006D4300221DE00189036851435E18418974
:1044B000436851435C1800210EE04B00F35E5B4300
:1044C000AB4201D9002304E0635C077C9F4201D921
:1044D0005B1C6354491CC9B2437B8B42EDD8521C10
:1044E000D2B2017B9142DED8F0BDF0B5D04885B0A4
:1044F000027A69460A7420220A730088002473260F
:10450000C44FC881B60121463420FCF7DBFFC10748
:10451000C90F0918CDB26946487331462046FDF7E8
:10452000D7F8009068006946088139462046FDF7B3
:10453000CFF8019069464D816846FFF7AFFF641CD4
:10454000E4B2042CDFD305B0F0BDB3480021203025
:10455000C1757047F0B5B74CB7482568B74B012215
:10456000854206DDA0897D21C900884201D95A70A3
:10457000F0BDA94800212030C17401750A27666882
:10458000E75FAF4CBC462778AE4CAD19E468002F0E
:1045900008D0002D03DAA64201DA012400E000244D
:1045A000C47410E0002D03DAA64201DA012400E011
:1045B0000024C474A44C24882D2C04D964463C2CBB
:1045C00001DAC27402E0C47C002C12D08175447DF3
:1045D000032C02D8641C44750DE0C47C002C04D06C
:1045E0005A7041759948027005E0984B19704175F1
:1045F00001E041758275964800790028B8D193484A
:104600000270F0BDFFB5934E8E46710C02910021F1
:104610008C460D4601910A46009104E08B007446D9
:10462000491CE250C9B2C37A8B42F7D8002436E065
:104630008188026861435118002303912AE0039A9C
:104640005F00D25FB24201DD164603E0029FBA422C
:1046500000DA0292C788974209DC614689188C46C5
:104660009F0071466D1CC9592DB28A180EE00827AB
:10467000C75F97420CDB019F7146BF180197009FEF
:104680007F1C3FB200979F00C9598A1A7146CA51D0
:104690005B1CDBB2C17A9942D1D8641CE4B2817A46
:1046A000A142C5D8C1684E81C26802991181C26811
:1046B00061461160C26801995160C1688D81C0680E
:1046C0000099C181FFBDF0B589B01F461446202373
:1046D0006A46937204AA03926A461181D080002030
:1046E000E0815C49A08161814A0C228160600546BD
:1046F0000646206003990020C88103998881039AA7
:1047000054495181039A490C1181039948600399D6
:10471000086029463420FCF7D5FE01466846C17280
:104720004D492846FCF7D4FF00906846C07AC1077F
:10473000C90F4018410068468180B000C119684621
:10474000FFF760FF6846C07A0A228019C6B2684641
:104750001A21A25E415E8A4200DA61810246082186
:104760001820615E105E814200DD2081E189D08BDE
:104770006D1C0818E081A189908BEDB20818A0810A
:1047800020680499401820606068059940186060AE
:10479000042DAFD309B0F0BD1FB5254A0221042076
:1047A0001E4B515E105E14336A46FFF78CFF69465C
:1047B0001EC920481EC0FFF7CDFE1FBDF0B5002268
:1047C00024E00421415E0368514359188C461421AA
:1047D000415E036951435C180C21415E836851437B
:1047E0005B1800210DE05D5C067EB54207D3002515
:1047F0005D544D006646675B765BBE1B6653491C85
:10480000C9B2C57D8D42EED8521CD2B2817D914293
:10481000D7D8F0BD202B000090080000A818000099
:1048200029960010705B00402A960010700100006D
:10483000002C0000C8080000A08601003809000014
:1048400022010000D42C0000A80200003F0100005B
:10485000580600000180FFFFF02300000FB4F0B500
:1048600087B01B991C9D06C91D9B8C1818A9097936
:104870000DAA89005450074618A90020097905247B
:104880000E1B76B2002E01DA0C3676B2B6009659BF
:104890003618601C081840B20C2801DB0C3840B2F6
:1048A00080001058301A641E2406240EE8D1491CDA
:1048B000C9B218AA11710C2901D300211171002D60
:1048C00031D17D21C900C84201DA012090716846CA
:1048D00083754648464D017A6846017621461E9802
:1048E000FCF7F0FD6946C875C107C90F4018C6B28C
:1048F00029462046FCF7ECFE00903E492046FCF796
:10490000E7FE04903C492046FCF7E2FE029070006E
:104910006946888088828E816846FFF74FFF641C55
:10492000E4B2042CDAD338220DA93846FBF78AFE0C
:1049300007B0F0BC08BC04B0184770B5049CDD0794
:1049400003D0002C01D05B1CDBB25A43002307E0EC
:104950009C005E000D59865FAD195B1C0D519BB22A
:104960009342F5D370BDFFB581B006460A9A0D4655
:104970000B98D10703D0002801D0521CD2B2534368
:104980001FB2002409E0A00030580399C00003F0D2
:104990002AFD6100641C685224B2BC42F3DBD2E5FC
:1049A000F0B5069C059D8C46002C1CD000240BE025
:1049B000115D994207D366006146875B895B791870
:1049C000815300211155641CAC42F1DB21E7115DDC
:1049D000994207D366006146875B895B791A8153E8
:1049E00000211155641CAC42F1DB12E7002C0000E1
:1049F000F023000090150000202B0000FE48FF4926
:104A000002888A804288CA8082880A81C2884A8154
:104A100002898A814089C88170473922F848514209
:104A200001708911417037218170C943C1703823E9
:104A30000371491C417101218171C271704730B508
:104A40000546F14AEF48002310601371581E50715B
:104A5000D36001201361107205209071EB48D3716F
:104A60000C460078EA4920182030007A508193766D
:104A700028880880E749002024224243401C8B52AA
:104A80000F28F9DBFFF7C9FFE3480560E34804603E
:104A9000FFF7B4FF30BDF0B50446E14887B00778B2
:104AA000E048DA490678D848774345696000285ECF
:104AB000059009784A00D9490968511804228A5E8C
:104AC00090427DDA3146204603F083FC701CC9B267
:104AD00084420BD07000821EA24207D03A1A531CA7
:104AE000A34203D0BB1B9B1EA34201D103230BE0B7
:104AF000A04206D8A24204DD012902D9B61EB14265
:104B000001DB052300E00823002007466946BC4A74
:104B1000125612195200AE5E42008E52002E00DA7A
:104B20008F52401CC0B20828F1D30598088200209B
:104B3000024601E010460AE045006E1802274C5F6D
:104B4000F75FBC4201DD4F537480401CC0B208289F
:104B5000F2D3521CD2B2082AECD3082B1ED0AB4899
:104B6000AE490078096880004418052B68463BD0A0
:104B70000C210A22415E825E102389180E22825E79
:104B8000C35E491CD0187D22D200504303F021FCA3
:104B9000216A814226D8012007B0F0BD08460021D5
:104BA0000222415E825E06238A180421415EC35EB2
:104BB000C81811180A2268460C23825EC35E00E002
:104BC00010E0D2180E231024C35E045F491C18198C
:104BD00010187D22D200504303F0FBFB9249096874
:104BE0008842D8D20020D7E706210822415E825EA3
:104BF0000E2389180A22825EC35E89180C22825E07
:104C0000491CD2181023C35ED0187D22D200504315
:104C100003F0DFFBA169BCE770B53021484383494D
:104C20004418834960690979002921D1764D0A2108
:104C3000695E81421CD87F4A0421515E814217D3AC
:104C400010460A212030615E807A814210DCE088C3
:104C5000FFF721FF00280BD00621615E686949003B
:104C6000405E0A21695E884202DB73480021C175FB
:104C700070BDFFB50022134669468B54521CD2B258
:104C80000F2AFAD3FF2600228436624C0127242300
:104C90005343E55A354203D01B1920331B78CF54B8
:104CA000521CD2B20F2AF2D300280BD009200A5C82
:104CB000002A04D0401E40B20028F8DA09E0C0B251
:104CC00004B0F0BD0A5C002AFAD0401CC0B20A2829
:104CD000F8D30020F4E7F1B54B49042008568AB018
:104CE00008900F287EDA002424204A496043085A9D
:104CF000002803D0641C64B20F2CF5DB0A98302125
:104D000048434A49062745184648EF5F0178384628
:104D1000009103F068FB46B200983C497043381A92
:104D200040B201903C48097800684A001318002EF0
:104D30000CDD3B480078401F864207DA01980028C6
:104D400004DD07460098801F874202DB0898002890
:104D500009D00420185E6F69874232D32A4E306929
:104D6000002804D006E00420185E4010F3E7334822
:104D7000006830610520305600280CDA20462421D6
:104D80004843244974712E4A0A52F079002807D109
:104D90000120F07104E0022224201E4960430A52DF
:104DA0000020FFF766FF24211A4A61438918203149
:104DB00008704B20C000874202D3B07E401CB07602
:104DC00082E01B480079002870D10F480A23C35E97
:104DD000BB426BD81148042300681218D35EBB4253
:104DE00064D300E08CE040180A222030AA5E807A6A
:104DF00082425BDCE88825E0842C0000E0010000B2
:104E000055010000CDAB341258060000220100000D
:104E10002601000074060000680100006C0100001B
:104E20005D0100005E010000380100007003000019
:104E3000C82C0000482C0000B00800000C2C00001A
:104E400001040000FFF727FE002856D0F84F062285
:104E5000AA5E79695200895E0A22BA5E91424CDBF1
:104E6000204624214843F349802206900A52F24802
:104E7000F34B0178F1488A000068121812691A6031
:104E80000122F04B002E1A700CDDEF4A1278921FAF
:104E9000964207DA019A002A04DDEC4B1B789B1F2F
:104EA0009A4204DB49000818818902E025E04900A4
:104EB000415A7981FFF749FB0120FFF7DAFEDD4A0D
:104EC000069989182031087024204443D9480A994A
:104ED00020184177012141610021018141818181B7
:104EE000C18101824182298D4180698D8180A98A99
:104EF000C180CF480179491C01710A98FFF78CFEE7
:104F00000BB0F0BDF0B52421CA4A4843841861694A
:104F10003023491C61610021C9436177115A9943CB
:104F20000123DB02194382230E461E40C04B11525F
:104F30001D796D1E6DB2002E03D0002111521D711E
:104F4000F0BD8126B600314220D0217FBA4F491CE6
:104F5000C9B22177BE4C3F782468E419247EA1426F
:104F6000EEDB115AB14311524C0609D50021115202
:104F70001D711A2018560028E2DD401E9876F0BDFB
:104F80000824214311520220D871F0BDCD0701231E
:104F9000002D01D0042503E0CD05F6D501256D02D5
:104FA000294311522377F0BDF1B594B0149C24200D
:104FB000A0494443085B83221201904308538207AF
:104FC0009B4B08900520185611901846C0790F90F9
:104FD000042018561090401E40B20E901A20185609
:104FE0001390401E40B2129008462518002A33DA6A
:104FF0001D20285630225043964A80184269184690
:105000001823C35E9A4221DB6A69521C6A61119BB4
:10501000002B12DB83799A420DD30A5B02239A4359
:1050200021231A430A538C4A642111700F990029D5
:1050300001D10121C17115B0F0BD0A5B02239A4371
:10504000864B1A430A5314994171EFE700220A5321
:10505000E8E012998176EEE7089801067648037831
:105060007648059300685A000D90101807900D9827
:10507000C01820300B9076480068069017187248C8
:105080000078801F0490714806780096B61F0029AA
:105090007DDA1D216956302041436E4809180620EB
:1050A0000E91085E0290009903F09DF941B2009ABA
:1050B00002984A43801A42B25D4B0A20185E0029CA
:1050C00006DD049B994203DA002A01DDB24205DBCA
:1050D0001099012902D107990C20085E0E9B042229
:1050E000BA5E5B6953498027834238DB0798042600
:1050F000865FB34233DC0E980A26865F0B98807A6F
:1051000086422CDC6A694A48521C6A61059BC56864
:105110009E000D9BF318DB6A9D4207D2504B1B7813
:10512000002B06D04F4B9B89322B02D20B9B9B7DD1
:1051300001E00B9B1B7D93428DD80A5BFF23BA4392
:1051400021331A430A530F99002901D10121C1715A
:105150001098012800D06EE700203F490AE19342F1
:1051600019DB0898324AB8430853119B002B0FDA19
:10517000149B5371394B184308530120364B64215B
:10518000686119700F990029E5D1D07153E705E0E6
:10519000022210430853012068614CE7089949072F
:1051A0006AD568691D21401C6861695630204143F9
:1051B0002848091806200791085E0290009903F01C
:1051C00012F941B2009A02984A43801A40B200296B
:1051D00006DD049A914203DA002801DDB04202DBC9
:1051E0000C21795E01E00821795E079A1148526925
:1051F0008A4204DB025B04218A4302531BE7297FB6
:10520000491CC9B22977059B069AD218127E914291
:10521000A1DB015B0422914301534A0625D50021FD
:10522000015303480E990171139900291CDD10E701
:105230005806000074060000220100006C01000006
:10524000380100003D0100005D0100005E0100002A
:1052500068010000700300003C0100000104000030
:1052600054010000C8080000E5E60822114301537C
:10527000FC490220C871DEE60899890544D56869B1
:105280001D21401C6861695630204143F6480627BD
:1052900008180390C75F0099384603F0A4F841B29C
:1052A00000984843381A40B2002906DD049A91421A
:1052B00003DA002801DDB04203DB07980C21415ED0
:1052C00002E007980821415E039AE84852698A4241
:1052D00005DB015B0122520291430153ABE6297FBA
:1052E000491CC9B229770B9A127E914286D3015B81
:1052F00001225202914301534A06B6D500210153BF
:10530000D8480E99017196E60899C90734D06869A2
:105310001D21401C6861695630204143D24809185C
:1053200006200591085E0290009903F05CF841B2F6
:10533000009A02984A43801A40B2002906DD049A76
:10534000914203DA002801DDB04202DB0C21795ED4
:1053500001E00821795E059AC44852698A4202DA5E
:10536000015B04228AE00420385E40008242B5DC02
:10537000BF49012008705EE60899C905AED5686985
:105380001D21401C6861695630204143B648091808
:105390000620085E0290009903F025F841B2009AB9
:1053A00002984A43801A8C4640B2002909DD0499CC
:1053B0008C4506DA002804DDB04202DA1099012992
:1053C00003DD079A0C21515E02E0079A0821515E25
:1053D000109A022A0DDBA74A1278002A09D1002868
:1053E00001DDB04205DBA14A4823125B1A439F4B03
:1053F0001A531D22AA5630235A439B4BD2180A2314
:105400000592D35E0B9A927A521C934228DD614634
:10541000002906DD049A944503DA002801DDB04234
:1054200002DB0C21795E01E00821795E059A8F4844
:1054300052698A4214DB035BFF2201329343035318
:10544000119E884A012E08DC149B537101230353DB
:105450000F98002804D1D37102E0022213430353B2
:105460001D22AA5630235A437F4B8048D2185269D6
:105470008A4200DBDFE5015B012252021143015346
:1054800001202877D7E5F0B500207849ADB0044673
:10549000242242438B5A1D073DD55D061AD50825A7
:1054A000AB438B526F4F0522BA56824233D1002252
:1054B000D2437A710022482624235343CB5ADD0776
:1054C00003D0334201D17A7125E0521C52B20F2A27
:1054D000F2DB20E0634E8C523279521E32711A2276
:1054E000B256002A01DD521EB2760522B256824221
:1054F00011D10022D24372710022242513466B433E
:10550000CB5ADD0703D01B0701D4727103E0521C94
:1055100052B20F2AF1DB401C40B20F28B8DB5648CC
:10552000037856485D000268A818408BD4184043A1
:10553000224609902032937800205B439E461379DF
:105540005B0006931378A27F002119AC215424211B
:10555000464C4143091908254D5F4E88AC465543DA
:105560001D41AE1945001DAF7E530A268E5F898806
:10557000374656431E41711825AE715365466D433B
:105580007F43E91975466943069D29418600401C01
:105590000AAD40B2A9510F28D6DB3248042141564A
:1055A0003748007881426EDD00253020294641438E
:1055B0002D480A1890898446C0073CD00020C0437B
:1055C0000021039019AB5B5C002B21D124234B43BA
:1055D000E35A002B1CD04B001DAE178DF65ABE1B94
:1055E00036B2B64625AF568DFB5AF31A1BB2764635
:1055F00076435B43F718039BBB4209D9099B9F4243
:1056000004D98E000AAB9B59BB4201D308460397CD
:10561000491C49B20F29D5DB00280CDB242141436A
:1056200009194D77012119AB195461460223194319
:105630009181FFF7B9FC6D1C6DB20C2DB5DB002517
:1056400019AE705D002807D124206843205A002835
:1056500002D02846FFF756FC6D1C6DB20F2DF0DB13
:105660002DB0F0BD58060000700300007406000065
:105670003D0100003E010000220100006801000021
:105680004C010000FFE700252846242148438446BA
:10569000205A00284AD00021C9438E46002019AA6A
:1056A000125C002A27D1302302465A43FD4BD21800
:1056B000137B9B079B0F012B1DD1178D6B001DAE1C
:1056C0000693F65ABE1B33B20093069B578D25AE48
:1056D000F25A009BBA1A12B25B4352439A1896458B
:1056E00009D9099B9A4204D9AE000AAB9B5993424F
:1056F00001D396460146401C40B20C28CFDB00295E
:1057000011DB604600194177012219A8425430206C
:105710004143E448022208188189114381812846C7
:10572000FFF742FC02E02846FFF7ECFB6D1C6DB270
:105730000F2DA9DB94E7F8B5844652435B43D0189C
:105740008611370938098646002237E0104624239F
:10575000584363461B5CDB072ED06346C318082002
:105760000C25185E5D5F441B00D52C1A1020185EB6
:105770000090281A01D50098401B201800900A209C
:105780000E25185E5D5F441B00D52C1A1220185E92
:105790002B1A00D5431BE018009B40435B431818AD
:1057A000B04201D30120F8BDB84201D30420F8BDB6
:1057B000704501D31020F8BD521CD2B28A42C5D325
:1057C0000020F8BD70B5B84A506111831169B7481F
:1057D00000290CD04378C918B54B1B68994206D2F2
:1057E000B449B54B09681B78C918897D9171038943
:1057F000C2880F21B148FFF79EFFB149002803D0AE
:105800004869401C486102E08869401C88614B6916
:105810000020AC4A002B02D00123137048618B6931
:105820001E2B01D910708861FFF72DFE9D4D0024BD
:10583000302060434019007B8007800F012802D18F
:105840002046FFF748FA641C64B20C2CF0DB70BDF4
:10585000F0B591B03C21684602F0B9FD002320204C
:105860000F9034208646984A944813701946242491
:105870004C43045BE40502D51478641C1470491C85
:1058800049B20F29F3DB002124224A43845CE40758
:1058900034D012181D25555730225543814A9C009B
:1058A000AE1877786A461755F778A2185770BC4635
:1058B0007C4F7D5D9570B678D6700F9F7F1FBE427E
:1058C00001DA761D01E00F9E761ED6707646B61E72
:1058D0006746B44501DABE1C01E07646761E6F4687
:1058E0005670042D01D2002500E06D1F95703A5DC1
:1058F000002A00D0921E5B1C3A55DBB2491C49B20B
:105900000F29C1DB6F490978002942D000212422E8
:105910004A43845AE50530D500242BE015181D268E
:10592000AE5730256E435F4D02277519AE46EF57CF
:10593000B446A5006E460F95AD19EE78B74217DC58
:10594000584E6746F657AF78BE4211DB77460326BE
:10595000BE576D78AE420BDC3D460127EF570F9DD9
:105960006E46755DAF4203DB855A48263543855246
:10597000641C64B29C42D1DB07E0240605D50024F8
:105980008452494A1479641E1471491C49B20F2982
:10599000BDDB11B065E644480179002909D1C07921
:1059A000022806D149480078642802D348480121DA
:1059B000C1757047F0B5424E00203278242103466D
:1059C0004B433E49FF24CD5A023425422ED059186C
:1059D0001D228A563021334C4A4311198F78A25C1C
:1059E0004C78BA1ACF78521C3C1B641C52B264B279
:1059F000524364431219462A0FDB2B4A06240C5FDC
:105A000052696400125F782A07DA0A228A5E022A43
:105A100003DB2A4948221543CD52274A2D491278E3
:105A2000891820310A7A20494A810122401C40B25B
:105A30000F28C3DB327014E6F0B520490020242281
:105A4000044654430E5BFF220232164225D06218F0
:105A50001D23D3563022134D53435A199778EB5CCC
:105A60005578FB1AD7785B1C7D1B5BB26D1C5B43C2
:105A70006DB2052B11DA6D430A2D0EDB0A4B06259C
:105A8000555F5B696D005B5FC82B06DA0A23D35E46
:105A9000022B02DB482216430E53401C40B20F2853
:105AA000CDDBDEE57003000058060000102C00007E
:105AB0000C2C0000680100002201000074060000A8
:105AC000E001000054010000410100003C01000021
:105AD000B0080000482C0000F0B5C548C549008852
:105AE000002284460A20085E01268646C24BC3492E
:105AF00010464825242714467C430C5B27050CD40C
:105B0000002C0AD02C4208D16746462F04D3744695
:105B1000642C01DD1E7000E01870521C52B20F2A76
:105B2000E8DBB74A1479B74A002C12D01B78002B57
:105B30000ED05080B44E002224235343CC5AE707A2
:105B400002D02C43CC52B054521C52B20F2AF3DB79
:105B500087E51C78002C0AD05488641CA4B25480B9
:105B6000142CE7D950801870A848467079E5508009
:105B700077E5FEB5A24804240457002C1AD002DDB4
:105B8000A349002008809B4800250A218689415EA0
:105B90000768009124212A464A43984938468A5A80
:105BA000002A7DD048210A427AD131002CD002F05F
:105BB00010FC2AE0924AD0790228E4D195490023CA
:105BC0000878954D401CC0B208702B7064280ED325
:105BD0009248934E0569356064250D7091490978A6
:105BE00040182030007A50818F490120C875884ABA
:105BF0001088401C81B28D48118000888842C2D82C
:105C000010808B480370BEE7002088494A88824292
:105C100079D98879B04276D28A880098904272DA2F
:105C20008348007800286CD1764812220021102386
:105C3000825EC35E7D489446C07986466F482422C2
:105C40004A43875AFD0754D0012C4CD1794D2D88F9
:105C50000295002D0BD113181D255D5730235D4390
:105C6000754BED1828232A26AE5FEB5EB446151857
:105C70001D26AE5730256E436F4D76192825755F6A
:105C800001952A25755F0095019D5D1B01D5019D3C
:105C9000ED1A754524DA009D6646751B03D500E0B4
:105CA0004DE0009DAD1B75451ADA029D614E6D1CDD
:105CB000ADB2358000955D4D2E89009DAE4212D863
:105CC0005B4E01253570524E00253580594E35808A
