:10000000F03F00001500001000000000000000009C
:10001000002070477CB51B48292149060862012051
:1000200008600020486138200863092088600F209C
:100030000861002008613F20C861FE20C8600420DC
:10004000486000BF00BF00BF00BFFFF7E1FF0646EA
:100050000D4840680090002001900B4D002405E001
:10006000A0002858A100019A5050641C282CF7D3F6
:100070000021009848600098804700BF00BF00BF83
:1000800000BF7CBDA07F0000000400100000000045
:100090000000000000000000000000000000000060
:1000A0000000000000000000000000000000000050
:1000B0000000000000000000000000000000000040
:1000C0000000000000000000000000000000000030
:1002C000000300000000000000000000000000002B
:1002D0000003000000B900000003000000B90000A6
:1002E00000C0000000040000010001001101110124
:1002F0000101424C414445336100000001001100FE
:1003000000000000000000000000000000000000ED
:1003100000000000000000000000000000000000DD
:1003200000000000000000000000000000000000CD
:1003300000000000000000000000000000000000BD
:1003400000000000000000000000000000000000AD
:10035000000000000000000000000000000000009D
:10036000000000000000000000000000000000008D
:10037000000000000000000000000000000000007D
:10038000000000000000000000000000000000006D
:10039000000000000000000000000000000000005D
:1003A000000000000000000000000000000000004D
:1003B000000000000000000000000000000000003D
:1003C000000000000000000000000000000000002D
:1003D000000000000000000000000000000000001D
:1003E000000000000000000000000000000000000D
:1003F00000000000000000000000000000000000FD
:10040000F03F0000372E0010000000000000000048
:1004100000000000000000000000000000000000DC
:1004200000000000000000000000000000000000CC
:100430000000000000000000F1050010EF9E001019
:10044000132B0010352E0010352E0010352E001005
:10045000352E00100B85001009850010F1190010D1
:10046000352E0010352E0010352E0010352E0010C0
:10047000352E0010870D0010131A0010351A0010C9
:10048000571A0010352E0010352E0010352E001092
:10049000352E0010352E0010352E0010352E001090
:1004A000352E0010352E0010352E0010352E001080
:1004B000352E0010352E0010352E0010352E001070
:1004C00003B40148019001BDC100000003B401481C
:1004D000019001BD013D000000F002F800F040F87D
:1004E0000CA030C8083824182D18A246671EAB4649
:1004F00054465D46AC4201D100F032F87E460F3ED4
:100500000FCCB6460126334200D0FB1AA246AB46BA
:1005100033431847C8C9000028CA0000103A02D364
:1005200078C878C1FAD8520701D330C830C101D594
:1005300004680C607047000000230024002500269A
:10054000103A01D378C1FBD8520700D330C100D58F
:100550000B6070471FB5C046C0461FBD10B510BD2B
:100560000BF030FA1146FFF7F5FF02F087FC0BF0B5
:1005700048FA03B4FFF7F2FF03BC02F0A4FC00004A
:10058000FCB40022002300240025002600270629B1
:1005900002D4FCC00639FAE7002902D004C00139B0
:1005A000FAE7FCBC7047000002B472B60178013172
:1005B000017062B60139080002BC704702B472B61D
:1005C00001780139017062B6080002BC7047000072
:1005D00062B6704772B670471C3880F3098870475E
:1005E000014802490160704704ED00E0000000107E
:1005F000114B1968114A1268914216D0EFF3098025
:1006000020380860F0C044464D4656465F46F0C06C
:100610001A6010681030F0C8A046A946B246BB4622
:100620002038F0C8103080F30988054B002018707E
:1006300004204042004700001C0300001803000093
:100640000B03000070B505460C46164602E00FCCC1
:100650000FC5103E102EFAD2082E02D303CC03C5CC
:10066000083E042E07D301CC01C5361F03E02178D4
:100670002970641C6D1C761EF9D270BD10B503463E
:1006800000201A460121890700E089089142FCD820
:1006900008E04418944203D8141A621A4C00201837
:1006A000400889080029F4D110BDFFB585B0074680
:1006B0000D461C4600200190802F06D08B2F0DD0B8
:1006C000A02F2FD0A22F35D124E0002D05D101205D
:1006D000800701906000694688812CE0042D18D1C4
:1006E000E007C00F0019C01C4000FB4940180190F2
:1006F00001988007800F002804D00198C01C800852
:1007000080000190E007C00F0019801C400069467E
:10071000888110E0052D04D1F04801906000694601
:10072000888108E0062D04D1ED48019060006946FB
:10073000888100E000BF00BF019800281CD0E94E6E
:100740002420708000207060472030700820707076
:10075000E448083002900221684681746100C1813A
:100760004474694607980874002101A802F09AFAB7
:100770000021012002F040F909B0F0BDFFB583B0BF
:100780001C460E9D02950D9D01950F9D0095109D97
:10079000ED07ED0F002D7AD00626109D3540002D77
:1007A00050D000204AE04600039DAE5B4700049D08
:1007B000ED5FED10751B29B24500535F99421EDDB8
:1007C0000226109D3540002D06D045005153CD1A0C
:1007D0002DB24600A55330E04500555F019E75439C
:1007E000029E4E43AE19009D2E4135B246009553F0
:1007F0004500555BED1A2DB24600A5531DE00426B9
:10080000109D3540002D06D045005153CD1A2DB214
:100810004600A55311E04500555F019E7543029EB9
:100820004E43AE19009D2E4135B24600955345000A
:10083000555BED1A2DB24600A553401C0C9DA842F5
:10084000B1DB9DE000201DE04600039DAE5B47004C
:10085000049DED5FED10751B29B24500535F450007
:10086000555F019E7543029E4E43AE19009D2E4179
:1008700035B2460095534500555BED1A2DB2460042
:10088000A553401C0C9DA842DEDB79E0FFE706265D
:10089000109D3540002D50D000204AE04600049DB8
:1008A000AD5FEE104700039DED5B751B29B245005F
:1008B000535F99421EDD0226109D3540002D06D063
:1008C00045005153CD1A2DB24600A55330E04500E6
:1008D000555F019E7543029E4E43AE19009D2E4109
:1008E00035B2460095534500555BED1A2DB24600D2
:1008F000A5531DE00426109D3540002D06D045006F
:100900005153CD1A2DB24600A55311E04500555F55
:10091000019E7543029E4E43AE19009D2E4135B295
:10092000460095534500555BED1A2DB24600A55380
:10093000401C0C9DA842B1DB22E000201DE04600D7
:10094000049DAD5FEE104700039DED5B751B29B262
:100950004500535F4500555F019E7543029E4E431F
:10096000AE19009D2E4135B2460095534500555BAA
:10097000ED1A2DB24600A553401C0C9DA842DEDBAB
:1009800007B0F0BDFFB583B01C460E9D02950D9DCE
:1009900001950F9D0095109DED07ED0F002D7AD06C
:1009A0000626109D3540002D50D000204AE046001C
:1009B000039DAE5B8700049DED59ED10751B29B2B8
:1009C0004500535F99421EDD0226109D3540002DE3
:1009D00006D045005153CD1A2DB24600A55330E044
:1009E0004500555F019E7543029E4E43AE19009D22
:1009F0002E4135B2460095534500555BED1A2DB298
:100A00004600A5531DE00426109D3540002D06D05C
:100A100045005153CD1A2DB24600A55311E04500B3
:100A2000555F019E7543029E4E43AE19009D2E41B7
:100A300035B2460095534500555BED1A2DB2460080
:100A4000A553401C0C9DA842B1DBA6E000201DE090
:100A50004600039DAE5B8700049DED59ED10751BAC
:100A600029B24500535F4500555F019E7543029EC4
:100A70004E43AE19009D2E4135B2460095534500B8
:100A8000555BED1A2DB24600A553401C0C9DA842A3
:100A9000DEDB82E0FFE70626109D3540002D59D0B1
:100AA000002053E08600049DAD59EE104700039DE1
:100AB000ED5B751B29B24500535F994227DD022685
:100AC000109D3540002D0FD045005153CD1A2DB249
:100AD0004600A55339E00000903B0040905900408B
:100AE000705B0040005D00404500555F019E75430E
:100AF000029E4E43AE19009D2E4135B246009553DD
:100B00004500555BED1A2DB24600A5531DE00426A5
:100B1000109D3540002D06D045005153CD1A2DB201
:100B20004600A55311E04500555F019E7543029EA6
:100B30004E43AE19009D2E4135B2460095534500F7
:100B4000555BED1A2DB24600A553401C0C9DA842E2
:100B5000A8DB22E000201DE08600049DAD59EE10C8
:100B60004700039DED5B751B29B24500535F4500AF
:100B7000555F019E7543029E4E43AE19009D2E4166
:100B800035B2460095534500555BED1A2DB246002F
:100B9000A553401C0C9DA842DEDB07B0F0BD000051
:100BA000012110B549034804FFF7EAFC124900206F
:100BB000087048708870114A01211170104908802E
:100BC000104908801049087010BD10B5FFF7E8FF04
:100BD0000E4800218175018304F01DFF04F086F8A2
:100BE00000F007FE0A490B4805F024FC02F09DFACC
:100BF00004F02EFE10BD0000010200002F020000D4
:100C0000B80300005202000065020000F00B000073
:100C1000483A0000843A000010B5044600206064A1
:100C200022466032A0649070D07001229207E26187
:100C30005B4A62635B4AA2635A4A34230832E26326
:100C400022464032137020235370E0641082012248
:100C500062651023952213552061002901D000F010
:100C6000CCFD51484078208310BD10B54F4C002179
:100C7000207808F0C9FC002802D0002003F038FFDB
:100C8000207808F073FD012010BD10B5112806D0A2
:100C9000122803D14649082001F0AEFE10BD444998
:100CA0000420F9E7C00601D50120704700207047F5
:100CB000404800F054FE00F08BFF3F48007809F0F8
:100CC00055F909F07FFA0021084608F0B7FB374CC8
:100CD000012120703648FFF79FFF0021084608F0E9
:100CE000ADFB60700121084608F0A8FB33492E4D8A
:100CF000087069780C2001F019FD2D4C304E6034DD
:100D00002B4800F0F1F80020305E002802DB00F0F4
:100D100029FDF5E7A078002801D009F03AFD2878F0
:100D2000FFF7C0FF00280ED1687800280BD02048BC
:100D30008030407D0009000110280CD0802810D0A0
:100D4000002003F0D5FE2878FFF79FFFFFF78DFF07
:100D50000028FBD0D4E780221021154800F022F9AA
:100D6000F1E76078002804D0114800F0A2FB0020D1
:100D700060700F4800F042F91249042008561249E9
:100D800009F098F9DFE710B508F0DCFA07480078B9
:100D900008F01AFD0D490F20C86208F0D8FA10BDFE
:100DA000E0230040005D0040103A000066020000B1
:100DB000700B0000903700401DC2001000020000C0
:100DC0006A02000078080000B43A00008000005277
:100DD000F8B5484E074601254749357078204870D8
:100DE0004648474CC57005702168FF20887220680E
:100DF0004021C0680AF003F80020424964223B0009
:100E00000AF063FE08050B15181414141F1408616A
:100E1000486188610862486211E008614861886140
:100E20000862486288622168FA204880F8BD20681C
:100E30004280F8BD08610862486148628861886242
:100E4000F5E70861486188610862486288627570E8
:100E50003070F8BDF8B504468034618B2A4B264DBE
:100E6000CA1A04270026994215D005DC274A89189A
:100E70001AD0012935D109E0012A22D00B2A30D11C
:100E80000021C943012001F03DFF2AE07D2000013F
:100E900002F036F925E0A08B062822D80820287019
:100EA0001449A08B48801CE000F038F92873FF211A
:100EB000532000064160076241628662C662016398
:100EC0000FE0012129736030417011480170114811
:100ED0001E2101804180FA218180C18007754775FC
:100EE0002E7066830120F8BD10B5FFF7B3FF012017
:100EF00010BD000068020000103A0000C83A00006F
:100F0000702200004000005204080000FFF7FFFFBD
:100F100065020000843A000053200006816AFC222A
:100F20001143816204F077FD03F0E0FE00F061FC04
:100F30001549164805F07EFA02F0F7F804F088FC2F
:100F400008F0CEF809F0ACFB114C124D124E1349CB
:100F5000207808F059FB002802D0002003F0C8FDDB
:100F6000207808F003FC0E4800F082F80746287845
:100F700008F004FC30780028E9D1002FE7D00021E8
:100F8000022001F039FDE2E7483A0000843A00000F
:100F90006702000000020000103A000080969800EE
:100FA000700B000010B5034680331C465A750902C9
:100FB0002B4B1143CA1A99421AD00ADC294A891AC2
:100FC00011D001225203891A0DD02748C14205D100
:100FD00007E0FF2A05D0FF3AFD2A04D0002003F0E5
:100FE00087FD012010BD00F0BCF881206075F8E796
:100FF0001E4841780B2001F099FBF2E710B504463A
:101000008030407D81280AD083280ED084281BD0D0
:10101000852807D0002003F06BFD012010BD83223E
:10102000812119E08022852116E0204600F0FDF89C
:10103000E06C012802D9842283210DE00B490B20AA
:10104000497801F073FBE8E7204600F0EEF8E06C29
:101050000028E2D1832284212046FFF7A3FFDCE7AA
:101060008483000080100000FDAEFFFF103A0000F6
:10107000F1B503F0F4FD03F059FE224D3423287836
:1010800020220421FFF711FB1F4804F00BF81F4C2E
:10109000014620701E4A1C4804F082FA20701A484B
:1010A0002C21415E406806F077FD07F011F902F04F
:1010B000E9FF18490A68521C0A6017490A78002A91
:1010C0001ED000240C7000F091FB811C0022102324
:1010D000047012260DE00C804C808C808C714A725A
:1010E0000B72CF793743CF7107780A317F1C0770B5
:1010F000521CAF789742EED84470009900788C6407
:10110000F8BD0000103A0000CC0300003C020000D3
:10111000400200000C3A00006402000010B50120FB
:10112000FF23532109064B6004220A624B6200220E
:101130008A62CA620B630A62FD244C604C6202241C
:10114000CC608C618A62CA620B638C68CB620A6372
:10115000896810BD10B50321052001F0E7FA0120D0
:1011600010BD10B504460321052001F0DFFA20462A
:1011700000F09FF9002060346070012010BD012054
:10118000704710B50321052001F0D0FA012010BDF1
:1011900010B5084608F0F2FA10BD7047F0B5FE4EE3
:1011A000FE49002002465300521CF45AD2B2CC52DF
:1011B000342AF8D300225300CB5E521C1818D2B246
:1011C000342AF8D300221EE0002A1CD0332A11D082
:1011D00053009C46CC5E5F183B46403B3E255D5F1E
:1011E0003B460227DF5F3B469C4219DDAC4219DDDE
:1011F000234618E0662464250F5F6B5E9F4200DD86
:101200003B46335307E000230224CB5E0C5FA3422E
:1012100000DC23463380521CD2B2342AD4D3F0BD32
:101220009D4200DD2B466446EBE7F0B505469DB0D8
:101230000321052001F07AFAD94C207808F096FABB
:1012400009F0F9F86421207808F0DEF9002802D0CE
:10125000002003F04DFC207808F088FA08F095FE95
:10126000002835D009F098F86421207808F0CCF9EE
:10127000002802D0002003F03BFC207808F076FA2A
:1012800009F017F96421207808F0BEF9002802D08F
:10129000002003F02DFC0321062001F047FA2E4622
:1012A000C04C40363378207828220021FFF7FDF922
:1012B0003378207801220521FFF7F7F908F065FE61
:1012C000002808D000F057FD2078862806D00BE0D3
:1012D00009F021F8C8E700F03BFDF5E700F06BFDF1
:1012E0000021012001F088FBAF486421007808F05C
:1012F0008BF9002802D0002003F0FAFBAC49AB4880
:101300000B780221C61832797156C05600F046FD9E
:1013100020788A2805D100F059FD0021012001F034
:101320006BFB04F022FDA348A349A44A0078097886
:1013300012780291984B9949032734260192039021
:10134000A03304970096944AA0319448FFF71AFB03
:10135000FFF724FF9A4908609A4804F082FB9A48F4
:10136000007900280DD101200390042197480297AD
:101370000096019103788948954A8749A03004F086
:10138000BCFF9448007800283AD007F0A0FE2078EF
:10139000342301220621FFF788F904F0B7FB8E48B9
:1013A000817D00291BD0C07D002818D086488B4A3B
:1013B00000790B9220210CAB43C387492C221439AE
:1013C0006846FFF73FF9844820380EC80FA804F09C
:1013D00055FD814838220FA92038FFF733F900F076
:1013E000FFFC7F4801782846FFF7D2FE00212846FF
:1013F000FFF7D3FE686C401C686401201DB0F0BD8F
:10140000784807F0F6FE774807F04EFFBFE7FFB5D4
:1014100081B0002421460A9800F0C2FAC107C90F22
:101420000818049EC0B246432046019900F0BEFB56
:1014300000902046029900F0B9FB0746002509E01C
:101440000098A90040580399C00009F0E4FC690025
:1014500078526D1CB542F3DB641CE4B2042CD9D382
:1014600005B0F0BDFFB581B000242146049800F01E
:1014700097FAC107C90F0818C6B2039802994643E4
:10148000204600F093FB05462046019900F08EFBB4
:101490000146002006E082004700AB58CF5FDB1911
:1014A000AB50401CB042F6D3641CE4B2042CDCD335
:1014B000D6E7F0B585B00321052001F037F907F034
:1014C00045FD0024364E2746307808F04FF908F0E5
:1014D0005CFD00282FD008F05FFF6421307808F011
:1014E00093F8002802D0002003F002FB307808F0C7
:1014F0003DF908F0DEFF6421307808F085F8002817
:1015000002D0002003F0F4FA08F03FFD002815D0C7
:1015100000F031FC022C14D37321890134232022E2
:101520004810FFF79FFF342301221B491B480097F7
:1015300004F09AFE1AE008F0EEFECEE700F008FC98
:10154000E8E7002C12D10025E9B2342000F028FA97
:1015500042017321E8B2890100F01FFB6D1C042DCC
:10156000F2DBFF2141310C4809F049FC641CE4B274
:10157000122CA9D334247320202310221A4980016D
:101580000094FFF744FF0320012104231022039756
:1015900001940091029029E0705B00409059004056
:1015A00001030000103A0000000200002C3A000085
:1015B0000202000020C200101FC200101EC2001054
:1015C0000C020000881B00007808000021C20010F7
:1015D000B05C00402E020000480B0000600B0000D1
:1015E00067020000401F0000901500000D490E4CDE
:1015F000A031204604F04EFEA021204609F0FFFB5A
:101600000024FF25094E4135E0B22A46314600F05C
:10161000C4FA641C042CF7DB0321062001F086F8D1
:1016200001201DE790590040705B0040F02300004E
:1016300030B5634A002011020D24E4014300D55A5D
:10164000801CCD52A042F9DB30BDF3B581B001273B
:101650000321052001F06AF802981025594E002454
:10166000002833D0012831D002282FD0032830D0D1
:10167000002700210198FFF7CFFA534D287808F092
:1016800075F808F0A2FE6421287807F0BDFF002855
:1016900002D0002003F02CFA4C48C460287808F0EF
:1016A00065F808F092FE6421287807F0ADFF002865
:1016B00002D0002003F01CFA454847490470454811
:1016C00004700020C04308803846FEBDFFF780FB51
:1016D00003E0FFF77DFB3D48C4603570C9E700219A
:1016E0003E48B2E701213D48AFE770B53C4D374C6D
:1016F0000026206828612862606868616862A068C6
:10170000A861A86202213548FFF79FFF012E12D081
:101710000D22120291052A48FEF794FF2068761CDC
:10172000C04320606068C0436060A068C043A060A0
:10173000022EDEDB70BDFFF77BFFEFE710B5FF2069
:1017400029214906C86027481021816301630320CD
:1017500001F04DF803212148FFF777FF002001F049
:1017600046F810BD10B51C480024045F002C06D0BC
:10177000012C07D0022C08D0032C0BD108E0FFF776
:10178000AEFF07E0FFF7AEFF04E0FFF7AEFF01E0BA
:10179000FFF7D4FF0720FFF71BFB01210F48FFF7DE
:1017A0003BFA042C07D00D4820224030037800215A
:1017B0008020FEF77AFF03490120087310BD000066
:1017C0000000405E103A00000103000070020000BB
:1017D000680200006C0200006A020000700B00004A
:1017E00040000052C0030055214870472048801E29
:1017F0007047204900200860704730B51C48202100
:1018000072300170342141701B4900220B8D83829C
:101810004B8DC3828B8D0383CB8D43830C46203449
:101820000346257C20339D70647CDC700B8F8384A1
:101830008B18203384189B7C521C2377062AF7D3FD
:1018400000210A4604E04B001B181A715A71491C0A
:1018500083788B42F7D830BD002006490246091D27
:101860000B18401CC0B21A730C28F9D37047000043
:101870001A3B00000C3A0000C00200100A04120ECD
:10188000334B1204090618401043090D08437047F2
:10189000F0B59C4693046446DB0CA4052343059CE9
:1018A0008500E405A40A23432A4C88006659FF30CA
:1018B00081303350082901D2002000E004200126A5
:1018C000130CB603B34201D1002300E002235204FB
:1018D000D60F4200891A1E4389000F228A4007460C
:1018E00063595837BE46DF598E40974337431E46EB
:1018F0007346F750675903466033FE58BE46059F4E
:101900009643FF043F0F8F403E437746FE50645995
:1019100068302358934362469204120F8A4013435F
:101920002350F0BD0D239B06C9180160426070472B
:1019300010B59204D20C9B05029C1A43E3059B0A46
:101940001A430D239B06C9180160426010BD0000B8
:101950000FF000FF6CBD001008B50090FEE738B531
:101960000321890701224118D203914202D30020AA
:101970000090FEE7904C002121706170A1606060D2
:1019800008468E4901228300CB581A61401CC0B220
:101990000428F8D30021012007F050FDA07038BDC5
:1019A000C208D200821A1206854B920DD218C008C6
:1019B000515C40000818C0B2704710B57E49002045
:1019C00014317D4C0860E078182148437D49401867
:1019D0008268002A04D02169E0689047002806D078
:1019E00007F0B0FCA07807F0EFFE07F0B0FC10BDE8
:1019F000724908684069C0070AD0096801208861F7
:101A00006D491431087008686F49884200D1D4E7E5
:101A100070476A4948684069C0070AD04968012090
:101A2000886165491431487008686749884200D167
:101A3000C3E77047614988684069C0070AD0896870
:101A4000012088615C491431887008685E498842C9
:101A500000D1B2E770475949C8684069C0070AD049
:101A6000C9680120886154491431C8700868564912
:101A7000884200D1A1E77047F8B54F4C0546207861
:101A80000A2802D301200090FEE76969CA0702D044
:101A900002200090FEE7A26889180122920291427A
:101AA00002D903200090FEE718214843454E0A461C
:101AB00080192946FEF7C6FDA16860681822401803
:101AC00021785143891908616A69296909F02FF958
:101AD0002078401CC0B220706969A2688918401E35
:101AE000A160F8BD18B40C4633490978814202DC84
:101AF00004200090FEE71821484332490B58002B80
:101B000004D0204601B010BC1146184718BC012073
:101B10007047F8B5284C0546207816460F46A8426F
:101B200002DC04200090FEE76078002802D0052047
:101B30000090FEE7E570E7602661A07807F016FEEA
:101B4000182045431F4831462D186A68384690478B
:101B50006421A07807F058FD002802D006200090EC
:101B6000FEE71549002014310860EA68002A02D017
:101B70003146384690470020F8BD0F481821C078FC
:101B8000484310494018006970470B481821C07835
:101B900048430C4940184069704710B50B4B800012
:101BA000185840181146FEF7EBFC10BD074A80009C
:101BB0001058401870470000800200006CBD0010F3
:101BC0008CBD0010540C0000010101017CBD00100F
:101BD000F8B5FF4FFD483426F86020257E823D751C
:101BE000002421463420FFF7DBFE39190872C107B3
:101BF000C90F40186100641CE4B27852042CF0D381
:101C000073204001388201207875F14CF148183476
:101C1000801CE0603620608225750027394634201C
:101C2000FFF7BEFEE1190872C107C90F401879001D
:101C30007F1CFFB26052042FF0D3BB2080012082B2
:101C400000276775E448FFF717FFE44C0121A06007
:101C5000DF4889072C38016086800121C18073210B
:101C6000490141810781072101738173DA493031CC
:101C70000161343141614573C67303210176D64851
:101C80004838FFF7F9FED24A2060103A11461C3955
:101C9000FFF728FFCE487321490130300180D04939
:101CA0004180D049818073218901C18007818910D9
:101CB0004181BB2189018181032181730821C17385
:101CC000C5740675C4483038FFF7D6FE6060C0485A
:101CD000C449483001808571C6717321478009016C
:101CE00081800772BC481830FFF7C6FEE060B84834
:101CF000BC49683001808571C671BB490161BB492F
:101D0000C1607321478009018180B3481838FFF70B
:101D1000B3FE2061F8BD10B5B548AD4942886831C1
:101D20004A8180880881AD4800220069FFF7F1FEF2
:101D300010BDA74810B54830AE490161891EC16089
:101D400002460146A5481432C068FFF7E2FE10BD06
:101D50009F4810B507212C38017381739E490246B4
:101D6000303101613431416101469C481C320068C8
:101D7000FFF7CFFE10BD964810B507212C38017330
:101D80008173954902463031016134314161014628
:101D900092481C320068FFF7BCFE10BD8C4B10B59A
:101DA0003033187459749A748C480022194640686C
:101DB000FFF7AFFE10BD10B57320854940010882C2
:101DC000864800228068FFF7A4FE10BD10B5804948
:101DD00084480882814800228068FFF79AFE10BD7F
:101DE00010B57B497D48002218318068FFF791FECD
:101DF00010BDF0B585B00446FFF7BFFE05460120D3
:101E0000A9B20027C007081803910290207D394627
:101E1000FFF7C6FDC107C90F0818C0B20190E07CEA
:101E2000BE004006410C019801437348805901648B
:101E3000FFF7ABFE039941186F48805941606E4926
:101E40000298895988606C490020895948640126A4
:101E50000096014622883846019BFFF719FD00963F
:101E6000628801213846019BFFF712FD0096A28887
:101E700002213846019BFFF70BFD0096E288032103
:101E80003846019BFFF704FD00962289042138465D
:101E9000019BFFF7FDFC0096628905213846019BF6
:101EA000FFF7F6FC0096A28906213846019BFFF752
:101EB000EFFC7F1CFFB2042FA8D30F216156686886
:101EC000FFF7DCFC68600E2020564142E868FFF70F
:101ED000D5FCE860112161562869FFF7CFFC286125
:101EE00010216156A869FFF7C9FCA861122020568D
:101EF0004142286AFFF7C2FC28623F490020820065
:101F00008A581660401CC0B20428F8D3012005B0DE
:101F1000F0BDF0B585B00446FFF72FFE019001211A
:101F200080B20026C907039040180290E07931463C
:101F3000FFF736FDC107C90F0818C7B2A0792E49AF
:101F40004006B500400C495938430864FFF71DFEB0
:101F50000399411828484059416027490298495936
:101F600088602549002049594864012500950146AB
:101F700022883B463046FFF78BFC009562883B4643
:101F800001213046FFF784FC0095A288002302213E
:101F90003046FFF77DFC0095A088790042180023A9
:101FA00003213046FFF774FC0095A088B900421861
:101FB000002304213046FFF76BFC0095A188062022
:101FC00078430A1800230521304617E0005D0040E1
:101FD000700D0000FE3B00409CBE00109802000007
:101FE00090150000F0230000A01B0000E41C00007E
:101FF000003A00006A0B00006CBD0010FFF748FCBF
:102000000095A2883B4606213046FFF741FC761C2E
:10201000F6B2042E8AD32089401E01B2019840688E
:10202000FFF72CFC019948600A20205EC14301980B
:10203000406AFFF723FC01994862FF4900208200B3
:102040008A581560401CC0B20428F8D301205EE70E
:10205000FEB500218183C183816104460D46416143
:10206000002001900090E0790099FFF799FC064666
:10207000C007C00F8019C7B2732109010098FFF78C
:1020800095FD6F4379004118002D0CD0022D05D02D
:10209000012D2BD020461E30002231E0019A002075
:1020A000920094461FE0019A0020920094460AE0B4
:1020B00042008700E3688A5E6744DA5163699A18D0
:1020C000401CC0B26261B042F2D31BE042008A5AA7
:1020D00087005242236912B26744DA51A3699A1801
:1020E000401CC0B2A261B042F0D30BE020461C30CD
:1020F000D2E757000388CF5BDB19521C0380D2B2B2
:10210000B242F6D30198801900B201900098401CA9
:10211000C0B200900428A6D36D1CEDB2042D9FD34D
:102120000120FEBDF0B5044687B000200290FFF705
:1021300024FD0190607D0021002808D0E068242261
:102140004280472241600270082242700292019848
:10215000002581B2081D05900120C00708182F46F0
:102160000490217D6019007A4906490C0843B24960
:10217000AE0089590864B04900208959486401209B
:10218000009068000390235A228A00212846FFF716
:102190007FFB012000900298E16838180A18638AD2
:1021A00001212846FFF774FB0398A349205A895957
:1021B0004000C01987B2059848609F490498895922
:1021C00088606D1CEDB2042DCBD301989B49016052
:1021D0000020994901228300CB581A60401CC0B2EC
:1021E0000428F8D3012007B0F0BDFEB504460191E4
:1021F000FFF7C3FC06460199206988600199E068F1
:1022000048608F4931608F497160207A08278E4A73
:102210008E49022804D0B260207A0C27012801D010
:10222000F1513F1D01210025B0B2C90740180290AD
:10223000E0792946FFF7B4FB01997F4A4855C10769
:10224000C90F0818C3B2A0794006410C1943A80071
:1022500012581164784A002112585164764A029942
:1022600012589160744AF119105889B241600120E6
:102270000090228800212846FFF70AFB01200090E9
:102280000146628800232846FFF702FB01200090E8
:10229000A288002302212846FFF7FAFA6D1CEDB24E
:1022A000042DC5D30020644A01218300D35819604E
:1022B000401CC0B20428F8D30120FEBDF8B5054685
:1022C000007A0C4602281BD0614F002669883046F0
:1022D000FFF76CFC02460020A35D06E04100515E62
:1022E000B94200DA0F46401CC0B28342F6D8761CD1
:1022F000F6B2042EEAD360680780287A012819D044
:10230000534F7F420026A9883046FFF74FFC024614
:102310000020A35D06E04100515EB94200DD0F469A
:10232000401CC0B28342F6D8761CF6B2042EEAD323
:10233000A06807800120F8BDF0B50024817BA44689
:1023400027468E462BE000231A461946067B15E0E9
:1023500005692D5D954008322943D2B2202A0AD35F
:1023600065464269AD0052598A4211D16146491C05
:102370008C46002211465B1CDBB2641C9E42E7D8EF
:10238000002A0AD06246436992009A588A4201D0D4
:102390000020F0BD6146491C8C467F1CFFB2BE4543
:1023A000D1D80120F0BD00B5FFF7C6FF002800D04E
:1023B000012000BDF0B585B00C460546FFF7DDFBFA
:1023C00002900120607200272773287BC01C8008C0
:1023D000E072A97B687B08F014FDA072A97B4843DA
:1023E000697B884205D0081A2072A07A401CA0722E
:1023F00000E027720298002681B2081D0490012097
:10240000C007081801960390E87B3146FFF7C8FA29
:10241000A1190871C107C90F4018A055002006492D
:10242000B700C9594864E888009029680198AB88CA
:102430000A18002130460DE06CBD00100010C023CA
:102440000010000C0020000C101000212020402162
:10245000FF7F0000FFF71CFA287B01282FD0A17A0C
:102460002A8941434806A15D400C0843A049C95947
:102470000864012000900146A35D3046FFF708FA8A
:102480009B490498CA595060CA5903989060A05D4E
:10249000761C42000198F6B2101880B20190042E0A
:1024A000B2D30298934A0260002001228300CB58E5
:1024B0001A60401CC0B20428F8D3012027E5697BCC
:1024C0006A894906A05D490CCFE7F8B517460C4666
:1024D0000646002501200090607BA17B7B5D401AB1
:1024E00080195843618940004218E8B20121FFF782
:1024F000CFF96D1C042DEDD3FA7A7D4D1046724351
:1025000080188646002310E091008C460020990038
:10251000803166696746F6598700EF597E50401C46
:102520000428F6D35B1CDBB2521C7245ECD3F8BD19
:10253000F8B517460C4606460025012000907B5D45
:10254000A17B18464B436189704340000A18E8B2EA
:102550000121FFF79DF96D1C042DEED3FA7A644D2D
:102560001046724380188646002110E093009C4676
:1025700000208B00803366696746F6598700EF5963
:10258000FE50401C0428F6D3491CC9B2521C7245A7
:10259000ECD3F8BDFEB50C460546FFF7EEFA07464C
:1025A000287B032101287DD0607A0128207B1BD065
:1025B000401CC0B22073AA7B904273D222462946A7
:1025C000FFF783FF002001224949BDB2D307C400B1
:1025D0002C19E61884000F59BE600C592260401C6B
:1025E000C0B20428F3D37DE0401CC0B22073AA7BA4
:1025F00090423DD8012833D1207A0028A07A01D01A
:10260000401EC0B200264006400C0290B8B20190B5
:1026100001200090A35D287B2A8943430021304696
:10262000FFF736F9A15D0298314A0143B000125814
:1026300011642F4918220958AA564A64297B2E4B47
:10264000A25D090419430A43F1007A50019A511816
:10265000274A091D10584160761CF6B2042ED7D3C4
:10266000207B2246401EC0B22946FFF761FF28E0CA
:10267000207A002838D0101A2073022060720026B9
:10268000A05D1B49B2008958FF3001300864207BEF
:1026900022462946FFF719FF01200090A35D287B01
:1026A000584300E020E0A17A491E484329894000B0
:1026B000421800213046FFF7EBF8761CF6B2042EE4
:1026C000DED3002001220A49BDB2D307C4002C1971
:1026D000E61884000F59BE600C592260401CC0B23D
:1026E0000428F3D30020FEBD61720120FEBD00006E
:1026F0006CBD00100010C0230010402F10B5014623
:102700002C4808F07EFB420A2B49012048602A48E9
:102710000023403003620F23C3620261FF22426143
:10272000826103224A600421016210BD70B5401F1E
:102730000C46224D030009F0C8F90817191D1D1D8C
:102740000D05081D2868844217D00846FFF7D6FFFC
:102750002C6012E029225206506BC9B2FF231B02E3
:1027600018400843506308E0012000E0002000F01A
:1027700012F802E0002002F0BBF9012070BD10B594
:1027800000F08BF800F0BBF800F01CF80A490F20AD
:102790004031C86210BD10B5002803D0084600F0D3
:1027A0004EF810BD0648C0780028FAD1084600F05F
:1027B00027F810BD40D2DF0340000052AC020000F9
:1027C000C83A00003D200249000408637047000039
:1027D0004002005510B54B4C0320216807F0B8FEAD
:1027E00020684949401C20601020886310BD0021EA
:1027F000022801D0032800D1444900208165704798
:1028000010B529225206D1680C239943D1600221C8
:102810003F4B012807D0022805D0032807D000200D
:1028200002F066F910BD59603A48106210BD596057
:1028300039481062D0688006800ED06010BD70B537
:1028400029225206D1680C231943D160032530494F
:102850000123002808D0032803D0002002F048F903
:1028600070BD4D60136270BDF720C0011062284C2E
:102870000020403420601F266660A6604D60F5246D
:10288000E4011462F124E4011462136208614861F6
:10289000886108624862886270BD70B51F4CA06B89
:1028A00000218A0012191268491C801A0E29F8D3D7
:1028B00021681B4A29256D06914217D1E16B194AFF
:1028C000914213D1002810D1A0680104E0680002F1
:1028D0000143206901436068C0B205F024FE6069CD
:1028E000A169286308020830686370BD402028632E
:1028F0000D4868630D49072005F015FE70BD0020E6
:102900009DE700007C020000C0030055D5270010A1
:1029100040000052A57F00000578000080070120DC
:102920001004102013067419084000002020200015
:10293000F0B526492448086225480168090A0902B9
:1029400001600368FF21090203228B4392039B1855
:10295000036004680B029C43150264190460046858
:102960002602360A8C05361906604668360A360293
:10297000C036466046688E43B618466046680127F2
:102980009E43BF05F619466046683602360A361978
:102990004660C6688E43B118C160C1689943491941
:1029A000C160C1680902090A0919C1600169090AFF
:1029B0000902C0310161074940170860054906480E
:1029C00080390860F0BD00000000C08000ED00E02C
:1029D00000E400E080E100E0E1F001000122810577
:1029E000D203801A8003000E8200A148890D80580E
:1029F000002800D0401870470521042284230907CD
:102A0000012807D0022803D004280AD0082809D1B9
:102A10000A6007E00A60002000BF401CC0B2C8285E
:102A2000FAD30B600120704710B5C2B2904B000A78
:102A30004400203B1B5B934202D80020088010BD5D
:102A40008B4C8000603C205880189A1A0A8010BD78
:102A5000F8B58948874C406AFF218000800C01311D
:102A60000D1A60782178000208438449022D4860DD
:102A70001CD04CDD0126F602811B202932D2FEF744
:102A8000EBFE60782178000208437D49A2784883F4
:102A90008A83821B7A4801212038002A0AD0102A12
:102AA0001AD0152A08D0162A19D107E0294600F0B5
:102AB0007BF82CE0417012E0817010E0C170704929
:102AC00000208039221893780A186032401CC0B266
:102AD00013712E28F6D302E06A4910200870FEF721
:102AE00052F914E001210903884210D26946FFF728
:102AF0009BFF00280BD069460988AD1EA94201DD65
:102B000069460D8069460A88A11C08F010F9012069
:102B1000F8BDF8B5584E4036776A0020C043F062E1
:102B2000F80501D5584821E0B806544D800F1FD054
:102B3000514C6068C007FCD052480078122803D17D
:102B400000210820FFF758FF69783846FFF780FF1B
:102B500002202060012020600C2020624548A062F5
:102B60004A48206200206870FF2001303062F8BDC2
:102B70007800FCD5464968688842F8D106F0E2FB47
:102B8000287806F021FE06F0E2FBF8BD10B56C20B7
:102B900000F04CF80020394C0146607006F04EFC05
:102BA000207006F0E3FD10BDF8B509260446B60115
:102BB0000025801B762808D200210420FFF71CFF87
:102BC000FEF714FE0019801B1BE001200003844265
:102BD00004D2A0B26946FFF727FF12E02D49261A5A
:102BE0008E4206D200210420FFF706FF2A48354610
:102BF00009E00121C903611A814216D2A0B2FFF790
:102C0000EDFE002811D043191B480421403001601B
:102C1000194902220A6101220A61052109078A6015
:102C200083601E490160491E0160F8BD30B58421F2
:102C300005221207116001231361002414620E495A
:102C400002250D600B600D610B617F231B02184391
:102C5000D0610C200862074888620C480862064868
:102C6000611E4030C162C462E901016230BD0000F2
:102C700098BF0010F80D000080000050B002000066
:102C8000F00B0000103A0000300000400900000185
:102C900042020000C81C0000005D00400900FFFF68
:102CA0000120704710B5827B042A01D0022A21D06E
:102CB000002315229206046894614468D4619360ED
:102CC000037B447B5B1E1B04641E2343D360038988
:102CD000847B1B04234313614389807B1B040343D0
:102CE0005361012090621060002902D050680028D2
:102CF000FCDB10BD0123DCE7012115208006816289
:102D000001627047F3B583B00E46FEF76FFD2924CC
:102D100003980025640601280BD0022809D0032857
:102D200007D0042869D0002001F0E2FE012005B0A0
:102D3000F0BD374F314678690090364808F061F8A9
:102D4000E96B0291296C0191216A490849002162CD
:102D5000216A314A1143216230490D62FF22CA6261
:102D60003D612F49E9632F492964A168FE22114082
:102D7000A160216A022211432162002100BF00BF2D
:102D800000BF491C3229F9D3216A01229202114362
:102D90002162012767621E494861886107220A6132
:102DA0000398032816D030460099FDF789FB206A66
:102DB000000C00042062206A384320626562029899
:102DC000E8630198286419481749016013480421F1
:102DD0000162ABE70098761C0BD0154B236230BF25
:102DE000256251231B061D60486188610A61A76046
:102DF000DDE70F4B09332362F2E70C497D20000128
:102E00000D60A06103206061012060618EE7000019
:102E100000E000E050C30000A4FB0000800000526E
:102E20000301000007010000E120000000E100E0D4
:102E3000A67F0000FEE710B5FDF74EFB10BD10B5F4
:102E400006F0B5FA184B194A0021194806F0BBFDE7
:102E5000184B194A0021194806F0B5FD06F0CAFAC8
:102E600010BDF92153200006416004210162FF21B9
:102E7000416200228262C2620163704710B5FFF7AF
:102E8000F0FF05F033FBFFF77AFCFDF71FFBFFF7C0
:102E900033FFFFF77BFEFFF74BFDFDF781FEFFF7EA
:102EA000CEFF012010BD0000341500000990010084
:102EB000B10C0010E41900000A2C0100190F0010D9
:102EC00003460A467047FEE730B502460020884CAC
:102ED000014653569B001B195B684D00AB40491CD3
:102EE0001843C9B21029F4D330BDFFB581B00D46E7
:102EF00006461C4610210A9F039807F07EFFB8780B
:102F0000B04254D8F978B14251D3301AC3B200203C
:102F1000E278A17803E09B1A0818DBB2C0B29A42AB
:102F2000F9D9421E8A18267AD2B2964204D8701A6B
:102F3000C0B2421E8918CAB2002D0AD0012D0FD08E
:102F4000202A34D320281FD22021081AC1B2002001
:102F50001DE010282BD2102A00D30F22002124E0DC
:102F6000202824D2102A22D3102804D21021081A93
:102F7000C1B2002002E01038C0B20021202A01D3E3
:102F80000F2212E0103A03E000212038C0B2203AAC
:102F9000D2B20AE0E57866684D4375195E5D039D1F
:102FA0002E54401C491CC0B2C9B29042F2D905B09F
:102FB000F0BD30B50446002085B02E2C04D2102C74
:102FC00015D26100012011E01378A34211D8557881
:102FD000A5420ED30022497A03E0521C8000D2B2EF
:102FE000401C9142F9D8E21A4A435100884005B08A
:102FF00030BD0B46009201AA00212046FFF775FF65
:1030000001A8FFF761FFF2E730B50446002085B064
:103010002E2C05D2103C102CE9D26100012012E0C8
:103020001378A34211D85578A5420ED30022497ACD
:1030300003E0521C8000D2B2401C9142F9D8E21A3F
:103040004A43510020398840D1E70B46009201AA3B
:1030500001212046FFF749FF01A8FFF735FFC6E72A
:1030600030B50446002085B02E2C05D2203C0E2C15
:10307000BDD26100012012E01378A34211D8557827
:10308000A5420ED30022497A03E0521C8000D2B23E
:10309000401C9142F9D8E21A4A4351004039884015
:1030A000A5E70B46009201AA02212046FFF71DFF6B
:1030B00001A8FFF709FF9AE770B505460C46007AAC
:1030C000A9784018401E07F0A6FE697A0646084611
:1030D0002D3007F096FE2E30A070E978714341182C
:1030E000491EE1702E212170401E607070BD0000ED
:1030F000A8BF001010B501460120FFF7D1FD10BD9B
:1031000010B501460420FFF7FDFD10BD10B50146C6
:103110000120FFF7F7FD002010BD10B50146032088
:10312000FFF7F0FD002010BD704700B52220FB49DD
:1031300008703620FA490870FFF7F6FF00BDFFB5AA
:103140000A9CFF2501350098284000283FD00398AD
:103150000268099803680F2A0BDBF248C0880A3816
:10316000904206DB0A2B04DBEE48008914389842B3
:1031700026DA2C206043EC4D401920304078401C6A
:10318000C5B22C206043E84E8019203045702C25B4
:103190006543AD190826AE5F2C256543E24FED1956
:1031A0000A27EF5FF019002801DB054600E04542E1
:1031B0001E2D0CDA0298002809D11020014306E0E8
:1031C00000252C206043D84E801920304570C8B2AD
:1031D00004B0F0BDF0B589B004460D467F26F60573
:1031E000A100D24A5058D249096808F0ADFCA100AC
:1031F000CE4A5050A1005058CE49096808F0A4FCAE
:103200000746A100C94A5058394608F0EBF906466E
:10321000284608F0E1FA0690C7480168069808F0C9
:103220003DFD3146079008F0D5FC0746C2480168CD
:10323000384608F089FCC0490860A100BB4A5058D4
:1032400008F0A6F905910490304608F0A1F9002293
:10325000BA4B0191009008F051F803910290059B40
:10326000049A08F061F80791069007F077FEA10034
:10327000AE4A505009B0F0BDF0B589B004460D46D5
:103280007F26F605A100AE4A5058A949096808F002
:103290005BFCA100AA4A5050A1005058A5490968FA
:1032A00008F052FC0746A100A54A5058394608F0DC
:1032B00099F90646284608F08FFA0690A148016859
:1032C000069808F0EBFC3146079008F083FC0746AF
:1032D0009C480168384608F037FC9A490860A1000C
:1032E000974A505808F054F905910490304608F078
:1032F0004FF90022914B0191009007F0FFFF0391DD
:103300000290059B049A08F00FF80791069007F0C9
:1033100025FEA1008A4A505009B0F0BDFEB5044612
:103320000D4616461F463068019038680090002010
:103330000899085E08F050FA82490860002009994F
:10334000085E08F049FA7C4908607F480078002848
:1033500014D0FF2001302840002807D07B48744952
:103360000860012080077349086019E077487049B8
:103370000860012080076F49086011E0FF200130DC
:103380002840002806D07248694908607148694998
:10339000086005E06E48664908606E486549086047
:1033A0006D48005D002815D101206B4908557F202C
:1033B000C005A100624A5050A1005C4A50500198DB
:1033C00008F00AFA5F490860009808F005FA5A49BF
:1033D000086009E0019801B220B2FFF74DFF0098A4
:1033E00001B220B2FFF7F6FE5648006808F0AAF9CD
:1033F00030605148006808F0A5F938600020FEBD33
:10340000FFB595B0044616461F461E9D0A20129031
:1034100011905249098D4A008818C117890E091860
:10342000891107914D49498D4A008818682107F094
:10343000F2FC06904A48007840004A49085A149025
:10344000474800784000085A1390454800784100EA
:103450004448001D405A0E904148007841004148C0
:10346000001D405A0D903D48008D3168411A079863
:1034700081421CDA3948008D3168401A02D1129815
:10348000149012E012991498421A10923349098D3F
:103490003268891A149A5143109A51430846079981
:1034A00007F0B9FC12994018149014980E902B480C
:1034B000408D3968411A069881421CDA2748408DB0
:1034C0003968401A02D11198139012E0119913989B
:1034D000421A0F922149498D3A68891A139A514329
:1034E0000F9A51430846069907F095FC1199401828
:1034F000139013980D902C2060430B49411818200D
:10350000085E3168401A2FD42C20604306494118C8
:103510001820085E3168401A2EE000004F020000BB
:1035200050020000103A000094080000101A000039
:10353000C0020000C4020000BC0200000000F03F16
:10354000E8190000B80200002E0200003333733F78
:103550009A99593F0000C040381A0000CC0300007F
:10356000020200000C3B00002C206043FE4A801841
:103570001822825E3168881A0B902C206043FA4929
:1035800041181A20085E3968401A08D42C2060437C
:10359000F54941181A20085E3968401A07E02C20C6
:1035A0006043F14A80181A22825E3968881A0A90AC
:1035B0000B990A98081809900B990A98081808900E
:1035C0000B990A9808180C901698C007C00F00288D
:1035D0007ED00C9A1499881808F0FEF805900C9883
:1035E00008F0FAF80190306808F0F6F800900199B8
:1035F00008F0F0FA0390149808F0EEF801902C20EF
:103600006043D94A8018416A019808F0E3FA0290B1
:10361000039908F099FA0490059907F0E3FF2C212B
:103620006143D14A891848620C9A1399881808F0A6
:10363000D3F805900C9808F0CFF80190386808F09E
:10364000CBF80090019908F0C5FA0390139808F0A0
:10365000C3F801902C206043C34A8018816A019806
:1036600008F0B8FA0290039908F06EFA04900599F0
:1036700007F0B8FF2C216143BB4A891888622C20CF
:10368000604382180620105E0022AA5E801A09D4C8
:103690002C206043B44A82180620105E0022AA5EE5
:1036A000801A08E00022AA5E2C206043AE4BC018AE
:1036B0000623C35ED01A014664312C206043AA4A17
:1036C00082180620105E0022AA5E801A0BD400E049
:1036D00024E02C206043A44A82180620105E0022B9
:1036E000AA5E801A08E00022AA5E2C2060439E4B4E
:1036F000C0180623C35ED01A0022AA5E50432C22B3
:103700006243994BD31806229A5E64235A43801869
:10371000059007F080FB00B22880A1E0099A0E997D
:10372000881808F059F80590099808F055F80190A4
:10373000306808F051F80090019908F04BFA0390B6
:103740000E9808F049F801902C206043864A8018B2
:10375000416A019808F03EFA0290039908F0F4F9E2
:103760000490059907F03EFF2C2161437E4A891899
:103770004862089A0D99881808F02EF80590089864
:1037800008F02AF80190386808F026F800900199AE
:1037900008F020FA03900D9808F01EF801902C20F4
:1037A0006043714A8018816A019808F013FA029008
:1037B000039908F0C9F90490059907F013FF2C212B
:1037C0006143694A891888622C2060438218062068
:1037D000105E0022AA5E801A09D42C206043624A3F
:1037E00082180620105E0022AA5E801A08E00022DD
:1037F000AA5E2C2060435C4BC0180623C35ED01A1F
:10380000014664312C206043574A82180620105E1E
:103810000022AA5E801A09D42C206043524A8218E2
:103820000620105E0022AA5E801A08E00022AA5E2E
:103830002C2060434C4BC0180623C35ED01A0022D4
:10384000AA5E50432C226243474BD31806229A5E4D
:1038500064235A438018059007F0DDFA00B22880EF
:103860002C216143404A8918486A07F06BFF306099
:103870002C2161433C4A8918886A07F063FF38604D
:10388000002019B0F0BDF3B583B0384800780028A7
:1038900002D0002005B0F0BD3548C07D029034480C
:1038A000007E01903349098D4A008818C117890E9E
:1038B00009188F112F49498D4A008818682107F08F
:1038C000AAFA06460398008804B20498008805B254
:1038D000029800282ADDBC4206DAE01B0299484320
:1038E0008011C01904B238E02248008D001BB84294
:1038F0000BDA2048028D008D001BC01B0299484343
:103900008011C019101A04B227E0194B19229A56D7
:10391000184B1B8D5B101B1B5A431046154A128D0A
:10392000511007F078FA001904B216E0BC4214DB1B
:103930001048008DC01BA0420FDB0D4B19229A5678
:103940000C4B1B8D5B101B1B5A431046094A128DF2
:10395000511007F060FA001904B20198002833DD15
:10396000B5420FDAA81B07E09408000065020000CA
:10397000D43A0000CC03000001994843801180191B
:1039800005B238E0FE48408D401BB0420BDAFC48DF
:10399000428D408D401B801B019948438011801946
:1039A000101A05B227E0F74B1A229A56F44B5B8D9A
:1039B0005B105B1B5A431046F14A528D511007F0C1
:1039C0002AFA401905B216E0B54214DBEC48408DE6
:1039D000801BA8420FDBEB4B1A229A56E84B5B8DFB
:1039E0005B105B1B5A431046E54A528D511007F09D
:1039F00012FA401905B2039804600498056000208B
:103A000048E7FFB58FB00D4614461E46199F0F9824
:103A100007F0E2FE0E90284607F0DEFE0D902046ED
:103A200007F0DAFE0C90304607F0D6FE0B9018989F
:103A300007F0D2FE0A90384607F0CEFE0990BD424C
:103A400017DD1899081B07F0C7FE0590B81B07F093
:103A5000C3FE04900599049807F0C4FD08900E99E0
:103A6000089808F0B7F802900D9908F06DF80690E4
:103A700016E00F99601A07F0AFFE0590701B07F073
:103A8000ABFE04900599049807F0ACFD08900A99E4
:103A9000089808F09FF80290099908F055F80690E8
:103AA0000C99089808F096F802900B9908F0EAF83B
:103AB0000790089807F06CFD0022134601910090D2
:103AC00008F010F801D1039411E001208007089953
:103AD00008F080F801900799069808F0DFF8009048
:103AE000019907F07FFD029007F02CFE03900398E8
:103AF00013B0F0BDF0B593B004460D4616461F4610
:103B0000781B07F069FE12901899494322466243D8
:103B1000881A07F061FE11901999481B07F05CFEA6
:103B200010902146614332467243881A07F054FED2
:103B30000F900F99109808F04DF80790119912986E
:103B400008F048F80690079907F0FEFF0E901999C3
:103B5000681A07F041FE0D90301B07F03DFE0C90F7
:103B6000781B07F039FE0B901899081B07F034FEFC
:103B70000A900A990B9808F02DF802900C990D986C
:103B800008F028F80190029907F0DEFF039007F093
:103B9000FFFC002201239B070591049007F0C4FB62
:103BA0000791069007F0DAF90990099807F0F0FC00
:103BB000002213460791069007F094FF08D0099958
:103BC0000E9807F00FFD079007F0BCFD089000E08D
:103BD0000896089813B0F0BDF0B505AC70CC00287D
:103BE00006D1275E002F01DA0027278000271F80DB
:103BF0001F2807D10027DF5F002F01DA00271F8071
:103C000000272780002906D1775E002F01DA0027E0
:103C1000378000272F80352907D10027EF5F002F3D
:103C200001DA00272F8000273780F0BDF0B503466A
:103C30000C461546002200210BE053484069534EC4
:103C40007656F6187600805F665C70438218481CD2
:103C500041B20429F1DB4C4840695E00805F26795F
:103C60007043821805210CE047484669481E474FBB
:103C70003856C0184000305E665C70438218481C9D
:103C800041B20929F0DB10462841024610B2F0BDCE
:103C9000FFB593B0064600200690059004903C487E
:103CA0000178304607F0B7F884B2394800786043AD
:103CB000301A85B2149800282CD0334840690790F8
:103CC000324903200856801980B212900420085609
:103CD000801980B21190701E80B21090701C80B25A
:103CE0000F9071000798405E0E9010984100079861
:103CF000415A0D91119841000798415A0C91129820
:103D000041000798415A0B910F9841000798415A7A
:103D10000A9141E01698427A01463046FFF786FF45
:103D20000E9016994A7A711E88B21699FFF77EFF97
:103D30000D9016994A7A711C88B21699FFF776FF92
:103D40000A9016994A7A12490978711A88B2169916
:103D5000FFF76CFF0B9016994A7A0D490978711894
:103D600088B21699FFF762FF0C900AA80DA90CAA59
:103D70000BAB00920191029069B260B20E9A09E019
:103D8000CC030000D43A000078080000470200008D
:103D900050020000FFF720FF1598C007C00F002851
:103DA00074D068462C21415E09910E9808906846AF
:103DB0003027C75F09990898814205DD0998089066
:103DC0000898B84200DA089708990998884214D1EF
:103DD0000898B84211D1601C8000FE4909581C980F
:103DE0000160002C04D0FC480078C01EA04202D123
:103DF000012017B0F0BD0020FBE7F848807A0028CA
:103E000011D0A01C8000F349085801970090601C55
:103E100080000A58A00008580390089B0999FFF7F2
:103E200069FE069010E0A01C8000EA49085801973E
:103E30000090601C80000A58A00008580390089B5E
:103E40000999FFF7DEFD06900698002801DA0020A8
:103E50000690E048803001684068081841100698D4
:103E6000814205DCDE480168406808184010069071
:103E70001C9906980860002C04D0D7480078C01E12
:103E8000A04203D10498401C00B20490022115986E
:103E90000840022875D168463421415E09910E9888
:103EA000089068462827C75F09990898814205DD70
:103EB000099808900898B84200DA08970899099874
:103EC000884214D10898B84211D1681C8000C449B6
:103ED000803909581D980160002D04D0C148007830
:103EE000C01EA84201D1022083E7002081E7BB4821
:103EF000807A002812D0A81C8000B949803908585F
:103F000001970090681C80000A58A8000858039088
:103F1000089B0999FFF7EEFD059011E0A81C8000B1
:103F2000AF498039085801970090681C80000A58F2
:103F3000A80008580390089B0999FFF762FD0590B7
:103F40000598002801DA00200590A548016D406D14
:103F5000081841100598814205DCA148016D406DAB
:103F60000818401005901D9905980860002D04D090
:103F70009C480078C01EA84203D10498801C00B25F
:103F80000490049835E7F7B584B00D46164600BF97
:103F90002C2104984843944940181D27C7572C21C9
:103FA000049848439049085A0390FF21013103982F
:103FB000084000283FD0302179438C4A8918019667
:103FC0000095C98888B28A4B01220021FFF760FE64
:103FD0000446002C01DB012C0CD130217943834AAB
:103FE000891801960095C98888B2814B0122114633
:103FF000FFF74EFE302179437C4A891801960095DF
:10400000C98888B27B4B02220021FFF741FE04469B
:10401000002C01DB022C32D130217943734A8918FC
:1040200001960095C98888B2724B02220121FFF7E0
:104030002FFE044623E0302179436C4A891801960B
:104040000095C98888B26C4B03220021FFF720FE3F
:104050000446002C05DB012C03D0022C01D0032CDC
:104060000DD130217943614A891801960095C9889C
:1040700088B2614B03220121FFF70AFE0446204665
:1040800007B0F0BDF0B5AFB000202A900120259018
:10409000FDF7ACFB05900598801C049005986630F0
:1040A00003900021059801700598417068460176DB
:1040B00041760024FEE32C2060434B490D5AFF203B
:1040C0000230284000287DD040202840002803D01E
:1040D00048202840482875D16846007E3F498978A5
:1040E00088420ADB2C2060433F49085A402108439C
:1040F0002C2161433C4A5052EDE3404828400028BF
:104100000BD02C20604338494018C07F062108405E
:10411000002802D000203A4908553A482840002893
:1041200019D02C206043304940181821415E289155
:104130002C2060432C4940181A21415E27912C20E5
:10414000604329494018C08826902C2060434018BD
:10415000807F2590FDE1012080022840002875D055
:104160002C206043204941181D2008563021484327
:104170001E494018807929901A480178299806F03C
:104180004AFEC0B22C90174909782C9841432998CF
:10419000401AC0B22B902C9800280FD00E480078FF
:1041A000C01E2C99884209D02B98002806D00D48B3
:1041B0000078C01E01462B98814248D12C206043D4
:1041C000094900E086E340184069002825D12C20E9
:1041D000604319E0B8BF00104F020000103A000021
:1041E000F8C0001050020000940800008004000095
:1041F000D4C10010DEC10010C0C10010480800008A
:10420000381A00000C0A000040184069401C2C219C
:104210006143F94A891848615DE32C206043F649FF
:10422000085A0121890288432C216143F24A5052E5
:104230002C2060431146085A202108432C21614359
:1042400050522C20604311460D5A2FE030E02C20B4
:104250006043E94940184169E848E94A1278805CBE
:1042600081420BD22C206043E34940184069401C36
:104270002C216143E04A891848612CE32C206043DB
:10428000DD49085A0121890288432C216143DA4A19
:1042900050522C2060431146085A202108432C21FB
:1042A000614350522C20604311460D5A0120259045
:1042B0002C206043D04940181D268657302070437B
:1042C000D0494018807A2A90FF20013028400028E9
:1042D00013D1302070434018808904210840002801
:1042E0000BD130207043C74940180A21415EC648AF
:1042F000C34A1278805C81425DDC27AA28A9204647
:10430000FFF741FE2D9030217143BE4A89180620E7
:10431000085EBE49097806F07EFDC0B22C903020C0
:104320007043B84940188179B84A12782C985043A4
:10433000081AC0B22B902D9800282ADA302070433A
:10434000B0494018808904210840002812D02C98D8
:10435000401C8000AE490858AE49497D084128906C
:104360002B98401C8000AC490858AA49897D084117
:10437000279018E030207043A24940182821415E60
:104380002891302070439F4940182A21415E27918F
:1043900009E0A048417D2898084128909D48817DEA
:1043A000279808412790FF2001302840002810D08E
:1043B000022025900DE030207043924940182821BA
:1043C000415E2891302070438E4940182A21415E79
:1043D000279127A928A8FFF756FA2898002801DA7C
:1043E000002028908B482038008D2899884204DCD2
:1043F00088482038008D401E28902798002801DA30
:104400000020279083482038408D2799884204DC7B
:1044100080482038408D401E2790302070437949D5
:1044200040184069764909784900744A143A515E47
:10443000401A0011724909784900515A4900401840
:1044400001B2269120A81821415EFF2901DDFF203D
:1044500002E020A91820085E26902C2060436649BF
:104460004018406901283BD02C20604340188189C6
:104470002C206043604A801801822C206043114642
:10448000401801892C206043801881812C206043D2
:1044900011464018C1892C206043801841822C208D
:1044A00060431146401841892C2060438018C18127
:1044B0002C2060431146401840882899081A01B200
:1044C0002C206043801801812C2060431146401845
:1044D00080882799081A01B22C20604380184181F6
:1044E000289801B22C206043434A801841802798C5
:1044F00001B22C20604380188180202028400028B1
:1045000027D0289807F068F92C2161433A4A891886
:104510004862279807F060F92C216143364A8918D0
:104520008862289801B22C20604380180183279864
:1045300001B22C2060438018418320A81821415EDD
:104540002C2060438018C1802C2161438918259854
:1045500088772C206043284941181820085E289944
:10456000401A40432C216143234A8A181A21515E84
:10457000279A891A494340182E902598012825D159
:104580001E4812301E490978405C40432E998842EB
:104590001CDB2C20604318494018C07F022805D03E
:1045A0002C2060434018C07F06280FD12C20604388
:1045B000114940181821415E28912C2060430E4972
:1045C00040181A21415E279100202E9000270820D4
:1045D0002840002808D01020074300212C206043E9
:1045E000054A80182030417020202840002815D02E
:1045F0000420074378E0000094080000983A000087
:104600000202000080040000723A00005002000024
:10461000B8BF0010EC03000078C000102C216143EB
:10462000FE4A891808228A5E2C216143FB4BC91877
:104630000A23CB5ED1180291002901DB029901E027
:1046400002994942962913DB2C216143F34A8918C8
:104650000C228A5E2C216143F04BC9180E23CB5EDD
:10466000D018002801DB014600E04142962925DAF6
:1046700026A827AB28AA294600902046FEF7C0FEB0
:104680002C206043E54940181A302C216143E34A4D
:104690008918183127AB28AA009101902946204695
:1046A000FEF73CFE0320DE4908760321DD48017653
:1046B000DB484176DB48183041700AE01420D849C5
:1046C00008761421D7480176D5484176D548183068
:1046D0004170D54800784100D448405A40432E9953
:1046E000884201DC0820074327A828AB01940090EA
:1046F000CF48027839462846FEF721FD0746CD48C7
:104700008078002856D0289882B26846007E0C2116
:10471000484306A902310A52279882B26846007EB1
:104720000C21484306A902314018428020A8008B82
:1047300082B26846007E0C21484306A90231401827
:10474000828020A8008B002801D1002200E02A9A54
:104750006846007E0C21484306A902314018C280F9
:1047600002203843C2B26846007E0C21484306A9A5
:10477000023140180272FF2001302840002801D089
:10478000022200E001226846007E0C21484306A96F
:104790000231401842726846007E0C21484306A947
:1047A0000231401884726846007E401CC1B26846DF
:1047B00001766DE004203840002803D09D48C07980
:1047C00000280FD010203840002803D09948407AA4
:1047D000002807D008203840002859D09548007A92
:1047E000002855D1289882B26846007E0C214843A3
:1047F00006A902310A52279882B26846007E0C212F
:10480000484306A902314018428020A8008B82B29A
:104810006846007E0C21484306A902314018828078
:1048200020A8008B002801D1002200E02A9A6846C7
:10483000007E0C21484306A902314018C2800220A4
:104840003843C2B26846007E0C21484306A90231B3
:1048500040180272FF2001302840002801D00222B7
:1048600000E001226846007E0C21484306A902317F
:10487000401842726846007E0C21484306A9023166
:10488000401884726846007E401CC1B268460176BA
:10489000289801B22C206043604A80180183279831
:1048A00001B22C2060438018418320A81821415E6A
:1048B0002C2000E011E060438018C1802C2161436E
:1048C00089182598887702203843C1B22C2060438C
:1048D0008018C17700BF601CC4B20F2C01DAFFF74B
:1048E000EAFB55480079002816D0002410E0534810
:1048F000018D491E0C20604306AA0232105A081A84
:1049000082B20C20604306A902310A52601CC4B274
:104910006846007EA042EADC47484079002818D06B
:10492000002412E04548418D491E0C20604306AA30
:10493000023280184088081A82B20C20604306A90F
:10494000023140184280601CC4B26846007EA0421A
:10495000E8DC3948C07800281BD0002415E00C2082
:10496000604306A90231085A2E900C20604340187B
:1049700042880C2060430A520C21614306AA02328D
:1049800089182E984880601CC4B26846007EA042F8
:10499000E5DC002456E00C20604306A90231085AE9
:1049A00001B2049801800C20604306A9023140182E
:1049B000408801B2049841800C20604306A902316E
:1049C00040188188049881800C20604306A9023138
:1049D00040188179049881710C20604306A9023146
:1049E0004018017A0498C1710C20604306A9023175
:1049F0004018417A049801720C20604306A90231E4
:104A00004018817A0498417205980078401CC1B220
:104A10000598017004980A30049011E09408000091
:104A2000843A0000683A000002020000143B0000D3
:104A300058020000C83A0000103A0000CC03000001
:104A4000601CC4B26846007EA042A4DC0021059828
:104A5000415E08462FB0F0BDFFB509AC70CC002810
:104A60000ED1215E002901DA002121805100278822
:104A7000C91B09B219800021595E914200DD1A80DC
:104A80001F280FD10021595E002901DA0021198069
:104A900051001F88C91B09B221800021615E91422B
:104AA00000DD2280019900290ED1715E002901DA12
:104AB0000021318051003788C91B09B229800021AB
:104AC000695E914200DD2A80019933290FD10021CE
:104AD000695E002901DA0021298051002F88C91B55
:104AE00009B231800021715E914200DD3280FFBD4C
:104AF000002800D1FEE77047F0B5002315E082885A
:104B000004685A43A61800220AE054009500345F56
:104B10004F59002C00DA64423C19521C4C51D2B25D
:104B2000C4799442F1D85B1CDBB282799A42E6D810
:104B3000F0BDFEB50646002520206946887228464D
:104B400029468200401CC0B2B1505028F9D300243D
:104B500021463420FCF724FF0746C007C00FC019C8
:104B6000C0B200906846C772732189012046FDF7E4
:104B70001DF801900098410068460181A800811944
:104B800001A8FFF7B9FFE819641CE4B2C5B2042C10
:104B9000DED3FEBDF0B585B0342002904F495048B9
:104BA000039100784F49420051183625498A6C011B
:104BB0000191002802D14C48FFF7BBFF0020039968
:104BC0004200474E5318002136780A467700BC460B
:104BD00005E05700DF5F002F00DD79185219A2426F
:104BE000F7DB002E0DD0019A914230DB3D4F62463B
:104BF000D219D2884A43B919897B0A41002E0CD0B8
:104C000016E0394F8200BA580092019A9142EDDACB
:104C1000019F009ABA421ADBE8E73946FE88009FF6
:104C2000897B7E430E4131460096B24200DA0A4645
:104C300000210AE04F00DE5F002E05DD964201DB19
:104C4000B61A00E00026DE534919A142F2DB401CEF
:104C50000299C0B28842B2D305B0F0BD704799E75F
:104C6000F8B51E48009020208646362084461C4811
:104C70003424007841001B480818C78A0020614688
:104C800041434A000099531800210A4655005D5FD0
:104C9000002D00DD6918521CD2B2A242F6D3B942EF
:104CA00016DB0F4A0F4D16787200521952894A438B
:104CB000A919097C0A4100214E009D5F002D03DDEA
:104CC000954201DBAD1A9D53491CC9B2A142F3D3F1
:104CD000401CC0B27045D2D3F8BD0000003C00407B
:104CE000020200002C3A0000481A0000FE48FD496C
:104CF0000160FE49C160FE490161FE494161FE4912
:104D0000C161FE498161FE49CA88028509894185E0
:104D10002021203041743421817404214175817532
:104D2000F84836218180F84901607047F54AEE481D
:104D300006CA82604160F549F54B09784A00D218ED
:104D400092888285F34A1288C285F3484118E64862
:104D50008A792030C27409790175F049097D01749E
:104D60007047F0B51446E9B08E46844600223020E4
:104D70001546454360462B18187BC00720D05E8936
:104D8000570056A8C65397003AA85E69C651D60088
:104D90000AAF9869BF19D96903C722A9186A8E1981
:104DA0005F6A81C699785CA88154D97862A88154D9
:104DB0006046415D5FA88154597865A8815403E03D
:104DC0000020530056A9C852521CD2B20C2ACED38E
:104DD000714600208A780CE08300714659184B799F
:104DE00046AD5B1E2B5409794EAB491E1954401C2D
:104DF000C0B28242F0D800216EE04EAB46AD5E5CA0
:104E0000685CB446B04265D0654656AB6D0046005E
:104E1000AE469F5B5D5B7F199F53002675465E53D0
:104E20003AAB66468700B600DD599E59AD19DD5193
:104E3000C3009E460AAD7544664628CDF6000AAF0B
:104E4000BF190496C0CF9E197D410AAF77443E60DA
:104E50007D60734622ADEB181F685D68049E22AB2F
:104E60009B191E685B68BE195D41734622AFFB1833
:104E70001E605D605CAD63462E5CEB5C9E4200D2C2
:104E80002B5462AB65461E5C5D5DAE4200D21D5484
:104E90005FAB66461D5C9E5DB54200D91E5465AB96
:104EA00066461D5C9E5DB54200D91E54481CC0B2CA
:104EB00046AB4EAF0CE01E5C7D5CAE4201D15E5C49
:104EC0001E543E5CAE4201D15D5C3D54401CC0B2FC
:104ED0008242F0D8491CC9B28A428ED8002525806A
:104EE0008F4860802846632656AB3AAA4100595A3B
:104EF00000290BD02788B94201D92180064667884E
:104F0000B94203D2618081005158A160401CC0B2F7
:104F10000C28EBD3632E51D0B000175862A86760FD
:104F2000805DA0735CA8805D207365A8805DE073E0
:104F30005FA8805D60736C48FB1720300990407C4F
:104F40003A462946089305F0A2FE0290F00003912C
:104F50000AA906900918644E03C9328D2B4605F044
:104F600096FE039B029A05F0AAFE00B220820290F0
:104F7000009009983A46807C2946089B05F087FEF8
:104F800007460791069822A9091803C9728D2B4676
:104F900005F07DFE3A46079B05F091FE01B2618265
:104FA0000098002801DA258205E0308D029A8242BD
:104FB00001DB401E2082002902DA658269B0F0BD63
:104FC000708D8142FADB401E6082F7E7F0B5554BE9
:104FD00000241D785E7827E02F19BF00FF187F7925
:104FE0008F421FD12C1964B2A500ED180626AE5FC2
:104FF000964200DAEA80002C13DA9C781E2C10D23C
:10500000A400E418E2809A789200D218107198787F
:105010008000C01841715878401C58709878401C26
:105020009870F0BD641CE4B2A642D5D8E5E770B52F
:1050300030256943C4683039611804890825544310
:10504000E418CC800024E4430C8101248C818A7014
:105050000A700A71CB704B704B71455F5E0055430F
:105060006D004068AD19405F2F4D920052194861A4
:10507000526805465543EA178D61CA619A002B4B69
:10508000D21852685043C2174A6208624C8170BD00
:1050900000222449012803D0887808704A7070479C
:1050A0000A70FBE7F0B50446A9B000200C90207A06
:1050B000214620311D90887C0025821CD6B22268B2
:1050C0001018C01C26906069219020691190154825
:1050D0008570487C2590887C24900F218901206868
:1050E00026E0000090280040CC030000800400006F
:1050F000C00600001407000068070000F007000069
:10510000103A000034020000003C0040020200009F
:10511000843A000008020000AC3A0000D43A0000D3
:105120002F75000004040000B8BF001078C0001004
:10513000FBF726FA002081002269401C5550626965
:10514000C0B255501528F6D300203021414300222B
:105150000C31E368401CC0B25A520C28F5D3002031
:1051600097E11D99626848434000101828901199F2
:10517000219811902191002001468300119A401C32
:10518000C0B2D1501528F8D3019926987143401E1A
:1051900008182090002074E120982E22401C2090B6
:1051A0000298A25E4100289809180020085E8242F9
:1051B0007EDC029B219AD3185A78002A78D11D9A56
:1051C0003E2752000E928A1A1546403DEF5F8742F5
:1051D000EEDC0025555F8542EADC0225555F8542FD
:1051E000E6DC0A46403A3E25555F8542E0DC022275
:1051F0008A5E8242DCDC01229A700E9B3E275B189D
:105200001D46403DEF5F8742D2DC029F119DEA556B
:105210000E9D495F8142CBDC029D119949194A706C
:1052200002255D5F8542C3DC8A700C980C287CD215
:10523000401C2790C0B200900C98E1683022504387
:1052400008180C9001200F90A16901980870E1697D
:105250000298087020990098087000250098FFF7C0
:1052600017FF6F460ECF2046FFF7E1FE03E08028D0
:1052700001DB0546F6E0A069415D1C91E069269BD3
:10528000415D1F911C991D9848431F994200480099
:105290006168101840181C9932464A431F995918E2
:1052A00051180022825E6D1C0D922DB20E9A00E004
:1052B000E4E0821A944613920E9A8B1B1718821EF2
:1052C000801C1690481E1497059015926046039313
:1052D0008A19801E1790B81E049218906046801C90
:1052E0001990581E491C0790BF1C501E5B1C521C75
:1052F0000890069100201A9709930A920746229077
:10530000B90003A840588C460178002910D00098B5
:1053100081420DD0624613A880580022825E0D980B
:10532000824200DD0246009800E0A3E0FFF74EFE57
:10533000614613A840580021415E0D98814208DD66
:10534000614603A8405801780098814201D00120AD
:1053500022907F1C7FB2082FD2DB229800287DD1BB
:10536000810003AA52581378002B74D113AB5B58F9
:1053700000219C46595E2E23E35E99426BDB0D9B18
:10538000994268DC00991170FE490A5C1C99511819
:1053900049B21B91A3690F9A9954FB490A5C1F9962
:1053A00051184BB2E2690F999E4653540F996346C8
:1053B000491C09B20F910C99002249699A5E8A181A
:1053C0000C994A611B99F14A8900891800229A5E5A
:1053D00049680C9F5143BB69CA17FF69C9180C9BE8
:1053E0007A41DA61996173469900E94A0023891884
:1053F00062464968D35E0C9F59433B6ACA177F6A6D
:10540000C9180C9B7A415A6219620C990C9A498905
:10541000491C51810C9902228A561B998A4201DA51
:105420000C9A91700C9900228A561B998A4201DDD0
:105430000C9A11700C9903228A567146724502DA51
:105440000A460C99CA700C9901228A567146724517
:1054500001DD0C9A5170401C40B200E002E00828C7
:1054600000DA7DE70F98854200D000E72798C0B2A8
:105470000C9003E025980190249802900298401C1B
:10548000C0B224990290884200D285E60198401C5F
:10549000C0B225990190884200D262E6BD4ABE4959
:1054A000E068FFF75EFC0C9829B0F0BD30B5302401
:1054B000D3686043C0180624045F52686300D55E59
:1054C0004B00D35EAB4202DB0481C18030BD0824B7
:1054D000045F002C03DB6400125F9342F6DD018160
:1054E00030BDF7B584460C4602983025C368614646
:1054F00030206C434143A646CA18E41850696569D8
:10550000401950619069A669D569E76986197D419E
:105510009661D561106A266A556A676A86197D4167
:1055200016625562D089E5894019D081108A258A92
:105530004019108250896589401950819089A58948
:10554000284390810020A081022002251056655733
:10555000A84200DA9570032503205557205685424E
:1055600000DAD07070465D561856854200DD5854FA
:105570000121012051562056814200DD5070062144
:105580006046615EC0B2029AFFF790FF0821615E3B
:10559000002904DB6046C0B2029AFFF787FFFEBD18
:1055A000F7B586B006980C46069A0021C5682032E9
:1055B0007948059209E08A00121813795B1E13716D
:1055C00053795B1E491C5371C9B282788A42F2D862
:1055D000B8E00020844610793021484340194389BF
:1055E0005079484340194089181881B20420105658
:1055F0008646052010560090012031E0664A83005F
:105600009A1813793026029373435B195E89537994
:10561000302701937B435B195B89F3189BB28B4264
:1056200008D219460423D35684469E460523D356F2
:10563000009313E08B4211D1029E574B76450DD15A
:10564000019F009EB74209D10626965F62469200EE
:10565000D2180623D35E9E4200DAD680401CC0B228
:105660004D4A93788342C9D86046810010460F188E
:1056700004260520BE5738560090864257D006981B
:1056800006214268302070434019415E844648003C
:1056900000993023594349190623CB5E105E5B0005
:1056A000D25E904200DD1046059AD27C42430598B6
:1056B000007D02410620385E824212DD604642696A
:1056C0000698808D82420CDD4A69824209DD0A22F9
:1056D0008A5E60460A21415E05985118007C81422D
:1056E00025DB3146069A0098FFF7FBFE2A49641E27
:1056F0008878E4B2800040180288BA804088F88038
:105700008878401E8870009A0020D3B20BE0820097
:1057100052181779B74200D113715779B74200D1A7
:105720005371401CC0B28A7882420BD9EFE71A4805
:105730008178890009180A88BA804988F9808178B7
:10574000491E8170144A9078002800D041E727460E
:10575000002613E03020784340190090007BC007FA
:1057600008D109E0302070434019007BC00719D0F0
:10577000761C76B20C2EF5DB7F1CFFB20C2FE9D322
:1057800000200BE0160200001E020000B8BF00104F
:1057900078C00010B8030000040400000899074610
:1057A000086050E030207043401930220099FAF729
:1057B00049FF00200099761C888176B2DCE7302012
:1057C00078434619307BC0073BD070690090029047
:1057D000C0170190F169B069019B009A05F06FFA5A
:1057E000059A527D05F040FA00B23085049003908E
:1057F000716A306A019B009A05F061FA059A927D00
:1058000005F032FA01B271850398002801DA002010
:1058100005E00698049A008D824201DB401E308527
:10582000002901DA002004E00698408D814201DB66
:10583000401E7085089801680298814201DA089933
:1058400008607F1CFFB2A742B9D3204609B0F0BD63
:10585000594800218170491EC170017141718171E7
:105860000A21016155498A8902810A894281098890
:10587000818153490988C1817047F0B501460020F4
:10588000012925D000224C4D4E4B2A704F4C1E88CA
:1058900024884D4B1146A4462C270C467C431F5BA5
:1058A000FF050FD5E4181D27E75730246743484C00
:1058B0003C190A27E75FB74204DC6469644501DCF0
:1058C00001200246491CC9B20F29E5D32A70F0BD58
:1058D000FFF7BEFF0020F0BDF0B5012817D0364914
:1058E0003D4E0B4605251C698F785D5739480A22C5
:1058F00036780023641C002F0AD0012F2CD0022FF1
:1059000005D10C61002D2FDB012088700B61F0BDEB
:105910000C61002D05DB01248C700624C480827389
:10592000F4E72E4B1B78002BF1D00223002E8B7056
:1059300004D01821C1808273428205E00621C18013
:10594000FF218273913141827D211C48C900016190
:10595000018823484181F0BD0B61002DFBDA8B707B
:105960000621C1808273F0BD1D4C2579002DFAD12E
:10597000002E8B7003D01825C580827304E00625A5
:10598000C5808273FF22913242820C480A8982814B
:105990004A8902818A890280094DCA892A80114A6E
:1059A0000261114A127880182030007A60810F4A13
:1059B000052010724B70F0BDC8020000483A00008C
:1059C000843A000014020000940800001202000053
:1059D000800400002C3A0000030200002E020000A8
:1059E00078080000B80B000002020000003A000036
:1059F000F8B50024FE4F1D2625467601E0B2394653
:105A0000FCF7D4F800228554521CB242FBDB641C24
:105A1000042CF3DBF8BD10B5FFF7EAFF3821F54899
:105A200005F0EDF9F3480121203081740022C274A1
:105A300042758175C175F04868238381EF4BF04C46
:105A40001B7803753423437401740460EC4CA03458
:105A50004460C381EB4B1B7843828260EA4801704B
:105A600010BDF0B5438A81685B4300292AD000222B
:105A700024E081890468514361188C46C1894468D7
:105A80005143651884686618002112E0745C002C8C
:105A90000DD14C0067463C5F64439C4201D9002411
:105AA00004E06C5C077DA74201D9641C6C54491C5E
:105AB000C9B2447C8C42E9D8521CD2B2017C9142DA
:105AC000D7D8F0BD00221DE08189046851436618D3
:105AD000C18944685143651800210EE04C00345FD1
:105AE00064439C4201D9002404E06C5C077DA7421A
:105AF00001D9641C6C54491CC9B2447C8C42EDD859
:105B0000521CD2B2017C9142DED8F0BDF0B5BF4844
:105B100087B0027A69460A7520220A740024008838
:105B2000732748822646BF0121463420FBF738FF01
:105B3000C107C90F0918CDB26946487439462046D5
:105B4000FCF734F80090680069468881A84920462F
:105B5000FCF72CF801906946CD8168460296FFF764
:105B600080FF641CE4B2042CDED307B0F0BDA14872
:105B700000212030C175704730B59E48002220308A
:105B8000A349C2740B684968CB42A24BDB680ED4B0
:105B900001E0012100E00021C174C9B20123002904
:105BA0000CD0417D032905D8491C417530BD99426F
:105BB000F1DAEEE798494B70427530BD4275837556
:105BC00030BDF7B5954D83B0690C8E4600218C46EB
:105BD0000C4601910B4600913EE0818802685943D2
:105BE00051180022029132E002995700C95FA94280
:105BF00001DD0D4602E0714500DA8E46C7888F420E
:105C00000CDC66467618B446049F9600BF59641CA7
:105C10007918049F24B2B951049911E00827C75F8D
:105C20008F4212DB019F96007F180197009F7F1C17
:105C30003FB20097059FBF597F1805998F5105996D
:105C4000FF3101310F6C7F1C0F64521CD2B2C17A3C
:105C50009142C9D85B1CDBB2817A9942BDD8C16838
:105C60004D81C26871461181C26861461160C26887
:105C700001995160C1688C81C0680099C18106B0EA
:105C8000F0BDF0B589B01F46144620236A469372D2
:105C900004AA03926A461181D0800020E081A0818D
:105CA0005E496181490C21816060014620608A0063
:105CB000B8500E9B491CC9B298505029F7D90025FD
:105CC0002E4603990020C88103998881039A53497D
