:10000000F01F0000150000100000000000000000BC
:1000100000207047F8B519482921490608620120D7
:1000200008600020486138200863092088600F209C
:100030000861002008613F20C861FE20C8600420DC
:10004000486000BF00BF00BF00BFFFF7E1FF0090A6
:100050000B48456800260746002404E0A0003858F5
:10006000A1007050641C282CF8D300204560A847DC
:1000700000BF00BF00BF00BFF8BD0000A07F0000B0
:10008000000400100000000000000000000000005C
:100090000000000000000000000000000000000060
:1000A0000000000000000000000000000000000050
:1000B0000000000000000000000000000000000040
:1000C0000000000000000000000000000000000030
:1002C000000300000000000000000000000000002B
:1002D0000003000000B900000003000000B90000A6
:1002E00000C000000004000001000100030104013F
:1002F0000101424C4144453361000000010003000C
:1003000000000000000000000000000000000000ED
:1003100000000000000000000000000000000000DD
:1003200000000000000000000000000000000000CD
:1003300000000000000000000000000000000000BD
:1003400000000000000000000000000000000000AD
:10035000000000000000000000000000000000009D
:10036000000000000000000000000000000000008D
:10037000000000000000000000000000000000007D
:10038000000000000000000000000000000000006D
:10039000000000000000000000000000000000005D
:1003A000000000000000000000000000000000004D
:1003B000000000000000000000000000000000003D
:1003C000000000000000000000000000000000002D
:1003D000000000000000000000000000000000001D
:1003E000000000000000000000000000000000000D
:1003F00000000000000000000000000000000000FD
:10040000F01F00006F350010000000000000000029
:1004100000000000000000000000000000000000DC
:1004200000000000000000000000000000000000CC
:100430000000000000000000F10500102580001001
:100440002D3000106D3500106D3500106D35001029
:100450006D350010F9270010E12B00109D1E0010D3
:100460006D3500106D3500106D3500106D350010C4
:100470006D35001079270010BF1E0010E11E00101E
:10048000031F00106D3500106D3500106D35001024
:100490006D3500106D3500106D3500106D35001094
:1004A0006D3500106D3500106D3500106D35001084
:1004B0006D3500106D3500106D3500106D35001074
:1004C00003B40148019001BDC100000003B401481C
:1004D000019001BD011F000000F002F800F040F89B
:1004E0000CA030C8083824182D18A246671EAB4649
:1004F00054465D46AC4201D100F032F87E460F3ED4
:100500000FCCB6460126334200D0FB1AA246AB46BA
:1005100033431847ECB900004CBA0000103A02D33C
:1005200078C878C1FAD8520701D330C830C101D594
:1005300004680C607047000000230024002500269A
:10054000103A01D378C1FBD8520700D330C100D58F
:100550000B6070471FB5C046C0461FBD10B510BD2B
:1005600008F0E0FF1146FFF7F5FF03F016F808F07A
:10057000F8FF03B4FFF7F2FF03BC03F02EF800000E
:10058000FCB40022002300240025002600270629B1
:1005900002D4FCC00639FAE7002902D004C00139B0
:1005A000FAE7FCBC7047000002B472B60178013172
:1005B000017062B60139080002BC704702B472B61D
:1005C00001780139017062B6080002BC7047000072
:1005D00062B6704772B670471C3880F3098870475E
:1005E000014802490160704704ED00E0000000107E
:1005F000114B1968114A1268914216D0EFF3098025
:1006000020380860F0C044464D4656465F46F0C06C
:100610001A6010681030F0C8A046A946B246BB4622
:100620002038F0C8103080F30988054B002018707E
:10063000042040420047000048020000440200003D
:100640003502000070B505460C46164602E00FCC98
:100650000FC5103E102EFAD2082E02D303CC03C5CC
:10066000083E042E07D301CC01C5361F03E02178D4
:100670002970641C6D1C761EF9D270BD7FB50025F3
:100680005C0002260095802833D08B2830D10429C5
:100690002ED1D807C00FC0181A4940004118009148
:1006A000890704D00099C91C890889000091001DA0
:1006B00069460881009800281AD0134824214180F7
:1006C000472145600170082141700F480021083022
:1006D00001906846867344814373027302F078FE8A
:1006E0000021022002F07EFC0121022002F07AFCAF
:1006F0007FBD0029FCD1012080070090684604815D
:10070000DBE70000963D0040905B0040012110B502
:1007100049034804FFF734FF00201449144B0870C4
:100720004870887001221A70124A1080124A108094
:10073000124A1070C87010BD10B5FFF7E7FF1049DE
:100740000020C8716031088205F0F1F804F06CF8FF
:1007500001F008FA0B490C4805F09BFB03F083F805
:1007600005F00AF807F027FD10BD00002101000088
:100770003F0100006C0200006001000078010000F1
:1007800000090000481C0000841C000010B504464D
:100790000020012260649207E261A064504A626313
:1007A000504AA2634F4A34230832E2632246403261
:1007B000137020235370E0641082012262651023BD
:1007C000662213552061002901D001F0CFF9464877
:1007D0004078208301F0C0F9007F606001F0BCF92F
:1007E000407FA06001F0B8F9018A204604F070FE55
:1007F00001F0B2F95521417010BD10B53B4C0021FC
:10080000207806F08BFF002802D0002003F07CFF48
:10081000207807F040F8012010BD10B5112806D04F
:10082000122803D13249082002F0DCFB10BD304908
:100830000420F9E7C00601D5012070470020704769
:100840002C4801F0E4FA01F009FC01212848FFF7E7
:100850009DFF0021084606F079FE27490870012116
:10086000084606F073FE2549214C254E1E4D0870A2
:1008700060341F4800F08BF90020305E002802DB56
:1008800001F00BF9F5E72878FFF7D4FF00280CD129
:100890006878002809D0A0790009000110280CD040
:1008A000802810D0002003F02FFF2878FFF7B5FF35
:1008B000FFF7A3FF0028FBD0DBE7802210210C48C4
:1008C00000F0E4F9F1E76078002804D0084800F06F
:1008D0005CFC00206070064800F004FAE5E70000C8
:1008E000E0230040905B0040101C0000C5010000A8
:1008F000A0080000903800407901000020010000AD
:1009000080010000F1B501F027F90446AC4F012643
:10091000AC493E7080206034087001F01DF9203031
:1009200000250571A7487821417001F015F92030A4
:10093000857101F011F92030C57101F00DF986774C
:1009400001F00AF9C57601F007F92221417001F0A2
:1009500003F9067601F000F92021418201F0FCF84C
:100960000521017501F0F8F8457501F0F5F8203022
:10097000C57101F0F1F8C57501F0EEF8867601F069
:10098000EBF80921817501F0E7F8467601F0E4F80B
:1009900020300521417101F0DFF8032101708A4800
:1009A00020606060A060E06020616061A061E06143
:1009B0002062A562E56225636563A563E56325643E
:1009C0006564A564E56460627320000220657F4869
:1009D00060657F48A06500997E480B0008F024FE02
:1009E00008050C171C1B28474C1B056145618561D8
:1009F0000562456285620AE00561456185610562BF
:100A00004562856201F0A8F8FF21913102E001F012
:100A1000A3F864210182F8BD056105624561456264
:100A20008561856201F098F8203003218171EEE73D
:100A3000FF2029214906C86067497E70102088631D
:100A40000863032002F00CF901F086F89A21018274
:100A500001F082F88021418201F07EF807210175C2
:100A60005E48A06101F078F806210170F8BD07200A
:100A7000FFF748FFBE7006E00561456185610562CC
:100A800045628562FE703D70F8BDF8B50446C0341D
:100A9000618A534B4B4DCA1A494F002699423AD0AE
:100AA00007DC504A89183ED001292FD002296CD189
:100AB00066E0012A45D00B2A67D105464035288AD1
:100AC000002804D101F048F82030C079387101F0D5
:100AD00043F820300121C171288A401C80B228824D
:100AE0000A2801D20120F8BD01F036F8203039790A
:100AF000C1712E820C2007F0F4F80020C04302F0F0
:100B0000A3FE01F029F8162141703EE07D2000018E
:100B100002F094FE39E0A08A062836D80820287012
:100B2000A08AF88031E000F08DF92873FF2153206E
:100B3000000641600422026241628662C66201636D
:100B400023E001212973603041702748017001F0D2
:100B500003F82221417000F0FFFFFF210F310182D5
:100B600022481E2101804180FA218180C180042118
:100B70000175417500F0F0FF782141822E7004E08C
:100B80001021297000F039FFE8606682AAE710B5ED
:100B90000446FFF77AFF00F0DFFF4078552809D0C0
:100BA00000F0DAFF0648C178012905D0002120466F
:100BB000FFF7ECFD012010BD0021C1700121F6E717
:100BC0007A010000101C0000CCCCCCCC72011000CB
:100BD000CDCDCDCD40000052C00300553074000093
:100BE00004080000FFF7FFFF78010000841C0000EC
:100BF00053200006816AFC22114381621C490120B6
:100C000002F0F0F904F093FE03F00EFE00F0AAFFEC
:100C10001849194805F03DF902F025FE04F0ACFD35
:100C200007F0C9FA154C164D164E1749207806F0F4
:100C300075FD002802D0002003F066FD207806F044
:100C40002AFE0B4800F09CF80746287806F02BFE99
:100C500000F082FF007B0028E7D130780028E4D143
:100C6000002FE2D00249012002F0BCF9DDE70000CC
:100C7000A0080000481C0000841C0000790100004E
:100C800020010000101C00008096980010B503465B
:100C900060331C469A710902354B1143CA1A9942B6
:100CA0001AD00ADC334A891A11D001225203891A58
:100CB0000DD03148081805D107E0FF2A05D0FF3ACA
:100CC000FD3A04D0002003F01FFD012010BD00F00C
:100CD000ECF88120A071F8E7284841780B2001F05A
:100CE00089FEF2E770B5054604466035A87981288B
:100CF0000AD083280ED084282ED0852807D0002043
:100D000003F002FD012070BD832281212CE08022AE
:100D1000852129E0204600F05EF900F01DFFFF303C
:100D200001300078E16C884202D2842283211BE0EA
:100D3000124800290ED04478E879002805D100F047
:100D40000BFFFF21183141560C1921460B2001F0F1
:100D500051FED7E74178F9E7204600F03CF9E06C16
:100D60000028CFD1832284212046FFF78FFFC9E7D7
:100D70008483000080100000FDAEFFFF101C000007
:100D800070B5044607F002FA03F007FD2748342344
:100D9000007820220421FFF771FC03F066FD24484F
:100DA00003F01DFF234D01462870234A204804F01C
:100DB0008EF928701E482C21415E406805F030FFF6
:100DC00006F0E5F903F081F91C490A68521C0A6033
:100DD0001B490A78002A04D000250D7000F002F8A3
:100DE000A56470BDF8B500F0BBFE0146FF3133319C
:100DF00000230A46123A10251374184612260B4C8B
:100E00000DE00B804B808B808B7148720D72CF7917
:100E10003743CF71177C0A317F1C1774401CA778A9
:100E20008742EED85374107CF8BD0000101C0000FF
:100E3000800200004C010000500100000C1C00006A
:100E40007001000010B50120FF23532109064B60FB
:100E500004220A624B6200228A62CA620B630A623F
:100E6000FD244C604C620224CC608C618A62CA62B0
:100E70000B638C68CB620A63896810BD10B50021D2
:100E800000F0E7F90021072001F0B4FD012010BDBA
:100E900010B5044600F0D6F90321052001F0AAFDA3
:100EA0002046FFF7EBFF012010BD10B5044600F00F
:100EB000C9F90321052001F09DFD2046FFF7DEFF63
:100EC000204600F062F9002060346070012010BDFF
:100ED0000120704710B50321052001F08BFD012092
:100EE00010BD10B5084606F0DEFC10BD704770B5A9
:100EF00004462948007801283DD006260321052014
:100F000001F078FD5220005D244D002811D0287892
:100F100006F0C1FC032309220221204600F0B5F9A6
:100F20003146287806F0FAFB002802D0002003F0B2
:100F3000EBFB287806F0AFFC0323092202212046B0
:100F400000F089F901232A780021204600F0D9F920
:100F50003146287806F0E2FB002802D0002003F09A
:100F6000D3FB0321062001F045FD00F0F5FD606C88
:100F7000002806D101E06426C0E709480078082867
:100F800004D1084801782046FFF7ABFF606C401C95
:100F90006064012070BD00007A010000C4010000FF
:100FA000101C00007901000010B50146012001F07D
:100FB00021FD10BD10B50A46FF2100233D310B5421
:100FC00004466021DC340A5408F03BFB2146022031
:100FD00001F010FD10BD30B504469DB00321052081
:100FE00001F008FD00212046FFF7E4FF8C4D287832
:100FF00006F051FC2046FFF7D7FF6421287806F061
:101000008DFB002802D0002003F07EFB0321062088
:1010100001F0F0FC4020834D035D28782822002158
:10102000FFF72CFB01F099F82878862809D101F008
:10103000ABF80021022001F0D5FF0121022001F0D0
:10104000D1FF79486421007806F068FB002802D0BF
:10105000002003F059FB754802798178007801F08F
:1010600086F828788A2809D101F099F80021022011
:1010700001F0B8FF0121022001F0B4FF04F091FC5F
:1010800004F011FE6A48817D00291BD0C07D002834
:1010900018D0684968483423202209790BAD0FC560
:1010A00063492C2214396846FFF7CCFA604820388F
:1010B0000EC80FA804F053FE5D4838220FA920384F
:1010C000FFF7C0FA01F075F85C4801782046FFF799
:1010D00008FF00212046FFF709FF606C401C606498
:1010E00001201DB030BDFFB581B0002421460A9813
:1010F00000F0ACFEC107C90F0818049EC0B24643F9
:101100002046019900F099FF00902046029900F0D6
:1011100094FF0746002509E00098A900405803996C
:10112000C00007F043FB690078526D1CB542F3DB49
:10113000641CE4B2042CD9D305B0F0BDFFB581B076
:1011400000242146049800F081FEC107C90F081849
:10115000C5B2039802994543204600F06EFF06464B
:101160002046019900F069FF0146002006E0820058
:101170004700B358CF5FDB19B350401CA842F6D3E9
:10118000641CE4B2042CDCD3D6E7F1B582B00321B1
:10119000052001F02FFC224E307806F07CFB002465
:1011A0007327BF0100210298FFF704FF0298FFF7A1
:1011B000FBFE6421307806F0B1FA002802D000204E
:1011C00003F0A2FA00F0C9FF022C07D373203423E6
:1011D000202239464001FFF7B1FF0EE0002C0CD170
:1011E00000252946342000F031FE420139462846C8
:1011F00000F01AFF6D1C042DF3DB641CE4B2122C0A
:10120000D0D334200090202310220D493846FFF718
:101210006AFF0321062001F0EDFB0120FEBD000066
:10122000C4010000101C0000200100002C1C000064
:1012300078080000200600009008000079010000F6
:101240009015000010B56821683007F0A3FA01205E
:1012500010BD0120704770B5054604466030C1706E
:101260000271FF21437101223D310A5502210170B3
:10127000DC35204608F0E5F92946022001F0BAFBEA
:101280002146012001F0B6FB70BD70B5054604464D
:101290006030C1700271FF21437101223D310A5556
:1012A00005210170DC35204608F0CBF929460220E3
:1012B00001F0A0FB2146012001F09CFB70BD70B540
:1012C00004460846FF2100223D310A556021085599
:1012D0002646606CDC361D46002806D1204608F004
:1012E000B0F93146022001F085FB2146012001F0D2
:1012F00081FB0446002D02D0002003F005FA2046B1
:1013000070BDF8B50546DC3504460E461746002B81
:101310000BD00621104606F001FA002802D000206A
:1013200003F0F2F9384606F0B6FAFF2000213D300E
:10133000015560200655204608F083F92946022011
:1013400001F058FB2146012001F054FBF8BD0000DC
:101350002F20FF4940060860002181800181C18063
:101360004181FC490A78827349781346C1734B4323
:101370008381CB07DB0FC91851434A000261F6494C
:1013800052080162103289188908890081615C3134
:10139000C161A0314161704730B5F04900200A02B7
:1013A0000D24E4014300CD5A801CD552A042F9DB44
:1013B00030BDF3B5012081B01025E94E00240F4661
:1013C0000090002919D0012F17D0022F15D0032F1C
:1013D00017D00020009000210198FFF7D7F901985D
:1013E000FFF74CFD00210198FFF7E4FDDD4D287863
:1013F00006F051FA032F0BD01EE00846FFF782FAE1
:1014000004E00846FFF77EFAD74804603570E2E74B
:10141000D6488169D6494C60D54940314C60D449A1
:1014200080314C60D249C0314C60D2494C60D149C6
:1014300040314C60D04981610198FFF7B5FD6421CE
:10144000287806F06BF9002802D0002003F05CF940
:10145000CA48CC490470CA4804700020C0430880C0
:101460000098FEBD0021C848A3E70121C648A0E7B7
:1014700070B5C64DB64C0026606828612862A06829
:1014800068616862E068A861A8620221BE48FFF74F
:1014900090FF012E12D00D2212029105AF48FFF7E6
:1014A000D1F86068761CC0436060A068C043A0604B
:1014B000E068C043E060022EDEDB70BDFFF76CFF2A
:1014C000EFE710B5032001F0CBFB0321AE48FFF797
:1014D00070FF002001F0C4FB10BD9D4800688188AA
:1014E000828991420ED1C27B01895200914209D179
:1014F000827BC1885200914204D14089002801D0EA
:101500000120704700207047FFB5914883B0016803
:10151000C97BCA07D20F8918CCB200251EE0284625
:101520006043049940004118019103990026401836
:1015300000900CE000987700C05F01996422C95FB9
:10154000504307F033F90099761CC853F6B280482F
:101550000068C07BB042EDD86D1CEDB27C4A1068CB
:10156000807BA842DBD8002020E00D9900230B549B
:101570000699095C002917D1450011E00B46634329
:101580005F00049B7689FB18F7005B5FBE1B0A2790
:101590007B439E4202DD0D9E01233354491CC9B298
:1015A0001668B37B8B42E9D8401CC0B21168C97B76
:1015B0008142DAD8002026E00C9900230B540599CB
:1015C000095C00291DD1034663435D00039BEE18AF
:1015D00013E03F6A45437D194B00F35E4D5D0A27DA
:1015E000ED007B439D4206DD0D9B5B5C002B02D131
:1015F0000C9D01232B54491CC9B21768FD7B8D42F9
:10160000E7D8401CC0B21168897B8142D4D807B0AA
:10161000F0BDF0B586464E488C460168C97BCA07C6
:10162000D20F8918CCB200221FE0002163469954E2
:10163000560071467518002310E0C8690C21875BBD
:101640004F43214659434900685E0A2141438F4276
:1016500002DA01216746B9545B1CDBB23C480168E1
:101660008F7B9F42E9D8521CD2B239480168C97BAE
:101670009142DAD8F0BDF3B5354A8E461068C07B8A
:10168000C107C90F4018C0B2844600201FE00021E6
:1016900073461954614641434B0000995C1800237E
:1016A00045000EE0B6690D27765B0A217E435F0098
:1016B000E75F4F43BE4202DA012671460E545B1CBF
:1016C000DBB21668F77B9F42ECD8401CC0B21168B1
:1016D000897B8142DBD8FCBDFEB51D4C204D2068C6
:1016E000C07BC107C90F4018C6B200202873FFF79E
:1016F000E8FE27680121B87B00907043420089070B
:101700001648FEF79FFFF97B786941180098091881
:101710001248FFF7B0FFFFF7ABFE27680121B87B47
:1017200000907043420089070C48FEF78BFFF97B5D
:10173000786941180098400009180848FFF769FFC8
:10174000FFF790FE206801210269890703481FE026
:1017500084010000D01E00002400005E0000405EF6
:10176000101C0000C4010000CC0100004001005525
:101770000000405300014053FF0F00007A010000B9
:101780007B01000080010000A00800004000005222
:10179000FEF758FFFFF769FE2268917B50690090C1
:1017A00043180193D27B80184A0083184218DD4900
:1017B0000802FFF7A9FE102028702068C17B827BF9
:1017C00089184A004169D84806F07CFF0120287337
:1017D0000020FEBDF0B5D54C054620680E46002819
:1017E00001D1FFF7B5FD2068C188807B4919400011
:1017F000814202D90020C043F0BD002217E02168D9
:10180000C8888969801880B2C30706D040084000A4
:101810000B5AB75CDBB23F0205E0400840000B5AB0
:10182000B75C1B0A1B023B43521C0B5292B2AA42EA
:10183000E5D32068C1884919C1800020F0BDF0B50A
:10184000BA4C054620680E46002801D1FFF780FDFE
:1018500020680189C07B49194000814202D90020DB
:10186000C043F0BD002217E021680889C9698018CB
:1018700080B2C30706D0400840000B5AB75CDBB209
:101880003F0205E0400840000B5AB75C1B0A1B02F0
:101890003B43521C0B5292B2AA42E5D32068018905
:1018A000491901810020F0BD0878497809024018E3
:1018B0009E49096848810020704770B59B4C0546D9
:1018C00020680E46002801D1FFF742FD206881887C
:1018D00083894A199A4202D90020C04370BD006A28
:1018E0002A464018314606F0EDFE206881884919E5
:1018F0008180002070BD10B5FFF72AFD8C498D480E
:10190000FFF7DBFF8A4902206239FFF7CDFF8849E4
:1019100022202239FFF793FF85493E206039FFF7E7
:1019200059FF82480068FFF7D7FE10BDF8B50520C3
:10193000FEF7E8FF0025804E7C4C012720693061CE
:101940003062606970617062A069B061B06202214A
:101950007A48FFF72EFD012D17D00D2212029105B6
:101960007048FEF76FFE20696D1CC04320616069FE
:10197000C0436061A069C043A0617148022D077037
:10198000DCDB002001F06CF9F8BDFFF705FDEAE7AC
:1019900001239B07FF3030B5213000210A46242463
:1019A0005443E51822242C5F521C6118D2B2212A1C
:1019B000F5D3CA17D20E52185311624A914200DB76
:1019C0001146934200DB13460183438330BD10B5BB
:1019D00006215A48FFF7EDFC5848FFF7D9FF5A484F
:1019E0005149408B103908830021022001F0FAFA96
:1019F0000121022001F0F6FA10BDF1B582B00120FC
:101A000001908007484D00900024464E0835032180
:101A1000052000F0EFFF0D273F023946284606F06B
:101A2000B7FE3946304606F0B3FE484F387805F029
:101A300032FF0298FFF7B8FA6421387805F06EFE9D
:101A4000002802D0002002F05FFE092C1CD90022E1
:101A500050000099335A095A591A2B5A01D40F468B
:101A600000E04F42BB4205DA0A2C03D0002900DA1D
:101A7000494229520D20521CC0018242E8D3420043
:101A80003046009906F01EFE641C6E2CCDD300215A
:101A9000022001F0A7FA0198FEBD10B52C480024E1
:101AA000045F230007F0C0FD0705080B0E11141793
:101AB0001900FFF7D7FC10E0FFF7D7FC0DE0FFF7A8
:101AC000D7FC0AE0FFF7FDFC07E0FFF714FF04E096
:101AD000FFF72CFF01E0FFF77AFF0720FEF712FF68
:101AE00001211648FEF752FE042C08D013480021AD
:101AF00040300378A030427D8020FEF7BFFD1549BD
:101B00000120087310BD10B512480921074A017061
:101B1000126801211160002101730320FEF7F2FE1B
:101B200010BD00000000405E905B0040840100009A
:101B3000269B00100F02000040000052A008000089
:101B40007B010000FF7F0000C0090000C40100000D
:101B500080010000101C00006B4870476B48704704
:101B6000694870476A49002008607047F8B56648C0
:101B7000654960300746002249780646203F403ECE
:101B8000154655297ED062495523091D0D705E49C1
:101B900060244B7003230B700D73ED230B824023E5
:101BA0004B8206230B754D7504238B75CD75012370
:101BB0000B764B768B76CD7632230B774B774C8436
:101BC0000446A034E3750123337103237371F57167
:101BD0008D77B571BD54521C202AFBD34D4901604D
:101BE00041608160C160016141618161C1610162E7
:101BF000416249498162C162016341638163C1639A
:101C0000016441648164C16444490165444941659A
:101C1000444981653D481023923843776421817798
:101C20001421C1773C272030077007210174014639
:101C300002222031D2430A7035494570091D487887
:101C400060800220207620703222627020716371E1
:101C5000A0710320E0718C20208227750520A074DC
:101C6000C01FA075401060750889342106F094FDEE
:101C7000E07467761420A076E076277765770120F8
:101C8000A07700E003E0E0772048123807701E4894
:101C9000807F042800D1B5711C4820217E3001705E
:101CA0003421417020490A8D82824A8DC2828A8DF8
:101CB0000283CA8D42830B46203302461C7C2032AD
:101CC00094705B7CD3700A8F828400228B1820333F
:101CD00084189B7C521C2377062AF7D3002104E04A
:101CE0004A00121815715571491C82788A42F7D83A
:101CF000F8BD002006490246091D0B18401CC0B261
:101D00001A730C28F9D37047201D0000521E0000E2
:101D10000C1C00006666666611111111207400002B
:101D200072011000CDCDCDCDC00200100A04120EFC
:101D3000344B1204090618401043090D084370473C
:101D4000F0B59C4693046446DB0CA4052343059C34
:101D50008500E405A40A23432B4C88006659FF3014
:101D600081303350082901D2002000E004200126F0
:101D7000130CB603B34201D1002300E00223520446
:101D8000D70F4200891A1F4389000F228A40064656
:101D900063595836B6469E598F4096433E431F4678
:101DA0007346FE50064663596036B6469E591F4636
:101DB000059B9643DB041B0F8B401E433B46774637
:101DC000DE51645968302358934362469204120FDF
:101DD0008A4013432350F0BD0D239B06C9180160B0
:101DE0004260704710B59204D20C9B05029C1A43C6
:101DF000E3059B0A1A430D239B06C9180160426044
:101E000010BD00000FF000FF389D0010FEE7032119
:101E10008907012210B54118D203914200D3FEE791
:101E2000884C002121706170A1606060084686497D
:101E300001228300CB581A61401CC0B20428F8D399
:101E40000021012005F082FBA07010BDC208D20065
:101E5000821A12067D4B920DD218C008515C4000C8
:101E60000818C0B2704710B5764900201431754C7F
:101E70000860E07818214843754940188268002AB4
:101E800004D02169E0689047002806D005F0E2FA06
:101E9000A07805F02FFD05F0E2FA10BD6A49086848
:101EA0004069C0070AD0096801208861654914317A
:101EB000087008686749884200D1D4E770476249D2
:101EC00048684069C0070AD04968012088615D49B7
:101ED0001431487008685F49884200D1C3E77047F1
:101EE000594988684069C0070AD08968012088611B
:101EF00054491431887008685649884200D1B2E7C5
:101F000070475149C8684069C0070AD0C9680120B4
:101F100088614C491431C87008684E49884200D124
:101F2000A1E7704770B5474C054620780A2800D3D2
:101F3000FEE76969CA0700D0FEE7A2688918012296
:101F40009202914200D9FEE718214843404E0A46CA
:101F500080192946FEF776FBA168606818224018B0
:101F600021785143891908616A69296906F0AAFB39
:101F70002078401CC0B220706969A2688918401E90
:101F8000A16070BD30B40C4611462E4A12788242D0
:101F900000DCFEE7182250432D4A1358002B02D0D4
:101FA000204630BC184730BC01207047F8B5254C9E
:101FB000054620780E461746A84200DCFEE760780A
:101FC000002800D0FEE7E5702761E660A07805F004
:101FD00062FC182045431E4839462D186A68304671
:101FE00090476421A07805F099FB002800D0FEE717
:101FF0001449002014310860EA68002A02D03946EA
:10200000304690470020F8BD0E481821C07848435C
:102010000F494018006970470A481821C0784843A2
:102020000B4940184069704710B50B4B8000185899
:1020300040181146FEF7A4FA10BD074A8000105858
:1020400040187047A0010000389D0010589D0010F6
:10205000E009000001010101489D0010F8B5FF4FA3
:10206000FD483426F86020257E823D7500242146F7
:102070003420FFF7EBFE39190872C107C90F401869
:102080006100641CE4B27852042CF0D37320400148
:10209000388201207875F14CF1481834801CE060DA
:1020A000362060822575002739463420FFF7CEFEA2
:1020B000E1190872C107C90F401879007F1CFFB2EF
:1020C0006052042FF0D3BB20800120820027677567
:1020D000E448FFF727FFE44C0121A060DF488907AF
:1020E0002C38016086800121C18073214901418122
:1020F00007810721017345738173DA49C673077637
:10210000183101613431416108467C38FFF70AFF1C
:10211000D24A2060103A11461C39FFF733FFCF48EE
:102120007321490130300180D0494180D0498180FC
:1021300073218901C180078189104181BB218901F7
:102140008181032181730821C173C5740675C54857
:102150001838FFF7E7FE6060F8BDC04A10B5103AC6
:10216000C14811461C390068FFF720FF10BDBB4B6A
:1021700010B53033187459749A74BB48002219464C
:102180004068FFF713FF10BD10B57320B34940013D
:102190000882B54800228068FFF708FF10BD10B51F
:1021A000AE49B3480882B04800228068FFF7FEFEBF
:1021B00010BD10B5A949AC48002218318068FFF75E
:1021C000F5FE10BDF0B585B00446FFF71DFF0546CE
:1021D000012180B20027C907039040180290207D9A
:1021E0003946FFF733FEC107C90F0818C0B2019086
:1021F000E07CBE004006410C019801439D48805997
:102200000164FFF709FF039941189A48805941601A
:1022100098490298895988609649002089594864EC
:1022200001260096014622883846019BFFF788FD6B
:102230000096628801213846019BFFF781FD0096D8
:10224000A28802213846019BFFF77AFD0096E288BA
:1022500003213846019BFFF773FD00962289042174
:102260003846019BFFF76CFD0096628905213846D0
:10227000019BFFF765FD0096A28906213846019B68
:10228000FFF75EFD7F1CFFB2042FA8D30F2161561C
:102290006868FFF74BFD68600E2020564142E868F1
:1022A000FFF744FDE860112161562869FFF73EFD04
:1022B000286110216156A869FFF738FDA861122036
:1022C00020564142286AFFF731FD28626949002003
:1022D00082008A581660401CC0B20428F8D301203E
:1022E00005B0F0BDF0B5044687B000200290FFF7BE
:1022F0008BFE0190607D0021002808D0E068242238
:102300004280472241600270082242700292019886
:10231000002581B2081D03900120C00708182E4631
:102320000490217D6019007A4906490C08435149FF
:10233000AF00C95908644F490020C95948640120B9
:10234000009068000590235A228A00212846FFF752
:10235000F7FC012000900298E16830180A18638A9F
:1023600001212846FFF7ECFC05984249205AC9593B
:102370004000801986B2039848603E490498C959C4
:1023800088606D1CEDB2042DCBD301983A490160F1
:102390000020384901228300CB581A60401CC0B28B
:1023A0000428F8D3012007B0F0BDF0B50024817BEC
:1023B000A44627468E462BE0002319461A46067B84
:1023C00015E005692D578D4008312A43C9B22029EF
:1023D0000AD365464169AD004959914211D1614620
:1023E000491C8C4600210A46641C5B1CDBB29E42E1
:1023F000E7D800290AD061464369890059589142BB
:1024000001D00020F0BD6146491C8C467F1CFFB204
:10241000BE45D1D80120F0BD00B5FFF7C6FF0028AA
:1024200000D0012000BDF0B585B005460C46FFF791
:10243000EBFD02900120607200272773287BC01CEF
:102440008008E072A97B687B06F0A6F9A072A97BE0
:102450004843697B884211E0905B0040FC0A000021
:10246000FE3D0040109E0010B801000090150000D5
:10247000F0230000389D00100010C0230FD0081A70
:102480002072A07A401CA0720298002681B2081D1A
:1024900003900120C00708180196049001E02772FC
:1024A000F2E7E87B3146FFF7D1FCA1190871C107BB
:1024B000C90F4018A0550020AC49B700C95948645D
:1024C000E888009029680198AB880A1800213046F6
:1024D000FFF736FC287B01282FD0A17A2A894143B7
:1024E0004806A15D400C0843A049C9590864012071
:1024F00000900146A35D3046FFF722FC9B490398FC
:10250000CA595060CA5904989060A05D761C420078
:102510000198F6B2101880B20190042EC1D302982F
:10252000934A0260002001228300CB581A60401CAD
:10253000C0B20428F8D30120D2E6697B6A89490633
:10254000A05D490CCFE7F8B506460C4617460025B6
:1025500001200090607BA17B7B5D401A801958436D
:10256000618940004218E8B20121FFF7E9FB6D1CC8
:10257000042DEDD3FA7A7D4D1046724380188646BD
:10258000002110E093009C4600208B008033666998
:102590006746F6598700EF59FE50401C0428F6D3D1
:1025A000521C491CC9B27245ECD3F8BDF8B50646B9
:1025B0000C4617460025012000907B5DA17B184644
:1025C0004B436189704340000A18E8B20121FFF7CC
:1025D000B7FB6D1C042DEED3FA7A644D104672439E
:1025E00080188646002310E091008C460020990058
:1025F000803166696746F6598700EF597E50401C66
:102600000428F6D3521C5B1CDBB27245ECD3F8BD38
:10261000FEB505460C46FFF7F7FC0746287B03216D
:1026200001287DD0607A0128207B1BD0401CC0B2DD
:102630002073AA7B904273D222462946FFF783FF7C
:10264000002001224949BDB2D307C4002C19E61865
:1026500084000F59BE600C592260401CC0B204288F
:10266000F3D37DE0401CC0B22073AA7B90423DD8DA
:10267000012833D1207A0028A07A01D0401EC0B2B0
:1026800000264006400C0190B8B202900120009054
:10269000A35D287B2A89434300213046FFF750FB86
:1026A000A15D0198314A0143B000125811642F49CD
:1026B00018220958AA564A64297B2E4BA25D0904A8
:1026C00019430A43F1007A50029A5118274A091D0A
:1026D00010584160761CF6B2042ED7D3207B2246D8
:1026E000401EC0B22946FFF761FF28E0207A00288B
:1026F00038D000202073022060720026A05D1B49A4
:10270000FF300130B2008958086422462946002073
:10271000FFF719FF01200090A35D287B584300E0DC
:1027200020E0A17A491E484329894000421800212F
:102730003046FFF705FB761CF6B2042EDED30020F0
:1027400001220A49BDB2D307C4002C19E61884003F
:102750000F59BE600C592260401CC0B20428F3D34C
:102760000020FEBD61720120FEBD0000389D0010FA
:102770000010C0230010402F10B504F06BFEFE487F
:10278000407805F0B7F8FD490F20C86204F067FEF5
:1027900010BDF0B50446A034A57D60266A00765CC5
:1027A000F74BAD001746002E07D0022E03D0042EA3
:1027B00003D0052E0DD14B6B0BE0E47A022C08D12F
:1027C000CB699021415E481C03D02A46002900D1E4
:1027D0003A46EC498020C8622804EB4C801C6061BA
:1027E0001104891C552000064161190419438161B7
:1027F000A16101210160F0BD70B5E44CC82005590C
:1028000004F028FE01205521090688622146A031E6
:10281000088802280BD0032809D0062807D00728EB
:1028200005D0002001F070FF04F019FE70BD2046B5
:1028300080301022825E002A10DD521E028208883B
:10284000062803D10021022005F01FFE204604F0D7
:10285000D5FC29462046FFF79CFFE5E70320C87218
:10286000C548007805F046F8DEE770B50546044631
:10287000203504F06AFDC0346079A881012070BD64
:10288000F3B581B00E4601980124214600257F2230
:102890002E27A030330006F0C7FE0604080A0D08F4
:1028A0001012C574027581740CE0C774FAE7C27423
:1028B000857407E07B23C374F4E70224F1E700206A
:1028C00001F022FF2146019800F059FFFEBDF8B546
:1028D00005460020085E0C46C00F01F015FF208859
:1028E0002E464042E080A07AA03630802F46608895
:1028F00080373882E08868642089F883E07A307213
:10290000207BB0722020005D3073207D7073607D6D
:102910003077A17DC52041552079B874E07EF073F1
:10292000207EB883FFF718F9407E7072FFF714F924
:10293000C07D3876012140204153A07EFE21401CFD
:102940000840B075607E70752069B86300207077AC
:102950003088022829D0032808D0062806D0072866
:102960001ED0002001F0D0FE0120F8BDFFF7F4F8E2
:1029700020300079002808D07F8B607E3946C0194E
:10298000401E05F013FF78437075E17D7F48FFF727
:1029900077FF7E4800F07AFC284604F0D6FCE3E797
:1029A00000217A48FFF76CFF08E002217748FFF723
:1029B00067FFE08880087077002038762846FFF7A8
:1029C00054FFD1E710B50146714805F0E5FE420A13
:1029D0006A490120403948606848002303620F2398
:1029E000C3620261FF224261826103224A600421C4
:1029F000016210BD70B50246644C0846A034130055
:102A000006F012FE0C412D1D41413B3D0741411393
:102A10000B415E4800F093F838E00D46A17FA942D3
:102A200034D0FFF7CFFFA57730E0CAB2292149069D
:102A3000486BFF231B0218401043486326E05348AD
:102A4000FFF745FFFFF788F84F4A40300021403A32
:102A50008B00C3581360491C0C29F9D316E04B4D69
:102A6000C82041510220E0720E46284604F0C6FB01
:102A700031462846FFF78DFE08E0012000E00020E7
:102A800000F04BF802E0002001F03EFE012070BD96
:102A9000F8B50021084604F059FD374C002120709C
:102AA000084604F053FD6070384C01254020055362
:102AB000224604218032918320460221A0304180A9
:102AC0008180214660310D8215800F278F83264635
:102AD0009781204600F0ADF9204605F09DFC00F0FE
:102AE000E0F900F075F80121204600F048FECC2204
:102AF00021463046FDF7A6FDA91E5520000681623D
:102B00001E49CF621F4A2349403A11621D49802263
:102B1000CA6200220A630562F8BD10B50C4600289F
:102B200003D0084600F0D3F810BDFFF715F82030A9
:102B3000C0790028F8D0204600F0AFF810BD70B57D
:102B40000546FFF709F8807F00F0EFF8FFF704F87B
:102B500020304079294600F04DF90F4E7078FFF78C
:102B600031FF284605F058FC0024FEF7F5FF203021
:102B70008079002819D011E0C401000080000052C3
:102B8000CDCDCDCDC003005500010055440B000054
:102B900040D2DF0333430000101C00001024FEF776
:102BA000DBFF2030807900F05BF8074A102090634B
:102BB000146306490978002901D0106300E014630A
:102BC0007078A035A87770BDC00300557B01000068
:102BD0000249014808637047E00F3D00400200557C
:102BE00070B5FEF7B9FF4030552212065168AE4B62
:102BF000C902AE4CC90E01D11D6B2570405C247812
:102C00000019186306204143A9488B00C358136379
:102C1000491C8B00C3585363491C8B00C3589363F2
:102C2000491C8A00A34B82581A60491C8A008358A9
:102C3000A04A403A5361491C8900405890619E491E
:102C40001020886370BD10B5984C0320616805F0B2
:102C50001CFC60689849401C60601020886310BDAF
:102C6000022805D0032803D09448002188657047C6
:102C70009348FAE78F4B10B50022403394000C596B
:102C80001C61521C142AF9D38A4A00218B00C358B4
:102C90001363491C0C29F9D310BD10B5292149062D
:102CA000CA680C239A43CA600222864B012807D0C7
:102CB000022805D0032806D0002001F025FD10BD14
:102CC0005A60814801E05A608048086210BD70B5C2
:102CD00029225206D1680C231943D1600325794972
:102CE0000123002808D0032803D0002001F00CFDA8
:102CF00070BD4D60136270BDF720C0011062714C51
:102D00000020403420601F266660A6604D60F524D8
:102D1000E4011462F124E401146213620861486161
:102D2000886108624862886270BDF1B5002082B097
:102D30000546044607460090401E0190FEF70CFF32
:102D400006460298603600280DD0012810D00228CF
:102D500012D004280CD0002001F0D6FC5C4800788A
:102D600001280CD010E001980024E4430090F5E71E
:102D70000024E4432546F1E7019D0095EEE7554820
:102D80000078012834D000244B498039B80040181D
:102D9000009A026005617F1C032FF7D3454900208C
:102DA000820052181460401C0A28F9D300205522D2
:102DB00012068100735889180B63401C0A28F8D347
:102DC0003D4A0A21C03A8800335880188363491C61
:102DD0001429F8D388003258374840380261491C1A
:102DE0008A00B2580262491C890071584162FEBDD6
:102DF000394CC9E770B505460C46062801D20120BA
:102E000000E0002001F080FCC02334481B59E90099
:102E100042581B021B0A1A4329235B069A630818AF
:102E2000A034E17F40684907490F084325490860FD
:102E300070BD70B52A498C6B002293005B181B682B
:102E4000521CE41A0E2AF8D30D680346254E292297
:102E50005206A033C030B5421AD1CD6B224EB542D6
:102E600016D1002C13D14C68DC778C68CD68240413
:102E70002D022C430D692C4304604C69E4B20471AB
:102E80008869D8731463D87B00020830506370BD22
:102E90004021116315495163154901600720D87716
:102EA00070BD002013E70000C0010055C8010000FC
:102EB000C0BB001080000055C0030055E12B00107E
:102EC000472C001040000052A57F0000057800004C
:102ED0007A0100007B010000EEEEEEEE949E001001
:102EE0008007012010041020130674190840000008
:102EF00020202000F0B526492448086225480168B2
:102F0000090A090201600368FF21090203228B43B9
:102F100092039B18036004680B029C43150264191A
:102F2000046004682602360A8C0536190660466875
:102F3000360A3602C036466046688E43B61846608A
:102F4000466801279E43BF05F6194660466836026B
:102F5000360A36194660C6688E43B118C160C1682A
:102F600099434919C160C1680902090A0919C16078
:102F70000169090A0902C031016107494017086067
:102F80000549064880390860F0BD00000000C08097
:102F900000ED00E000E400E080E100E0E1F001008D
:102FA00001228105D203801A8003000E8200AE4800
:102FB000890D8058002800D04018704710B5C2B263
:102FC000A94B000A4400203B1B5B934202D800201F
:102FD000088010BDA44C8000603C205880189A1ACC
:102FE0000A8010BDF0B505220124042684259F4BDC
:102FF0001207012807D0002702280ED004280ED07F
:1030000008280ED10FE09A4841601660002000BFEA
:10301000401CC0B23228FAD301E0002903D0156069
:103020001C700120F0BD16601F70FAE770B5914862
:10303000466A0021C943C1628E4C403C6068C007AB
:10304000FCD08D480078122815D001210220FFF70E
:10305000C9FF874D3046297800F018F8022020601B
:10306000012020600C2020628448A06284482062F5
:103070000020287070BD0021E8E770B57C4C002569
:103080006C20656000F03BF8257070BD38B57B4D55
:10309000687829780002084376494039496AFF2256
:1030A0008900890C0132541A022C0CD025DDD10084
:1030B000411A11290BD2FEF71CFE284600F040F8F9
:1030C000FFF75AFB19E0214600F08BF815E00121CB
:1030D0000903884211D280B26946FFF76FFF0028CA
:1030E0000BD069460988A41EA14201DD69460C8007
:1030F00069460A88A91C05F0E5FA012038BD30B5FB
:103100008421052212071160012313610024146237
:103110005849022540390D600B600D610B617F231A
:103120001B021843D0610C2008625448886254483E
:1031300008625048611EC162C462C105016230BDAF
:1031400070B5417802780B02494913434968827887
:103150000C46C0346382A2820124E4021B1B0124BA
:10316000002B02D0102B3AD103E060314C708C70F0
:1031700035E01021404D042A297006D0032A0ED0D4
:10318000022A16D0012A1ED029E00279C178120243
:1031900089188AB2411D1046FEF78FFB1CE00279A8
:1031A000C178120289188AB2411D1046FEF77CFBD5
:1031B00012E00279C178120289188AB2411D1046C4
:1031C000FEF73DFB08E00279C178120289188AB245
:1031D000411D1046FEF7FEFA002800DB2C7301208B
:1031E00070BD38B50446092080010025201A6628E4
:1031F00005D2FEF7B5FC0019FF3811381EE0012199
:1032000009038C4204D2A0B26946FFF7D7FE15E04D
:103210001C48621A824209D215488C424368986B56
:1032200001D015460AE0002B08D138BD0120C003AB
:10323000201A8842F9D2A0B2FFF7B2FE0028F4D0DB
:1032400043190C48042101600A49022240390A61ED
:1032500001220A61052109078A6083600A49016029
:10326000491E016038BD0000249F001024010000A9
:10327000D0010000C0000050101C0000100C000025
:1032800009000001C81C00000900FFFF10B502463C
:10329000A032517B102911D006DC002903D001296E
:1032A00001D0032906D110BD112907D0122905D05C
:1032B000132903D0002001F027FA10BD49003F4B2D
:1032C00020395B5A13773D4A083A515A8030C183FE
:1032D00010BDF8B50F46014604468031A034CA8BB4
:1032E000A37A8E6B5A43550000F00BF83448066100
:1032F000207F6D1E29040843390208433149486381
:10330000F8BD70B50446A0340025607B2E46102819
:103310001DD006DC00280DD001280BD0032806D1D3
:1033200008E0112813D0122811D013280FD0002044
:1033300001F0EAF9627B0120811E224C002A10D0A4
:10334000012A14D0032A19D0002D20D020E04100FA
:103350001A4A2039083A565E80001B4940380D58F9
:10336000E8E7A063A163921CFF2AFAD970BD00218F
:10337000A063A063891CFF29FAD970BD0022A06355
:10338000A063A163A163121DFF2AF8D970BD0020BC
:1033900001F0BAF90020710007E042085200AB5E6C
:1033A000A363AA5E5242A263801C8142F5D8002129
:1033B000FF28EBD8A163A163801CF9E744A10010AA
:1033C0000002005540000055D80100000120704760
:1033D00010B5827B042A01D0022A21D000231522B5
:1033E0009206046894614468D4619360037B447BD3
:1033F0005B1E1B04641E2343D3600389847B1B0470
:10340000234313614389807B1B04034353610120E1
:1034100090621060002902D050680028FCDB10BDCB
:103420000123DCE7012115208006816201627047DB
:10343000F3B583B0FEF794FB0646FF3605463336F8
:10344000374603986437002401280BD0022809D09E
:10345000032807D004286AD0002001F055F9012084
:1034600005B0F0BD3848049940690090374805F030
:1034700093F90190E06BFF35029021356C742C7448
:10348000FF226421304605F05EF9FF220C21384608
:1034900005F059F929252E486D06286228622D4825
:1034A00004620F21C1622C4E3460AC602B48E06393
:1034B0002748801C2862002000BF00BF00BF401CBE
:1034C0003228F9D32648286201276F621E480199E5
:1034D000416101998161072303610399032912D096
:1034E00000990498FCF7ECFF2F626C620298E0638D
:1034F0001C483060174804210162FDF71DF91A4885
:1035000047708770ABE7049A0099521C0BD0144A9D
:103510002A6230BF2C62512212061460416181611F
:103520000361AF60E0E70E4A09322A62F2E70A4817
:103530007D21090104602920400681610321416148
:10354000012141618BE7000000E000E050C3000072
:10355000A47B00008000005200E100E0F3000000C6
:10356000A67F0000E120000000090000FEE710B582
:10357000FCF7B2FF10BD10B503F0A1FF0F4B104ACE
:103580000021104804F0BBFA0F4B104A00211048EC
:1035900004F0B5FA03F0B6FF10BD10B5FFF778FAE6
:1035A000FCF794FFFFF73EFFFFF767FDFFF7A2FC74
:1035B000FDF7ACF8FFF7DFFF012010BD9C0E000007
:1035C00009640000410800104C1300000A2C01009F
:1035D000F10B00100A4603467047FEE730B502467D
:1035E0000020904C014653569B001B195B684D0010
:1035F000AB40491C1843C9B21029F4D330BDFFB504
:1036000081B006460D461C4610210A9F039805F01E
:10361000BFF83878B04254D87978B14251D3301AD3
:10362000C3B200202279E17803E09B1A0818DBB2CC
:10363000C0B29A42F9D9421E8A186679D2B296422D
:1036400004D8701AC0B2421E8918CAB2002D0AD01E
:10365000012D0FD0202A34D320281FD22021081A70
:10366000C1B200201DE010282BD2102A00D30F2257
:10367000002124E0202824D2102A22D3102804D2AA
:103680001021081AC1B2002002E01038C0B2002197
:10369000202A01D30F2212E0103A03E00021203843
:1036A000C0B2203AD2B20AE02579A6684D43751916
:1036B0005E5D039D2E54401C491CC0B2C9B29042AD
:1036C000F2D905B0F0BD10B504460B78002086B0E5
:1036D000A34207D9203C0E2C02D261000120884071
:1036E00006B010BD0B46009201AA02212046FFF74A
:1036F00086FF01A8FFF772FFF2E710B504460B78CA
:10370000002086B0A34206D9103C102CE8D26100FC
:1037100001208840E4E70B46009201AA01212046DF
:10372000FFF76DFF01A8FFF759FFD9E710B5044671
:103730000B78002086B0A34205D9102CD0D26100AE
:1037400001208840CCE70B46009201AA00212046C8
:10375000FFF755FF01A8FFF741FFC1E770B5044629
:103760000D464079E1784018401E05F01FF8217899
:103770002970227942438818401E687070BD3EB59A
:103780000122044601290AD002290DD0002000F0B0
:10379000BBFF6946204600F00CF800203EBD68469D
:1037A000027207200190F4E7022069460872019234
:1037B000EFE7F3B583B003980F46A0300190407C4B
:1037C000097A88422DD0174869460C38FFF7C6FFA2
:1037D0000024154D154E02E02E2C00D100BFE0B2A2
:1037E00010496A460C39FFF7A1FF286030600D4987
:1037F000E0B26A460C39FFF780FF686070600949E3
:10380000E0B26A460C39FFF75EFFA860B060641C46
:10381000802CE1D303987968803041830198397A0C
:1038200041744EE78CA10010E80100000002005531
:1038300010B501460120FFF7C9FD10BD10B50146C6
:103840000420FFF7F5FD10BD10B501460120FFF77C
:10385000EFFD002010BD10B501460320FFF7E8FD85
:10386000002010BD7047FF4922200870FE49362015
:1038700008707047F3B5FD4C8700FD4881B0C05912
:103880006568A16805F08CFF0090E16805F088FF8D
:103890000146009805F0AAFB0646029805F0B8FC20
:1038A000294606F0A7F8314606F014F8294605F037
:1038B00077FF6060009805F071FB04460D463046C6
:1038C00005F06CFB0022EB4B05F0DEF922462B469F
:1038D00005F01CFA05F00EF8E549C851FEBDF3B538
:1038E0008700E24CE24881B02838C0592568A168B9
:1038F00005F056FF0090E16805F052FF0146009880
:1039000005F074FB0646029805F082FC294606F095
:1039100071F8314605F0DEFF294605F041FF2060D1
:10392000009805F03BFB04460D46304605F036FB9B
:103930000022D04B05F0A8F922462B4605F0E6F907
:1039400004F0D8FFCA492839C851FEBDFFB5054665
:1039500083B01068009006980E4600680C9901909C
:1039600000201746085E05F053FCC04C20600D99FE
:103970000020085E05F04CFC6060BF48007800281D
:1039800004D0F2058120BD49C00502E0BC49BD4814
:10399000F205A160E060B6482830415D002916D0EC
:1039A000009801B228B20546FFF799FF019801B2CD
:1039B0002846FFF75FFF206805F0C8FB38606068A5
:1039C00005F0C4FB06990860002007B0F0BD012196
:1039D0004155A74A7F20C005A900283A50502832F7
:1039E0005050009805F014FC2060019805F010FC80
:1039F0006060E0E7FFB5A4491E4609788BB04A0035
:103A0000A249149F8B5A51180693898807918C46B6
:103A1000242148439E4945180D991820285E0968BD
:103A2000421A00D50A1A00921A22AA5E34689646F3
:103A3000121B01D57246A21A009CA4180C9AD20738
:103A40001ED0584361434018191904F0AFFE0D9978
:103A500008601A20285E069948433168614340187F
:103A600006991FE06431002800DA981A584364234D
:103A70005A43801804F09AFE388000200FB0F0BD41
:103A800062465043614340186146091904F08EFEB6
:103A90000D9908601A20285E0799484331686143F0
:103AA00040180799091904F081FE306006220023AE
:103AB000AA5EFB5ED01A01D40146D3E7991AD1E77A
:103AC000F3B5744885B00078002801D000207CE769
:103AD0007148C27D0292007E03907048018D009172
:103AE0004F09408D3421019004F056FE064605989A
:103AF00069490068029A04B20698006805B2192064
:103B0000085600994908002A2ADDBC4204DAE01B65
:103B100050438011C0190AE0009A121BBA4208DA19
:103B2000D11B029A009851438911C919401A0F30CC
:103B300004E00A1B504304F039FE001904B2564950
:103B40001A2008565549039A498D4908002A27DD4D
:103B5000B5420CDAA81B5043801180190A3019E0D5
:103B6000BC42ECDB009AD21BA242E2DAE7E7019A00
:103B7000521BB24208DA911B039A019851438911F2
:103B80008919401A0F3005E04A1B504304F00EFE1D
:103B90004019401D05B2059804600698056095E738
:103BA000B542F8DB019A921BAA42EDDAF3E7FFB5C2
:103BB00087B00D4614461E46119F079805F028FB56
:103BC0000090284605F024FB0190204605F020FBDC
:103BD0000290304605F01CFB0390109805F018FB8E
:103BE0000490384605F014FB0590BD4210DD109896
:103BF000001B05F00DFB0546B81B05F009FB294627
:103C000005F0F4F90546009905F064FE01990FE00E
:103C10000798201A05F0FCFA0746701B05F0F8FA21
:103C2000394605F0E3F90546049905F053FE059978
:103C300005F0B6FD07462846029905F04BFE0399AC
:103C400005F0CCFE06466800000E2FD00121284664
:103C500005F0EAFA04463146384605F0CBFE214627
:103C60001EE000005D0100005E010000F4010000A4
:103C7000781300000000F03F3E0100006666863FBA
:103C80003333733F0000C040220100000C1D0000D0
:103C90003C06000078010000D41C000080020000F7
:103CA00005F0A4F905F052FA0BB0F0BD2046FBE791
:103CB000F0B505460E4685B01446981B05F0A8FAE7
:103CC000009004900A992846684349430746C81B58
:103CD00005F09EFA01900B98801B05F099FA02906E
:103CE00020466043381A05F093FA0146029805F021
:103CF000F1FD07460199009805F0ECFD394605F005
:103D00004FFD00900B98301A05F082FA0190601B6D
:103D100005F07EFA06460A98049F401B05F078FAE3
:103D20000146384605F0D6FD05463146019805F0B6
:103D3000D1FD294605F034FD012105F075FA014653
:103D40004000000E06D0009805F050F905F0FEF98D
:103D500005B0F0BD2046FBE770B50022069E049D2D
:103D6000059C002802D01F2807D00CE00020285E08
:103D7000002800DA2A801A8005E00020185E00285A
:103D800000DA1A802A80002908D0332905D10020C2
:103D9000205E002800DA2280328070BD0020305E74
:103DA000002800DA3280228070BDF0B59446FF4AC8
:103DB0000026FF4C55693346E756CA5C3F187F0022
:103DC000EF5F5B1C5743BE195BB2042BF4DB420070
:103DD000AA5E0B795A4396190523E718203F1F2244
:103DE000BA5617187F00CA5CEF5F5B1C5743BE19B9
:103DF0005BB2092BF1DB6046064130B2F0BDFFB586
:103E0000064689B000200890EA481F4601783046EF
:103E10000D4604F0C1FC04466843301A85B2701E9A
:103E20000A990090701C019000291FD0E04A0321DC
:103E3000515604238919D356DC489A194069009BCE
:103E400076001B04865FDB0B0796019FC65A12049F
:103E50006B469E81D20B89B2825A1A824900415A1E
:103E60003F049982F90B405A188338E07A7A394630
:103E70003046FFF79AFF079000987A7A80B2394669
:103E8000FFF793FF01466846818101987A7A80B2F4
:103E90003946FFF78AFF014668460183C5487A7AAA
:103EA00000783946301A80B2FFF77FFF0146684636
:103EB0008182C0487A7A00783946301880B2FFF79C
:103EC00074FF01466846018206AA03A904A86E464B
:103ED00007C605AB69B260B2079AFFF73DFF0B98C2
:103EE000C0074DD06A461421515E1020079B105E1A
:103EF000994203DD0B46814200DA0346AE4F9942F8
:103F000010D183420ED1A000C01941681298002C34
:103F1000016004D0A9480078401F844253D1012099
:103F20000DB0F0BDA64A927A002A0BD0A24AA60094
:103F3000B2189768019000979F4852688059FFF720
:103F4000B7FE0AE09C4AA600B21897680190009755
:103F5000994852688059FFF72AFE9A49002801DAE9
:103F6000002002E0884200DB08461299002C08601D
:103F700004D092480078401F844201D1012008906B
:103F80000B9880074DD568460C21415E1822079B8F
:103F9000825E994203DD0B46914200DA1346864861
:103FA000C030994211D193420FD1A900081841683D
:103FB0001398002D016004D07E480078801F854250
:103FC00001D10220ACE70020AAE77D4CA47A002CA6
:103FD00009D0AC002618B7680097019200597268A2
:103FE000FFF766FE08E0AC002618B768009701925C
:103FF00000597268FFF7DBFD7349002801DA0020E1
:1040000002E0884200DB08461399002D086004D0C6
:1040100068480078801F854203D10898801C00B250
:10402000089008987CE77CB50D4624211646484345
:104030006649664A095A82181D201056302250439C
:10404000634AC9058418E08800290196009524DA9E
:10405000604B01220021FFF7D2FE002801DB01287E
:1040600007D1019600950122E0885A4B1146FFF7CF
:10407000C6FE584B01960095E0880A3302220021C3
:10408000FFF7BDFE002801DB02281DD1514B019630
:1040900000950A33E088022213E04E4B03220A3BCC
:1040A0000021FFF7ACFE002805DB012803D0022821
:1040B00001D0032808D1474B01960095E0880A3BC0
:1040C00003220121FFF79BFE7CBDF0B5ADB00020BF
:1040D000289001202690FDF743FD0546FF35333536
:1040E0002E460021123E317471746846017241728D
:1040F00039480078002879D03848002727902420B4
:104100007843324901900C5AFF2002300094044257
:1041100011D0600602D54820A0430CD16846007A31
:1041200027492A908978884206D3204640221043A6
:104130002649019A88527CE22948044209D0234941
:1041400001984018C07F4007800F02D02549002009
:10415000C8552549204608420ED01C49019820AA7E
:1041600040181821415E21911A21415E2291C18897
:104170009182807F269032E160056BD513490198CA
:1041800044181D2020563021484311494018C0884A
:10419000C2B208482392017824911046299104F074
:1041A000FBFA2999239A4143511A20E02006000086
:1041B000550100005E0100009CA100105D0100009F
:1041C000101C0000809D0000096300003C060000F8
:1041D00038030000AEA3001024010000A00200007C
:1041E00048080000A01300000C0A000086E2C9B2D3
:1041F00000280AD0FE4A1278D21E904205D000292B
:1042000003D02498C01E81420ED16169F94800296B
:1042100008D00121009C89028C4320210C43019984
:10422000445215E0012009E0F44AF349127860692C
:104230008918097DEF4B884202D2401C6061F8E189
:104240000121009C89028C4320210C4301995C527E
:1042500001202690E749019841181D200091085639
:1042600030214843E64940180A212390415EC8B2F4
:104270002890E0050BD423988089400707D4DF4AB3
:10428000E048127880182030807A814244DC22AAEB
:1042900021A93846FFF7C7FE299023980621415EE1
:1042A000D948249101782B91249804F07FFAC2B266
:1042B0002B9B104624995843081A2999C0B200290B
:1042C00021DA23998989490711D59100CF4A8918A4
:1042D000279A4968527D11412191CC498000C03113
:1042E000401827994068897D0841229006E023986C
:1042F0002821415E21912A21415E2291E00512D5BB
:10430000022026900FE02798417D219808412190B6
:104310002798817D2298E7E723982821415E219103
:104320002A21415E229122A921A8FFF7C9FB2198E9
:10433000002801DA00202190B549219A088D904289
:1043400001DC401E21902298002801DA00202290F2
:10435000488D2299884201DC401E229023984169B1
:10436000A64800784200A448805E091A091140005E
:10437000081800B220A98882FF2800DDFF2088826B
:1043800000994969012917D000998A890A82009900
:104390000A898A810099CA894A8200994A89CA8110
:1043A0000099219A4988521A00990A810099229A03
:1043B0008988511A009A51812199009A09B2518035
:1043C000229A13B2009A9380A20608D5009A11830C
:1043D00000994B830099C880009926988877854872
:1043E0000199182308182490C35E21995A1A1A219A
:1043F000415E22985243081A40431018299026988B
:10440000012813D17D4A7C481278801820308079A9
:10441000299A4043904209DB2498C07F022801D0AA
:10442000062803D100202193229129900020239077
:10443000200701D510202390A00602D5042123983F
:1044400032E074480078002803D06B4902200876D7
:1044500002E069480321017625A8009022AB21AA39
:1044600021463846FFF7C6FA6A480078002803D08C
:104470006948007800280BD02499249818311A3004
:104480000091019022AB21AA21463846FFF75EFA3F
:104490005A486249007840004018008929994043F1
:1044A000884203DC23980821084323905C488178E4
:1044B00000293FD02A990C20414302A80918219ACB
:1044C0004A806A46117A0C2251430918229B8B803C
:1044D00020AA1421515E6A46127A0C235A431218FC
:1044E000D180002914D0289A6B46197A0C2359439D
:1044F00008180281239902206B4601431A7A0C2086
:10450000424302A810188172E00503D5022202E09E
:104510000022E9E70122187A0C21484302A9401839
:10452000C272187A0C22504340180773197A491C3A
:10453000197251E02399490702D5C17900290BD09E
:104540002399C90602D5417A002905D02399090784
:1045500042D5007A00283FD12A9A0C20424302A873
:104560001218219951806A46117A0C225143091878
:10457000229B8B8020AA1421515E6A46127A0C235A
:104580005A431218D180002914D0289A6946097A12
:104590000C2359430346081802812398022108433B
:1045A0006946097A0C225143C9188872E00503D57F
:1045B000022202E00022E9E701226946097A0C2082
:1045C0004143C918CA726946097A4143C81807733A
:1045D0006946087A401C0872249921980883249916
:1045E0002298488320A8818A2498C180249919E0C0
:1045F0005D0100003C060000841C00002201000058
:1046000038030000481C00005E0100009CA100105F
:104610008002000054010000410100000C1D000058
:10462000C81C000026988877239802210843249903
:10463000C8777F1CFFB20F2F00D260E530490879A0
:10464000002811D02F4A0020138D02AA08E00C2464
:104650004443A4186788DF1B7F1E401C6780C0B2DC
:104660006C46247A8442F2D84879002812D0254A30
:104670000020538D02AA09E00C2704467C43A418AD
:10468000A788DF1B7F1E401CA780C0B26C46247A1F
:104690008442F1D8C87800280FD0002002AB08E08F
:1046A0000C214143C9184A888C884C80401C8A8060
:1046B000C0B26946097A8142F2D8694600200A7A76
:1046C00018E00C2103464B4302A959184B882B8054
:1046D0008B886B80CB88AB800B89AB718B7AEB714D
:1046E000CB7A2B72097B6972317C0A35491C401CDC
:1046F0003174C0B28242E4D81020305E2DB0F0BDDB
:10470000101C000080020000002800D1FEE7704766
:10471000FCB5342000904248362500783F4F4100D8
:1047200040480818408A6C01019000203C4E41002E
:104730003678CA190023B64676001946B44605E015
:104740004E00965F002E00DDF3184919A142F7DBF9
:1047500001998B421ADB334966467618F688714414
:10476000897B5E430E41B64600210DE04B009C461E
:10477000D35E002B07DD7646734501DB9B1B00E013
:104780000023664693534919A142EFDB401C009970
:10479000C0B28842CAD3FCBD7047B9E7F8B51F481C
:1047A000342470388646202084461D4838270078F7
:1047B00041001C480818C08A009000200146794337
:1047C0004A007146531800210A4655005D5F002DCE
:1047D00000DD6918521CD2B2A242F6D3009A91426F
:1047E00016DB0F4A0F4D16787200521952894A4350
:1047F000A919097C0A4100214E009D5F002D03DDAF
:10480000954201DBAD1A9D53491CC9B2A142F3D3B5
:10481000401CC0B26045D1D3F8BD0000003E00404E
:10482000220100002C1C0000FE48FD490160FE49E9
:10483000C160FE490161FE494161FE49C161FD4916
:1048400080318161FC49CA8802850989418520211E
:104850002030417434218174042141758175F748F9
:1048600036218180F64901607047F44AED4806CA56
:1048700082604160F349F44B09784A00D21892886B
:104880008285F24A1288C285F1484118E5488A7942
:104890002030C27409790175EE49898A0174704724
:1048A000F0B58446E3B08E4614460020302103461E
:1048B0004B4361465A189189C90720D05689470051
:1048C00040ADEE53870034AD5669EE51C50004AEDD
:1048D00091697619D76982C61CA94D19166A576A5B
:1048E000C0C5957856A90D54D5785CA90D5461467C
:1048F000CB5C59A90B5452785FA90A5403E00021FC
:10490000430040AAD152401CC0B20C28CED37146FD
:1049100000208A780BE083007344597946AD491E24
:10492000295419794EAB491E1954401CC0B2824219
:10493000F1D800216EE04EAB46AD5E5C685CB446DB
:10494000B04265D0654640AB6D004700AE46DE5BC9
:104950005D5B7519DD53002675465E5334AB6646C4
:104960008700B600DD599E59AD19DD51C3009E4642
:1049700004AD7544664628CDF60004AFBF19009615
:10498000C0CF9E197D4104AF77443E607D60734681
:104990001CADEB181F685D68009E1CAB9B191E6860
:1049A0005B68BE195D4173461CAFFB181E605D60FD
:1049B00056AD63462E5CEB5C9E4200D22B545CAB42
:1049C00065461E5C5D5DAE4200D21D5459AB654626
:1049D0001E5C5D5DAE4200D91D545FAD63462E5C2A
:1049E000EB5C9E4200D92B54481CC0B246AB4EAF84
:1049F0000CE01E5C7D5CAE4201D15E5C1E543E5CF0
:104A0000AE4201D15D5C3D54401CC0B28242F0D840
:104A1000491CC9B28A428ED8002727808E48608000
:104A20003846632640AB34AA4100595A00290BD0BE
:104A30002588A94201D9218006466588A94203D26A
:104A4000618081005158A160401CC0B20C28EBD39A
:104A5000632E50D0B00015585CA86560805DA073CF
:104A600056A8805D20735FA8805DE07359A8805DC3
:104A700060736C48002120300290407C2A46EB177E
:104A800003F095FD0090F000019104A9039009182E
:104A9000644E03C9328D002303F089FD019B009A07
:104AA00003F0D8FD00B2208200900190029800210E
:104AB000807C2A46EB1703F07AFD054602910398A5
:104AC0001CA9091803C9728D002303F070FD2A4642
:104AD000029B03F0BFFD01B261820198002801DA58
:104AE000278205E0328D0098904201DB521E22821F
:104AF000002902DA678263B0F0BD708D8142FADB73
:104B0000401E6082F7E7F0B5544B00241D785E78B4
:104B100027E02F19BF00FF187F798F421FD12C1972
:104B200064B2A500ED180626AE5F964200DAEA8070
:104B3000002C13DA9C781E2C10D2A400E418E2801A
:104B40009A789200D218107198788000C01841713C
:104B50005878401C58709878401C9870F0BD641CC0
:104B6000E4B2A642D5D8E5E770B530256943C468FC
:104B700030396118048908255443E418CC80002496
:104B8000E4430C8101248C818A700A700A71CB7015
:104B90004B704B71455F5E0055436D004068AD1929
:104BA000405F2F4D920052194861526805465543A7
:104BB000EA178D61CA619A002A4BD2185268504395
:104BC000C2174A6208624C8170BD00222349012845
:104BD00003D0887808704A7070470A70FBE7F0B518
:104BE0000446A9B000200B9020892146C0B2203194
:104BF0001C90887C0025821CD6B222681018C01C2C
:104C00002690606920902069119014488570487C36
:104C10002590887C24900F218901206824E00000E1
:104C20009028004080020000380300007805000052
:104C3000CC05000090370040101C0000440100002B
:104C4000003E004022010000841C000026010000FC
:104C5000AC1C0000D41C00002F750000B80200003E
:104C60009CA100105CA20010FBF78AFC00208100D0
:104C70002269401C55506269C0B255501528F6D3C0
:104C800000203022424300230C32E168401CC0B2B5
:104C90008B520C28F5D3002092E11C99626848439E
:104CA0004000101828901199209820911190002010
:104CB00001468300119A401CC0B2D1501528F8D388
:104CC000099926987143401E08181F9000206FE133
:104CD0001F982E22401C1F900A98A25E410028981F
:104CE00009180020085E82427EDC209B0A9A9A18EE
:104CF0005378002B78D11C9B1E275B00CD1A0E9396
:104D00002B46203BDF5F8742EEDC0023EB5E8342D5
:104D1000EADC0223EB5E8342E6DC0B46203B1E25E9
:104D20005D5F8542E0DC0223CB5E8342DCDC012355
:104D300093700E9A1E2752181546203DEF5F87424A
:104D4000D2DC0A9F119DEB550E9D495F8142CBDC61
:104D50000A9D119949194B700225555F8542C3DCA4
:104D60008B700B980C287DD2401C2790C0B2089005
:104D70000B98E1683022504308180B9001200F90E7
:104D8000A16909980870E1690A9808701F99089844
:104D9000087000250898FFF718FF08A90EC92046DB
:104DA000FFF7E2FE03E0802801DB0546F1E0A069A1
:104DB000425D1D92E069425D21921D9A1C98269BDE
:104DC0005043219A40005100401861681D9A4018D4
:104DD00031465143219A9A1889180022825E6D1C2F
:104DE0000D922DB20E9A00E0DFE0821A13920E9B14
:104DF0008F191B189C461493831E801C16901593C4
:104E0000481E8B1B0290491C901E03911790604610
:104E1000801E189060460197801C1A90581E0093BF
:104E2000921C0490781E5B1C19927F1C05A989C1F5
:104E3000002007462290B800844669460858017849
:104E400000290ED0089881420BD0624613A88058E2
:104E50000022825E0D98824200DD02460898FFF72C
:104E600052FE00E09DE0604613A908580021415E13
:104E70000D98814208DD6046694608580178089817
:104E8000814201D0012022907F1C7FB2082FD2DB0B
:104E9000229800287DD181006A4652581378002B51
:104EA00073D113AB5B5800219C46595E2E23E35E01
:104EB00099426ADB0D9B994267DC08991170F849A9
:104EC0000A5C1D9951184BB2A2690F999E46535422
:104ED000F4490A5C2199511849B21B91E3690F9A70
:104EE00099540F996346491C09B20F910B990022FE
:104EF00049699A5E73468A180B994A619900EA4A91
:104F00006346891800229A5E49680B9F5143BB692A
:104F1000CA17FF69C9180B9B7A41DA6199611B991D
:104F2000E24A89008918624600234968D35E0B9FD4
:104F300059433B6ACA177F6AC9180B9B7A415A6268
:104F400019620B990B9A4989491C51810B990222CC
:104F50008A567346724500DA8B700B9900228A5686
:104F60007146724501DD0B9A11700B9903228A5626
:104F70001B998A4201DA0B9AD1700B9901228A5649
:104F80001B998A4201DD0B9A5170401C40B20828DF
:104F900081DB0F98854200D005E72798C0B20B90BF
:104FA00003E02598099024980A900A98401CC0B202
:104FB00024990A90884200D28AE60998401CC0B21F
:104FC00025990990884200D267E6B94AB949E06854
:104FD000FFF766FC0B9829B0F0BD30B53024D368DC
:104FE0006043C0180624045F52686300D55E4B001E
:104FF000D35EAB4202DB0481C18030BD0824045F74
:10500000002C03DB6400125F9342F6DD018130BDAA
:10501000F7B584460C4602983025C36861463020B7
:105020006C434143A646CA18E418506965694019A3
:1050300050619069A669D569E76986197D419661D5
:10504000D561106A266A556A676A86197D411662BB
:105050005562D089E5894019D081108A258A401986
:10506000108250896589401950819089A58928430B
:1050700090810020A0810220022510566557A84289
:1050800000DA95700325032055572056854200DA33
:10509000D07070465D561856854200DD5854012187
:1050A000012051562056814200DD50700621604695
:1050B000615EC0B2029AFFF790FF0821615E00298D
:1050C00004DB6046C0B2029AFFF787FFFEBDF7B56A
:1050D0008CB00C980C460C9A0021C568203275489B
:1050E0000A9209E08A00121813795B1E1371537932
:1050F0005B1E491C5371C9B282788A42F2D8BDE066
:105100000020844610793021484340194189507964
:105110003023584340194089081881B204201056A2
:105120000490052010560590012032E0614A83006A
:105130009A1813793026069373435B195E89537965
:10514000302707937B435B195B89F3189BB28B4233
:1051500008D219460423D35604930523D356844614
:10516000059314E08B4212D1049E069B514FB3422B
:105170000DD1059E079BB34209D10623D35E62463B
:105180009200D2190626965FB34200DAD380401C03
:10519000C0B2484A93788342C8D86046810010461E
:1051A0000F1804260520BE573856019086425AD063
:1051B0000C98062241683020704340190490825EAA
:1051C00030235000019A085E5A4352190623D35ED9
:1051D00094465A00895E884200DD08460A99C97CD7
:1051E00041430A98007D01410620385E814214DD6A
:1051F000049841690C98808D81420EDD61464969B1
:1052000081420ADD60460A21415E04980A22825EDC
:105210000A988918007C814225DB31460C9A019856
:10522000FFF7F6FE2349641E8878E4B28000401838
:105230000288BA804088F8808878401E8870019A79
:105240000020D3B20BE0820052181779B74200D188
:1052500013715779B74200D15371401CC0B28A789C
:1052600082420BD9EFE713488178890009180A8830
:10527000BA804988F9808178491E81700D4A9078FA
:10528000002800D03CE72746002622E0384630219F
:105290004843401901908089C00716D117E00000EB
:1052A00028010000300100009CA100105CA2001049
:1052B0006C020000B802000030463021484340191B
:1052C0008089C0070CD0761C76B20C2EF4DB7F1CD4
:1052D000FFB20C2FDAD300200E99074608604DE08C
:1052E00030207043401930220199FBF7ABF90020C0
:1052F0000199761C888176B2E9E730207843461917
:10530000B089C00738D0726904920292D317F1694C
:10531000B06903F09FF90A9A527D03F035F900B2A3
:10532000308503900190029A716AD317306A03F0B6
:1053300091F90A9A927D03F027F901B271850198DB
:10534000002801DA002005E00C98039A008D8242C3
:1053500001DB401E3085002901DA002004E00C98B2
:10536000408D814201DB401E70850E9801680498D3
:10537000814201DA0E9908607F1CFFB2A742BCD3BC
:1053800020460FB0F0BD0000FFB5002783B00646F1
:105390003C463D461AE0680004990290085A03F022
:1053A000B1FC04F0DBF900900191384603F0F6FD02
:1053B000019B009A03F052FC03F09CFA0746049903
:1053C0000298085AA04200DD04466D1C05988542EB
:1053D000E1D3204603F01CFF03F0E0FD04F0BEF92A
:1053E00003F088FA04466821049803F0D1F938469E
:1053F000069904F06FFA30602046069904F06AFAC4
:10540000B060059803F00CFF0146384603F0EEFD4E
:10541000069904F05FFA706007B0F0BDFFB585B083
:1054200000200290C84800901646012748000D460B
:10543000B04201DA012000E00020FFF765F96C1CA2
:10544000701BC01B04903EE0002007466E42019096
:105450001BE0A8198100089840580390A019182152
:10546000484305990858039904F034FA0146019815
:1054700004F096F90190384603F0CAFE039904F04F
:105480008FF903F063FE0746761CAE42E1DD384635
:1054900003F0BEFE0146019803F0A8FD1821059A0D
:1054A00061438E180146F060009804F0E9F901D2DA
:1054B000009800E0F0680090F16804F0B7F900D1BE
:1054C00002940498641CA042BED8029809B0F0BDB2
:1054D000F3B5074683B07D20C00000900020019006
:1054E00008249A48049903F057F9460876007D216C
:1054F00065423046C9004843029095489549684343
:105500004018029903F052F9049A0146501A00D546
:105510004042009A904203DA2C46083401910090F0
:105520006D1C082DE9DB7042BC6538600198F8609D
:1055300030022043F86521460A20FDF75BFA01207E
:1055400005B0F0BDF0B50446C068616885B0451A85
:10555000A16847187D20C00003907F480090032079
:105560000190642D00D26425FF209130874200D93C
:105570000746002638E01820009970434018029032
:105580007F20C005049029462046FFF7A1FFE1686F
:105590000398814227D07148007802F07CF90323F8
:1055A000092260212046FBF756FE6C4864210078F2
:1055B00002F0B4F8002802D00020FFF7A5F86748F1
:1055C000007802F068F9214634226831049B029881
:1055D000FFF7DAFE0298E16D41610298E16801612E
:1055E000E068761C03906D1CBD42C4D35C4B324610
:1055F00001990098FFF712FF1821484300994018BD
:1056000001692046FFF764FFFCF7A6FAE1684184D0
:10561000206895E7F0B504468DB00020029051480F
:105620004568284603F0FCFD03906800400803F03D
:10563000F7FD0090FCF790FAFCF78EFAFCF78CFA75
:10564000FCF78AFAFCF788FA7F232146DB0534222F
:10565000683104A8FFF798FE434D6069294604F0BD
:1056600039F9049904F09CF80226F643314603F018
:10567000DBFD60612946206904F02CF9069904F0ED
:105680008FF8314603F0D0FD206103F085FD05461B
:10569000FCF762FA274605846037F879002600286F
:1056A00007D0012802D0022800D0FE7102980DB068
:1056B000F0BD2E49042008562546C03500282CDDB3
:1056C0002069039904F05EF910D22069009904F072
:1056D000D7F80BD8288A2349401C80B22882C97881
:1056E0008842E3D322490120087014E02069009920
:1056F00004F048F90DD2288A1A49401C80B2288249
:10570000C9788842D2D30120F8711A492E820870D4
:10571000CCE7174806702E82C8E71248008A03F0CB
:105720007FFD616904F0ACF8C0D2288A0D49401CA5
:1057300080B2288289898842B8D30120F8710D4946
:105740002E8208700290B1E700401C46409C000089
:10575000400D0300005A6202E0230040C401000033
:10576000C4A30010B41C00000000E04020060000AC
:105770002301000022010000574800218170491ECA
:10578000C1700171417181710A21544A0E23016176
:10579000D380917352498A8902810A89428109889A
:1057A000818150490988C1817047F0B501460020C8
:1057B00001291ED00021484C4B4A4C4D2170012735
:1057C00024234B43D65AF6050ED59E181D23F356B7
:1057D000302673435B190A269E5F042E04DC5B6946
:1057E000642B01DC01202770491CC9B20F29E7D3C3
:1057F000F0BDFFF7C1FF0020F0BDF0B5012817D0C4
:1058000035493B4E0B461C6905258F785D5733485B
:105810000A22641C36780023002F0AD0012F2BD0D7
:10582000022F05D10C61002D2EDB012088700B6149
:10583000F0BD0C610624002D04DB01258D70C480B1
:105840008273F4E72B4B1B78002BF1D00223002E40
:105850008B7004D01821C1808273428204E0C4801E
:10586000FF218273913141827D211D48C900016170
:10587000018821484181F0BD0B61002DFBDA8B705E
:105880000E21C1808273F0BD1B4C2579002DFAD109
:10589000002E8B7003D01825C580827304E00E257E
:1058A000C5808273FF22913242820D480A8982812B
:1058B0004A8902818A8902800A4DCA892A800F4A50
:1058C00002610F4A127880182030007A60810D4AF8
:1058D000052010724B70F0BD040200002C1C00006B
:1058E000481C0000841C00003C0600003803000037
:1058F000230100003E01000020060000B80B00005C
:1059000022010000001C0000F8B50024F84F1D26FD
:1059100025467601E0B23946FCF78FFB002285541C
:10592000521CB242FBDB641C042CF3DBF8BD10B547
:10593000FFF7EAFF3821EF4802F02CFFED48012184
:10594000203081740022C27442758175C175EA48A5
:10595000017010BDF0B5C5896D4300221DE00189BD
:10596000036851435E184189436851435C18002124
:105970000EE04B00F35E5B43AB4201D9002304E031
:10598000635C077C9F4201D95B1C6354491CC9B20C
:10599000437B8B42EDD8521CD2B2017B9142DED8C0
:1059A000F0BDF0B5D54885B0027A69460A74202268
:1059B0000A73008800247326CD4FC881B6012146A2
:1059C0003420FCF743FAC107C90F0918CDB2694664
:1059D000487331462046FCF730FB0090680069466A
:1059E000088139462046FCF728FB019069464D8125
:1059F0006846FFF7AFFF641CE4B2042CDFD305B0A8
:105A0000F0BDBC4800212030C1757047F0B5BC4ADC
:105A1000BC4CBD481368012186B08446A34208DD12
:105A200090897D24E400A04203D96046417006B00D
:105A3000F0BDB04800242030B14DC4746C68B44F40
:105A40001A1900920A220823AA5EEB5EAF4D2E7847
:105A5000FD68019510257D5F029512257D5F0395F8
:105A6000BD7DAC4F6D430495D5186D43AE461546CC
:105A70005543059500255B437D5F002EA64F009E94
:105A800018D0002E04DA019EB44201DA012600E0AB
:105A90000026C674029EB44205DA039EB44202DDBB
:105AA000049C744504DC059C9C4230DAAA422EDD3D
:105AB000C1742FE0002E04DA019EB44201DA0126FF
:105AC00000E00026C674029EB44205DA039EB4428A
:105AD00002DD049C744504DC059C9C4202DAAA4267
:105AE00000DDC1748D4B1B882D2B02D93C2A00DAB6
:105AF000C1748B4A927E012A09D1814AD289142A23
:105B000005D901750022874BC2741A8016E0C27C49
:105B1000002A13D000228275437D032B02D85B1C20
:105B200043750EE0C37C002B05D063465970427567
:105B30000275397005E03A70427502E00022427544
:105B40008175774A1279002A00D070E739700021F8
:105B500001756CE7FFB5744E710C8E4600218C46C2
:105B60000C4600910B460191817A03912AE08188CD
:105B700002685943511802910022C77A1DE0029928
:105B80005500495FB14201DD0E4602E0714500DA81
:105B90008E46C5888D4203DC641C8C4424B20AE026
:105BA0000825455F8D4206DB009D6918009101992B
:105BB000491C09B20191521CD2B29742DFD85B1C3A
:105BC0000399DBB29942D2D8C1684E81C26871464E
:105BD0001181C26861461160C26800995160C16854
:105BE0008C81C0680199C181FFBDF0B589B01446B0
:105BF00020236A46937204AA03926A461181D080D8
:105C00000025E5814848A5816081470C27816560B2
:105C10002E4625600398C5810398858103994248E3
:105C200048810398314607810398456003980560D1
:105C30003420FCF70BF901466846C1723B493046F7
:105C4000FCF7FBF900906846C07AC107C90F4018FD
:105C5000410068468180FFF77DFF0A2268461A21CD
:105C6000A25E415E8A4200DA618102460821182064
:105C7000615E105E814200DD2081E189D08B761C5F
:105C80000818E081A189908BF6B20818A0812068DD
:105C90000499401820606068059940186060042EDF
:105CA000B8D309B0F0BD1FB5144A02210420515EDB
:105CB000105E6A46FFF799FF69461EC910481EC06C
:105CC000FFF7A4FE1FBDF0B5002244E00421415EB1
