:10000000F03F00001500001000000000000000009C
:10001000002070477CB51B48292149060862012051
:1000200008600020486138200863092088600F209C
:100030000861002008613F20C861FE20C8600420DC
:10004000486000BF00BF00BF00BFFFF7E1FF0646EA
:100050000D4840680090002001900B4D002405E001
:10006000A0002858A100019A5050641C282CF7D3F6
:100070000021009848600098804700BF00BF00BF83
:1000800000BF7CBDA0FF00000004001000000000C5
:100090000000000000000000000000000000000060
:1000A0000000000000000000000000000000000050
:1000B0000000000000000000000000000000000040
:1000C0000000000000000000000000000000000030
:1002C000000300000000000000000000000000002B
:1002D0000003000000B900000003000000B90000A6
:1002E00000C0000000040000010001001801180116
:1002F0000101594554490000610000000100180047
:1003000000000000000000000000000000000000ED
:1003100000000000000000000000000000000000DD
:1003200000000000000000000000000000000000CD
:1003300000000000000000000000000000000000BD
:1003400000000000000000000000000000000000AD
:10035000000000000000000000000000000000009D
:10036000000000000000000000000000000000008D
:10037000000000000000000000000000000000007D
:10038000000000000000000000000000000000006D
:10039000000000000000000000000000000000005D
:1003A000000000000000000000000000000000004D
:1003B000000000000000000000000000000000003D
:1003C000000000000000000000000000000000002D
:1003D000000000000000000000000000000000001D
:1003E000000000000000000000000000000000000D
:1003F00000000000000000000000000000000000FD
:10040000F03F00001F3A0010000000000000000054
:1004100000000000000000000000000000000000DC
:1004200000000000000000000000000000000000CC
:100430000000000000000000F1050010478B0010D4
:100440002F3700101D3A00101D3A00101D3A001001
:100450001D3A00100373001001730010371E0010C6
:100460001D3A00101D3A00101D3A00101D3A0010F0
:100470001D3A0010FB0A0010591E00107B1E0010D0
:100480009D1E00101D3A00101D3A00101D3A00106C
:100490001D3A00101D3A00101D3A00101D3A0010C0
:1004A0001D3A00101D3A00101D3A00101D3A0010B0
:1004B0001D3A00101D3A00101D3A00101D3A0010A0
:1004C00003B40148019001BDC100000003B401481C
:1004D000019001BD0133000000F002F800F040F887
:1004E0000CA030C8083824182D18A246671EAB4649
:1004F00054465D46AC4201D100F032F87E460F3ED4
:100500000FCCB6460126334200D0FB1AA246AB46BA
:100510003343184794B60000F4B60000103A02D3F3
:1005200078C878C1FAD8520701D330C830C101D594
:1005300004680C607047000000230024002500269A
:10054000103A01D378C1FBD8520700D330C100D58F
:100550000B6070471FB5C046C0461FBD10B510BD2B
:100560000AF063F81146FFF7F5FF03F07DFA0AF091
:100570007BF803B4FFF7F2FF03BC03F0A4FA00001A
:10058000FCB40022002300240025002600270629B1
:1005900002D4FCC00639FAE7002902D004C00139B0
:1005A000FAE7FCBC7047000002B472B60178013172
:1005B000017062B60139080002BC704702B472B61D
:1005C00001780139017062B6080002BC7047000072
:1005D00062B6704772B670471C3880F3098870475E
:1005E000014802490160704704ED00E0000000107E
:1005F000114B1968114A1268914216D0EFF3098025
:1006000020380860F0C044464D4656465F46F0C06C
:100610001A6010681030F0C8A046A946B246BB4622
:100620002038F0C8103080F30988054B002018707E
:100630000420404200470000300600002C06000065
:100640001D06000070B505460C46164602E00FCCAC
:100650000FC5103E102EFAD2082E02D303CC03C5CC
:10066000083E042E07D301CC01C5361F03E02178D4
:100670002970641C6D1C761EF9D270BD02460020E4
:100680000121890700E089089142FCD808E043185D
:10069000934203D8121A521A4B00181840088908BE
:1006A0000029F4D17047FFB5002285B05C001D46DB
:1006B000009280280AD08D4B8B280CD0A02845D0E2
:1006C000A22841D106293FD1009343E000293BD124
:1006D000012080073DE0042936D185488549807F87
:1006E0000968084321D1844E844F3078397842001C
:1006F0004843410082480818194609F066F93078E5
:10070000397842004143081841007D4808187D4966
:1007100009F05BF97C483A7801883078921C5043A4
:1007200042007748083810180181E807C00F4019C7
:100730007649400041188908890000916946001DEA
:1007400008810098002807D109B0F0BD0529FBD128
:100750006C4800906846048169482421083841802B
:1007600000214160472101700821417064480190D7
:100770000220694688734C814D73079808730021E5
:10078000684603F081F80021012002F013FFDBE747
:10079000FFB582B00CAC23CC84465D4801900F9825
:1007A0008E46C107400700294DD0800F2FD0002072
:1007B00023E0029940000C5A00998E000399895950
:1007C000019EC910611A019C09B2245E31520F9E2C
:1007D000A14218DDB60717E011520E1B08E0165EA5
:1007E00067467E4377464F43F6192E411652361B15
:1007F0001E52091B19520098401C0B990090884208
:10080000D7DB06B0F0BD7607002EE8DAE4E7002675
:1008100015E002987700C15B0398B4000059644664
:10082000C010081A01B2D05F009060437446614363
:1008300041182941D1530098081AD853761C0B98B7
:100840008642E6DBDDE7800F29D000201EE0810034
:1008500003980F9E40580299C41000984000095A0E
:10086000611A145E09B22746A14214DDB60713E0EF
:100870001152091B07E066467443764671436118BE
:1008800029411152C91B19520098401C0B99009024
:100890008842DCDBB5E77607002EECDAE8E70026D5
:1008A00018E00398B10040580299C41070000090FD
:1008B000085A201A01B20098175E60463C4644432D
:1008C000704641436118009829411152C91B009894
:1008D000761C19520B988642E3DB92E7824202DBD8
:1008E0008A4201DD0846704710467047705B004041
:1008F000E4110000680200004906000048060000FC
:10090000085D00409059004012020000993B0040F1
:10091000BC060000012110B549034804FFF730FE72
:1009200000200949094B08704870C870887001227E
:100930001A70074A5080074A1080074A1070074A09
:1009400010708880C88010BD0E02000033020000C5
:10095000300700004E0200005D0200005E02000051
:1009600010B5044600202064224640326064D077EF
:100970006023185501239B07E361664B6363664B55
:10098000A363654B0833E363A06490810122226571
:100990001023922213552061002901D001F0C8F8DC
:1009A0005E484078208310BD10B55D4C0021207852
:1009B00007F0C6FD002802D0002004F01DFA2078C0
:1009C00007F00AFE012010BD10B5112806D012282C
:1009D00003D15449082002F0EDFD10BD5149042017
:1009E000F9E7C00601D501207047002070474E4846
:1009F00002784E4801784E4801F097F901F066FB05
:100A000008F0BEFC4B48007808F0DAF808F062FA0B
:100A10000021084607F022FD414C01212070414889
:100A2000FFF79EFF0021012007F018FD60700121F3
:100A3000084607F013FDA0700121084607F00EFDDF
:100A40003D4908700121084607F008FD3B49334E37
:100A5000087071780C2002F099FB324C384F002559
:100A60004034304800F014F90020385E002802DBE2
:100A700000F038FDF5E73078FFF7B3FF00280ED11E
:100A8000707800280BD027488030807C0009000156
:100A900010280CD0802810D0002004F0ADF9307858
:100AA000FFF792FFFFF780FF0028FBD0D9E78022F5
:100AB00010211C4800F05AF9F1E7607F002807D0A8
:100AC0000021042002F076FD164800F07AFB6577DD
:100AD000A07F002807D00021042002F06BFD114800
:100AE00000F0E2FBA5770F4800F06CF915490420EF
:100AF0000856154908F044F9D1E710B507F03AFC5B
:100B00000748007807F09DFD10490F20C86207F0E4
:100B100036FC10BDE0230040005D004010300000B6
:100B20005F020000A4110000480600004906000012
:100B300090370040C5AD00100B0200000C02000011
:100B400064020000680E0000B43000008000005213
:100B5000F8B50546514901200870514A7821517075
:100B60005049514CC87008702168FF208872206875
:100B70004021C06808F091FF0F2200204B4E4C49E5
:100B8000D24364272B0009F0A4FD08050B151814A7
:100B900014141F140E6148618A610E62486211E0EC
:100BA0000E6148618A610E6248628A622168FA2099
:100BB0004880F8BD20684780F8BD0E610E6248612C
:100BC00048628A618A62F5E70E6148618A610E6255
:100BD00048628A62314901224A700870F8BDF8B54E
:100BE00004468034E18A334B0127CA1A2C4D002673
:100BF00099421BD007DC304A891822D0012910D035
:100C0000022942D13CE0012A29D00B2A3DD1002102
:100C1000042002F0CFFC0021C943012002F066FE4F
:100C200033E07D20000103F06FF82EE0208B0628D2
:100C30002BD8082028701949208B48801F4807703E
:100C400023E000F069F92873FF215320000641607A
:100C50000422026241628662C662016315E02F735C
:100C60004030477716481E210770164801804180A2
:100C7000FA218180C1800421017441742E7004E046
:100C80001021297000F0C9FDE860E6820120F8BD5E
:100C900010B5FFF7A4FF012010BD000062020000A4
:100CA00010300000C8300000282B0000FF030000B7
:100CB0004000005204080000FFF7FFFF5E02000042
:100CC0005D0200008430000053210906886AFC227E
:100CD0001043886204F0BDFF04F0D2F900F024FF55
:100CE00019491A4805F03FF903F014F807F0D4F851
:100CF000174D184E184C06271849287807F020FC85
:100D0000002802D0002004F077F8154800F094F88D
:100D100031780029F0D10028EED01248007805285B
:100D200005D0022002F046FC01202070E4E7207884
:100D30000028F9D00C4800210770082002F03AFC86
:100D400007F0EDF9F0E700004830000084300000C3
:100D500060020000103000006702000080969800DA
:100D6000A4110000D00200001506000010B50346D3
:100D700080331C469A7409022B4B1143CA1A9942BC
:100D80001AD00ADC294A891A11D001225203891A81
:100D90000DD02748C14205D107E0FF2A05D0FF3A10
:100DA000FD2A04D0002004F027F8012010BD00F037
:100DB000CFF88120A074F8E71E4841780B2002F09C
:100DC000E5F9F2E710B504468030807C81280AD02E
:100DD00083280ED084281BD0852807D0002004F05B
:100DE0000BF8012010BD8322812119E0802285218A
:100DF00016E0204600F02DF9A06C012802D98422CB
:100E000083210DE00B490B20497802F0BFF9E8E798
:100E1000204600F01EF9A06C0028E2D18322842134
:100E20002046FFF7A3FFDCE784830000801000006A
:100E3000FDAEFFFF10300000F1B504F00CF908F032
:100E400039FD2A49284D0B78294928780A78042148
:100E5000FFF729FC274804F0B0F9274C2423207021
:100E60002648244EC35E264A2649B06804F07CFD1D
:100E7000254A2178304604F00CFC20702C21715E4C
:100E8000306806F026F806F0F9F903F00CFC1F496B
:100E90000A68521C0A601E490A78002A22D01D4A9C
:100EA0001278052A1ED000240C7000F03BFE811C35
:100EB00000221023047012260DE00C804C808C80E0
:100EC0008C714A720B72CF793743CF7107780A3130
:100ED0007F1C0770521CAF789742EED8447000997F
:100EE00000784C64F8BD0000103000004906000096
:100EF000480600004807000040020000843000005F
:100F00003007000028080000440200000C300000F8
:100F10005C020000D002000010B50120FF23532125
:100F200009064B6004220A624B6200228A62CA628E
:100F30000B630A62FD244C604C620224CC608C611D
:100F40008A62CA620B638C68CB620A63896810BDCF
:100F500010B504460321052002F018F909481422AF
:100F6000018A302041437A2007F045FF054807F009
:100F700033FF204600F025F900204034607701203F
:100F800010BD0000B4300000F0B50020B7B001463D
:100F90000090EA4800780190C207D20F1018C0B242
:100FA000E74A43009E18B61DB20702D0F61CB608E9
:100FB000B600E44AE44D12780490801CC0B242436B
:100FC0008646002084460446039213E06000871999
:100FD00000231A46029005E05000385E002800DD2C
:100FE000C318724403988242F6DB029805AA641C77
:100FF0001352E4B204988442E8D3002005AFCF4CEA
:101000000FE04300EA5E009E96190096164663368E
:10101000C72E04D2FB5A642B01D29444491C401CB5
:10102000C0B2019A9042ECD3002903D0604608F088
:1010300040FD00E00020002105E04A00AB5A1B1AE9
:10104000491CAB52C9B222789142F6D3009837B00E
:10105000F0BDF1B586B00321052002F097F8E1203C
:10106000800002F01AFDB94FB94DB87900280DD1B2
:10107000287807F0B1FA08F063F86421287807F0BF
:101080005FFA002802D0002003F0B6FEAB4E002429
:10109000287807F0A1FA07F0CBFF002C0DD1B87922
:1010A00000280AD102223178AA4806F04FFEAA4948
:1010B00004200856A94907F0F2FD6421287807F0BA
:1010C0003FFA002802D0002003F096FE002C4DD0FD
:1010D000002008F054FA641C2406240ED8D0052100
:1010E000084602F053F8287807F076FA08F06FF80F
:1010F0006421287807F024FA002802D0002003F0A9
:101100007BFE0321062002F041F8954C33782078CD
:1011100028220021FFF7C7FA207833780122052121
:10112000FFF7C1FA8F489049904A00780978127801
:101130000325049501920291039030780090824B30
:10114000814F8B48A0333A468949A038FFF720FBEE
:101150002078337801220621FFF7A5FA854804F0AC
:101160009FFD7D48007900280DD01AE08248642157
:10117000007807F0E5F9002802D0042003F03CFED7
:1011800008F0F4F9A7E732780120042103900092D7
:1011900001917A4802950378794A3946744804F0F7
:1011A00042FEFFF7F1FE774908600121764800F022
:1011B00046FF06980699006C401C0864012007B0A1
:1011C000F0BDF0B585B00321052001F0DFFF06F08A
:1011D000B3FD00245E4D594E2746287807F0FCF9F0
:1011E00007F026FF6421287807F0AAF9002802D02A
:1011F000002003F001FE287807F0EEF907F0E7FF82
:101200006421287807F09CF9002802D0002003F020
:10121000F3FD08F0ABF9022C10D34A487321027891
:1012200089013378481000F028FD51480097337841
:1012300001224549A03804F0ADFD0AE0002C08D198
:1012400050214148FFF79CF973200221800100F0F2
:10125000ECFE641CE4B20A2CBFD33078009039480D
:101260000822037873204949800100F02AFD317873
:1012700003200122344C0092019102900423039731
:1012800008223B49204604F09BFD50212046FFF7F1
:1012900077F901213E4800F0C8FE0321062001F045
:1012A00075FF012005B0F0BDF0B53A4985B00120C9
:1012B00008600321052001F069FF0024244F1F4E20
:1012C0002546387807F088F907F081FF64213878DF
:1012D00007F036F9002802D0002003F08DFD022C23
:1012E00008D323480095337801221749A03804F029
:1012F00051FD05E0002C03D150211348FFF740F9C0
:10130000641CE4B2022CDCD33278032101200E4CA1
:10131000019202910090042303950822144920466B
:1013200004F04EFD50212046FFF72AF90321062044
:1013300001F02CFF174805600120B3E749060000C3
:10134000903B004048060000705B0040C830000041
:1013500005030000E0230040680E0000B4300000E8
:1013600010300000CEAD0010CDAD0010CCAD00109F
:10137000305A0040682300000C020000CFAD00107E
:10138000B05C004018020000AD96001090150000FF
:10139000F02300006802000070B5F74BF74C1A020A
:1013A0000020F74D03E041005E5A5652801C217820
:1013B0002E7871438142F6DC70BDF3B581B0012611
:1013C0000321052001F0E2FE02981024ED4D0027D4
:1013D000002833D0012831D002282FD0032830D064
:1013E000002600210198FFF7BBFAE74C207807F0B0
:1013F000F3F807F083FE6421207807F0A1F80028B5
:1014000002D0002003F0F8FCE048C760207807F025
:10141000E3F807F073FE6421207807F091F80028C4
:1014200002D0002003F0E8FCD948DB490770D94816
:1014300007700020C04308803046FEBDFFF788FBE0
:1014400003E0FFF785FBD148C7602C70C9E7002196
:10145000D248B2E70121D148AFE770B5D04DCB4EAD
:101460000024306828612862706868616862B0682A
:10147000A861A8620221C948FFF79FFF012C1AD07A
:10148000BF480078C107C90F0818BC49097848430C
:10149000420001218907B848FFF7D4F83068641C7E
:1014A000C04330607068C0437060B068C043B060D3
:1014B000022CD6DB70BDFFF76FFFEFE710B5FF2002
:1014C00029214906C860B7481021816301630320C0
:1014D00001F0BBFE0321B148FFF76FFF002001F0D0
:1014E000B4FE10BD10B5AC480024045F002C06D03B
:1014F000012C07D0022C08D0032C0BD108E0FFF7F9
:10150000A6FF07E0FFF7A6FF04E0FFF7A6FF01E054
:10151000FFF7D4FF0720FFF71BFB01219F48FFF7D0
:101520001FFA042C07D096480021037893480278CC
:101530008020FFF7B8F893490120087310BDF3B578
:10154000002083B006460090304600F037FC054688
:1015500000980024400001901DE03046049900F0FE
:1015600069FD074600F027FC604340003F188448AF
:101570000078604341000398091801980B18002176
:10158000083304E048003A5A491C1A52C9B2A94229
:10159000F8D3641CE4B2794800788442DDD3009823
:1015A000761C4019C0B2F6B20090042ECCD303983A
:1015B00024214180002141604721017008214170B0
:1015C00005B0F0BD70B5049C5A43002C0BD000232D
:1015D00006E05C00065F0D5FAE4200DD05535B1C5C
:1015E0009342F6DB70BD002306E05C00065F0D5FF2
:1015F000AE4200DA05535B1C9342F6DB70BDFFB5CB
:1016000084460A988E46002819D0002413E00999D0
:101610002046484340006146461800227146411862
:1016200006E05700F05FCD5FA84200DDF553521C85
:101630009A42F6DB641C02988442E8DBFFBD00247A
:1016400013E00999204648434000614646180022AD
:101650007146411806E05700F05FCD5FA84200DAFE
:10166000F553521C9A42F6DB641C02988442E8DB74
:10167000FFBDF0B58E468446002411E0204650435D
:10168000410060460D180023A70006E006985E00A2
:10169000A95BC05B081AA8535B1C9342F6DB641C71
:1016A0007445EBDBF0BDFFB59E4600200A9E0B9D06
:1016B0001DE000218700F1512954014651434B00A0
:1016C000009959188C4600210EE04C0063461C5FBF
:1016D000744508DC099B9C4205DBF3591C19F45145
:1016E0002C5C641C2C54491C9142EEDB401C01997B
:1016F0008842DEDBFFBDFFB58E468446002411E044
:10170000039800236043410060460D18A70006E0DF
:101710000B985E00A95BC05B081AA8535B1C934240
:10172000F6DB641C7445EBDBFFBDFFB594468646D3
:1017300000210B9E0C9D1BE000228F00F2516A5489
:10174000039848434200724400230EE05C00145F9B
:101750000998844208DC0A98844205DBF059041990
:10176000F4516C5C641C6C545B1C6345EEDB491CDF
:1017700001988142E0DBFFBD0000405E48060000AA
:101780004906000010300000050300006C02000054
:10179000620200006602000064020000A411000062
:1017A00040000052C0030055F0B5054600205A43E2
:1017B00003460BE05E00AC5F8F5FE41B00D5644224
:1017C00024B2844200DD2046AC535B1C9342F1DB23
:1017D000F0BDFFB5864600209C46024618E00999F8
:1017E00013464B43019C5B001E19002174461C19D3
:1017F0000BE04D00675F735FFB1A00D55B421FB2C1
:10180000874200DD38466753491C6145F1DB521CB5
:1018100002998A42E3DB04B0F0BDF0B5C7B0B94825
:101820003F90B9484190B9483E90B948409000F087
:1018300031FC002400F0BFFA0146B648007841436D
:101840004D002046419900F0F5FB294608F023F9A8
:10185000641CE4B2042CEDD3AF48007841004098FA
:1018600008F019F900260321052001F08FFCE12082
:10187000800002F012F9A94C207806F0ADFE07F0C6
:101880005FFC6421207806F05BFE002815D12078EB
:1018900006F0A2FE07F0CCFB6421207806F050FE93
:1018A00000280AD1207806F097FE07F090FC64210A
:1018B000207806F045FE002802D0002047B0F0BD99
:1018C0000321062001F062FC07F050FE0A2E7DD3B2
:1018D0000024904D00F06FFA0746204600F06EFAA3
:1018E000732102904901204600F0A4FB019020469C
:1018F0003F9900F09FFB00972A78029B0199FFF720
:1019000068FF641CE4B2042CE4D383487F49037865
:101910000122A0393E98FFF747FF0024002120460E
:1019200000F088FB732143900901204600F082FB00
:10193000429000F040FA4490204600F03FFA0546FD
:1019400020463F9900F076FB1E210E220091D243E3
:10195000429F439B01A98CC12A466E4D449B297826
:10196000FFF7E3FE294600200D7804AF13E0002CBA
:1019700004D100218200B95032AA11548100439A47
:101980007B5852589A187A50429932AB1A5C095CCB
:1019900051181954401CA842E9DB641CE4B2042C21
:1019A000BCD300240CE032A8015DA70004A8C059F4
:1019B000CA22504308F07DF8011204A8C151641CEA
:1019C000544FAC42EFDB00240E2500E05BE0ED431A
:1019D00000F0F1F94290204600F0F0F90390204623
:1019E0003F9900F027FB1E2204A901950092029165
:1019F0003978429B039AFFF77EFE641CE4B2042C04
:101A0000E6D332A904A80291434C019000951E230D
:101A1000227801213E98FFF746FE30A8017A04980B
:101A2000CA22504308F045F80012459045A801909D
:101A300000951E23227801213E98FFF71AFE00240C
:101A4000254600F0B8F90090204600F0B7F9039061
:101A500020463F9900F0EEFA02902046419900F0AE
:101A6000E9FA01953A78039B0299FFF7C8FD641CD7
:101A7000E4B2042CE5D328480095037801223E996E
:101A80004098FFF79FFD0024224F00F094F9397829
:101A90004843450073214901204600F0CBFA0090ED
:101AA00020463F9900F0C6FA2A46009907F08DFFBC
:101AB000641CE4B2042CE8D3174814490078A03918
:101AC00042003E9807F081FFFEF76EFF761CFA2E6B
:101AD00000D2C8E612484199FFF731FD0E480D4982
:101AE000007809784200414348000D490831401808
:101AF000409907F06AFF0021012001F05BFD012001
:101B0000DCE6000090150000F0230000305A004091
:101B1000705B004048060000490600000503000015
:101B2000005D004020487047204900200860704751
:101B300030B51F491C4A0978743211701D490020C4
:101B4000097851701C490B8D93824B8DD3828B8DFC
:101B50001383CB8D53830C4620341346257C2033CE
:101B60009D70647CDC700B8F93840B1820331418E9
:101B70009B7C401C23770628F7D30020034604E013
:101B8000410089180B714B71401C91788142F7D844
:101B900030BD0020054A0146121D1318401CC0B27A
:101BA00019730C28F9D37047183100000C3000006D
:101BB0004806000049060000C00200100A04120E88
:101BC000534B1204090618401043090D084370478F
:101BD000F0B59C4693046446DB0CA4052343059CA6
:101BE0004C4DE405A40A2343840088002E59FF309D
:101BF00081303350082901D2002000E00420012662
:101C0000130CB603B34201D1002300E002235204B7
:101C1000D60F4200891A1E4389000F228A400746C8
:101C20002B595837BE46DF598E4097433E4377467F
:101C3000DE512E590346B6466033F658059F96434B
:101C4000FF043F0F8F4037437646F7502B596830DB
:101C50001C58944362469204120F8A4014431C504D
:101C6000F0BD002100022B4A401C8B00D3581860A5
:101C7000491CC9B20429F8D37047FFB581B00024CC
:101C8000049800F049F8C6B20398029946432046EA
:101C900000F0D0F905462046019900F0CBF9024644
:101CA000002106E088004F002B58D75FDB192B502E
:101CB000491CB142F6D3641CE4B2042CE0D305B055
:101CC000F0BDFFB581B000250A9800F025F8049E0C
:101CD000C0B246432846019900F0ACF9009028466E
:101CE000029900F0A7F90746002409E00098A10036
:101CF00040580399C00007F0DCFE61007852641C74
:101D0000B442F3DB6D1CEDB2042DDDD3D7E7000048
:101D10000FF000FF10A90010401EC117090F08188E
:101D200000118000001DC0B27047F7B50C460321BA
:101D3000890701224118D20382B0914202D30020C8
:101D40000090FEE70025DC4EDC4B35707570B570F9
:101D5000F560B0602846012182009A581161401C4C
:101D6000C0B20428F8D30021012006F077FBF07000
:101D70000121084606F072FB30712046FFF7CCFFC8
:101D8000B07107460498F071CB4E002020363554D0
:101D9000401CC0B20428FAD3002508E03946284682
:101DA00007F07DFE315C491C6D1C3154EDB2A5423B
:101DB000F4D305B0F0BDC04880797047BE492031EA
:101DC000085C704770B5BC4800211C30BA4C0160FB
:101DD00060791821BA4D484340198268002A03D01F
:101DE000A1696069904700E00120A178002918D01E
:101DF00000281FD06079182148434019C268002A82
:101E000002D0A16960699047A078012812D12169A8
:101E100000208847A07000280CD106F0ABFA20798A
:101E200004E0002806D006F0A5FAE07806F009FCE8
:101E300006F0A5FA70BDA14801684969C9070AD032
:101E40000068012181619C481C30017000689D4937
:101E5000884200D1B6E77047984841684969C90788
:101E60000AD040680121816193481C3041700068AC
:101E70009449884200D1A5E7704790488168496934
:101E8000C9070AD08068012181618B481C308170AC
:101E900000688C49884200D194E770478748C16840
:101EA0004969C9070AD0C0680121816182481C3094
:101EB000C17000688349884200D183E77047F8B554
:101EC0007D4C05462178142902D301200090FEE7BD
:101ED0006869C20702D002200090FEE7E26880181D
:101EE00001229202904202D903200090FEE71820BE
:101EF000734E4143881918222946FEF7A3FBE16877
:101F0000A0681822401821785143891908616A692C
:101F1000296907F05AFD2078401CC0B22070696919
:101F2000E2688918401EE160F8BD18B40C466249A9
:101F30000978814202DC04200090FEE71821484322
:101F40005F490B58002B04D0204601B010BC11464D
:101F5000184718BC01207047F8B5574C0546207843
:101F600016460F46A84202DC04200090FEE7607887
:101F7000002802D005200090FEE765716761A66128
:101F8000E07806F029FB182045434D4831462D18CE
:101F90006A6838469047A078012812D06421E0781A
:101FA00006F0CEFA002802D006200090FEE7424953
:101FB00000201C310860EA68002A02D03146384609
:101FC00090470020F8BD3C481821407948433C49DF
:101FD000401800697047384818214079484338490B
:101FE000401840697047F8B5374E17460546002936
:101FF0000DD001290BD00024A000305839464019DB
:10200000FEF7BEFA641CE4B2042CF5D3F8BD00243C
:10201000491C4F43A00030583946401907F03BFD9A
:10202000641CE4B2042CF5D3F8BD234B9A79DB7918
:102030005A43D8E7244A800010584018704770B5BA
:102040001D4C0125A2780646012904D002290ED094
:10205000032919D01CE0002A01D0022A18D12079C6
:1020600006F0BAFA2661A5700120B04705E0022A01
:102070000ED1A570216902208847A070002807D1E1
:10208000207906F0B8FA03E0012A01D10220A070FD
:10209000A07870BD08B508488178002909D07D2155
:1020A000C900007906F04CFA002802D00720009001
:1020B000FEE7012008BD00007C02000010A900100E
:1020C000681200000101010120A9001010B5FE48AE
:1020D000FFF7F5FEFD4CE060FB486038FFF7EFFED0
:1020E0002060F9484838FFF7EAFE6060F64830386B
:1020F000FFF7E5FEA060F4481830FFF7E0FE20612E
:10210000F1481838FFF7DBFE6061EF483030FFF729
:10211000D6FEA061EC484830FFF7D1FEE061EA4806
:102120006030FFF7CCFE2062E7487830FFF7C7FE4B
:102130006062E5489030FFF7C2FEA06210BDF0B5C6
:1021400085B00546FFF73FFF012180B20026C90791
:102150000390DF4F40180290E87AFFF7DDFD019011
:10216000A87AB4004006410C019801433859016433
:10217000FFF731FF039940183959486039590298DF
:10218000886039590020486439590F20486501207A
:1021900000902A8800213046019BFFF719FD01209D
:1021A000009001466A883046019BFFF711FD082028
:1021B0003959285680310860697A0120800408184E
:1021C00039598864761CF6B2042EC5D30120FFF776
:1021D00048FD012005B0F0BDF0B585B00446FFF71D
:1021E000F2FE0290012180B20025C9070490B84F89
:1021F00040180390607AFFF78FFD0190207AAE00BF
:102200004006410C01980143B8590164FFF7E3FE11
:1022100004994018B9594860B95903988860B95968
:102220000020486401260096014622882846019B2A
:10223000FFF7CEFC0096E28801212846019BFFF7BC
:10224000C7FC0096628802212846019BFFF7C0FC6C
:102250000096A28803212846019BFFF7B9FC6D1C5C
:10226000EDB2042DC6D3A17A0298491E4068FFF74B
:10227000A5FC029948600120FFF7F3FC0120A9E7C3
:10228000F0B585B00446FFF79EFE0290012180B2B2
:102290000025C90704908E4F40180390E079FFF79E
:1022A0003BFD0190A079AE004006410C019801432E
:1022B000B8590164FFF78FFE04994018B959486076
:1022C000B95903988860B9590020486401260096DE
:1022D0000146A2882846019BFFF77AFC0096628897
:1022E00001212846019BFFF773FC009622880221FA
:1022F0002846019BFFF76CFC6D1CEDB2042DCDD37D
:10230000207A0104000101437248014302984160B0
:102310000298617A4069FFF751FC029948610120F7
:10232000FFF79FFC012055E7FEB50446FFF74BFE83
:10233000012180B20025C907029040180190E07980
:10234000FFF7EAFC4708A07961494006AE00400C5F
:10235000895938430864FFF73EFE029941185C48EA
:10236000805941605A49019889598860584900202C
:1023700089594864012600960146A2883B462846B2
:10238000FFF726FC009662883B4601212846FFF7AE
:102390001FFC02267F00009622883B4631462846D5
:1023A000FFF716FC009622883B4603212846921C24
:1023B000FFF70EFC6D1CEDB2042DC0D30120FFF71A
:1023C00050FC0120FEBDFEB50446FFF7FCFD0121D7
:1023D00080B20025C907029040180190E079FFF70C
:1023E0009BFC4708A0793A494006AE00400C895949
:1023F00038430864FFF7EFFD0299411834488059CB
:1024000041603349019889598860314900208959D0
:10241000486401260096014622883B462846FFF77D
:10242000D7FB009662883B4601212846FFF7D0FB88
:1024300002267F000096A2883B4631462846FFF7D9
:10244000C7FB0096A2883B4603212846921CFFF753
:10245000BFFB6D1CEDB2042DC0D30120FFF701FCC2
:102460000120FEBDF0B587B00446FFF7ACFD01903A
:10247000E079FFF751FC07460198012180B2C907B6
:1024800006904018059078000490B800039000254D
:10249000062078430290A0790D494006AE00400C1A
:1024A000895938430864FFF796FD06994118084892
:1024B000805941600649059889598860044900207F
:1024C00089594864012607E040AA0010A0020000D4
:1024D00010A900100010000E0096014622883B460D
:1024E0002846FFF775FB009662883B460121284687
:1024F000FFF76EFB0096A288002302212846FFF713
:1025000067FB0096A188049800230A180321284637
:10251000FFF75EFB0096A188039800230A180421A8
:102520002846FFF755FB0096A188029800230A1859
:1025300005212846FFF74CFB0096A2883B46062162
:102540002846FFF745FB6D1CEDB2042DA3D320896F
:10255000401E01B201984068FFF730FB01994860C6
:102560000A20205EC1430198C069FFF727FB01994B
:10257000C8610120FFF775FB012007B0F0BDFEB573
:1025800000218183C183816104460D4641610020A1
:1025900001900090FFF712FC0646FFF70CFC07467F
:1025A000732109010098FFF745FD6F437900411839
:1025B000002D07D0022D18D0012D29D022461E3221
:1025C00000202FE0019A0020920094460AE0420089
:1025D0008700E3688A5E6744DA5163699A18401C91
:1025E000C0B26261B042F2D31EE0019A00209200B4
:1025F00094460AE04200870023698A5E6744DA5104
:10260000A3699A18401CC0B2A261B042F2D30BE099
:1026100022461C32D4E747001388CF5BDB19401CED
:102620001380C0B2B042F6D30198801900B2019075
:102630000098401CC0B200900428ABD36D1CEDB2D2
:10264000042DA4D30120FEBDF0B585B00446FFF7EC
:10265000BAFC0546012180B20026C9070390401844
:102660000290207DFFF758FB0190E07CB700400608
:10267000410C01980143FE48C0590164FFF7ABFCCF
:1026800003994118FA48C0594160F9490298C9595B
:102690008860F7490020C95948640127009701461E
:1026A00022883046019BFFF793FA00976288012148
:1026B0003046019BFFF78CFA0097A2880221304632
:1026C000019BFFF785FA0097E28803213046019BC2
:1026D000FFF77EFA0097228904213046019BFFF71D
:1026E00077FA0097628905213046019BFFF770FA5F
:1026F0000097A28906213046019BFFF769FA761CF4
:10270000F6B2042EADD30F2161566868FFF756FA72
:1027100068600E2020564142E868FFF74FFAE860F3
:10272000112161562869FFF749FA28611021615685
:10273000A869FFF743FAA861122020564142286A8F
:10274000FFF73CFA28620120FFF78BFA012041E5F0
:10275000F0B5054685B000200190FFF734FC014636
:10276000687D0022002808D0E8682423438047239E
:1027700042600370082343700193BE4808608F20B5
:102780008005002427468EB2086128190390017A3B
:10279000002939D0287DB64A4006400C0143A000EC
:1027A000135819641358311D59600121C907105875
:1027B000711881600021A000AD4A02901058416458
:1027C0000120009060002B5A2A8A2046FFF700FA69
:1027D000012000900198E96838180A186B8A0121D5
:1027E0002046FFF7F5F90398A14A007AFF2140003F
:1027F000C01987B20298023110580160641CE4B21B
:10280000042CC2D30120E5E4FF2202329849A00043
:102810000B581A6432460B5808325A60964A0858C8
:10282000B2188260C6E7FEB504460191FFF7CBFB04
:1028300006460199206988600199E06848608F49DF
:1028400031608F497160227A08278E498E48022AAA
:1028500004D0B160217A0C27012901D0F0513F1D2D
:1028600001210025B0B2C90740180290E079FFF7B6
:1028700053FA019903464855A0797D4A4006410C18
:102880001943A80012581164794A00211258516462
:10289000774A029912589160754AF119105889B215
:1028A000416001200090228800212846FFF790F91E
:1028B000012000900146628800232846FFF788F92E
:1028C00001200090A288002302212846FFF780F90A
:1028D0006D1CEDB2042DC9D30120FFF7C2F9012010
:1028E000FEBDF8B50746007A0E4602281BD0674D9C
:1028F000002479882046FFF79DFB02460020335DC7
:1029000006E04100515EA94200DA0D46401CC0B20B
:102910008342F6D8641CE4B2042CEAD370680580C4
:10292000387A012819D0594D6D420024B9882046C3
:10293000FFF780FB02460020335D06E04100515E58
:10294000A94200DD0D46401CC0B28342F6D8641C8B
:10295000E4B2042CEAD3B06805800120F8BDF0B5DC
:102960000025817B2B462F468E4626E00024067BE1
:1029700021462246B44612E0066976578E40083159
:102980003243C9B2202907D341699E008959914237
:102990000ED100210A465B1C641CE4B26D1CA445E8
:1029A000EAD8002907D041699C000959914201D019
:1029B0000020F0BD5B1C7F1CFFB2BE45D6D80120B5
:1029C000F0BD00B5FFF7CBFF002800D0012000BD0F
:1029D000F0B587B00D460446FFF7F5FA02900120E6
:1029E000687200272F73207BC01C8008E872A17BCF
:1029F000607B07F054F8A872A17B4843617B884252
:102A000005D0081A2872A87A401CA87200E02F721C
:102A10000298002680B2011D05910121C9074018C6
:102A200001960490E07BFFF777F9A91903910871EB
:102A3000A85500200E49B700C9594864E0880090A5
:102A400021680198A3880A1800213046FFF7C0F8D2
:102A5000207B01283BD0A97A228941434806410CBA
:102A6000A85D01430248C0590164012000900FE0B5
:102A700010A900100010C023040000800010000CFA
:102A80000020000C1010002120204021FF7F0000BA
:102A90000146AB5D3046FFF79BF8FA480599C259ED
:102AA0005160C059049981600398761C0079F6B290
:102AB00041000198081880B20190042EB2D3029808
:102AC000F14901600120FFF7CCF8012055E5607B5A
:102AD00062894006A95D400CC3E7F8B517460C466D
:102AE0000646002501200090607BA17B7B5D401A9B
:102AF00080195843618940004218E8B20121FFF76C
:102B000067F86D1C042DEDD3FA7ADE4B1046724344
:102B100080188646002110E0950000208F00AC460A
:102B2000803765696646AD5986009E59F551401C4F
:102B30000428F6D3491CC9B2521C7245ECD3F8BD27
:102B4000F8B517460C4606460025012000907B5D2F
:102B5000A17B18464B436189704340000A18E8B2D4
:102B60000121FFF735F86D1C042DEED3FA7AC54923
:102B70001046724380188646002310E0950000201E
:102B80009F00AC46803765696646AD5986008E5910
:102B9000F551401C0428F6D35B1CDBB2521C724575
:102BA000ECD3F8BDFEB50C460646FFF70CFA074617
:102BB000307B032201287DD0607A0128207B1DD044
:102BC000401CC0B22073B17B884273D2224631468A
:102BD000FFF783FFBCB201260020AA4DF607FF27AE
:102BE0000237C10061188A1981006B589A606958D0
:102BF0000F60401CC0B20428F3D37FE0401CC0B279
:102C00002073B37B98423DD8012833D1207A002825
:102C1000A07A01D0401EC0B200254006400C0290B0
:102C2000B8B2019001200090635D307B328943434C
:102C300000212846FEF7CCFF615D0298914A0143CE
:102C4000A800125811648F4918220958B2564A64D4
:102C5000317B8E4B625D090419430A43E9007A50C7
:102C6000019A5118874A091D105841606D1CEDB238
:102C7000042DD7D3207B2246401EC0B23146FFF739
:102C80005FFF28E0207A00283AD0181A207302202B
:102C900060720025605D7B49AA008958FF300130D1
:102CA0000864207B22463146FFF717FF0120009081
:102CB000635D00E024E0307BA17A5843491E48431D
:102CC00031894000421800212846FEF781FF6D1C23
:102CD000EDB2042DDED3BCB201260020694DF6070B
:102CE000FF270237C10061188A1981006B589A606A
:102CF00069580F60401CC0B20428F3D30020FEBD09
:102D000062720120FEBDF0B587B00C460546FFF7A4
:102D10005AF902900120607200272773A87BC01C1B
:102D20008008E072297CE87B06F0B9FEA072297C5D
:102D30004843E97B884205D0081A2072A07A401CDB
:102D4000A07200E027720298002680B2011D059152
:102D50000121C907401801960490687CFEF7DCFF4A
:102D6000A11903910871A05500204649B700C9591F
:102D70004864E888009029680198AB880A18002107
:102D80003046FEF725FFA87B2A89012829D0A17AA1
:102D900041434806A15D400C08433A49C9590864BB
:102DA000012000900146A35D3046FEF711FF354833
:102DB0000599C2595160C059049981600398761CE5
:102DC0000079F6B241000198081880B20190042EF3
:102DD000C3D302982C4901600120FEF742FF012075
:102DE00074E6E97BA05D4906490CD5E7F7B50025F7
:102DF00082B016460C4601270097735DA289E8B29F
:102E00000121FEF7E5FE6D1C042DF5D3F27A02993F
:102E100010464A438018864600231A4910E0950060
:102E200000209F00AC468037A5696646AD598600F4
:102E30008E59F551401C0428F6D35B1CDBB2521CA2
:102E40007245ECD383E4F8B50C4605460988FFF7D4
:102E5000F1F8009061882846FFF7ECF886460023D9
:102E600031E0A0885843410000980E18E08858438C
:102E7000410070460A180A202056002808D08446CF
:102E800000211BE010A900100010C0230010402FEB
:102E9000002106E04D00575B705B3818491C505309
:102EA000C9B2607A8842F5D80BE04D00505F775F79
:102EB000C01967463841491C5053C9B2607A8842EC
:102EC000F3D85B1CDBB2207A9842CAD8F8BDF7B5BC
:102ED000002582B016460C4601270097735DA28933
:102EE000E8B20121FEF774FE6D1C042DF5D3F27AD1
:102EF000029910464A43801886460023954910E0FF
:102F0000950000209F00AC468037A5696646AD5904
:102F100086008E59F551401C0428F6D35B1CDBB2A9
:102F2000521C7245ECD312E4FEB50C460546FFF781
:102F30004AF80746A87B012843D0607A01285AD076
:102F4000012069460872687F88720026A889694650
:102F50000880E87B297C401A217B4018A15D48430A
:102F60006989400040186946488000208880C880F0
:102F7000A019007948723046FFF765FF761CF6B25B
:102F8000042EE3D3207B401CC0B22073297C8842EE
:102F900030D222462946FFF729FFBCB20126002085
:102FA0006C4DF607FF270237C10061188A198100AE
:102FB0006B589A6069580F60401CC0B20428F3D364
:102FC000C2E028896946088068894880E87B0872E1
:102FD000687F88720025605D69468880605DC88072
:102FE0006019007948722846FFF72DFF6D1CEDB27D
:102FF000042DF0D3AAE0207A0028A07A01D0401E48
:10300000C0B2217B491CC9B22173022920D3A989EE
:103010006A4611801072687F90720026217BA05D45
:10302000891E484369894000401869464880A05D70
:103030008880A05D297C48436946C880A019007932
:1030400048723046FFF7FFFE761CF6B2042EE5D339
:10305000217B287C81423DD8012933D1207A002868
:10306000A07A01D0401EC0B200264006400C02905B
:10307000B8B2019001200090A35DA87B2A89434348
:1030800000213046FEF7A4FDA15D0298314A0143BC
:10309000B000125811642F491C220958AA564A64DC
:1030A000A97B2D4BA25D090419430A43F1007A5014
:1030B000019A5118274A091D10584160761CF6B232
:1030C000042ED7D3207B2246401EC0B22946FFF7EC
:1030D000FEFE26E0217A002938D0401A2073022013
:1030E00060720026A05D1B49B2008958FF30013094
:1030F0000864207B22462946FFF778FE01200090D5
:10310000A35DA87BA17A5843491E48432989400002
:10311000421800213046FEF75BFD761CF6B2042E05
:10312000E0D3BCB2012600200A4DF607FF27023784
:10313000C10061188A1981006B589A6069580F6044
:10314000401CC0B20428F3D30020FEBD03206072EF
:103150000120FEBD10A900100010402F10B501463F
:103160002B4806F09CFC410A2A4A0120506029485D
:103170000023403003620F23C3620161FF214161DC
:103180008161032151600421016210BD70B5401FAF
:103190000C46214D030007F09CFA0817191D1D1D50
:1031A0000D05081D2868844217D00846FFF7D6FF92
:1031B0002C6012E029225206506BC9B2FF231B0279
:1031C00018400843506308E0012000E0002000F0B0
:1031D00010F802E0002001F00FFE012070BD10B5D4
:1031E00000F0A9F800F01CF80A490F204031C8622D
:1031F00010BD10B5002803D0084600F04EF810BDF1
:103200000648C0780028FAD1084600F027F810BD1B
:1032100040D2DF0340000052CC020000C830000062
:103220003D20024900040863704700004002005539
:1032300010B55B4C0320216805F0FAFF206859495E
:10324000401C20601020886310BD0021022801D09E
:10325000032800D1544900208165704710B5292109
:103260004906CA680C239A43CA6002234F4A0128C0
:1032700007D0022805D0032807D0002001F0BCFDAC
:1032800010BD53604A48086210BD53604948086247
:10329000C8688006800EC86010BDF8B529256D0687
:1032A000E9680C221143E960404C012600280BD04C
:1032B000032806D0052803D0002001F09DFDF8BDAD
:1032C000022060602E62F8BD3B4FA96BB86909020D
:1032D000090A0843A863786820603848286238489B
:1032E0002862F720C001286236482862364800F07C
:1032F000D4FB2E490020403108601C224A608A60BD
:10330000032161602E62314A226160610F21C9434D
:10331000A16122626062A1622D4800F0BEFB786864
:10332000172108432060284800F0B7FB7868372150
:1033300008432060F8BD70B5264CA16B00208200C8
:1033400012191268401C891A0E28F8D32068224AE4
:1033500029256D06904217D1E06B204A904213D187
:10336000002910D1A0680104E0680002014320692F
:1033700001436068C0B203F0D2FF6069A1692863AD
:1033800008020830686370BD4020286314486863F1
:103390001449072003F0C3FF70BD00207DE7000043
:1033A00078020000C0030055313200104000005286
:1033B000A57F00000578000090AD0010A0FF000080
:1033C00080FB0000817A000088130000FF030000EA
:1033D00030750000800701201004102013067419B6
:1033E0000840000020202000F0B52649244808624B
:1033F00025480168090A090201600268FF210902E3
:1034000003238A439B03D218026002680C02A24382
:103410001E0292190260026815022D0A8A05AD1873
:10342000056045682D0A2D02C035456045688D430D
:10343000ED18456045680127A543BF05ED194560B6
:1034400045682D022D0AAD184560C5688D43E91801
:10345000C160C168A1438919C160C1680902090A34
:103460008918C1600169090A0902C031016107496F
:10347000401708600549064880390860F0BD000023
:103480000000C08000ED00E000E400E080E100E02A
:10349000E1F001000918E74804220260E54B02222E
:1034A000403B1A6101221A6105231B079A60816063
:1034B000E1490160491E01607047EBE770B50A46BB
:1034C0004178037809021943DC4C8378E182812535
:1034D00023832D014C1B0126A9424DD007DCD84B7C
:1034E000C91A2AD00C2908D00D2950D112E0002584
:1034F000012C46D0062C4AD123E0C27881781202F2
:1035000089180279407912040006101809180C2253
:10351000CC480FE0C37881781B02C918037944793D
:103520001B0424061B19CB18911F00292FDD811DB8
:103530001846921F06F049FA29E0C04840384677FD
:1035400025E0BE49BD4A20390E700021803A43185B
:103550009C7853186033491CC9B25C702E29F6D38D
:1035600040188178B84880224170817A1143817275
:10357000C068203005770AE0B24910200C39087085
:1035800005E0B249B248012B03D00D70057001204F
:1035900070BD0E700670FAE701228105D203801A11
:1035A0008003000E8200AB48890D8058002800D0AF
:1035B000401870470521042384220907012807D0F9
:1035C000022803D004280AD0082809D10B6007E09C
:1035D0000B60002000BF401CC0B2C828FAD30A60AC
:1035E0000120704710B5C2B29A4B000A4400203B3C
:1035F0001B5B934202D80020088010BD954C8000D0
:10360000603C205880189A1A0A8010BDFEB589487F
:10361000914E4038406AFF218000800C01310D1A24
:103620007078317804028D480C4344600120000317
:10363000022D0DD051DD4110611A202939D2FEF73B
:10364000A8FAE9B23046FFF739FFFDF756FA44E031
:103650000927BF010026E11B762908D2002104209A
:10366000FFF7A8FFFEF75EFA0019C11B1AE08442BB
:1036700004D2204601A9FFF7B5FF12E07849271AC6
:103680008F4206D200210420FFF794FF75493E4681
:103690000AE00121C903611A81421ED22046FFF7C8
:1036A0007BFF0146002918D02A463046FFF7F2FE7C
:1036B00013E0844211D220466946FFF793FF0028A9
:1036C0000BD069460988AD1EA94201DD69460D800F
:1036D00069460A88B11C06F078F90120FEBD30B5B4
:1036E0008421052212071160012313610024146252
:1036F0005049022540390D600B600D610B613F237D
:103700005B021843D0610C20086253488862564817
:1037100008624848611EC162C462504909780129A3
:1037200002D05249016230BDFF210131FAE7F8B5FC
:10373000404F7C6A0020C043F862484E3078012830
:1037400003D1E00501D54A483862A006800F23D096
:10375000384D403D6868C007FCD03A480C380078C6
:10376000122803D100210820FFF724FF3078052814
:1037700024D0B1782046FFF749FF022028600120BD
:1037800028600C2028623448A8623748286200204C
:10379000B070307801281BD0307805280DD1A000FA
:1037A0000BD5344C2078C00716D000210420FFF739
:1037B00001FF2078400840002070F8BD686AFF21B2
:1037C0008000800C0131081A234904F021FDD4E760
:1037D000FF2001303862F8BD2848274A0078117868
:1037E000431E994204D0002802D0491C1170F8BD34
:1037F00000210420FFF7DEFEF8BD70B5174C01254F
:1038000020781F4E05280FD06C20FFF768FF1D4958
:10381000B570142048600020A070014604F01EFE20
:10382000607004F0D9FE70BD6C20FFF758FFB570D2
:10383000F1E70000C00000500900FFFF2412000063
:10384000000800001C3000005C0600000F020000B1
:103850001102000048AB001048140000D002000024
:10386000C81C0000005D004009000001F00100607C
:1038700030000020150600001706000016060000A4
:10388000C8300000B430000010B5827B042A23D079
:10389000022A23D00023152292060468946144680A
:1038A000D4619360037B447B5B1E1B04641E234333
:1038B000D3600389847B1B04234313614389807B8A
:1038C0001B0403435361012090621060002902D061
:1038D00050680028FCDB10BD0223DCE70123DAE797
:1038E000012115208006816201627047F3B583B023
:1038F0000E46FEF717F929240398002564060128CF
:103900000BD0022809D0032807D0042869D0002052
:1039100001F072FA012005B0F0BD374F31467869E9
:103920000090364806F0BBF8E96B0291296C0191D2
:10393000216A490849002162216A314A1143216202
:1039400030490D62FF22CA623D612F49E9632F4968
:103950002964A168FE221140A160216A022211435C
:103960002162002100BF00BF00BF491C3229F9D3EA
:10397000216A0122920211432162012767621E49D6
:103980004861886107220A610398032816D03046EF
:103990000099FCF795FD206A000C00042062206A63
:1039A0003843206265620298E863019828641948E8
:1039B00017490160134804210162ABE70098761CA7
:1039C0000BD0154B236230BF256251231B061D60AF
:1039D000486188610A61A760DDE70F4B0933236204
:1039E000F2E70C497D2000010D60A06103206061B9
:1039F000012060618EE7000000E000E050C300009D
:103A0000A4FB000080000052030100000701000039
:103A1000E120000000E100E0A67F0000FEE710B515
:103A2000FCF75AFD10BD10B504F0D3FC1E4B1F4A25
:103A300000211F4804F001FF1C4A1E4B521C0021AC
:103A40001D4804F0FAFE04F0E7FC10BDF9215320F4
:103A500000068160416004210162FC218162002135
:103A6000C162FF210163704710B5FFF7EFFF03F05C
:103A700039FCFFF7B4FBFCF729FDFFF731FFFFF737
:103A8000BCFEFFF7B1FCFCF745FFFFF7CCFF04F0ED
:103A900077FF0A4A03C2012010BD002101E000BFE8
:103AA000491C8142FBD37047841B00000990010030
:103AB000EF090010C4210000C90C00101003000021
:103AC0000A4603467047FEE730B5034600208D4C9A
:103AD00001465A569200121952684D00AA40491CDC
:103AE0001043C9B21029F4D330BDF8B50F460446CF
:103AF0001D4616461021104605F0CDFF0698807829
:103B0000A04254D80699C978A14250D3201AC1B214
:103B10000024E878AA7803E0091A1319C9B2DCB2C4
:103B20008842F9D9601E10182B7AC0B2834204D89B
:103B3000981AC4B2601E1018C0B2002F0AD0012F0C
:103B40000FD0202833D3202C1FD22022121BD2B218
:103B500000241DE0102C2AD2102800D30F200022B0
:103B600023E0202C23D2102821D3102C04D21022A1
:103B7000121BD2B2002402E0103CE4B20022202842
:103B800001D30F2011E0103803E00022203CE4B202
:103B90002038C0B209E0EB786F685343FB18CB5C68
:103BA0003355641C521CE4B2D2B28442F3D9F8BD3E
:103BB00030B50446002085B02E2C06D2102C02D23F
:103BC00062000120904005B030BD1578A54211D8A3
:103BD0005378A3420ED30022497A03E0521C80009E
:103BE000D2B2401C9142F9D8621B4A435100091DD0
:103BF0008840E8E70B46009201AA00212046FFF723
:103C000074FF01A8FFF760FFDDE730B50446002030
:103C100085B02E2C06D2103C102CD4D2620001208C
:103C20009040D0E71578A54215D85378A34212D317
:103C30000022497A03E0521C8000D2B2401C91421B
:103C4000F9D8621B4A4351001C3901D48840BAE7B5
:103C50004942C840B7E70B46009201AA012120461D
:103C6000FFF743FF01A8FFF72FFFACE730B504468D
:103C7000002085B02E2C06D2203C0E2CA3D2620050
:103C8000012090409FE71578A54215D85378A342AC
:103C900012D30022497A03E0521C8000D2B2401CA9
:103CA0009142F9D8621B4A4351003C3901D4884003
:103CB00089E74942C84086E70B46009201AA0221E3
:103CC0002046FFF712FF01A8FFF7FEFE7BE770B565
:103CD00005460C46007AA9784018401E05F0E9FE1A
:103CE000697A064608462D3005F0D9FE2E30A070C0
:103CF000E97871434118491EE1702E212170401E60
:103D0000607070BD58AB001010B501460420FFF77D
:103D1000EDFD10BDFE48FF490078801C0870FE488C
:103D20000078C107C90F0818FC49801C087070474B
:103D3000F3B58600FA48FB4C81B08059A16806F0C3
:103D4000D5FC0546E16806F0D1FC0146284606F0A0
:103D5000C3FA0746029806F0B9FB6168009106F0C5
:103D60006FFD394606F008FD009906F0BFFC606063
:103D7000284606F087FA04460D46384606F082FAD1
:103D80000022E94B06F008F922462B4606F046F9D8
:103D900005F032FFE2498851FEBDF3B58600E048E8
:103DA000E04C283881B08059A16806F09FFC054698
:103DB000E16806F09BFC0146284606F08DFA0746AE
:103DC000029806F083FB2168009106F039FD394620
:103DD00006F0D2FC009906F089FC2060284606F027
:103DE00051FA04460D46384606F04CFA0022CE4BF6
:103DF00006F0D2F822462B4606F010F905F0FCFE3C
:103E0000C74928398851FEBDFFB587B005460998D6
:103E10000F461099006801901868009000201E4617
:103E2000085E06F053FBBF4C2060049011990020FF
:103E3000085E06F04BFB60600290009806F046FBBF
:103E40000390029906F0FCFC014606F095FC0590F3
:103E5000019806F03BFB0290049906F0F1FC014644
:103E600006F08AFC059906F041FC06F0E5FAC0115F
:103E70001E2800DD1E20AD49AE4B0A78AC49002A51
:103E800008D01298002808DCF80517D4AA48A060CA
:103E9000480711E0129A002A02DD00200BB0F0BDA5
:103EA000FA050BD506F0AFF80022A44B06F05EF839
:103EB00005F0A2FEA060A248E06001E0E360A1601E
:103EC00097482830415D002914D0019801B228B2EA
:103ED0000546FFF762FF009801B22846FFF728FF6A
:103EE000206806F0A9FA09990860606806F0A4FA4B
:103EF0003060D2E701214155894A7F21C905A800D8
:103F0000283A1150283211500298206003986060BE
:103F1000E6E7FFB505468B488B4A00781E46400011
:103F2000135A8BB080180493808802903020874AFF
:103F3000684384180D9A1C20205E1368C21A00D5AD
:103F40001A1A1E27E75F3368F81A00D5D81B101815
:103F5000009001900D98CF07006806F0B7FA09901D
:103F6000302045437948642128180A25455F694374
:103F70000891C16A0791806A0690002F35D0019997
:103F80000498401806F0A2FA02900390019806F0F7
:103F90009DFA01460090099806F0EEFB074604984A
:103FA00006F094FA0190069906F0E6FB394606F011
:103FB0009DFB039906F090F9A06236E06431002879
:103FC00000D5501B5043089A801805F072FD1499D3
:103FD0000880A06A06F030FA0D990860E06A06F0E1
:103FE0002BFA306000200FB0F0BD00990298401805
:103FF00006F06CFA04900590009806F067FA014606
:104000000090099806F0B8FB0746029806F05EFAA1
:104010000190069906F0B0FB394606F067FB05995A
:1040200006F05AF9A06204980290009F306806F0EA
:104030004DFA394606F0A0FB07460799019806F0AD
:104040009BFB394606F052FB029906F045F9E06207
:1040500014980022825EA81A01D40146AEE7511BD3
:10406000ACE7F3B53A4885B00078002802D00020CC
:1040700007B0F0BD3748384CC37D0393007E0290F3
:104080002348228D00780092810041180620504379
:1040900005F005FD074620480622007881004118FA
:1040A000608D0190504305F0FAFC064605982949B9
:1040B0000088009A05B20698039B008804B2192074
:1040C00008565108002B4DDDBD4204DAE81B584369
:1040D0008011C0190EE0521BBA4206DAD11B5943B7
:1040E00089110098C919401A04E04A1B504305F091
:1040F000E0FC401905B217491A2008561649029AE1
:10410000498D4908002A4ADDB44231DAA11B25E075
:10411000480600004B020000490600004C02000067
:10412000F0210000D80200000000F03F3102000042
:104130009A99593F0000C0403333733F0000E83F75
:10414000000020410F0200000C3100008C0E000026
:104150005D020000D4300000480700005143881180
:10416000801916E0BD42C6DBD21BAA42BDDAC2E707
:10417000019A121BB24207DA911B029A019851432D
:1041800089118919401A04E00A1B504305F091FC7B
:10419000001904B2059805600698046067E7B44208
:1041A000F8DB019A921BA242EEDAF3E7FFB587B083
:1041B0001D4614460E46119F079806F087F9059094
:1041C000304606F083F90490204606F07FF903900C
:1041D000284606F07BF90290109806F077F90190D6
:1041E000384606F073F90090BE4210DD1098001BAF
:1041F00006F06CF90646781B06F068F9314606F0C1
:104200006BF80746059906F0B7FA04990FE007988E
:10421000201A06F05BF90746A81B06F057F9394645
:1042200006F05AF80746019906F0A6FA009906F03A
:104230005DFA05463846039906F09EFA029906F0A3
:10424000F3FA06467800000E0ED00121384606F03B
:1042500049F904463146284606F0F2FA214606F0AE
:104260003BF806F0E9F819E6204617E6F0B50E46E9
:10427000054685B01446981B06F028F90290019077
:104280000A992846684349430746C81B06F01EF9A9
:1042900000900B98801B06F019F9039020466043AC
:1042A000381A06F013F90146039806F065FA074636
:1042B0000099019806F060FA394606F017FA019065
:1042C0000B98301A06F002F90090601B06F0FEF819
:1042D00006460A98029F401B06F0F8F80146384649
:1042E00006F04AFA05463146009806F045FA294696
:1042F00006F0FCF9012106F0F5F801464000000E39
:1043000006D0019805F0E8FF06F096F805B0F0BD7C
:104310002046FBE7F0B50022059E069D079C00287D
:1043200004D1375E002F00DA32801A80F74F3F78D1
:104330007F1EB84205D10020185E002800DA1A80DE
:104340003280002904D1605E002800DA22802A80B1
:10435000EF480078401C814205D10020285E0028EB
:1043600000DA2A802280F0BDF0B59446E94A0025A3
:10437000E94F14692B46FE56CA5C36187600A65FD4
:104380005B1C564375195BB2042BF4DB4200A25E42
:104390000B795A4355190523FE18203E1F22B256A9
:1043A00016187600CA5CA65F5B1C564375195BB293
:1043B000092BF1DB6046054128B2F0BDFFB506468A
:1043C00089B000200790D5481F46017830460D4639
:1043D00005F065FB04466843301A85B2701E0190F3
:1043E0000A99701C009000291FD0CB4903228A56DD
:1043F000C848921997B204228A56006991190B0491
:10440000019976000A04865F04960099D20B825ABD
:104410006E463283DA0B825AB2827A000904825ADB
:10442000B281C90B405A308434E07A7A394630463A
:10443000FFF79AFF049001987A7A80B23946FFF725
:1044400093FF6946088300987A7A80B23946FFF76D
:104450008BFF69460884B1487A7A00783946301A69
:1044600080B2FFF781FF69468881AC487A7A00788C
:104470003946301880B2FFF777FF6946888208AA6C
:1044800006A905A86E4607C603AB69B260B2049AD6
:10449000FFF740FF0B98C00753D068460C21415EE0
:1044A0001422049B825E994203DD0B46914200DA9E
:1044B00013469B4E994210D193420ED1A000801911
:1044C00041681298002C016004D096480078C01E04
:1044D00084425ED101200DB0F0BD9348807A00285F
:1044E0000BD0A0008446801987680097019242682B
:1044F00060463058FFF7BAFE0AE0A00084468019F3
:10450000876800970192426860463058FFF74EFE78
:10451000002800DA00207D4909788900725889193D
:10452000496851184A10824200DC48101299002C48
:10453000086004D07B480078C01E844201D101206D
:1045400007900B9880075AD568461821415E2026AF
:10455000049B865F994203DD0B46B14200DA334685
:104560006F4CC034994216D1B34214D1A80000193F
:1045700041681398002D016009D065480078C10793
:104580006648C90F0078401AC01EA84201D1022017
:10459000A1E700209FE76448807A002809D0A8009E
:1045A000021997680097019652682058FFF75EFE3F
:1045B00008E0A800021997680097019652682058F1
:1045C000FFF7F4FD002800DA0020514909788A003D
:1045D000A358121952689A185310834200DC5010E5
:1045E000139A002D106007D04C48C9070078C90FF6
:1045F000401AC01EA84202D10798801C0790079855
:1046000069E77CB50D463021144648434749474A7F
:10461000095A82182120105630225043444AC905B5
:104620008618F08800290095019424DA414B012274
:104630000021FFF7C3FE002801DB012807D1009508
:1046400001940122F0883B4B1146FFF7B7FE394B2E
:1046500000950194F0880A3302220021FFF7AEFE94
:10466000002801DB02281DD1324B009501940A334A
:10467000F088022213E02F4B03220A3B0021FFF7B0
:104680009DFE002805DB012803D0022801D0032865
:1046900008D1284B00950194F0880A3B03220121A0
:1046A000FFF78CFE7CBDF0B5AFB000202A90012052
:1046B0002790FDF737FA00212890871C0170289871
:1046C000417068460173417304F05AF91A4A03C2F3
:1046D0000020249019482C9019482990249D3020BE
:1046E00045431248445BFF200230044237D0600645
:1046F00002D54820A04332D16846007B0A49259064
:10470000897888421ED3094826E000004806000048
:1047100049060000680E0000030200004C02000081
:1047200068AB00104B020000103000008C0E00003F
:10473000A80800007AAD00101003000068300000E7
:10474000680700004820A0430AD1FE4829188A695A
:104750002C99097D8A4203D840210C434453B3E28B
:10476000600706D5F74829188A692C99097D8A427D
:1047700008D9200709D5F34829188A692C99097D99
:104780008A4202D8092141539EE2EF490C420AD0E5
:10479000EC4828182030C0784007800F03D0EB4A3F
:1047A000249900205054EA490C420ED0E5481C21BF
:1047B0002818415E23911E21415E2291418920AA41
:1047C000118320308078279020E1600514D5E24BDA
:1047D000DC4EE04A1B78A919D218127C88699042F5
:1047E00002D2401C88616FE20120800284432020B5
:1047F0000443745301202790D24801212E183046DB
:1048000020302B90415630204143D44809180A20CB
:104810000091085EC1B22A91E1050BD40099897B11
:10482000490707D4CC49CE4A097851182031897AF2
:10483000884253DC22AA23A92498FFF7E2FE2D9098
:1048400000980622825EC7490292097810460191BB
:1048500005F02FF90199C0B2029A4143511A2D9ADD
:10486000C9B2002A31DA009A927B520711D5BE4AAA
:1048700080008018299A4068527D1041239088005A
:10488000B949C031401829994068897D0841229072
:1048900006E000982821415E23912A21415E229161
:1048A000E00501D502202790B048B1690268AA4806
:1048B000007810182030007D814216D10220305E31
:1048C00023900420305E22900FE02998417D2398A8
:1048D000084123902998817D2298D7E700982821C4
:1048E000415E23912A21415E229122A923A8FFF74C
:1048F000B8FBA00649D5E00447D50220305E2390DE
:104900000420305E22902398A0280CDA22A923A844
:10491000FFF7A7FB964801789648C08805F0BFF8D6
:104920002399081A23904121090188420CDD22A90C
:1049300023A8FFF796FB8E4801788E48C08805F0C3
:10494000AEF82399401823903721229849018842D4
:104950000CDD22A923A8FFF784FB85484178854810
:10496000008905F09CF8229940182290A0280CDAC2
:1049700022A923A8FFF775FB7D4841787D4800896F
:1049800005F08DF82299081A229000984169724822
:10499000007842006F48805E091A0911400008182B
:1049A00000B220A90883FF2800DDFF2008830090C3
:1049B000B06901280FD0308AB082B0893082708A05
:1049C000F082F0897082F0882399081AB0813089CA
:1049D0002299081AF081239801B22D91F180229931
:1049E000029109B201913181A1060FD505F06EFD4A
:1049F000B062029805F06AFDF0622D98B0830198CC
:104A0000F083009870812B99279888704D481C215D
:104A10002D181E22695E2398AA5E229B081AD21ABC
:104A20004043524380182B902798012817D14A4AB7
:104A3000484812788018203080782B9A4043904262
:104A40000DDB2320405D022803D0062801D010286A
:104A500005D11E202391285E229000202B908120DA
:104A6000800004420BD0A8892399401800B2E88046
:104A70002390E8892299401800B2288122900026CC
:104A8000200709D50020252148551C20285E102626
:104A900023901E20285E2290A00601D5042026E047
:104AA000200707D426A8009022AB23AA21462498E9
:104AB000FFF72FFAE005800F0ED0204608210840AE
:104AC00029461E318A1E01910092029022AB23AA30
:104AD00021462498FFF798F91F482749007840009D
:104AE000401800892B994043884201DC0820064386
:104AF0002398002801DA002023902049239A088D6A
:104B0000904201DC401E23902298002801DA002008
:104B10002290488D229A904201DC401E2290184833
:104B20008278002A7ED0F00602D5002020AA1083C9
:104B300014480078052872D10E48007900282CD03E
:104B4000088D21E08C0E00004808000018220000AB
:104B50000C0A0000843000000F020000A8080000CA
:104B6000483000004C02000068AB00105802000002
:104B70008C310000103000000C31000048070000AC
:104B8000C8300000D0020000239A0C23801A259A16
:104B90005A43914BD218401E05E0259A0C235A43E4
:104BA0008D4B2398D2185071000A90718B48407930
:104BB00000280CD0498D22980C22081A25995143BF
:104BC000854A8918401EC871000A087208E02598B5
:104BD0000C225043804A22998018C171090A01723F
:104BE00025980C217C4A48438018009001700021D0
:104BF00041700098012181700098249901717849D1
:104C0000642203C9002304F090FE0146009841721B
:104C1000090A8172F006C1170098491CC1700C2066
:104C2000259900E064E0414303A80918239A4A80CB
:104C30006A46127B0C235A4312182299918020AAAB
:104C40001821515E6A46127B8C465A43C9011218DC
:104C5000D1806146002900D02A996A46127B0C2334
:104C60005A43121811813146022211436A46127BBF
:104C70005A4312189172E10501D5022100E0012189
:104C80006A46127B0C235A431218D1726A46127B71
:104C900024995A43101801736A46107B401C107304
:104CA0002398F20600B2A883229909B2E98302D5BB
:104CB0004C4A1083518320A8008B688120352798A7
:104CC000A87002200643EE702498401CC0B22490C5
:104CD0000F2800D202E5444D287805284DD03F4CDE
:104CE0002079002821D0414900200A8D03AE18E028
:104CF000710702D5C179002991D0F10602D5417A18
:104D000000298CD03107CBD5007A002887D0C7E79F
:104D10000C21414389194B88D31A5B1E401C4B80E0
:104D2000C0B26946097B8142F2D86079002811D06F
:104D30002E4900204A8D03AE08E00C214143891919
:104D40008B88D31A5B1E401C8B80C0B26946097BDE
:104D50008142F2D8E07800280FD0002003AB08E0B1
:104D60000C214143C9184A888C884C80401C8A8099
:104D7000C0B26946097B8142F2D868460021027BB5
:104D800019E00C20484303ABC01843883B8083885C
:104D90007B80C388BB80037ABB71837AFB71C37A43
:104DA0003B72007B78722898289B0078491C401C35
:104DB0001870C9B20A378A42E3D82878052806D184
:104DC0000B480C4902700448C272002008702899F0
:104DD0000020085E2FB0F0BD30270000103000002A
:104DE00010030000680E0000D00200004807000019
:104DF0001606000017060000002812D129204006E0
:104E000041690222114341618169FF22114381619D
:104E10004169FD2211404161416901221143416113
:104E2000FEE77047FEB58F488F490678F007C00F40
:104E30008019C0B242005118891D0091890704D021
:104E40000099C91C8908890000918849801C09784B
:104E5000C0B200250291019030E001986843410002
:104E600000980C180022104611460AE05300E35E39
:104E70001F460E372C2F02D2C018491C09B2521CF3
:104E800012B2B242F2DB002902D004F012FE00E0BE
:104E9000002019214901484383120020074609E0F8
:104EA0004200A15AC91A09B2A152002900DAA75238
:104EB000401C00B2B042F3DB6D1C2DB2029885425B
:104EC000CBDBFEBDF0B5002315E0828804685A43B1
:104ED000A71800220AE0540095003C5F4E59002CB0
:104EE00000DA64423419521C4C51D2B2C479944253
:104EF000F1D85B1CDBB282799A42E6D8F0BDFEB5F0
:104F000007465A486946007800268872304631467E
:104F10008200401CC0B2B9505028F9D30025544833
:104F20006946445DE007C00F0019C0B20090CC7222
:104F3000732189012846FDF77DF8019000986946A4
:104F400040000881B000C11901A8FFF7BBFF30196C
:104F50006D1CEDB2C6B2042DE1D3FEBDF0B54148E3
:104F600085B00078C107C90F0818C0B23E49420099
:104F70005118891D0091890704D00099C91C89081E
:104F800089000091394909780490801CC2B23948DF
:104F900002920078384A43009A18528A0192029A83
:104FA00051430391002802D13448FFF7A8FF0023A2
:104FB0004CE000982F4D590009182D780020AC4680
:104FC0006D000246AE4606E055004D5F002D00DD47
:104FD0002818029D5219039DAA42F5DB6246002A59
:104FE0000FD0019A90422FDB234D72465219D2887E
:104FF000424360462818807B02416046002809D061
:1050000010E01E4C9A00A458019A9042ECDA9442A7
:105010001ADBE9E7E8886043AC7B20414400A24208
:1050200000DA2246002007460BE045004E5F002EC6
:1050300005DD964202DBB61A4E5300E04F53029D47
:105040004019039DA842F0DB5B1CDBB2049883424D
:10505000AFD305B0F0BD10B5FFF780FFFFF7E2FE5C
:1050600010BD000049060000903B004048060000CB
:105070009C0200000F0200002C30000028220000DB
:1050800010B5FF48FD49C160FE498160FE490161DC
:10509000FE494161FE49C161FE498161FE49CA88FC
:1050A000028509894185FD480178F5482030417421
:1050B000FB4C2178817404214175817503F0DEF881
:1050C0002078F94AC307DB0F1818801C9080F54937
:1050D0004000001D0818106010BDF0B5F34F00230C
:1050E00084465C1E3D787E7811E0E8188000C01987
:1050F0004079884209D1E81844B2A000C0190623BB
:10510000C35E934205DAC28003E05B1CDBB29E42C1
:10511000EBD8002C14DAB8781E2811D28000C01900
:10512000C280BA7860469200D2191071B8788000B7
:10513000C01941717878401C7870B878401CB870FC
:10514000F0BD70B5302569438468303961188488B2
:1051500004255443E418CC800024E4430C8101244A
:10516000CC818A700A700A71CB704B704B71455FAD
:105170005E0055436D000068AD19405FCC4D920054
:1051800052194861526805465543EA178D61CA6154
:105190009A00C84BD21852685043C2174A6208623C
:1051A0004C818C8170BD0022C049012803D08878D1
:1051B00008704A7070470A70FBE7F0B50546A5B065
:1051C0000079129028462030817C00248A1CD2B2BB
:1051D0000D92EA6826465118C91C1D916969119102
:1051E00029690C91B1498C70417C2191807C20907F
:1051F0000F218901E868FBF7C3F9002081002A69C3
:10520000401C56506A69C0B256501528F6D300208B
:105210003021414300220E31AB68401CC0B25A52CB
:105220001928F5D30020AEE112992A6848434000BE
:10523000101823900C99119811910C9000200146A0
:1052400083000C9A401CC0B2D1501528F8D30D9998
:105250000A9848431D99491E40181C9000208AE175
:105260001C982E22401C1C900898AA5E410023988E
:1052700009180020085E82427EDC089B119AD31830
:105280005A78002A78D1129A3E2752000F928A1A31
:105290001646403EF75F8742EEDC0026965F864268
:1052A000EADC0226965F8642E6DC0A46403A3E2663
:1052B000965F8642E0DC02228A5E8242DCDC0126C6
:1052C0009E700F9A3E2752181346403BDF5F87427D
:1052D000D2DC089F0C9BDE550F9BC95E8142CBDC64
:1052E000089B0C99C9184E700223D35E8342C3DC1D
:1052F0008E70192C7ED2601C2290C0B20990302191
:10530000A8684C43041900200B90A9690A980870FA
:10531000E969089808701C99099808700998FFF7BE
:1053200042FF2846089B0A9A0999FFF70AFF802E38
:1053300001DB0B9611E1A9690B980D9A095C10919C
:10534000E9691D9B095C1B911099129848431B99B0
:105350004000490040182968401810994A431B9999
:10536000591851180022825E0E920B9A521C12B2EA
:105370000B920F9A831A00E0FAE01718821E801C25
:10538000039000930D989C4602920A1A4B1E08182F
:1053900001971593139263469B1E0493491C169123
:1053A0001490BB1E0593511E63469B1C06931791D8
:1053B000BB1C411E521C401C1A90002007931992DE
:1053C000189107461F90B80013A91E90085801783D
:1053D00000290ED0099881420BD01E9A6846805849
:1053E0000022825E0E98824200DD02460998FFF795
:1053F00074FE00E0B8E01E98694608580021415E3E
:105400000E98814208DD1E9813A908580178099862
:10541000814201D001201F907F1C7FB2082FD2DB78
:105420001F9800287ED1820013A989580B78002B81
:1054300079D16B469B5800221E939A5E2E23EB5E19
:105440009A4270DB0E9B9A426DDC099A0A701A49E7
:105450000A5C1099511849B2AA698E4691551749AC
:105460000A5C1B99511849B2EA698C469155761C21
:105470001E99002336B26269CB5E21E0902800407D
:1054800048070000A808000080070000D4070000BB
:10549000580D0000E00D000010300000480600002C
:1054A00049060000903B0040380200002808000038
:1054B00068AB001028AC00101C02000024020000A1
:1054C000D11861617146FF4A890089181E9A00232C
:1054D0004968D35EE7695943A369CA17C9187A4175
:1054E000E261A1616146F84A890089181E9A002389
:1054F0004968D35E676A5943236ACA17C9187A4153
:105500006262216261890022491C61811E998A5E62
:10551000322A02DDA189491CA1810221615672460D
:10552000714501E019E013E000DAA2700021615634
:105530007246714500DD22700322A2566146624523
:1055400000DAE1700122A2566146624500DD617019
:10555000401C40B2082800DA65E70B98B04200D042
:10556000E5E62298C4B203E021980A9020980890BA
:105570000898401CC0B220990890884200D26FE67B
:105580000A98401CC0B221990A90884200D24BE68A
:10559000204625B0F0BD30B5302493686043C01874
:1055A0000624045F12686300D55E4B00D35EAB42F5
:1055B00002DB0481C18030BD0824045F002C03DBC2
:1055C0006400125F9342F6DD018130BDF7B5844679
:1055D0000C46029830258368614630206C43414375
:1055E000A646CA18E4185069656940195061906967
:1055F000A669D569E76986197D419661D561106A0A
:10560000266A556A676A86197D4116625562108A54
:10561000258A40191082508A658A40195082508923
:105620006589401950819089A58940199081D08958
:10563000E5892843D0810020E08102200225105610
:105640006557A84200DA9570032503205557205668
:10565000854200DAD07070465D561856854200DDEE
:1056600058540121012051562056814200DD5070CE
:1056700006216046615EC0B2029AFFF78CFF0821E6
:10568000615E002904DB6046C0B2029AFFF783FF27
:10569000FEBDF7B584B002F0FFFD04988B4A846824
:1056A000002009E0810089180B795B1E0B714B7992
:1056B0005B1E401C4B71C0B291788142F2D8049DB0
:1056C00020358249887800287ED0002084460879D9
:1056D0003022504300194289487930235843001939
:1056E0004089101882B204200856039005200856FD
:1056F0000190012032E07549830059180B7930265A
:10570000029373431B195E894B79302700937B43C7
:105710001B195B89F3189BB2934208D21A460423E3
:10572000CB5603930523CB568446019314E0934252
:1057300012D1039F029B654EBB420DD1019F009B7E
:10574000BB4209D10623CB5E614689008919062632
:105750008E5FB34200DACB80401CC0B25B498B78CD
:105760008342C8D8604681005848052208180421A1
:105770000390415601918256029291420BD1534AB5
:105780009178890089180B8883804988C180907836
:10579000401E907095E704983022016801983023EC
:1057A0005043029A07195A4306201619385E0622FA
:1057B000B25E4000085E5200895E884200DD084605
:1057C000E97C4143287D00E05CE00141039806222A
:1057D000825E914207DD04987969808D814202DD05
:1057E0007169814232DCA87D00906B7D314638467C
:1057F000012202F061FD049A01990298FFF7E6FE8A
:105800000598324B401EC0B20590997803988900E4
:10581000C9180A8882804988C1809878401E98708B
:1058200002990020CAB20DE08100C9180F79019ECB
:10583000B74200D10A714F79019EB74200D14A7137
:10584000401CC0B299788142A4D9EDE7A87D0090B0
:105850006B7D31463846042202F02EFD1B4A039828
:105860009178890089180B8883804988C180907855
:105870000421401E9070F0890843F081F8890843A4
:10588000F8811EE702F05AFD0026059F13E0302044
:10589000784300190090807BC00708D109E03020D0
:1058A00070430019807BC00712D0761C76B2192E87
:1058B000F5DB7F1CFFB2192FE9D3002006990746BC
:1058C00008604CE068AB001028AC0010280800000D
:1058D00030207043001930220099FAF7B3FE0020FF
:1058E0000099761CC88176B2E3E730207843061928
:1058F000B07BC00731D070690090C0170190F1698A
:10590000B069019B009A04F028F86A7D03F0FAFF61
:1059100002B232850292716A306A019B009A04F0E9
:105920001CF8AA7D03F0EEFF70850498029A018DA1
:105930000020491EFAF7D2FF308504982A22418DB3
:10594000B25E0020491EFAF7C9FF7085069801680B
:105950007069814201DA069908607F1CFFB20598E0
:105960008742C2D307B0F0BDFFB5FFB08446BEB0DA
:1059700014460020302141430F4661448A7BD20700
:1059800020D08B89450083AA535385006AAA4B69AE
:105990005351C20006AB8D699B18CE6960C338AE07
:1059A0000B6AB2184D6A28C28B78A0AA1354CB7820
:1059B000AEAA13546346DB5DA7AA13544A78B5A96F
:1059C0000A5403E00021430083AAD152401CC0B214
:1059D0001928CFD3BE990020897800910DE0BE9997
:1059E000820051184A7990AB521E1A54097998AA2C
:1059F000491E1154401C0099C0B28142EFD8894819
:105A00000022039020380068019088E090A8805C14
:105A100030230746584360440623C35E019958006B
:105A2000095E98A8805C30250646684360440625D8
:105A3000455F019B6800185E814200DC08460399BF
:105A4000C97C091F41430398007D0141BE98930022
:105A500018180623C35E99425FDA3846B7425CD015
:105A600001463346470083A8C65B5D00405B36189D
:105A700083A8C653002646538F006AA8C5599E00C6
:105A80008059CE002D186AA8C55106A8851981CD68
:105A9000B646DD0006AE0295751960CD4019774116
:105AA00006AD754481C5764638A8851981CD029D1D
:105AB00038AE751960CD401938AD7741754481C550
:105AC000A0AF785CFE5CB04200D27E54AEAF7D5C8D
:105AD000F85C854200D27854A7AF7D5CF85C8542C3
:105AE00000D97854B5AD685CEB5C984200D96B5432
:105AF000501CC0B290A998AE0CE00D5CB35C9D4206
:105B000001D18D5C0D54355C9D4201D18B5C3354C9
:105B1000401CC0B2009B8342EFD8521CD2B2009806
:105B2000904200D972E7002060803F48A0800020AA
:105B3000632583AA6AAB4100515A00290BD06688BD
:105B4000B14201D961800546A688B14203D2A18045
:105B500081005958E160401CC0B21928EBD3632D75
:105B60005DD0A8001A58AEA8A260405DA074A0A89D
:105B7000405D2074B5A8405DE074A7A8405D6074E6
:105B800016460398F317407C00213246049303F035
:105B9000CCFE00900191E80006A90290214A091864
:105BA00003C9203A128D002303F0BFFE019B009A27
:105BB00003F0D3FE00B2A082019000900398002170
:105BC000807C3246049B03F0B0FE06460F460298E6
:105BD00038A9144A091803C9203A528D002303F04A
:105BE000A4FE32463B4603F0B8FE01B2E1820098C3
:105BF000002801DA002006E00A48019A2038008DCA
:105C0000824201DB401EA082002901DA002005E06B
:105C100004482038408D814201DB401EE0827FB085
:105C200042B0F0BD680700002F750000F8B50024F1
:105C3000AD4F1D2625467601E0B23946FCF7FAF94C
:105C400000228554521CB242FBDB641C042CF3DBA3
:105C5000F8BD10B5FFF7EAFF3821A44803F01DFF97
:105C6000A2480121203081740023C37443758175DB
:105C7000C1759F4802789F48540084819E4C2478C7
:105C80000475427401749D4C04609C4CA0344460C3
:105C9000C2819B4A1278428283609A48017010BD8B
:105CA000F0B5458A81686D4300292AD0002224E09E
:105CB00081890368514359188C46C189436851430F
:105CC00084685B186618002112E0745C002C0DD10A
