:10000000F03F00001500001000000000000000009C
:10001000002070477CB51B48292149060862012051
:1000200008600020486138200863092088600F209C
:100030000861002008613F20C861FE20C8600420DC
:10004000486000BF00BF00BF00BFFFF7E1FF0646EA
:100050000D4840680090002001900B4D002405E001
:10006000A0002858A100019A5050641C282CF7D3F6
:100070000021009848600098804700BF00BF00BF83
:1000800000BF7CBDA0FF00000004001000000000C5
:100090000000000000000000000000000000000060
:1000A0000000000000000000000000000000000050
:1000B0000000000000000000000000000000000040
:1000C0000000000000000000000000000000000030
:1002C000000300000000000000000000000000002B
:1002D0000003000000B900000003000000B90000A6
:1002E00000C0000000040000010001002101210104
:1002F000010159455449000061000000010021003E
:1003000000000000000000000000000000000000ED
:1003100000000000000000000000000000000000DD
:1003200000000000000000000000000000000000CD
:1003300000000000000000000000000000000000BD
:1003400000000000000000000000000000000000AD
:10035000000000000000000000000000000000009D
:10036000000000000000000000000000000000008D
:10037000000000000000000000000000000000007D
:10038000000000000000000000000000000000006D
:10039000000000000000000000000000000000005D
:1003A000000000000000000000000000000000004D
:1003B000000000000000000000000000000000003D
:1003C000000000000000000000000000000000002D
:1003D000000000000000000000000000000000001D
:1003E000000000000000000000000000000000000D
:1003F00000000000000000000000000000000000FD
:10040000F03F0000EB39001000000000E33900105D
:1004100000000000000000000000000000000000DC
:1004200000000000000000000000000000000000CC
:100430000000000000000000F1050010438A0010D9
:1004400001330000E1390010E1390010E1390010FA
:10045000E1390010FF720010FD720010BB1E001089
:10046000E1390010E1390010E1390010E1390010E4
:10047000E1390010250B0010DD1E0010FF1E0010DA
:10048000211F0010E1390010E1390010E13900109E
:10049000E1390010E1390010E1390010E1390010B4
:1004A000E1390010E1390010E1390010E1390010A4
:1004B000E1390010E1390010E1390010E139001094
:1004C00003B40148019001BDC100000003B401481C
:1004D000019001BDFD33000000F002F800F040F88B
:1004E0000CA030C8083824182D18A246671EAB4649
:1004F00054465D46AC4201D100F032F87E460F3ED4
:100500000FCCB6460126334200D0FB1AA246AB46BA
:100510003343184790B50000F0B50000103A02D3FD
:1005200078C878C1FAD8520701D330C830C101D594
:1005300004680C607047000000230024002500269A
:10054000103A01D378C1FBD8520700D330C100D58F
:100550000B6070471FB5C046C0461FBD10B510BD2B
:1005600009F0E1FF1146FFF7F5FF03F066FA09F025
:10057000F9FF03B4FFF7F2FF03BC03F090FA0000A9
:10058000FCB40022002300240025002600270629B1
:1005900002D4FCC00639FAE7002902D004C00139B0
:1005A000FAE7FCBC7047000002B472B60178013172
:1005B000017062B60139080002BC704702B472B61D
:1005C00001780139017062B6080002BC7047000072
:1005D00062B6704772B670471C3880F3098870475E
:1005E000014802490160704704ED00E0000000107E
:1005F000114B1968114A1268914216D0EFF3098025
:1006000020380860F0C044464D4656465F46F0C06C
:100610001A6010681030F0C8A046A946B246BB4622
:100620002038F0C8103080F30988054B002018707E
:100630000420404200470000380600003406000055
:100640002506000070B505460C46164602E00FCCA4
:100650000FC5103E102EFAD2082E02D303CC03C5CC
:10066000083E042E07D301CC01C5361F03E02178D4
:100670002970641C6D1C761EF9D270BD02460020E4
:100680000121890700E089089142FCD808E043185D
:10069000934203D8121A521A4B00181840088908BE
:1006A0000029F4D17047FFB5002285B05C001D46DB
:1006B000009280280AD08F4B8B280CD0A02848D0DD
:1006C000A22844D1062942D1009346E000293ED118
:1006D0000120800740E0042939D187488749807F7D
:1006E0000968084324D1864E864F30783978420015
:1006F0004843410084480818194609F0E4F8307866
:10070000397842004143081841007F4808187F4962
:1007100009F0D9F87E483A7801883078921C504325
:10072000420079480838101801817A4909784181D6
:10073000E807C00F4019784940004118890889002E
:1007400000916946001D08810098002807D109B072
:10075000F0BD0529FBD16D480090684604816A48C8
:10076000242108384180002141604721017008217F
:100770004170654801900220694688734C814D7331
:10078000079808730021684603F060F800210120F3
:1007900002F05CFFDBE7FFB582B00CAC23CC8446F3
:1007A0005E4801900F988E46C107400700294DD042
:1007B000800F2FD0002023E0029940000C5A0099AE
:1007C0008E0003998959019EC910611A019C09B2D2
:1007D000245E31520F9EA14218DDB60717E0115278
:1007E0000E1B08E0165E67467E4377464F43F619B8
:1007F0002E411652361B1E52091B19520098401CDE
:100800000B9900908842D7DB06B0F0BD7607002E2A
:10081000E8DAE4E7002615E002987700C15B039868
:10082000B40000596446C010081A01B2D05F0090AD
:1008300060437446614341182941D1530098081A16
:10084000D853761C0B988642E6DBDDE7800F29D073
:1008500000201EE0810003980F9E40580299C410AA
:1008600000984000095A611A145E09B22746A14255
:1008700014DDB60713E01152091B07E06646744306
:1008800076467143611829411152C91B19520098CB
:10089000401C0B9900908842DCDBB5E77607002E00
:1008A000ECDAE8E7002618E00398B1004058029916
:1008B000C41070000090085A201A01B20098175E08
:1008C00060463C46444370464143611800982941C4
:1008D0001152C91B0098761C19520B988642E3DB13
:1008E00092E7824202DB8A4201DD084670471046E9
:1008F00070470000705B0040FC1000006C020000BC
:100900005106000050060000085D0040905900406C
:100910001402000035020000993B0040C4060000AC
:10092000012110B549034804FFF72AFE00200949B8
:10093000094B08704870C870887001221A70074A05
:100940005080074A1080074A1070074A107088804C
:10095000C88010BD0E0200003302000038070000FE
:100960004E0200005D0200005E02000010B5044669
:1009700000202064224640326064D07760231855FE
:1009800001239B07E3616E4B63636E4BA3636D4B67
:100990000833E363A0649081012222651023922230
:1009A00013552061002901D001F004F96648407810
:1009B000208310BD10B5654C0021207807F03EFD66
:1009C000002802D0002004F013FA207807F082FDFE
:1009D000012010BD10B5112806D0122803D15C49A2
:1009E000082002F033FE10BD59490420F9E7C00683
:1009F00001D50120704700207047292149068861F0
:100A000003204861012048617047524802785248EB
:100A10000178524801F0CBF901F09AFB08F02EFC66
:100A20004F48007808F04AF808F0D2F9002108464B
:100A300007F092FC454C012120704548FFF796FFD6
:100A40000021012007F088FC60700121084607F0B2
:100A500083FCA0700121084607F07EFC4149087024
:100A60000121084607F078FC3F49374E087071783D
:100A70000C2002F0CDFB364C3C4F002540343C4866
:100A8000FFF7BBFF324800F022F90020385E002853
:100A900006DB0020C043FFF7B0FF00F065FDEEE786
:100AA0003078FFF7A4FF00280ED1707800280BD013
:100AB00027488030807C0009000110280CD0802855
:100AC00010D0002004F094F93078FFF783FFFFF78F
:100AD00071FF0028FBD0D2E7802210211C4800F0D3
:100AE00063F9F1E7607F002807D00021042002F0BD
:100AF000ADFD174800F0A6FB6577A07F002807D062
:100B00000021042002F0A2FD114800F00EFCA577A0
:100B10000F4800F075F9174904200856164908F0E7
:100B2000ADF8D1E710B507F0A3FB0848007807F04F
:100B300006FD12490F20C86207F09FFB10BD0000A0
:100B4000E0230040005D0040103000005F02000024
:100B5000BC10000050060000510600009037004015
:100B6000C1AC00100B0200000C0200006402000087
:100B7000000E2707700E0000B43000008000005205
:100B8000F8B50546544901200870544A782151703F
:100B90005349544CC87008702168FF20887220683F
:100BA0004021C06808F0F7FE0F2200204E4E4F494A
:100BB000D24364272B0009F00AFD08050B15181411
:100BC00014141F140E6148618A610E62486211E0BC
:100BD0000E6148618A610E6248628A622168FA2069
:100BE0004880F8BD20684780F8BD0E610E624861FC
:100BF00048628A618A62F5E70E6148618A610E6225
:100C000048628A62344901224A700870F8BDF8B51A
:100C1000044605468034E08A354A0123811A2F4E66
:100C2000002790421BD007DC3249401822D001280F
:100C300010D0022848D13DE001292AD00B2943D108
:100C40000021042002F002FD0021C943012002F02E
:100C50002FFE39E07D20000103F042F834E0208BC4
:100C6000062831D8082030701B49208B4880224844
:100C7000037029E0284600F08DF93073FF215320DE
:100C8000000641600422026241628762C76201631A
:100C90001AE03373403519486B77037018481E21EA
:100CA00001804180FA218180C18004210174417456
:100CB000377009E00020C043FFF79FFE102030701E
:100CC000284600F0ECFDF060E7820120F8BD10B589
:100CD000FFF79DFF012010BD6202000010300000F0
:100CE000C83000003C2A0000FF0300004000005212
:100CF00004080000FFF7FFFF5E0200005D02000035
:100D00008430000053210906886AFC22104388625F
:100D100004F09BFF04F0B0F900F048FF19491A48AD
:100D200005F01DF902F0E2FF07F0B4F8174D184E78
:100D3000184C06271849287807F080FB002802D0B5
:100D4000002004F055F8154800F094F83178002997
:100D5000F0D10028EED012480078052805D00220F6
:100D600002F074FC01202070E4E720780028F9D01C
:100D70000C4800210770082002F068FC07F0E1F938
:100D8000F0E70000483000008430000060020000FE
:100D9000103000006702000080969800BC10000030
:100DA000D40200001D06000010B5034680331C4627
:100DB0009A7409022B4B1143CA1A99421AD00ADCC1
:100DC000294A891A11D001225203891A0DD02748C5
:100DD000C14205D107E0FF2A05D0FF3AFD2A04D021
:100DE000002004F005F8012010BD00F0EFF881208C
:100DF000A074F8E71E4841780B2002F009FAF2E7E8
:100E000010B504468030807C81280AD083280ED01B
:100E100084281BD0852807D0002003F0E9FF01209B
:100E200010BD8322812119E08022852116E0204611
:100E300000F050F9A06C012802D9842283210DE032
:100E40000B490B20497802F0E3F9E8E7204600F06F
:100E500041F9A06C0028E2D1832284212046FFF7CB
:100E6000A3FFDCE78483000080100000FDAEFFFFDD
:100E700010300000F1B504F0EAF808F099FC3749A9
:100E8000354E0B78364930780A780421FFF70BFC91
:100E9000344804F08EF9344C242320703348314D0B
:100EA000C35E334A3349A86804F05AFD324A2178B8
:100EB000284604F0EAFB20702C21695E286806F0C1
:100EC00010F806F0DDF92D4C2068002810DD002018
:100ED0002B492C4A09E0401C00BF00BF00BF00BFE7
:100EE00000BF00BF00BF884202DA1368002BF2D0B7
:100EF00007F01CF903F0C3FB206023480168491C7C
:100F0000016022480178002923D021490978052968
:100F10001FD00025057000F047FE811C00220570DF
:100F200012230EE00D804D808D808D714A72102746
:100F30000F72CF791F43CF7107780A317F1C07707A
:100F4000521CB7789742EDD8457000782060009821
:100F500045642068F8BD0000103000005106000014
:100F600050060000500700004002000084300000DE
:100F7000380700003008000044020000680200004A
:100F8000A0860100D80200000C3000005C020000C6
:100F9000D402000010B50120FF23532109064B6045
:100FA00004220A624B6200228A62CA620B630A62EE
:100FB000FD244C604C620224CC608C618A62CA625F
:100FC0000B638C68CB620A63896810BD10B5044658
:100FD0000321052002F01CF94B211422C9017A20BB
:100FE00007F087FE054807F075FE204600F02AF955
:100FF000002140346177012010BD0000B4300000B2
:10100000F0B50020B7B005460090ED48007801909B
:10101000C107C90F0818C4B2C82105A808F0BBFC55
:10102000E84861000E18B61DB00702D0F61CB608DD
:10103000B600E54800780494A41CE1B2484303904C
:1010400000208E46E14C8446014613E04800871993
:1010500000231A46029005E05000385E002800DDAB
:10106000C318724403988242F6DB029805AA491C11
:101070001352C9B204988142E8D3002005AFD04E84
:101080000FE04200A15E009BCB1800930B46633338
:10109000C72B04D2BA5A642A01D28C446D1C401C5E
:1010A000C0B201998842ECD3002D04D02946604695
:1010B00008F07DFC00E00020002105E04A00A35A72
:1010C0001B1A491CA352C9B232789142F6D3009838
:1010D00037B0F0BDF1B586B00321052002F098F8D5
:1010E000E120800002F0C2FCB94FBA4DB879002867
:1010F0000DD1287807F0EEF907F0A0FF64212878D9
:1011000007F09CF9002802D0002003F071FEAC4EDD
:101110000024287807F0DEF907F008FF002C0DD135
:10112000B87900280AD102223178AB4806F00CFECB
:10113000AA4904200856AA4907F02FFD64212878FF
:1011400007F07CF9002802D0002003F051FE002CAB
:101150004DD0002008F091F9641C2406240ED8D04C
:101160000521084602F054F8287807F0B3F907F093
:10117000ACFF6421287807F061F9002802D0002034
:1011800003F036FE0321062002F042F8954C337836
:10119000207828220021FFF786FA20783378012270
:1011A0000521FFF780FA90489049914A0078097824
:1011B00012780325049501920291039030780090F3
:1011C000824B824F8B48A0333A468A49A038FFF7BA
:1011D000E2FA2078337801220621FFF764FA864884
:1011E00004F05AFD7D48007900280DD01AE08348AC
:1011F0006421007807F022F9002802D0042003F0CF
:10120000F7FD08F031F9A7E73278012004210390B7
:10121000009201917A48029503787A4A39467548D6
:1012200004F0FDFDFFF7ECFE7749086001217748E7
:1012300000F047FF06980699006C401C08640120E6
:1012400007B0F0BDF0B585B00321052001F0E0FF47
:1012500006F070FD00245F4D594E2746287807F0B0
:1012600039F907F063FE6421287807F0E7F80028D1
:1012700002D0002003F0BCFD287807F02BF907F01E
:1012800024FF6421287807F0D9F8002802D0002034
:1012900003F0AEFD08F0E8F8022C10D34A487321A1
:1012A000027889013378481000F029FD51480097F1
:1012B000337801224549A03804F068FD0AE0002C8B
:1012C00008D150214148FFF75BF9732002218001CA
:1012D00000F0EDFE641CE4B20A2CBFD3307800901D
:1012E00039480822037873204949800100F02BFD1A
:1012F000317803200122354C0092019102900423A1
:10130000039708223B49204604F056FD5021204611
:10131000FFF736F901213F4800F0C9FE03210620FE
:1013200001F076FF012005B0F0BDF0B53A4985B077
:10133000012008600321052001F06AFF0024254FE9
:101340001F4E2546387807F0C5F807F0BEFE642129
:10135000387807F073F8002802D0002003F048FD29
:10136000022C08D323480095337801221749A0386E
:1013700004F00CFD05E0002C03D150211348FFF7C9
:10138000FFF8641CE4B2022CDCD332780321012084
:101390000E4C0192029100900423039508221549F6
:1013A000204604F009FD50212046FFF7E9F803210B
:1013B000062001F02DFF184805600120B3E700006A
:1013C00051060000903B004050060000705B00405A
:1013D000C83000000D030000E0230040700E000044
:1013E000B430000010300000CAAC0010C9AC0010CE
:1013F000C8AC0010305A00407C2200000C020000F3
:10140000CBAC0010B05C004018020000A9950010A1
:1014100090150000F02300006C02000070B5F74B3F
:10142000F74C1A020020F74D03E041005E5A565275
:10143000801C21782E7871438142F6DC70BDF3B5B3
:1014400081B001260321052001F0E2FE029810245C
:10145000ED4D0027002833D0012831D002282FD0AD
:10146000032830D0002600210198FFF77FFAE74CCF
:10147000207807F02FF807F0BFFD6421207806F0F0
:10148000DDFF002802D0002003F0B2FCE048C76076
:10149000207807F01FF807F0AFFD6421207806F0F0
:1014A000CDFF002802D0002003F0A2FCD948DB4980
:1014B0000770D94807700020C04308803046FEBD41
:1014C000FFF75EFB03E0FFF75BFBD148C7602C70C2
:1014D000C9E70021D248B2E70121D148AFE770B592
:1014E000D04DCB4E00243068286128627068686156
:1014F0006862B068A861A8620221C948FFF79FFF2F
:10150000012C1AD0BF480078C107C90F0818BC4980
:1015100009784843420001218907B848FFF792F84B
:101520003068641CC04330607068C0437060B0684D
:10153000C043B060022CD6DB70BDFFF76FFFEFE752
:1015400010B5FF2029214906C860B74810218163E2
:101550000163032001F0BBFE0321B148FFF76FFFD9
:10156000002001F0B4FE10BD10B5AC480024045FAB
:10157000002C06D0012C07D0022C08D0032C0BD154
:1015800008E0FFF7A6FF07E0FFF7A6FF04E0FFF77C
:10159000A6FF01E0FFF7D4FF0720FFF7F1FA0121D2
:1015A0009F48FFF7E3F9042C07D096480021037801
:1015B000934802788020FFF776F89349012008735A
:1015C00010BDF3B5002083B006460090304600F011
:1015D00037FC054600980024400001901DE030468D
:1015E000049900F069FD074600F027FC60434000C5
:1015F0003F18844800786043410003980918019817
:101600000B180021083304E048003A5A491C1A52CA
:10161000C9B2A942F8D3641CE4B279480078844284
:10162000DDD30098761C4019C0B2F6B20090042EAB
:10163000CCD30398242141800021416047210170CF
:101640000821417005B0F0BD70B5049C5A43002CD0
:101650000BD0002306E05C00065F0D5FAE4200DDAC
:1016600005535B1C9342F6DB70BD002306E05C0073
:10167000065F0D5FAE4200DA05535B1C9342F6DB5A
:1016800070BDFFB584460A988E46002819D0002404
:1016900013E009992046484340006146461800225D
:1016A0007146411806E05700F05FCD5FA84200DDAB
:1016B000F553521C9A42F6DB641C02988442E8DB24
:1016C000FFBD002413E009992046484340006146CD
:1016D000461800227146411806E05700F05FCD5FC2
:1016E000A84200DAF553521C9A42F6DB641C0298B9
:1016F0008442E8DBFFBDF0B58E468446002411E04D
:1017000020465043410060460D180023A70006E024
:1017100006985E00A95BC05B081AA8535B1C934245
:10172000F6DB641C7445EBDBF0BDFFB59E46002084
:101730000A9E0B9D1DE000218700F15129540146AE
:1017400051434B00009959188C4600210EE04C0083
:1017500063461C5F744508DC099B9C4205DBF3591A
:101760001C19F4512C5C641C2C54491C9142EEDB76
:10177000401C01998842DEDBFFBDFFB58E468446E2
:10178000002411E0039800236043410060460D18D7
:10179000A70006E00B985E00A95BC05B081AA8537F
:1017A0005B1C9342F6DB641C7445EBDBFFBDFFB5AD
:1017B0009446864600210B9E0C9D1BE000228F0064
:1017C000F2516A54039848434200724400230EE0E9
:1017D0005C00145F0998844208DC0A98844205DBA7
:1017E000F0590419F4516C5C641C6C545B1C634527
:1017F000EEDB491C01988142E0DBFFBD0000405E4A
:101800005006000051060000103000000D030000DB
:101810007002000062020000660200006402000024
:10182000BC10000040000052C0030055F0B5054652
:1018300000205A4303460BE05E00AC5F8F5FE41B61
:1018400000D5644224B2844200DD2046AC535B1CC8
:101850009342F1DBF0BDFFB5864600209C46024670
:1018600018E0099913464B43019C5B001E190021A7
:1018700074461C190BE04D00675F735FFB1A00D5BF
:101880005B421FB2874200DD38466753491C614501
:10189000F1DB521C02998A42E3DB04B0F0BDF0B5E3
:1018A000C7B0B9483F90B9484190B9483E90B9484F
:1018B000409000F031FC002400F0BFFA0146B64829
:1018C000007841434D002046419900F0F5FB294640
:1018D00008F05FF8641CE4B2042CEDD3AF48007844
:1018E0004100409808F055F800260321052001F03A
:1018F0008FFCE120800002F0B9F8A94C207806F0B6
:10190000E9FD07F09BFB6421207806F097FD002895
:1019100015D1207806F0DEFD07F008FB6421207861
:1019200006F08CFD00280AD1207806F0D3FD07F0E0
:10193000CCFB6421207806F081FD002802D0002035
:1019400047B0F0BD0321062001F062FC07F08CFDDA
:101950000A2E7DD30024904D00F06FFA07462046F2
:1019600000F06EFA732102904901204600F0A4FBBA
:10197000019020463F9900F09FFB00972A78029B38
:101980000199FFF768FF641CE4B2042CE4D3834898
:101990007F4903780122A0393E98FFF747FF0024D2
:1019A0000021204600F088FB732143900901204666
:1019B00000F082FB429000F040FA4490204600F094
:1019C0003FFA054620463F9900F076FB1E210E2285
:1019D0000091D243429F439B01A98CC12A466E4D80
:1019E000449B2978FFF7E3FE294600200D7804AFD9
:1019F00013E0002C04D100218200B95032AA115406
:101A00008100439A7B5852589A187A50429932ABC7
:101A10001A5C095C51181954401CA842E9DB641C8B
:101A2000E4B2042CBCD300240CE032A8015DA70072
:101A300004A8C059CA22504307F0B9FF011204A8F4
:101A4000C151641C544FAC42EFDB00240E2500E072
:101A50005BE0ED4300F0F1F94290204600F0F0F930
:101A6000039020463F9900F027FB1E2204A9019510
:101A7000009202913978429B039AFFF77EFE641C24
:101A8000E4B2042CE6D332A904A80291434C01909D
:101A900000951E23227801213E98FFF746FE30A8CC
:101AA000017A0498CA22504307F081FF0012459042
:101AB00045A8019000951E23227801213E98FFF74A
:101AC0001AFE0024254600F0B8F90090204600F0E8
:101AD000B7F9039020463F9900F0EEFA02902046B5
:101AE000419900F0E9FA01953A78039B0299FFF7D2
:101AF000C8FD641CE4B2042CE5D3284800950378A3
:101B000001223E994098FFF79FFD0024224F00F0EC
:101B100094F939784843450073214901204600F083
:101B2000CBFA009020463F9900F0C6FA2A46009969
:101B300007F0C9FE641CE4B2042CE8D3174814492A
:101B40000078A03942003E9807F0BDFEFEF732FF54
:101B5000761CFA2E00D2C8E612484199FFF731FDF3
:101B60000E480D49007809784200414348000D496C
:101B700008314018409907F0A6FE0021012001F02D
:101B800065FD0120DCE6000090150000F023000058
:101B9000305A0040705B00405006000051060000C3
:101BA0000D030000005D00402048704720490020E0
:101BB0000860704730B51F491C4A097874321170AB
:101BC0001D490020097851701C490B8D93824B8D63
:101BD000D3828B8D1383CB8D53830C4620341346D5
:101BE000257C20339D70647CDC700B8F93840B18F4
:101BF000203314189B7C401C23770628F7D3002041
:101C0000034604E0410089180B714B71401C917828
:101C10008142F7D830BD0020054A0146121D131835
:101C2000401CC0B219730C28F9D37047183100005A
:101C30000C3000005006000051060000C0020010E9
:101C40000A04120E534B1204090618401043090DE2
:101C500008437047F0B59C4693046446DB0CA4052A
:101C60002343059C4C4DE405A40A234384008800CB
:101C70002E59FF3081303350082901D2002000E076
:101C800004200126130CB603B34201D1002300E067
:101C900002235204D60F4200891A1E4389000F22E4
:101CA0008A4007462B595837BE46DF598E40974326
:101CB0003E437746DE512E590346B6466033F6580A
:101CC000059F9643FF043F0F8F4037437646F750FA
:101CD0002B5968301C58944362469204120F8A4074
:101CE00014431C50F0BD002100022B4A401C8B0005
:101CF000D3581860491CC9B20429F8D37047FFB5FE
:101D000081B00024049800F049F8C6B20398029903
:101D10004643204600F0D0F905462046019900F0E0
:101D2000CBF90246002106E088004F002B58D75F10
:101D3000DB192B50491CB142F6D3641CE4B2042CCD
:101D4000E0D305B0F0BDFFB581B000250A9800F0E2
:101D500025F8049EC0B246432846019900F0ACF92C
:101D600000902846029900F0A7F90746002409E0F0
:101D70000098A10040580399C00007F018FE6100C8
:101D80007852641CB442F3DB6D1CEDB2042DDDD33C
:101D9000D7E700000FF000FF0CA80010401EC1178D
:101DA000090F081800118000001DC0B27047F7B578
:101DB0000C460321890701224118D20382B09142C7
:101DC00002D300200090FEE70025DC4EDC4B35708E
:101DD0007570B570F560B0602846012182009A5890
:101DE0001161401CC0B20428F8D30021012006F084
:101DF000B3FAF0700121084606F0AEFA30712046C1
:101E0000FFF7CCFFB07107460498F071CB4E00206D
:101E100020363554401CC0B20428FAD3002508E00F
:101E20003946284607F0B9FD315C491C6D1C315418
:101E3000EDB2A542F4D305B0F0BDC048807970473B
:101E4000BE492031085C704770B5BC4800211C3089
:101E5000BA4C016060791821BA4D48434019826834
:101E6000002A03D0A1696069904700E00120A178B1
:101E7000002918D000281FD0607918214843401944
:101E8000C268002A02D0A16960699047A078012841
:101E900012D1216900208847A07000280CD106F0DB
:101EA000E7F9207904E0002806D006F0E1F9E078AF
:101EB00006F045FB06F0E1F970BDA14801684969EB
:101EC000C9070AD00068012181619C481C3001705B
:101ED00000689D49884200D1B6E77047984841683C
:101EE0004969C9070AD040680121816193481C30C3
:101EF000417000689449884200D1A5E77047904836
:101F000081684969C9070AD08068012181618B48CD
:101F10001C30817000688C49884200D194E770477A
:101F20008748C1684969C9070AD0C0680121816131
:101F300082481C30C17000688349884200D183E721
:101F40007047F8B57D4C05462178142902D301204D
:101F50000090FEE76869C20702D002200090FEE709
:101F6000E268801801229202904202D90320009078
:101F7000FEE71820734E4143881918222946FEF7C0
:101F800061FBE168A0681822401821785143891943
:101F900008616A69296907F096FC2078401CC0B284
:101FA00020706969E2688918401EE160F8BD18B4C4
:101FB0000C4662490978814202DC04200090FEE769
:101FC000182148435F490B58002B04D0204601B02C
:101FD00010BC1146184718BC01207047F8B5574C83
:101FE0000546207816460F46A84202DC04200090E1
:101FF000FEE76078002802D005200090FEE76571BA
:102000006761A661E07806F065FA182045434D48FF
:1020100031462D186A6838469047A078012812D0BA
:102020006421E07806F00AFA002802D00620009029
:10203000FEE7424900201C310860EA68002A02D00D
:102040003146384690470020F8BD3C481821407979
:1020500048433C4940180069704738481821407986
:1020600048433849401840697047F8B5374E17461D
:10207000054600290DD001290BD00024A0003058BE
:1020800039464019FEF77CFA641CE4B2042CF5D3FF
:10209000F8BD0024491C4F43A00030583946401970
:1020A00007F077FC641CE4B2042CF5D3F8BD234B95
:1020B0009A79DB795A43D8E7244A800010584018AF
:1020C000704770B51D4C0125A2780646012904D041
:1020D00002290ED0032919D01CE0002A01D0022ABF
:1020E00018D1207906F0F6F92661A5700120B047D5
:1020F00005E0022A0ED1A570216902208847A07050
:10210000002807D1207906F0F4F903E0012A01D173
:102110000220A070A07870BD08B508488178002919
:1021200009D07D21C900007906F088F9002802D085
:1021300007200090FEE7012008BD0000800200009B
:102140000CA8001080110000010101011CA8001062
:1021500010B5FE48FFF7F5FEFD4CE060FB48603827
:10216000FFF7EFFE2060F9484838FFF7EAFE6060AD
:10217000F6483038FFF7E5FEA060F4481830FFF766
:10218000E0FE2061F1481838FFF7DBFE6061EF48A0
:102190003030FFF7D6FEA061EC484830FFF7D1FEA3
:1021A000E061EA486030FFF7CCFE2062E748783013
:1021B000FFF7C7FE6062E5489030FFF7C2FEA062FD
:1021C00010BDF0B585B00546FFF73FFF012180B295
:1021D0000026C9070390DF4F40180290E87AFFF706
:1021E000DDFD0190A87AB4004006410C019801433E
:1021F00038590164FFF731FF039940183959486095
:1022000039590298886039590020486439590F209B
:102210004865012000902A8800213046019BFFF785
:1022200019FD0120009001466A883046019BFFF7A6
:1022300011FD08203959285680310860697A01203B
:102240008004081839598864761CF6B2042EC5D368
:102250000120FFF748FD012005B0F0BDF0B585B0C5
:102260000446FFF7F2FE0290012180B20025C90763
:102270000490B84F40180390607AFFF78FFD0190EB
:10228000207AAE004006410C01980143B859016420
:10229000FFF7E3FE04994018B9594860B95903980B
:1022A0008860B959002048640126009601462288BA
:1022B0002846019BFFF7CEFC0096E28801212846C4
:1022C000019BFFF7C7FC0096628802212846019B0C
:1022D000FFF7C0FC0096A28803212846019BFFF768
:1022E000B9FC6D1CEDB2042DC6D3A17A0298491E2B
:1022F0004068FFF7A5FC029948600120FFF7F3FC56
:102300000120A9E7F0B585B00446FFF79EFE0290D4
:10231000012180B20025C90704908E4F4018039018
:10232000E079FFF73BFD0190A079AE004006410C3B
:1023300001980143B8590164FFF78FFE04994018D2
:10234000B9594860B95903988860B9590020486460
:10235000012600960146A2882846019BFFF77AFCD9
:102360000096628801212846019BFFF773FC0096C6
:10237000228802212846019BFFF76CFC6D1CEDB200
:10238000042DCDD3207A010400010143724801439A
:10239000029841600298617A4069FFF751FC029906
:1023A00048610120FFF79FFC012055E7FEB5044678
:1023B000FFF74BFE012180B20025C90702904018AB
:1023C0000190E079FFF7EAFC4708A07961494006EF
:1023D000AE00400C895938430864FFF73EFE02996D
:1023E00041185C48805941605A4901988959886070
:1023F0005849002089594864012600960146A28860
:102400003B462846FFF726FC009662883B460121A2
:102410002846FFF71FFC02267F00009622883B46D5
:1024200031462846FFF716FC009622883B460321DA
:102430002846921CFFF70EFC6D1CEDB2042DC0D394
:102440000120FFF750FC0120FEBDFEB50446FFF75A
:10245000FCFD012180B20025C907029040180190BF
:10246000E079FFF79BFC4708A0793A494006AE00A7
:10247000400C895938430864FFF7EFFD0299411871
:1024800034488059416033490198895988603149FD
:1024900000208959486401260096014622883B465F
:1024A0002846FFF7D7FB009662883B460121284665
:1024B000FFF7D0FB02267F000096A2883B463146FC
:1024C0002846FFF7C7FB0096A2883B460321284613
:1024D000921CFFF7BFFB6D1CEDB2042DC0D3012091
:1024E000FFF701FC0120FEBDF0B587B00446FFF701
:1024F000ACFD0190E079FFF751FC074601980121FE
:1025000080B2C90706904018059078000490B80082
:1025100003900025062078430290A0790D494006DB
:10252000AE00400C895938430864FFF796FD0699C0
:1025300041180848805941600649059889598860C2
:102540000449002089594864012607E03CA900108D
:10255000A40200000CA800100010000E0096014616
:1025600022883B462846FFF775FB009662883B466B
:1025700001212846FFF76EFB0096A2880023022166
:102580002846FFF767FB0096A188049800230A18E5
:1025900003212846FFF75EFB0096A18803980023DD
:1025A0000A1804212846FFF755FB0096A1880298D7
:1025B00000230A1805212846FFF74CFB0096A28845
:1025C0003B4606212846FFF745FB6D1CEDB2042D66
:1025D000A3D32089401E01B201984068FFF730FB69
:1025E000019948600A20205EC1430198C069FFF745
:1025F00027FB0199C8610120FFF775FB012007B097
:10260000F0BDFEB500218183C183816104460D4682
:102610004161002001900090FFF712FC0646FFF791
:102620000CFC0746732109010098FFF745FD6F4335
:1026300079004118002D07D0022D18D0012D29D086
:1026400022461E3200202FE0019A0020920094467C
:102650000AE042008700E3688A5E6744DA516369F2
:102660009A18401CC0B26261B042F2D31EE0019AD7
:102670000020920094460AE04200870023698A5EA7
:102680006744DA51A3699A18401CC0B2A261B042F3
:10269000F2D30BE022461C32D4E747001388CF5B0D
:1026A000DB19401C1380C0B2B042F6D301988019E8
:1026B00000B201900098401CC0B200900428ABD337
:1026C0006D1CEDB2042DA4D30120FEBDF0B585B084
:1026D0000446FFF7BAFC0546012180B20026C9076F
:1026E000039040180290207DFFF758FB0190E07C9A
:1026F000B7004006410C01980143FE48C0590164EF
:10270000FFF7ABFC03994118FA48C0594160F949F9
:102710000298C9598860F7490020C95948640127BF
:102720000097014622883046019BFFF793FA0097F5
:10273000628801213046019BFFF78CFA0097A2883E
:1027400002213046019BFFF785FA0097E2880321BA
:102750003046019BFFF77EFA00972289042130461C
:10276000019BFFF777FA0097628905213046019BAC
:10277000FFF770FA0097A28906213046019BFFF708
:1027800069FA761CF6B2042EADD30F216156686843
:10279000FFF756FA68600E2020564142E868FFF7BE
:1027A0004FFAE860112161562869FFF749FA28615C
:1027B00010216156A869FFF743FAA861122020563C
:1027C0004142286AFFF73CFA28620120FFF78BFAA2
:1027D000012041E5F0B5054685B000200190FFF7E6
:1027E00034FC0146687D0022002808D0E8682423D4
:1027F0004380472342600370082343700193BE481F
:1028000008608F208005002427468EB208612819B1
:102810000390017A002939D0287DB64A4006400C41
:102820000143A000135819641358311D5960012148
:10283000C9071058711881600021A000AD4A0290AC
:10284000105841640120009060002B5A2A8A2046CB
:10285000FFF700FA012000900198E96838180A187B
:102860006B8A01212046FFF7F5F90398A14A007A07
:10287000FF214000C01987B2029802311058016050
:10288000641CE4B2042CC2D30120E5E4FF2202322E
:102890009849A0000B581A6432460B5808325A6007
:1028A000964A0858B2188260C6E7FEB50446019100
:1028B000FFF7CBFB06460199206988600199E06823
:1028C00048608F4931608F497160227A08278E49AC
:1028D0008E48022A04D0B160217A0C27012901D048
:1028E000F0513F1D01210025B0B2C90740180290E8
:1028F000E079FFF753FA019903464855A0797D4ADC
:102900004006410C1943A80012581164794A00216D
:1029100012585164774A029912589160754AF11918
:10292000105889B241600120009022880021284679
:10293000FFF790F9012000900146628800232846A5
:10294000FFF788F901200090A28800230221284681
:10295000FFF780F96D1CEDB2042DC9D30120FFF7FC
:10296000C2F90120FEBDF8B50746007A0E460228DE
:102970001BD0674D002479882046FFF79DFB024657
:102980000020335D06E04100515EA94200DA0D46A9
:10299000401CC0B28342F6D8641CE4B2042CEAD3D3
:1029A00070680580387A012819D0594D6D4200248D
:1029B000B9882046FFF780FB02460020335D06E021
:1029C0004100515EA94200DD0D46401CC0B2834269
:1029D000F6D8641CE4B2042CEAD3B0680580012068
:1029E000F8BDF0B50025817B2B462F468E4626E0AC
:1029F0000024067B21462246B44612E0066976573B
:102A00008E4008313243C9B2202907D341699E0064
:102A1000895991420ED100210A465B1C641CE4B224
:102A20006D1CA445EAD8002907D041699C000959CA
:102A3000914201D00020F0BD5B1C7F1CFFB2BE455F
:102A4000D6D80120F0BD00B5FFF7CBFF002800D09D
:102A5000012000BDF0B587B00D460446FFF7F5FA3A
:102A600002900120687200272F73207BC01C800811
:102A7000E872A17B607B06F090FFA872A17B4843BF
:102A8000617B884205D0081A2872A87A401CA87277
:102A900000E02F720298002680B2011D05910121ED
:102AA000C907401801960490E07BFFF777F9A91950
:102AB00003910871A85500200E49B700C959486410
:102AC000E088009021680198A3880A180021304608
:102AD000FFF7C0F8207B01283BD0A97A2289414327
:102AE0004806410CA85D01430248C0590164012019
:102AF00000900FE00CA800100010C023040000801C
:102B00000010000C0020000C10100021202040219B
:102B1000FF7F00000146AB5D3046FFF79BF8FA48A7
:102B20000599C2595160C059049981600398761C77
:102B30000079F6B241000198081880B20190042E85
:102B4000B2D30298F14901600120FFF7CCF80120CF
:102B500055E5607B62894006A95D400CC3E7F8B586
:102B600017460C460646002501200090607BA17B9D
:102B70007B5D401A80195843618940004218E8B2D1
:102B80000121FFF767F86D1C042DEDD3FA7ADE4BB7
:102B90001046724380188646002110E09500002000
:102BA0008F00AC46803765696646AD5986009E59F0
:102BB000F551401C0428F6D3491CC9B2521C724579
:102BC000ECD3F8BDF8B517460C46064600250120A3
:102BD00000907B5DA17B18464B43618970434000A8
:102BE0000A18E8B20121FFF735F86D1C042DEED369
:102BF000FA7AC5491046724380188646002310E0D1
:102C0000950000209F00AC46803765696646AD5947
:102C100086008E59F551401C0428F6D35B1CDBB2AC
:102C2000521C7245ECD3F8BDFEB50C460646FFF7C4
:102C30000CFA0746307B032201287DD0607A0128F8
:102C4000207B1DD0401CC0B22073B17B884273D260
:102C500022463146FFF783FFBCB201260020AA4D71
:102C6000F607FF270237C10061188A1981006B58E7
:102C70009A6069580F60401CC0B20428F3D37FE00B
:102C8000401CC0B22073B37B98423DD8012833D199
:102C9000207A0028A07A01D0401EC0B2002540064C
:102CA000400C0290B8B2019001200090635D307B2F
:102CB0003289434300212846FEF7CCFF615D02982C
:102CC000914A0143A800125811648F4918220958EB
:102CD000B2564A64317B8E4B625D090419430A4344
:102CE000E9007A50019A5118874A091D105841602D
:102CF0006D1CEDB2042DD7D3207B2246401EC0B2FE
:102D00003146FFF75FFF28E0207A00283AD0181AF2
:102D10002073022060720025605D7B49AA008958FB
:102D2000FF3001300864207B22463146FFF717FF51
:102D300001200090635D00E024E0307BA17A5843DD
:102D4000491E484331894000421800212846FEF7B9
:102D500081FF6D1CEDB2042DDED3BCB20126002034
:102D6000694DF607FF270237C10061188A198100F3
:102D70006B589A6069580F60401CC0B20428F3D3A6
:102D80000020FEBD62720120FEBDF0B587B00C468A
:102D90000546FFF75AF90290012060720027277359
:102DA000A87BC01C8008E072297CE87B06F0F5FD5A
:102DB000A072297C4843E97B884205D0081A20721A
:102DC000A07A401CA07200E027720298002680B210
:102DD000011D05910121C907401801960490687CE6
:102DE000FEF7DCFFA11903910871A05500204649A8
:102DF000B700C9594864E888009029680198AB88F1
:102E00000A1800213046FEF725FFA87B2A890128F1
:102E100029D0A17A41434806A15D400C08433A49B4
:102E2000C9590864012000900146A35D3046FEF7B1
:102E300011FF35480599C2595160C0590499816004
:102E40000398761C0079F6B241000198081880B208
:102E50000190042EC3D302982C4901600120FEF793
:102E600042FF012074E6E97BA05D4906490CD5E7E5
:102E7000F7B5002582B016460C4601270097735D12
:102E8000A289E8B20121FEF7E5FE6D1C042DF5D301
:102E9000F27A029910464A438018864600231A495E
:102EA00010E0950000209F00AC468037A56966467B
:102EB000AD5986008E59F551401C0428F6D35B1C91
:102EC000DBB2521C7245ECD383E4F8B50C460546E0
:102ED0000988FFF7F1F8009061882846FFF7ECF8C1
:102EE0008646002331E0A0885843410000980E1820
:102EF000E0885843410070460A180A2020560028EE
:102F000008D0844600211BE00CA800100010C0234C
:102F10000010402F002106E04D00575B705B381811
:102F2000491C5053C9B2607A8842F5D80BE04D0075
:102F3000505F775FC01967463841491C5053C9B28A
:102F4000607A8842F3D85B1CDBB2207A9842CAD8F8
:102F5000F8BDF7B5002582B016460C46012700974C
:102F6000735DA289E8B20121FEF774FE6D1C042D89
:102F7000F5D3F27A029910464A4380188646002318
:102F8000954910E0950000209F00AC468037A56968
:102F90006646AD5986008E59F551401C0428F6D37B
:102FA0005B1CDBB2521C7245ECD312E4FEB50C463E
:102FB0000546FFF74AF80746A87B012843D0607A08
:102FC00001285AD0012069460872687F887200265D
:102FD000A88969460880E87B297C401A217B401833
:102FE000A15D484369894000401869464880002037
:102FF0008880C880A019007948723046FFF765FFC5
:10300000761CF6B2042EE3D3207B401CC0B22073A2
:10301000297C884230D222462946FFF729FFBCB2DC
:10302000012600206C4DF607FF270237C10061180A
:103030008A1981006B589A6069580F60401CC0B2B1
:103040000428F3D3C2E0288969460880688948804B
:10305000E87B0872687F88720025605D6946888019
:10306000605DC8806019007948722846FFF72DFF1F
:103070006D1CEDB2042DF0D3AAE0207A0028A07ACE
:1030800001D0401EC0B2217B491CC9B22173022964
:1030900020D3A9896A4611801072687F9072002639
:1030A000217BA05D891E484369894000401869461C
:1030B0004880A05D8880A05D297C48436946C8801F
:1030C000A019007948723046FFF7FFFE761CF6B271
:1030D000042EE5D3217B287C81423DD8012933D1C0
:1030E000207A0028A07A01D0401EC0B200264006F7
:1030F000400C0290B8B2019001200090A35DA87B23
:103100002A89434300213046FEF7A4FDA15D0298C1
:10311000314A0143B000125811642F491C2209584A
:10312000AA564A64A97B2D4BA25D090419430A43A0
:10313000F1007A50019A5118274A091D1058416030
:10314000761CF6B2042ED7D3207B2246401EC0B296
:103150002946FFF7FEFE26E0217A002938D0401AE2
:103160002073022060720026A05D1B49B2008958BE
:10317000FF3001300864207B22462946FFF778FEA5
:1031800001200090A35DA87BA17A5843491E4843C3
:1031900029894000421800213046FEF75BFD761C6D
:1031A000F6B2042EE0D3BCB2012600200A4DF60789
:1031B000FF270237C10061188A1981006B589A6095
:1031C00069580F60401CC0B20428F3D30020FEBD34
:1031D000032060720120FEBD0CA800100010402FDB
:1031E00010B501462B4806F0D8FB410A2A4A0120B7
:1031F000506029480023403003620F23C3620161FD
:10320000FF2141618161032151600421016210BDF0
:1032100070B5401F0C46214D030007F0D8F9081780
:10322000191D1D1D0D05081D2868844217D008466C
:10323000FFF7D6FF2C6012E029225206506BC9B26C
:10324000FF231B0218400843506308E0012000E000
:10325000002000F010F802E0002001F0C9FD01207C
:1032600070BD10B500F0A9F800F01CF80A490F2055
:103270004031C86210BD10B5002803D0084600F0E8
:103280004EF810BD0648C0780028FAD1084600F074
:1032900027F810BD40D2DF0340000052D0020000EA
:1032A000C83000003D200249000408637047000058
:1032B0004002005510B55B4C0320216805F036FF35
:1032C00020685949401C20601020886310BD0021EF
:1032D000022801D0032800D154490020816570479D
:1032E00010B529214906CA680C239A43CA600223F3
:1032F0004F4A012807D0022805D0032807D0002014
:1033000001F076FD10BD53604A48086210BD53605D
:1033100049480862C8688006800EC86010BDF8B5CC
:1033200029256D06E9680C221143E960404C01260D
:1033300000280BD0032806D0052803D0002001F078
:1033400057FDF8BD022060602E62F8BD3B4FA96BAF
:10335000B8690902090A0843A863786820603848F8
:10336000286238482862F720C0012862364828625F
:10337000364800F07BFB2E490020403108601C22BB
:103380004A608A60032161602E62314A2261606175
:103390000F21C943A16122626062A1622D4800F041
:1033A00065FB7868172108432060284800F05EFB21
:1033B0007868372108432060F8BD70B5264CA16BB2
:1033C0000020820012191268401C891A0E28F8D3B6
:1033D0002068224A29256D06904217D1E06B204AC9
:1033E000904213D1002910D1A0680104E0680002C6
:1033F0000143206901436068C0B203F08EFF606939
:10340000A169286308020830686370BD4020286302
:10341000144868631449072003F07FFF70BD002043
:103420007DE700007C020000C0030055B5320010AB
:1034300040000052A57F0000057800008CAC001011
:10344000A0FF000080FB0000817A000088130000CC
:10345000FF030000307500008007012010041020D9
:10346000130674190840000020202000F0B52649FA
:103470002448086225480168090A090201600268B7
:10348000FF21090203238A439B03D21802600268CA
:103490000C02A2431E0292190260026815022D0A54
:1034A0008A05AD18056045682D0A2D02C0354560B6
:1034B00045688D43ED18456045680127A543BF0564
:1034C000ED19456045682D022D0AAD184560C568A7
:1034D0008D43E918C160C168A1438919C160C16801
:1034E0000902090A8918C1600169090A0902C03183
:1034F000016107494017086005490648803908609E
:10350000F0BD00000000C08000ED00E000E400E03D
:1035100080E100E0E1F001000918BA4804220260ED
:10352000B84B0222403B1A6101221A6105231B0796
:103530009A608160B4490160491E01607047EBE701
:1035400070B50A46417804780B022343AF4C81786A
:10355000E3822183812424011D1B0126A3424FD035
:1035600007DCAB49591A2CD00C290AD00D295BD1A4
:1035700014E00024012D48D0062D26D00D2D53D166
:103580004DE0C278817812028918027940791204DC
:103590000006101809180C229E480FE0C3788178A5
:1035A0001B02C918037944791B0424061B19CB1884
:1035B000911F002938DD811D1846921F06F083F9FE
:1035C00032E09248403846772EE090498F4A2039C1
:1035D0000E700021803A43189D7853186033491CBF
:1035E000C9B25D702E29F6D3401881788A488022AE
:1035F0004170817A11438172C0682030047713E0F2
:10360000844910200C3908700EE0844A844801294E
:1036100002D01470047007E01670067004E00029F0
:1036200004D000207F490871012070BD0120F9E716
:1036300001228105D203801A8003000E82007A489D
:10364000890D8058002800D04018704705210423B8
:1036500084220907012807D0022803D004280AD0B1
:10366000082809D10B6007E00B60002000BF401C58
:10367000C0B2C828FAD30A600120704710B5C2B2A0
:10368000694B000A4400203B1B5B934202D8002098
:10369000088010BD644C8000603C205880189A1A45
:1036A0000A8010BDFEB55748604E4038406AFF2181
:1036B0008000800C01310D1A7078317804025C486A
:1036C0000C43846001200003022D0DD051DD411018
:1036D000611A202939D2FEF79EFAE9B23046FFF787
:1036E0002FFFFDF71FFA44E00927BF010026E11B69
:1036F000762908D200210420FFF7A8FFFEF754FA2C
:103700000019C11B1AE0844204D2204601A9FFF728
:10371000B5FF12E04749271A8F4206D20021042044
:10372000FFF794FF44493E460AE00121C903611AAC
:1037300081421ED22046FFF77BFF0146002918D0A8
:103740002A463046FFF7E8FE13E0844211D22046B5
:103750006946FFF793FF00280BD069460988AD1E24
:10376000A94201DD69460D8069460A88B11C06F050
:10377000AAF80120FEBD30B5842105221207116090
:1037800001231361002414621E49022540390D6093
:103790000B600D610B613F235B021843D0610C206D
:1037A000086222488862254808621648611EC16284
:1037B000C4621F490978012902D02149016230BD44
:1037C000FF210131FAE770B504211E4804F0A3FC83
:1037D000174C144E2078012505280DD06C20FFF7DA
:1037E000CAFF1949B570142048600020A0706560B8
:1037F000607804F06FFE70BD6C20FFF7BCFFB57001
:10380000F3E70000C00000500900FFFF3C1100007A
:10381000000800001C300000640600000F020000D9
:1038200011020000C830000044AA0010601300001C
:10383000D4020000C81C0000005D00400900000127
:10384000F0010060E07F0040B430000010B5827BE2
:10385000042A23D0022A23D00023152292060468CA
:1038600094614468D4619360037B447B5B1E1B04BA
:10387000641E2343D3600389847B1B0423431361A9
:103880004389807B1B0403435361012090621060D5
:10389000002902D050680028FCDB10BD0223DCE7C1
:1038A0000123DAE701211520800681620162704759
:1038B000F3B583B00E46FEF777F929240398002567
:1038C000640601280BD0022809D0032807D0042859
:1038D00069D0002001F08CFA012005B0F0BD374F0F
:1038E000314678690090364806F057F8E96B029146
:1038F000296C0191216A490849002162216A314AF3
:103900001143216230490D62FF22CA623D612F4995
:10391000E9632F492964A168FE221140A160216A50
:10392000022211432162002100BF00BF00BF491CD9
:103930003229F9D3216A012292021143216201271F
:1039400067621E494861886107220A61039803285B
:1039500016D030460099FCF7B3FD206A000C000435
:103960002062206A3843206265620298E863019809
:103970002864194817490160134804210162ABE724
:103980000098761C0BD0154B236230BF2562512363
:103990001B061D60486188610A61A760DDE70F4B67
:1039A00009332362F2E70C497D2000010D60A0611C
:1039B00003206061012060618EE7000000E000E00C
:1039C00050C30000A4FB000080000052030100006F
:1039D00007010000E120000000E100E0A67F0000F8
:1039E000FEE72648FDF709F8FEE710B52348FDF786
:1039F00004F8FCF771FD10BD10B504F068FC204B15
:103A0000204A0021204804F096FE1E4A1F4B521CFB
:103A100000211F4804F08FFE04F07CFC10BDF9214A
:103A2000532000068160416004210162FC21816213
:103A30000021C162FF210163704710B5FFF7EFFF5E
:103A400003F04EFCFFF70DFCFCF740FDFFF72AFFEB
:103A5000FFF7B9FEFFF70AFDFCF762FFFFF7CCFFA7
:103A600004F00CFF0B4A03C2012010BD002101E04D
:103A700000BF491C8142FBD37047000000879303BD
:103A80009C1A0000099001000B0A0010DC200000C5
:103A9000050D0010180300000A4603467047FEE7B4
:103AA00030B5034600208D4C01465A56920012193B
:103AB00052684D00AA40491C1043C9B21029F4D3E2
:103AC00030BDF8B50F4604461D4616461021104677
:103AD00005F05FFF06988078A04254D80699C9780F
:103AE000A14250D3201AC1B20024E878AA7803E09A
:103AF000091A1319C9B2DCB28842F9D9601E10182C
:103B00002B7AC0B2834204D8981AC4B2601E10182F
:103B1000C0B2002F0AD0012F0FD0202833D3202C81
:103B20001FD22022121BD2B200241DE0102C2AD258
:103B3000102800D30F20002223E0202C23D21028AD
:103B400021D3102C04D21022121BD2B2002402E086
:103B5000103CE4B20022202801D30F2011E01038DD
:103B600003E00022203CE4B22038C0B209E0EB7848
:103B70006F685343FB18CB5C3355641C521CE4B292
:103B8000D2B28442F3D9F8BD30B50446002085B0E6
:103B90002E2C06D2102C02D262000120904005B0DB
:103BA00030BD1578A54211D85378A3420ED3002218
:103BB000497A03E0521C8000D2B2401C9142F9D8ED
:103BC000621B4A435100091D8840E8E70B460092FA
:103BD00001AA00212046FFF774FF01A8FFF760FF4C
:103BE000DDE730B50446002085B02E2C06D2103C0F
:103BF000102CD4D2620001209040D0E71578A54265
:103C000015D85378A34212D30022497A03E0521CFC
:103C10008000D2B2401C9142F9D8621B4A43510045
:103C20001C3901D48840BAE74942C840B7E70B467F
:103C3000009201AA01212046FFF743FF01A8FFF7E8
:103C40002FFFACE730B50446002085B02E2C06D2FD
:103C5000203C0E2CA3D26200012090409FE71578F3
:103C6000A54215D85378A34212D30022497A03E023
:103C7000521C8000D2B2401C9142F9D8621B4A43C8
:103C800051003C3901D4884089E74942C84086E761
:103C90000B46009201AA02212046FFF712FF01A85D
:103CA000FFF7FEFE7BE770B505460C46007AA97863
:103CB0004018401E05F07BFE697A064608462D3006
:103CC00005F06BFE2E30A070E97871434118491E53
:103CD000E1702E212170401E607070BD54AA00104A
:103CE00010B501460420FFF7E3FD10BDFE48FF4973
:103CF0000078801C0870FE480078C107C90F0818BA
:103D0000FC49801C08707047F3B58600FA48FB4CEC
:103D100081B08059A16806F067FC0546E16806F0AD
:103D200063FC0146284606F055FA0746029806F05D
:103D30004BFB6168009106F001FD394606F09AFCE4
:103D4000009906F051FC6060284606F019FA044616
:103D50000D46384606F014FA0022E94B06F09AF8B0
:103D600022462B4606F0D8F805F0C4FEE2498851F9
:103D7000FEBDF3B58600E048E04C283881B080599C
:103D8000A16806F031FC0546E16806F02DFC01460D
:103D9000284606F01FFA0746029806F015FB216830
:103DA000009106F0CBFC394606F064FC009906F061
:103DB0001BFC2060284606F0E3F904460D46384611
:103DC00006F0DEF90022CE4B06F064F822462B46C0
:103DD00006F0A2F805F08EFEC74928398851FEBDCD
:103DE000FFB587B0054609980F4610990068019005
:103DF0001868009000201E46085E06F0E5FABF4CE9
:103E00002060049011990020085E06F0DDFA6060E1
:103E10000290009806F0D8FA0390029906F08EFC02
:103E2000014606F027FC0590019806F0CDFA0290B5
:103E3000049906F083FC014606F01CFC059906F087
:103E4000D3FB06F077FAC0111E2800DD1E20AD4915
:103E5000AE4B0A78AC49002A08D01298002808DC3A
:103E6000F80517D4AA48A060480711E0129A002A62
:103E700002DD00200BB0F0BDFA050BD506F041F8CD
:103E80000022A44B05F0F0FF05F034FEA060A2482C
:103E9000E06001E0E360A16097482830415D0029BF
:103EA00014D0019801B228B20546FFF762FF0098CE
:103EB00001B22846FFF728FF206806F03BFA09996F
:103EC0000860606806F036FA3060D2E7012141559B
:103ED000894A7F21C905A800283A1150283211507B
:103EE0000298206003986060E6E7FFB505468B48BE
:103EF0008B4A00781E464000135A8BB080180493FA
:103F0000808802903020874A684384180D9A1C20CC
:103F1000205E1368C21A00D51A1A1E27E75F33689D
:103F2000F81A00D5D81B1018009001900D98CF07F3
:103F3000006806F049FA0990302045437948642129
:103F400028180A25455F69430891C16A0791806A6C
:103F50000690002F35D001990498401806F034FAE5
:103F600002900390019806F02FFA014600900998FC
:103F700006F080FB0746049806F026FA01900699A1
:103F800006F078FB394606F02FFB039906F022F97C
:103F9000A06236E06431002800D5501B5043089AD7
:103FA000801805F004FD14990880A06A06F0C2F993
:103FB0000D990860E06A06F0BDF9306000200FB08E
:103FC000F0BD00990298401806F0FEF904900590A3
:103FD000009806F0F9F901460090099806F04AFBAE
:103FE0000746029806F0F0F90190069906F042FBA8
:103FF000394606F0F9FA059906F0ECF8A062049843
:104000000290009F306806F0DFF9394606F032FB77
:1040100007460799019806F02DFB394606F0E4FAA9
:10402000029906F0D7F8E06214980022825EA81A7E
:1040300001D40146AEE7511BACE7F3B53A4885B071
:104040000078002802D0002007B0F0BD3748384C77
:10405000C37D0393007E02902348228D0078009256
:10406000810041180620504305F097FC0746204880
:104070000622007881004118608D0190504305F0C0
:104080008CFC0646059829490088009A05B20698D6
:10409000039B008804B2192008565108002B4DDDFF
:1040A000BD4204DAE81B58438011C0190EE0521BD0
:1040B000BA4206DAD11B594389110098C919401A2E
:1040C00004E04A1B504305F072FC401905B2174941
:1040D0001A2008561649029A498D4908002A4ADDD5
:1040E000B44231DAA11B25E0500600004B0200006B
:1040F000510600004C02000008210000E002000010
:104100000000F03F310200009A99593F0000C04082
:104110003333733F0000E83F000020410F020000EE
:104120000C310000940E00005D020000D43000004D
:104130005007000051438811801916E0BD42C6DBCC
:10414000D21BAA42BDDAC2E7019A121BB24207DAB9
:10415000911B029A0198514389118919401A04E070
:104160000A1B504305F023FC001904B205980560B2
:104170000698046067E7B442F8DB019A921BA242FA
:10418000EEDAF3E7FFB587B01D4614460E46119FE1
:10419000079806F019F90590304606F015F90490D5
:1041A000204606F011F90390284606F00DF902901A
:1041B000109806F009F90190384606F005F90090CC
:1041C000BE4210DD1098001B06F0FEF80646781B74
:1041D00006F0FAF8314605F0FDFF0746059906F0AE
:1041E00049FA04990FE00798201A06F0EDF80746FF
:1041F000A81B06F0E9F8394605F0ECFF07460199DF
:1042000006F038FA009906F0EFF9054638460399AA
:1042100006F030FA029906F085FA06467800000E9C
:104220000ED00121384606F0DBF804463146284618
:1042300006F084FA214605F0CDFF06F07BF819E67A
:10424000204617E6F0B50E46054685B01446981B85
:1042500006F0BAF8029001900A992846684349434B
:104260000746C81B06F0B0F800900B98801B06F0BC
:10427000ABF8039020466043381A06F0A5F80146D3
:10428000039806F0F7F907460099019806F0F2F94D
:10429000394606F0A9F901900B98301A06F094F807
:1042A0000090601B06F090F806460A98029F401B9B
:1042B00006F08AF80146384606F0DCF90546314634
:1042C000009806F0D7F9294606F08EF9012106F08C
:1042D00087F801464000000E06D0019805F07AFFED
:1042E00006F028F805B0F0BD2046FBE7F0B5002247
:1042F000059E069D079C002804D1375E002F00DA3A
:1043000032801A80F84F3F787F1EB84205D10020D6
:10431000185E002800DA1A803280002904D1605E1D
:10432000002800DA22802A80F0480078401C814270
:1043300005D10020285E002800DA2A802280F0BD06
:10434000F0B59446EA4A0025EA4F14692B46FE561A
:10435000CA5C36187600A65F5B1C564375195BB2C3
:10436000042BF4DB4200A25E0B795A435519052356
:10437000FE18203E1F22B25616187600CA5CA65FB1
:104380005B1C564375195BB2092BF1DB6046054196
:1043900028B2F0BDFFB5064689B000200790D64888
:1043A0001F46017830460D4605F0F7FA044668438B
:1043B000301A85B2701E01900A99701C0090002975
:1043C0001FD0CC4903228A56C948921997B20422B9
:1043D0008A56006991190B04019976000A04865FD8
:1043E00004960099D20B825A6E463283DA0B825AB7
:1043F000B2827A000904825AB281C90B405A3084D1
:1044000034E07A7A39463046FFF79AFF04900198F3
:104410007A7A80B23946FFF793FF6946088300989D
:104420007A7A80B23946FFF78BFF69460884B24832
:104430007A7A00783946301A80B2FFF781FF6946F0
:104440008881AD487A7A00783946301880B2FFF713
:1044500077FF6946888208AA06A905A86E4607C69E
:1044600003AB69B260B2049AFFF740FF0B98C00734
:1044700053D068460C21415E1422049B825E99420F
:1044800003DD0B46914200DA13469C4E994210D14F
:1044900093420ED1A000801941681298002C01604F
:1044A00004D097480078C01E84425ED101200DB030
:1044B000F0BD9448807A00280BD0A0008446801973
:1044C000876800970192426860463058FFF7BAFE4D
:1044D0000AE0A0008446801987680097019242682C
:1044E00060463058FFF74EFE002800DA00207E4973
:1044F0000978890072588919496851184A1082420E
:1045000000DC48101299002C086004D07C48007828
:10451000C01E844201D1012007900B9880075AD514
:1045200068461821415E2026049B865F994203DD80
:104530000B46B14200DA3346704CC034994216D172
:10454000B34214D1A800001941681398002D0160EE
:1045500009D066480078C1076748C90F0078401A3B
:10456000C01EA84201D10220A1E700209FE76548B4
:10457000807A002809D0A800021997680097019650
:1045800052682058FFF75EFE08E0A80002199768FD
:104590000097019652682058FFF7F4FD002800DAD2
:1045A0000020524909788A00A358121952689A18B3
:1045B0005310834200DC5010139A002D106007D076
:1045C0004D48C9070078C90F401AC01EA84202D141
:1045D0000798801C0790079869E77CB50D46302145
:1045E000144648434849484A095A8218212010561F
:1045F00030225043454AC9058618F08800290095A5
:10460000019424DA424B01220021FFF7C3FE002867
:1046100001DB012807D1009501940122F0883C4B71
:104620001146FFF7B7FE3A4B00950194F0880A3324
:1046300002220021FFF7AEFE002801DB02281DD177
:10464000334B009501940A33F088022213E0304B7B
:1046500003220A3B0021FFF79DFE002805DB01280D
:1046600003D0022801D0032808D1294B00950194DA
:10467000F0880A3B03220121FFF78CFE7CBDF0B5D8
:10468000AFB000202B9001202890FDF78DFA2990E3
:10469000801C259029980021017029984170684656
:1046A0000173417304F0EAF81A4A03C2002024900F
:1046B00019482D9019482A90249F302047431248CA
:1046C000C45BFF20023004427CD0600602D5482043
:1046D000A04378D16846007B0A49269089788842B1
:1046E0001ED3094826E000005006000051060000D5
:1046F000700E0000030200004C02000064AA0010CB
:104700004B02000010300000940E0000B0080000C2
:1047100076AC00101803000068300000700700003D
:104720004820A0430AD1FE4839188A692D99097D8D
:104730008A4203D840210C43C453B5E2600706D532
:10474000F74839188A692D99097D8A4208D92007C6
:1047500009D5F34839188A692D99097D8A4202D80A
:104760000921C153A0E2EF490C420AD0EC483818A5
:104770002030C0784007800F03D0EB4A24990020F6
:104780005054EA490C420ED0E5481C213818415ECD
:1047900023911E21415E2291418920AA91832030DC
:1047A000807828900BE1600516D5E24BDC4DE04A9D
:1047B0001B787819D218127C8169914204D2491C65
:1047C000816171E265E266E201208002844320207B
:1047D0000443EC5301202890D14801213D1828467C
:1047E00020300290415630204143D3480E180A2011
:1047F000305EC1B22B91E1050AD4B17B490707D4E1
:10480000CC49CE4A097851182031897A88427DDC1A
:1048100022AA23A92498FFF7E0FE2C900620305E00
:10482000C74901900978009105F0C1F8C1B2009A1A
:1048300001984A43801AC2B22C98002867DAB07BEC
:10484000400710D58800BF4940182A994068497D23
:104850000841BC4923909000C03140182A99406813
:10486000897D084104E02820305E23902A20305EB4
:104870002290E00501D502202890B348A96902687A
:10488000AC48007810182030007D814205D102200C
:10489000285E23900420285E229022A923A8FFF7F7
:1048A000CCFBA0064CD5E0044AD50220285E23901C
:1048B0000420285E22902398A0280CDA22A923A89D
:1048C000FFF7BBFBA1480178A148C08805F065F857
:1048D0002399081A23904121090188420CDD22A95D
:1048E00023A8FFF7AAFB994801789948C08805F0EA
:1048F00054F823994018239037212298490188427F
:104900000FDD22A923A8FFF798FB01E072E068E021
:104910008E4841788E48008905F03FF8229940186A
:104920002290A0280CDA22A923A8FFF786FB87484B
:1049300041788748008905F030F82299081A2290BA
:104940007C487169007842007948805E091A091133
:104950004000081800B220A98883FF2800DDFF204E
:1049600088830090A86901280FD0288AA882A88986
:104970002882688AE882E8896882E8882399081A88
:10498000A88128892299081AE881239801B22C91DC
:10499000E980229E31B201912981A1060FD505F04F
:1049A00013FDA862304605F00FFDE8622C98A8833D
:1049B0000198E8830098688102992898887058487F
:1049C0001C223D181E21AA5E2398695E229B101AA4
:1049D000C91A4043494340182C90289801280FD009
:1049E00026E02A98417D2398084123902A98817DCA
:1049F000229836E72820305E23902A20305E4BE74D
:104A00004C494B4809784018203080782C99404315
:104A100088420DDB2320405D022803D0062801D008
:104A2000102805D11E202392285E229000202C9071
:104A30008120800004420BD0A8892399401800B23D
:104A4000E8802390E8892299401800B228812290BA
:104A50000026200709D50020252148551C20285E66
:104A6000102623901E20285E2290A00601D5042047
:104A700026E0200707D427A8009022AB23AA2146CE
:104A80002498FFF732FAE005800F0ED02046082167
:104A9000084029461E318A1E01910092029022ABE5
:104AA00023AA21462498FFF79BF922482949007838
:104AB0004000401800892C994043884201DC0820BE
:104AC00006432398002801DA002023902249239AE4
:104AD000088D904201DC401E23902298002801DAC4
:104AE00000202290488D229A904201DC401E2290A4
:104AF0001A488278002A7DD0F00602D5002020AA2C
:104B000090831748007805286ED111480079002855
:104B10002CD0088D239A0C23801A269A5A4321E020
:104B2000940E000048080000302100000C0A00002C
:104B3000843000000F020000B00800004830000080
:104B40004C02000064AA0010580200008C310000E2
:104B5000103000000C31000050070000C830000089
:104B6000D4020000994BD218401E05E0269A0C236F
:104B70005A43964B2398D2185071000A907194486A
:104B80004079002809D0488D22990C22401A269994
:104B900051438E4A8918401E05E026990C22514344
:104BA0008A4A22988918C871000A087226990C202E
:104BB000864A414389180091087000204870009986
:104BC000012088700099249808718249642203C9E1
:104BD000002304F028FE00994872000A8872F0064B
:104BE000C0170099401CC87026990C20414303A8A7
:104BF000091800E06CE0239A4A806A46127B0C2375
:104C00005A4312182299918020AA1C21515E6A46AB
:104C1000127B8C465A43C9011218D1806146002983
:104C200000D02B996A46127B0C235A43121811812B
:104C30003146022211436A46127B5A43121891727E
:104C4000E10501D5022100E001216A46127B0C2317
:104C50005A431218D1726A46127B24995A4310188B
:104C600001736A46107B401C10732398F20600B251
:104C7000A883229909B2E98302D5574A1083518348
:104C800020A8808B688120352898A87002200643D0
:104C9000EE70600608D551480021381881820182E3
:104CA000C18241828181C1812498401CC0B224907C
:104CB0000A2800D200E54A4A107805284DD0444B16
:104CC0001879002821D0474900200D8D03AE18E047
:104CD000710702D5C179002986D0F10602D5417A43
:104CE000002981D03107C0D5007A0028F4D0BCE774
:104CF0000C21414389194C882C1B641E401C4C809C
:104D0000C0B26946097B8142F2D85879002811D097
:104D1000344900204D8D03AE08E00C214143891930
:104D20008C882C1B641E401C8C80C0B26946097B99
:104D30008142F2D8D87800280FD0002003AC08E0D8
:104D40000C21414309194B888D884D80401C8B8074
:104D5000C0B26946097B8142F2D868460021037BD4
:104D600022E00C20484303AC0019259C458825808F
:104D7000259C85886580259CC588A580259D047A0D
:104D8000AC71259C857AE571259CC57A2572047BDA
:104D9000259844722998299C0078401C20702598F9
:104DA0000A30491CC9B225908B42DAD81078052800
:104DB00006D10D480D4903700448C37200200870E5
:104DC00029990020085E2FB0F0BD000044260000A5
:104DD0001030000018030000700E0000940E000058
:104DE000D4020000500700001E0600001F0600004D
:104DF000002812D129204006416902221143416155
:104E00008169FF22114381614169FD2211404161A5
:104E10004169012211434161FEE77047FEB58F48A9
:104E20008F490678F007C00F8019C0B242005118B0
:104E3000891D0091890704D00099C91C890889003F
:104E400000918849801C0978C0B200250291019028
:104E500030E001986843410000980C180022104689
:104E600011460AE05300E35E1F460E372C2F02D294
:104E7000C018491C09B2521C12B2B242F2DB00291E
:104E800002D004F094FD00E00020192149014843BC
:104E900083120020074609E04200A15AC91A09B24C
:104EA000A152002900DAA752401C00B2B042F3DB45
:104EB0006D1C2DB202988542CBDBFEBDF0B5002300
:104EC00015E0828804685A43A71800220AE05400BB
:104ED00095003C5F4E59002C00DA64423419521C94
:104EE0004C51D2B2C4799442F1D85B1CDBB28279C6
:104EF0009A42E6D8F0BDFEB507465A4869460078A2
:104F000000268872304631468200401CC0B2B9503B
:104F10005028F9D3002554486946445DE007C00F86
:104F20000019C0B20090CC72732189012846FDF7A8
:104F3000C3F801900098694640000881B000C1198B
:104F400001A8FFF7BBFF30196D1CEDB2C6B2042DEE
:104F5000E1D3FEBDF0B5414885B00078C107C90F67
:104F60000818C0B23E4942005118891D00918907B6
:104F700004D00099C91C8908890000913949097831
:104F80000490801CC2B2394802920078384A43002B
:104F90009A18528A0192029A51430391002802D131
:104FA0003448FFF7A8FF00234CE000982F4D59002C
:104FB00009182D780020AC466D000246AE4606E08A
:104FC00055004D5F002D00DD2818029D5219039DEC
:104FD000AA42F5DB6246002A0FD0019A90422FDBED
:104FE000234D72465219D288424360462818807B6E
:104FF00002416046002809D010E01E4C9A00A458D7
:10500000019A9042ECDA94421ADBE9E7E8886043BF
:10501000AC7B20414400A24200DA22460020074631
:105020000BE045004E5F002E05DD964202DBB61A0E
:105030004E5300E04F53029D4019039DA842F0DB00
:105040005B1CDBB204988342AFD305B0F0BD10B552
:10505000FFF780FFFFF7E2FE10BD000051060000E1
:10506000903B004050060000A00200000F0200002C
:105070002C3000003C21000010B5FF48FD49C16004
:10508000FE498160FE490161FE494161FE49C161FD
:10509000FE498161FE49CA88028509894185FD482A
:1050A0000178F54820304174FB4C2178817404214B
:1050B0004175817503F060F82078F94AC307DB0F6A
:1050C0001818801C9080F5494000001D08181060D9
:1050D00010BDF0B5F34F002384465C1E3D787E780A
:1050E00011E0E8188000C0194079884209D1E81819
:1050F00044B2A000C0190623C35E934205DAC28001
:1051000003E05B1CDBB29E42EBD8002C14DAB878CB
:105110001E2811D28000C019C280BA786046920061
:10512000D2191071B8788000C01941717878401C8C
:105130007870B878401CB870F0BD70B53025694300
:10514000846830396118848804255443E418CC807D
:105150000024E4430C810124CC818A700A700A7116
:10516000CB704B704B71455F5E0055436D0000681E
:10517000AD19405FCC4D9200521948615268054606
:105180005543EA178D61CA619A00C84BD21852681C
:105190005043C2174A6208624C818C8170BD002264
:1051A000C049012803D0887808704A7070470A7097
:1051B000FBE7F0B50546A5B00079129028462030EF
:1051C000817C00248A1CD2B20D92EA6826465118CE
:1051D000C91C1D916969119129690C91B1498C70A3
:1051E000417C2191807C20900F218901E868FBF7A8
:1051F000C7F9002081002A69401C56506A69C0B274
:1052000056501528F6D300203021414300220E319C
:10521000AB68401CC0B25A521928F5D30020AEE149
:1052200012992A6848434000101823900C9911984D
:1052300011910C900020014683000C9A401CC0B2D2
:10524000D1501528F8D30D990A9848431D99491E45
:1052500040181C9000208AE11C982E22401C1C90B3
:105260000898AA5E4100239809180020085E82422F
:105270007EDC089B119AD3185A78002A78D1129AAA
:105280003E2752000F928A1A1646403EF75F874229
:10529000EEDC0026965F8642EADC0226965F8642B6
:1052A000E6DC0A46403A3E26965F8642E0DC022271
:1052B0008A5E8242DCDC01269E700F9A3E275218DD
:1052C0001346403BDF5F8742D2DC089F0C9BDE55D4
:1052D0000F9BC95E8142CBDC089B0C99C9184E70AC
:1052E0000223D35E8342C3DC8E70192C7ED2601CF5
:1052F0002290C0B209903021A8684C4304190020C4
:105300000B90A9690A980870E969089808701C99B7
:10531000099808700998FFF742FF2846089B0A9AE7
:105320000999FFF70AFF802E01DB0B9611E1A969AD
:105330000B980D9A095C1091E9691D9B095C1B9102
:105340001099129848431B99400049004018296859
:10535000401810994A431B99591851180022825E2F
:105360000E920B9A521C12B20B920F9A831A00E003
:10537000FAE01718821E801C039000930D989C463B
:1053800002920A1A4B1E081801971593139263464E
:105390009B1E0493491C16911490BB1E0593511E2D
:1053A00063469B1C06931791BB1C411E521C401C5C
:1053B0001A90002007931992189107461F90B80081
:1053C00013A91E900858017800290ED0099881422F
:1053D0000BD01E9A684680580022825E0E98824248
:1053E00000DD02460998FFF774FE00E0B8E01E9861
:1053F000694608580021415E0E98814208DD1E98DA
:1054000013A9085801780998814201D001201F9002
:105410007F1C7FB2082FD2DB1F9800287ED182002C
:1054200013A989580B78002B79D16B469B58002221
:105430001E939A5E2E23EB5E9A4270DB0E9B9A427D
:105440006DDC099A0A701A490A5C1099511849B220
:10545000AA698E46915517490A5C1B99511849B2A1
:10546000EA698C469155761C1E99002336B2626912
:10547000CB5E21E09028004050070000B0080000FB
:1054800088070000DC070000600D0000E80D000048
:10549000103000005006000051060000903B004014
:1054A000380200003008000064AA001024AB00108D
:1054B0001C02000024020000D11861617146FF4AFD
:1054C000890089181E9A00234968D35EE769594309
:1054D000A369CA17C9187A41E261A1616146F84A15
:1054E000890089181E9A00234968D35E676A594368
:1054F000236ACA17C9187A4162622162618900224F
:10550000491C61811E998A5E322A02DDA189491CEB
:10551000A181022161567246714501E019E013E054
:1055200000DAA270002161567246714500DD2270DA
:105530000322A2566146624500DAE1700122A256BA
:105540006146624500DD6170401C40B2082800DA07
:1055500065E70B98B04200D0E5E62298C4B203E0BC
:1055600021980A90209808900898401CC0B2209971
:105570000890884200D26FE60A98401CC0B2219978
:105580000A90884200D24BE6204625B0F0BD30B5E7
:10559000302493686043C0180624045F12686300D7
:1055A000D55E4B00D35EAB4202DB0481C18030BDCF
:1055B0000824045F002C03DB6400125F9342F6DDD5
:1055C000018130BDF7B584460C46029830258368CA
:1055D000614630206C434143A646CA18E41850691E
:1055E0006569401950619069A669D569E7698619AE
:1055F0007D419661D561106A266A556A676A861987
:105600007D4116625562108A258A40191082508A9F
:10561000658A401950825089658940195081908966
:10562000A58940199081D089E5892843D08100203F
:10563000E0810220022510566557A84200DA9570D5
:105640000325032055572056854200DAD070704656
:105650005D561856854200DD5854012101205156EF
:105660002056814200DD507006216046615EC0B266
:10567000029AFFF78CFF0821615E002904DB604677
:10568000C0B2029AFFF783FFFEBDF7B584B002F007
:1056900081FD04988B4A8468002009E08100891804
:1056A0000B795B1E0B714B795B1E401C4B71C0B2BA
:1056B00091788142F2D8049D20358249887800286B
:1056C0007ED0002084460879302250430019428958
:1056D00048793023584300194089101882B20420B9
:1056E00008560390052008560190012032E07549C4
:1056F000830059180B793026029373431B195E8976
:105700004B79302700937B431B195B89F3189BB2BD
:10571000934208D21A460423CB5603930523CB5653
:105720008446019314E0934212D1039F029B654E7D
:10573000BB420DD1019F009BBB4209D10623CB5E2A
:1057400061468900891906268E5FB34200DACB8054
:10575000401CC0B25B498B788342C8D86046810048
:105760005848052208180421039041560191825699
:10577000029291420BD1534A9178890089180B8883
:1057800083804988C1809078401E907095E7049886
:1057900030220168019830235043029A07195A4376
:1057A00006201619385E0622B25E4000085E5200DE
:1057B000895E884200DD0846E97C4143287D00E09F
:1057C0005CE0014103980622825E914207DD049865
:1057D0007969808D814202DD7169814232DCA87D68
:1057E00000906B7D31463846012202F0E3FC049ABA
:1057F00001990298FFF7E6FE0598324B401EC0B2B1
:105800000590997803988900C9180A888280498888
:10581000C1809878401E987002990020CAB20DE0AD
:105820008100C9180F79019EB74200D10A714F79E2
:10583000019EB74200D14A71401CC0B299788142A2
:10584000A4D9EDE7A87D00906B7D3146384604224F
:1058500002F0B0FC1B4A03989178890089180B88E4
:1058600083804988C18090780421401E9070F0891F
:105870000843F081F8890843F8811EE702F0DCFC58
:105880000026059F13E03020784300190090807BAC
:10589000C00708D109E0302070430019807BC007A1
:1058A00012D0761C76B2192EF5DB7F1CFFB2192FB1
:1058B000E9D300200699074608604CE064AA00106E
:1058C00024AB001030080000302070430019302253
:1058D0000099FAF7B7FE00200099761CC88176B2CD
:1058E000E3E7302078430619B07BC00731D07069F8
:1058F0000090C0170190F169B069019B009A03F014
:10590000AAFF6A7D03F07CFF02B232850292716ABF
:10591000306A019B009A03F09EFFAA7D03F070FF9E
:1059200070850498029A018D0020491EFAF7D9FF6C
:10593000308504982A22418DB25E0020491EFAF774
:10594000D0FF7085069801687069814201DA069976
:1059500008607F1CFFB205988742C2D307B0F0BD34
:10596000FFB5FFB08446BEB014460020302141434D
:105970000F4661448A7BD20720D08B89450083AAD9
:10598000535385006AAA4B695351C20006AB8D6917
:105990009B18CE6960C338AE0B6AB2184D6A28C234
:1059A0008B78A0AA1354CB78AEAA13546346DB5D60
:1059B000A7AA13544A78B5A90A5403E0002143006A
:1059C00083AAD152401CC0B21928CFD3BE9900205F
:1059D000897800910DE0BE99820051184A7990AB08
:1059E000521E1A54097998AA491E1154401C009954
:1059F000C0B28142EFD88948002203902038006865
:105A0000019088E090A8805C3023074658436044AA
:105A10000623C35E01995800095E98A8805C302572
:105A20000646684360440625455F019B6800185E92
:105A3000814200DC08460399C97C091F4143039851
:105A4000007D0141BE98930018180623C35E994259
:105A50005FDA3846B7425CD001463346470083A838
:105A6000C65B5D00405B361883A8C65300264653CC
:105A70008F006AA8C5599E008059CE002D186AA8CB
:105A8000C55106A8851981CDB646DD0006AE029542
:105A9000751960CD4019774106AD754481C57646CC
:105AA00038A8851981CD029D38AE751960CD401991
:105AB00038AD7741754481C5A0AF785CFE5CB042DB
:105AC00000D27E54AEAF7D5CF85C854200D2785443
:105AD000A7AF7D5CF85C854200D97854B5AD685CB1
:105AE000EB5C984200D96B54501CC0B290A998AEA0
:105AF0000CE00D5CB35C9D4201D18D5C0D54355CB6
:105B00009D4201D18B5C3354401CC0B2009B834248
:105B1000EFD8521CD2B20098904200D972E7002010
:105B200060803F48A0800020632583AA6AAB4100C3
:105B3000515A00290BD06688B14201D961800546CF
:105B4000A688B14203D2A18081005958E160401C6F
:105B5000C0B21928EBD3632D5DD0A8001A58AEA8A7
:105B6000A260405DA074A0A8405D2074B5A8405D0F
:105B7000E074A7A8405D607416460398F317407C54
:105B800000213246049303F04EFE00900191E8009C
:105B900006A90290214A091803C9203A128D002350
:105BA00003F041FE019B009A03F055FE00B2A08273
:105BB0000190009003980021807C3246049B03F002
:105BC00032FE06460F46029838A9144A091803C93E
:105BD000203A528D002303F026FE32463B4603F066
:105BE0003AFE01B2E1820098002801DA002006E0C6
:105BF0000A48019A2038008D824201DB401EA082B3
:105C0000002901DA002005E004482038408D814257
:105C100001DB401EE0827FB042B0F0BD70070000A3
:105C20002F750000F8B50024AD4F1D2625467601DE
:105C3000E0B23946FCF740FA00228554521CB242C9
:105C4000FBDB641C042CF3DBF8BD10B5FFF7EAFFA7
:105C50003821A44803F09FFEA2480121203081741E
:105C60000023C37443758175C1759F4802789F48AE
:105C7000540084819E4C24780475427401749D4CB8
:105C800004609C4CA0344460C2819B4A12784282DA
:105C900083609A48017010BDF0B5458A81686D43F4
:105CA00000292AD0002224E0818903685143591831
:105CB0008C46C1894368514384685B18661800218B
:105CC00012E0745C002C0DD14C0067463C5F6443CD
